:020000040800F2
:1000000000500020A51D0008050400080704000892
:10001000090400080B0400080D040008000000009B
:100020000000000000000000000000002112000895
:100030000F04000800000000C112000805130008AA
:10004000ED1D0008ED1D0008ED1D0008ED1D000868
:10005000ED1D0008ED1D0008ED1D0008ED1D000858
:10006000ED1D0008ED1D0008ED1D0008ED1D000848
:10007000ED1D0008ED1D0008ED1D0008ED1D000838
:10008000ED1D0008ED1D0008ED1D0008ED1D000828
:10009000ED1D0008ED1D0008ED1D0008ED1D000818
:1000A000ED1D000811040008ED1D0008ED1D0008FD
:1000B000ED1D0008ED1D0008ED1D0008ED1D0008F8
:1000C000ED1D0008ED1D0008ED1D0008ED1D0008E8
:1000D000ED1D0008ED1D0008ED1D0008ED1D0008D8
:1000E000ED1D0008ED1D0008ED1D000800000000DA
:1000F0000000000000000000000000000000000000
:0C01000000000000000000005FF808F1A3
:1001100010B5054C237833B9044B13B10448AFF341
:1001200000800123237010BD3C040020000000006B
:10013000BC1F000808B5034B1BB103490348AFF3CC
:10014000008008BD0000000040040020BC1F000823
:1001500008B5642000F0D6FFFBE7000008B54FF4B7
:100160000051074800F0F2FA322000F0CBFF1021D6
:10017000044800F0EBFA322000F0C4FFEFE700BFC4
:100180000010014000080140034B0360034B0B606B
:1001900080231360704700BF6006002060040020C9
:1001A00010B58EB0124C0DF11C0CA646BEE80F0027
:1001B000ACE80F009EE807008CE80700002107A8C4
:1001C00000F06BFF0B4B1860EE4604F11C0CBCE812
:1001D0000F00AEE80F009CE807008EE80700002142
:1001E000684600F05AFF044B18600EB010BD00BF07
:1001F000D41F0008580400205C0400202DE9F041C1
:1002000088B000240494059406940794214B9A69BD
:1002100042F010029A619A6902F010020192019A6A
:100220009A6942F020029A619A6902F020020292D1
:10023000029A9A6942F004029A619B6903F00403EE
:100240000393039BDFF8508022464FF40051404651
:1002500000F076FA114D22461021284600F070FA7F
:100260004FF400530493012705970694022607963E
:1002700004A9404600F052F9102304930597069410
:1002800007960DEB0301284600F048F908B0BDE8D9
:10029000F08100BF00100240001001400008014042
:1002A00008B50268034B9A4200D008BD00F0CCF8B4
:1002B000FBE700BF002C014072B6FEE700B591B02D
:1002C0002822002106A801F0B7FD00230193029324
:1002D000039304930593012206924FF4803307930E
:1002E0000A9202220D920E934FF4E0130F9306A888
:1002F00000F04CFA80B90F230193022102910023F0
:1003000003934FF480620492059301A800F070FCFF
:1003100020B911B05DF804FBFFF7CEFFFFF7CCFF6B
:1003200008B500F07FF8FFF7C9FFFFF767FFFFF799
:1003300037FF00F0ADFEFEE700B583B0114B9A69C0
:1003400042F001029A619A6902F001020092009A59
:10035000DA6942F08052DA61DB6903F0805301937D
:10036000019B00220F216FF0010000F091F8064A76
:10037000536823F0E06343F00073536003B05DF80B
:1003800004FB00BF001002400000014000B589B02E
:1003900001460022192000F07BF8192000F0B0F887
:1003A000144B9A6942F400629A619B6903F40063FA
:1003B0000193019B02A903A800F0E6FC00F0D4FC25
:1003C0000D4BA3FB00239B0C013B0C480C4A026025
:1003D00040F2E732C260436000230361836000F0B3
:1003E00023FE18B1012009B05DF804FB034800F0BA
:1003F000EBFCF8E70010024083DE1B43B40600204C
:10040000002C0140FEE7FEE7FEE7FEE7FEE770474F
:1004100008B5024800F010FD08BD00BFB40600207A
:100420007047000008B5074A136843F010031360D3
:10043000032000F01BF80F20FFF7A8FFFFF77CFF59
:10044000002008BD00200240034A1168034B1B78BE
:100450000B441360704700BFFC060020040000201E
:10046000014B1868704700BFFC060020074AD3689C
:1004700023F4E0631B041B0C000200F4E060034360
:1004800043F0BF6343F40033D360704700ED00E0F6
:1004900000B5194BDB68C3F30223C3F1070CBCF1B1
:1004A000040F28BF4FF0040C03F1040EBEF1060F39
:1004B00018D9033B4FF0FF3E0EFA0CFC21EA0C0169
:1004C00099400EFA03F322EA0303194300280BDBD9
:1004D0000901C9B200F1604000F5614080F80013E5
:1004E0005DF804FB0023E5E700F00F000901C9B245
:1004F000024B1954F4E700BF00ED00E014ED00E0FA
:10050000002807DB00F01F02400901239340024A44
:1005100042F82030704700BF00E100E070B582B0C3
:100520000024A446A6E0804DAA4210D007D97F4DF2
:10053000AA420CD005F58035AA4208D013E0A5F5F3
:100540008015AA4203D005F57025AA4207D18A6812
:10055000002A58D0012A51D04361082403E0A5F5B0
:100560008015AA42F3D0BEF1FF0F4ED80646BEF169
:10057000FF0F4CD84FEA8C0233680F25954023EAD1
:10058000050304FA02F2134333604B6813F0805FF3
:100590006ED0674B9A6942F001029A619B6903F041
:1005A00001030193019B4FEA9C02951C614B53F898
:1005B00025600CF003039D000F23AB4026EA0306E1
:1005C0005D4B984229D003F58063984200F08E80FD
:1005D00003F58063984200F08B8003F580639842B6
:1005E00019D004231AE0CC68BDE7CC680434BAE71C
:1005F000CC680834B7E7CC680C34B4E7036108244E
:10060000B1E70024AFE70424ADE7061DAFE7ACF186
:1006100008029200B0E7032300E00023AB4033431D
:100620000232444D45F822304B6813F4801F61D0EC
:10063000424A936843EA0E0393604B6813F4001F29
:100640005ED03E4AD36843EA0E03D3604B6813F48E
:10065000003F5BD0394A536843EA0E0353604B684E
:1006600013F4803F58D0354A136843EA0E031360F1
:100670000CF1010C0A6832FA0CF353D0012303FA8F
:100680000CF302EA030E33EA0202F1D14A68122A9D
:100690003FF649AF122A3FF666AF01A555F822F0A2
:1006A0004F050008E7050008F105000803060008EB
:1006B000670500086705000867050008670500086A
:1006C000670500086705000867050008670500085A
:1006D000670500086705000867050008670500084A
:1006E00067050008EB050008F7050008012395E7FA
:1006F000022393E7114A936823EA0E0393609CE771
:100700000E4AD36823EA0E03D3609FE70B4A53686F
:1007100023EA0E035360A2E7084A136823EA0E0394
:100720001360A5E702B070BD000022100000311078
:100730000010024000000140000801400004014098
:100740000AB101617047090401617047C36801EA99
:10075000030221EA030141EA0241016170470000FE
:1007600082B0084B1B68084AA2FB03235B0A00FB0C
:1007700003F3019300BF019B5A1E0192002BF9D194
:1007800002B0704700000020D34D6210002800F036
:10079000F18170B582B00446036813F0010F2CD0CC
:1007A000994B5B6803F00C03042B1DD0964B5B68E0
:1007B00003F00C03082B12D06368B3F5803F41D0DF
:1007C000002B55D103F1804303F504331A6822F45A
:1007D00080321A601A6822F480221A6037E08A4B4D
:1007E0005B6813F4803FE7D0874B1B6813F4003F2E
:1007F00003D06368002B00F0BF81236813F0020F61
:1008000075D0814B5B6813F00C0F5FD07E4B5B683B
:1008100003F00C03082B54D02369002B00F08A80CE
:100820007A4B01221A60FFF71BFE0546764B1B68C8
:1008300013F0020F75D1FFF713FE401B0228F5D904
:1008400003209EE1704A136843F4803313606368A9
:1008500043B3FFF705FE05466B4B1B6813F4003FDF
:10086000CBD1FFF7FDFD401B6428F5D9032088E1BB
:10087000B3F5A02F09D0644B1A6822F480321A60B5
:100880001A6822F480221A60E1E703F18043A3F59D
:100890003C331A6842F480221A601A6842F48032AB
:1008A0001A60D4E7FFF7DCFD0546574B1B6813F4CD
:1008B000003FA2D0FFF7D4FD401B6428F5D90320E8
:1008C0005FE1514B5B6813F4803FA5D14E4B1B6831
:1008D00013F0020F03D02369012B40F04F814A4AE5
:1008E000136823F0F803616943EAC10313602368C6
:1008F00013F0080F33D0A369002B5CD0434B0122C7
:10090000C3F88024FFF7ACFD05463F4B5B6A13F04C
:10091000020F21D1FFF7A4FD401B0228F5D90320C7
:100920002FE1394A136823F0F803616943EAC103F0
:100930001360DCE7354B00221A60FFF791FD054696
:10094000314B1B6813F0020FD1D0FFF789FD401B1C
:100950000228F5D9032014E10120FFF701FF2368E5
:1009600013F0040F00F09680274BDB6913F0805FD3
:1009700034D1254BDA6942F08052DA61DB6903F049
:1009800080530193019B0125214B1B6813F4807F49
:1009900026D0E368012B3DD0002B53D103F18043D7
:1009A00003F504331A6A22F001021A621A6A22F06D
:1009B00004021A6233E0154B0022C3F88024FFF7CB
:1009C0004FFD0546104B5B6A13F0020FC7D0FFF7CF
:1009D00047FD401B0228F5D90320D2E00025D3E7CC
:1009E0000B4A136843F480731360FFF739FD064622
:1009F000074B1B6813F4807FCBD1FFF731FD801BC1
:100A00006428F5D90320BCE00010024000004242F7
:100A1000007000405F4A136A43F001031362E36809
:100A200033B3FFF71DFD06465A4B1B6A13F0020F46
:100A30002FD1FFF715FD801B41F288339842F3D97F
:100A400003209EE0052B09D0524B1A6A22F00102C6
:100A50001A621A6A22F004021A62E0E74D4B1A6A1F
:100A600042F004021A621A6A42F001021A62D6E7E0
:100A7000FFF7F6FC0646474B1B6A13F0020F08D03F
:100A8000FFF7EEFC801B41F288339842F3D9032034
:100A900077E0E5B9E369002B72D03E4A526802F074
:100AA0000C02082A56D0022B17D03B4B00221A66A4
:100AB000FFF7D6FC0446374B1B6813F0007F47D086
:100AC000FFF7CEFC001B0228F5D9032059E0314A7C
:100AD000D36923F08053D361DCE72F4B00221A66E1
:100AE000FFF7BEFC05462B4B1B6813F0007F06D0BA
:100AF000FFF7B6FC401B0228F5D9032041E0236A2A
:100B0000B3F5803F1AD023494B6823F47413226A4B
:100B1000606A024313434B601F4B01221A66FFF7C2
:100B20009FFC04461B4B1B6813F0007F0ED1FFF7A0
:100B300097FC001B0228F5D9032022E0154A5368D0
:100B400023F40033A1680B435360DCE7002018E076
:100B5000002016E0012B16D00E4B5B6803F48031A9
:100B6000226A914211D103F47013626A93420ED14A
:100B7000002006E001207047012002E0012000E093
:100B8000002002B070BD0120FBE70120F9E7012041
:100B9000F7E700BF00100240000042420F4B5B68C5
:100BA00003F00C02082A01D00D487047C3F38342BA
:100BB0000C49885C13F4803F0BD0084B5B68C3F38F
:100BC0004043094AD35C064A02FB00F0B0FBF3F055
:100BD0007047064B03FB00F0704700BF0010024057
:100BE00000127A003C2000084C20000800093D005B
:100BF000002800F0A08070B50D460446524B1B68DB
:100C000003F007038B420BD24F4A136823F007030C
:100C10000B431360136803F007038B4240F08D8091
:100C2000236813F0020F17D013F0040F04D0474AC3
:100C3000536843F4E0635360236813F0080F04D053
:100C4000424A536843F460535360404A536823F068
:100C5000F003A1680B435360236813F0010F31D0F8
:100C60006368012B20D0022B25D0384A126812F07D
:100C7000020F64D035494A6822F0030213434B60E7
:100C8000FFF7EEFB0646314B5B6803F00C0362682E
:100C9000B3EB820F16D0FFF7E3FB801B41F28833E2
:100CA0009842F0D9032045E0284A126812F4003F28
:100CB000E0D101203EE0254A126812F0007FD9D130
:100CC000012037E0204B1B6803F00703AB420AD931
:100CD0001D4A136823F007032B431360136803F0C6
:100CE0000703AB422DD1236813F0040F06D0174A37
:100CF000536823F4E063E1680B435360236813F007
:100D0000080F07D0114A536823F46053216943EA5E
:100D1000C1035360FFF742FF0C4B5B68C3F303133F
:100D20000B4AD35CD8400B4B18600B4B1868FFF78D
:100D30002DFB002070BD012070470120FAE7012043
:100D4000F8E70120F6E700BF002002400010024053
:100D5000242000080000002008000020014B186833
:100D6000704700BF0000002008B5FFF7F7FF044BF5
:100D70005B68C3F3C223034AD35CD84008BD00BFFD
:100D800000100240342000080F2303600B4B5A6808
:100D900002F0030242605A6802F0F00282605A6870
:100DA00002F4E062C2605B68DB0803F4E0630361A5
:100DB000034B1B6803F007030B60704700100240F1
:100DC000002002407047000090F83D30DBB2012B5C
:100DD00027D1022380F83D300268D36843F0010335
:100DE000D3600368114A934210D0B3F1804F0DD005
:100DF000A2F59432934209D002F58062934205D065
:100E00001A6842F001021A60002070479A6802F0E6
:100E10000702062A07D01A6842F001021A60002071
:100E20007047012070470020704700BF002C014030
:100E3000704770477047704710B5044603681A69D9
:100E400012F0020F11D0DA6812F0020F0DD06FF01D
:100E500002021A610123037703689B6913F0030FF1
:100E600070D0FFF7E6FF0023237723681A6912F09A
:100E7000040F12D0DA6812F0040F0ED06FF00402E3
:100E80001A610223237723689B6913F4407F5FD0A4
:100E90002046FFF7CEFF0023237723681A6912F05C
:100EA000080F12D0DA6812F0080F0ED06FF00802A7
:100EB0001A61042323772368DB6913F0030F4ED0F4
:100EC0002046FFF7B6FF0023237723681A6912F044
:100ED000100F12D0DA6812F0100F0ED06FF010025F
:100EE0001A61082323772368DB6913F4407F3DD020
:100EF0002046FFF79EFF0023237723681A6912F02C
:100F0000010F03D0DA6812F0010F36D123681A6995
:100F100012F0800F03D0DA6812F0800F34D123680A
:100F20001A6912F0400F03D0DA6812F0400F32D184
:100F300023681A6912F0200F03D0DA6812F0200F2C
:100F400030D110BDFFF774FF2046FFF773FF8AE72B
:100F50002046FFF76DFF2046FFF76CFF9BE720461A
:100F6000FFF766FF2046FFF765FFACE72046FFF777
:100F70005FFF2046FFF75EFFBDE76FF001021A61D9
:100F80002046FFF78DF9C1E76FF080021A61204615
:100F900000F077F8C3E76FF040021A612046FFF7D0
:100FA0004AFFC5E76FF020021A61204600F068F89A
:100FB000C7E7000003681B4A90420AD0B0F1804F97
:100FC00007D0A2F59432904203D002F5806290429D
:100FD00003D123F070034A681343124A90420AD0A7
:100FE000B0F1804F07D0A2F59432904203D002F5C1
:100FF0008062904203D123F44073CA68134323F004
:1010000080034A69134303608B68C3620B68836281
:10101000044B984202D00123436170470B6903637C
:10102000F9E700BF002C014040B310B5044690F82A
:101030003D30F3B1022384F83D30214651F8040BD2
:10104000FFF7B8FF012384F8463084F83E3084F877
:101050003F3084F8403084F8413084F8423084F8DE
:10106000433084F8443084F8453084F83D30002023
:1010700010BD80F83C30FFF7A5FEDBE7012070478C
:1010800070477047842801D00330704700207047B4
:1010900008B500F0CBFC002008BD2DE9F04387B077
:1010A00004460F464569BDB18669AEB1D0F80480EB
:1010B000D0F80090B0F90800FFF7E4FF0296019520
:1010C00000903B4622694946404600F041FC0590AD
:1010D000059807B0BDE8F08365682668D4F81080ED
:1010E000B4F90800FFF7CEFF05AB019300903B4633
:1010F0001FFA88F23146284600F064FC0128E7D048
:101100000020E6E708B500B9012000F0D9FD002075
:1011100008BD00F1080343604FF0FF328260C360F6
:101120000361002303607047002303617047436835
:101130004B609A688A605160996008610368013366
:101140000360704730B40D68B5F1FF3F11D000F176
:1011500008031C465B681A68AA42FAD963684B60A8
:1011600099608C606160086103680133036030BC82
:1011700070470469F2E70369416882688A604168E0
:1011800051605A68824206D0002202611A68013A10
:101190001A601868704782685A60F5E782B00023C9
:1011A00001930D4B1B68B3F1FF3F08D04FF0500384
:1011B00083F31188BFF36F8FBFF34F8FFEE74FF0BC
:1011C000500383F31188BFF36F8FBFF34F8F019BE1
:1011D000002BFCD002B070470C00002006480068CD
:1011E000006880F3088862B661B6BFF34F8FBFF323
:1011F0006F8F00DF00BF000008ED00E04FF080734C
:1012000040F8043C21F0010140F8081C034B40F871
:101210000C3C40F8202C4038704700BF9D1100085E
:10122000074B19680868B0E8F00F80F30988BFF32E
:101230006F8F4FF0000080F311884EF00D0E704755
:10124000201300204FF0500383F31188BFF36F8FFA
:10125000BFF34F8F0B4A136801331360012B00D08B
:1012600070474FF0E023D3F8043D13F0FF0FF7D0A1
:101270004FF0500383F31188BFF36F8FBFF34F8F8D
:10128000FEE700BF0C000020094B1B6843B94FF07C
:10129000500383F31188BFF36F8FBFF34F8FFEE7C7
:1012A000013B034A13600BB983F31188704700BFF9
:1012B0000C00002000000000000000000000000002
:1012C000EFF30980BFF36F8F0D4B1A6820E9F00F21
:1012D00010602DE908404FF0500080F3118800F0B5
:1012E00015FD4FF0000080F31188BDE80840196833
:1012F0000868B0E8F00F80F30988BFF36F8F70477C
:101300002013002008B54FF0500383F31188BFF37A
:101310006F8FBFF34F8F00F0CBFB28B14FF0E0236E
:101320004FF08052C3F8042D002383F3118808BDC9
:101330004FF0E022002313619361054B1B680549C0
:10134000A1FB03139B09013B536107231361704702
:1013500000000020D34D621010B582B02A4B1A78DD
:10136000D2B20192FF221A701B78DBB28DF80330E3
:101370009DF8033003F05003244A1370244B0722D6
:101380001A6009E0224A1368013B13609DF803309C
:101390005B00DBB28DF803309DF8033013F0800F53
:1013A000F0D11B4B1B68032B08D04FF0500383F385
:1013B0001188BFF36F8FBFF34F8FFEE71B02144AF4
:1013C000136003F4E0631360019BDBB20E4A1370F9
:1013D0004FF0E023D3F8202D42F47002C3F8202D03
:1013E000D3F8202D42F07042C3F8202DFFF7A0FF64
:1013F0000024084B1C60FFF7F1FE00F087FCFFF7AC
:10140000CDFE204602B010BD00E400E00007002041
:10141000040700200C000020124A12F0070F1ED013
:10142000D11D21F00701C1F5406313440A460E485F
:101430000260002141601344083B23F007030B487E
:10144000036059601960991A51601360084B196064
:10145000084B1960084B4FF000421A6070474FF478
:101460004063E4E70C070020181300200807002061
:1014700014130020101300200C130020154B1A46E3
:101480001B688342FBD3516802EB010C844509D0F1
:10149000416800EB010C634509D00360904218D00D
:1014A000106070474068014451601046F0E710B486
:1014B000094C2468A3420AD05B6819444160136850
:1014C0001B680360904200D0106010BC704704603D
:1014D000F8E77047181300200807002070B505468C
:1014E00000F0DEFA344B1B68A3B1344B1B681D427D
:1014F0004AD135B1083515F0070F02D025F00705A0
:101500000835002D42D02E4B1B68AB424DD32D4ADF
:10151000146804E0FFF780FFE7E722461C46636893
:10152000AB4202D22368002BF7D1234B1B68A342A6
:101530003DD0166808362368136063685B1B102B68
:1015400010D9601910F0070F08D04FF0500383F343
:101550001188BFF36F8FBFF34F8FFEE74360656065
:10156000FFF78CFF626816490B689B1A0B601649DF
:1015700009688B4201D214490B60104B1B6813435E
:1015800063600023236002E0002600E0002600F0F4
:101590001BFB16F0070F0CD04FF0500383F311889C
:1015A000BFF36F8FBFF34F8FFEE70026EFE70026F4
:1015B000EDE7304670BD00BF080700200C13002087
:1015C00010130020181300201413002080B338B526
:1015D0000446A0F1080550F8043C164A126813426C
:1015E00008D14FF0500383F31188BFF36F8FBFF31F
:1015F0004F8FFEE750F8081C41B14FF0500383F3C2
:101600001188BFF36F8FBFF34F8FFEE723EA02030A
:1016100040F8043C00F044FA54F8041C064A1368ED
:101620000B4413602846FFF729FF00F0CDFA38BDC0
:10163000704700BF0C13002010130020084B1B68DC
:101640001B6823B9074B4FF0FF321A607047044BF9
:101650001B68DB68DB685A68024B1A60704700BF82
:1016600024130020FC1300202DE9F047074698467C
:10167000089DDDF824900A9C266B02F18042013A15
:1016800006EB820626F007064FF0000CBCF10F0FA8
:101690000BD811F80C2004EB0C0383F8342011F85C
:1016A0000C3013B10CF1010CF0E7002384F8433047
:1016B000062D00D90625E56265644FF0000AC4F8DE
:1016C00048A0201DFFF730FD04F11800FFF72CFDA6
:1016D0002461C5F10705A5616462C4F84CA084F8D3
:1016E00050A0424639463046FFF788FD2060B9F1E8
:1016F000000F01D0C9F80040BDE8F08738B50024DC
:1017000007E004EB840293000E481844FFF701FD44
:101710000134062CF5D90C4D2846FFF7FAFC0B4C8A
:101720002046FFF7F6FC0A48FFF7F3FC0948FFF7ED
:10173000F0FC0948FFF7EDFC084B1D60084B1C60EE
:1017400038BD00BF2C130020D0130020E41300206C
:1017500004140020301400201C1400202413002046
:101760002813002010B50446FFF76CFD214A1368CA
:1017700001331360204B1B685BB1204B1B686BB9B6
:101780001D4B1B68DA6AE36A9A4207D81A4B1C6041
:1017900004E0194B1C601368012B28D0184A136809
:1017A00001331360E06A01238340164A11680B433A
:1017B000136000EB8000211D134B03EB8000FFF74B
:1017C000B6FCFFF761FD0D4B1B687BB10A4B1B6834
:1017D000DA6AE36A9A4209D24FF0E0234FF080526E
:1017E000C3F8042DBFF34F8FBFF36F8F10BDFFF70A
:1017F00085FFD3E7B8130020201300201814002021
:10180000C8130020CC1300202C13002010B5044670
:1018100090F8513063B1012B11D0022B0ED04FF054
:10182000500383F31188BFF36F8FBFF34F8FFEE731
:10183000006BFFF7CBFE2046FFF7C8FE10BDFFF799
:10184000C5FEFBE70F4B1B68D3B110B5FFF7FAFCE1
:101850000D4BDB68DC68201DFFF78DFC0B4A13681D
:10186000013B1360074A1368013B1360FFF70CFD4F
:101870002046FFF7CBFF034B1B68002BE6D110BDC2
:10188000704700BFBC13002030140020B8130020A4
:1018900008B5FFF7D7FF074B1B68012BF9D94FF0AD
:1018A000E0234FF08052C3F8042DBFF34F8FBFF3F6
:1018B0006F8FEEE72C13002070B504460D461D4BCC
:1018C0001E681D4B18680430FFF755FC50B91A4BC1
:1018D0001B68DA6A012303FA02F218490B6823EA4B
:1018E00002030B60B4F1FF3F0DD03444124B1B6870
:1018F0005C60A64210D9124B18680F4B196804316E
:10190000FFF720FC70BD002DEFD00B4B19680431A0
:101910000C48FFF70CFCF5E70B4B1868064B1968F1
:101920000431FFF70FFC094B1B68A342EAD9074BB0
:101930001C60E7E74414002020130020CC13002093
:10194000281300201C14002024130020FC13002066
:1019500030B587B00B9C7CB10C9DB5B15425049576
:10196000049D542D1AD04FF0500383F31188BFF318
:101970006F8FBFF34F8FFEE74FF0500383F3118853
:10198000BFF36F8FBFF34F8FFEE74FF0500383F32A
:101990001188BFF36F8FBFF34F8FFEE70C9D2C6351
:1019A000022485F8514000240394029505AC01946B
:1019B0000A9C0094FFF758FE0C98FFF7D3FE059899
:1019C00007B030BD2DE9F04385B007468846144680
:1019D0001E469000FFF782FD00B381465420FFF7BA
:1019E0007DFD0546B0B1C0F83090E5B1002385F823
:1019F0005130039302950D9B01930C9B009333464A
:101A0000224641463846FFF72FFE2846FFF7AAFE3A
:101A1000012005E04846FFF7D9FDE6E74FF0FF302B
:101A200005B0BDE8F0834FF0FF30F9E710B588B09E
:101A300000240594069407AA06A905A8FEF7A4FBAE
:101A4000059B0293069B019300942346079A0E4937
:101A50000E48FFF77DFF0E4B186090B14FF050031A
:101A600083F31188BFF36F8FBFF34F8F094B4FF094
:101A7000FF321A60084B01221A60084B1C60FFF706
:101A80006BFC08B010BD00BF502000089118000882
:101A9000F8130020FC130020181400204414002028
:101AA000024A136801331360704700BFC41300205B
:101AB000F8B53A4B1B68002B64D1394B1D680135D2
:101AC0001D60C5B9374B1B681B6843B14FF050030D
:101AD00083F31188BFF36F8FBFF34F8FFEE7314A57
:101AE0001168314B186810601960304A136801336F
:101AF0001360FFF7A3FD2E4B1B68AB4238D90027BC
:101B00002C4B1B68DB6A03EB83039A002A4B9B5820
:101B1000012B3CD901273AE00127224B1B681B68A7
:101B200043B3204B1B68DB68DC6863689D4226D3A7
:101B3000261D3046FFF71FFBA36A1BB104F11800F6
:101B4000FFF719FBE36A01229A401C490868024327
:101B50000A6003EB83039A00314617481044FFF7ED
:101B6000E6FAE26A134B1B68DB6A9A42D4D2D4E7E6
:101B70000027D2E70E4B4FF0FF321A60C0E70C4A45
:101B80001360BDE70E4A13680133136000270D4B45
:101B90001B6803B101273846F8BD00BFC4130020FD
:101BA00044140020241300202813002000140020D7
:101BB000FC130020201300202C130020CC13002045
:101BC000C01300204814002038B5354B1B6843B9BA
:101BD0004FF0500383F31188BFF36F8FBFF34F8F24
:101BE000FEE7FFF72FFB2E4B1A68013A1A601B68BD
:101BF000002B4FD12B4B1B680BB900244BE000246A
:101C0000294B1B681BB3284BDB68DC6804F1180008
:101C1000FFF7B1FA251D2846FFF7ADFAE06A012368
:101C20008340224A11680B43136000EB8000294671
:101C30001F4B03EB8000FFF77AFAE26A1D4B1B682B
:101C4000DB6A9A42DCD31C4B01221A60D8E70CB144
:101C5000FFF7F4FC194B1C6884B9174B1C68D4B10E
:101C60004FF0E0234FF08052C3F8042DBFF34F8FA5
:101C7000BFF36F8F01240EE0013C07D0FFF718FF80
:101C80000028F9D00C4B01221A60F5E70B4B00221B
:101C90001A60E2E70024FFF7F7FA204638BD00BFDC
:101CA000C4130020B813002004140020CC1300201B
:101CB0002C1300202013002048140020C013002003
:101CC00010B5A8B10446104B1B6843B14FF0500348
:101CD00083F31188BFF36F8FBFF34F8FFEE7FFF7DA
:101CE000DFFE00212046FFF7E7FDFFF76DFF48B953
:101CF0004FF0E0234FF08052C3F8042DBFF34F8F15
:101D0000BFF36F8F10BD00BFC4130020204B1B68B2
:101D10001BB1204B01221A6070471E4B00221A6033
:101D20001D4B1B68B3FA83F3DBB2C3F11F0303EB54
:101D300083018A0019498A5842B94FF0500383F34E
:101D40001188BFF36F8FBFF34F8FFEE7134903EB8B
:101D5000830082000A4450684068506003EB830CA3
:101D60004FEA8C0208321144884209D003EB830306
:101D70009A000A4B13445B68DA68094B1A60704793
:101D8000406862469100054A0A445060EEE700BF91
:101D9000C413002048140020CC1300202C13002072
:101DA00020130020FEF73CFB0B480C490C4A002393
:101DB00002E0D458C4500433C4188C42F9D3094A01
:101DC000094C002301E013600432A242FBD300F06F
:101DD0000FF8FEF7A5FA7047000000203C04002031
:101DE000682000083C04002050140020FEE700009A
:101DF00070B50D4E0D4D761BB61006D0002455F86B
:101E0000043B01349847A642F9D1094E094D00F030
:101E1000D5F8761BB61006D0002455F8043B0134E3
:101E20009847A642F9D170BD5C2000085C200008EC
:101E3000642000085C200008830730B548D0541E99
:101E4000002A3FD00346CAB201E0013C3AD303F86E
:101E5000012B9D07F9D1032C2DD9CDB245EA0525DB
:101E60000F2C45EA054536D9A4F1100222F00F0CDB
:101E700003F1200EE6444FEA121C03F1100242E97E
:101E8000045542E9025510327245F8D10CF10102B5
:101E900014F00C0F03EB021204F00F0C13D0ACF192
:101EA000040323F003030433134442F8045B934216
:101EB000FBD10CF003042CB1CAB21C4403F8012B73
:101EC0009C42FBD130BD64461346002CF4D1F9E7A7
:101ED00003461446BFE71A46A446E0E7024B13B197
:101EE000024800F005B8704700000000FD1E000821
:101EF000002301461A46184600F01AB838B5084BB8
:101F0000084D5B1B9C1007D0043B1D44013C55F859
:101F100004399847002CF9D1BDE8384000F054B896
:101F20006820000864200008704700BF704700BFA9
:101F30002DE9F047DFF87CA00646DAF80000984665
:101F40000F469146FFF7F0FF1B4B1B68D3F8484143
:101F500024B365681F2D26DC5EB96B1C0235DAF8E8
:101F60000000636044F82570FFF7E0FF0020BDE843
:101F7000F087012304EB8501C1F88890D4F888210B
:101F8000AB401A43022EC4F88821C1F80881E4D17D
:101F9000D4F88C211343C4F88C31DEE703F5A67422
:101FA000C3F84841D5E7DAF80000FFF7BFFF4FF06C
:101FB000FF30DCE73804002058200008F8B500BFE7
:101FC000F8BC08BC9E467047F8B500BFF8BC08BC1A
:041FD0009E46704772
:101FD4000C2000085101000800000000000000006F
:101FE400800000000000000000000000182000082D
:101FF4005D010008FDFF00000000000080000000FB
:10200400000000000000000064656661756C745493
:1020140061736B006D795461736B303200000000A2
:102024000000000000000000010203040607080984
:102034000000000001020304020304050607080966
:102044000A0B0C0D0E0F10100102000049444C4500
:08205400000000001000002054
:08205C00DD1E0008350100083B
:04206400110100085E
:102068000024F4000100000010000000AAAAAAAA97
:1020780000000000FC02002064030020CC030020C4
:102088000000000000000000000000000000000048
:102098000000000000000000000000000000000038
:1020A8000000000000000000000000000000000028
:1020B8000000000000000000000000000000000018
:1020C8000000000000000000000000000000000008
:1020D80000000000000000000000000000000000F8
:1020E80000000000000000000000000000000000E8
:1020F80000000000000000000000000000000000D8
:1021080000000000000000000000000000000000C7
:1021180000000000000000000100000000000000B6
:102128000E33CDAB34126DE6ECDE05000B0000007B
:102138000000000000000000000000000000000097
:102148000000000000000000000000000000000087
:102158000000000000000000000000000000000077
:102168000000000000000000000000000000000067
:0C24980000000000000000004C140020B8
:0400000508001DA52D
:00000001FF
