:020000040800F2
:1000000000500020852A0008D1030008D30300080F
:10001000D5030008D7030008D9030008000000003A
:10002000000000000000000000000000DB030008EA
:10003000DD03000800000000DF030008E103000802
:10004000CD2A0008CD2A0008CD2A0008CD2A0008B4
:10005000CD2A0008CD2A0008CD2A0008CD2A0008A4
:10006000CD2A0008CD2A0008CD2A0008CD2A000894
:10007000CD2A0008CD2A0008CD2A0008CD2A000884
:10008000E9030008F9030008CD2A0008CD2A00087A
:10009000CD2A0008CD2A0008CD2A0008CD2A000864
:1000A000CD2A0008CD2A0008CD2A0008CD2A000854
:1000B00009040008CD2A0008CD2A0008CD2A00082E
:1000C000CD2A0008CD2A0008CD2A0008CD2A000834
:1000D000CD2A0008CD2A000819040008CD2A0008FE
:1000E000CD2A0008CD2A0008CD2A00080000000013
:1000F0000000000000000000000000000000000000
:0C01000000000000000000005FF808F1A3
:10010C0010B5054C237833B9044B13B10448AFF345
:10011C0000800123237010BD4C080020000000005B
:10012C00243C000808B5034B1BB103490348AFF34B
:10013C00008008BD0000000050080020243C00088E
:10014C0000B583B00E4B5A6942F001025A615B69EB
:10015C0003F001030193019B00221146102000F0D3
:10016C000FFC102000F044FC00221146112000F07E
:10017C0007FC112000F03CFC03B05DF804FB00BF51
:10018C00001002402DE9F04389B00024049405943A
:10019C0006940794344B9A6942F010029A619A695A
:1001AC0002F010020092009A9A6942F020029A61C1
:1001BC009A6902F020020192019A9A6942F00402B3
:1001CC009A619A6902F004020292029A9A6942F0C8
:1001DC0008029A619B6903F008030393039BDFF801
:1001EC008C9022464FF40051484600F0CDFE204F33
:1001FC0022460121384600F0C7FE1E4E22464FF41F
:10020C004061304600F0C0FE4FF4005304930125CA
:10021C00059506944FF00208CDF81C8004A94846B9
:10022C0000F0A0FD049505950694CDF81C8004A95A
:10023C00384600F097FD4FF48063049305950694BF
:10024C000324079404A9304600F08CFD4FF400639E
:10025C000493112305930695079404A9304600F0E6
:10026C0081FD09B0BDE8F083001002400010014090
:10027C0000080140000C014072B6FEE700B591B0D9
:10028C002822002106A802F0FBFE00230193029312
:10029C00039304930593012206924FF48033079342
:1002AC000A9202220D920E934FF4E0130F9306A8BC
:1002BC0000F090FE80B90F230193022102910023DC
:1002CC0003934FF480620492059301A801F0B4F8F3
:1002DC0020B911B05DF804FBFFF7CEFFFFF7CCFFA0
:1002EC0008B500F003FB1F4802F06EFBFFF7C6FFDA
:1002FC00FFF748FF00F082F900F0F0F8FFF720FF5D
:10030C0000F00AFA00F0EEF9174D284601F022FA37
:10031C00164C174B64222946204602F025FB20463A
:10032C0002F032FBFA2000F005FB02F0C6FA114A8B
:10033C000121084602F0B0FA0F4A0721032002F00F
:10034C00ABFA4FF400510D4800F024FE642000F08D
:10035C00F1FA064B9B7DDBB2012BF2D1034802F084
:10036C001FFBEEE7A0090020D00800206808002041
:10037C00E80900203C3C0008443C00080010014007
:10038C0082B00E4B9A6942F001029A619A6902F0AE
:10039C0001020092009ADA6942F08052DA61DB695C
:1003AC0003F080530193019B054A536823F0E063EB
:1003BC0043F00073536002B0704700BF001002405E
:1003CC0000000140FEE7FEE7FEE7FEE7FEE77047B0
:1003DC007047704708B500F09BFA08BD08B5024895
:1003EC0000F01EFC08BD00BF1809002008B502482B
:1003FC0000F016FC08BD00BF5C09002008B50248DF
:10040C0001F0E1F908BD00BFD008002008B5024892
:10041C0001F05EFF08BD00BFE80900200368B3F1DE
:10042C00804F00D070470F4B5B7DDBB2012B09D0A6
:10043C000D4A1388591C1180012BF3D91346002245
:10044C001A80EFE7074B5B89084A1288934202D067
:10045C00064A1380ECE7034B01229A7500225A7569
:10046C00E6E700BF68080020800800208208002012
:10047C000268074B9A4200D07047064B01225A750E
:10048C00D9685A89187D88545A8901325A81F3E700
:10049C00004400406808002008B503460B4A126867
:1004AC0042B10A4A106803446A46934206D8074A86
:1004BC00136008BD054A06491160F2E702F002FB21
:1004CC000C2303604FF0FF30F3E700BF84080020DB
:1004DC00800A00204FF0FF307047704700B587B09E
:1004EC0000230293039304930593009301931648FE
:1004FC004FF08042026040F2CF224260836040F2B3
:10050C00E732C2600361836101F054FA90B94FF491
:10051C008053029302A90C4801F050FB68B90023E8
:10052C00009301936946084801F0C8FB40B907B035
:10053C005DF804FBFFF7A0FEE9E7FFF79DFEEEE791
:10054C00FFF79AFEF3E700BFD008002000B583B098
:10055C000368144A934205D0B3F1804F0DD003B019
:10056C005DF804FB104B9A6942F400629A619B6936
:10057C0003F400630093009BF1E703F50433DA699D
:10058C0042F00102DA61DB6903F001030193019B84
:10059C00002202211C2000F0F3F91C2000F028FAA4
:1005AC00DDE700BF002C01400010024000B587B011
:1005BC000023029303930493059302680D4B9A4214
:1005CC0002D007B05DF804FB03F564439A6942F06E
:1005DC0004029A619B6903F004030193019B4FF49D
:1005EC008073029302230393059302A9024800F03F
:1005FC00B9FBE6E7002C01400008014010B596B0AD
:10060C000024129413941494159410941194099436
:10061C000A940B940C940D940E940F942022214662
:10062C0001A802F02DFD2D482D4B036040F2CF2385
:10063C00436084606323C36004614461846101F09E
:10064C00B9F9002838D14FF48053129312A92348DA
:10065C0001F0B4FA002832D1204801F0D7F9002873
:10066C0030D100231093119310A91C4801F026FBE4
:10067C0058BB6023099332230A9300220B920C92ED
:10068C000D920E920F9209A9144801F01DFAF8B9B7
:10069C000023019302930393049305934FF40052A8
:1006AC000692089301A90D4801F03EFB98B90B483E
:1006BC00FFF77CFF16B010BDFFF7DEFDC3E7FFF7B9
:1006CC00DBFDC9E7FFF7D8FDCBE7FFF7D5FDD0E79A
:1006DC00FFF7D2FDDCE7FFF7CFFDE8E78808002045
:1006EC00002C014008B50A480A4B03604FF4E13373
:1006FC00436000238360C36003610C224261836109
:10070C00C36101F039FC00B908BDFFF7B5FDFBE78B
:10071C00A00900200038014008B50A480A4B0360C4
:10072C004FF4E133436000238360C36003610C2208
:10073C0042618361C36101F01FFC00B908BDFFF782
:10074C009BFDFBE7E80900200044004070B588B031
:10075C00002304930593069307930368484A934236
:10076C0005D00446474A93422BD008B070BD464B87
:10077C009A6942F480429A619A6902F4804200922A
:10078C00009A9A6942F004029A619B6903F004038F
:10079C000193019B4FF400730493022305930323ED
:1007AC0007933A4C04A9204600F0DCFA4FF480631E
:1007BC00049300230593069304A9204600F0D2FA73
:1007CC00D3E7314BDA6942F40032DA61DA6902F4C8
:1007DC0000320292029A9A6942F004029A619B6971
:1007EC0003F004030393039B042304930223059354
:1007FC0003230793254E04A9304600F0B3FA0823CF
:10080C00049300250595069504A9304600F0AAFA34
:10081C001F48204B0360456085608023C3600561E1
:10082C004561202383614FF40053C36100F018F934
:10083C00F8B9174BE3635C621748184B036010233D
:10084C004360002383608022C260036143612022E5
:10085C008261C36100F004F970B90F4BA3635C6251
:10086C0000221146262000F08BF8262000F0C0F85C
:10087C007BE7FFF701FDDCE7FFF7FEFCEDE700BFD0
:10088C0000380140004400400010024000080140C4
:10089C00180900206C0002405C0900208000024016
:1008AC0010B504460E4B18784FF47A73B3FBF0F383
:1008BC000C4A1068B0FBF3F000F0A8F868B90F2CE4
:1008CC0001D901200AE0002221464FF0FF3000F050
:1008DC0057F8054B1C60002000E0012010BD00BF44
:1008EC0004000020000000200800002008B5074A82
:1008FC00136843F010031360032000F02FF80F204F
:10090C00FFF7CEFFFFF73CFD002008BD00200240A2
:10091C00034A1168034B1B780B441360704700BFEC
:10092C00300A002004000020014B1868704700BFFB
:10093C00300A002038B50446FFF7F6FF0546B4F13F
:10094C00FF3F02D0044B1B781C44FFF7EDFF401B0C
:10095C00A042FAD338BD00BF04000020074AD36878
:10096C0023F4E0631B041B0C000200F4E06003435F
:10097C0043F0BF6343F40033D360704700ED00E0F5
:10098C0000B5194BDB68C3F30223C3F1070CBCF1B0
:10099C00040F28BF4FF0040C03F1040EBEF1060F38
:1009AC0018D9033B4FF0FF3E0EFA0CFC21EA0C0168
:1009BC0099400EFA03F322EA0303194300280BDBD8
:1009CC000901C9B200F1604000F5614080F80013E4
:1009DC005DF804FB0023E5E700F00F000901C9B244
:1009EC00024B1954F4E700BF00ED00E014ED00E0F9
:1009FC00002807DB00F01F02400901239340024A44
:100A0C0042F82030704700BF00E100E00138B0F13F
:100A1C00807F0BD24FF0E0235861054AF02182F819
:100A2C0023100020986107221A617047012070473B
:100A3C0000ED00E030B40124056CAC40C56B6C607B
:100A4C00046863604368102B05D0036899600368E1
:100A5C00DA6030BC704703689A600368D960F8E7C5
:100A6C0060B310B402460168154B0B441548A0FB4B
:100A7C0003031B099B001364134BD363022382F8FB
:100A8C002130086820F47F5020F0300053689468BF
:100A9C002343D4682343146923435469234394693F
:100AAC002343D469234303430B6000209063012349
:100ABC0082F8213082F8200010BC7047012070476A
:100ACC00F8FFFDBFCDCCCCCC0000024038B50446BD
:100ADC0090F82000012832D0012084F8200094F8EE
:100AEC002100C0B2012804D0002384F82030022059
:100AFC0038BD022084F821000020A06325682868F6
:100B0C0020F0010028602046FFF794FFE36A5BB1F8
:100B1C002268136843F00E0313602268136843F0D5
:100B2C00010313600020E3E72268136823F0040339
:100B3C0013602268136843F00A031360EDE7022088
:100B4C00D6E790F82130DBB2022B06D00423836366
:100B5C00002380F82030012070470268136823F0CE
:100B6C000E0313600268136823F001031360036C17
:100B7C00C16B012202FA03F34B6080F821200023A1
:100B8C0080F820301846704708B590F82130DBB259
:100B9C00022B03D004238363012008BD0268136871
:100BAC0023F00E0313600268136823F00103136033
:100BBC000368194A934214D0143293421FD0143252
:100BCC0093421ED0143293421ED0143293421ED044
:100BDC001432934202D04FF0807203E04FF4801233
:100BEC0000E001220D4B5A60012380F821300023D4
:100BFC0080F82030436B6BB198470020CDE7102272
:100C0C00F0E74FF48072EDE74FF48052EAE74FF4CF
:100C1C008032E7E70020C0E70800024000000240F5
:100C2C0038B5C36B1A6804682568016C04238B40C3
:100C3C00134235D015F0040F32D0236813F0200F77
:100C4C0003D1236823F0040323600368434A9342CF
:100C5C0014D01432934218D01432934217D0143259
:100C6C00934217D01432934217D01432934202D0CD
:100C7C004FF0806203E04FF4800200E00422384B16
:100C8C005A60C36A03B1984738BD4022F7E74FF466
:100C9C008062F4E74FF48042F1E74FF48022EEE7F4
:100CAC0002238B4013423CD015F0020F39D023683D
:100CBC0013F0200F06D1236823F00A0323600123CD
:100CCC0080F821300368254A934214D014329342A1
:100CDC001CD0143293421BD0143293421BD01432CA
:100CEC0093421BD01432934202D04FF0007203E0B7
:100CFC004FF4001200E00222194B5A60002380F8D6
:100D0C002030836A002BBFD09847BDE72022F3E741
:100D1C004FF40072F0E74FF40052EDE74FF400325D
:100D2C00EAE7082303FA01F11142ADD015F0080FE0
:100D3C00AAD0236823F00E032360026CC16B01233D
:100D4C0003FA02F24A60836380F82130002380F8B2
:100D5C002030036B002B97D0984795E70800024092
:100D6C000000024070B582B00024A446A6E0804D7D
:100D7C00AA4210D007D97F4DAA420CD005F5803578
:100D8C00AA4208D013E0A5F58015AA4203D005F5B8
:100D9C007025AA4207D18A68002A58D0012A51D05E
:100DAC004361082403E0A5F58015AA42F3D0BEF1F7
:100DBC00FF0F4ED80646BEF1FF0F4CD84FEA8C02FF
:100DCC0033680F25954023EA050304FA02F2134316
:100DDC0033604B6813F0805F6ED0674B9A6942F0BA
:100DEC0001029A619B6903F001030193019B4FEA95
:100DFC009C02951C614B53F825600CF003039D007D
:100E0C000F23AB4026EA03065D4B984229D003F52D
:100E1C008063984200F08E8003F58063984200F066
:100E2C008B8003F58063984219D004231AE0CC68B8
:100E3C00BDE7CC680434BAE7CC680834B7E7CC68B3
:100E4C000C34B4E703610824B1E70024AFE70424B1
:100E5C00ADE7061DAFE7ACF108029200B0E7032343
:100E6C0000E00023AB4033430232444D45F82230BE
:100E7C004B6813F4801F61D0424A936843EA0E0317
:100E8C0093604B6813F4001F5ED03E4AD36843EA6C
:100E9C000E03D3604B6813F4003F5BD0394A5368A0
:100EAC0043EA0E0353604B6813F4803F58D0354A25
:100EBC00136843EA0E0313600CF1010C0A6832FA52
:100ECC000CF353D0012303FA0CF302EA030E33EABA
:100EDC000202F1D14A68122A3FF649AF122A3FF6B4
:100EEC0066AF01A555F822F0A30D00083B0E0008D3
:100EFC00450E0008570E0008BB0D0008BB0D00087E
:100F0C00BB0D0008BB0D0008BB0D0008BB0D000895
:100F1C00BB0D0008BB0D0008BB0D0008BB0D000885
:100F2C00BB0D0008BB0D0008BB0D00083F0E0008F0
:100F3C004B0E0008012395E7022393E7114A9368AF
:100F4C0023EA0E0393609CE70E4AD36823EA0E0350
:100F5C00D3609FE70B4A536823EA0E035360A2E762
:100F6C00084A136823EA0E031360A5E702B070BDAC
:100F7C00000022100000311000100240000001405F
:100F8C0000080140000401400AB1016170470904E6
:100F9C0001617047C36801EA030221EA030141EAD7
:100FAC00024101617047000082B0084B1B68084A7F
:100FBC00A2FB03235B0A00FB03F3019300BF019B1D
:100FCC005A1E0192002BF9D102B07047000000208C
:100FDC00D34D6210002800F0F18170B582B0044648
:100FEC00036813F0010F2CD0994B5B6803F00C03D2
:100FFC00042B1DD0964B5B6803F00C03082B12D00E
:10100C006368B3F5803F41D0002B55D103F1804389
:10101C0003F504331A6822F480321A601A6822F439
:10102C0080221A6037E08A4B5B6813F4803FE7D06C
:10103C00874B1B6813F4003F03D06368002B00F050
:10104C00BF81236813F0020F75D0814B5B6813F0DE
:10105C000C0F5FD07E4B5B6803F00C03082B54D055
:10106C002369002B00F08A807A4B01221A60FFF76B
:10107C005BFC0546764B1B6813F0020F75D1FFF72E
:10108C0053FC401B0228F5D903209EE1704A1368DB
:10109C0043F480331360636843B3FFF745FC0546A4
:1010AC006B4B1B6813F4003FCBD1FFF73DFC401B8F
:1010BC006428F5D9032088E1B3F5A02F09D0644B3F
:1010CC001A6822F480321A601A6822F480221A609C
:1010DC00E1E703F18043A3F53C331A6842F4802224
:1010EC001A601A6842F480321A60D4E7FFF71CFCCD
:1010FC000546574B1B6813F4003FA2D0FFF714FCB6
:10110C00401B6428F5D903205FE1514B5B6813F455
:10111C00803FA5D14E4B1B6813F0020F03D02369FF
:10112C00012B40F04F814A4A136823F0F8036169A0
:10113C0043EAC1031360236813F0080F33D0A3698B
:10114C00002B5CD0434B0122C3F88024FFF7ECFB4F
:10115C0005463F4B5B6A13F0020F21D1FFF7E4FB0E
:10116C00401B0228F5D903202FE1394A136823F0DC
:10117C00F803616943EAC1031360DCE7354B0022D5
:10118C001A60FFF7D1FB0546314B1B6813F0020FB9
:10119C00D1D0FFF7C9FB401B0228F5D9032014E17D
:1011AC000120FFF701FF236813F0040F00F0968075
:1011BC00274BDB6913F0805F34D1254BDA6942F0A1
:1011CC008052DA61DB6903F080530193019B0125A6
:1011DC00214B1B6813F4807F26D0E368012B3DD094
:1011EC00002B53D103F1804303F504331A6A22F028
:1011FC0001021A621A6A22F004021A6233E0154BD9
:10120C000022C3F88024FFF78FFB0546104B5B6A66
:10121C0013F0020FC7D0FFF787FB401B0228F5D94C
:10122C000320D2E00025D3E70B4A136843F4807304
:10123C001360FFF779FB0646074B1B6813F4807F9E
:10124C00CBD1FFF771FB801B6428F5D90320BCE0E0
:10125C000010024000004242007000405F4A136AD6
:10126C0043F001031362E36833B3FFF75DFB0646FB
:10127C005A4B1B6A13F0020F2FD1FFF755FB801B43
:10128C0041F288339842F3D903209EE0052B09D014
:10129C00524B1A6A22F001021A621A6A22F00402F4
:1012AC001A62E0E74D4B1A6A42F004021A621A6A9B
:1012BC0042F001021A62D6E7FFF736FB0646474BAF
:1012CC001B6A13F0020F08D0FFF72EFB801B41F2B4
:1012DC0088339842F3D9032077E0E5B9E369002B12
:1012EC0072D03E4A526802F00C02082A56D0022BE9
:1012FC0017D03B4B00221A66FFF716FB0446374B00
:10130C001B6813F0007F47D0FFF70EFB001B022871
:10131C00F5D9032059E0314AD36923F08053D361C6
:10132C00DCE72F4B00221A66FFF7FEFA05462B4B23
:10133C001B6813F0007F06D0FFF7F6FA401B02285B
:10134C00F5D9032041E0236AB3F5803F1AD0234935
:10135C004B6823F47413226A606A024313434B6094
:10136C001F4B01221A66FFF7DFFA04461B4B1B6862
:10137C0013F0007F0ED1FFF7D7FA001B0228F5D926
:10138C00032022E0154A536823F40033A1680B4371
:10139C005360DCE7002018E0002016E0012B16D08B
:1013AC000E4B5B6803F48031226A914211D103F435
:1013BC007013626A93420ED1002006E00120704740
:1013CC00012002E0012000E0002002B070BD0120ED
:1013DC00FBE70120F9E70120F7E700BF001002400E
:1013EC00000042420F4B5B6803F00C02082A01D04C
:1013FC000D487047C3F383420C49885C13F4803F5B
:10140C000BD0084B5B68C3F34043094AD35C064AD4
:10141C0002FB00F0B0FBF3F07047064B03FB00F04F
:10142C00704700BF0010024000127A00683C0008B0
:10143C00783C000800093D00002800F0A08070B541
:10144C000D460446524B1B6803F007038B420BD22C
:10145C004F4A136823F007030B431360136803F020
:10146C0007038B4240F08D80236813F0020F17D0D6
:10147C0013F0040F04D0474A536843F4E0635360FD
:10148C00236813F0080F04D0424A536843F46053A6
:10149C005360404A536823F0F003A1680B43536038
:1014AC00236813F0010F31D06368012B20D0022B7D
:1014BC0025D0384A126812F0020F64D035494A68B8
:1014CC0022F0030213434B60FFF72EFA0646314B12
:1014DC005B6803F00C036268B3EB820F16D0FFF766
:1014EC0023FA801B41F288339842F0D9032045E05F
:1014FC00284A126812F4003FE0D101203EE0254A50
:10150C00126812F0007FD9D1012037E0204B1B6804
:10151C0003F00703AB420AD91D4A136823F00703F3
:10152C002B431360136803F00703AB422DD12368E0
:10153C0013F0040F06D0174A536823F4E063E168F4
:10154C000B435360236813F0080F07D0114A5368FC
:10155C0023F46053216943EAC1035360FFF742FF50
:10156C000C4B5B68C3F303130B4AD35CD8400B4B97
:10157C0018600B4B1868FFF793F9002070BD012021
:10158C0070470120FAE70120F8E70120F6E700BFD9
:10159C000020024000100240503C000800000020D7
:1015AC0008000020014B1868704700BF00000020A5
:1015BC0008B5FFF7F7FF044B5B68C3F30223034A3C
:1015CC00D35CD84008BD00BF00100240603C00084E
:1015DC0008B5FFF7E7FF044B5B68C3F3C223034A6C
:1015EC00D35CD84008BD00BF00100240603C00082E
:1015FC0070B4036A026A22F00102026246688269D0
:10160C0022F073020C6844EA020523F002028B6894
:10161C0013430D4CA04209D00B4CA0420DD0466098
:10162C0085614A684263036270BC704723F008030B
:10163C00CA68134323F00403EEE726F440764A69A4
:10164C0032438E691643EAE7002C014030B4036A3A
:10165C00026A22F4807202624568C26922F0730247
:10166C000C68224323F400738C6843EA04230F4C68
:10167C00A04209D00D4CA0420ED04560C2614A6810
:10168C00C263036230BC704723F40063CC6843EA46
:10169C00042323F48063EDE725F440554C6945EAB7
:1016AC0004158C6945EA0415E7E700BF002C0140DE
:1016BC0030B4036A026A22F4805202624468C2693E
:1016CC0022F4E6420D6842EA052223F400538D68A9
:1016DC0043EA0533074DA84206D04460C2614A680C
:1016EC000264036230BC704724F480444D6944EAC0
:1016FC008514F2E7002C014010B4036A046A24F04C
:10170C0001040462846924F0F00C4CEA021223F008
:10171C000A030B438261036210BC704710B4036A66
:10172C00046A24F010040462846924F4704C4CEABA
:10173C00023223F0A00343EA01138261036210BC5E
:10174C007047836823F070030B4343F007038360F7
:10175C007047000090F83D30DBB2012B27D10223FB
:10176C0080F83D300268D36843F00103D36003680E
:10177C00114A934210D0B3F1804F0DD0A2F59432A0
:10178C00934209D002F58062934205D01A6842F068
:10179C0001021A60002070479A6802F00702062ABC
:1017AC0007D01A6842F001021A600020704701202D
:1017BC0070470020704700BF002C014070477047F5
:1017CC0070477047704710B5044603681A6912F0E9
:1017DC00020F11D0DA6812F0020F0DD06FF0020276
:1017EC001A610123037703689B6913F0030F70D010
:1017FC00FFF7E6FF0023237723681A6912F0040F22
:10180C0012D0DA6812F0040F0ED06FF004021A61D5
:10181C000223237723689B6913F4407F5FD0204613
:10182C00FFF7CEFF0023237723681A6912F0080F05
:10183C0012D0DA6812F0080F0ED06FF008021A619D
:10184C00042323772368DB6913F0030F4ED0204663
:10185C00FFF7B6FF0023237723681A6912F0100FE5
:10186C0012D0DA6812F0100F0ED06FF010021A615D
:10187C00082323772368DB6913F4407F3DD020468F
:10188C00FFF79EFF0023237723681A6912F0010FDC
:10189C0003D0DA6812F0010F36D123681A6912F0FE
:1018AC00800F03D0DA6812F0800F34D123681A69E4
:1018BC0012F0400F03D0DA6812F0400F32D12368D7
:1018CC001A6912F0200F03D0DA6812F0200F30D111
:1018DC0010BDFFF774FF2046FFF773FF8AE7204621
:1018EC00FFF76DFF2046FFF76CFF9BE72046FFF7E5
:1018FC0066FF2046FFF765FFACE72046FFF75FFF6A
:10190C002046FFF75EFFBDE76FF001021A6120462B
:10191C00FEF784FDC1E76FF080021A61204600F0EB
:10192C002DFAC3E76FF040021A612046FFF74AFF19
:10193C00C5E76FF020021A61204600F01EFAC7E7D7
:10194C0003681B4A90420AD0B0F1804F07D0A2F531
:10195C009432904203D002F58062904203D123F07E
:10196C0070034A681343124A90420AD0B0F1804F78
:10197C0007D0A2F59432904203D002F580629042D7
:10198C0003D123F44073CA68134323F080034A69DC
:10199C00134303608B68C3620B688362044B9842E9
:1019AC0002D00123436170470B690363F9E700BF61
:1019BC00002C014040B310B5044690F83D30F3B113
:1019CC00022384F83D30214651F8040BFFF7B8FF91
:1019DC00012384F8463084F83E3084F83F3084F894
:1019EC00403084F8413084F8423084F8433084F835
:1019FC00443084F8453084F83D30002010BD80F828
:101A0C003C30FEF7A3FDDBE70120704740B310B577
:101A1C00044690F83D30F3B1022384F83D30214662
:101A2C0051F8040BFFF78CFF012384F8463084F83F
:101A3C003E3084F83F3084F8403084F8413084F8EC
:101A4C00423084F8433084F8443084F8453084F8CC
:101A5C003D30002010BD80F83C30FFF7AFFEDBE7D7
:101A6C000120704730B4036A026A22F0100202624D
:101A7C004468826922F4E6420D6842EA052223F0AA
:101A8C0020038D6843EA05130E4DA84209D00D4D75
:101A9C00A8420ED0446082614A688263036230BC03
:101AAC00704723F08003CD6843EA051323F040030D
:101ABC00EDE724F440644D6944EA85048D6944EAF9
:101ACC008504E7E7002C014038B590F83C30012B39
:101ADC0066D004460D46012380F83C300C2A5AD8B7
:101AEC00DFE802F0075959591B59595930595959BE
:101AFC0044000068FFF77CFD2268936943F00803FB
:101B0C0093612268936923F00403936122689369BB
:101B1C0029690B43936100203EE00068FFF7A2FFA8
:101B2C002268936943F4006393612268936923F4F8
:101B3C008063936122689369296943EA0123936165
:101B4C00002029E00068FFF781FD2268D36943F08B
:101B5C000803D3612268D36923F00403D36122689C
:101B6C00D36929690B43D361002015E00068FFF7A6
:101B7C009FFD2268D36943F40063D3612268D36963
:101B8C0023F48063D3612268D369296943EA012372
:101B9C00D361002000E00120002384F83C3038BDE4
:101BAC000220FCE710B4846824F47F4C42EA032240
:101BBC000A4342EA0C02826010BC704790F83C3039
:101BCC00012B78D010B50446012380F83C30022359
:101BDC0080F83D300268936823F47F4323F0770349
:101BEC0093600B68602B4CD029D8402B54D00CD967
:101BFC00502B22D1CA6849680068FFF77DFD50213F
:101C0C002068FFF79EFD002005E0202B0DD009D9A0
:101C1C00302B0AD00120012384F83D30002384F8B6
:101C2C003C3010BD0BB1102B05D119462068FFF7C5
:101C3C0088FD0020EFE70120EDE70120EBE7B3F58D
:101C4C00805F34D0B3F5005F0CD1CB684A688968EB
:101C5C000068FFF7A7FF2268936843F48043936002
:101C6C000020D8E7702B24D1CB684A6889680068BB
:101C7C00FFF798FF2268936843F077039360002086
:101C8C00C9E7CA6849680068FFF748FD6021206809
:101C9C00FFF757FD0020BEE7CA6849680068FFF7E8
:101CAC002BFD40212068FFF74CFD0020B3E70020FE
:101CBC00B1E70120AFE702207047000090F83C30FC
:101CCC00012B2CD010B4012380F83C30022380F877
:101CDC003D3003685A689C6822F0700C0A6842EA2E
:101CEC000C025A6003680F4A93420AD0B3F1804F3A
:101CFC0007D0A2F59432934203D002F5806293424E
:101D0C0004D124F080044A6814439C60012380F8B9
:101D1C003D30002380F83C30184610BC7047022040
:101D2C00704700BF002C014090F83C30012B22D0B2
:101D3C00012380F83C30CB6823F440738A6813434A
:101D4C0023F480634A68134323F400630A68134343
:101D5C0023F480530A69134323F400534A69134351
:101D6C0023F48043CA69134302685364002380F848
:101D7C003C30184670470220704770477047026825
:101D8C0002F10C0353E8003F23F0C0030C3242E88D
:101D9C0000310029F3D1202380F8413070470268CC
:101DAC0002F10C0353E8003F23F490730C3242E829
:101DBC0000310029F3D1026802F1140353E8003F0B
:101DCC0023F00103143242E800310029F3D1036BF4
:101DDC00012B05D0202380F8423000230363704789
:101DEC00026802F10C0353E8003F23F010030C329D
:101DFC0042E800310029F3D1ECE790F84130DBB236
:101E0C00212B01D0022070478368B3F5805F17D077
:101E1C00036A5A1C02621A7803685A60C38C9BB21C
:101E2C00013B9BB2C3844BB90268D36823F0800397
:101E3C00D3600268D36843F04003D360002070473E
:101E4C000369002BE4D1036A1B880268C3F30803FF
:101E5C005360036A02330362E0E7000010B50446E6
:101E6C000268136923F44053C1680B431361836800
:101E7C000269134342691A430168CB6823F4B053D7
:101E8C0023F00C031343CB600268536923F44073B3
:101E9C0081690B4353610268134B9A4220D0FFF7C0
:101EAC0087FB024602EB820202EB820263689B0014
:101EBC00B2FBF3F20D48A0FB02314909642303FB8A
:101ECC0011231B013233A0FB03235B0903F0F00247
:101EDC0002EB011203F00F03216813448B6010BD59
:101EEC00FFF776FB0246DDE7003801401F85EB511A
:101EFC002DE9F84305460F4616469946DDF8208035
:101F0C002C68246837EA04030CBF4FF0010C4FF027
:101F1C00000CB4452DD1B8F1FF3FF1D0B8F1000F52
:101F2C0005D0FEF701FDA0EB09004045E8D92A6871
:101F3C0002F10C0353E8003F23F4D0730C3242E857
:101F4C0000310029F3D12A6802F1140353E8003F51
:101F5C0023F00103143242E800310029F3D120238D
:101F6C0085F8413085F84230002385F84030032055
:101F7C0000E00020BDE8F88360B310B5044690F88B
:101F8C00413013B3242384F841302268D36823F4FE
:101F9C000053D3602046FFF761FF2268136923F4D6
:101FAC00904313612268536923F02A03536122681A
:101FBC00D36843F40053D36000206064202384F87A
:101FCC00413084F84230606310BD80F84030FEF739
:101FDC00BDFBD7E7012070472DE9F04182B01E46CA
:101FEC0090F84130DBB2202B4BD104460D46904685
:101FFC0000294AD00AB9012044E00023436421237C
:10200C0080F84130FEF790FC0746A4F82480A4F831
:10201C002680A368B3F5805F02D04FF000080FE074
:10202C002369FBB14FF000080AE038F8023B226844
:10203C00C3F308035360E28C92B2013A92B2E28489
:10204C00E38C9BB28BB100963B460022802120464C
:10205C00FFF74EFFD8B9002DE7D015F8012B2368F8
:10206C005A60E8E7A8460025EAE700963B460022BE
:10207C0040212046FFF73CFF58B9202384F841301B
:10208C0000E0022002B0BDE8F0810120FAE7032055
:10209C00F8E70320F6E72DE9F04182B01E4690F8F0
:1020AC004230DBB2202B53D104460D46904600291A
:1020BC0052D00AB901204CE000234364222280F85C
:1020CC0042200363FEF730FC0746A4F82C80A4F8EA
:1020DC002E80A368B3F5805F02D04FF0000817E0A4
:1020EC00236913B14FF0000812E0A84600250FE059
:1020FC0023685B68C3F3080328F8023B03E02368FA
:10210C005B682B700135E28D92B2013A92B2E28596
:10211C00E38D9BB2BBB100963B46002220212046AA
:10212C00FFF7E6FED0B9002DE2D0A368B3F5805FCF
:10213C00E5D013B92369002BE1D023685B6803F069
:10214C007F032B70DEE7202384F84230002000E070
:10215C00022002B0BDE8F0810120FAE70320F8E785
:10216C00704708B50168CA6822F04002CA60202294
:10217C0080F84120FFF7F4FF002008BD704770473E
:10218C0010B5446A23685A6994F84130DBB2212BAC
:10219C0010D023685A6902F0400294F84230DBB246
:1021AC00222B11D0636C43F0100363642046FFF7BD
:1021BC00E6FF10BD02F08002002AEAD00023E3847F
:1021CC002046FFF7DCFDE4E7002AEBD00023E38593
:1021DC002046FFF7E4FDE5E708B5406A0023C38518
:1021EC00C384FFF7CCFF08BD704790F84230DBB2D8
:1021FC00222B69D18368B3F5805F4FD0826AB3F527
:10220C00805F04D0002B56D10369002B53D1036897
:10221C005B681370836A01338362C38D9BB2013B8D
:10222C009BB2C385002B51D100B583B00268D36833
:10223C0023F02003D3600268D36823F48073D36047
:10224C000268536923F001035361202380F8423064
:10225C0000234363036B012B33D100230363026818
:10226C0002F10C0353E8003F23F010030C3242E858
:10227C0000310029F3D103681A6812F0100F06D050
:10228C00002201921A6801925B680193019B818D77
:10229C00FFF7AAFF002003B05DF804FB0269002AD7
:1022AC00ACD1826A03685B68C3F308031380836A4A
:1022BC0002338362B1E703685B6803F07F0313703A
:1022CC00A8E7FEF7D5F8E5E7022070470020704735
:1022DC0030B583B0044602681368D068516913F0B6
:1022EC000F0505D113F0200F02D010F0200F19D1DB
:1022FC002DB111F0010119D110F4907F16D1216B81
:10230C0001297DD013F0800F03D010F0800F40F026
:10231C00188113F0400F03D010F0400F40F01581DE
:10232C0003B030BD2046FFF760FFF9E713F0010F53
:10233C0006D010F4807F03D0626C42F0010262641C
:10234C0013F0040F04D019B1626C42F00202626403
:10235C0013F0020F04D019B1626C42F004026264F3
:10236C0013F0080F07D010F0200F00D119B1626CD8
:10237C0042F008026264626C002AD1D013F0200F84
:10238C0002D010F0200F29D123685B6903F04003C1
:10239C00626C12F0080F00D163B32046FFF7FFFC0C
:1023AC0023685B6913F0400F20D0226802F11403FC
:1023BC0053E8003F23F04003143242E80031002977
:1023CC00F3D1E36B73B1634A5A63E06BFEF7DCFB4A
:1023DC000028A5D0E06B436B9847A1E72046FFF798
:1023EC0004FFD1E72046FFF7CAFE99E72046FFF726
:1023FC00C6FE95E72046FFF7C2FE002363648FE715
:10240C0013F0100F3FF47EAF10F0100F3FF47AAFC3
:10241C00002301931368019353680193019B536943
:10242C0013F0400F51D0E26B13685B689BB2002B2A
:10243C003FF476AFA18D99427FF672AFE385936935
:10244C00202B37D0226802F10C0353E8003F23F411
:10245C0080730C3242E800310029F3D1226802F17A
:10246C00140353E8003F23F00103143242E8003117
:10247C000029F3D1226802F1140353E8003F23F042
:10248C004003143242E800310029F3D1202384F8B0
:10249C00423000232363226802F10C0353E8003F0F
:1024AC0023F010030C3242E800310029F3D1E06B29
:1024BC00FEF747FB02236363A18DE38D9BB2C91A20
:1024CC0089B22046FFF790FE2AE7A18DE38D9BB2DF
:1024DC00C91A89B2E38D9BB2002B3FF421AF0029BE
:1024EC003FF41EAF226802F10C0353E8003F23F4C3
:1024FC0090730C3242E800300028F3D1226802F1CC
:10250C00140353E8003F23F00103143242E8003077
:10251C000028F3D1202384F842300023236322685F
:10252C0002F10C0353E8003F23F010030C3242E895
:10253C0000300028F3D1022363632046FFF754FEDA
:10254C00EEE62046FFF759FCEAE62046FFF709FEC7
:10255C00E6E600BFE521000808B5406A01234363A5
:10256C00036B012B02D0FFF709FE08BD818D4908D2
:10257C00FFF73AFEF9E708B50346406A1B681B688B
:10258C0013F0200F2BD10023C385026802F10C033A
:10259C0053E8003F23F480730C3242E800310029E9
:1025AC00F3D1026802F1140353E8003F23F0010356
:1025BC00143242E800310029F3D1026802F114030D
:1025CC0053E8003F23F04003143242E80031002965
:1025DC00F3D1202380F84230036B012B07D000236A
:1025EC004363036B012B0FD0FDF742FF08BD02685C
:1025FC0002F10C0353E8003F23F010030C3242E8C5
:10260C0000310029F3D1EAE7818DFFF7EDFDEDE70D
:10261C0030B583B00446134681628285002545643B
:10262C00222280F84220C26B1F489062E26B1F4846
:10263C00D062E26B1E481063E26B556320680A4659
:10264C00011DE06BFEF742FA019523681A680192AE
:10265C005B680193019B23695BB1226802F10C0357
:10266C0053E8003F43F480730C3242E800310029F8
:10267C00F3D1226802F1140353E8003F43F0010345
:10268C00143242E800310029F3D1226802F114031C
:10269C0053E8003F43F04003143242E80031002974
:1026AC00F3D1002003B030BD832500086525000858
:1026BC008D21000808B590F84230DBB2202B08D1F0
:1026CC0049B10AB9012008BD00230363FFF7A0FF3D
:1026DC00F9E70220F7E70120F5E7000020B94FF0F9
:1026EC008062034B1A6170474FF48062F9E700BFB8
:1026FC00000C014008B50120FFF7F0FF01224FF458
:10270C0000610248FEF740FC08BD00BF000C014010
:10271C0010B50A4C01224FF400612046FEF734FC40
:10272C000120FFF7DBFF00224FF400612046FEF78B
:10273C002BFC0020FFF7D2FF10BD00BF000C0140A6
:10274C0010B5084C00224FF400612046FEF71CFC2B
:10275C000120FFF7C3FF01224FF400612046FEF772
:10276C0013FC10BD000C014038B5054600240FE0E9
:10277C00802222412A404FF400610A48FEF704FCF3
:10278C000120FFF7ABFF0020FFF7A8FF0134E4B2F4
:10279C00072CEDD90120FFF7A1FF0020FFF79EFFCA
:1027AC0038BD00BF000C014010B50446FFF7B0FF68
:1027BC007820FFF7D9FF0020FFF7D6FF2046FFF760
:1027CC00D3FFFFF7BDFF10BD10B50446FFF7A0FF08
:1027DC007820FFF7C9FF4020FFF7C6FF2046FFF720
:1027EC00C3FFFFF7ADFF10BD10B50C4640F0B000B5
:1027FC00FFF7DAFF200940F01000FFF7D5FF04F0D7
:10280C000F00FFF7D1FF10BD38B5002509E00020FF
:10281C00FFF7DAFF0134E4B214F0800FF7D0013582
:10282C00EDB2072D05D800212846FFF7DDFF002467
:10283C00F2E738BDF8B51546461E7600F6B24F1EC7
:10284C00FF00FFB239463046FFF7CEFF002409E007
:10285C00A5F120030F4A02EB0313185DFFF7B4FF39
:10286C000134E4B2072CF3D9701C3946C0B2FFF71F
:10287C00BBFF00240BE0A5F1200304F1080205497D
:10288C0001EB0313985CFFF79FFF0134E4B2072CB4
:10289C00F1D9F8BD7C3C0008F8B507460E46154644
:1028AC00002406E0A119C9B23846FFF7C3FF013472
:1028BC00E4B22A5D002AF5D1F8BD08B5002204E087
:1028CC000133B3F57A7FFBD30132B2F57A7F01D2B3
:1028DC000023F6E7FFF70EFFAE20FFF765FFD520CC
:1028EC00FFF762FF8020FFF75FFFA820FFF75CFF78
:1028FC003F20FFF759FFD320FFF756FF0020FFF7CB
:10290C0053FF4020FFF750FFA120FFF74DFFC820D9
:10291C00FFF74AFFDA20FFF747FF1220FFF744FFCB
:10292C008120FFF741FFCF20FFF73EFFD920FFF7B3
:10293C003BFFF120FFF738FFDB20FFF735FF30209E
:10294C00FFF732FFA420FFF72FFFA620FFF72CFF85
:10295C008D20FFF729FF1420FFF726FFAF20FFF78C
:10296C0023FFFFF751FF08BD38B50446104623601E
:10297C006160002565812281256100F0CDF8E06061
:10298C0025756575A57538BD10B50446014651F819
:10299C00140B0122FFF78EFE6068FEF7DBFE10BD04
:1029AC00837DDBB2012B01D00120704710B50446AA
:1029BC0040F2E7334289C1680068FFF70DFB002045
:1029CC00A075608110BD000008B5054B1860054B63
:1029DC001868002302221946806800F0C1FB08BD6C
:1029EC00340A00200C00002010B5013801280AD848
:1029FC0014464FF0FF3392B207480068FFF7ECFA29
:102A0C0040B9204610BD00F05DF8092303604FF07B
:102A1C00FF30F7E70520F5E7340A002008B500F091
:102A2C0051F8092303604FF0FF3008BD08B548B9D1
:102A3C004FF0FF33012208480068FFF72CFB40B928
:102A4C00012008BD00F03EF8092303604FF0FF3071
:102A5C00F7E70520F5E700BF340A002008B5022887
:102A6C0004D84FF400534B60002008BD00F02AF846
:102A7C0009230360F8E70000FDF72FFD0B480C4914
:102A8C000C4A002302E0D458C4500433C4188C42BE
:102A9C00F9D3094A094C002301E013600432A24225
:102AAC00FBD300F015F8FDF71BFC7047000000206D
:102ABC004C0800207C4200084C080020800A0020B2
:102ACC00FEE70000014B1868704700BF0C000020A7
:102ADC0070B50D4E0D4D761BB61006D0002455F872
:102AEC00043B01349847A642F9D1094E094D01F037
:102AFC0093F8761BB61006D0002455F8043B01342D
:102B0C009847A642F9D170BD704200087042000887
:102B1C007842000870420008024B0146186800F029
:102B2C0003B800BF0C0000202DE9F04F01F10B059C
:102B3C00162D064683B025D8102900F2B88000F077
:102B4C00F1FA102518224FF0020CB54F3A44536895
:102B5C00A2F108018B4200F0B7805A68D96822F0C4
:102B6C0003021A449C683046E1608C60516803F1A2
:102B7C00080441F00101516000F0DAFA204603B07C
:102B8C00BDE8F08F35F0070500F19180A94200F205
:102B9C008E8000F0C7FAB5F5FC7FC0F094816B0A0B
:102BAC0000F08C80042B00F26A81AB0903F1390C24
:102BBC0003F138044FEACC00994F38444368083885
:102BCC00984206D10CE0002980F22681DB689842FD
:102BDC0006D05A6822F00302511B0F29F3DDA446DC
:102BEC003C69DFF840E274457AD0626822F0030257
:102BFC00531B0F2B00F37681002BC7E904EE80F2F8
:102C0C006781B2F5007F80F019810121D308520948
:102C1C000B4491407A6857F833000A4307EBC30121
:102C2C000839A060E1607A6047F83340C460012144
:102C3C004FEAAC039940914259D8114206D12CF07D
:102C4C00030C490011420CF1040CFAD007EBCC092F
:102C5C0048466446D0F80C80404508D11CE1002B56
:102C6C0080F22181D8F80C80404500F01581D8F80D
:102C7C00042022F00302531B0F2BF0DD08EB05019F
:102C8C0045F00105C8F804503046D8E90264F460F8
:102C9C00A66043F00104C7E904114C60C1E902EEDF
:102CAC0048F8023000F044FA08F1080402E00C2362
:102CBC0000243360204603B0BDE8F08F4FF4007061
:102CCC004FF0400C3F2477E7D3689A4208BF0CF1D1
:102CDC00020C7FF442AF3C69DFF848E1744584D1C3
:102CEC0001217A684FEAAC0399409142A5D9BC689E
:102CFC00636823F003094D4503D8A9EB05030F2B9B
:102D0C007ADCDFF824B1494BDBF800201B68013278
:102D1C002B4404EB090A00F02F8103F580530F3389
:102D2C0023F47F6828F00F084146304600F006FA7D
:102D3C00411C024600F0EF80824500F2EA803C4BD9
:102D4C00196841440846196000F04981DBF800100D
:102D5C00019301311BBFA2EB0A0A5044CBF80020AF
:102D6C00186012F0070B00F01181CBF108010A4436
:102D7C00CBF5805190440831A1EB0801C1F30B0A4B
:102D8C0051463046009200F0D9F9421CDDE900238F
:102D9C0000F04B81801A00EB0A08196848F001001A
:102DAC005144BC42BA601960506000F02481B9F102
:102DBC000F0F40F222814FF0050E6068A9F10C0C48
:102DCC002CF0070C00F0010040EA0C006060BCF134
:102DDC000F0F04EB0C00C0E901EE00F22E8114463B
:102DEC005068144B1A688A4238BF1960124B1A6823
:102DFC008A4238BF196090E0621943F0010345F034
:102E0C00010565603046BA600834536000F090F9F3
:102E1C00204603B0BDE8F08FD9681A44A2E600BF83
:102E2C00380400204004002040080020680A0020DC
:102E3C00380A0020600A0020640A0020B2F5206FD6
:102E4C004FEA52235FD3142B00F2B18003F15C01E3
:102E5C00C9005B33781879580838884200F08F80A5
:102E6C004B6823F00303934202D989688842F7D157
:102E7C00C8687A68C4E902108460CC60D7E6142B69
:102E8C0059D9542B00F29B802B0B03F16F0C03F1DF
:102E9C006E044FEACC008FE60134A30700F1080062
:102EAC007FF4D8AE53E0444642445368D8F80C1033
:102EBC0043F00103536054F8083F3046D9608B60EF
:102ECC0000F036F9F6E64FEAD50C05F108023CE6BF
:102EDC0022445368304643F00103536000F028F954
:102EEC000834E7E6611945F00105656043F001051A
:102EFC00C7E904113046C1E902EE4D60A35000F061
:102F0C0017F90834D6E6930903F13901C9003833AF
:102F1C00A0E7BC425ED0BC68606820F00308454561
:102F2C00A8EB050302D80F2B3FF766AF304600F035
:102F3C00FFF80024BEE603F15C0C03F15B044FEADE
:102F4C00CC0039E659F808394B4540F095801CF017
:102F5C00030F0CF1FF3CF5D17B6823EA01037B6086
:102F6C00490099423FF6C3AE11B9C0E6490004349A
:102F7C001942FBD0A44669E603F11008D4E60122FD
:102F8C009B109A407B681A437A6073E702EB080146
:102F9C004942C1F30B0A51463046009200F0CEF87C
:102FAC00431CDDE900237FF4F5AEDA46F5E6542B3D
:102FBC0026D8130B03F16F01C9006E334AE7B3F542
:102FCC00AA7F26D8EB0B03F1780C03F177044FEAB8
:102FDC00CC00F1E5294B186840441860B6E6CAF3FA
:102FEC000B0CBCF1000F7FF4B1AEBC68C84448F0C8
:102FFC0001006060F5E61446F3E60123536095E7A3
:10300C00B3F5AA7F24D8D30B03F17801C900773329
:10301C0020E740F25452934224D8AB0C03F17D0CC0
:10302C0003F17C044FEACC00C6E5ABF1080BD844A5
:10303C004FF0000AA8EB0208AFE604F10801304695
:10304C00009300F033FBBC68009B60681968C8E60D
:10305C0040F254518B420BD8930C03F17D01C90003
:10306C007C33F7E64FF47E704FF07F0C7E24A3E5A3
:10307C004FF47E717E23EDE67B6871E7380A002001
:10308C00830730B548D0541E002A3FD00346CAB23D
:10309C0001E0013C3AD303F8012B9D07F9D1032C35
:1030AC002DD9CDB245EA05250F2C45EA054536D973
:1030BC00A4F1100222F00F0C03F1200EE6444FEAAB
:1030CC00121C03F1100242E9045542E90255103278
:1030DC007245F8D10CF1010214F00C0F03EB021243
:1030EC0004F00F0C13D0ACF1040323F003030433EE
:1030FC00134442F8045B9342FBD10CF003042CB153
:10310C00CAB21C4403F8012B9C42FBD130BD64466F
:10311C001346002CF4D1F9E703461446BFE71A46D0
:10312C00A446E0E7014800F0E9BB00BF700A0020AC
:10313C00014800F0E5BB00BF700A0020002238B542
:10314C00064D044608462A60FDF7A6F9431C00D03C
:10315C0038BD2B68002BFBD0236038BD7C0A0020C7
:10316C002DE9F043694C0E46D4F80080174604460E
:10317C001D4683B0B8F1000F03D0D8F83830002BBF
:10318C0077D0022F05D0012F00F2AC80002DC0F2B9
:10319C00A980636EDA0752D52146404600F05AF9F1
:1031AC00216B41B104F14003994202D0404600F03A
:1031BC007DFA002323630023B4F90CC0A3611CF037
:1031CC00800F636064D12CF44A6C2CF0030C022F3A
:1031DC00A4F80CC06AD001AB214640466A4600F008
:1031EC0091FBA3891843A081002D2FD0002E2ED047
:1031FC00D8F83830002B38D0009BC4E90465AB42BA
:10320C00B4F90C3026601CBF43F40063A381012F7A
:10321C0004BF43F00103A3819AB213F008032CD02E
:10322C00D1075DD500216D42A561656EA16015F0D9
:10323C00010527D00025284603B0BDE8F083A389FB
:10324C009B05A9D4A06D00F059FBA5E7009D28466D
:10325C00FFF762FC0646002847D0A38943F08003A1
:10326C00A381D8F83830002BC6D1404600F026F99F
:10327C00C2E7404600F022F983E7A360656E15F0C3
:10328C000105D7D1930524D5284603B0BDE8F083BA
:10329C004046216900F00AFAB4F90CC0022F2CF454
:1032AC004A6C2CF0030CA4F80CC094D1002500211E
:1032BC00012204F1430323602361636E4CF0020C82
:1032CC00D807A4F80CC0A1606261DDD41CF4007FA7
:1032DC00DAD1A06D00F014FB284603B0BDE8F083F2
:1032EC00A560CBE74FF0FF35CEE7DDF80090A945A0
:1032FC0004D04846FFF710FC064620B94FF0FF35C6
:10330C00B4F90CC0D3E74D46A7E700BF0C00002072
:10331C00024B13B1024800F005B8704700000000E2
:10332C00ED350008002301461A46184600F076BB1E
:10333C00B1F90C20F8B50C461107074643D4636865
:10334C0042F40062002BA2815BDDA56A002D56D0F1
:10335C0000233E683B6093B212F4805255D1012396
:10336C003846E169A847421C65D0A389A56A5B076A
:10337C0005D56368C01A236B0BB1E36BC01A024608
:10338C00E16900233846A847411C40D13B68002B1B
:10339C003DD01D2B01D0162B54D10022A38923F430
:1033AC000063A3812369C4E90032216B3E6031B311
:1033BC0004F14003994202D0384600F077F900231B
:1033CC0018462363F8BD2669CEB193B29A0718BF8D
:1033DC000023256808BF63692660AD1BA3600CE061
:1033EC002B463246D4F824C03846E169E047B0F1A8
:1033FC00000CA5EB0C05664416DD002DF0DC00205E
:10340C00F8BDE36B002BA0DCF9E7206DAFE70022E1
:10341C00B4F90C30626023F400632269A381DB04ED
:10342C002260C2D52065C0E7A3894FF0FF3043F07E
:10343C004003A381F8BD3B68002B96D01D2B06D012
:10344C00162B04D0A38943F04003A381F8BD0020C0
:10345C003E60F8BD38B505460C4608B1836BA3B188
:10346C00B4F90C00B8B1636EDB0701D4810515D536
:10347C0028462146FFF75CFF636E0546DA0702D447
:10348C00A3899B050ED5284638BD00F017F8B4F972
:10349C000C000028E7D10546284638BDA06D00F089
:1034AC002DFAE5E7A06D00F02BFA284638BD00BFD9
:1034BC00014900F0FBB900BFD93A00082DE9F047EB
:1034CC008246394800F01AFADAF83840002C66D1F6
:1034DC00042303223549DAF80450CAF83C10DFF80B
:1034EC00D090DFF8D080344F344E0AF53B71CAE9E6
:1034FC00B921CAF8E0422146EB600822C5E9004434
:10350C00C5E904446C66AC60AC6105F15C00FFF786
:10351C00B7FDC5E90759C5E90987EE6205F1580001
:10352C0000F0E8F9DAF80850254B2146EB60082248
:10353C00C5E90044C5E904446C66AC60AC6105F1B6
:10354C005C00FFF79DFDC5E90759C5E90987EE62E7
:10355C0005F1580000F0CEF9DAF80C50194B214661
:10356C00EB600822C5E90044C5E904446C66AC6014
:10357C00AC6105F15C00FFF783FD05F15800C5E96E
:10358C000759C5E90A76C5F8248000F0B3F9012380
:10359C000548CAF83830BDE8F04700F0B1B9024828
:1035AC00BDE8F04700F0ACB9780A0020BD34000843
:1035BC007139000895390008D5390008F53900082B
:1035CC000900010012000200014800F097B900BF89
:1035DC00740A0020014800F093B900BF740A00205F
:1035EC0038B5084B084D5B1B9C1007D0043B1D44A1
:1035FC00013C55F804399847002CF9D1BDE8384006
:10360C0000F010BB7C42000878420008F8B50C466C
:10361C00234F0646FFF786FDBB685D68C4F57E63E5
:10362C0025F003050F332B4423F47F6323F00F03A2
:10363C00A3F58054B4F5805F07DB00213046FFF71B
:10364C007DFDBB682B44984204D03046FFF770FDDB
:10365C000020F8BD30466142FFF770FD01300DD0FF
:10366C00104ABB682D1B45F001055D6013683046A0
:10367C001B1B1360FFF75CFD0120F8BD00213046D9
:10368C00FFF75CFDBA68831A0F2BDEDD43F00103F4
:10369C005360054B03491B68C01A0860D5E700BF8F
:1036AC0038040020380A00204008002000295ED091
:1036BC00F8B50C460646FFF735FD54F8042C784F48
:1036CC00A4F1080522F001016818D7F808C0436876
:1036DC00844523F0030300F08780D207436034D481
:1036EC0054F8082C07F10804AD1A1144AA68A24238
:1036FC0068D000EB030CDCF804E0D5F80CC01EF02D
:10370C00010FC2F80CC0CCF8082000F0918041F0F9
:10371C0001036B600160B1F5007F31D24A09CB081F
:10372C00012191407A6801331143796007EBC302A0
:10373C0057F83310083AC5E9021247F83350CD60F8
:10374C003046BDE8F840FFF7F3BCC2185268D20708
:10375C000ED4194407F108048368A34270D0C268E0
:10376C00DA60936041F001036B606950D3E77047F6
:10377C0041F00103B1F5007F44F8043C0160CDD366
:10378C00B1F5206F4FEA512347D28B0903F1390071
:10379C0003F13802C300F818FB580838984258D087
:1037AC005A6822F003028A4202D99B689842F7D1E8
:1037BC00D868C5E9023085603046DD60BDE8F84068
:1037CC00FFF7B6BCC2185268D20763D40B44D0E9D9
:1037DC000212CA60916043F001026A603046EB50FD
:1037EC00BDE8F840FFF7A4BC0B44D10707D454F84C
:1037FC00082CAD1A1344D5E90212CA60916043F04B
:10380C0001026A60274ABD6012689A4298D8264B1A
:10381C0030461968FFF7FAFE92E7142B0AD9542B9D
:10382C001FD80B0B03F16F0003F16E02C300B2E75C
:10383C00194491E703F15C0003F15B02C300AAE7B2
:10384C0041F00103C7E90455C5E902446B606950B6
:10385C0076E70121921001FA02F279680A437A6044
:10386C00A7E7B3F5AA7F06D8CB0B03F1780003F1D9
:10387C007702C3008FE740F25452934206D88B0C68
:10388C0003F17D0003F17C02C30084E74FF47E73E7
:10389C007E2280E741F001036B60016050E700BFBE
:1038AC003804002044080020680A00202DE9F84361
:1038BC004FF000090746884600F53876D6E90154E2
:1038CC00013D10D4A389013D012B08D9B4F90E3068
:1038DC00013304D021463846C04749EA00096B1C25
:1038EC0004F16804EED13668002EE7D14846BDE8F5
:1038FC00F88300BF704700BF704700BF704700BF20
:10390C00704700BF70B50C46B1F90E101546002972
:10391C001E4696B014DB6A4600F03EF900280FDB19
:10392C00019A4FF4806302F47042A2F50052B2FA8D
:10393C0082F24FF40060520932602B6016B070BDF9
:10394C000023B4F90C10336011F0800004D0402235
:10395C0018462A6016B070BD4FF480632B6016B009
:10396C0070BD00BF10B50C46B1F90E1000F03EF959
:10397C00002803DB236D0344236510BDA38923F4C6
:10398C008053A38110BD00BF2DE9F0410C46B1F965
:10399C000C101F46CB05054616460BD421F480515E
:1039AC00A1813B4632462846B4F90E10BDE8F041E1
:1039BC0000F01EB8B4F90E100223002200F000F93A
:1039CC00B4F90C10EAE700BF10B50C46B1F90E10B3
:1039DC0000F0F6F8A389421C0EBF23F4805343F485
:1039EC0080532065A38110BDB1F90E1000F05CB8B6
:1039FC0038B50C46114600228446074D20462A60F5
:103A0C001A466446FEF7F0FF431C00D038BD2B6805
:103A1C00002BFBD0236038BD7C0A00202DE9F04739
:103A2C00DFF87CA00646DAF8000098460F4691466F
:103A3C00FFF764FF1B4B1B68D3F8484124B3656840
:103A4C001F2D26DC5EB96B1C0235DAF800006360B2
:103A5C0044F82570FFF754FF0020BDE8F0870123E0
:103A6C0004EB8501C1F88890D4F88821AB401A4347
:103A7C00022EC4F88821C1F80881E4D1D4F88C2135
:103A8C001343C4F88C31DEE703F5A674C3F8484140
:103A9C00D5E7DAF80000FFF733FF4FF0FF30DCE733
:103AAC00480800206C420008002238B5064D044638
:103ABC0008462A60FCF70EFD431C00D038BD2B686D
:103ACC00002BFBD0236038BD7C0A002070B5002988
:103ADC004BD006460C4610B1836B002B48D0636E5E
:103AEC00D80734D5B4F90C30002B3ED021463046E3
:103AFC00FFF71EFCE36A054633B13046E16998478F
:103B0C000028B8BF4FF0FF35A3891A063BD4216BB0
:103B1C0041B104F14003994202D03046FFF7C6FD93
:103B2C0000232363616C21B13046FFF7BFFD0023F6
:103B3C006364FFF749FD0022636EA281DB0727D582
:103B4C00A06DFFF7D9FEFFF745FD284670BDA38990
:103B5C009905CBD4A06DFFF7D1FEB4F90C30002B36
:103B6C00C4D1656E15F0010508D00025284670BD3E
:103B7C00FFF7A4FC636ED807B4D4E8E7A06DFFF799
:103B8C00BFFE284670BD30462169FFF78FFDBEE7AA
:103B9C00A06DFFF7B5FED3E770B50026074D0446C0
:103BAC00084611462E60FEF759FF431C00D070BD2D
:103BBC002B68002BFBD0236070BD00BF7C0A00205B
:103BCC0038B50C46114600228446074D20462A6023
:103BDC001A466446FEF722FF431C00D038BD2B6802
:103BEC00002BFBD0236038BD7C0A002038B50C4676
:103BFC00114600228446074D20462A601A46644628
:103C0C00FEF714FF431C00D038BD2B68002BFBD0F3
:103C1C00236038BD7C0A0020F8B500BFF8BC08BC96
:103C2C009E467047F8B500BFF8BC08BC9E4670476E
:103C3C0053756363657373004E494345217E7E7EE5
:103C4C007E000000000000000000000001020304E0
:103C5C000607080900000000010203040203040522
:103C6C00060708090A0B0C0D0E0F101001020000BC
:103C7C000000000000000000000000000000000038
:103C8C00000000F8000000000000003330000000CD
:103C9C0000100C06100C06000000000000000000D4
:103CAC0040C07840C0784000043F04043F04040046
:103CBC00007088FC08300000001820FF211E000056
:103CCC00F008F000E018000000211C031E211E006B
:103CDC0000F00888700000001E21232419272110F1
:103CEC0010160E0000000000000000000000000094
:103CFC00000000E01804020000000007182040003B
:103D0C0000020418E000000000402018070000002A
:103D1C00404080F0804040000202010F010202008E
:103D2C00000000F0000000000101011F0101010072
:103D3C00000000000000000080B0700000000000D7
:103D4C000000000000000000000101010101010160
:103D5C0000000000000000000030300000000000F7
:103D6C0000000000806018040060180601000000CC
:103D7C0000E010080810E000000F102020100F00C9
:103D8C00001010F8000000000020203F2020000050
:103D9C0000700808088870000030282422213000A8
:103DAC0000300888884830000018202020110E00B0
:103DBC000000C02010F8000000070424243F240059
:103DCC0000F80888880808000019212020110E002E
:103DDC0000E0108888180000000F112020110E0040
:103DEC0000380808C83808000000003F0000000038
:103DFC000070880808887000001C222121221C00F9
:103E0C0000E010080810E0000000312222110F0021
:103E1C00000000C0C00000000000003030000000B6
:103E2C000000008000000000000080600000000026
:103E3C00000080402010080000010204081020003F
:103E4C00404040404040400004040404040404008A
:103E5C00000810204080000000201008040201001F
:103E6C00007048080808F00000000030360100001F
:103E7C00C030C828E810E0000718272423140B00D2
:103E8C000000C038E0000000203C2302022738204C
:103E9C0008F8888888700000203F202020110E0030
:103EAC00C030080808083800071820202010080027
:103EBC0008F808080810E000203F202020100F0010
:103ECC0008F88888E8081000203F202023201800DC
:103EDC0008F88888E8081000203F20000300000044
:103EEC00C03008080838000007182020221E0200E5
:103EFC0008F808000008F808203F210101213F20A4
:103F0C00000808F8080800000020203F20200000CE
:103F1C0000000808F8080800C08080807F000000BE
:103F2C0008F888C028180800203F200126382000F7
:103F3C0008F8080000000000203F2020202030005E
:103F4C0008F8F800F8F80800203F003F003F200078
:103F5C0008F830C00008F808203F200007183F0080
:103F6C00E01008080810E0000F10202020100F00AF
:103F7C0008F808080808F000203F210101010000A2
:103F8C00E01008080810E0000F18242438504F00E7
:103F9C0008F8888888887000203F2000030C3020A7
:103FAC0000708808080838000038202121221C00E5
:103FBC00180808F8080818000000203F200000002E
:103FCC0008F808000008F808001F202020201F0017
:103FDC000878880000C83808000007380E01000077
:103FEC00F80800F80008F800033C0700073C030041
:103FFC00081868808068180820302C03032C3020A7
:10400C000838C800C83808000000203F2000000015
:10401C0010080808C838080020382621202018006D
:10402C00000000FE020202000000007F4040400041
:10403C00000C30C000000000000000010638C00079
:10404C0000020202FE000000004040407F00000021
:10405C000000040202020400000000000000000046
:10406C000000000000000000808080808080808044
:10407C00000202040000000000000000000000002C
:10408C0000008080808000000019242222223F2022
:10409C0008F8008080000000003F112020110E0065
:1040AC000000008080800000000E112020201100F4
:1040BC00000000808088F800000E112020103F20A6
:1040CC000000808080800000001F2222222213002A
:1040DC00008080F0888888180020203F2020000075
:1040EC000000808080808000006B9494949360002A
:1040FC0008F8008080800000203F210000203F2035
:10410C0000809898000000000020203F2020000034
:10411C00000000809898000000C08080807F000024
:10412C0008F8000080808000203F24022D30200001
:10413C00000808F8000000000020203F20200000AC
:10414C008080808080808000203F20003F20003FC6
:10415C008080008080800000203F210000203F20D4
:10416C000000808080800000001F202020201F0085
:10417C00808000808000000080FFA12020110E00B4
:10418C000000008080808000000E112020A0FF80A5
:10419C00808080008080800020203F212000010052
:1041AC0000008080808080000033242424241900A7
:1041BC00008080E0808000000000001F20200000B4
:1041CC008080000000808000001F202020103F20F5
:1041DC00808080000080808000010E300806010085
:1041EC0080800080008080800F300C030C300F002A
:1041FC0000808000808080000020312E0E31200055
:10420C00808080000080808080818E701806010084
:10421C0000808080808080000021302C22213000A2
:10422C0000000000807C020200000000003F4040C3
:10423C0000000000FF00000000000000FF00000074
:10424C000002027C800000000040403F00000000A3
:10425C00000601010202040400000000000000003E
:04426C00100000201E
:084270001D33000831010008B4
:044278000D0100082C
:10427C000024F400010000001000000010000020D9
:10428C0000000000FC02002064030020CC0300208E
:10429C000000000000000000000000000000000012
:1042AC000000000000000000000000000000000002
:1042BC0000000000000000000000000000000000F2
:1042CC0000000000000000000000000000000000E2
:1042DC0000000000000000000000000000000000D2
:1042EC0000000000000000000000000000000000C2
:1042FC0000000000000000000000000000000000B2
:10430C0000000000000000000000000000000000A1
:10431C000000000000000000000000000000000091
:10432C000000000000000000010000000000000080
:10433C000E33CDAB34126DE6ECDE05000B00000045
:10434C000000000000000000000000000000000061
:10435C000000000000000000000000000000000051
:10436C000000000000000000000000000000000041
:10437C000000000000000000000000000000000031
:1046BC00380400203804002040040020400400206E
:1046CC00480400204804002050040020500400201E
:1046DC0058040020580400206004002060040020CE
:1046EC00680400206804002070040020700400207E
:1046FC00780400207804002080040020800400202E
:10470C0088040020880400209004002090040020DD
:10471C009804002098040020A0040020A00400208D
:10472C00A8040020A8040020B0040020B00400203D
:10473C00B8040020B8040020C0040020C0040020ED
:10474C00C8040020C8040020D0040020D00400209D
:10475C00D8040020D8040020E0040020E00400204D
:10476C00E8040020E8040020F0040020F0040020FD
:10477C00F8040020F80400200005002000050020AB
:10478C000805002008050020100500201005002059
:10479C001805002018050020200500202005002009
:1047AC0028050020280500203005002030050020B9
:1047BC003805002038050020400500204005002069
:1047CC004805002048050020500500205005002019
:1047DC0058050020580500206005002060050020C9
:1047EC006805002068050020700500207005002079
:1047FC007805002078050020800500208005002029
:10480C0088050020880500209005002090050020D8
:10481C009805002098050020A0050020A005002088
:10482C00A8050020A8050020B0050020B005002038
:10483C00B8050020B8050020C0050020C0050020E8
:10484C00C8050020C8050020D0050020D005002098
:10485C00D8050020D8050020E0050020E005002048
:10486C00E8050020E8050020F0050020F0050020F8
:10487C00F8050020F80500200006002000060020A6
:10488C000806002008060020100600201006002054
:10489C001806002018060020200600202006002004
:1048AC0028060020280600203006002030060020B4
:1048BC003806002038060020400600204006002064
:1048CC004806002048060020500600205006002014
:1048DC0058060020580600206006002060060020C4
:1048EC006806002068060020700600207006002074
:1048FC007806002078060020800600208006002024
:10490C0088060020880600209006002090060020D3
:10491C009806002098060020A0060020A006002083
:10492C00A8060020A8060020B0060020B006002033
:10493C00B8060020B8060020C0060020C0060020E3
:10494C00C8060020C8060020D0060020D006002093
:10495C00D8060020D8060020E0060020E006002043
:10496C00E8060020E8060020F0060020F0060020F3
:10497C00F8060020F80600200007002000070020A1
:10498C00080700200807002010070020100700204F
:10499C0018070020180700202007002020070020FF
:1049AC0028070020280700203007002030070020AF
:1049BC00380700203807002040070020400700205F
:1049CC00480700204807002050070020500700200F
:1049DC0058070020580700206007002060070020BF
:1049EC00680700206807002070070020700700206F
:1049FC00780700207807002080070020800700201F
:104A0C0088070020880700209007002090070020CE
:104A1C009807002098070020A0070020A00700207E
:104A2C00A8070020A8070020B0070020B00700202E
:104A3C00B8070020B8070020C0070020C0070020DE
:104A4C00C8070020C8070020D0070020D00700208E
:104A5C00D8070020D8070020E0070020E00700203E
:104A6C00E8070020E8070020F0070020F0070020EE
:104A7C00F8070020F807002000080020000800209C
:104A8C00080800200808002010080020100800204A
:104A9C0018080020180800202008002020080020FA
:104AAC0028080020280800203008002030080020AA
:0C4ABC00FFFFFFFF000002006C0A00205A
:0400000508002A8540
:00000001FF
