:020000040800F2
:10000000005000207D65000821140008231400081A
:100010002514000827140008291400080000000017
:10002000000000000000000000000000213A00086D
:100030002B14000800000000C13A00082D1400082D
:10004000C5650008C5650008C5650008C5650008E8
:10005000C5650008C5650008C5650008C5650008D8
:10006000C5650008C5650008C5650008C5650008C8
:10007000C56500084514000855140008C56500084A
:100080006514000875140008C5650008C5650008FA
:10009000C5650008C5650008C5650008C565000898
:1000A000C5650008C5650008C5650008C565000888
:1000B0008514000895140008C5650008C56500088A
:1000C000C5650008C5650008C5650008C565000868
:1000D000C5650008A5140008B5140008C56500082A
:1000E000C5650008C5650008C5650008000000007A
:1000F0000000000000000000000000000000000000
:0C01000000000000000000005FF808F1A3
:1001100010B5054C237833B9044B13B10448AFF341
:1001200000800123237010BDC009002000000000E2
:1001300054CE000808B5034B1BB103490348AFF385
:10014000008008BD00000000C409002054CE000853
:10015000844641EA000313F0030349D1403A23D314
:100160000B6803604B6843608B688360CB68C36037
:100170000B6903614B6943618B698361CB69C3611F
:100180000B6A03624B6A43628B6A8362CB6AC36207
:100190000B6B03634B6B43638B6B8363CB6BC363EF
:1001A00040304031403ADBD230320BD30B68036031
:1001B0004B6843608B688360CB68C360103010313C
:1001C000103AF3D20C3205D351F8043B40F8043B0B
:1001D000043AF9D2043208D0D2071CBF11F8013B0F
:1001E00000F8013B01D30B8803806046704700BFD5
:1001F000082A13D38B07B1D010F00303AED0C3F19C
:100200000403D21ADB071CBF11F8013B00F8013BC5
:10021000A4D331F8023B20F8023B9FE7043AD9D33C
:10022000013A11F8013B00F8013BF9D20B78037059
:100230004B7843708B7883706046704781F0004143
:1002400002E000BF83F0004330B54FEA41044FEABB
:10025000430594EA050F08BF90EA020F1FBF54EA56
:10026000000C55EA020C7FEA645C7FEA655C00F0F2
:10027000E2804FEA5454D4EB5555B8BF6D420CDDC3
:100280002C4480EA020281EA030382EA000083EA46
:10029000010180EA020281EA0303362D88BF30BDE6
:1002A00011F0004F4FEA01314FF4801C4CEA11313C
:1002B00002D0404261EB410113F0004F4FEA03339B
:1002C0004CEA133302D0524263EB430394EA050F26
:1002D00000F0A780A4F10104D5F1200E0DDB02FA95
:1002E0000EFC22FA05F2801841F1000103FA0EF229
:1002F000801843FA05F359410EE0A5F120050EF1EF
:10030000200E012A03FA0EFC28BF4CF0020C43FA1F
:1003100005F3C01851EBE37101F0004507D54FF02C
:10032000000EDCF1000C7EEB00006EEB0101B1F57C
:10033000801F1BD3B1F5001F0CD349085FEA3000C2
:100340004FEA3C0C04F101044FEA445212F5800FCD
:1003500080F09A80BCF1004F08BF5FEA500C50F16A
:10036000000041EB045141EA050130BD5FEA4C0C4D
:10037000404141EB0101013C28BFB1F5801FE9D2AA
:1003800091F0000F04BF01460020B1FA81F308BFCD
:100390002033A3F10B03B3F120020CDA0C3208DD99
:1003A00002F1140CC2F10C0201FA0CF021FA02F174
:1003B0000CE002F11402D8BFC2F1200C01FA02F1E4
:1003C00020FA0CFCDCBF41EA0C019040E41AA2BF09
:1003D00001EB0451294330BD6FEA04041F3C1CDAD1
:1003E0000C340EDC04F11404C4F1200220FA04F0F1
:1003F00001FA02F340EA030021FA04F345EA03019B
:1004000030BDC4F10C04C4F1200220FA02F001FA5C
:1004100004F340EA0300294630BD21FA04F02946DE
:1004200030BD94F0000F83F4801306BF81F4801177
:100430000134013D4EE77FEA645C18BF7FEA655CEA
:1004400029D094EA050F08BF90EA020F05D054EABC
:10045000000C04BF1946104630BD91EA030F1EBFC1
:100460000021002030BD5FEA545C05D140004941C5
:1004700028BF41F0004130BD14F580043CBF01F5B8
:10048000801130BD01F0004545F0FE4141F470019E
:100490004FF0000030BD7FEA645C1ABF1946104679
:1004A0007FEA655C1CBF0B46024650EA013406BF7A
:1004B00052EA033591EA030F41F4002130BD00BF39
:1004C00090F0000F04BF0021704730B54FF48064F6
:1004D00004F132044FF000054FF0000150E700BF77
:1004E00090F0000F04BF0021704730B54FF48064D6
:1004F00004F1320410F0004548BF40424FF00001C3
:100500003EE700BF42004FEAE2014FEA31014FEA05
:1005100002701FBF12F07F4393F07F4F81F0605154
:10052000704732F07F4208BF704793F07F4F04BF9F
:1005300041F40021704730B54FF4607401F000457C
:1005400021F000411CE700BF50EA010208BF7047DC
:1005500030B54FF000050AE050EA010208BF7047CD
:1005600030B511F0004502D5404261EB41014FF436
:10057000806404F132045FEA915C3FF4D8AE4FF03E
:1005800003025FEADC0C18BF03325FEADC0C18BF21
:10059000033202EBDC02C2F1200300FA03FC20FA72
:1005A00002F001FA03FE40EA0E0021FA02F11444BF
:1005B000BDE600BF70B54FF0FF0C4CF4E06C1CEAD8
:1005C00011541DBF1CEA135594EA0C0F95EA0C0F49
:1005D00000F0DEF82C4481EA030621EA4C5123EABC
:1005E0004C5350EA013518BF52EA033541F48011EB
:1005F00043F4801338D0A0FB02CE4FF00005E1FB9E
:1006000002E506F00042E0FB03E54FF00006E1FBE7
:1006100003569CF0000F18BF4EF0010EA4F1FF042A
:10062000B6F5007F64F5407404D25FEA4E0E6D416A
:1006300046EB060642EAC62141EA55514FEAC5207B
:1006400040EA5E504FEACE2EB4F1FD0C88BFBCF5F7
:10065000E06F1ED8BEF1004F08BF5FEA500E50F1A8
:10066000000041EB045170BD06F0004646EA01016E
:1006700040EA020081EA0301B4EB5C04C2BFD4EBA0
:100680000C0541EA045170BD41F480114FF0000E99
:10069000013C00F3AB8014F1360FDEBF002001F007
:1006A000004170BDC4F10004203C35DA0C341BDC81
:1006B00004F11404C4F1200500FA05F320FA04F053
:1006C00001FA05F240EA020001F0004221F0004187
:1006D00010EBD37021FA04F642EB06015EEA430EFA
:1006E00008BF20EAD37070BDC4F10C04C4F120052A
:1006F00000FA04F320FA05F001FA04F240EA0200DD
:1007000001F0004110EBD37041F100015EEA430EAD
:1007100008BF20EAD37070BDC4F1200500FA05F2CD
:100720004EEA020E20FA04F301FA05F243EA02034C
:1007300021FA04F001F0004121FA04F220EA02005B
:1007400000EBD3705EEA430E08BF20EAD37070BDA1
:1007500094F0000F0FD101F00046400041EB010181
:1007600011F4801F08BF013CF7D041EA060195F063
:10077000000F18BF704703F00046520043EB03031D
:1007800013F4801F08BF013DF7D043EA060370470A
:1007900094EA0C0F0CEA135518BF95EA0C0F0CD015
:1007A00050EA410618BF52EA4306D1D181EA03015B
:1007B00001F000414FF0000070BD50EA410606BF55
:1007C0001046194652EA430619D094EA0C0F02D19A
:1007D00050EA013613D195EA0C0F05D152EA0336DF
:1007E0001CBF104619460AD181EA030101F00041FD
:1007F00041F0FE4141F470014FF0000070BD41F046
:10080000FE4141F4780170BD70B54FF0FF0C4CF41F
:10081000E06C1CEA11541DBF1CEA135594EA0C0F3E
:1008200095EA0C0F00F0A7F8A4EB050481EA030E8B
:1008300052EA03354FEA013100F088804FEA033372
:100840004FF0805545EA131343EA12634FEA022240
:1008500045EA111545EA10654FEA00260EF0004101
:100860009D4208BF964244F1FD0404F5407402D253
:100870005B084FEA3202B61A65EB03055B084FEAE4
:1008800032024FF480104FF4002CB6EB020E75EBE1
:10089000030E22BFB61A754640EA0C005B084FEA09
:1008A0003202B6EB020E75EB030E22BFB61A754686
:1008B00040EA5C005B084FEA3202B6EB020E75EBD1
:1008C000030E22BFB61A754640EA9C005B084FEA49
:1008D0003202B6EB020E75EB030E22BFB61A754656
:1008E00040EADC0055EA060E18D04FEA051545EA45
:1008F00016754FEA06164FEAC30343EA52734FEAEE
:10090000C2025FEA1C1CC0D111F4801F0BD141EA66
:1009100000014FF000004FF0004CB6E711F4801FCB
:1009200004BF01430020B4F1FD0C88BFBCF5E06FAB
:100930003FF6AFAEB5EB030C04BFB6EB020C5FEABB
:10094000500C50F1000041EB045170BD0EF0004E10
:100950004EEA113114EB5C04C2BFD4EB0C0541EA42
:10096000045170BD41F480114FF0000E013C90E63F
:1009700045EA060E8DE60CEA135594EA0C0F08BF03
:1009800095EA0C0F3FF43BAF94EA0C0F0AD150EA02
:1009900001347FF434AF95EA0C0F7FF425AF104695
:1009A00019462CE795EA0C0F06D152EA03353FF4BD
:1009B000FDAE1046194622E750EA410618BF52EA3A
:1009C00043067FF4C5AE50EA41047FF40DAF52EA0E
:1009D00043057FF4EBAE12E74FF0FF3C06E000BFAB
:1009E0004FF0010C02E000BF4FF0010C4DF804CDB8
:1009F0004FEA410C7FEA6C5C4FEA430C18BF7FEA78
:100A00006C5C1BD001B050EA410C0CBF52EA430CA5
:100A100091EA030F02BF90EA020F0020704710F125
:100A2000000F91EA030F58BF994208BF90422CBFB4
:100A3000D8176FEAE37040F0010070474FEA410CAD
:100A40007FEA6C5C02D150EA013C07D14FEA430CCB
:100A50007FEA6C5CD6D152EA033CD3D05DF8040B3C
:100A6000704700BF8446104662468C46194663466E
:100A700000E000BF01B5FFF7B7FF002848BF10F145
:100A8000000F01BD4DF808EDFFF7F4FF0CBF01208A
:100A900000205DF808FB00BF4DF808EDFFF7EAFF06
:100AA00034BF012000205DF808FB00BF4DF808EDC1
:100AB000FFF7E0FF94BF012000205DF808FB00BFB6
:100AC0004DF808EDFFF7CEFF94BF012000205DF840
:100AD00008FB00BF4DF808EDFFF7C4FF34BF01204D
:100AE00000205DF808FB00BF4FEA410C7FEA6C5C18
:100AF00002D150EA013C0AD14FEA430C7FEA6C5C18
:100B000002D152EA033C02D14FF0000070474FF08F
:100B1000010070474FEA410212F5001215D211D5BB
:100B20006FF47873B3EB625212D94FEAC12343F0EA
:100B3000004343EA505311F0004F23FA02F018BF6C
:100B4000404270474FF00000704750EA013005D135
:100B500011F0004008BF6FF0004070474FF00000F8
:100B6000704700BF53B94AB9002908BF00281CBF0D
:100B70004FF0FF314FF0FF3000F076B9ADF1080CC7
:100B80006DE904CE00F006F8DDF804E0DDE90223AB
:100B900004B070472DE9F047089E0D46044688468C
:100BA000002B4DD18A42944668D9B2FA82F252B1F2
:100BB00001FA02F3C2F1200120FA01F10CFA02FC61
:100BC00041EA030894404FEA1C41B8FBF1F71FFAD1
:100BD0008CFE01FB178807FB0EF0230C43EA084349
:100BE00098420AD91CEB030307F1FF3580F01E8100
:100BF000984240F21B81023F63441B1AB3FBF1F0A1
:100C000001FB103300FB0EFEA4B244EA0344A645E8
:100C10000AD91CEB040400F1FF3380F00981A645DA
:100C200040F20681644402380021A4EB0E0440EA3D
:100C300007401EB10023D440C6E90043BDE8F08759
:100C40008B4208D9002E00F0EE800021C6E9000595
:100C50000846BDE8F087B3FA83F100294AD1AB42D8
:100C600002D3824200F2FC80841A65EB0303012068
:100C70009846002EE2D0C6E90048DFE702B9FFDE61
:100C8000B2FA82F2002A40F09180A1EB0C0001211F
:100C90004FEA1C471FFA8CFEB0FBF7F307FB13006B
:100CA000250C45EA00450EFB03F0A84208D91CEBD1
:100CB000050503F1FF3802D2A84200F2CE80434678
:100CC0002D1AB5FBF7F007FB10550EFB00FEA4B282
:100CD00044EA0544A64508D91CEB040400F1FF359D
:100CE00002D2A64500F2B6802846A4EB0E0440EAE4
:100CF00003409EE7C1F120078B4022FA07FC4CEA33
:100D0000030C25FA07FA4FEA1C49BAFBF9F820FA56
:100D100007F309FB18AA8D401FFA8CFE1D4300FA49
:100D200001F308FB0EF02C0C44EA0A44A04202FA3C
:100D300001F20BD91CEB040408F1FF3A80F0888023
:100D4000A04240F28580A8F102086444241AB4FB52
:100D5000F9F009FB104400FB0EFEADB245EA044475
:100D6000A64508D91CEB040400F1FF356CD2A6455A
:100D70006AD90238644440EA0840A0FB0295A4EB1B
:100D80000E04AC42C846AE4656D353D0002E69D0AE
:100D9000B3EB080264EB0E0422FA01F304FA07F73E
:100DA0001F43CC40C6E90074002147E70CFA02FC5F
:100DB000C2F1200125FA01F34FEA1C4720FA01F1A4
:100DC00095400D43B3FBF7F107FB11331FFA8CFE7F
:100DD000280C40EA034001FB0EF3834204FA02F4BC
:100DE00008D91CEB000001F1FF382FD283422DD926
:100DF00002396044C01AB0FBF7F307FB1300ADB231
:100E000045EA004503FB0EF0A84208D91CEB050596
:100E100003F1FF3816D2A84214D9023B6544281AC0
:100E200043EA014138E73146304607E72F46E4E61A
:100E30001846F9E64B45A9D2B9EB020865EB0C0E52
:100E40000138A3E74346EAE7284694E74146D1E75D
:100E5000D0467BE76444023847E7023B65442FE70E
:100E6000084606E73146E9E6704700BF00B583B0A3
:100E7000164B5A6942F001025A615B6903F00103A3
:100E80000193019B002205210D2000F02FFE0D2073
:100E900000F064FE002205210E2000F027FE0E2047
:100EA00000F05CFE00220521102000F01FFE102043
:100EB00000F054FE00220521112000F017FE112041
:100EC00000F04CFE03B05DF804FB00BF00100240D0
:100ED00008B5374A0121084604F0BCFA354A012119
:100EE000022004F0B7FA17E0334BD3F806300022A3
:100EF000114610469847314A0621022004F0AAFA0A
:100F00002F4B9B7DDBB2012B03D12E4B1B78012B8A
:100F10003AD00A2002F0F3FC274B93F85130032B10
:100F20002AD801A252F823F0E90E0008390F000870
:100F30004D0F0008630F00081F4BD3F84930984746
:100F4000214A0621022004F085FAD9E71A4BD3F88A
:100F50004D30002098471D4A0621022004F07AFAFD
:100F6000CEE7154BD3F84D3001209847184A06219B
:100F7000022004F06FFAC3E70F4BD3F806300022CB
:100F8000114610469847BBE7124805F0EFFE124E97
:100F9000124D0B4C32462946204603F0EDFC3168D9
:100FA000286803F023FD204604F00BFBB1E700BFE7
:100FB000C0CE0008D0CE0008A81C0020D8CE000863
:100FC000440C0020DC090020E4CE0008F0CE00082C
:100FD000FCCE000808CF0008E4090020E00900204A
:100FE00008B5094A0121032004F034FA04F008F995
:100FF0000123064AB2F807200821032004F046FA2C
:10100000142002F07CFCF1E714CF0008FC1C002047
:10101000034B0360034B0B6080231360704700BFDA
:10102000F00B0020F009002030B591B02E4D28467D
:1010300001F058FD2D4801F055FD2D4C2D4B4FF47E
:1010400096722946204604F0A0FA204604F0ADFA34
:1010500004F044FA04F082F804F000F94FF47A70D6
:1010600000F01EFD03F06EFB4FF47A7000F018FDE7
:1010700004F1100393E803008DE8030094E80F00E7
:1010800003F01CFB03282AD01B4A0121042004F092
:10109000E1F91A4C0DF1240CA646BEE80F00ACE8AD
:1010A0000F009EE807008CE80700002109A802F065
:1010B000F1FB134B18600DF1080E04F11C0CBCE899
:1010C0000F00AEE80F009CE807008EE80700002143
:1010D00002A802F0DFFB0B4B186011B030BD0A4BC9
:1010E00001221A70D0E700BF4C0D0020940D0020A3
:1010F000440C0020F00E00201CCF000870CE000829
:10110000E8090020EC090020DC0900202DE9F0436B
:1011100089B000240494059406940794414B9A697D
:1011200042F010029A619A6902F010020092009A4D
:101130009A6942F020029A619A6902F020020192B3
:10114000019A9A6942F004029A619A6902F00402D3
:101150000292029A9A6942F008029A619B6903F02E
:1011600008030393039BDFF8C08022464FF400512D
:10117000404600F0C6FFDFF8B49022460121484601
:1011800000F0BFFF2A4E01224FF48061304600F08C
:10119000B8FF22464FF44841304600F0B2FF4FF40A
:1011A000005304930125059506940227079704A987
:1011B000404600F08DFE0495059506944FF0030817
:1011C000CDF81C8004A9484600F082FE04970594DF
:1011D000069504A9484600F07BFE4FF48063049313
:1011E000112305930695CDF81C8004A9304600F024
:1011F0006FFE4FF40063049305950694CDF81C80B0
:1012000004A9304600F064FE4FF440430493059572
:101210000694079704A9304600F05AFE09B0BDE8CD
:10122000F08300BF001002400010014000080140A0
:10123000000C014072B6FEE700B591B028220021F3
:1012400006A805F0D3FC00230193029303930493B3
:101250000593012206924FF4803307930A920222EB
:101260000D920E934FF4E0130F9306A800F066FF63
:1012700080B90F23019302210291002303934FF4BD
:1012800080620492059301A801F08AF920B911B097
:101290005DF804FBFFF7CEFFFFF7CCFF08B500F0C9
:1012A000DBFB0D4805F006F9FFF7C6FFFFF72EFF41
:1012B000FFF7DCFD00F0BCF900F0F2F900F028FACD
:1012C00000F0A6FA00F0BEFA00F008F8FFF7ACFE56
:1012D00002F0DBFAFEE700BFA80E002008B50E48BA
:1012E0000E4B03604FF48273436000238360C3603E
:1012F000036143614FF4007282611022C261036294
:10130000436283620A23C36201F0A2FA00B908BDF6
:10131000FFF790FFFBE700BFA00C0020003001406A
:1013200070B586B00023029303930493059302687B
:10133000224B9A4201D006B070BD044603F56043CB
:101340009A6942F480529A619A6902F4805200923A
:10135000009A9A6942F004029A619B6903F00403BF
:101360000193019BA023029302230393032305937C
:10137000134E02A9304600F0ABFD40230293002536
:101380000395049502A9304600F0A2FD0D480E4BCE
:1013900003601023436085608023C360056145615D
:1013A00085614FF44053C36100F010FC18B9054B40
:1013B000A3645C62BFE7FFF73DFFF8E70030014040
:1013C000000801405C0C00203000024000B583B0F2
:1013D000114B9A6942F001029A619A6902F0010286
:1013E0000092009ADA6942F08052DA61DB6903F018
:1013F00080530193019B00220F216FF0010000F048
:1014000075FB064A536823F0E06343F000735360B2
:1014100003B05DF804FB00BF001002400000014073
:10142000FEE7FEE7FEE7FEE7FEE7704708B500F0DF
:1014300025FB03F0B7F8012800D108BD02F062FBDC
:10144000FBE7000008B5024800F0A0FC08BD00BFA3
:101450005C0C002008B5024800F098FC08BD00BFF5
:10146000DC0D002008B5024800F090FC08BD00BF6C
:10147000200E002008B5024800F088FC08BD00BF1F
:10148000640E002008B5024801F064FB08BD00BFEF
:101490004C0D002008B5024801F05CFB08BD00BF00
:1014A000940D002008B5024801F0E4FF08BD00BF1C
:1014B000A80E002008B5024801F0DCFF08BD00BFFF
:1014C000F00E00200368B3F1804F04D002682D4B6A
:1014D0009A4214D070472C4B5B7DDBB2012BF5D1C7
:1014E000294B5B89294A1288934202D0274A1380EC
:1014F000ECE7254B01229A7500225A75E6E710B5F4
:10150000234A1388591C1180224A5289934206D3D8
:10151000204B012283F848201D4B00221A801D4BCE
:1015200093F848300BBB1A4B1A881B4BA3FB0213D2
:10153000DB0803EB8303A2EB43039BB2ABB9174B6E
:101540001B783B2B02D9154B00221A7000F0A2FA2F
:10155000044600F09FFA114B1A78511C197004FBD5
:1015600000F0C0B20B4B134418730D4A1378591C8A
:101570001170132B00D810BD03F018FE084B002289
:101580001A70F8E700040040440C0020FA0C002018
:10159000FC0C0020A81C0020CDCCCCCCFE0C0020E4
:1015A000F80C00200268074B9A4200D07047064BA7
:1015B00001225A75D9685A89187D88545A8901328E
:1015C0005A81F3E700440040440C0020012070479A
:1015D00008B505F019F8162303604FF0FF3008BD79
:1015E00008B54FF0FF31FFF7F3FFFEE708B50346FC
:1015F0000B4A126842B10A4A106803446A46934291
:1016000006D8074A136008BD054A06491160F2E78B
:1016100004F0FAFF0C2303604FF0FF30F3E700BF44
:10162000000D0020581D00204FF0FF30704770471C
:1016300000B587B0002302930393049305930093AE
:1016400001931548154A0260436083604FF6FF72AC
:10165000C26003614361836101F074FB90B94FF490
:101660008053029302A90C4801F0A4FB68B900233F
:10167000009301936946084801F01CFC40B907B08B
:101680005DF804FBFFF7D6FDE9E7FFF7D3FDEEE7D2
:10169000FFF7D0FDF3E700BF040D0020002C014050
:1016A00000B587B00023029303930493059300933E
:1016B000019316484FF08042026040F2CF22426010
:1016C000836040F2E732C2600361836101F03AFB5C
:1016D00090B94FF48053029302A90C4801F06AFBC1
:1016E00068B90023009301936946084801F0E2FBC2
:1016F00040B907B05DF804FBFFF79CFDE9E7FFF791
:1017000099FDEEE7FFF796FDF3E700BF4C0D0020D3
:1017100000B587B0002302930393049305930093CD
:1017200001931548154A026040F2CF22426083605F
:101730006322C2600361836101F004FB90B94FF43E
:101740008053029302A90C4801F034FB68B90023CE
:10175000009301936946084801F0ACFB40B907B01B
:101760005DF804FBFFF766FDE9E7FFF763FDEEE7D1
:10177000FFF760FDF3E700BF940D00200004004078
:1017800000B585B003681F4A934208D0B3F1804F7B
:1017900010D01D4A934221D005B05DF804FB1B4BCD
:1017A0009A6942F400629A619B6903F400630193B1
:1017B000019BF1E703F50433DA6942F00102DA61D3
:1017C000DB6903F001030293029B002206211C2027
:1017D00000F08CF91C2000F0C1F9DDE70B4BDA6951
:1017E00042F00202DA61DB6903F002030393039B18
:1017F000002207211D2000F079F91D2000F0AEF92C
:10180000CAE700BF002C0140000400400010024065
:1018100008B50A480A4B03604FF4E13343600023E4
:101820008360C36003610C2242618361C36101F084
:1018300075FC00B908BDFFF7FDFCFBE7A80E002012
:101840000038014008B50A480A4B03604FF4E13301
:10185000436000238360C36003610C2242618361A3
:10186000C36101F05BFC00B908BDFFF7E3FCFBE7D7
:10187000F00E00200044004070B588B004460023FC
:1018800004930593069307930368564A934204D042
:10189000554A934248D008B070BD544B9A6942F4FF
:1018A00080429A619A6902F480420092009A9A6991
:1018B00042F004029A619B6903F004030193019BC7
:1018C0004FF4007304930223059303230793484EB8
:1018D00004A9304600F0FCFA4FF48063049300251D
:1018E0000595069504A9304600F0F2FA4148424BAE
:1018F00003601023436085608023C36005614561F8
:101900008561C56100F062F958B93A4BA3635C6226
:1019100000220F21252000F0E9F8252000F01EF913
:10192000B9E7FFF787FCF0E7304BDA6942F40032A1
:10193000DA61DA6902F400320292029A9A6942F09C
:1019400004029A619B6903F004030393039B04233D
:1019500004930223059303230793254E04A93046DD
:1019600000F0B6FA0823049300250595069504A90E
:10197000304600F0ADFA2148214B03604560856098
:101980008023C36005614561202383614FF40053C8
:10199000C36100F01BF9F0B9184BE3635C621948AE
:1019A000194B036010234360002383608022C260D0
:1019B000036143618361C36100F008F970B9114BA1
:1019C000A3635C6200220521262000F08FF8262008
:1019D00000F0C4F85FE7FFF72DFCDDE7FFF72AFC16
:1019E000EDE700BF00380140004400400010024015
:1019F00000080140DC0D002044000240200E0020C1
:101A00006C000240640E00208000024010B50446C5
:101A10000E4B18784FF47A73B3FBF0F30C4A10684E
:101A2000B0FBF3F000F0A8F868B90F2C01D9012041
:101A30000AE0002221464FF0FF3000F057F8054B36
:101A40001C60002000E0012010BD00BF0400002049
:101A5000000000200800002008B5074A136843F082
:101A600010031360032000F02FF80F20FFF7CEFFC4
:101A7000FFF7ACFC002008BD00200240034A1168BB
:101A8000034B1B780B441360704700BF380F0020D6
:101A900004000020014B1868704700BF380F002079
:101AA00038B50446FFF7F6FF0546B4F1FF3F02D014
:101AB000044B1B781C44FFF7EDFF401BA042FAD3F8
:101AC00038BD00BF04000020074AD36823F4E06358
:101AD0001B041B0C000200F4E060034343F0BF63EF
:101AE00043F40033D360704700ED00E000B5194BBC
:101AF000DB68C3F30223C3F1070CBCF1040F28BF5A
:101B00004FF0040C03F1040EBEF1060F18D9033B8D
:101B10004FF0FF3E0EFA0CFC21EA0C0199400EFA40
:101B200003F322EA0303194300280BDB0901C9B2BE
:101B300000F1604000F5614080F800135DF804FB9F
:101B40000023E5E700F00F000901C9B2024B195468
:101B5000F4E700BF00ED00E014ED00E0002807DB33
:101B600000F01F02400901239340024A42F820304E
:101B7000704700BF00E100E00138B0F1807F0BD278
:101B80004FF0E0235861054AF02182F8231000202D
:101B9000986107221A6170470120704700ED00E04C
:101BA00030B40124056CAC40C56B6C6004686360A4
:101BB0004368102B05D0036899600368DA6030BC75
:101BC000704703689A600368D960F8E760B310B49F
:101BD00002460168154B0B441548A0FB03031B0983
:101BE0009B001364134BD363022382F821300868EF
:101BF00020F47F5020F03000536894682343D46869
:101C00002343146923435469234394692343D469C8
:101C1000234303430B6000209063012382F82130AB
:101C200082F8200010BC704701207047F8FFFDBF0C
:101C3000CDCCCCCC0000024038B5044690F8200052
:101C4000012832D0012084F8200094F82100C0B28D
:101C5000012804D0002384F82030022038BD02205F
:101C600084F821000020A0632568286820F0010086
:101C700028602046FFF794FFE36A5BB1226813688F
:101C800043F00E0313602268136843F001031360EE
:101C90000020E3E72268136823F00403136022683E
:101CA000136843F00A031360EDE70220D6E790F8CB
:101CB0002130DBB2022B06D004238363002380F89B
:101CC0002030012070470268136823F00E03136070
:101CD0000268136823F001031360036CC16B0122D7
:101CE00002FA03F34B6080F82120002380F82030B3
:101CF0001846704708B590F82130DBB2022B03D0AC
:101D000004238363012008BD0268136823F00E03D7
:101D100013600268136823F0010313600368194A13
:101D2000934214D0143293421FD0143293421ED0E7
:101D3000143293421ED0143293421ED01432934276
:101D400002D04FF0807203E04FF4801200E00122D5
:101D50000D4B5A60012380F82130002380F8203099
:101D6000436B6BB198470020CDE71022F0E74FF4AA
:101D70008072EDE74FF48052EAE74FF48032E7E7F4
:101D80000020C0E7080002400000024038B5C36BE5
:101D90001A6804682568016C04238B40134235D00F
:101DA00015F0040F32D0236813F0200F03D12368FD
:101DB00023F0040323600368434A934214D014328F
:101DC000934218D01432934217D01432934217D052
:101DD0001432934217D01432934202D04FF08062F3
:101DE00003E04FF4800200E00422384B5A60C36ADB
:101DF00003B1984738BD4022F7E74FF48062F4E71B
:101E00004FF48042F1E74FF48022EEE702238B404B
:101E100013423CD015F0020F39D0236813F0200F85
:101E200006D1236823F00A032360012380F82130C0
:101E30000368254A934214D0143293421CD01432C2
:101E400093421BD0143293421BD0143293421BD0C6
:101E50001432934202D04FF0007203E04FF40012AC
:101E600000E00222194B5A60002380F82030836A78
:101E7000002BBFD09847BDE72022F3E74FF4007254
:101E8000F0E74FF40052EDE74FF40032EAE70823A1
:101E900003FA01F11142ADD015F0080FAAD0236862
:101EA00023F00E032360026CC16B012303FA02F2DC
:101EB0004A60836380F82130002380F82030036B70
:101EC000002B97D0984795E7080002400000024099
:101ED00070B582B00024A446A6E0804DAA4210D07E
:101EE00007D97F4DAA420CD005F58035AA4208D00B
:101EF00013E0A5F58015AA4203D005F57025AA4286
:101F000007D18A68002A58D0012A51D04361082499
:101F100003E0A5F58015AA42F3D0BEF1FF0F4ED81D
:101F20000646BEF1FF0F4CD84FEA8C0233680F25EE
:101F3000954023EA050304FA02F2134333604B6829
:101F400013F0805F6ED0674B9A6942F001029A618C
:101F50009B6903F001030193019B4FEA9C02951CCE
:101F6000614B53F825600CF003039D000F23AB4039
:101F700026EA03065D4B984229D003F58063984218
:101F800000F08E8003F58063984200F08B8003F5AB
:101F90008063984219D004231AE0CC68BDE7CC686E
:101FA0000434BAE7CC680834B7E7CC680C34B4E73B
:101FB00003610824B1E70024AFE70424ADE7061D60
:101FC000AFE7ACF108029200B0E7032300E0002382
:101FD000AB4033430232444D45F822304B6813F492
:101FE000801F61D0424A936843EA0E0393604B68B6
:101FF00013F4001F5ED03E4AD36843EA0E03D36059
:102000004B6813F4003F5BD0394A536843EA0E0330
:1020100053604B6813F4803F58D0354A136843EA45
:102020000E0313600CF1010C0A6832FA0CF353D062
:10203000012303FA0CF302EA030E33EA0202F1D1A0
:102040004A68122A3FF649AF122A3FF666AF01A549
:1020500055F822F0031F00089B1F0008A51F000869
:10206000B71F00081B1F00081B1F00081B1F0008CC
:102070001B1F00081B1F00081B1F00081B1F000858
:102080001B1F00081B1F00081B1F00081B1F000848
:102090001B1F00081B1F00089F1F0008AB1F000824
:1020A000012395E7022393E7114A936823EA0E037D
:1020B00093609CE70E4AD36823EA0E03D3609FE740
:1020C0000B4A536823EA0E035360A2E7084A1368D9
:1020D00023EA0E031360A5E702B070BD00002210D2
:1020E00000003110001002400000014000080140D3
:1020F000000401408368194201D00120704700208C
:1021000070470AB10161704709040161704700001E
:1021100082B0084B1B68084AA2FB03235B0A00FB42
:1021200003F3019300BF019B5A1E0192002BF9D1CA
:1021300002B0704700000020D34D6210002800F06C
:10214000F18170B582B00446036813F0010F2CD002
:10215000994B5B6803F00C03042B1DD0964B5B6816
:1021600003F00C03082B12D06368B3F5803F41D015
:10217000002B55D103F1804303F504331A6822F490
:1021800080321A601A6822F480221A6037E08A4B83
:102190005B6813F4803FE7D0874B1B6813F4003F64
:1021A00003D06368002B00F0BF81236813F0020F97
:1021B00075D0814B5B6813F00C0F5FD07E4B5B6872
:1021C00003F00C03082B54D02369002B00F08A8005
:1021D0007A4B01221A60FFF75DFC0546764B1B68BF
:1021E00013F0020F75D1FFF755FC401B0228F5D9FB
:1021F00003209EE1704A136843F4803313606368E0
:1022000043B3FFF747FC05466B4B1B6813F4003FD5
:10221000CBD1FFF73FFC401B6428F5D9032088E1B0
:10222000B3F5A02F09D0644B1A6822F480321A60EB
:102230001A6822F480221A60E1E703F18043A3F5D3
:102240003C331A6842F480221A601A6842F48032E1
:102250001A60D4E7FFF71EFC0546574B1B6813F4C2
:10226000003FA2D0FFF716FC401B6428F5D90320DD
:102270005FE1514B5B6813F4803FA5D14E4B1B6867
:1022800013F0020F03D02369012B40F04F814A4A1B
:10229000136823F0F803616943EAC10313602368FC
:1022A00013F0080F33D0A369002B5CD0434B0122FD
:1022B000C3F88024FFF7EEFB05463F4B5B6A13F043
:1022C000020F21D1FFF7E6FB401B0228F5D90320BE
:1022D0002FE1394A136823F0F803616943EAC10327
:1022E0001360DCE7354B00221A60FFF7D3FB05468D
:1022F000314B1B6813F0020FD1D0FFF7CBFB401B13
:102300000228F5D9032014E10120FFF701FF23681B
:1023100013F0040F00F09680274BDB6913F0805F09
:1023200034D1254BDA6942F08052DA61DB6903F07F
:1023300080530193019B0125214B1B6813F4807F7F
:1023400026D0E368012B3DD0002B53D103F180430D
:1023500003F504331A6A22F001021A621A6A22F0A3
:1023600004021A6233E0154B0022C3F88024FFF701
:1023700091FB0546104B5B6A13F0020FC7D0FFF7C5
:1023800089FB401B0228F5D90320D2E00025D3E7C2
:102390000B4A136843F480731360FFF77BFB064618
:1023A000074B1B6813F4807FCBD1FFF773FB801BB7
:1023B0006428F5D90320BCE000100240000042422E
:1023C000007000405F4A136A43F001031362E36840
:1023D00033B3FFF75FFB06465A4B1B6A13F0020F3D
:1023E0002FD1FFF757FB801B41F288339842F3D976
:1023F00003209EE0052B09D0524B1A6A22F00102FD
:102400001A621A6A22F004021A62E0E74D4B1A6A55
:1024100042F004021A621A6A42F001021A62D6E716
:10242000FFF738FB0646474B1B6A13F0020F08D034
:10243000FFF730FB801B41F288339842F3D9032029
:1024400077E0E5B9E369002B72D03E4A526802F0AA
:102450000C02082A56D0022B17D03B4B00221A66DA
:10246000FFF718FB0446374B1B6813F0007F47D07B
:10247000FFF710FB001B0228F5D9032059E0314A71
:10248000D36923F08053D361DCE72F4B00221A6617
:10249000FFF700FB05462B4B1B6813F0007F06D0AF
:1024A000FFF7F8FA401B0228F5D9032041E0236A20
:1024B000B3F5803F1AD023494B6823F47413226A82
:1024C000606A024313434B601F4B01221A66FFF7F9
:1024D000E1FA04461B4B1B6813F0007F0ED1FFF797
:1024E000D9FA001B0228F5D9032022E0154A5368C7
:1024F00023F40033A1680B435360DCE7002018E0AD
:10250000002016E0012B16D00E4B5B6803F48031DF
:10251000226A914211D103F47013626A93420ED180
:10252000002006E001207047012002E0012000E0C9
:10253000002002B070BD0120FBE70120F9E7012077
:10254000F7E700BF00100240000042420F4B5B68FB
:1025500003F00C02082A01D00D487047C3F38342F0
:102560000C49885C13F4803F0BD0084B5B68C3F3C5
:102570004043094AD35C064A02FB00F0B0FBF3F08B
:102580007047064B03FB00F0704700BF001002408D
:1025900000127A0048CF000858CF000800093D001B
:1025A000002800F0A08070B50D460446524B1B6811
:1025B00003F007038B420BD24F4A136823F0070343
:1025C0000B431360136803F007038B4240F08D80C8
:1025D000236813F0020F17D013F0040F04D0474AFA
:1025E000536843F4E0635360236813F0080F04D08A
:1025F000424A536843F460535360404A536823F09F
:10260000F003A1680B435360236813F0010F31D02E
:102610006368012B20D0022B25D0384A126812F0B3
:10262000020F64D035494A6822F0030213434B601D
:10263000FFF730FA0646314B5B6803F00C03626823
:10264000B3EB820F16D0FFF725FA801B41F28833D7
:102650009842F0D9032045E0284A126812F4003F5E
:10266000E0D101203EE0254A126812F0007FD9D166
:10267000012037E0204B1B6803F00703AB420AD967
:102680001D4A136823F007032B431360136803F0FC
:102690000703AB422DD1236813F0040F06D0174A6D
:1026A000536823F4E063E1680B435360236813F03D
:1026B000080F07D0114A536823F46053216943EA95
:1026C000C1035360FFF742FF0C4B5B68C3F3031376
:1026D0000B4AD35CD8400B4B18600B4B1868FFF7C4
:1026E00095F9002070BD012070470120FAE7012014
:1026F000F8E70120F6E700BF00200240001002408A
:1027000030CF00080000002008000020014B1868AE
:10271000704700BF0000002008B5FFF7F7FF044B2B
:102720005B68C3F30223034AD35CD84008BD00BFF3
:102730000010024040CF000808B5FFF7E7FF044B48
:102740005B68C3F3C223034AD35CD84008BD00BF13
:102750000010024040CF00082DE9F04782B0054646
:10276000884617461E46FFF795F90A9B1B1A03EB8E
:102770000609FFF78FF982462B4B1B68C3F3CB3357
:1027800009FB03F301932B689C6838EA04030CBF30
:102790004FF0010C4FF0000CBC4540D0B6F1FF3FAC
:1027A000F1D0FFF777F9A0EB0A0048450AD2B9F15A
:1027B000000F07D0019A02B14A46019B013B0193E9
:1027C0009146E0E72A68536823F0E00353606B68A2
:1027D000B3F5827F0BD0AB6AB3F5005F14D0012351
:1027E00085F85130002385F85030032018E0AB689D
:1027F000B3F5004F02D0B3F5806FECD12A681368AF
:1028000023F040031360E6E72A68136823F40053BB
:1028100013602A68136843F400531360DFE7002055
:1028200002B0BDE8F08700BF0000002010B582B004
:1028300004460B46009200228021FFF78DFF08B965
:1028400002B010BD636D43F0200363650320F7E71A
:10285000002856D010B50446436A33B94368B3F52F
:10286000827F05D00023C36102E00023036143613E
:102870000023A36294F85130002B3CD0022384F84B
:1028800051302268136823F040031360636803F437
:102890008273A26802F404421343E26802F4006205
:1028A0001343226902F002021343626902F001023B
:1028B0001343A26902F400721343E26902F0380282
:1028C0001343226A02F080021343A26A02F4005208
:1028D000216813430B60638B226803F00403536089
:1028E0002268D36923F40063D3610020606501236B
:1028F00084F8513010BD84F850302046FEF710FDAA
:10290000BCE701207047000038B590F85030012B2B
:102910005ED00446012380F8503090F85150EDB25B
:102920009D424FD100294ED0002A4CD0032380F87D
:1029300051300023436501638286C286836343640A
:1029400003648387C3878368B3F5004F2AD0A36CE1
:10295000204ADA62A36C204A9A62A36C1F4A1A6367
:10296000A36C00225A632268E38E9BB20C32216B67
:10297000A06CFFF761F90146F8B923681A6812F0F4
:10298000400F03D11A6842F040021A60226853686F
:1029900043F0200353602268536843F002035360FE
:1029A0000D4610E00268136823F0400313600268CC
:1029B000136843F480431360C9E7636D43F0100369
:1029C000636500E00225002384F85030284638BDB6
:1029D0000225FBE7E5290008132A0008F129000871
:1029E0007047704708B5406AFFF7FBFF08BD7047A6
:1029F00008B5406A0268536823F003035360436DCF
:102A000043F010034365012380F85130FFF7EFFFD7
:102A100008BD30B583B00546446AFFF73BF82B6824
:102A20001B6813F0200F23D1024621684B6823F066
:102A300020034B6021684B6823F002034B60642144
:102A40002046FFF7F3FE18B1636D43F02003636582
:102A5000A36833B901932368DA6801929B680193F4
:102A6000019B0023E386012384F85130636D23B971
:102A70002046FFF7B5FF03B030BD2046FFF7B7FF94
:102A8000F9E790F85100704710B4036A046A24F023
:102A900001040462846924F0F00C4CEA021223F071
:102AA0000A030B438261036210BC704710B4036ACF
:102AB000046A24F010040462846924F4704C4CEA23
:102AC000023223F0A00343EA01138261036210BCC7
:102AD0007047836823F070030B4343F00703836060
:102AE0007047000090F83D30DBB2012B27D1022364
:102AF00080F83D300268D36843F00103D360036877
:102B0000114A934210D0B3F1804F0DD0A2F5943208
:102B1000934209D002F58062934205D01A6842F0D0
:102B200001021A60002070479A6802F00702062A24
:102B300007D01A6842F001021A6000207047012095
:102B400070470020704700BF002C0140704770475D
:102B50007047704710B5044603681A6912F0020FF7
:102B600011D0DA6812F0020F0DD06FF002021A6174
:102B70000123037703689B6913F0030F70D0FFF7FD
:102B8000E6FF0023237723681A6912F0040F12D09E
:102B9000DA6812F0040F0ED06FF004021A610223FB
:102BA000237723689B6913F4407F5FD02046FFF7AB
:102BB000CEFF0023237723681A6912F0080F12D082
:102BC000DA6812F0080F0ED06FF008021A610423C1
:102BD00023772368DB6913F0030F4ED02046FFF7FD
:102BE000B6FF0023237723681A6912F0100F12D062
:102BF000DA6812F0100F0ED06FF010021A6108237D
:102C000023772368DB6913F4407F3DD02046FFF72C
:102C10009EFF0023237723681A6912F0010F03D067
:102C2000DA6812F0010F36D123681A6912F0800FAA
:102C300003D0DA6812F0800F34D123681A6912F0D9
:102C4000400F03D0DA6812F0400F32D123681A69BE
:102C500012F0200F03D0DA6812F0200F30D110BD2F
:102C6000FFF774FF2046FFF773FF8AE72046FFF760
:102C70006DFF2046FFF76CFF9BE72046FFF766FFDE
:102C80002046FFF765FFACE72046FFF75FFF2046D1
:102C9000FFF75EFFBDE76FF001021A612046FEF705
:102CA00011FCC1E76FF080021A61204600F039F98B
:102CB000C3E76FF040021A612046FFF74AFFC5E7FD
:102CC0006FF020021A61204600F02AF9C7E70000E1
:102CD00003681B4A90420AD0B0F1804F07D0A2F59A
:102CE0009432904203D002F58062904203D123F0E7
:102CF00070034A681343124A90420AD0B0F1804FE1
:102D000007D0A2F59432904203D002F5806290423F
:102D100003D123F44073CA68134323F080034A6944
:102D2000134303608B68C3620B688362044B984251
:102D300002D00123436170470B690363F9E700BFC9
:102D4000002C014040B310B5044690F83D30F3B17B
:102D5000022384F83D30214651F8040BFFF7B8FFF9
:102D6000012384F8463084F83E3084F83F3084F8FC
:102D7000403084F8413084F8423084F8433084F89D
:102D8000443084F8453084F83D30002010BD80F890
:102D90003C30FEF7F5FCDBE70120704710B4846897
:102DA00024F47F4C42EA03220A4342EA0C02826086
:102DB00010BC704790F83C30012B78D010B5044619
:102DC000012380F83C30022380F83D30026893688C
:102DD00023F47F4323F0770393600B68602B4CD080
:102DE00029D8402B54D00CD9502B22D1CA6849681D
:102DF0000068FFF749FE50212068FFF76AFE0020B7
:102E000005E0202B0DD009D9302B0AD00120012359
:102E100084F83D30002384F83C3010BD0BB1102BFA
:102E200005D119462068FFF754FE0020EFE7012086
:102E3000EDE70120EBE7B3F5805F34D0B3F5005F39
:102E40000CD1CB684A6889680068FFF7A7FF226841
:102E5000936843F4804393600020D8E7702B24D11B
:102E6000CB684A6889680068FFF798FF2268936812
:102E700043F0770393600020C9E7CA684968006897
:102E8000FFF714FE60212068FFF723FE0020BEE755
:102E9000CA6849680068FFF7F7FD40212068FFF71E
:102EA00018FE0020B3E70020B1E70120AFE70220C1
:102EB0007047000090F83C30012B2CD010B4012357
:102EC00080F83C30022380F83D3003685A689C68E3
:102ED00022F0700C0A6842EA0C025A6003680F4A3A
:102EE00093420AD0B3F1804F07D0A2F594329342B7
:102EF00003D002F58062934204D124F080044A6832
:102F000014439C60012380F83D30002380F83C305E
:102F1000184610BC70470220704700BF002C0140CB
:102F200070477047026802F10C0353E8003F23F03A
:102F3000C0030C3242E800310029F3D1202380F88D
:102F400041307047026802F10C0353E8003F23F45C
:102F500090730C3242E800310029F3D1026802F18B
:102F6000140353E8003F23F00103143242E8003118
:102F70000029F3D1036B012B05D0202380F84230C8
:102F8000002303637047026802F10C0353E8003F1B
:102F900023F010030C3242E800310029F3D1ECE7B2
:102FA00090F84130DBB2212B01D0022070478368BA
:102FB000B3F5805F17D0036A5A1C02621A7803685F
:102FC0005A60C38C9BB2013B9BB2C3844BB902686D
:102FD000D36823F08003D3600268D36843F04003D2
:102FE000D360002070470369002BE4D1036A1B887B
:102FF0000268C3F308035360036A02330362E0E725
:1030000010B504460268136923F44053C1680B43AA
:10301000136183680269134342691A430168CB68EC
:1030200023F4B05323F00C031343CB6002685369BD
:1030300023F4407381690B4353610268134B9A4236
:1030400020D0FFF769FB024602EB820202EB82020C
:1030500063689B00B2FBF3F20D48A0FB0231490903
:10306000642303FB11231B013233A0FB03235B0901
:1030700003F0F00202EB011203F00F032168134486
:103080008B6010BDFFF758FB0246DDE700380140BA
:103090001F85EB512DE9F84305460F461646994624
:1030A000DDF820802C68246837EA04030CBF4FF059
:1030B000010C4FF0000CB4452DD1B8F1FF3FF1D019
:1030C000B8F1000F05D0FEF7E5FCA0EB0900404584
:1030D000E8D92A6802F10C0353E8003F23F4D073C7
:1030E0000C3242E800310029F3D12A6802F11403BE
:1030F00053E8003F23F00103143242E80031002975
:10310000F3D1202385F8413085F84230002385F83B
:103110004030032000E00020BDE8F88360B310B524
:10312000044690F8413013B3242384F841302268D8
:10313000D36823F40053D3602046FFF761FF226871
:10314000136923F4904313612268536923F02A031F
:1031500053612268D36843F40053D3600020606455
:10316000202384F8413084F84230606310BD80F839
:103170004030FEF781FBD7E7012070472DE9F04191
:1031800082B01E4690F84130DBB2202B4BD1044672
:103190000D46904600294AD00AB9012044E0002398
:1031A0004364212380F84130FEF774FC0746A4F8FD
:1031B0002480A4F82680A368B3F5805F02D04FF086
:1031C00000080FE02369FBB14FF000080AE038F86F
:1031D000023B2268C3F308035360E28C92B2013AC7
:1031E00092B2E284E38C9BB28BB100963B46002204
:1031F00080212046FFF74EFFD8B9002DE7D015F803
:10320000012B23685A60E8E7A8460025EAE7009604
:103210003B46002240212046FFF73CFF58B92023BF
:1032200084F8413000E0022002B0BDE8F0810120C6
:10323000FAE70320F8E70320F6E72DE9F04182B032
:103240001E4690F84230DBB2202B53D104460D4687
:103250009046002952D00AB901204CE00023436473
:10326000222280F842200363FEF714FC0746A4F8EC
:103270002C80A4F82E80A368B3F5805F02D04FF0B5
:10328000000817E0236913B14FF0000812E0A846C8
:1032900000250FE023685B68C3F3080328F8023BAE
:1032A00003E023685B682B700135E28D92B2013A2E
:1032B00092B2E285E38D9BB2BBB100963B46002201
:1032C00020212046FFF7E6FED0B9002DE2D0A3680A
:1032D000B3F5805FE5D013B92369002BE1D02368F3
:1032E0005B6803F07F032B70DEE7202384F8423015
:1032F000002000E0022002B0BDE8F0810120FAE7E2
:103300000320F8E7704708B50168CA6822F0400258
:10331000CA60202280F84120FFF7F4FF002008BD9A
:103320007047704710B5446A23685A6994F8413071
:10333000DBB2212B10D023685A6902F0400294F8C6
:103340004230DBB2222B11D0636C43F01003636474
:103350002046FFF7E6FF10BD02F08002002AEAD007
:103360000023E3842046FFF7DDFDE4E7002AEBD0ED
:103370000023E3852046FFF7E5FDE5E708B5406A51
:103380000023C385C384FFF7CCFF08BD704790F8C6
:103390004230DBB2222B69D18368B3F5805F4FD016
:1033A000826AB3F5805F04D0002B56D10369002BED
:1033B00053D103685B681370836A01338362C38DE2
:1033C0009BB2013B9BB2C385002B51D100B583B0AA
:1033D0000268D36823F02003D3600268D36823F423
:1033E0008073D3600268536923F001035361202383
:1033F00080F8423000234363036B012B33D1002359
:103400000363026802F10C0353E8003F23F010034A
:103410000C3242E800310029F3D103681A6812F037
:10342000100F06D0002201921A6801925B68019386
:10343000019B818DFFF7AAFF002003B05DF804FB1C
:103440000269002AACD1826A03685B68C3F308038F
:103450001380836A02338362B1E703685B6803F019
:103460007F031370A8E7FEF79DF8E5E70220704799
:103470000020704730B583B0044602681368D068F6
:10348000516913F00F0505D113F0200F02D010F091
:10349000200F19D12DB111F0010119D110F4907F35
:1034A00016D1216B01297DD013F0800F03D010F0CD
:1034B000800F40F0188113F0400F03D010F0400F40
:1034C00040F0158103B030BD2046FFF760FFF9E7FB
:1034D00013F0010F06D010F4807F03D0626C42F02D
:1034E0000102626413F0040F04D019B1626C42F05F
:1034F0000202626413F0020F04D019B1626C42F050
:103500000402626413F0080F07D010F0200F00D1FE
:1035100019B1626C42F008026264626C002AD1D078
:1035200013F0200F02D010F0200F29D123685B691F
:1035300003F04003626C12F0080F00D163B3204621
:10354000FFF700FD23685B6913F0400F20D022686D
:1035500002F1140353E8003F23F04003143242E821
:1035600000310029F3D1E36B73B1634A5A63E06B16
:10357000FEF7C0FB0028A5D0E06B436B9847A1E79E
:103580002046FFF704FFD1E72046FFF7CAFE99E780
:103590002046FFF7C6FE95E72046FFF7C2FE002350
:1035A00063648FE713F0100F3FF47EAF10F0100F3D
:1035B0003FF47AAF0023019313680193536801939A
:1035C000019B536913F0400F51D0E26B13685B68A5
:1035D0009BB2002B3FF476AFA18D99427FF672AF7C
:1035E000E3859369202B37D0226802F10C0353E85E
:1035F000003F23F480730C3242E800310029F3D1FC
:10360000226802F1140353E8003F23F0010314324F
:1036100042E800310029F3D1226802F1140353E893
:10362000003F23F04003143242E800310029F3D177
:10363000202384F8423000232363226802F10C0324
:1036400053E8003F23F010030C3242E80031002918
:10365000F3D1E06BFEF72BFB02236363A18DE38DB7
:103660009BB2C91A89B22046FFF790FE2AE7A18DC6
:10367000E38D9BB2C91A89B2E38D9BB2002B3FF454
:1036800021AF00293FF41EAF226802F10C0353E87A
:10369000003F23F490730C3242E800300028F3D14D
:1036A000226802F1140353E8003F23F001031432AF
:1036B00042E800300028F3D1202384F84230002370
:1036C0002363226802F10C0353E8003F23F0100348
:1036D0000C3242E800300028F3D102236363204615
:1036E000FFF754FEEEE62046FFF75AFCEAE62046D6
:1036F000FFF709FEE6E600BF7D33000808B5406A23
:1037000001234363036B012B02D0FFF709FE08BDC1
:10371000818D4908FFF73AFEF9E708B50346406A8C
:103720001B681B6813F0200F2BD10023C385026890
:1037300002F10C0353E8003F23F480730C3242E89B
:1037400000310029F3D1026802F1140353E8003F6D
:1037500023F00103143242E800310029F3D102685A
:1037600002F1140353E8003F23F04003143242E80F
:1037700000310029F3D1202380F84230036B012B64
:1037800007D000234363036B012B0FD0FDF70AFF23
:1037900008BD026802F10C0353E8003F23F0100358
:1037A0000C3242E800310029F3D1EAE7818DFFF7BE
:1037B000EDFDEDE730B583B00446134681628285A6
:1037C00000254564222280F84220C26B1F48906287
:1037D000E26B1F48D062E26B1E481063E26B5563D8
:1037E00020680A46011DE06BFEF726FA0195236862
:1037F0001A6801925B680193019B23695BB122689F
:1038000002F10C0353E8003F43F480730C3242E8AA
:1038100000310029F3D1226802F1140353E8003F7C
:1038200043F00103143242E800310029F3D1226849
:1038300002F1140353E8003F43F04003143242E81E
:1038400000310029F3D1002003B030BD1B37000840
:10385000FD3600082533000808B590F84230DBB289
:10386000202B08D149B10AB9012008BD0023036308
:10387000FFF7A0FFF9E70220F7E70120F5E784282A
:1038800001D0033070470020704708B500F0CEFC2F
:10389000002008BD2DE9F04387B004460F46456976
:1038A000BDB18669AEB1D0F80480D0F80090B0F90F
:1038B0000800FFF7E4FF0296019500903B4622695D
:1038C0004946404600F044FC0590059807B0BDE825
:1038D000F08365682668D4F81080B4F90800FFF713
:1038E000CEFF05AB019300903B461FFA88F23146AC
:1038F000284600F067FC0128E7D00020E6E708B57D
:1039000000B9012000F0DCFD002008BD00F1080333
:1039100043604FF0FF328260C360036100230360A5
:10392000704700230361704743684B609A688A6060
:10393000516099600861036801330360704730B4D7
:103940000D68B5F1FF3F11D000F108031C465B681C
:103950001A68AA42FAD963684B6099608C6061600A
:10396000086103680133036030BC70470469F2E703
:103970000369416882688A60416851605A6882427E
:1039800006D0002202611A68013A1A60186870476E
:1039900082685A60F5E7000082B0002301930D4B66
:1039A0001B68B3F1FF3F08D04FF0500383F3118839
:1039B000BFF36F8FBFF34F8FFEE74FF0500383F3DA
:1039C0001188BFF36F8FBFF34F8F019B002BFCD08B
:1039D00002B070470C00002006480068006880F3C1
:1039E000088862B661B6BFF34F8FBFF36F8F00DFF9
:1039F00000BF000008ED00E04FF0807340F8043C89
:103A000021F0010140F8081C034B40F80C3C40F841
:103A1000202C4038704700BF993900080000000092
:103A2000074B19680868B0E8F00F80F30988BFF306
:103A30006F8F4FF0000080F311884EF00D0E70472D
:103A40005C1B00204FF0500383F31188BFF36F8F8E
:103A5000BFF34F8F0B4A136801331360012B00D063
:103A600070474FF0E023D3F8043D13F0FF0FF7D079
:103A70004FF0500383F31188BFF36F8FBFF34F8F65
:103A8000FEE700BF0C000020094B1B6843B94FF054
:103A9000500383F31188BFF36F8FBFF34F8FFEE79F
:103AA000013B034A13600BB983F31188704700BFD1
:103AB0000C000020000000000000000000000000DA
:103AC000EFF30980BFF36F8F0D4B1A6820E9F00FF9
:103AD00010602DE908404FF0500080F3118800F08D
:103AE00015FD4FF0000080F31188BDE8084019680B
:103AF0000868B0E8F00F80F30988BFF36F8F704754
:103B00005C1B002008B54FF0500383F31188BFF30E
:103B10006F8FBFF34F8F00F0CBFB28B14FF0E02346
:103B20004FF08052C3F8042D002383F3118808BDA1
:103B30004FF0E022002313619361054B1B68054998
:103B4000A1FB03139B09013B5361072313617047DA
:103B500000000020D34D621010B582B02A4B1A78B5
:103B6000D2B20192FF221A701B78DBB28DF80330BB
:103B70009DF8033003F05003244A1370244B0722AE
:103B80001A6009E0224A1368013B13609DF8033074
:103B90005B00DBB28DF803309DF8033013F0800F2B
:103BA000F0D11B4B1B68032B08D04FF0500383F35D
:103BB0001188BFF36F8FBFF34F8FFEE71B02144ACC
:103BC000136003F4E0631360019BDBB20E4A1370D1
:103BD0004FF0E023D3F8202D42F47002C3F8202DDB
:103BE000D3F8202D42F07042C3F8202DFFF7A0FF3C
:103BF0000024084B1C60FFF7EFFE00F087FCFFF786
:103C0000CBFE204602B010BD00E400E03C0F0020D7
:103C1000400F00200C000020124A12F0070F1ED0A7
:103C2000D11D21F00701C1F5406313440A460E4837
:103C30000260002141601344083B23F007030B4856
:103C4000036059601960991A51601360084B19603C
:103C5000084B1960084B4FF000421A6070474FF450
:103C60004063E4E7480F0020541B0020440F00206D
:103C7000501B00204C1B0020481B0020154B1A46EF
:103C80001B688342FBD3516802EB010C844509D0C9
:103C9000416800EB010C634509D00360904218D0E5
:103CA000106070474068014451601046F0E710B45E
:103CB000094C2468A3420AD05B6819444160136828
:103CC0001B680360904200D0106010BC7047046015
:103CD000F8E77047541B0020440F002070B50546DC
:103CE00000F0DEFA344B1B68A3B1344B1B681D4255
:103CF0004AD135B1083515F0070F02D025F0070578
:103D00000835002D42D02E4B1B68AB424DD32D4AB7
:103D1000146804E0FFF780FFE7E722461C4663686B
:103D2000AB4202D22368002BF7D1234B1B68A3427E
:103D30003DD0166808362368136063685B1B102B40
:103D400010D9601910F0070F08D04FF0500383F31B
:103D50001188BFF36F8FBFF34F8FFEE7436065603D
:103D6000FFF78CFF626816490B689B1A0B601649B7
:103D700009688B4201D214490B60104B1B68134336
:103D800063600023236002E0002600E0002600F0CC
:103D90001BFB16F0070F0CD04FF0500383F3118874
:103DA000BFF36F8FBFF34F8FFEE70026EFE70026CC
:103DB000EDE7304670BD00BF440F0020481B0020D7
:103DC0004C1B0020541B0020501B002080B338B532
:103DD0000446A0F1080550F8043C164A1268134244
:103DE00008D14FF0500383F31188BFF36F8FBFF3F7
:103DF0004F8FFEE750F8081C41B14FF0500383F39A
:103E00001188BFF36F8FBFF34F8FFEE723EA0203E2
:103E100040F8043C00F044FA54F8041C064A1368C5
:103E20000B4413602846FFF729FF00F0CDFA38BD98
:103E3000704700BF481B00204C1B0020084B1B682C
:103E40001B6823B9074B4FF0FF321A607047044BD1
:103E50001B68DB68DB685A68024B1A60704700BF5A
:103E6000601B0020381C00202DE9F04707469846CB
:103E7000089DDDF824900A9C266B02F18042013AED
:103E800006EB820626F007064FF0000CBCF10F0F80
:103E90000BD811F80C2004EB0C0383F8342011F834
:103EA0000C3013B10CF1010CF0E7002384F843301F
:103EB000062D00D90625E56265644FF0000AC4F8B6
:103EC00048A0201DFFF72DFD04F11800FFF729FD84
:103ED0002461C5F10705A5616462C4F84CA084F8AB
:103EE00050A0424639463046FFF786FD2060B9F1C2
:103EF000000F01D0C9F80040BDE8F08738B50024B4
:103F000007E004EB840293000E481844FFF7FEFC20
:103F10000134062CF5D90C4D2846FFF7F7FC0B4C65
:103F20002046FFF7F3FC0A48FFF7F0FC0948FFF7CB
:103F3000EDFC0948FFF7EAFC084B1D60084B1C60CC
:103F400038BD00BF681B00200C1C0020201C002076
:103F5000401C00206C1C0020581C0020601B00200E
:103F6000641B002010B50446FFF76CFD214A13685E
:103F700001331360204B1B685BB1204B1B686BB98E
:103F80001D4B1B68DA6AE36A9A4207D81A4B1C6019
:103F900004E0194B1C601368012B28D0184A1368E1
:103FA00001331360E06A01238340164A11680B4312
:103FB000136000EB8000211D134B03EB8000FFF723
:103FC000B3FCFFF761FD0D4B1B687BB10A4B1B680F
:103FD000DA6AE36A9A4209D24FF0E0234FF0805246
:103FE000C3F8042DBFF34F8FBFF36F8F10BDFFF7E2
:103FF00085FFD3E7F41B00205C1B0020541C00202D
:10400000041C0020081C0020681B002010B504467A
:1040100090F8513063B1012B11D0022B0ED04FF02C
:10402000500383F31188BFF36F8FBFF34F8FFEE709
:10403000006BFFF7CBFE2046FFF7C8FE10BDFFF771
:10404000C5FEFBE70F4B1B68D3B110B5FFF7FAFCB9
:104050000D4BDB68DC68201DFFF78AFC0B4A1368F8
:10406000013B1360074A1368013B1360FFF70CFD27
:104070002046FFF7CBFF034B1B68002BE6D110BD9A
:10408000704700BFF81B00206C1C0020F41B0020B0
:1040900008B5FFF7D7FF074B1B68012BF9D94FF085
:1040A000E0234FF08052C3F8042DBFF34F8FBFF3CE
:1040B0006F8FEEE7681B002070B504460D461D4B60
:1040C0001E681D4B18680430FFF752FC50B91A4B9C
:1040D0001B68DA6A012303FA02F218490B6823EA23
:1040E00002030B60B4F1FF3F0DD03444124B1B6848
:1040F0005C60A64210D9124B18680F4B1968043146
:10410000FFF71DFC70BD002DEFD00B4B196804317B
:104110000C48FFF709FCF5E70B4B1868064B1968CC
:104120000431FFF70CFC094B1B68A342EAD9074B8B
:104130001C60E7E7801C00205C1B0020081C00209E
:10414000641B0020581C0020601B0020381C00202D
:1041500030B587B00B9C7CB10C9DB5B1542504954E
:10416000049D542D1AD04FF0500383F31188BFF3F0
:104170006F8FBFF34F8FFEE74FF0500383F311882B
:10418000BFF36F8FBFF34F8FFEE74FF0500383F302
:104190001188BFF36F8FBFF34F8FFEE70C9D2C6329
:1041A000022485F8514000240394029505AC019443
:1041B0000A9C0094FFF758FE0C98FFF7D3FE059871
:1041C00007B030BD2DE9F04385B007468846144658
:1041D0001E469000FFF782FD00B381465420FFF792
:1041E0007DFD0546B0B1C0F83090E5B1002385F8FB
:1041F0005130039302950D9B01930C9B0093334622
:10420000224641463846FFF72FFE2846FFF7AAFE12
:10421000012005E04846FFF7D9FDE6E74FF0FF3003
:1042200005B0BDE8F0834FF0FF30F9E710B588B076
:1042300000240594069407AA06A905A8FCF7E8FE41
:10424000059B0293069B019300942346079A0E490F
:104250000E48FFF77DFF0E4B186090B14FF05003F2
:1042600083F31188BFF36F8FBFF34F8F094B4FF06C
:10427000FF321A60084B01221A60084B1C60FFF7DE
:104280006BFC08B010BD00BF5CCF00089140000877
:10429000341C0020381C0020541C0020801C0020EE
:1042A000024A136801331360704700BF001C0020EE
:1042B000F8B53A4B1B68002B64D1394B1D680135AA
:1042C0001D60C5B9374B1B681B6843B14FF05003E5
:1042D00083F31188BFF36F8FBFF34F8FFEE7314A2F
:1042E0001168314B186810601960304A1368013347
:1042F0001360FFF7A3FD2E4B1B68AB4238D9002794
:104300002C4B1B68DB6A03EB83039A002A4B9B58F8
:10431000012B3CD901273AE00127224B1B681B687F
:1043200043B3204B1B68DB68DC6863689D4226D37F
:10433000261D3046FFF71CFBA36A1BB104F11800D1
:10434000FFF716FBE36A01229A401C490868024302
:104350000A6003EB83039A00314617481044FFF7C5
:10436000E3FAE26A134B1B68DB6A9A42D4D2D4E7C1
:104370000027D2E70E4B4FF0FF321A60C0E70C4A1D
:104380001360BDE70E4A13680133136000270D4B1D
:104390001B6803B101273846F8BD00BF001C002090
:1043A000801C0020601B0020641B00203C1C00209F
:1043B000381C00205C1B0020681B0020081C00200B
:1043C000FC1B0020841C002038B5354B1B6843B90A
:1043D0004FF0500383F31188BFF36F8FBFF34F8FFC
:1043E000FEE7FFF72FFB2E4B1A68013A1A601B6895
:1043F000002B4FD12B4B1B680BB900244BE0002442
:10440000294B1B681BB3284BDB68DC6804F11800E0
:10441000FFF7AEFA251D2846FFF7AAFAE06A012346
:104420008340224A11680B43136000EB8000294649
:104430001F4B03EB8000FFF777FAE26A1D4B1B6806
:10444000DB6A9A42DCD31C4B01221A60D8E70CB11C
:10445000FFF7F4FC194B1C6884B9174B1C68D4B1E6
:104460004FF0E0234FF08052C3F8042DBFF34F8F7D
:10447000BFF36F8F01240EE0013C07D0FFF718FF58
:104480000028F9D00C4B01221A60F5E70B4B0022F3
:104490001A60E2E70024FFF7F7FA204638BD00BFB4
:1044A000001C0020F41B0020401C0020081C0020E1
:1044B000681B00205C1B0020841C0020FC1B0020CB
:1044C00010B5A8B10446104B1B6843B14FF0500320
:1044D00083F31188BFF36F8FBFF34F8FFEE7FFF7B2
:1044E000DFFE00212046FFF7E7FDFFF76DFF48B92B
:1044F0004FF0E0234FF08052C3F8042DBFF34F8FED
:10450000BFF36F8F10BD00BF001C0020204B1B6845
:104510001BB1204B01221A6070471E4B00221A600B
:104520001D4B1B68B3FA83F3DBB2C3F11F0303EB2C
:1045300083018A0019498A5842B94FF0500383F326
:104540001188BFF36F8FBFF34F8FFEE7134903EB63
:10455000830082000A4450684068506003EB830C7B
:104560004FEA8C0208321144884209D003EB8303DE
:104570009A000A4B13445B68DA68094B1A6070476B
:10458000406862469100054A0A445060EEE700BF69
:10459000001C0020841C0020081C0020681B002038
:1045A0005C1B0020054B1B6833B1054B1B680BB12E
:1045B000002070470220704701207047541C0020E3
:1045C000001C002010B44FF0E0231C6959699A695F
:1045D00000EBC000C0005861002098610520186100
:1045E0004FF0E0231B6913F4803FF9D04FF0E02334
:1045F0001C6159619A6110BC704710B504E04FF41A
:104600007A70FFF7DFFF2046441E0028F7D110BD67
:1046100084B0F8B506AC84E80F000C9E9DF83470A9
:104620001D4619460D4802F03FFB0024314628463E
:1046300002F018FE60B90120FDF732FA0134A4B28D
:104640004FF47A7307FB03F39C42EFDD002000E098
:104650000320BDE8F84004B0704700BF64CF0008F5
:1046600084B030B585B008AC84E80F000E9D2846B4
:1046700002F06EFC40F2E73382B2294654F8100B88
:10468000FEF77CFD9DF840304FF47A7003FB00F09C
:10469000FDF706FA012303930F9B029394E80300AE
:1046A0008DE8030008AB0FCBFFF7B2FF032800D063
:1046B000062005B0BDE8304004B0704784B000B5B6
:1046C00087B00DF1200C8CE80F00124A012108463A
:1046D00000F0C0FE03E04FF47A70FDF7E1F901232A
:1046E00004930D4B03930D4B02930CAB93E8030023
:1046F0008DE8030008AB0FCBFFF7B2FF0328EAD128
:10470000074800F05EFF032007B05DF804EB04B03B
:10471000704700BF98CF0008ACCF0008B0CF0008AA
:10472000440C002001460020034606E0303A00EB2E
:10473000800002EB400001339BB2CA5C002AF5D135
:104740007047000000B587B07A4A0121042000F0CC
:1047500081FE06E0784800F034FF4FF47A70FDF7F0
:104760009FF9754B01220492744A0392744A029293
:1047700003F1100292E803008DE803000FCBFFF76E
:104780006FFF0328E6D16C4800F01BFF6D4A012142
:10479000042000F05FFE06E0674800F012FF4FF4CF
:1047A0007A70FDF77DF9644B01220492634A03920B
:1047B000654A029203F1100292E803008DE80300BB
:1047C0000FCBFFF74DFF0328E6D15B4800F0F9FE61
:1047D0005E4A0121042000F03DFE06E0564800F04C
:1047E000F0FE4FF47A70FDF75BF9534B012204920F
:1047F000524A0392564A029203F1100292E80300D1
:104800008DE803000FCBFFF72BFF0328E6D14A48C2
:1048100000F0D7FE4F4A0121042000F01BFE06E005
:10482000454800F0CEFE4FF47A70FDF739F9424B5F
:1048300003220492414A0392474A029203F1100272
:1048400092E803008DE803000FCBFFF709FF032870
:10485000E6D1394800F0B5FE404A0121042000F0BD
:10486000F9FD06E0344800F0ACFE4FF47A70FDF735
:1048700017F9314B01220492304A0392384A0292CE
:1048800003F1100292E803008DE803000FCBFFF75D
:10489000E7FE0328E6D1284800F093FE314A0121C3
:1048A000042000F0D7FD06E0234800F08AFE4FF414
:1048B0007A70FDF7F5F8204B032204921F4A039209
:1048C000294A029203F1100292E803008DE80300E6
:1048D0000FCBFFF7C5FE0328E6D1174800F071FEA5
:1048E000224A0121042000F0B5FD06E0124800F044
:1048F00068FE4FF47A70FDF7D3F80F4B0222049252
:104900000E4A03921A4A029203F1100292E803003F
:104910008DE803000FCBFFF7A3FE0328E6D106487E
:1049200000F04FFE134A0121042000F093FD07B070
:104930005DF804FBF8CF0008440C0020ACCF000861
:104940000CD0000814D0000828D0000838D0000887
:104950004CD0000860D0000874D0000880D0000857
:1049600094D00008C0D00008D4D0000878D1000846
:104970008CD10008D8D10008F8B50E461546C46899
:104980001649204602F06EFC10B31549204602F08D
:1049900069FC0446022301E00133DBB29E46C3F109
:1049A000000C14F80CC0BCF12C0FF5D1023BCEF179
:1049B000010020440022C254FFF7B4FE07462246FD
:1049C0000146084802F070F934602F600320F8BDFA
:1049D000054802F0CBF90520F9E700BFE0D3000855
:1049E000F0D30008FCD3000814D40008F0B58BB055
:1049F00005460E46244A07AB07CA03C31A8007A818
:104A000002F0A6FA0746002205923146284601F038
:104A1000D7FC04461D4802F0A9F9012C06D0214616
:104A20001B4802F041F904200BB0F0BD00230293B3
:104A300006AB019305AB00933B4607AA31462846D7
:104A400001F025FD012804D0124802F08FF904205E
:104A5000EAE7059A069BD55C0021D154059A07A97F
:104A60000D4802F021F90598FFF75CFEC4B221461B
:104A70000A4802F019F90A4B83F85140059A069B3F
:104A8000D5540320D0E700BFE8D2000828D400089E
:104A9000A8D30008BCD20008ECD1000834D4000828
:104AA000A81C00200A4631B9802343FA01F21042C3
:104AB00057D0FC20704708291CD04B1E4FF0800CAB
:104AC0004CFA03F341B201EA03004CFA02FC01EA9A
:104AD0000C01C9B210F0FF0014D099B1C2F1080066
:104AE0004FF4FC7303FA00F040B201321341184353
:104AF000C0B270474A1E802343FA02F2104232D0FD
:104B0000F820704770B169B9C2F108034FF4FC7026
:104B1000984040B201324FF4E07343FA02F210437E
:104B2000C0B2704770B969B1C2F108034FF4E070C8
:104B3000984040B201324FF4FC7343FA02F2104342
:104B4000C0B2704788B989B9C2F108004FF4E07368
:104B500003FA00F040B2013243FA02F21043C0B24D
:104B60007047E0207047C020704700207047000069
:104B7000F8B507460D461646002407E021462846AC
:104B8000FFF790FF184B18550134E4B2082CF5D903
:104B9000002409E004F1090521463846FFF782FFA9
:104BA000114B58550134E4B2082CF3D9002409E024
:104BB00004F1120521463046FFF774FF0A4B5855A1
:104BC0000134E4B2082CF3D90848FDF75AFF032852
:104BD000FAD00648FDF755FF0128FAD11C220249F8
:104BE0000248FDF791FEF8BD881C0020A00C0020B3
:104BF00010B582B000238DF80430FF238DF800300B
:104C00001448FDF73EFF0328FAD01248FDF739FF9C
:104C10000128FAD10F4C012201A92046FDF774FEAC
:104C20005020FFF7CFFC012269462046FDF76CFEBD
:104C30000848FDF726FF0328FAD00648FDF721FFB4
:104C40000128FAD1012201A90248FDF75DFE02B058
:104C500010BD00BFA00C0020F8B507460E46154653
:104C6000002406E02A4631463846FFF781FF01342A
:104C7000E4B23B2CF6D9FFF7BBFFF8BD38B50446CC
:104C8000002800F09A80012800F0B180BC4802F0B2
:104C90006DF8FFF7ADFF0A20FFF7AFFC38BD00222B
:104CA00011461046FFF764FF0135EDB2B54B1B7896
:104CB000AB42F4D8FF2211461046FFF759FF0022FD
:104CC0001146FF20FFF754FF002211468020FFF716
:104CD0004FFF00224521FF20FFF74AFF0022A521B8
:104CE000FF20FFF745FF9A226921FF20FFF740FFD1
:104CF0000022FF211046FFF73BFF002264211046EF
:104D0000FFF736FFFF2211460020FFF731FF822216
:104D100000214B20FFF72CFFFF2200210846FFF760
:104D200027FFEB22CE218720FFF722FFFF22002161
:104D30001046FFF71DFF0022FF210846FFF718FF6E
:104D4000E622D821AD20FFF713FFFF2211461046BF
:104D5000FFF70EFF00221146FF20FFF709FF002298
:104D600011468020FFF704FF00224521FF20FFF7B6
:104D7000FFFE0022A521FF20FFF7FAFE9A226921FB
:104D8000FF20FFF7F5FE0022FF211046FFF7F0FE9F
:104D9000002264211046FFF7EBFEFF22114600209F
:104DA000FFF7E6FE822200214B20FFF7E1FEFF2203
:104DB00000210846FFF7DCFE08E0054676E7002202
:104DC00011461046FFF7D4FE0134E4B26D4B1A7859
:104DD000C2F12203DBB2A342F1D80132D2B2694B55
:104DE0001A70222A7FF655AF00221A7051E7654BE0
:104DF0001D784DB9644B00221A70634B1C784CB17E
:104E0000012C7FF446AFC8E0222DF6D15E4B012283
:104E10001A70F2E725465B4B1B78AB4207D900229C
:104E200011461046FFF7A4FE0135EDB2F3E7FF226D
:104E300011461046FFF79CFE00221146FF20FFF7A7
:104E400097FE002211468020FFF792FE00224521A6
:104E5000FF20FFF78DFE0022A521FF20FFF788FE2F
:104E60009A226921FF20FFF783FE0022FF211046CE
:104E7000FFF77EFE002264211046FFF779FEFF2235
:104E800011460020FFF774FE822200214B20FFF71D
:104E90006FFEFF2200210846FFF76AFEEB22CE21BB
:104EA0008720FFF765FEFF2200211046FFF760FE16
:104EB0000022FF210846FFF75BFEE622D821AD2045
:104EC000FFF756FEFF2211461046FFF751FE002263
:104ED0001146FF20FFF74CFE002211468020FFF70D
:104EE00047FE00224521FF20FFF742FE0022A521B8
:104EF000FF20FFF73DFE9A226921FF20FFF738FED1
:104F00000022FF211046FFF733FE002264211046E5
:104F1000FFF72EFEFF2211460020FFF729FE822216
:104F200000214B20FFF724FEFF2200210846FFF757
:104F30001FFEEB22CE218720FFF71AFEFF22002161
:104F40001046FFF715FE0022FF210846FFF710FE6E
:104F5000E622D821AD20FFF70BFE0A4B1A78C2F1EA
:104F60002203DBB2A34207D9002211461046FFF705
:104F7000FFFD0134E4B2F0E70132024B1A7088E61B
:104F800044D40008A51C0020A41C002000221146C7
:104F90001046FFF7EDFD013DEDB2002DF6D1FF22E9
:104FA00011461046FFF7E4FD00221146FF20FFF7EF
:104FB000DFFD002211468020FFF7DAFD00224521A7
:104FC000FF20FFF7D5FD0022A521FF20FFF7D0FD30
:104FD0009A226921FF20FFF7CBFD0022FF21104616
:104FE000FFF7C6FD002264211046FFF7C1FDFF2236
:104FF00011460020FFF7BCFD822200214B20FFF765
:10500000B7FDFF2200210846FFF7B2FDEB22CE21BB
:105010008720FFF7ADFDFF2200211046FFF7A8FD16
:105020000022FF210846FFF7A3FDE622D821AD208C
:10503000FFF79EFDFF2211461046FFF799FD002263
:105040001146FF20FFF794FD002211468020FFF754
:105050008FFD00224521FF20FFF78AFD0022A521B8
:10506000FF20FFF785FD9A226921FF20FFF780FDD1
:105070000022FF211046FFF77BFD0022642110462D
:10508000FFF776FDFF2211460020FFF771FD822217
:1050900000214B20FFF76CFDFF2200210846FFF79F
:1050A00067FDEB22CE218720FFF762FDFF22002162
:1050B0001046FFF75DFD0022FF210846FFF758FD6F
:1050C000E622D821AD20FFF753FD06E0002211466D
:1050D0001046FFF74DFD0135EDB2054B1B78C3F1CE
:1050E00022029542F2DB013B014A1370D1E500BF79
:1050F000A51C0020174B93F84830DBB2012B1FD0C2
:105100007047144B1A19107B03EB5402117B124A9F
:10511000A2FB04C203EB52031A7BFFF729FD013403
:10512000E4B20C4B1B79A3420DD9002CE9D1094BF9
:10513000187B93F82A1093F84720FFF719FDEEE744
:1051400010B50024EDE7034B002283F84820FFF759
:105150004FFD10BDA81C0020ABAAAAAA08B50E4B93
:105160000E4A1A603C221A711A225A71002083F8E2
:1051700051000B4AC3F806200A4AC3F84D204FF4E9
:105180007A725A8183F84800074AC3F849200246D8
:105190000146FFF761FD08BDA81C0020A00C0020FF
:1051A000594C00087D4C0008F550000810B5134C10
:1051B000A1882068FCF79EFFA37960F30003A37128
:1051C000DBB203F00303032B09D00C4B9B7913F0E4
:1051D000050F03D1094A43F00203937110BDA27970
:1051E0006FF34102A271D2B242F00402A271B4F88C
:1051F00007200132A4F80720E7E700BFFC1C0020CD
:10520000144B9B7913F0040F19D0124BB3F80730ED
:10521000022B15D0032B18D0012B07D00D4A0023E9
:10522000D37113720C4A82F8513003E00A4B012209
:1052300083F85120074B9A796FF382029A71704775
:10524000054B022283F85120F4E7034B032283F835
:105250005120EFE7FC1C0020A81C00200B4B0C4A3F
:105260001A6002229A809A7942F001029A71002211
:10527000DA711A72997962F382019971C9B262F393
:1052800041019971034AC3F809207047FC1C0020B2
:1052900000080140AD51000820B94FF00062034BF7
:1052A0001A6170474FF40062F9E700BF000C01403B
:1052B00008B50120FFF7F0FF01224FF4806102489A
:1052C000FCF71FFF08BD00BF000C014010B50A4CE1
:1052D00001224FF480612046FCF713FF0120FFF705
:1052E000DBFF00224FF480612046FCF70AFF00201C
:1052F000FFF7D2FF10BD00BF000C014010B5084CF5
:1053000000224FF480612046FCF7FBFE0120FFF7EE
:10531000C3FF01224FF480612046FCF7F2FE10BD6E
:10532000000C014038B5054600240FE080222241E0
:105330002A404FF480610A48FCF7E3FE0120FFF7A2
:10534000ABFF0020FFF7A8FF0134E4B2072CEDD932
:105350000120FFF7A1FF0020FFF79EFF38BD00BF2F
:10536000000C014010B50446FFF7B0FF7820FFF7AE
:10537000D9FF0020FFF7D6FF2046FFF7D3FFFFF746
:10538000BDFF10BD10B50446FFF7A0FF7820FFF762
:10539000C9FF4020FFF7C6FF2046FFF7C3FFFFF716
:1053A000ADFF10BD10B50C4640F0B000FFF7DAFFBE
:1053B000200940F01000FFF7D5FF04F00F00FFF7C1
:1053C000D1FF10BD38B5002509E00020FFF7DAFF56
:1053D0000134E4B214F0800FF7D00135EDB2072D9F
:1053E00005D800212846FFF7DDFF0024F2E738BD8D
:1053F000F8B51546461E7600F6B24F1EFF00FFB206
:1054000039463046FFF7CEFF002409E0A5F120031E
:105410000F4A02EB0313185DFFF7B4FF0134E4B247
:10542000072CF3D9701C3946C0B2FFF7BBFF00242C
:105430000BE0A5F1200304F10802054901EB031379
:10544000985CFFF79FFF0134E4B2072CF1D9F8BD57
:1054500060D40008F8B507460E461546002406E05D
:10546000A119C9B23846FFF7C3FF0134E4B22A5D7F
:10547000002AF5D1F8BD0246012002E002FB00F04F
:1054800019464B1E0029F9D1704700002DE9F84359
:105490008146884617461E46002419E004EB08059D
:1054A000EDB2311B01390A20FFF7E5FFB7FBF0F041
:1054B000094AA2FB0032D20802EB8202A0EB4202B0
:1054C0003032D2B229464846FFF792FF0134E4B2A7
:1054D000B442E3D3BDE8F883CDCCCCCC08B50022F0
:1054E00004E00133B3F57A7FFBD30132B2F57A7F62
:1054F00001D20023F6E7FFF7DBFEAE20FFF732FF15
:10550000D520FFF72FFF8020FFF72CFFA820FFF703
:1055100029FF3F20FFF726FFD320FFF723FF0020BE
:10552000FFF720FF4020FFF71DFFA120FFF71AFF24
:10553000C820FFF717FFDA20FFF714FF1220FFF74C
:1055400011FF8120FFF70EFFCF20FFF70BFFD920BF
:10555000FFF708FFF120FFF705FFDB20FFF702FF51
:105560003020FFF7FFFEA420FFF7FCFEA620FFF788
:10557000F9FE8D20FFF7F6FE1420FFF7F3FEAF20B3
:10558000FFF7F0FEFFF71EFF08BD38B504461046D2
:1055900023606160002565812281256101F072F838
:1055A000E06025756575A57538BD10B504460146E2
:1055B00051F8140B0122FEF74FF96068FDF792FADB
:1055C00010BD837DDBB2012B04D1002383754381A1
:1055D0001846704701207047A0F16103DBB2052B2C
:1055E00003D803F10A00C0B27047A0F14103DBB257
:1055F000052B02D803F10A00F5E73038C0B20928BC
:10560000F1D94FF01000EEE7222824D025D37B28D3
:1056100025D85B2825D35B38202814D8DFE800F094
:105620002313131313131313131313171313131336
:105630001313131913131313131513131313131332
:105640001100062070470220704703207047042095
:1056500070470520704701207047022070470220E4
:105660007047022070470720704700002DE9F8437B
:1056700078B10C461E46814659B152B183B10D68CE
:10568000AF1DBA422BD9435D5C2B10D04FF0000800
:1056900027E01B4B1B4A4FF4A4711B4800F094FFFA
:1056A0001A4B184A40F24911174800F08DFF431970
:1056B0005B78752B02D04FF0000812E002354FF0F6
:1056C0000008BD420DD219F80500FFF785FF10282C
:1056D00007D040EA08181FFA88F80135F1E74FF0C3
:1056E0000008BD4202D00020BDE8F883B8F1000FE9
:1056F00004D0A6F8008025600120F5E70020F3E73C
:1057000050DA000828DD000888DA0008D0DA00083E
:10571000F0B583B000B30C4615460646E1B1DAB1E8
:105720000B6801930DF1020301A9FFF79FFF0746E4
:1057300078B1BDF8023003F5205292B2B2F5806F15
:1057400011D303F510539BB2B3F5806F1FD3019BA8
:105750002360384603B0F0BD0E4B0F4A4FF4C271C0
:105760000E4800F031FF0DF102032A4601A9304630
:10577000FFF77CFF48B1BDF8023003F510539BB230
:10578000B3F5806FE3D30027E3E70746E1E700279F
:10579000DFE700BF50DA00083CDD000888DA0008C7
:1057A00010B582B068B10C46844651B14AB10B685D
:1057B0000193511E8B4267D2C15C5C2908D0002046
:1057C00063E0344B344A40F2B711344800F0FCFE39
:1057D000591C415C752908D85C290CD209B90020F4
:1057E00053E022294AD02F2948D01F294FD802330D
:1057F0000193012045E0A1F15C001928F5D80FF2D2
:10580000080E5EF820F000BF7D580008EB57000836
:10581000EB570008EB570008EB570008EB57000860
:105820007D580008EB570008EB570008EB570008BD
:105830007D580008EB570008EB570008EB570008AD
:10584000EB570008EB570008EB570008EB57000830
:105850007D580008EB570008EB570008EB5700088D
:105860007D580008EB5700087D5800087158000863
:1058700001A96046FFF74CFF18B906E00233019317
:105880000120019B236000E0002002B010BD002039
:10589000FBE700BF50DA00084CDD000888DA00089A
:1058A00008B540B139B132B10B68934209D2013326
:1058B0000B60012006E0044B044AFA21044800F082
:1058C00083FE002008BD00BF50DA00080CDD000890
:1058D00088DA000870B582B068B10E4614460546F5
:1058E00049B142B10B68019393422FD2C25C222A84
:1058F00008D000232BE0184B184A4FF4FD711848CC
:1059000000F062FE013301930BE00132019232603C
:1059100001231CE0224601A92846FFF741FF034668
:10592000A8B1019AA2420FD2AB5C222BEDD05C2B26
:10593000F0D01F2B0ED9224601A92846FFF7B0FF51
:1059400003460028EDD102E0002300E000231846C2
:1059500002B070BD0023FAE750DA000858DD0008F5
:1059600088DA000810B560B1044651B100209042B9
:105970000ED214F800E011F800C0E64508D101305D
:10598000F5E7064B064A40F23A21064800F01CFEB5
:10599000904214BF0020012010BD00BFE4DA0008CF
:1059A000F8DC000888DA000838B560B10C4651B15F
:1059B0004AB17BB10D6895421DD2521B04998A42AF
:1059C0000FD2002018E00D4B0D4A40F25B210D482C
:1059D00000F0FAFD0C4B0A4A4FF41771094800F029
:1059E000F3FD0A4619462844FFF7BCFF20B1049B8B
:1059F0001D44256000E0002038BD00BF50DA0008DB
:105A000000DD000888DA000804DB000870B582B009
:105A100006460D461446042300930C4BFFF7C4FFC3
:105A200008B102B070BD05230093094B22462946F8
:105A30003046FFF7B9FF0028F3D104230093054B4C
:105A4000224629463046FFF7AFFFEAE714DB00089D
:105A50001CDB000824DB00082DE9F04750B1894623
:105A600016461F46804629B122B1D1F800A05446FF
:105A7000002509E0184B194A40F29F21184800F010
:105A8000A3FD4FF0FF350134B44217D218F80400DB
:105A9000A0F1300C5FFA8CFCBCF1090F0ED8002F7E
:105AA000F1D0002DEFDBFFF797FD40B20D4B9D428B
:105AB000E7DA05EB850500EB4505E4E7544505D934
:105AC000C9F800402FB13D60012000E00020BDE892
:105AD000F0870120FBE700BF50DA0008E0DC000897
