:020000040800F2
:1000000000500020F5440008110E0008130E0008EF
:10001000150E0008170E0008190E00080000000059
:100020000000000000000000000000008132000815
:100030001B0E000800000000213300086533000893
:100040003D4500083D4500083D4500083D45000888
:100050003D4500083D4500083D4500083D45000878
:100060003D4500083D4500083D4500083D45000868
:100070001D0E00082D0E00083D4500083D450008F6
:100080003D4500083D4500083D4500083D45000848
:100090003D4500083D4500083D4500083D45000838
:1000A0003D4500083D0E00083D4500083D4500085F
:1000B0003D4500084D0E00083D4500083D4500083F
:1000C0003D4500083D4500083D4500083D45000808
:1000D0003D4500083D4500083D4500085D0E00080F
:1000E0003D4500083D4500083D4500080000000072
:1000F0000000000000000000000000000000000000
:0C01000000000000000000005FF808F1A3
:1001100010B5054C237833B9044B13B10448AFF341
:1001200000800123237010BD54080020000000004F
:100130009456000808B5034B1BB103490348AFF3BD
:10014000008008BD000000005808002094560008F8
:1001500081F0004102E000BF83F0004330B54FEA78
:1001600041044FEA430594EA050F08BF90EA020FE5
:100170001FBF54EA000C55EA020C7FEA645C7FEA78
:10018000655C00F0E2804FEA5454D4EB5555B8BF9B
:100190006D420CDD2C4480EA020281EA030382EA0C
:1001A000000083EA010180EA020281EA0303362D9E
:1001B00088BF30BD11F0004F4FEA01314FF4801C71
:1001C0004CEA113102D0404261EB410113F0004F83
:1001D0004FEA03334CEA133302D0524263EB43033A
:1001E00094EA050F00F0A780A4F10104D5F1200ED8
:1001F0000DDB02FA0EFC22FA05F2801841F1000133
:1002000003FA0EF2801843FA05F359410EE0A5F106
:1002100020050EF1200E012A03FA0EFC28BF4CF037
:10022000020C43FA05F3C01851EBE37101F00045ED
:1002300007D54FF0000EDCF1000C7EEB00006EEBFA
:100240000101B1F5801F1BD3B1F5001F0CD3490884
:100250005FEA30004FEA3C0C04F101044FEA4452DB
:1002600012F5800F80F09A80BCF1004F08BF5FEA62
:10027000500C50F1000041EB045141EA050130BD42
:100280005FEA4C0C404141EB0101013C28BFB1F554
:10029000801FE9D291F0000F04BF01460020B1FA9F
:1002A00081F308BF2033A3F10B03B3F120020CDA72
:1002B0000C3208DD02F1140CC2F10C0201FA0CF050
:1002C00021FA02F10CE002F11402D8BFC2F1200CB5
:1002D00001FA02F120FA0CFCDCBF41EA0C0190406B
:1002E000E41AA2BF01EB0451294330BD6FEA0404B4
:1002F0001F3C1CDA0C340EDC04F11404C4F120029F
:1003000020FA04F001FA02F340EA030021FA04F3B0
:1003100045EA030130BDC4F10C04C4F1200220FA07
:1003200002F001FA04F340EA0300294630BD21FA45
:1003300004F0294630BD94F0000F83F4801306BF0B
:1003400081F480110134013D4EE77FEA645C18BFFF
:100350007FEA655C29D094EA050F08BF90EA020F96
:1003600005D054EA000C04BF1946104630BD91EA8E
:10037000030F1EBF0021002030BD5FEA545C05D191
:100380004000494128BF41F0004130BD14F58004D0
:100390003CBF01F5801130BD01F0004545F0FE4144
:1003A00041F470014FF0000030BD7FEA645C1ABF79
:1003B000194610467FEA655C1CBF0B46024650EAB0
:1003C000013406BF52EA033591EA030F41F40021DC
:1003D00030BD00BF90F0000F04BF0021704730B562
:1003E0004FF4806404F132044FF000054FF0000137
:1003F00050E700BF90F0000F04BF0021704730B5F8
:100400004FF4806404F1320410F0004548BF4042CC
:100410004FF000013EE700BF42004FEAE2014FEA21
:1004200031014FEA02701FBF12F07F4393F07F4FFC
:1004300081F06051704732F07F4208BF704793F0FF
:100440007F4F04BF41F40021704730B54FF4607412
:1004500001F0004521F000411CE700BF50EA010215
:1004600008BF704730B54FF000050AE050EA0102BE
:1004700008BF704730B511F0004502D5404261EB2E
:1004800041014FF4806404F132045FEA915C3FF46F
:10049000D8AE4FF003025FEADC0C18BF03325FEA0C
:1004A000DC0C18BF033202EBDC02C2F1200300FABD
:1004B00003FC20FA02F001FA03FE40EA0E0021FAE2
:1004C00002F11444BDE600BF70B54FF0FF0C4CF4D0
:1004D000E06C1CEA11541DBF1CEA135594EA0C0F82
:1004E00095EA0C0F00F0DEF82C4481EA030621EABD
:1004F0004C5123EA4C5350EA013518BF52EA0335F8
:1005000041F4801143F4801338D0A0FB02CE4FF0A9
:100510000005E1FB02E506F00042E0FB03E54FF0D9
:100520000006E1FB03569CF0000F18BF4EF0010ED1
:10053000A4F1FF04B6F5007F64F5407404D25FEACD
:100540004E0E6D4146EB060642EAC62141EA555180
:100550004FEAC52040EA5E504FEACE2EB4F1FD0CC2
:1005600088BFBCF5E06F1ED8BEF1004F08BF5FEA40
:10057000500E50F1000041EB045170BD06F00046F2
:1005800046EA010140EA020081EA0301B4EB5C049F
:10059000C2BFD4EB0C0541EA045170BD41F4801197
:1005A0004FF0000E013C00F3AB8014F1360FDEBFBC
:1005B000002001F0004170BDC4F10004203C35DA98
:1005C0000C341BDC04F11404C4F1200500FA05F31B
:1005D00020FA04F001FA05F240EA020001F00042BC
:1005E00021F0004110EBD37021FA04F642EB060132
:1005F0005EEA430E08BF20EAD37070BDC4F10C045C
:10060000C4F1200500FA04F320FA05F001FA04F21F
:1006100040EA020001F0004110EBD37041F100010B
:100620005EEA430E08BF20EAD37070BDC4F1200516
:1006300000FA05F24EEA020E20FA04F301FA05F27E
:1006400043EA020321FA04F001F0004121FA04F226
:1006500020EA020000EBD3705EEA430E08BF20EAF6
:10066000D37070BD94F0000F0FD101F00046400030
:1006700041EB010111F4801F08BF013CF7D041EAB2
:10068000060195F0000F18BF704703F000465200B6
:1006900043EB030313F4801F08BF013DF7D043EA87
:1006A0000603704794EA0C0F0CEA135518BF95EA3D
:1006B0000C0F0CD050EA410618BF52EA4306D1D1C4
:1006C00081EA030101F000414FF0000070BD50EAE3
:1006D000410606BF1046194652EA430619D094EA6D
:1006E0000C0F02D150EA013613D195EA0C0F05D157
:1006F00052EA03361CBF104619460AD181EA0301AB
:1007000001F0004141F0FE4141F470014FF0000062
:1007100070BD41F0FE4141F4780170BD70B54FF0FD
:10072000FF0C4CF4E06C1CEA11541DBF1CEA13557D
:1007300094EA0C0F95EA0C0F00F0A7F8A4EB05045F
:1007400081EA030E52EA03354FEA013100F0888056
:100750004FEA03334FF0805545EA131343EA12631F
:100760004FEA022245EA111545EA10654FEA0026D4
:100770000EF000419D4208BF964244F1FD0404F58D
:10078000407402D25B084FEA3202B61A65EB0305E9
:100790005B084FEA32024FF480104FF4002CB6EBA6
:1007A000020E75EB030E22BFB61A754640EA0C0026
:1007B0005B084FEA3202B6EB020E75EB030E22BF66
:1007C000B61A754640EA5C005B084FEA3202B6EBA7
:1007D000020E75EB030E22BFB61A754640EA9C0066
:1007E0005B084FEA3202B6EB020E75EB030E22BF36
:1007F000B61A754640EADC0055EA060E18D04FEAF4
:10080000051545EA16754FEA06164FEAC30343EA93
:1008100052734FEAC2025FEA1C1CC0D111F4801F60
:100820000BD141EA00014FF000004FF0004CB6E759
:1008300011F4801F04BF01430020B4F1FD0C88BFF8
:10084000BCF5E06F3FF6AFAEB5EB030C04BFB6EB03
:10085000020C5FEA500C50F1000041EB045170BDF6
:100860000EF0004E4EEA113114EB5C04C2BFD4EB23
:100870000C0541EA045170BD41F480114FF0000EA7
:10088000013C90E645EA060E8DE60CEA135594EA23
:100890000C0F08BF95EA0C0F3FF43BAF94EA0C0F26
:1008A0000AD150EA01347FF434AF95EA0C0F7FF49B
:1008B00025AF104619462CE795EA0C0F06D152EAEF
:1008C00003353FF4FDAE1046194622E750EA4106D3
:1008D00018BF52EA43067FF4C5AE50EA41047FF4E4
:1008E0000DAF52EA43057FF4EBAE12E74A0011D296
:1008F00012F5001211D20DD56FF47873B3EB62527A
:100900000ED44FEAC12343F0004343EA505323FA85
:1009100002F070474FF00000704750EA013002D1FA
:100920004FF0FF3070474FF00000704700B583B0C4
:100930000E4B5A6942F001025A615B6903F00103F0
:100940000193019B002205210C2000F0C1FC0C202A
:1009500000F0F6FC002205210D2000F0B9FC0D206E
:1009600000F0EEFC03B05DF804FB00BF0010024095
:1009700000B58DB0264A0121084603F0C3FC254E80
:1009800006AC254D0FCD0FC42B68236001AC234D61
:100990000FCD0FC42B6823603369009396E80F00D6
:1009A00003F08CFA1E4B4FF448721A8026E0194C63
:1009B000204603F04FFA2369009394E80F0003F0F8
:1009C00051FA174D154C2988204603F043FA236944
:1009D000009394E80F0003F045FA0F4C2988204655
:1009E00003F038FA2369009394E80F0003F03AFA11
:1009F000142002F0B6FB2B8801332B80084B19889A
:100A000040F698039942D2D9642002F0AAFBFBE792
:100A1000FC56000870080020980800208408002078
:100A2000C808002008B50DE00C4940F2E7334A89B8
:100A3000C9680B4801F0D4FF084803F0EDFC6420BE
:100A400002F08FFB4FF40051064800F037FF034BD4
:100A50005B7D13F0020FE7D1EEE700BFAC0800208A
:100A60008C0C002000100140034B0360034B0B6013
:100A700080231360704700BFD00A0020D0080020F8
:100A800010B58EB0214803F0DDFC03F04CFC204C87
:100A9000002221461F4803F0B5F9042221461E48D2
:100AA00003F0B0F9082221461C4803F0ABF91C4CB6
:100AB0001C4B64221C49204603F08CFC204603F0AA
:100AC0009FFC1A4C0DF11C0CA646BEE80F00ACE8CA
:100AD0000F009EE807008CE80700002107A802F03D
:100AE0000BFB134B1860EE4604F11C0CBCE80F0026
:100AF000AEE80F009CE807008EE80700002168467A
:100B000002F0FAFA0B4B18600EB010BD8C0C0020EE
:100B1000740B002070080020840800209808002032
:100B2000AC080020D40C0020BC0B0020AC56000800
:100B3000C4080020CC0800202DE9F04188B0002432
:100B40000494059406940794344B9A6942F0100279
:100B50009A619A6902F010020092009A9A6942F032
:100B600020029A619A6902F020020192019A9A6920
:100B700042F004029A619A6902F004020292029A17
:100B80009A6942F008029A619B6903F00803039393
:100B9000039BDFF88C8022464FF40051404600F062
:100BA00087FE204D22464FF40041284600F080FE8B
:100BB00001224FF44071284600F07AFE4FF40053B2
:100BC00004930126059606940227079704A9404638
:100BD00000F05CFD4FF400430493059606940797DC
:100BE00004A9284600F052FD4FF480730493059643
:100BF00006940324079404A9284600F047FD4FF407
:100C000000730493112305930696079404A92846BC
:100C100000F03CFD08B0BDE8F08100BF00100240CC
:100C200000100140000C01400268084B9A4200D0BD
:100C30007047074B5A7D42F001025A75D9685A89AC
:100C4000187D88545A8901325A81F1E700480040E2
:100C5000AC08002010B504460268114B9A4204D03B
:100C60002268104B9A4203D010BD00F00DFBF7E74D
:100C70000D4B5B7D13F0010FF6D00B4B5B890B4ADC
:100C80001288934202D0094A1380EDE7064B5A7D41
:100C900042F002025A75D2B26FF300025A75E3E7CE
:100CA000002C014000040040AC080020240B002070
:100CB00072B6FEE700B591B02822002106A803F025
:100CC0001DFF0023019302930393049305930122D4
:100CD00006924FF4803307930A9202220D920E93EC
:100CE0004FF4E0130F9306A800F008FE80B90F231D
:100CF000019302210291002303934FF48062049236
:100D0000059301A801F02CF820B911B05DF804FB9F
:100D1000FFF7CEFFFFF7CCFF08B500F0A3FAFFF70F
:100D2000C9FFFFF709FF00F0BBF9FFF7FFFD00F077
:100D3000D1F900F0BDF800F049F9FFF7A1FE02F08B
:100D4000D6F9FEE700B583B0114B9A6942F0010273
:100D50009A619A6902F001020092009ADA6942F0FF
:100D60008052DA61DB6903F080530193019B00221A
:100D70000F216FF0010000F0ABFA064A536823F030
:100D8000E06343F00073536003B05DF804FB00BF01
:100D9000001002400000014000B589B00146002269
:100DA000192000F095FA192000F0CAFA144B9A693C
:100DB00042F400629A619B6903F400630193019B12
:100DC00002A903A801F0A8F801F096F80D4BA3FBC7
:100DD00000239B0C013B0C480C4A026040F2E732B6
:100DE000C260436000230361836001F095FA18B18B
:100DF000012009B05DF804FB034801F05DF9F8E754
:100E00000010024083DE1B43280B0020002C014011
:100E1000FEE7FEE7FEE7FEE7FEE7704708B502489B
:100E200000F092FB08BD00BF480C002008B5024846
:100E300000F08AFB08BD00BF040C002008B5024882
:100E400001F073F908BD00BF280B002008B5024867
:100E500001F06BF908BD00BFBC0B002008B50248CB
:100E600001F03AFF08BD00BFD40C002008B50346CE
:100E70000B4A126842B10A4A106803446A46934218
:100E800006D8074A136008BD054A06491160F2E713
:100E900003F056FB0C2303604FF0FF30F3E700BF75
:100EA000700B0020B81A00204FF0FF3070477047D9
:100EB00000B587B000230293039304930593009336
:100EC00001931548154A026041F61F424260836053
:100ED0006322C2600361836101F01EFA90B94FF48E
:100EE0008053029302A90C4801F01AFB68B9002351
:100EF000009301936946084801F00EFC40B907B021
:100F00005DF804FBFFF7D4FEE9E7FFF7D1FEEEE75B
:100F1000FFF7CEFEF3E700BFBC0B0020000400404B
:100F200000B583B00368B3F1804F05D0124A9342F5
:100F30000ED003B05DF804FB03F50433DA6942F028
:100F40000102DA61DB6903F001030093009BF0E723
:100F50000A4BDA6942F00202DA61DB6903F002034C
:100F60000193019B002205211D2000F0B1F91D20F5
:100F700000F0E6F9DDE700BF000400400010024089
:100F800000B587B00023029303930493059303688D
:100F9000B3F1804F02D007B05DF804FB03F50433D2
:100FA0009A6942F004029A619B6903F00403019379
:100FB000019B0723029302230393059302A902488E
:100FC00000F064FBE7E700BF0008014000B58FB008
:100FD00000230A930B930C930D93089309930193A9
:100FE0000293039304930593069307932B484FF0C2
:100FF0008042026047224260836044F61F62C26002
:101000000361836101F088F9002831D14FF48053E6
:101010000A930AA9214801F083FA60BB1F4801F036
:10102000A7F958BB00230893099308A91B4801F0AE
:1010300073FB30BB6023019300220292039205925E
:1010400001A9164801F0F2F9F0B904220DEB0201F2
:10105000124801F0EBF9D0B9082201A90F4801F0BC
:10106000E5F9B8B90D48FFF78BFF0FB05DF804FB49
:10107000FFF71EFECAE7FFF71BFECFE7FFF718FEDC
:10108000D0E7FFF715FED5E7FFF712FEDDE7FFF724
:101090000FFEE1E7FFF70CFEE4E700BF740B002052
:1010A00008B50A480A4B03604FF4E133436000235C
:1010B0008360C36003610C2242618361C36101F0FC
:1010C0005FFC00B908BDFFF7F3FDFBE78C0C0020C7
:1010D0000038014008B50A480A4B03604FF4E13379
:1010E000436000238360C36003610C22426183611B
:1010F000C36101F045FC00B908BDFFF7D9FDFBE76E
:10110000D40C00200048004070B588B00023049340
:101110000593069307930368494A934205D0044612
:10112000484A93422BD008B070BD474B9A6942F4AD
:1011300080429A619A6902F480420092009A9A6908
:1011400042F004029A619B6903F004030193019B3E
:101150004FF40073049302230593032307933B4C3E
:1011600004A9204600F092FA4FF480630493002310
:101170000593069304A9204600F088FAD3E7324B82
:10118000DA6942F48022DA61DA6902F4802202929A
:10119000029A9A6942F008029A619B6903F0080377
:1011A0000393039B4FF4806304930223059303236B
:1011B0000793274E04A9304600F068FA4FF4006305
:1011C000049300250595069504A9304600F05EFAC3
:1011D0002048214B0360456085608023C360056122
:1011E0004561202383614FF44053C36100F0CCF884
:1011F000F8B9184BE3635C621848194B036010237D
:101200004360002383608022C26003614361202227
:101210008261C36100F0B8F870B9104BA3635C62DF
:1012200000220521272000F053F8272000F088F83D
:1012300079E7FFF73DFDDCE7FFF73AFDEDE700BF9B
:101240000038014000480040001002400008014002
:10125000000C0140040C002030000240480C00202B
:101260001C00024008B5074A136843F010031360DE
:10127000032000F01BF80F20FFF78EFDFFF762FD43
:10128000002008BD00200240034A1168034B1B7870
:101290000B441360704700BF1C0D002004000020A9
:1012A000014B1868704700BF1C0D0020074AD36827
:1012B00023F4E0631B041B0C000200F4E060034312
:1012C00043F0BF6343F40033D360704700ED00E0A8
:1012D00000B5194BDB68C3F30223C3F1070CBCF163
:1012E000040F28BF4FF0040C03F1040EBEF1060FEB
:1012F00018D9033B4FF0FF3E0EFA0CFC21EA0C011B
:1013000099400EFA03F322EA0303194300280BDB8A
:101310000901C9B200F1604000F5614080F8001396
:101320005DF804FB0023E5E700F00F000901C9B2F6
:10133000024B1954F4E700BF00ED00E014ED00E0AB
:10134000002807DB00F01F02400901239340024AF6
:1013500042F82030704700BF00E100E030B40124C3
:10136000056CAC40C56B6C60046863604368102B0F
:1013700005D0036899600368DA6030BC7047036881
:101380009A600368D960F8E760B310B40246016858
:10139000154B0B441548A0FB03031B099B0013646A
:1013A000134BD363022382F82130086820F47F5066
:1013B00020F03000536894682343D46823431469B1
:1013C00023435469234394692343D4692343034348
:1013D0000B6000209063012382F8213082F8200006
:1013E00010BC704701207047F8FFFDBFCDCCCCCCBE
:1013F0000000024038B5044690F82000012832D0A1
:10140000012084F8200094F82100C0B2012804D003
:10141000002384F82030022038BD022084F8210007
:101420000020A0632568286820F00100286020467D
:10143000FFF794FFE36A5BB12268136843F00E0381
:1014400013602268136843F0010313600020E3E790
:101450002268136823F0040313602268136843F0C2
:101460000A031360EDE70220D6E790F82130DBB2E3
:10147000022B06D004238363002380F82030012050
:1014800070470268136823F00E0313600268136844
:1014900023F001031360036CC16B012202FA03F312
:1014A0004B6080F82120002380F8203018467047D8
:1014B00008B590F82130DBB2022B03D004238363FC
:1014C000012008BD0268136823F00E031360026850
:1014D000136823F0010313600368194A934214D080
:1014E000143293421FD0143293421ED014329342CE
:1014F0001ED0143293421ED01432934202D04FF0C9
:10150000807203E04FF4801200E001220D4B5A601C
:10151000012380F82130002380F82030436B6BB129
:1015200098470020CDE71022F0E74FF48072EDE7F6
:101530004FF48052EAE74FF48032E7E70020C0E73B
:10154000080002400000024038B5C36B1A68046806
:101550002568016C04238B40134235D015F0040F2D
:1015600032D0236813F0200F03D1236823F0040343
:1015700023600368434A934214D01432934218D034
:101580001432934217D01432934217D0143293423C
:1015900017D01432934202D04FF0806203E04FF430
:1015A000800200E00422384B5A60C36A03B19847B6
:1015B00038BD4022F7E74FF48062F4E74FF48042F1
:1015C000F1E74FF48022EEE702238B4013423CD038
:1015D00015F0020F39D0236813F0200F06D12368CD
:1015E00023F00A032360012380F821300368254A91
:1015F000934214D0143293421CD0143293421BD025
:10160000143293421BD0143293421BD014329342B3
:1016100002D04FF0007203E04FF4001200E002220B
:10162000194B5A60002380F82030836A002BBFD00A
:101630009847BDE72022F3E74FF40072F0E74FF43C
:101640000052EDE74FF40032EAE7082303FA01F114
:101650001142ADD015F0080FAAD0236823F00E0375
:101660002360026CC16B012303FA02F24A608363B8
:1016700080F82130002380F82030036B002B97D0B6
:10168000984795E7080002400000024070B582B01C
:101690000024A446A6E0804DAA4210D007D97F4D71
:1016A000AA420CD005F58035AA4208D013E0A5F572
:1016B0008015AA4203D005F57025AA4207D18A6891
:1016C000002A58D0012A51D04361082403E0A5F52F
:1016D0008015AA42F3D0BEF1FF0F4ED80646BEF1E8
:1016E000FF0F4CD84FEA8C0233680F25954023EA50
:1016F000050304FA02F2134333604B6813F0805F72
:101700006ED0674B9A6942F001029A619B6903F0BF
:1017100001030193019B4FEA9C02951C614B53F816
:1017200025600CF003039D000F23AB4026EA03065F
:101730005D4B984229D003F58063984200F08E807B
:1017400003F58063984200F08B8003F58063984234
:1017500019D004231AE0CC68BDE7CC680434BAE79A
:10176000CC680834B7E7CC680C34B4E703610824CC
:10177000B1E70024AFE70424ADE7061DAFE7ACF105
:1017800008029200B0E7032300E00023AB4033439C
:101790000232444D45F822304B6813F4801F61D06B
:1017A000424A936843EA0E0393604B6813F4001FA8
:1017B0005ED03E4AD36843EA0E03D3604B6813F40D
:1017C000003F5BD0394A536843EA0E0353604B68CD
:1017D00013F4803F58D0354A136843EA0E03136070
:1017E0000CF1010C0A6832FA0CF353D0012303FA0E
:1017F0000CF302EA030E33EA0202F1D14A68122A1C
:101800003FF649AF122A3FF666AF01A555F822F020
:10181000BF16000857170008611700087317000863
:10182000D7160008D7160008D7160008D7160008E4
:10183000D7160008D7160008D7160008D7160008D4
:10184000D7160008D7160008D7160008D7160008C4
:10185000D71600085B17000867170008012395E7F3
:10186000022393E7114A936823EA0E0393609CE7EF
:101870000E4AD36823EA0E03D3609FE70B4A5368EE
:1018800023EA0E035360A2E7084A136823EA0E0313
:101890001360A5E702B070BD0000221000003110F7
:1018A0000010024000000140000801400004014017
:1018B0000AB101617047090401617047C36801EA18
:1018C000030221EA030141EA02410161704700007D
:1018D00082B0084B1B68084AA2FB03235B0A00FB8B
:1018E00003F3019300BF019B5A1E0192002BF9D113
:1018F00002B0704700000020D34D6210002800F0B5
:10190000F18170B582B00446036813F0010F2CD04A
:10191000994B5B6803F00C03042B1DD0964B5B685E
:1019200003F00C03082B12D06368B3F5803F41D05D
:10193000002B55D103F1804303F504331A6822F4D8
:1019400080321A601A6822F480221A6037E08A4BCB
:101950005B6813F4803FE7D0874B1B6813F4003FAC
:1019600003D06368002B00F0BF81236813F0020FDF
:1019700075D0814B5B6813F00C0F5FD07E4B5B68BA
:1019800003F00C03082B54D02369002B00F08A804D
:101990007A4B01221A60FFF783FC0546764B1B68E1
:1019A00013F0020F75D1FFF77BFC401B0228F5D91D
:1019B00003209EE1704A136843F480331360636828
:1019C00043B3FFF76DFC05466B4B1B6813F4003FF8
:1019D000CBD1FFF765FC401B6428F5D9032088E1D3
:1019E000B3F5A02F09D0644B1A6822F480321A6034
:1019F0001A6822F480221A60E1E703F18043A3F51C
:101A00003C331A6842F480221A601A6842F4803229
:101A10001A60D4E7FFF744FC0546574B1B6813F4E4
:101A2000003FA2D0FFF73CFC401B6428F5D90320FF
:101A30005FE1514B5B6813F4803FA5D14E4B1B68AF
:101A400013F0020F03D02369012B40F04F814A4A63
:101A5000136823F0F803616943EAC1031360236844
:101A600013F0080F33D0A369002B5CD0434B012245
:101A7000C3F88024FFF714FC05463F4B5B6A13F064
:101A8000020F21D1FFF70CFC401B0228F5D90320DF
:101A90002FE1394A136823F0F803616943EAC1036F
:101AA0001360DCE7354B00221A60FFF7F9FB0546AF
:101AB000314B1B6813F0020FD1D0FFF7F1FB401B35
:101AC0000228F5D9032014E10120FFF701FF236864
:101AD00013F0040F00F09680274BDB6913F0805F52
:101AE00034D1254BDA6942F08052DA61DB6903F0C8
:101AF00080530193019B0125214B1B6813F4807FC8
:101B000026D0E368012B3DD0002B53D103F1804355
:101B100003F504331A6A22F001021A621A6A22F0EB
:101B200004021A6233E0154B0022C3F88024FFF749
:101B3000B7FB0546104B5B6A13F0020FC7D0FFF7E7
:101B4000AFFB401B0228F5D90320D2E00025D3E7E4
:101B50000B4A136843F480731360FFF7A1FB06463A
:101B6000074B1B6813F4807FCBD1FFF799FB801BD9
:101B70006428F5D90320BCE0001002400000424276
:101B8000007000405F4A136A43F001031362E36888
:101B900033B3FFF785FB06465A4B1B6A13F0020F5F
:101BA0002FD1FFF77DFB801B41F288339842F3D998
:101BB00003209EE0052B09D0524B1A6A22F0010245
:101BC0001A621A6A22F004021A62E0E74D4B1A6A9E
:101BD00042F004021A621A6A42F001021A62D6E75F
:101BE000FFF75EFB0646474B1B6A13F0020F08D057
:101BF000FFF756FB801B41F288339842F3D903204C
:101C000077E0E5B9E369002B72D03E4A526802F0F2
:101C10000C02082A56D0022B17D03B4B00221A6622
:101C2000FFF73EFB0446374B1B6813F0007F47D09D
:101C3000FFF736FB001B0228F5D9032059E0314A93
:101C4000D36923F08053D361DCE72F4B00221A665F
:101C5000FFF726FB05462B4B1B6813F0007F06D0D1
:101C6000FFF71EFB401B0228F5D9032041E0236A41
:101C7000B3F5803F1AD023494B6823F47413226ACA
:101C8000606A024313434B601F4B01221A66FFF741
:101C900007FB04461B4B1B6813F0007F0ED1FFF7B8
:101CA000FFFA001B0228F5D9032022E0154A5368E9
:101CB00023F40033A1680B435360DCE7002018E0F5
:101CC000002016E0012B16D00E4B5B6803F4803128
:101CD000226A914211D103F47013626A93420ED1C9
:101CE000002006E001207047012002E0012000E012
:101CF000002002B070BD0120FBE70120F9E70120C0
:101D0000F7E700BF00100240000042420F4B5B6843
:101D100003F00C02082A01D00D487047C3F3834238
:101D20000C49885C13F4803F0BD0084B5B68C3F30D
:101D30004043094AD35C064A02FB00F0B0FBF3F0D3
:101D40007047064B03FB00F0704700BF00100240D5
:101D500000127A00205700083057000800093D00A3
:101D6000002800F0A08070B50D460446524B1B6859
:101D700003F007038B420BD24F4A136823F007038B
:101D80000B431360136803F007038B4240F08D8010
:101D9000236813F0020F17D013F0040F04D0474A42
:101DA000536843F4E0635360236813F0080F04D0D2
:101DB000424A536843F460535360404A536823F0E7
:101DC000F003A1680B435360236813F0010F31D077
:101DD0006368012B20D0022B25D0384A126812F0FC
:101DE000020F64D035494A6822F0030213434B6066
:101DF000FFF756FA0646314B5B6803F00C03626846
:101E0000B3EB820F16D0FFF74BFA801B41F28833F9
:101E10009842F0D9032045E0284A126812F4003FA6
:101E2000E0D101203EE0254A126812F0007FD9D1AE
:101E3000012037E0204B1B6803F00703AB420AD9AF
:101E40001D4A136823F007032B431360136803F044
:101E50000703AB422DD1236813F0040F06D0174AB5
:101E6000536823F4E063E1680B435360236813F085
:101E7000080F07D0114A536823F46053216943EADD
:101E8000C1035360FFF742FF0C4B5B68C3F30313BE
:101E90000B4AD35CD8400B4B18600B4B1868FEF70D
:101EA0007BFF002070BD012070470120FAE7012070
:101EB000F8E70120F6E700BF0020024000100240D2
:101EC000085700080000002008000020014B186897
:101ED000704700BF0000002008B5FFF7F7FF044B74
:101EE0005B68C3F30223034AD35CD84008BD00BF3C
:101EF000001002401857000808B5FFF7E7FF044B31
:101F00005B68C3F3C223034AD35CD84008BD00BF5B
:101F100000100240185700080F2303600B4B5A684B
:101F200002F0030242605A6802F0F00282605A68CE
:101F300002F4E062C2605B68DB0803F4E063036103
:101F4000034B1B6803F007030B607047001002404F
:101F50000020024070B4036A026A22F001020262A9
:101F60004668826922F073020C6844EA020523F095
:101F700002028B6813430D4CA04209D00B4CA042C7
:101F80000DD0466085614A684263036270BC704749
:101F900023F00803CA68134323F00403EEE726F492
:101FA00040764A6932438E691643EAE7002C0140C5
:101FB00030B4036A026A22F4807202624568C26920
:101FC00022F073020C68224323F400738C6843EA06
:101FD00004230F4CA04209D00D4CA0420ED0456006
:101FE000C2614A68C263036230BC704723F4006375
:101FF000CC6843EA042323F48063EDE725F44055DD
:102000004C6945EA04158C6945EA0415E7E700BF09
:10201000002C014030B4036A026A22F4805202624A
:102020004468C26922F4E6420D6842EA052223F4BC
:1020300000538D6843EA0533074DA84206D044603B
:10204000C2614A680264036230BC704724F4804471
:102050004D6944EA8514F2E7002C014010B4036A8C
:10206000046A24F001040462846924F0F00C4CEA50
:10207000021223F00A030B438261036210BC704713
:1020800010B4036A046A24F010040462846924F41E
:10209000704C4CEA023223F0A00343EA0113826140
:1020A000036210BC7047836823F070030B4343F056
:1020B000070383607047000090F83D30DBB2012BCE
:1020C00027D1022380F83D300268D36843F0010332
:1020D000D3600368114A934210D0B3F1804F0DD002
:1020E000A2F59432934209D002F58062934205D062
:1020F0001A6842F001021A60002070479A6802F0E4
:102100000702062A07D01A6842F001021A6000206E
:102110007047012070470020704700BF002C01402D
:102120007047704770477047704710B504460368A2
:102130001A6912F0020F11D0DA6812F0020F0DD0F6
:102140006FF002021A610123037703689B6913F0A1
:10215000030F70D0FFF7E6FF0023237723681A6987
:1021600012F0040F12D0DA6812F0040F0ED06FF0E4
:1021700004021A610223237723689B6913F4407FCA
:102180005FD02046FFF7CEFF0023237723681A692C
:1021900012F0080F12D0DA6812F0080F0ED06FF0AC
:1021A00008021A61042323772368DB6913F0030F05
:1021B0004ED02046FFF7B6FF0023237723681A6925
:1021C00012F0100F12D0DA6812F0100F0ED06FF06C
:1021D00010021A61082323772368DB6913F4407F18
:1021E0003DD02046FFF79EFF0023237723681A691E
:1021F00012F0010F03D0DA6812F0010F36D1236814
:102200001A6912F0800F03D0DA6812F0800F34D10F
:1022100023681A6912F0400F03D0DA6812F0400FF9
:1022200032D123681A6912F0200F03D0DA6812F055
:10223000200F30D110BDFFF774FF2046FFF773FF6A
:102240008AE72046FFF76DFF2046FFF76CFF9BE70C
:102250002046FFF766FF2046FFF765FFACE7204604
:10226000FFF75FFF2046FFF75EFFBDE76FF001025B
:102270001A612046FEF7EEFCC1E76FF080021A619A
:10228000204600F080FAC3E76FF040021A61204652
:10229000FFF74AFFC5E76FF020021A61204600F001
:1022A00071FAC7E703681B4A90420AD0B0F1804F29
:1022B00007D0A2F59432904203D002F5806290429A
:1022C00003D123F070034A681343124A90420AD0A4
:1022D000B0F1804F07D0A2F59432904203D002F5BE
:1022E0008062904203D123F44073CA68134323F001
:1022F00080034A69134303608B68C3620B6883627F
:10230000044B984202D00123436170470B69036379
:10231000F9E700BF002C014040B310B5044690F827
:102320003D30F3B1022384F83D30214651F8040BCF
:10233000FFF7B8FF012384F8463084F83E3084F874
:102340003F3084F8403084F8413084F8423084F8DB
:10235000433084F8443084F8453084F83D30002020
:1023600010BD80F83C30FEF7DBFDDBE70120704755
:1023700040B310B5044690F83D30F3B1022384F821
:102380003D30214651F8040BFFF78CFF012384F800
:10239000463084F83E3084F83F3084F8403084F88A
:1023A000413084F8423084F8433084F8443084F873
:1023B000453084F83D30002010BD80F83C30FFF7F8
:1023C000AFFEDBE70120704730B4036A026A22F0F7
:1023D000100202624468826922F4E6420D6842EA11
:1023E000052223F020038D6843EA05130E4DA84211
:1023F00009D00D4DA8420ED0446082614A688263C4
:10240000036230BC704723F08003CD6843EA0513B4
:1024100023F04003EDE724F440644D6944EA850469
:102420008D6944EA8504E7E7002C014038B590F84F
:102430003C30012B66D004460D46012380F83C3029
:102440000C2A5AD8DFE802F0075959591B59595933
:102450003059595944000068FFF77CFD22689369A0
:1024600043F0080393612268936923F004039361A6
:102470002268936929690B43936100203EE000685C
:10248000FFF7A2FF2268936943F400639361226817
:10249000936923F48063936122689369296943EA0D
:1024A00001239361002029E00068FFF781FD226885
:1024B000D36943F00803D3612268D36923F004038E
:1024C000D3612268D36929690B43D361002015E0E9
:1024D0000068FFF79FFD2268D36943F40063D3616E
:1024E0002268D36923F48063D3612268D3692969A0
:1024F00043EA0123D361002000E00120002384F897
:102500003C3038BD0220FCE710B4846824F47F4CD2
:1025100042EA03220A4342EA0C02826010BC70477E
:1025200090F83C30012B78D010B50446012380F898
:102530003C30022380F83D300268936823F47F43E7
:1025400023F0770393600B68602B4CD029D8402B85
:1025500054D00CD9502B22D1CA6849680068FFF7C3
:102560007DFD50212068FFF79EFD002005E0202B17
:102570000DD009D9302B0AD00120012384F83D3039
:10258000002384F83C3010BD0BB1102B05D1194647
:102590002068FFF788FD0020EFE70120EDE701202C
:1025A000EBE7B3F5805F34D0B3F5005F0CD1CB68B7
:1025B0004A6889680068FFF7A7FF2268936843F4B8
:1025C000804393600020D8E7702B24D1CB684A6801
:1025D00089680068FFF798FF2268936843F07703E3
:1025E00093600020C9E7CA6849680068FFF748FDA2
:1025F00060212068FFF757FD0020BEE7CA684968E0
:102600000068FFF72BFD40212068FFF74CFD0020FC
:10261000B3E70020B1E70120AFE70220704701F0E7
:102620001F01012303FA01FC036A23EA0C0303627E
:10263000036A02FA01F10B430362704710B50446C6
:10264000084651BB94F83E30DBB2013B18BF012372
:10265000002B5BD1002839D1022384F83E300122BF
:1026600001462068FFF7DBFF23682A4A93423DD0EA
:102670002368284A93423ED0B3F1804F3BD0A2F565
:102680009432934237D002F58062934233D01A6875
:1026900042F001021A60002039E0042908D008291C
:1026A0000DD094F84130DBB2013B18BF0123CFE7D6
:1026B00094F83F30DBB2013B18BF0123C8E794F820
:1026C0004030DBB2013B18BF0123C1E7042805D02D
:1026D000082807D0022384F84130C0E7022384F899
:1026E0003F30BCE7022384F84030B8E75A6C42F42C
:1026F00000425A64BCE79A6802F00702062A07D033
:102700001A6842F001021A60002000E0012010BDAA
:102710000020FCE7002C014090F83C30012B2CD02D
:1027200010B4012380F83C30022380F83D30036868
:102730005A689C6822F0700C0A6842EA0C025A60DF
:1027400003680F4A93420AD0B3F1804F07D0A2F535
:102750009432934203D002F58062934204D124F074
:1027600080044A6814439C60012380F83D300023B4
:1027700080F83C30184610BC70470220704700BFFC
:10278000002C014070477047026802F10C0353E8C7
:10279000003F23F0C0030C3242E800310029F3D19E
:1027A000202380F841307047026802F10C0353E89F
:1027B000003F23F490730C3242E800310029F3D13A
:1027C000026802F1140353E8003F23F001031432BE
:1027D00042E800310029F3D1036B012B05D02023FF
:1027E00080F84230002303637047026802F10C0353
:1027F00053E8003F23F010030C3242E80031002977
:10280000F3D1ECE790F84130DBB2212B01D002206C
:1028100070478368B3F5805F17D0036A5A1C026261
:102820001A7803685A60C38C9BB2013B9BB2C38485
:102830004BB90268D36823F08003D3600268D36881
:1028400043F04003D360002070470369002BE4D1BC
:10285000036A1B880268C3F308035360036A0233E8
:102860000362E0E710B504460268136923F440539D
:10287000C1680B43136183680269134342691A43B9
:102880000168CB6823F4B05323F00C031343CB60EF
:102890000268536923F4407381690B4353610268F2
:1028A000134B9A4220D0FFF717FB024602EB82023D
:1028B00002EB820263689B00B2FBF3F20D48A0FBBF
:1028C00002314909642303FB11231B013233A0FBAE
:1028D00003235B0903F0F00202EB011203F00F0384
:1028E000216813448B6010BDFFF706FB0246DDE74D
:1028F000003801401F85EB512DE9F84305460F468E
:1029000016469946DDF820802C68246837EA0403CF
:102910000CBF4FF0010C4FF0000CB4452DD1B8F1B5
:10292000FF3FF1D0B8F1000F05D0FEF7B9FCA0EBE6
:1029300009004045E8D92A6802F10C0353E8003F3A
:1029400023F4D0730C3242E800310029F3D12A6815
:1029500002F1140353E8003F23F00103143242E86C
:1029600000310029F3D1202385F8413085F8423029
:10297000002385F84030032000E00020BDE8F88304
:1029800060B310B5044690F8413013B3242384F8A3
:1029900041302268D36823F40053D3602046FFF708
:1029A00061FF2268136923F490431361226853691D
:1029B00023F02A0353612268D36843F40053D360A1
:1029C00000206064202384F8413084F84230606342
:1029D00010BD80F84030FEF797FBD7E70120704725
:1029E0002DE9F04182B01E4690F84130DBB2202B39
:1029F0004BD104460D46904600294AD00AB9012021
:102A000044E000234364212380F84130FEF748FC72
:102A10000746A4F82480A4F82680A368B3F5805F55
:102A200002D04FF000080FE02369FBB14FF000081F
:102A30000AE038F8023B2268C3F308035360E28CD3
:102A400092B2013A92B2E284E38C9BB28BB10096CF
:102A50003B46002280212046FFF74EFFD8B9002DCB
:102A6000E7D015F8012B23685A60E8E7A84600254F
:102A7000EAE700963B46002240212046FFF73CFF54
:102A800058B9202384F8413000E0022002B0BDE8AC
:102A9000F0810120FAE70320F8E70320F6E72DE9AB
:102AA000F04182B01E4690F84230DBB2202B53D169
:102AB00004460D469046002952D00AB901204CE048
:102AC00000234364222280F842200363FEF7E8FBE0
:102AD0000746A4F82C80A4F82E80A368B3F5805F85
:102AE00002D04FF0000817E0236913B14FF000083F
:102AF00012E0A84600250FE023685B68C3F30803D3
:102B000028F8023B03E023685B682B700135E28DF7
:102B100092B2013A92B2E285E38D9BB2BBB10096CC
:102B20003B46002220212046FFF7E6FED0B9002DCB
:102B3000E2D0A368B3F5805FE5D013B92369002B19
:102B4000E1D023685B6803F07F032B70DEE720236E
:102B500084F84230002000E0022002B0BDE8F0819D
:102B60000120FAE70320F8E7704708B50168CA6852
:102B700022F04002CA60202280F84120FFF7F4FFD3
:102B8000002008BD7047704710B5446A23685A6931
:102B900094F84130DBB2212B10D023685A6902F03F
:102BA000400294F84230DBB2222B11D0636C43F028
:102BB000100363642046FFF7E6FF10BD02F08002B9
:102BC000002AEAD00023E3842046FFF7DDFDE4E796
:102BD000002AEBD00023E3852046FFF7E5FDE5E77B
:102BE00008B5406A0023C385C384FFF7CCFF08BD46
:102BF000704790F84230DBB2222B69D18368B3F57D
:102C0000805F4FD0826AB3F5805F04D0002B56D12D
:102C10000369002B53D103685B681370836A013327
:102C20008362C38D9BB2013B9BB2C385002B51D104
:102C300000B583B00268D36823F02003D360026834
:102C4000D36823F48073D3600268536923F00103CF
:102C50005361202380F8423000234363036B012B30
:102C600033D100230363026802F10C0353E8003FF1
:102C700023F010030C3242E800310029F3D103683D
:102C80001A6812F0100F06D0002201921A68019201
:102C90005B680193019B818DFFF7AAFF002003B0C1
:102CA0005DF804FB0269002AACD1826A03685B68A4
:102CB000C3F308031380836A02338362B1E70368B6
:102CC0005B6803F07F031370A8E7FDF7ADFFE5E74E
:102CD000022070470020704730B583B00446026878
:102CE0001368D068516913F00F0505D113F0200F58
:102CF00002D010F0200F19D12DB111F0010119D11E
:102D000010F4907F16D1216B01297DD013F0800F34
:102D100003D010F0800F40F0188113F0400F03D063
:102D200010F0400F40F0158103B030BD2046FFF792
:102D300060FFF9E713F0010F06D010F4807F03D095
:102D4000626C42F00102626413F0040F04D019B106
:102D5000626C42F00202626413F0020F04D019B1F7
:102D6000626C42F00402626413F0080F07D010F0A6
:102D7000200F00D119B1626C42F008026264626CEB
:102D8000002AD1D013F0200F02D010F0200F29D14B
:102D900023685B6903F04003626C12F0080F00D1F6
:102DA00063B32046FFF700FD23685B6913F0400F13
:102DB00020D0226802F1140353E8003F23F04003BF
:102DC000143242E800310029F3D1E36B73B1634A56
:102DD0005A63E06BFEF76CFB0028A5D0E06B436BF9
:102DE0009847A1E72046FFF704FFD1E72046FFF709
:102DF000CAFE99E72046FFF7C6FE95E72046FFF793
:102E0000C2FE002363648FE713F0100F3FF47EAF20
:102E100010F0100F3FF47AAF002301931368019371
:102E200053680193019B536913F0400F51D0E26B3B
:102E300013685B689BB2002B3FF476AFA18D99427B
:102E40007FF672AFE3859369202B37D0226802F1B9
:102E50000C0353E8003F23F480730C3242E8003146
:102E60000029F3D1226802F1140353E8003F23F054
:102E70000103143242E800310029F3D1226802F143
:102E8000140353E8003F23F04003143242E80031BA
:102E90000029F3D1202384F84230002323632268E1
:102EA00002F10C0353E8003F23F010030C3242E818
:102EB00000310029F3D1E06BFEF7D7FA02236363F8
:102EC000A18DE38D9BB2C91A89B22046FFF790FE0F
:102ED0002AE7A18DE38D9BB2C91A89B2E38D9BB21B
:102EE000002B3FF421AF00293FF41EAF226802F10E
:102EF0000C0353E8003F23F490730C3242E8003097
:102F00000028F3D1226802F1140353E8003F23F0B4
:102F10000103143242E800300028F3D1202384F862
:102F2000423000232363226802F10C0353E8003F80
:102F300023F010030C3242E800300028F3D10223C2
:102F400063632046FFF754FEEEE62046FFF75AFC87
:102F5000EAE62046FFF709FEE6E600BFE12B00089F
:102F600008B5406A01234363036B012B02D0FFF7CE
:102F700009FE08BD818D4908FFF73AFEF9E708B55B
:102F80000346406A1B681B6813F0200F2BD10023F7
:102F9000C385026802F10C0353E8003F23F48073F9
:102FA0000C3242E800310029F3D1026802F1140327
:102FB00053E8003F23F00103143242E800310029B6
:102FC000F3D1026802F1140353E8003F23F04003F9
:102FD000143242E800310029F3D1202380F8423036
:102FE000036B012B07D000234363036B012B0FD02E
:102FF000FDF71AFE08BD026802F10C0353E8003F1A
:1030000023F010030C3242E800310029F3D1EAE743
:10301000818DFFF7EDFDEDE730B583B00446134633
:103020008162828500254564222280F84220C26B9D
:103030001F489062E26B1F48D062E26B1E4810632B
:10304000E26B556320680A46011DE06BFEF7D2F97A
:10305000019523681A6801925B680193019B2369BB
:103060005BB1226802F10C0353E8003F43F4807324
:103070000C3242E800310029F3D1226802F1140336
:1030800053E8003F43F00103143242E800310029C5
:10309000F3D1226802F1140353E8003F43F04003E8
:1030A000143242E800310029F3D1002003B030BDD2
:1030B0007F2F0008612F0008892B000808B590F8C1
:1030C0004230DBB2202B08D149B10AB9012008BD3A
:1030D00000230363FFF7A0FFF9E70220F7E70120D1
:1030E000F5E7842801D0033070470020704708B509
:1030F00000F0CCFC002008BD2DE9F04387B0044669
:103100000F464569BDB18669AEB1D0F80480D0F8EC
:103110000090B0F90800FFF7E4FF029601950090D7
:103120003B4622694946404600F042FC059005981E
:1031300007B0BDE8F08365682668D4F81080B4F95C
:103140000800FFF7CEFF05AB019300903B461FFA46
:1031500088F23146284600F065FC0128E7D00020BF
:10316000E6E708B500B9012000F0DAFD002008BD4F
:1031700000F1080343604FF0FF328260C3600361D7
:1031800000230360704700230361704743684B606E
:103190009A688A605160996008610368013303602E
:1031A000704730B40D68B5F1FF3F11D000F108034E
:1031B0001C465B681A68AA42FAD963684B6099603A
:1031C0008C606160086103680133036030BC704744
:1031D0000469F2E70369416882688A604168516066
:1031E0005A68824206D0002202611A68013A1A60C7
:1031F0001868704782685A60F5E7000082B00023C3
:1032000001930D4B1B68B3F1FF3F08D04FF0500303
:1032100083F31188BFF36F8FBFF34F8FFEE74FF03B
:10322000500383F31188BFF36F8FBFF34F8F019B60
:10323000002BFCD002B070470C000020064800684C
:10324000006880F3088862B661B6BFF34F8FBFF3A2
:103250006F8F00DF00BF000008ED00E04FF08073CB
:1032600040F8043C21F0010140F8081C034B40F8F1
:103270000C3C40F8202C4038704700BFFD3100085E
:10328000074B19680868B0E8F00F80F30988BFF3AE
:103290006F8F4FF0000080F311884EF00D0E7047D5
:1032A000401900204FF0500383F31188BFF36F8F54
:1032B000BFF34F8F0B4A136801331360012B00D00B
:1032C00070474FF0E023D3F8043D13F0FF0FF7D021
:1032D0004FF0500383F31188BFF36F8FBFF34F8F0D
:1032E000FEE700BF0C000020094B1B6843B94FF0FC
:1032F000500383F31188BFF36F8FBFF34F8FFEE747
:10330000013B034A13600BB983F31188704700BF78
:103310000C00002000000000000000000000000081
:10332000EFF30980BFF36F8F0D4B1A6820E9F00FA0
:1033300010602DE908404FF0500080F3118800F034
:1033400015FD4FF0000080F31188BDE808401968B2
:103350000868B0E8F00F80F30988BFF36F8F7047FB
:103360004019002008B54FF0500383F31188BFF3D4
:103370006F8FBFF34F8F00F0CBFB28B14FF0E023EE
:103380004FF08052C3F8042D002383F3118808BD49
:103390004FF0E022002313619361054B1B68054940
:1033A000A1FB03139B09013B536107231361704782
:1033B00000000020D34D621010B582B02A4B1A785D
:1033C000D2B20192FF221A701B78DBB28DF8033063
:1033D0009DF8033003F05003244A1370244B072256
:1033E0001A6009E0224A1368013B13609DF803301C
:1033F0005B00DBB28DF803309DF8033013F0800FD3
:10340000F0D11B4B1B68032B08D04FF0500383F304
:103410001188BFF36F8FBFF34F8FFEE71B02144A73
:10342000136003F4E0631360019BDBB20E4A137078
:103430004FF0E023D3F8202D42F47002C3F8202D82
:10344000D3F8202D42F07042C3F8202DFFF7A0FFE3
:103450000024084B1C60FFF7F1FE00F087FCFFF72B
:10346000CDFE204602B010BD00E400E0200D00209B
:10347000240D00200C000020124A12F0070F1ED06D
:10348000D11D21F00701C1F5406313440A460E48DF
:103490000260002141601344083B23F007030B48FE
:1034A000036059601960991A51601360084B1960E4
:1034B000084B1960084B4FF000421A6070474FF4F8
:1034C0004063E4E72C0D002038190020280D00206F
:1034D00034190020301900202C190020154B1A46F1
:1034E0001B688342FBD3516802EB010C844509D071
:1034F000416800EB010C634509D00360904218D08D
:10350000106070474068014451601046F0E710B405
:10351000094C2468A3420AD05B68194441601368CF
:103520001B680360904200D0106010BC70470460BC
:10353000F8E7704738190020280D002070B50546BF
:1035400000F0DEFA344B1B68A3B1344B1B681D42FC
:103550004AD135B1083515F0070F02D025F007051F
:103560000835002D42D02E4B1B68AB424DD32D4A5F
:10357000146804E0FFF780FFE7E722461C46636813
:10358000AB4202D22368002BF7D1234B1B68A34226
:103590003DD0166808362368136063685B1B102BE8
:1035A00010D9601910F0070F08D04FF0500383F3C3
:1035B0001188BFF36F8FBFF34F8FFEE743606560E5
:1035C000FFF78CFF626816490B689B1A0B6016495F
:1035D00009688B4201D214490B60104B1B681343DE
:1035E00063600023236002E0002600E0002600F074
:1035F0001BFB16F0070F0CD04FF0500383F311881C
:10360000BFF36F8FBFF34F8FFEE70026EFE7002673
:10361000EDE7304670BD00BF280D00202C190020BA
:1036200030190020381900203419002080B338B533
:103630000446A0F1080550F8043C164A12681342EB
:1036400008D14FF0500383F31188BFF36F8FBFF39E
:103650004F8FFEE750F8081C41B14FF0500383F341
:103660001188BFF36F8FBFF34F8FFEE723EA02038A
:1036700040F8043C00F044FA54F8041C064A13686D
:103680000B4413602846FFF729FF00F0CDFA38BD40
:10369000704700BF2C19002030190020084B1B6810
:1036A0001B6823B9074B4FF0FF321A607047044B79
:1036B0001B68DB68DB685A68024B1A60704700BF02
:1036C000441900201C1A00202DE9F04707469846AF
:1036D000089DDDF824900A9C266B02F18042013A95
:1036E00006EB820626F007064FF0000CBCF10F0F28
:1036F0000BD811F80C2004EB0C0383F8342011F8DC
:103700000C3013B10CF1010CF0E7002384F84330C6
:10371000062D00D90625E56265644FF0000AC4F85D
:1037200048A0201DFFF72FFD04F11800FFF72BFD27
:103730002461C5F10705A5616462C4F84CA084F852
:1037400050A0424639463046FFF788FD2060B9F167
:10375000000F01D0C9F80040BDE8F08738B500245B
:1037600007E004EB840293000E481844FFF700FDC5
:103770000134062CF5D90C4D2846FFF7F9FC0B4C0B
:103780002046FFF7F5FC0A48FFF7F2FC0948FFF76F
:10379000EFFC0948FFF7ECFC084B1D60084B1C6070
:1037A00038BD00BF4C190020F0190020041A002079
:1037B000241A0020501A00203C1A0020441900202E
:1037C0004819002010B50446FFF76CFD214A136824
:1037D00001331360204B1B685BB1204B1B686BB936
:1037E0001D4B1B68DA6AE36A9A4207D81A4B1C60C1
:1037F00004E0194B1C601368012B28D0184A136889
:1038000001331360E06A01238340164A11680B43B9
:10381000136000EB8000211D134B03EB8000FFF7CA
:10382000B5FCFFF761FD0D4B1B687BB10A4B1B68B4
:10383000DA6AE36A9A4209D24FF0E0234FF08052ED
:10384000C3F8042DBFF34F8FBFF36F8F10BDFFF789
:1038500085FFD3E7D819002040190020381A00202E
:10386000E8190020EC1900204C19002010B504467E
:1038700090F8513063B1012B11D0022B0ED04FF0D4
:10388000500383F31188BFF36F8FBFF34F8FFEE7B1
:10389000006BFFF7CBFE2046FFF7C8FE10BDFFF719
:1038A000C5FEFBE70F4B1B68D3B110B5FFF7FAFC61
:1038B0000D4BDB68DC68201DFFF78CFC0B4A13689E
:1038C000013B1360074A1368013B1360FFF70CFDCF
:1038D0002046FFF7CBFF034B1B68002BE6D110BD42
:1038E000704700BFDC190020501A0020D8190020B2
:1038F00008B5FFF7D7FF074B1B68012BF9D94FF02D
:10390000E0234FF08052C3F8042DBFF34F8FBFF375
:103910006F8FEEE74C19002070B504460D461D4B25
:103920001E681D4B18680430FFF754FC50B91A4B41
:103930001B68DA6A012303FA02F218490B6823EACA
:1039400002030B60B4F1FF3F0DD03444124B1B68EF
:103950005C60A64210D9124B18680F4B19680431ED
:10396000FFF71FFC70BD002DEFD00B4B1968043121
:103970000C48FFF70BFCF5E70B4B1868064B196872
:103980000431FFF70EFC094B1B68A342EAD9074B31
:103990001C60E7E7641A002040190020EC190020A1
:1039A000481900203C1A0020441900201C1A00204D
:1039B00030B587B00B9C7CB10C9DB5B154250495F6
:1039C000049D542D1AD04FF0500383F31188BFF398
:1039D0006F8FBFF34F8FFEE74FF0500383F31188D3
:1039E000BFF36F8FBFF34F8FFEE74FF0500383F3AA
:1039F0001188BFF36F8FBFF34F8FFEE70C9D2C63D1
:103A0000022485F8514000240394029505AC0194EA
:103A10000A9C0094FFF758FE0C98FFF7D3FE059818
:103A200007B030BD2DE9F04385B0074688461446FF
:103A30001E469000FFF782FD00B381465420FFF739
:103A40007DFD0546B0B1C0F83090E5B1002385F8A2
:103A50005130039302950D9B01930C9B00933346C9
:103A6000224641463846FFF72FFE2846FFF7AAFEBA
:103A7000012005E04846FFF7D9FDE6E74FF0FF30AB
:103A800005B0BDE8F0834FF0FF30F9E710B588B01E
:103A900000240594069407AA06A905A8FCF7E4FFEC
:103AA000059B0293069B019300942346079A0E49B7
:103AB0000E48FFF77DFF0E4B186090B14FF050039A
:103AC00083F31188BFF36F8FBFF34F8F094B4FF014
:103AD000FF321A60084B01221A60084B1C60FFF786
:103AE0006BFC08B010BD00BF34570008F138000867
:103AF000181A00201C1A0020381A0020641A00200E
:103B0000024A136801331360704700BFE4190020B4
:103B1000F8B53A4B1B68002B64D1394B1D68013551
:103B20001D60C5B9374B1B681B6843B14FF050038C
:103B300083F31188BFF36F8FBFF34F8FFEE7314AD6
:103B40001168314B186810601960304A13680133EE
:103B50001360FFF7A3FD2E4B1B68AB4238D900273B
:103B60002C4B1B68DB6A03EB83039A002A4B9B58A0
:103B7000012B3CD901273AE00127224B1B681B6827
:103B800043B3204B1B68DB68DC6863689D4226D327
:103B9000261D3046FFF71EFBA36A1BB104F1180077
:103BA000FFF718FBE36A01229A401C4908680243A8
:103BB0000A6003EB83039A00314617481044FFF76D
:103BC000E5FAE26A134B1B68DB6A9A42D4D2D4E767
:103BD0000027D2E70E4B4FF0FF321A60C0E70C4AC5
:103BE0001360BDE70E4A13680133136000270D4BC5
:103BF0001B6803B101273846F8BD00BFE419002057
:103C0000641A00204419002048190020201A0020BE
:103C10001C1A0020401900204C190020EC1900202B
:103C2000E0190020681A002038B5354B1B6843B9ED
:103C30004FF0500383F31188BFF36F8FBFF34F8FA3
:103C4000FEE7FFF72FFB2E4B1A68013A1A601B683C
:103C5000002B4FD12B4B1B680BB900244BE00024E9
:103C6000294B1B681BB3284BDB68DC6804F1180088
:103C7000FFF7B0FA251D2846FFF7ACFAE06A0123EA
:103C80008340224A11680B43136000EB80002946F1
:103C90001F4B03EB8000FFF779FAE26A1D4B1B68AC
:103CA000DB6A9A42DCD31C4B01221A60D8E70CB1C4
:103CB000FFF7F4FC194B1C6884B9174B1C68D4B18E
:103CC0004FF0E0234FF08052C3F8042DBFF34F8F25
:103CD000BFF36F8F01240EE0013C07D0FFF718FF00
:103CE0000028F9D00C4B01221A60F5E70B4B00229B
:103CF0001A60E2E70024FFF7F7FA204638BD00BF5C
:103D0000E4190020D8190020241A0020EC19002002
:103D10004C19002040190020681A0020E0190020EA
:103D200010B5A8B10446104B1B6843B14FF05003C7
:103D300083F31188BFF36F8FBFF34F8FFEE7FFF759
:103D4000DFFE00212046FFF7E7FDFFF76DFF48B9D2
:103D50004FF0E0234FF08052C3F8042DBFF34F8F94
:103D6000BFF36F8F10BD00BFE4190020204B1B680C
:103D70001BB1204B01221A6070471E4B00221A60B3
:103D80001D4B1B68B3FA83F3DBB2C3F11F0303EBD4
:103D900083018A0019498A5842B94FF0500383F3CE
:103DA0001188BFF36F8FBFF34F8FFEE7134903EB0B
:103DB000830082000A4450684068506003EB830C23
:103DC0004FEA8C0208321144884209D003EB830386
:103DD0009A000A4B13445B68DA68094B1A60704713
:103DE000406862469100054A0A445060EEE700BF11
:103DF000E4190020681A0020EC1900204C1900205A
:103E000040190020016042600023038132230373C4
:103E100040F69803C3814FF44873038240F2DC53A9
:103E2000438270470000000008B5FCF7E3FA002267
:103E3000074BFCF773FC04A3D3E90023FCF76EFCEB
:103E4000FCF754FD80B208BD7B14AE47E17A943F85
:103E500000408F4010B5044608466181FFF7E4FF3B
:103E6000208110BD84B08DE80F0041B9BDF8083045
:103E7000016803EB83039A004A6304B07047042986
:103E80000AD0082911D0BDF80830009A116803EB58
:103E900083039A000A64F0E7BDF80830009A1168BD
:103EA00003EB83039A008A63E7E7BDF80830009AC2
:103EB000116803EB83039A00CA63DEE784B02DE93F
:103EC000F84308AC84E80F0007460E46FEF7B6FB41
:103ED000DDF834900E9D29464846FEF7AFFBDDF82D
:103EE0004880139C21464046FEF7A8FB002E53D184
:103EF00040F69800FFF798FF3B6800EB80008000D9
:103F00005863002D6AD140F69800FFF78DFFD9F86D
:103F1000003000EB800080005863002C40F083806C
:103F200040F69800FFF780FFD8F8003000EB8000E3
:103F30008000586340F6B830FFF713F9002E40F0C8
:103F4000978040F2DC50FFF76FFF3B6800EB80008A
:103F500080005863002D40F0AD8040F69800FFF7D8
:103F600063FFD9F8003000EB800080005863002C1C
:103F700040F0C58040F69800FFF756FFD8F80030B3
:103F800000EB80008000586340F6B830FFF7E9F896
:103F9000BDE8F84304B07047042E0BD0082E13D0B0
:103FA00040F69800FFF740FF3B6800EB8000800080
:103FB0001864A6E740F69800FFF736FF3B6800EB71
:103FC0008000800098639CE740F69800FFF72CFF84
:103FD0003B6800EB80008000D86392E7042D0CD092
:103FE000082D15D040F69800FFF71EFFD9F80030D5
:103FF00000EB8000800018648FE740F69800FFF720
:1040000013FFD9F8003000EB80008000986384E74C
:1040100040F69800FFF708FFD9F8003000EB800069
:104020008000D86379E7042C0CD0082C15D040F61A
:104030009800FFF7F9FED8F8003000EB8000800010
:10404000186477E740F69800FFF7EEFED8F80030E6
:1040500000EB8000800098636CE740F69800FFF763
:10406000E3FED8F8003000EB80008000D86361E701
:10407000042E0BD0082E13D040F2DC50FFF7D4FEF4
:104080003B6800EB80008000186463E740F2DC507E
:10409000FFF7CAFE3B6800EB80008000986359E799
:1040A00040F2DC50FFF7C0FE3B6800EB8000800070
:1040B000D8634FE7042D0CD0082D15D040F698009A
:1040C000FFF7B2FED9F8003000EB800080001864E2
:1040D0004DE740F69800FFF7A7FED9F8003000EB57
:1040E00080008000986342E740F69800FFF79CFE4E
:1040F000D9F8003000EB80008000D86337E7042C4B
:104100000CD0082C15D040F69800FFF78DFED8F89B
:10411000003000EB80008000186435E740F698001E
:10412000FFF782FED8F8003000EB80008000986333
:104130002AE740F69800FFF777FED8F8003000EB4A
:1041400080008000D8631FE720B94FF08072034BD6
:104150001A6170474FF48072F9E700BF000C01400C
:1041600008B50120FFF7F0FF01224FF4007102486B
:10417000FDF79EFB08BD00BF000C014010B50A4CC6
:1041800001224FF400712046FDF792FB0120FFF75A
:10419000DBFF00224FF400712046FDF789FB002071
:1041A000FFF7D2FF10BD00BF000C014010B5084C56
:1041B00000224FF400712046FDF77AFB0120FFF743
:1041C000C3FF01224FF400712046FDF771FB10BDC3
:1041D000000C014038B5054600240FE08022224142
:1041E0002A404FF400710A48FDF762FB0120FFF7F7
:1041F000ABFF0020FFF7A8FF0134E4B2072CEDD994
:104200000120FFF7A1FF0020FFF79EFF38BD00BF90
:10421000000C014010B50446FFF7B0FF7820FFF70F
:10422000D9FF0020FFF7D6FF2046FFF7D3FFFFF7A7
:10423000BDFF10BD10B50446FFF7A0FF7820FFF7C3
:10424000C9FF4020FFF7C6FF2046FFF7C3FFFFF777
:10425000ADFF10BD10B50C4640F0B000FFF7DAFF1F
:10426000200940F01000FFF7D5FF04F00F00FFF722
:10427000D1FF10BD38B5002509E00020FFF7DAFFB7
:104280000134E4B214F0800FF7D00135EDB2072D00
:1042900005D800212846FFF7DDFF0024F2E738BDEE
:1042A000F8B51546461E7600F6B24F1EFF00FFB267
:1042B00039463046FFF7CEFF002409E0A5F1200380
:1042C0000F4A02EB0313185DFFF7B4FF0134E4B2A9
:1042D000072CF3D9701C3946C0B2FFF7BBFF00248E
:1042E0000BE0A5F1200304F10802054901EB0313DB
:1042F000985CFFF79FFF0134E4B2072CF1D9F8BDB9
:104300003C570008F8B507460E461546002406E05F
:10431000A119C9B23846FFF7C3FF0134E4B22A5DE0
:10432000002AF5D1F8BD08B5002204E00133B3F549
:104330007A7FFBD30132B2F57A7F01D20023F6E710
:10434000FFF70EFFAE20FFF765FFD520FFF762FFF6
:104350008020FFF75FFFA820FFF75CFF3F20FFF7FB
:1043600059FFD320FFF756FF0020FFF753FF4020EF
:10437000FFF750FFA120FFF74DFFC820FFF74AFFCE
:10438000DA20FFF747FF1220FFF744FF8120FFF7F5
:1043900041FFCF20FFF73EFFD920FFF73BFFF12081
:1043A000FFF738FFDB20FFF735FF3020FFF732FF44
:1043B000A420FFF72FFFA620FFF72CFF8D20FFF78B
:1043C00029FF1420FFF726FFAF20FFF723FFFFF799
:1043D00051FF08BD38B504461046236061600025D2
:1043E00065812281256100F0D5F8E0602575637D47
:1043F00065F300036375DBB265F34103637538BD94
:1044000010B50446014651F8140B0122FEF756FE82
:104410006068FDF751FE10BD437D13F0020F01D11E
:104420000120704710B5044640F2E7334289C16865
:104430000068FEF7D5FA637D6FF3410363750020D2
:10444000608110BD08B5054B1860054B1868002346
:1044500002221946806800F0C1FB08BD6C1A0020DA
:104460001000002010B5013801280AD814464FF07A
:10447000FF3392B207480068FEF7B2FA40B920460F
:1044800010BD00F05DF8092303604FF0FF30F7E73F
:104490000520F5E76C1A002008B500F051F8092353
:1044A00003604FF0FF3008BD08B548B94FF0FF3347
:1044B000012208480068FEF7F2FA40B9012008BD61
:1044C00000F03EF8092303604FF0FF30F7E70520C6
:1044D000F5E700BF6C1A002008B5022804D84FF495
:1044E00000534B60002008BD00F02AF80923036048
:1044F000F8E70000FCF7DBFC0B480C490C4A0023F2
:1045000002E0D458C4500433C4188C42F9D3094A89
:10451000094C002301E013600432A242FBD300F0F7
:1045200015F8FCF7F9FB7047000000205408002044
:104530003C5D000854080020B81A0020FEE7000087
:10454000014B1868704700BF1000002070B50D4E79
:104550000D4D761BB61006D0002455F8043B0134EF
:104560009847A642F9D1094E094D01F093F8761B00
:10457000B61006D0002455F8043B01349847A642F3
:10458000F9D170BD305D0008305D0008385D00086D
:10459000305D0008024B0146186800F003B800BF08
:1045A000100000202DE9F04F01F10B05162D0646F5
:1045B00083B025D8102900F2B88000F0F1FA102558
:1045C00018224FF0020CB54F3A445368A2F108018B
:1045D0008B4200F0B7805A68D96822F003021A446F
:1045E0009C683046E1608C60516803F1080441F03A
:1045F0000101516000F0DAFA204603B0BDE8F08F07
:1046000035F0070500F19180A94200F28E8000F09C
:10461000C7FAB5F5FC7FC0F094816B0A00F08C807E
:10462000042B00F26A81AB0903F1390C03F1380461
:104630004FEACC00994F384443680838984206D175
:104640000CE0002980F22681DB68984206D05A6887
:1046500022F00302511B0F29F3DDA4463C69DFF869
:1046600040E274457AD0626822F00302531B0F2B9C
:1046700000F37681002BC7E904EE80F26781B2F582
:10468000007F80F019810121D30852090B44914029
:104690007A6857F833000A4307EBC3010839A06072
:1046A000E1607A6047F83340C46001214FEAAC030F
:1046B0009940914259D8114206D12CF0030C49007F
:1046C00011420CF1040CFAD007EBCC0948466446C1
:1046D000D0F80C80404508D11CE1002B80F22181EC
:1046E000D8F80C80404500F01581D8F8042022F05D
:1046F0000302531B0F2BF0DD08EB050145F001050C
:10470000C8F804503046D8E90264F460A66043F06B
:104710000104C7E904114C60C1E902EE48F8023017
:1047200000F044FA08F1080402E00C23002433608E
:10473000204603B0BDE8F08F4FF400704FF0400CFE
:104740003F2477E7D3689A4208BF0CF1020C7FF44C
:1047500042AF3C69DFF848E1744584D101217A68B1
:104760004FEAAC0399409142A5D9BC68636823F035
:1047700003094D4503D8A9EB05030F2B7ADCDFF8BD
:1047800024B1494BDBF800201B6801322B4404EBB9
:10479000090A00F02F8103F580530F3323F47F685B
:1047A00028F00F084146304600F006FA411C024648
:1047B00000F0EF80824500F2EA803C4B19684144EA
:1047C0000846196000F04981DBF8001001930131BF
:1047D0001BBFA2EB0A0A5044CBF80020186012F06D
:1047E000070B00F01181CBF108010A44CBF5805191
:1047F00090440831A1EB0801C1F30B0A5146304641
:10480000009200F0D9F9421CDDE9002300F04B8151
:10481000801A00EB0A08196848F001005144BC42B4
:10482000BA601960506000F02481B9F10F0F40F2B6
:1048300022814FF0050E6068A9F10C0C2CF0070CDA
:1048400000F0010040EA0C006060BCF10F0F04EBC7
:104850000C00C0E901EE00F22E8114465068144BA2
:104860001A688A4238BF1960124B1A688A4238BFE8
:10487000196090E0621943F0010345F0010565609D
:104880003046BA600834536000F090F9204603B017
:10489000BDE8F08FD9681A44A2E600BF40040020AA
:1048A0004804002048080020A01A0020701A0020A8
:1048B000981A00209C1A0020B2F5206F4FEA52236C
:1048C0005FD3142B00F2B18003F15C01C9005B33AC
:1048D000781879580838884200F08F804B6823F0A8
:1048E0000303934202D989688842F7D1C8687A687D
:1048F000C4E902108460CC60D7E6142B59D9542B3C
:1049000000F29B802B0B03F16F0C03F16E044FEA56
:10491000CC008FE60134A30700F108007FF4D8AE85
:1049200053E0444642445368D8F80C1043F0010366
:10493000536054F8083F3046D9608B6000F036F978
:10494000F6E64FEAD50C05F108023CE6224453682E
:10495000304643F00103536000F028F90834E7E6DD
:10496000611945F00105656043F00105C7E90411CF
:104970003046C1E902EE4D60A35000F017F908344B
:10498000D6E6930903F13901C9003833A0E7BC42E8
:104990005ED0BC68606820F003084545A8EB0503BD
:1049A00002D80F2B3FF766AF304600F0FFF8002427
:1049B000BEE603F15C0C03F15B044FEACC0039E680
:1049C00059F808394B4540F095801CF0030F0CF165
:1049D000FF3CF5D17B6823EA01037B6049009942E3
:1049E0003FF6C3AE11B9C0E6490004341942FBD00A
:1049F000A44669E603F11008D4E601229B109A4010
:104A00007B681A437A6073E702EB08014942C1F3FD
:104A10000B0A51463046009200F0CEF8431CDDE907
:104A200000237FF4F5AEDA46F5E6542B26D8130BB7
:104A300003F16F01C9006E334AE7B3F5AA7F26D8A8
:104A4000EB0B03F1780C03F177044FEACC00F1E5AE
:104A5000294B186840441860B6E6CAF30B0CBCF149
:104A6000000F7FF4B1AEBC68C84448F0010060603C
:104A7000F5E61446F3E60123536095E7B3F5AA7F04
:104A800024D8D30B03F17801C900773320E740F233
:104A90005452934224D8AB0C03F17D0C03F17C04F7
:104AA0004FEACC00C6E5ABF1080BD8444FF0000A42
:104AB000A8EB0208AFE604F108013046009300F0CD
:104AC00033FBBC68009B60681968C8E640F254512B
:104AD0008B420BD8930C03F17D01C9007C33F7E6C0
:104AE0004FF47E704FF07F0C7E24A3E54FF47E716F
:104AF0007E23EDE67B6871E7701A0020830730B5EE
:104B000048D0541E002A3FD00346CAB201E0013CFF
:104B10003AD303F8012B9D07F9D1032C2DD9CDB23F
:104B200045EA05250F2C45EA054536D9A4F11002C2
:104B300022F00F0C03F1200EE6444FEA121C03F1A1
:104B4000100242E9045542E9025510327245F8D18B
:104B50000CF1010214F00C0F03EB021204F00F0C25
:104B600013D0ACF1040323F003030433134442F8DD
:104B7000045B9342FBD10CF003042CB1CAB21C4479
:104B800003F8012B9C42FBD130BD64461346002C38
:104B9000F4D1F9E703461446BFE71A46A446E0E716
:104BA000014800F0E9BB00BFA81A0020014800F04E
:104BB000E5BB00BFA81A0020002238B5064D044608
:104BC00008462A60FCF752F9431C00D038BD2B6818
:104BD000002BFBD0236038BDB41A00202DE9F04330
:104BE000694C0E46D4F80080174604461D4683B033
:104BF000B8F1000F03D0D8F83830002B77D0022F4F
:104C000005D0012F00F2AC80002DC0F2A980636EA8
:104C1000DA0752D52146404600F05AF9216B41B1DE
:104C200004F14003994202D0404600F07DFA00238F
:104C300023630023B4F90CC0A3611CF0800F6360F0
:104C400064D12CF44A6C2CF0030C022FA4F80CC095
:104C50006AD001AB214640466A4600F091FBA38929
:104C60001843A081002D2FD0002E2ED0D8F8383038
:104C7000002B38D0009BC4E90465AB42B4F90C307A
:104C800026601CBF43F40063A381012F04BF43F0DF
:104C90000103A3819AB213F008032CD0D1075DD58C
:104CA00000216D42A561656EA16015F0010527D058
:104CB0000025284603B0BDE8F083A3899B05A9D44D
:104CC000A06D00F059FBA5E7009D2846FFF762FCA8
:104CD0000646002847D0A38943F08003A381D8F873
:104CE0003830002BC6D1404600F026F9C2E74046D6
:104CF00000F022F983E7A360656E15F00105D7D1B6
:104D0000930524D5284603B0BDE8F08340462169C9
:104D100000F00AFAB4F90CC0022F2CF44A6C2CF003
:104D2000030CA4F80CC094D100250021012204F149
:104D3000430323602361636E4CF0020CD807A4F890
:104D40000CC0A1606261DDD41CF4007FDAD1A06DDB
:104D500000F014FB284603B0BDE8F083A560CBE764
:104D60004FF0FF35CEE7DDF80090A94504D0484666
:104D7000FFF710FC064620B94FF0FF35B4F90CC020
:104D8000D3E74D46A7E700BF10000020024B13B148
:104D9000024800F005B87047000000005D500008B0
:104DA000002301461A46184600F076BBB1F90C20E4
:104DB000F8B50C461107074643D4636842F4006215
:104DC000002BA2815BDDA56A002D56D000233E6832
:104DD0003B6093B212F4805255D101233846E16909
:104DE000A847421C65D0A389A56A5B0705D56368FF
:104DF000C01A236B0BB1E36BC01A0246E1690023B2
:104E00003846A847411C40D13B68002B3DD01D2BA4
:104E100001D0162B54D10022A38923F40063A3816F
:104E20002369C4E90032216B3E6031B304F14003D1
:104E3000994202D0384600F077F9002318462363E0
:104E4000F8BD2669CEB193B29A0718BF0023256832
:104E500008BF63692660AD1BA3600CE02B46324699
:104E6000D4F824C03846E169E047B0F1000CA5EB66
:104E70000C05664416DD002DF0DC0020F8BDE36B68
:104E8000002BA0DCF9E7206DAFE70022B4F90C306D
:104E9000626023F400632269A381DB042260C2D52F
:104EA0002065C0E7A3894FF0FF3043F04003A381A2
:104EB000F8BD3B68002B96D01D2B06D0162B04D0D6
:104EC000A38943F04003A381F8BD00203E60F8BDF4
:104ED00038B505460C4608B1836BA3B1B4F90C0094
:104EE000B8B1636EDB0701D4810515D5284621468C
:104EF000FFF75CFF636E0546DA0702D4A3899B05C2
:104F00000ED5284638BD00F017F8B4F90C0000287B
:104F1000E7D10546284638BDA06D00F02DFAE5E73B
:104F2000A06D00F02BFA284638BD00BF014900F003
:104F3000FBB900BF495500082DE9F04782463948C2
:104F400000F01AFADAF83840002C66D10423032264
:104F50003549DAF80450CAF83C10DFF8D090DFF891
:104F6000D080344F344E0AF53B71CAE9B921CAF8F2
:104F7000E0422146EB600822C5E90044C5E904444B
:104F80006C66AC60AC6105F15C00FFF7B7FDC5E98C
:104F90000759C5E90987EE6205F1580000F0E8F904
:104FA000DAF80850254B2146EB600822C5E9004499
:104FB000C5E904446C66AC60AC6105F15C00FFF7C8
:104FC0009DFDC5E90759C5E90987EE6205F158005D
:104FD00000F0CEF9DAF80C50194B2146EB600822AC
:104FE000C5E90044C5E904446C66AC60AC6105F1F8
:104FF0005C00FFF783FD05F15800C5E90759C5E9D5
:105000000A76C5F8248000F0B3F901230548CAF8F0
:105010003830BDE8F04700F0B1B90248BDE8F047CC
:1050200000F0ACB9B01A00202D4F0008E153000881
:1050300005540008455400086554000809000100A3
:1050400012000200014800F097B900BFAC1A00201E
:10505000014800F093B900BFAC1A002038B5084BE6
:10506000084D5B1B9C1007D0043B1D44013C55F8C8
:1050700004399847002CF9D1BDE8384000F010BB46
:105080003C5D0008385D0008F8B50C46234F064625
:10509000FFF786FDBB685D68C4F57E6325F00305F8
:1050A0000F332B4423F47F6323F00F03A3F58054C5
:1050B000B4F5805F07DB00213046FFF77DFDBB685C
:1050C0002B44984204D03046FFF770FD0020F8BD15
:1050D00030466142FFF770FD01300DD0104ABB68C9
:1050E0002D1B45F001055D60136830461B1B1360E6
:1050F000FFF75CFD0120F8BD00213046FFF75CFDA5
:10510000BA68831A0F2BDEDD43F001035360054BB1
:1051100003491B68C01A0860D5E700BF400400209F
:10512000701A00204808002000295ED0F8B50C460F
:105130000646FFF735FD54F8042C784FA4F1080516
:1051400022F001016818D7F808C04368844523F0AD
:10515000030300F08780D207436034D454F8082C4E
:1051600007F10804AD1A1144AA68A24268D000EB06
:10517000030CDCF804E0D5F80CC01EF0010FC2F8F7
:105180000CC0CCF8082000F0918041F001036B6066
:105190000160B1F5007F31D24A09CB08012191406D
:1051A0007A6801331143796007EBC30257F8331073
:1051B000083AC5E9021247F83350CD603046BDE8E1
:1051C000F840FFF7F3BCC2185268D2070ED4194456
:1051D00007F108048368A34270D0C268DA60936064
:1051E00041F001036B606950D3E7704741F0010360
:1051F000B1F5007F44F8043C0160CDD3B1F5206FD8
:105200004FEA512347D28B0903F1390003F13802E9
:10521000C300F818FB580838984258D05A6822F052
:1052200003028A4202D99B689842F7D1D868C5E93F
:10523000023085603046DD60BDE8F840FFF7B6BC5F
:10524000C2185268D20763D40B44D0E90212CA6074
:10525000916043F001026A603046EB50BDE8F840CF
:10526000FFF7A4BC0B44D10707D454F8082CAD1A9F
:105270001344D5E90212CA60916043F001026A60EA
:10528000274ABD6012689A4298D8264B3046196862
:10529000FFF7FAFE92E7142B0AD9542B1FD80B0BF9
:1052A00003F16F0003F16E02C300B2E7194491E706
:1052B00003F15C0003F15B02C300AAE741F00103C4
:1052C000C7E90455C5E902446B60695076E70121DE
:1052D000921001FA02F279680A437A60A7E7B3F5FF
:1052E000AA7F06D8CB0B03F1780003F17702C30045
:1052F0008FE740F25452934206D88B0C03F17D00A5
:1053000003F17C02C30084E74FF47E737E2280E7C2
:1053100041F001036B60016050E700BF40040020D2
:105320004C080020A01A00202DE9F8434FF0000996
:105330000746884600F53876D6E90154013D10D479
:10534000A389013D012B08D9B4F90E30013304D0F3
:1053500021463846C04749EA00096B1C04F168043D
:10536000EED13668002EE7D14846BDE8F88300BF8D
:10537000704700BF704700BF704700BF704700BF55
:1053800070B50C46B1F90E10154600291E4696B0B0
:1053900014DB6A4600F03EF900280FDB019A4FF457
:1053A000806302F47042A2F50052B2FA82F24FF426
:1053B0000060520932602B6016B070BD0023B4F952
:1053C0000C10336011F0800004D0402218462A608F
:1053D00016B070BD4FF480632B6016B070BD00BF77
:1053E00010B50C46B1F90E1000F03EF9002803DBB1
:1053F000236D0344236510BDA38923F48053A38147
:1054000010BD00BF2DE9F0410C46B1F90C101F464C
:10541000CB05054616460BD421F48051A1813B46AD
:1054200032462846B4F90E10BDE8F04100F01EB82F
:10543000B4F90E100223002200F000F9B4F90C10A8
:10544000EAE700BF10B50C46B1F90E1000F0F6F80F
:10545000A389421C0EBF23F4805343F4805320657C
:10546000A38110BDB1F90E1000F05CB838B50C4640
:10547000114600228446074D20462A601A4664469B
:10548000FEF7F0FF431C00D038BD2B68002BFBD08B
:10549000236038BDB41A00202DE9F047DFF87CA066
:1054A0000646DAF8000098460F469146FFF764FF7B
:1054B0001B4B1B68D3F8484124B365681F2D26DCBD
:1054C0005EB96B1C0235DAF80000636044F82570A1
:1054D000FFF754FF0020BDE8F087012304EB8501AE
:1054E000C1F88890D4F88821AB401A43022EC4F842
:1054F0008821C1F80881E4D1D4F88C211343C4F881
:105500008C31DEE703F5A674C3F84841D5E7DAF835
:105510000000FFF733FF4FF0FF30DCE750080020BA
:105520002C5D0008002238B5064D044608462A6066
:10553000FBF7BAFC431C00D038BD2B68002BFBD016
:10554000236038BDB41A002070B500294BD0064640
:105550000C4610B1836B002B48D0636ED80734D54E
:10556000B4F90C30002B3ED021463046FFF71EFC2C
:10557000E36A054633B13046E16998470028B8BF71
:105580004FF0FF35A3891A063BD4216B41B104F1DA
:105590004003994202D03046FFF7C6FD0023236343
:1055A000616C21B13046FFF7BFFD00236364FFF754
:1055B00049FD0022636EA281DB0727D5A06DFFF7AE
:1055C000D9FEFFF745FD284670BDA3899905CBD4C8
:1055D000A06DFFF7D1FEB4F90C30002BC4D1656E7D
:1055E00015F0010508D00025284670BDFFF7A4FC82
:1055F000636ED807B4D4E8E7A06DFFF7BFFE284676
:1056000070BD30462169FFF78FFDBEE7A06DFFF743
:10561000B5FED3E770B50026074D0446084611468F
:105620002E60FEF759FF431C00D070BD2B68002B85
:10563000FBD0236070BD00BFB41A002038B50C4603
:10564000114600228446074D20462A601A466446C9
:10565000FEF722FF431C00D038BD2B68002BFBD087
:10566000236038BDB41A002038B50C46114600221C
:105670008446074D20462A601A466446FEF714FF0A
:10568000431C00D038BD2B68002BFBD0236038BDF5
:10569000B41A0020F8B500BFF8BC08BC9E4670479D
:0C56A000F8B500BFF8BC08BC9E4670477F
:1056AC00E45600087109000800000000000000002A
:1056BC00800000000000000000000000F056000810
:1056CC00250A0008FDFF000000000000800100001A
:1056DC00000000000000000064656661756C745485
:1056EC0061736B006D795461736B30320000000094
:1056FC0042656175746966756C21000000000000DC
:10570C000000000001020304060708090000000065
:10571C000102030402030405060708090A0B0C0D19
:10572C000E0F10100102000049444C45000000000F
:10573C00000000000000000000000000000000005D
:10574C00000000F8000000000000003330000000F2
:10575C0000100C06100C06000000000000000000F9
:10576C0040C07840C0784000043F04043F0404006B
:10577C00007088FC08300000001820FF211E00007B
:10578C00F008F000E018000000211C031E211E0090
:10579C0000F00888700000001E2123241927211016
:1057AC0010160E00000000000000000000000000B9
:1057BC00000000E018040200000000071820400060
:1057CC0000020418E0000000004020180700000050
:1057DC00404080F0804040000202010F01020200B4
:1057EC00000000F0000000000101011F0101010098
:1057FC00000000000000000080B0700000000000FD
:10580C000000000000000000000101010101010185
:10581C00000000000000000000303000000000001C
:10582C0000000000806018040060180601000000F1
:10583C0000E010080810E000000F102020100F00EE
:10584C00001010F8000000000020203F2020000075
:10585C0000700808088870000030282422213000CD
:10586C0000300888884830000018202020110E00D5
:10587C000000C02010F8000000070424243F24007E
:10588C0000F80888880808000019212020110E0053
:10589C0000E0108888180000000F112020110E0065
:1058AC0000380808C83808000000003F000000005D
:1058BC000070880808887000001C222121221C001E
:1058CC0000E010080810E0000000312222110F0047
:1058DC00000000C0C00000000000003030000000DC
:1058EC00000000800000000000008060000000004C
:1058FC000000804020100800000102040810200065
:10590C0040404040404040000404040404040400AF
:10591C000008102040800000002010080402010044
:10592C00007048080808F000000000303601000044
:10593C00C030C828E810E0000718272423140B00F7
:10594C000000C038E0000000203C23020227382071
:10595C0008F8888888700000203F202020110E0055
:10596C00C03008080808380007182020201008004C
:10597C0008F808080810E000203F202020100F0035
:10598C0008F88888E8081000203F20202320180001
:10599C0008F88888E8081000203F20000300000069
:1059AC00C03008080838000007182020221E02000A
:1059BC0008F808000008F808203F210101213F20C9
:1059CC00000808F8080800000020203F20200000F4
:1059DC0000000808F8080800C08080807F000000E4
:1059EC0008F888C028180800203F2001263820001D
:1059FC0008F8080000000000203F20202020300084
:105A0C0008F8F800F8F80800203F003F003F20009D
:105A1C0008F830C00008F808203F200007183F00A5
:105A2C00E01008080810E0000F10202020100F00D4
:105A3C0008F808080808F000203F210101010000C7
:105A4C00E01008080810E0000F18242438504F000C
:105A5C0008F8888888887000203F2000030C3020CC
:105A6C0000708808080838000038202121221C000A
:105A7C00180808F8080818000000203F2000000053
:105A8C0008F808000008F808001F202020201F003C
:105A9C000878880000C83808000007380E0100009C
:105AAC00F80800F80008F800033C0700073C030066
:105ABC00081868808068180820302C03032C3020CC
:105ACC000838C800C83808000000203F200000003B
