:020000040800F2
:1000000000500020795A0008AD050008AF0500082F
:10001000B1050008B3050008B505000800000000A0
:10002000000000000000000000000000B70500080C
:10003000B905000800000000BB050008BD05000868
:10004000C15A0008C15A0008C15A0008C15A000824
:10005000C15A0008C15A0008C15A0008C15A000814
:10006000C15A0008C15A0008C15A0008C15A000804
:10007000C15A0008C15A0008C5050008C15A000845
:10008000D5050008E5050008C15A0008C15A000856
:10009000C15A0008C15A0008C15A0008C15A0008D4
:1000A000C15A0008C15A0008C15A0008C15A0008C4
:1000B000F5050008C15A0008C15A0008C15A0008D5
:1000C000C15A000805060008C15A0008C15A0008B4
:1000D000C15A0008C15A000815060008C15A000894
:1000E000C15A0008C15A0008C15A000800000000A7
:1000F0000000000000000000000000000000000000
:0C01000000000000000000005FF808F1A3
:10010C0010B5054C237833B9044B13B10448AFF345
:10011C0000800123237010BD4C080020000000005B
:10012C004C77000808B5034B1BB103490348AFF3E8
:10013C00008008BD00000000500800204C7700082B
:10014C00844641EA000313F0030349D1403A23D318
:10015C000B6803604B6843608B688360CB68C3603B
:10016C000B6903614B6943618B698361CB69C36123
:10017C000B6A03624B6A43628B6A8362CB6AC3620B
:10018C000B6B03634B6B43638B6B8363CB6BC363F3
:10019C0040304031403ADBD230320BD30B68036035
:1001AC004B6843608B688360CB68C3601030103140
:1001BC00103AF3D20C3205D351F8043B40F8043B0F
:1001CC00043AF9D2043208D0D2071CBF11F8013B13
:1001DC0000F8013B01D30B8803806046704700BFD9
:1001EC00082A13D38B07B1D010F00303AED0C3F1A0
:1001FC000403D21ADB071CBF11F8013B00F8013BCA
:10020C00A4D331F8023B20F8023B9FE7043AD9D340
:10021C00013A11F8013B00F8013BF9D20B7803705D
:10022C004B7843708B7883706046704700B583B011
:10023C00124B5A6942F001025A615B6903F00103E7
:10024C000193019B002211460E2000F085FC0E202C
:10025C0000F0BAFC00221146102000F07DFC1020AA
:10026C0000F0B2FC00221146112000F075FC1120A8
:10027C0000F0AAFC03B05DF804FB00BF00100240C4
:10028C002DE9F04188B00024049405940694079459
:10029C00294B9A6942F010029A619A6902F0100295
:1002AC000092009A9A6942F020029A619A6902F0CF
:1002BC0020020192019A9A6942F004029A619A69A9
:1002CC0002F004020292029A9A6942F008029A61C0
:1002DC009B6903F008030393039BDFF860802246BD
:1002EC004FF40051404600F046FF154E22460121C6
:1002FC00304600F040FF4FF4005304930125059560
:10030C0006940227079704A9404600F01BFE0495AB
:10031C0005950694079704A9304600F013FE4FF498
:10032C00E04304930594069504A9064800F00AFEE0
:10033C0008B0BDE8F08100BF001002400010014081
:10034C0000080140000C014008B50B480B4B036042
:10035C000B4B436000238360C3604FF48042026107
:10036C0043618361C361036201F074FA00B908BD93
:10037C0000F066F8FBE700BFAC0800200058004016
:10038C00801A060030B587B00023029303930493C0
:10039C0005930268214B9A4201D007B030BD044648
:1003AC001F4DAB6943F00803AB61AB6903F0080365
:1003BC000093009B4FF44063029312230393032397
:1003CC00059302A9174800F0BDFDEB6943F48003C7
:1003DC00EB61EB6903F480030193019B1248134B0F
:1003EC00036010234360002383608022C26003619A
:1003FC0043618361C36100F01FFC58B90A4B63630E
:10040C005C6200221146212000F0A6FB212000F0A6
:10041C00DBFBC2E700F014F8F0E700BF0058004027
:10042C0000100240000C014068080020440002400B
:10043C0008B5024805F0CAFE08BD00BF6477000885
:10044C0072B6FEE700B591B02822002106A805F08F
:10045C0011FE00230193029303930493059301224D
:10046C0006924FF4803307930A9202220D920E9358
:10047C004FF4E0130F9306A802F00AF980B90F238A
:10048C00019302210291002303934FF480620492A2
:10049C00059301A802F02EFB20B911B05DF804FB06
:1004AC00FFF7CEFFFFF7CCFF08B500F01FFB22488B
:1004BC0005F016FAFFF7C6FFFFF7E2FEFFF7B6FEF0
:1004CC0000F09CF900F00AF900F026FA00F00AFAA4
:1004DC00FFF73AFF194D284602F09AFC184C194BBD
:1004EC0064222946204605F00FF9204605F01CF938
:1004FC00FA2004F067FD144C204605F0D9F905F0FC
:10050C00AFF8124B124A1349204604F02DFF104944
:10051C00104805F069F84FF400510F4800F031FE17
:10052C00642004F04FFD064B9B7DDBB2012BEED11A
:10053C00034805F005F9EAE7EC0A00201C0A002044
:10054C00B4090020340B002020090020A0770008FB
:10055C001C090020000900200010014082B00E4B45
:10056C009A6942F001029A619A6902F001020092C2
:10057C00009ADA6942F08052DA61DB6903F0805349
:10058C000193019B054A536823F0E06343F0007329
:10059C00536002B0704700BF0010024000000140E1
:1005AC00FEE7FEE7FEE7FEE7FEE7704770477047A1
:1005BC0008B500F0ADFA08BD08B5024800F01CFC07
:1005CC0008BD00BF6808002008B5024800F014FC04
:1005DC0008BD00BF640A002008B5024800F00CFCFE
:1005EC0008BD00BFA80A002008B5024802F049FC6B
:1005FC0008BD00BF1C0A002008B5024801F062FFCC
:10060C0008BD00BFAC08002008B5024803F0BEF9D5
:10061C0008BD00BF340B002008B50368B3F1804F50
:10062C0000D008BD0F4B5B7DDBB2012B0BD00E4A0B
:10063C001388591C1180012BF3D904F05DFF0A4B70
:10064C0000221A80EDE7074B5B89084A1288934217
:10065C0002D0064A1380EAE7024B01229A75002267
:10066C005A75E4E7B4090020CC090020CE0900201B
:10067C000268074B9A4200D07047064B01225A750C
:10068C00D9685A89187D88545A8901325A81F3E7FE
:10069C0000440040B409002008B503460B4A126818
:1006AC0042B10A4A106803446A46934206D8074A84
:1006BC00136008BD054A06491160F2E705F0FCF924
:1006CC000C2303604FF0FF30F3E700BFD00900208C
:1006DC00281000204FF0FF307047704700B587B0EE
:1006EC0000230293039304930593009301931648FC
:1006FC004FF08042026040F2CF224260836040F2B1
:10070C00E732C2600361836102F0B2FC90B94FF42E
:10071C008053029302A90C4802F0AEFD68B9002385
:10072C00009301936946084802F026FE40B907B0D1
:10073C005DF804FBFFF784FEE9E7FFF781FEEEE7C7
:10074C00FFF77EFEF3E700BF1C0A002000B583B064
:10075C000368144A934205D0B3F1804F0DD003B017
:10076C005DF804FB104B9A6942F400629A619B6934
:10077C0003F400630093009BF1E703F50433DA699B
:10078C0042F00102DA61DB6903F001030193019B82
:10079C00002202211C2000F0DFF91C2000F014FACA
:1007AC00DDE700BF002C01400010024000B587B00F
:1007BC000023029303930493059302680D4B9A4212
:1007CC0002D007B05DF804FB03F564439A6942F06C
:1007DC0004029A619B6903F004030193019B4FF49B
:1007EC008073029302230393059302A9024800F03D
:1007FC00A9FBE6E7002C01400008014010B596B0BB
:10080C000024129413941494159410941194099434
:10081C000A940B940C940D940E940F942022214660
:10082C0001A805F027FC2D482D4B036040F2CF2387
:10083C00436084606323C36004614461846102F09B
:10084C0017FC002838D14FF48053129312A9234877
:10085C0002F012FD002832D1204802F035FC0028AD
:10086C0030D100231093119310A91C4802F084FD81
:10087C0058BB6023099332230A9300220B920C92EB
:10088C000D920E920F9209A9144802F07BFCF8B954
:10089C000023019302930393049305934FF40052A6
:1008AC000692089301A90D4802F09CFD98B90B48DB
:1008BC00FFF77CFF16B010BDFFF7C2FDC3E7FFF7D3
:1008CC00BFFDC9E7FFF7BCFDCBE7FFF7B9FDD0E7EC
:1008DC00FFF7B6FDDCE7FFF7B3FDE8E7D40900202E
:1008EC00002C014008B50A480A4B03604FF4E13371
:1008FC00436000238360C36003610C224261836107
:10090C00C36102F097FE00B908BDFFF799FDFBE744
:10091C00EC0A00200038014008B50A480A4B036075
:10092C004FF4E133436000238360C36003610C2206
:10093C0042618361C36102F07DFE00B908BDFFF71F
:10094C007FFDFBE7340B00200044004070B588B0FD
:10095C00002304930593069307930368484A934234
:10096C0005D00446474A93422BD008B070BD464B85
:10097C009A6942F480429A619A6902F48042009228
:10098C00009A9A6942F004029A619B6903F004038D
:10099C000193019B4FF400730493022305930323EB
:1009AC0007933A4C04A9204600F0CCFA4FF480632C
:1009BC00049300230593069304A9204600F0C2FA81
:1009CC00D3E7314BDA6942F40032DA61DA6902F4C6
:1009DC0000320292029A9A6942F004029A619B696F
:1009EC0003F004030393039B042304930223059352
:1009FC0003230793254E04A9304600F0A3FA0823DD
:100A0C00049300250595069504A9304600F09AFA42
:100A1C001F48204B0360456085608023C3600561DF
:100A2C004561202383614FF40053C36100F004F946
:100A3C00F8B9174BE3635C621748184B036010233B
:100A4C004360002383608022C260036143612022E3
:100A5C008261C36100F0F0F870B90F4BA3635C6264
:100A6C0000221146262000F077F8262000F0ACF882
:100A7C007BE7FFF7E5FCDCE7FFF7E2FCEDE700BF07
:100A8C0000380140004400400010024000080140C2
:100A9C00640A00206C000240A80A0020800002407A
:100AAC0010B504460E4B18784FF47A73B3FBF0F381
:100ABC000C4A1068B0FBF3F000F094F868B90F2CF6
:100ACC0001D901200AE0002221464FF0FF3000F04E
:100ADC0043F8054B1C60002000E0012010BD00BF56
:100AEC0004000020000000200800002008B5074A80
:100AFC00136843F010031360032000F01BF80F2061
:100B0C00FFF7CEFFFFF72AFD002008BD00200240B2
:100B1C00034A1168034B1B780B441360704700BFEA
:100B2C007C0B002004000020014B1868704700BFAC
:100B3C007C0B0020074AD36823F4E0631B041B0CD6
:100B4C00000200F4E060034343F0BF6343F400335E
:100B5C00D360704700ED00E000B5194BDB68C3F3C0
:100B6C000223C3F1070CBCF1040F28BF4FF0040C97
:100B7C0003F1040EBEF1060F18D9033B4FF0FF3EF4
:100B8C000EFA0CFC21EA0C0199400EFA03F322EA4E
:100B9C000303194300280BDB0901C9B200F16040C3
:100BAC0000F5614080F800135DF804FB0023E5E7D5
:100BBC0000F00F000901C9B2024B1954F4E700BF51
:100BCC0000ED00E014ED00E0002807DB00F01F0250
:100BDC00400901239340024A42F82030704700BF7D
:100BEC0000E100E00138B0F1807F0BD24FF0E02340
:100BFC005861054AF02182F82310002098610722E1
:100C0C001A6170470120704700ED00E030B40124F8
:100C1C00056CAC40C56B6C60046863604368102B5A
:100C2C0005D0036899600368DA6030BC70470368CC
:100C3C009A600368D960F8E760B310B402460168A3
:100C4C00154B0B441548A0FB03031B099B001364B5
:100C5C00134BD363022382F82130086820F47F50B1
:100C6C0020F03000536894682343D46823431469FC
:100C7C0023435469234394692343D4692343034393
:100C8C000B6000209063012382F8213082F8200051
:100C9C0010BC704701207047F8FFFDBFCDCCCCCC09
:100CAC000000024038B5044690F82000012832D0EC
:100CBC00012084F8200094F82100C0B2012804D04F
:100CCC00002384F82030022038BD022084F8210053
:100CDC000020A0632568286820F0010028602046C9
:100CEC00FFF794FFE36A5BB12268136843F00E03CD
:100CFC0013602268136843F0010313600020E3E7DC
:100D0C002268136823F0040313602268136843F00D
:100D1C000A031360EDE70220D6E790F82130DBB22E
:100D2C00022B06D004238363002380F8203001209B
:100D3C0070470268136823F00E031360026813688F
:100D4C0023F001031360036CC16B012202FA03F35D
:100D5C004B6080F82120002380F820301846704723
:100D6C0008B590F82130DBB2022B03D00423836347
:100D7C00012008BD0268136823F00E03136002689B
:100D8C00136823F0010313600368194A934214D0CB
:100D9C00143293421FD0143293421ED01432934219
:100DAC001ED0143293421ED01432934202D04FF014
:100DBC00807203E04FF4801200E001220D4B5A6068
:100DCC00012380F82130002380F82030436B6BB175
:100DDC0098470020CDE71022F0E74FF48072EDE742
:100DEC004FF48052EAE74FF48032E7E70020C0E787
:100DFC00080002400000024038B5C36B1A68046852
:100E0C002568016C04238B40134235D015F0040F78
:100E1C0032D0236813F0200F03D1236823F004038E
:100E2C0023600368434A934214D01432934218D07F
:100E3C001432934217D01432934217D01432934287
:100E4C0017D01432934202D04FF0806203E04FF47B
:100E5C00800200E00422384B5A60C36A03B1984701
:100E6C0038BD4022F7E74FF48062F4E74FF480423C
:100E7C00F1E74FF48022EEE702238B4013423CD083
:100E8C0015F0020F39D0236813F0200F06D1236818
:100E9C0023F00A032360012380F821300368254ADC
:100EAC00934214D0143293421CD0143293421BD070
:100EBC00143293421BD0143293421BD014329342FF
:100ECC0002D04FF0007203E04FF4001200E0022257
:100EDC00194B5A60002380F82030836A002BBFD056
:100EEC009847BDE72022F3E74FF40072F0E74FF488
:100EFC000052EDE74FF40032EAE7082303FA01F160
:100F0C001142ADD015F0080FAAD0236823F00E03C0
:100F1C002360026CC16B012303FA02F24A60836303
:100F2C0080F82130002380F82030036B002B97D001
:100F3C00984795E7080002400000024090F8210015
:100F4C007047000070B582B00024A446A6E0804D26
:100F5C00AA4210D007D97F4DAA420CD005F5803596
:100F6C00AA4208D013E0A5F58015AA4203D005F5D6
:100F7C007025AA4207D18A68002A58D0012A51D07C
:100F8C004361082403E0A5F58015AA42F3D0BEF115
:100F9C00FF0F4ED80646BEF1FF0F4CD84FEA8C021D
:100FAC0033680F25954023EA050304FA02F2134334
:100FBC0033604B6813F0805F6ED0674B9A6942F0D8
:100FCC0001029A619B6903F001030193019B4FEAB3
:100FDC009C02951C614B53F825600CF003039D009B
:100FEC000F23AB4026EA03065D4B984229D003F54C
:100FFC008063984200F08E8003F58063984200F085
:10100C008B8003F58063984219D004231AE0CC68D6
:10101C00BDE7CC680434BAE7CC680834B7E7CC68D1
:10102C000C34B4E703610824B1E70024AFE70424CF
:10103C00ADE7061DAFE7ACF108029200B0E7032361
:10104C0000E00023AB4033430232444D45F82230DC
:10105C004B6813F4801F61D0424A936843EA0E0335
:10106C0093604B6813F4001F5ED03E4AD36843EA8A
:10107C000E03D3604B6813F4003F5BD0394A5368BE
:10108C0043EA0E0353604B6813F4803F58D0354A43
:10109C00136843EA0E0313600CF1010C0A6832FA70
:1010AC000CF353D0012303FA0CF302EA030E33EAD8
:1010BC000202F1D14A68122A3FF649AF122A3FF6D2
:1010CC0066AF01A555F822F0830F00081B1000082D
:1010DC0025100008371000089B0F00089B0F000814
:1010EC009B0F00089B0F00089B0F00089B0F00082C
:1010FC009B0F00089B0F00089B0F00089B0F00081C
:10110C009B0F00089B0F00089B0F00081F10000886
:10111C002B100008012395E7022393E7114A9368EB
:10112C0023EA0E0393609CE70E4AD36823EA0E036E
:10113C00D3609FE70B4A536823EA0E035360A2E780
:10114C00084A136823EA0E031360A5E702B070BDCA
:10115C00000022100000311000100240000001407D
:10116C0000080140000401408368194201D00120AD
:10117C007047002070470AB1016170470904016192
:10118C007047C36801EA030221EA030141EA024104
:10119C000161704703685A6912F0800F01D0002278
:1011AC001A61704790F83E30DBB2402B10D00369C7
:1011BC00B3F5804F1BD0036D002B39D1436CC3F3B7
:1011CC00C813026803F0060343F0F0031361704781
:1011DC00036D2BB9436C026803F0FE031361704777
:1011EC00436C026843F00103DBB21361704790F863
:1011FC003D30DBB2212B0FD0436C026843F001036E
:10120C00DBB21361436B6BB19B6A5BB102685368D1
:10121C0043F4006353607047436C026803F0FE03B1
:10122C001361EFE7836B33B19B6A002BEED102E0C5
:10123C00036D012B00D07047436CC3F3C8130268D5
:10124C0003F0060343F0F1031361F4E7436C026807
:10125C00DBB21361436B3BB19B6A2BB102685368E1
:10126C0043F4006353607047836B002BFBD09B6A85
:10127C00002BF3D1F7E710B48DB090F83E30DAB212
:10128C00C16A046B90F83D30DBB2222B0AD00023EC
:10129C000B9303685A690B929B690B930B9B0DB0D4
:1012AC0010BC7047036D0BB9402A17D0036D1BB9E6
:1012BC000369B3F5404F19D0438D9BB2002B25D158
:1012CC00039303685A6903929A690392039A1A6802
:1012DC0042F400721A6000230365E0E7019303688F
:1012EC005A6901929B690193019BD8E700230293F1
:1012FC0003685A6902929A690292029A1A6842F435
:10130C0080721A60036D01330365C8E7438D9BB28D
:10131C00012B25D0438D9BB2022B7BD00268136826
:10132C0043F48063136003685A6812F4006F0ED0A4
:10133C0011F5803F07D0012905D0082903D01029C9
:10134C0001D0202903D15A6842F480525A600023FC
:10135C000A9303685A690A929B690A930A9BBAE733
:10136C0011F5803F11D0082934D0202932D0122C0D
:10137C002ED0042940D002293ED010293CD002683E
:10138C00136823F4806313603BE00268136823F452
:10139C008063136003685A6812F4006F0CD01A68EB
:1013AC0022F480621A600023049303685A69049241
:1013BC009B690493049B8EE7002205925A6905925F
:1013CC009A690592059A1A6842F400721A6082E7CB
:1013DC000129CED00268136823F4806313600023C4
:1013EC00079303685A6907929A690792079A1A68D1
:1013FC0042F400721A606EE70268136843F480636B
:10140C0013600023069303685A6906929B6906933E
:10141C00069B60E7042915D0022913D0102911D09E
:10142C000268136843F40063136000230893036895
:10143C005A6908929A690892089A1A6822F480628A
:10144C001A600CE00268136843F480631360002395
:10145C00099303685A6909929B690993099B03686C
:10146C005A6812F4006F3FF436AF11F5803F08D084
:10147C00012906D0082904D0102902D020297FF494
:10148C002AAF5A6842F480525A6024E7438D9BB2CB
:10149C005BB1426A036812781A61436A0133436292
:1014AC00438D9BB2013B9BB243857047438D9BB2EE
:1014BC005BB103681A69436A1A70436A0133436269
:1014CC00438D9BB2013B9BB24385704782B0002396
:1014DC0001930E4B1B68DB080D4AA2FB03231B0A6E
:1014EC0003EB83030193019B013B0193019B33B1FC
:1014FC0003681B6813F4007FF5D1002004E0036C33
:10150C0043F020030364012002B070470000002068
:10151C0089B5F81403685A6912F4806F01D1002060
:10152C0070476FF480625A6100230363202280F8B5
:10153C003D2080F83E30026C42F00402026480F8D8
:10154C003C3001207047C36AB3F52A0F04D0C36A3C
:10155C00B3F12A4F03D070470123C36270470823AD
:10156C00C362F8E72DE9F04106460C46174698464B
:10157C003BE0FFF7D9FA069BC01A404502D8B8F1F8
:10158C00000F32D1012D18D033689B6924EA030374
:10159C009BB2B3FA83F35B099F4226D100233363DA
:1015AC00202286F83D2086F83E30326C42F0200234
:1015BC00326486F83C30012027E033685B6924EA0A
:1015CC0003039BB2B3FA83F35B09E5E733685B690A
:1015DC0024EA030C1FFA8CFCBCFA8CFC4FEA5C1C52
:1015EC00674511D1B8F1FF3FC3D1C4F30745012DB5
:1015FC00ECD033689B6924EA030C1FFA8CFCBCFA10
:10160C008CFC4FEA5C1CEBE70020BDE8F0812DE977
:10161C00F84305460E469046994653E01A6842F444
:10162C0000721A602B686FF480625A6100232B637E
:10163C00202285F83D2085F83E302A6C42F00402C9
:10164C002A6485F83C3001204AE0FFF76DFAA0EBE4
:10165C000900404502D8B8F1000F33D1012F17D043
:10166C002B689B6926EA03039BB2003B18BF01233E
:10167C0043B300232B63202285F83D2085F83E30B0
:10168C002A6C42F020022A6485F83C30012027E0C5
:10169C002B685B6926EA03039BB2003B18BF01234E
:1016AC00E6E72B689C6926EA0404A4B2003C18BF48
:1016BC000124A4B12B685A6912F4806FAED1B8F131
:1016CC00FF3FC2D1C6F30747012FEAD12B685C69F3
:1016DC0026EA0404A4B2003C18BF0124E9E7002068
:1016EC00BDE8F883F0B583B004460D4616461F4698
:1016FC00C36A082B0DD0012B0BD013F5803F08D0FB
:10170C00036B122B0AD10268136843F480731360C5
:10171C0004E02268136843F4807313600097334627
:10172C0000224FF001112046FFF71CFF80B92369FE
:10173C00B3F5804F16D1236805F0FE051D613B46BD
:10174C00324613492046FFF762FFF8B903B0F0BDEB
:10175C0023681B6813F4807F02D04FF4007323645A
:10176C000320F3E7EB11226803F0060343F0F003C8
:10177C0013613B46324607492046FFF748FF18B92C
:10178C002368EDB21D61DAE70120DFE70120DDE718
:10179C00020001000800010070B504460D46164613
:1017AC0023685B6913F0800F21D12046FFF7B2FE4E
:1017BC00F8B9B5F1FF3FF3D0FFF7B6F9801BA8429B
:1017CC0001D8002DECD123685B6913F0800FE7D1B1
:1017DC0000232363202284F83D2084F83E30226CC1
:1017EC0042F02002226484F83C30012000E000200A
:1017FC0070BD0120FCE770B504460D461646236803
:10180C005B6913F0040F21D12046FFF783FEF8B972
:10181C00B5F1FF3FF3D0FFF787F9801BA84201D841
:10182C00002DECD123685B6913F0040FE7D1002382
:10183C002363202284F83D2084F83E30226C42F051
:10184C002002226484F83C30012000E0002070BDAE
:10185C000120FCE7002800F0CC8070B5044690F81D
:10186C003D30002B77D0242384F83D302268136858
:10187C0023F0010313602268136843F400431360E0
:10188C002268136823F40043136001F0EFF96268D7
:10189C005A4B9A4264D85A4B98428CBF002301236E
:1018AC00002B40F0A8805749A1FB00318B0C256818
:1018BC006A6822F03F0242EA91426A6021680A6A31
:1018CC0022F03F0266684D4DAE424FD801331343B0
:1018DC000B622168CA6922F44F4222F0FF0266684B
:1018EC00464B9E424CD8431E7600B3FBF6F30133B5
:1018FC0040F6FC70034278D0C3F30B031343CB6167
:10190C0021680B6823F0C003E269206A0243134389
:10191C000B6021688B6823F4034323F0FF032269D7
:10192C00E068024313438B602168CB6823F0FF030C
:10193C006269A06902431343CB602268136843F0C9
:10194C000103136000202064202384F83D302063C1
:10195C0084F83E0070BD80F83C30FEF713FD82E742
:10196C00294B98428CBF0023012399E74FF49675BD
:10197C0005FB03F3254DA5FB03539B090133A6E798
:10198C00A368BBB9451E06EB460CB5FBFCF501354F
:10199C00C5F30B05B5FA85F56D0945BBC3B901381F
:1019AC0006EB4603B0FBF3F30133C3F30B0343F431
:1019BC000043A3E7451E06EB860C0CEB8C0CB5FB29
:1019CC00FCF50135C5F30B05B5FA85F56D09E4E7B2
:1019DC00013806EB860303EB8303B0FBF3F301330F
:1019EC00C3F30B0343F4404388E7042386E7012346
:1019FC0084E7012070470120ACE700BFA0860100FE
:101A0C007F841E0083DE1B43FF083D00D34D621014
:101A1C002DE9F04385B004460F46914698460C9E3E
:101A2C00FFF782F8054694F83D00C0B2202804D098
:101A3C000227384605B0BDE8F08300951923012232
:101A4C004F492046FFF78EFD002840F0928094F815
:101A5C003C30012B00F08F80012384F83C3023684C
:101A6C001A6812F0010F03D11A6842F001021A60D1
:101A7C002268136823F400631360212384F83D303B
:101A8C00102384F83E3000232364C4F82490A4F877
:101A9C002A80638D23853B4BE3622B4632463946C5
:101AAC002046FFF71FFE0746002866D1002303934C
:101ABC0023685A6903929B690393039B11E0236C7F
:101ACC00042B01D00127B4E72268136843F4007398
:101ADC001360F7E72A4631462046FFF78CFE0028B4
:101AEC002ED1238D002B36D02A4631462046FFF7C7
:101AFC0053FE0028E3D1626A236812781A61606A87
:101B0C00431C6362618D89B2013989B26185238D71
:101B1C00013B9BB223852268516911F0040FD9D087
:101B2C00002BD7D043781361636A01336362638DF2
:101B3C009BB2013B9BB26385238D013B2385C9E797
:101B4C00236C042B01D0012773E72268136843F43C
:101B5C0000731360F7E72268136843F40073136093
:101B6C00202384F83D30002384F83E3084F83C3048
:101B7C005FE702275DE702275BE7012759E700BF14
:101B8C00020010000000FFFF7047704708B590F886
:101B9C003D30DAB2438D9BB283B1416A0368097858
:101BAC001961436A01334362438D9BB2013B9BB283
:101BBC004385438D9BB20BB9292A00D008BD02681E
:101BCC00536823F48063536021230363282380F834
:101BDC003D30FFF7DAFFF1E7704708B590F83D307C
:101BEC00DAB2438D9BB283B103681969436A1970E9
:101BFC00436A01334362438D9BB2013B9BB24385E5
:101C0C00438D9BB20BB92A2A00D008BD02685368D9
:101C1C0023F48063536022230363282380F83D3030
:101C2C00FFF7DAFFF1E7704700B583B090F83D306D
:101C3C0003F02803282B0CD0002301930268516970
:101C4C00019192690192019A80F83C3003B05DF8E1
:101C5C0004FB0268536823F48063536011F0040F93
:101C6C000BD0002311F0800F09D18289002180F85C
:101C7C003C101946FFF7D7FFE8E70123F2E7028B88
:101C8C00F4E77047704708B5C26A90F83D30DBB294
:101C9C00212B00D008BD438D9BB263B1426A03680F
:101CAC0012781A61436A01334362438D9BB2013B44
:101CBC009BB24385EEE7082A04D0202A02D012F505
:101CCC00803F19D10268536823F4E06353600268C3
:101CDC00136843F40073136000230363202380F81C
:101CEC003D3090F83E30DBB2402B15D0002380F80D
:101CFC003E30FEF79DFBCDE70268536823F4E063AA
:101D0C00536011230363002380F83E30202380F8B6
:101D1C003D30FEF78DFBBDE7002380F83E30FFF72A
:101D2C00B1FFB7E708B590F83D30026D9AB9C36CB6
:101D3C00012B08D0836CC3F3072302681361036D76
:101D4C000133036508BD836C0268DBB21361036D5C
:101D5C0002330365F6E7DBB2026D012A23D0026D74
:101D6C00022A3ED1222B26D0428D92B20AB1212BCF
:101D7C002AD0428D92B2002AE4D1212BE2D1026802
:101D8C00536823F4E06353600268136843F40073F0
:101D9C00136000230363202280F83D2080F83E303E
:101DAC00FFF770FFCEE7836C0268DBB21361036D43
:101DBC0001330365C6E70268136843F4807313604C
:101DCC00036D01330365BDE7426A036812781A613B
:101DDC00436A01334362438D9BB2013B9BB2438503
:101DEC00B0E7FFF7D7F9ADE710B590F83D30DBB2AF
:101DFC0090F83E20D2B2C46A018D09B9212B04D0CF
:101E0C00212B3BD0402A37D010BD082C04D0202CDD
:101E1C0002D014F5803F19D10268536823F4E063B3
:101E2C0053600268136843F4007313600023036368
:101E3C00202380F83D3090F83E30DBB2402B15D09B
:101E4C00002380F83E30FEF7F3FADDE702685368B2
:101E5C0023F4E063536011230363002380F83E30C6
:101E6C00202380F83D30FEF7E3FACDE7002380F81D
:101E7C003E30FFF707FFC7E7222BC5D1438D9BB23E
:101E8C002BB90268536823F480635360BCE790F865
:101E9C003E30DBB2402B0CD0426A036812781A61D8
:101EAC00436A01334362438D9BB2013B9BB2438532
:101EBC00AAE7FFF737FFA7E7704708B5C26A438D5B
:101ECC009BB2042B14D0438D9BB2032B22D0438D99
:101EDC009BB2022B39D003681A69436A1A70436AA1
:101EEC0001334362438D9BB2013B9BB2438510E0AF
:101EFC000268536823F48063536003681A69436A69
:101F0C001A70436A01334362438D9BB2013B9BB20F
:101F1C00438508BD01684B6823F480634B60042A39
:101F2C0006D0022A04D00268136823F4806313607D
:101F3C0003681A69436A1A70436A01334362438D1A
:101F4C009BB2013B9BB24385E3E7012A0BD0102ADD
:101F5C0009D0042A38D0022A36D00268136843F418
:101F6C000073136004E00268136823F48063136049
:101F7C0003681A69436A1A70426A531C4362438DA0
:101F8C009BB2013B9BB2438503681B695370436A48
:101F9C0001334362438D9BB2013B9BB24385026884
:101FAC00536823F440735360202380F83D3090F83D
:101FBC003E30DBB2402B0DD0002380F83E30122394
:101FCC000363FFF7E1FDA4E70268136843F4806341
:101FDC001360CDE7002380F83E300363FFF76CFFFE
:101FEC0097E7704790F83D30DBB2222B00D070475A
:101FFC0010B50446438D9BB2032B15D903681A699F
:10200C00436A1A70436A01334362438D9BB2013BAE
:10201C009BB24385438D9BB2032B0FD1026853684F
:10202C0023F48063536009E0C26A022A01D0012BB9
:10203C0005D92268536823F48063536010BDFFF701
:10204C0045FA00282ED12268136823F480631360AC
:10205C002268536823F4E063536023681A69636A47
:10206C001A70636A01336362638D9BB2013B9BB24E
:10207C006385202384F83D3094F83E30DBB2402B4E
:10208C0008D0002384F83E30122323632046FFF748
:10209C007BFDD3E7002384F83E3023632046FFF713
:1020AC000BFFCBE72268536823F4E063536023688B
:1020BC001A69636A1A70636A01336362638D9BB237
:1020CC00013B9BB26385202384F83D30002384F8C8
:1020DC003E302046FFF785FFB0E7704700B583B070
:1020EC0000230193406A90F83D20D2B2324B1B681A
:1020FC00DB083249A1FB03131B0A03EB8303C3EB7D
:10210C00C3030193019B43B1019B013B0193036802
:10211C001B6813F4007FF5D103E0036C43F020033C
:10212C000364436B0BB100219962836B0BB10021EB
:10213C00996201680B6823F480630B60002343856C
:10214C00436B0BB100215963836B0BB100215963B5
:10215C0001680B6823F001030B6090F83D30DBB293
:10216C00602B0ED002F02802282A14D0202380F8ED
:10217C003D30002380F83E30FFF733FF03B05DF8AD
:10218C0004FB202380F83D30002380F83E300364AC
:10219C00FFF7A3FFF2E70268136843F00103136033
:1021AC000268136843F480631360002303632823DD
:1021BC0080F83D30E0E700BF0000002089B5F8143E
:1021CC0010B5044690F83D30DBB290F83E20D2B208
:1021DC00102A36D0402A34D003F02802282A38D0CE
:1021EC002268526812F4006F07D1602B05D02023AF
:1021FC0084F83D30002384F83E30002323632368A9
:10220C005A6812F4006F48D05A6822F400625A607F
:10221C00626B92F82130DBB2012B20D0444B53631C
:10222C00606BFEF79DFD002849D02268136823F0EF
:10223C0001031360202384F83D30606B436B984797
:10224C003DE0222BC8D121680A6822F400620A60A2
:10225C00C2E700232363282384F83D30CFE7A36B28
:10226C00334A5A63A06BFEF77BFD40B323685A696F
:10227C0012F0400F05D01A69636A1A70636A013351
:10228C0063622268136823F001031360202384F82F
:10229C003D30A06B436B984711E094F83D20D2B2CF
:1022AC00602A1FD05A6912F0400F05D01A69636A70
:1022BC001A70636A013363622046FFF792FE236C47
:1022CC0013F00F0F04D02268536823F4E0635360BB
:1022DC0094F83D30DBB2226C12F0040F01D0282BA5
:1022EC0018D010BD202284F83D20002222645A69A7
:1022FC0012F0400F05D01A69636A1A70636A0133D1
:10230C0063622268136823F0010313602046FFF711
:10231C00E4FED4E7074BE36200232363202284F816
:10232C003D2084F83E302046FFF7ABFCD9E700BFD8
:10233C00E92000080000FFFF30B583B0044690F898
:10234C003D50EDB20268536823F4E0635360002300
:10235C00019303685A6901921A6842F001021A60EB
:10236C00019B0268136823F48063136003685A6846
:10237C0012F4006F38D0222D21D02A2D1FD0426BA1
:10238C001268526892B24285428D92B21AB1026CB6
:10239C0042F0040202645A6822F400625A60606BD4
:1023AC00FEF7CCFD01281FD0636B444A5A63606B67
:1023BC00FEF7D6FCC0B1606B436B984714E0A26B80
:1023CC001268526892B26285628D92B21AB1226C16
:1023DC0042F0040222645A6822F400625A60A06B34
:1023EC00FEF7ACFD012842D1638D9BB233B3236859
:1023FC005A6912F0040F0AD01A69636A1A70636A78
:10240C0001336362638D9BB2013B9BB2638523688E
:10241C005A6912F0400F0AD01A69636A1A70636A1B
:10242C0001336362638D9BB2013B9BB26385638D09
:10243C009BB21BB1236C43F004032364236C13BBCA
:10244C002A2D25D094F83D30DBB2282B29D0236BD4
:10245C00222B01D0222D19D100232363202284F8B2
:10246C003D2084F83E302046FFF7B6FB0EE0A36B10
:10247C00124A5A63A06BFEF773FC0028B4D0A06B11
:10248C00436B9847B0E72046FFF79AFE03B030BD88
:10249C0000232363282384F83D302046FFF79CFB60
:1024AC00D0E7074BE36200232363202284F83D200E
:1024BC0084F83E302046FFF7E4FBE7E7E92000080C
:1024CC000000FFFFF8B5044602685568C66A90F82C
:1024DC003E30DBB290F83D10C8B2102B13D0402B1D
:1024EC0011D0236C002B7AD05369002113F0020F0A
:1024FC0078D015F4007F75D0236C03B19169204618
:10250C00FFF792FBF8BDD2F818C0516911F0010722
:10251C0005D1B6F52A0FF5D0B6F12A4FF2D017B186
:10252C0015F4007F29D111F0080F02D015F4007FAB
:10253C002AD111F0020F02D015F4007F28D11CF023
:10254C00040F31D0526812F4006FDBD111F0800F00
:10255C0005D015F4806F02D011F0040F1CD011F0CF
:10256C00040FCFD015F4007FCCD0212818D0402BED
:10257C00C8D12046FFF7D6FBC4E72046FEF7E3FFA1
:10258C002046FEF70FFEBDE72046FEF75FFEB9E7DB
:10259C002046FEF770FEB5E72046FFF725FCB1E7B5
:1025AC002046FFF770FBADE7536813F4006FA9D119
:1025BC0011F0400F05D015F4806F02D011F0040F0C
:1025CC0009D011F0040F9DD015F4007F9AD020464D
:1025DC00FFF773FC96E72046FFF704FD92E791693D
:1025EC00536983E713F0100F02D015F4007F18D154
:1025FC0021281AD0292818D013F0400F05D015F433
:10260C00806F02D013F0040F28D013F0040F3FF4A6
:10261C0079AF15F4007F3FF475AF2046FEF746FF07
:10262C0070E72046FFF788FE6CE713F0800F05D0AB
:10263C0015F4806F02D013F0040F0BD013F0040FBD
:10264C003FF460AF15F4007F3FF45CAF2046FEF71B
:10265C001DFF57E72046FFF799FA53E72046FFF78F
:10266C00BCFA4FE782B0084B1B68084AA2FB032355
:10267C005B0A00FB03F3019300BF019B5A1E0192FE
:10268C00002BF9D102B0704700000020D34D62102E
:10269C00002800F0F18170B582B00446036813F095
:1026AC00010F2CD0994B5B6803F00C03042B1DD04D
:1026BC00964B5B6803F00C03082B12D06368B3F5E0
:1026CC00803F41D0002B55D103F1804303F50433F7
:1026DC001A6822F480321A601A6822F480221A6076
:1026EC0037E08A4B5B6813F4803FE7D0874B1B685D
:1026FC0013F4003F03D06368002B00F0BF81236804
:10270C0013F0020F75D0814B5B6813F00C0F5FD088
:10271C007E4B5B6803F00C03082B54D02369002B11
:10272C0000F08A807A4B01221A60FEF7FDF905460B
:10273C00764B1B6813F0020F75D1FEF7F5F9401BB1
:10274C000228F5D903209EE1704A136843F48033C4
:10275C001360636843B3FEF7E7F905466B4B1B68E0
:10276C0013F4003FCBD1FEF7DFF9401B6428F5D9F9
:10277C00032088E1B3F5A02F09D0644B1A6822F42A
:10278C0080321A601A6822F480221A60E1E703F1A1
:10279C008043A3F53C331A6842F480221A601A680D
:1027AC0042F480321A60D4E7FEF7BEF90546574B67
:1027BC001B6813F4003FA2D0FEF7B6F9401B642847
:1027CC00F5D903205FE1514B5B6813F4803FA5D131
:1027DC004E4B1B6813F0020F03D02369012B40F002
:1027EC004F814A4A136823F0F803616943EAC10335
:1027FC001360236813F0080F33D0A369002B5CD04F
:10280C00434B0122C3F88024FEF78EF905463F4B5B
:10281C005B6A13F0020F21D1FEF786F9401B0228E8
:10282C00F5D903202FE1394A136823F0F8036169C5
:10283C0043EAC1031360DCE7354B00221A60FEF754
:10284C0073F90546314B1B6813F0020FD1D0FEF71C
:10285C006BF9401B0228F5D9032014E10120FFF786
:10286C0001FF236813F0040F00F09680274BDB69FF
:10287C0013F0805F34D1254BDA6942F08052DA6173
:10288C00DB6903F080530193019B0125214B1B68ED
:10289C0013F4807F26D0E368012B3DD0002B53D15D
:1028AC0003F1804303F504331A6A22F001021A6221
:1028BC001A6A22F004021A6233E0154B0022C3F8A4
:1028CC008024FEF731F90546104B5B6A13F0020FBA
:1028DC00C7D0FEF729F9401B0228F5D90320D2E016
:1028EC000025D3E70B4A136843F480731360FEF79B
:1028FC001BF90646074B1B6813F4807FCBD1FEF700
:10290C0013F9801B6428F5D90320BCE000100240A9
:10291C0000004242007000405F4A136A43F001031A
:10292C001362E36833B3FEF7FFF806465A4B1B6A93
:10293C0013F0020F2FD1FEF7F7F8801B41F288330A
:10294C009842F3D903209EE0052B09D0524B1A6A0A
:10295C0022F001021A621A6A22F004021A62E0E7FB
:10296C004D4B1A6A42F004021A621A6A42F00102D2
:10297C001A62D6E7FEF7D8F80646474B1B6A13F0E7
:10298C00020F08D0FEF7D0F8801B41F28833984232
:10299C00F3D9032077E0E5B9E369002B72D03E4A06
:1029AC00526802F00C02082A56D0022B17D03B4B6F
:1029BC0000221A66FEF7B8F80446374B1B6813F072
:1029CC00007F47D0FEF7B0F8001B0228F5D9032092
:1029DC0059E0314AD36923F08053D361DCE72F4BA4
:1029EC0000221A66FEF7A0F805462B4B1B6813F065
:1029FC00007F06D0FEF798F8401B0228F5D903207B
:102A0C0041E0236AB3F5803F1AD023494B6823F485
:102A1C007413226A606A024313434B601F4B0122FA
:102A2C001A66FEF781F804461B4B1B6813F0007FF7
:102A3C000ED1FEF779F8001B0228F5D9032022E00D
:102A4C00154A536823F40033A1680B435360DCE749
:102A5C00002018E0002016E0012B16D00E4B5B680E
:102A6C0003F48031226A914211D103F47013626A2B
:102A7C0093420ED1002006E001207047012002E0B5
:102A8C00012000E0002002B070BD0120FBE7012016
:102A9C00F9E70120F7E700BF0010024000004242B6
:102AAC000F4B5B6803F00C02082A01D00D487047ED
:102ABC00C3F383420C49885C13F4803F0BD0084B62
:102ACC005B68C3F34043094AD35C064A02FB00F03F
:102ADC00B0FBF3F07047064B03FB00F0704700BFF0
:102AEC000010024000127A008C7700089C770008D6
:102AFC0000093D00002800F0A08070B50D4604468A
:102B0C00524B1B6803F007038B420BD24F4A1368DE
:102B1C0023F007030B431360136803F007038B4286
:102B2C0040F08D80236813F0020F17D013F0040FC0
:102B3C0004D0474A536843F4E0635360236813F0AE
:102B4C00080F04D0424A536843F460535360404A20
:102B5C00536823F0F003A1680B435360236813F010
:102B6C00010F31D06368012B20D0022B25D0384ABD
:102B7C00126812F0020F64D035494A6822F0030241
:102B8C0013434B60FDF7D0FF0646314B5B6803F0F7
:102B9C000C036268B3EB820F16D0FDF7C5FF801BE8
:102BAC0041F288339842F0D9032045E0284A126854
:102BBC0012F4003FE0D101203EE0254A126812F0E9
:102BCC00007FD9D1012037E0204B1B6803F00703AD
:102BDC00AB420AD91D4A136823F007032B43136039
:102BEC00136803F00703AB422DD1236813F0040FD5
:102BFC0006D0174A536823F4E063E1680B43536033
:102C0C00236813F0080F07D0114A536823F460535C
:102C1C00216943EAC1035360FFF742FF0C4B5B6829
:102C2C00C3F303130B4AD35CD8400B4B18600B4B0C
:102C3C001868FDF735FF002070BD0120704701209A
:102C4C00FAE70120F8E70120F6E700BF0020024078
:102C5C0000100240747700080000002008000020DB
:102C6C00014B1868704700BF0000002008B5FFF743
:102C7C00F7FF044B5B68C3F30223034AD35CD840D1
:102C8C0008BD00BF001002408477000808B5FFF7AC
:102C9C00E7FF044B5B68C3F3C223034AD35CD84001
:102CAC0008BD00BF001002408477000870B4036AAE
:102CBC00026A22F0010202624668826922F0730203
:102CCC000C6844EA020523F002028B6813430D4C96
:102CDC00A04209D00B4CA0420DD0466085614A68D9
:102CEC004263036270BC704723F00803CA68134345
:102CFC0023F00403EEE726F440764A6932438E69EA
:102D0C001643EAE7002C014030B4036A026A22F44D
:102D1C00807202624568C26922F073020C68224319
:102D2C0023F400738C6843EA04230F4CA04209D0AF
:102D3C000D4CA0420ED04560C2614A68C26303626A
:102D4C0030BC704723F40063CC6843EA042323F4BB
:102D5C008063EDE725F440554C6945EA04158C6910
:102D6C0045EA0415E7E700BF002C014030B4036AC4
:102D7C00026A22F4805202624468C26922F4E6427A
:102D8C000D6842EA052223F400538D6843EA0533AB
:102D9C00074DA84206D04460C2614A6802640362CF
:102DAC0030BC704724F480444D6944EA8514F2E742
:102DBC00002C014010B4036A046A24F0010404627C
:102DCC00846924F0F00C4CEA021223F00A030B4342
:102DDC008261036210BC704710B4036A046A24F069
:102DEC0010040462846924F4704C4CEA023223F01F
:102DFC00A00343EA01138261036210BC704783682D
:102E0C0023F070030B4343F007038360704700000B
:102E1C0090F83D30DBB2012B27D1022380F83D30F6
:102E2C000268D36843F00103D3600368114A9342EC
:102E3C0010D0B3F1804F0DD0A2F59432934209D04B
:102E4C0002F58062934205D01A6842F001021A60C2
:102E5C00002070479A6802F00702062A07D01A6809
:102E6C0042F001021A6000207047012070470020D8
:102E7C00704700BF002C0140704770477047704787
:102E8C00704710B5044603681A6912F0020F11D08E
:102E9C00DA6812F0020F0DD06FF002021A610123F2
:102EAC00037703689B6913F0030F70D0FFF7E6FFFD
:102EBC000023237723681A6912F0040F12D0DA6802
:102ECC0012F0040F0ED06FF004021A610223237764
:102EDC0023689B6913F4407F5FD02046FFF7CEFF39
:102EEC000023237723681A6912F0080F12D0DA68CE
:102EFC0012F0080F0ED06FF008021A61042323772A
:102F0C002368DB6913F0030F4ED02046FFF7B6FFA2
:102F1C000023237723681A6912F0100F12D0DA6895
:102F2C0012F0100F0ED06FF010021A6108232377E5
:102F3C002368DB6913F4407F3DD02046FFF79EFFEA
:102F4C000023237723681A6912F0010F03D0DA6883
:102F5C0012F0010F36D123681A6912F0800F03D0DA
:102F6C00DA6812F0800F34D123681A6912F0400F1E
:102F7C0003D0DA6812F0400F32D123681A6912F0CC
:102F8C00200F03D0DA6812F0200F30D110BDFFF7FC
:102F9C0074FF2046FFF773FF8AE72046FFF76DFFAB
:102FAC002046FFF76CFF9BE72046FFF766FF2046A5
:102FBC00FFF765FFACE72046FFF75FFF2046FFF702
:102FCC005EFFBDE76FF001021A612046FDF724FB9E
:102FDC00C1E76FF080021A61204600F02DFAC3E7BA
:102FEC006FF040021A612046FFF74AFFC5E76FF009
:102FFC0020021A61204600F01EFAC7E703681B4A3C
:10300C0090420AD0B0F1804F07D0A2F59432904292
:10301C0003D002F58062904203D123F070034A681A
:10302C001343124A90420AD0B0F1804F07D0A2F558
:10303C009432904203D002F58062904203D123F483
:10304C004073CA68134323F080034A691343036037
:10305C008B68C3620B688362044B984202D00123D5
:10306C00436170470B690363F9E700BF002C014013
:10307C0040B310B5044690F83D30F3B1022384F808
:10308C003D30214651F8040BFFF7B8FF012384F8BB
:10309C00463084F83E3084F83F3084F8403084F871
:1030AC00413084F8423084F8433084F8443084F85A
:1030BC00453084F83D30002010BD80F83C30FDF7E1
:1030CC0045FBDBE70120704740B310B5044690F890
:1030DC003D30F3B1022384F83D30214651F8040B06
:1030EC00FFF78CFF012384F8463084F83E3084F8D7
:1030FC003F3084F8403084F8413084F8423084F812
:10310C00433084F8443084F8453084F83D30002056
:10311C0010BD80F83C30FFF7AFFEDBE701207047B5
:10312C0030B4036A026A22F01002026244688269B7
:10313C0022F4E6420D6842EA052223F020038D6852
:10314C0043EA05130E4DA84209D00D4DA8420ED0EE
:10315C00446082614A688263036230BC704723F02A
:10316C008003CD6843EA051323F04003EDE724F414
:10317C0040644D6944EA85048D6944EA8504E7E7B7
:10318C00002C014038B590F83C30012B66D0044639
:10319C000D46012380F83C300C2A5AD8DFE802F0A7
:1031AC00075959591B5959593059595944000068F4
:1031BC00FFF77CFD2268936943F008039361226852
:1031CC00936923F0040393612268936929690B4383
:1031DC00936100203EE00068FFF7A2FF226893692C
:1031EC0043F4006393612268936923F480639361D1
:1031FC0022689369296943EA01239361002029E03D
:10320C000068FFF781FD2268D36943F00803D3619E
:10321C002268D36923F00403D3612268D369296936
:10322C000B43D361002015E00068FFF79FFD226877
:10323C00D36943F40063D3612268D36923F48063B8
:10324C00D3612268D369296943EA0123D361002041
:10325C0000E00120002384F83C3038BD0220FCE75C
:10326C0010B4846824F47F4C42EA03220A4342EAF5
:10327C000C02826010BC704790F83C30012B78D067
:10328C0010B50446012380F83C30022380F83D3011
:10329C000268936823F47F4323F0770393600B68F1
:1032AC00602B4CD029D8402B54D00CD9502B22D188
:1032BC00CA6849680068FFF77DFD50212068FFF758
:1032CC009EFD002005E0202B0DD009D9302B0AD013
:1032DC000120012384F83D30002384F83C3010BDDC
:1032EC000BB1102B05D119462068FFF788FD002083
:1032FC00EFE70120EDE70120EBE7B3F5805F34D079
:10330C00B3F5005F0CD1CB684A6889680068FFF799
:10331C00A7FF2268936843F4804393600020D8E7AA
:10332C00702B24D1CB684A6889680068FFF798FF36
:10333C002268936843F0770393600020C9E7CA685A
:10334C0049680068FFF748FD60212068FFF757FDCA
:10335C000020BEE7CA6849680068FFF72BFD4021D2
:10336C002068FFF74CFD0020B3E70020B1E70120F7
:10337C00AFE702207047000090F83C30012B2CD0B6
:10338C0010B4012380F83C30022380F83D300368F0
:10339C005A689C6822F0700C0A6842EA0C025A6067
:1033AC0003680F4A93420AD0B3F1804F07D0A2F5BD
:1033BC009432934203D002F58062934204D124F0FC
:1033CC0080044A6814439C60012380F83D3000233C
:1033DC0080F83C30184610BC70470220704700BF84
:1033EC00002C014090F83C30012B22D0012380F8B6
:1033FC003C30CB6823F440738A68134323F4806316
:10340C004A68134323F400630A68134323F480537C
:10341C000A69134323F400534A69134323F480438A
:10342C00CA69134302685364002380F83C30184681
:10343C0070470220704770477047026802F10C0316
:10344C0053E8003F23F0C0030C3242E8003100295E
:10345C00F3D1202380F841307047026802F10C034D
:10346C0053E8003F23F490730C3242E800310029FA
:10347C00F3D1026802F1140353E8003F23F0010377
:10348C00143242E800310029F3D1036B012B05D033
:10349C00202380F84230002303637047026802F156
:1034AC000C0353E8003F23F010030C3242E80031C8
:1034BC000029F3D1ECE790F84130DBB2212B01D09D
:1034CC00022070478368B3F5805F17D0036A5A1CDB
:1034DC0002621A7803685A60C38C9BB2013B9BB2A0
:1034EC00C3844BB90268D36823F08003D3600268AD
:1034FC00D36843F04003D360002070470369002B6E
:10350C00E4D1036A1B880268C3F308035360036A9F
:10351C0002330362E0E7000010B504460268136949
:10352C0023F44053C1680B4313618368026913434E
:10353C0042691A430168CB6823F4B05323F00C039F
:10354C001343CB600268536923F4407381690B43C6
:10355C0053610268134B9A4220D0FFF787FB024657
:10356C0002EB820202EB820263689B00B2FBF3F275
:10357C000D48A0FB02314909642303FB11231B01F5
:10358C003233A0FB03235B0903F0F00202EB0112C0
:10359C0003F00F03216813448B6010BDFFF776FB1B
:1035AC000246DDE7003801401F85EB512DE9F84359
:1035BC0005460F4616469946DDF820802C6824688F
:1035CC0037EA04030CBF4FF0010C4FF0000CB4456C
:1035DC002DD1B8F1FF3FF1D0B8F1000F05D0FDF7B8
:1035EC00A3FAA0EB09004045E8D92A6802F10C03C4
:1035FC0053E8003F23F4D0730C3242E80031002929
:10360C00F3D12A6802F1140353E8003F23F00103BD
:10361C00143242E800310029F3D1202385F84130DF
:10362C0085F84230002385F84030032000E000206C
:10363C00BDE8F88360B310B5044690F8413013B37D
:10364C00242384F841302268D36823F40053D360D8
:10365C002046FFF761FF2268136923F4904313613E
:10366C002268536923F02A0353612268D36843F418
:10367C000053D36000206064202384F8413084F828
:10368C004230606310BD80F84030FDF75FF9D7E73A
:10369C00012070472DE9F04182B01E4690F8413070
:1036AC00DBB2202B4BD104460D46904600294AD064
:1036BC000AB9012044E000234364212380F84130FF
:1036CC00FDF732FA0746A4F82480A4F82680A368F4
:1036DC00B3F5805F02D04FF000080FE02369FBB117
:1036EC004FF000080AE038F8023B2268C3F30803E5
:1036FC005360E28C92B2013A92B2E284E38C9BB2B8
:10370C008BB100963B46002280212046FFF74EFFEE
:10371C00D8B9002DE7D015F8012B23685A60E8E7DB
:10372C00A8460025EAE700963B46002240212046A9
:10373C00FFF73CFF58B9202384F8413000E0022009
:10374C0002B0BDE8F0810120FAE70320F8E703207E
:10375C00F6E72DE9F04182B01E4690F84230DBB21C
:10376C00202B53D104460D469046002952D00AB95D
:10377C0001204CE000234364222280F842200363A2
:10378C00FDF7D2F90746A4F82C80A4F82E80A36884
:10379C00B3F5805F02D04FF0000817E0236913B136
:1037AC004FF0000812E0A84600250FE023685B6884
:1037BC00C3F3080328F8023B03E023685B682B7013
:1037CC000135E28D92B2013A92B2E285E38D9BB261
:1037DC00BBB100963B46002220212046FFF7E6FEB7
:1037EC00D0B9002DE2D0A368B3F5805FE5D013B952
:1037FC002369002BE1D023685B6803F07F032B70F7
:10380C00DEE7202384F84230002000E0022002B0E2
:10381C00BDE8F0810120FAE70320F8E7704708B50E
:10382C000168CA6822F04002CA60202280F8412058
:10383C00FFF7F4FF002008BD7047704710B5446ACD
:10384C0023685A6994F84130DBB2212B10D02368DD
:10385C005A6902F0400294F84230DBB2222B11D0AC
:10386C00636C43F0100363642046FFF7E6FF10BD62
:10387C0002F08002002AEAD00023E3842046FFF7FE
:10388C00DCFDE4E7002AEBD00023E3852046FFF7BC
:10389C00E4FDE5E708B5406A0023C385C384FFF760
:1038AC00CCFF08BD704790F84230DBB2222B69D1B7
:1038BC008368B3F5805F4FD0826AB3F5805F04D024
:1038CC00002B56D10369002B53D103685B6813702E
:1038DC00836A01338362C38D9BB2013B9BB2C38568
:1038EC00002B51D100B583B00268D36823F02003BC
:1038FC00D3600268D36823F48073D3600268536981
:10390C0023F001035361202380F8423000234363EA
:10391C00036B012B33D100230363026802F10C0308
:10392C0053E8003F23F010030C3242E80031002929
:10393C00F3D103681A6812F0100F06D0002201921E
:10394C001A6801925B680193019B818DFFF7AAFFB6
:10395C00002003B05DF804FB0269002AACD1826A36
:10396C0003685B68C3F308031380836A02338362C2
:10397C00B1E703685B6803F07F031370A8E7FCF7FB
:10398C0077FEE5E7022070470020704730B583B022
:10399C00044602681368D068516913F00F0505D10D
:1039AC0013F0200F02D010F0200F19D12DB111F00F
:1039BC00010119D110F4907F16D1216B01297DD012
:1039CC0013F0800F03D010F0800F40F0188113F02B
:1039DC00400F03D010F0400F40F0158103B030BD04
:1039EC002046FFF760FFF9E713F0010F06D010F443
:1039FC00807F03D0626C42F00102626413F0040F0A
:103A0C0004D019B1626C42F00202626413F0020F2E
:103A1C0004D019B1626C42F00402626413F0080F16
:103A2C0007D010F0200F00D119B1626C42F00802DF
:103A3C006264626C002AD1D013F0200F02D010F017
:103A4C00200F29D123685B6903F04003626C12F0EC
:103A5C00080F00D163B32046FFF7FFFC23685B69B6
:103A6C0013F0400F20D0226802F1140353E8003FFA
:103A7C0023F04003143242E800310029F3D1E36B08
:103A8C0073B1634A5A63E06BFDF76AF90028A5D05D
:103A9C00E06B436B9847A1E72046FFF704FFD1E7A3
:103AAC002046FFF7CAFE99E72046FFF7C6FE95E7CA
:103ABC002046FFF7C2FE002363648FE713F0100F5C
:103ACC003FF47EAF10F0100F3FF47AAF0023019358
:103ADC001368019353680193019B536913F0400FD2
:103AEC0051D0E26B13685B689BB2002B3FF476AF4E
:103AFC00A18D99427FF672AFE3859369202B37D065
:103B0C00226802F10C0353E8003F23F480730C325B
:103B1C0042E800310029F3D1226802F1140353E882
:103B2C00003F23F00103143242E800310029F3D1A5
:103B3C00226802F1140353E8003F23F040031432CF
:103B4C0042E800310029F3D1202384F842300023CD
:103B5C002363226802F10C0353E8003F23F01003A7
:103B6C000C3242E800310029F3D1E06BFDF7D5F8B7
:103B7C0002236363A18DE38D9BB2C91A89B22046DF
:103B8C00FFF790FE2AE7A18DE38D9BB2C91A89B28B
:103B9C00E38D9BB2002B3FF421AF00293FF41EAF05
:103BAC00226802F10C0353E8003F23F490730C32AB
:103BBC0042E800300028F3D1226802F1140353E8E4
:103BCC00003F23F00103143242E800300028F3D107
:103BDC00202384F8423000232363226802F10C0373
:103BEC0053E8003F23F010030C3242E80030002869
:103BFC00F3D1022363632046FFF754FEEEE6204622
:103C0C00FFF759FCEAE62046FFF709FEE6E600BF9F
:103C1C00A138000808B5406A01234363036B012BEC
:103C2C0002D0FFF709FE08BD818D4908FFF73AFE67
:103C3C00F9E708B50346406A1B681B6813F0200FB0
:103C4C002BD10023C385026802F10C0353E8003F1B
:103C5C0023F480730C3242E800310029F3D102685E
:103C6C0002F1140353E8003F23F00103143242E83D
:103C7C0000310029F3D1026802F1140353E8003F2C
:103C8C0023F04003143242E800310029F3D1202301
:103C9C0080F84230036B012B07D000234363036B86
:103CAC00012B0FD0FCF7E4FC08BD026802F10C03F9
:103CBC0053E8003F23F010030C3242E80031002996
:103CCC00F3D1EAE7818DFFF7EDFDEDE730B583B079
:103CDC00044613468162828500254564222280F8C1
:103CEC004220C26B1F489062E26B1F48D062E26BAD
:103CFC001E481063E26B556320680A46011DE06B99
:103D0C00FCF7D0FF019523681A6801925B68019358
:103D1C00019B23695BB1226802F10C0353E8003F5D
:103D2C0043F480730C3242E800310029F3D122684D
:103D3C0002F1140353E8003F43F00103143242E84C
:103D4C0000310029F3D1226802F1140353E8003F3B
:103D5C0043F04003143242E800310029F3D1002033
:103D6C0003B030BD3F3C0008213C00084938000836
:103D7C0008B590F84230DBB2202B08D149B10AB912
:103D8C00012008BD00230363FFF7A0FFF9E7022021
:103D9C00F7E70120F5E72DE9F04F83B007460E4613
:103DAC0091461D46DDF8308090F892A0CB18541C3B
:103DBC00A4B200949BB200F008FE78B3BAFA8AFB66
:103DCC004FEA5B1B012414E087F892A000230093B8
:103DDC0001234A463146384600F06CFD0136B6B236
:103DEC00640014F0FF0402D108F101080124013D24
:103DFC00ADB28DB198F800302342E5D197F89130EF
:103E0C00002BEBD187F892B0009301234A46314640
:103E1C00384600F04FFDE1E787F892A003B0BDE80B
:103E2C00F08F2DE9F04782B08246884614461F4633
:103E3C00BDF828500B9E03F10709C9F3CC0903EB1D
:103E4C00010C53199BB200931FFA8CF300F0BDFDCB
:103E5C0060B90DE000963B46224641465046FFF7BE
:103E6C009AFF4E440134A4B2013DADB2002DF1D104
:103E7C0002B0BDE8F0872DE9F04182B080460F46D4
:103E8C0014461E46BDF8205001EB030C53199BB28F
:103E9C0000931FFA8CF300F098FD60B90DE000223E
:103EAC000092334622463946404600F003FD013469
:103EBC00A4B2013DADB2002DF1D102B0BDE8F0814C
:103ECC002DE9F04F87B080460C469246BDF8406015
:103EDC00BDF84470039104931C44A4B29519ADB27F
:103EEC000095234600F071FD10B907B0BDE8F08FC6
:103EFC00039A02EB07091FFA89F90AEB070B1FFA61
:103F0C008BFBE41BA4B2013CA4B2ED1BADB2013D92
:103F1C00ADB2022300933B465A464946404600F058
:103F2C005DF9012300933B465A462146404600F07A
:103F3C0055F9042300933B462A464946404600F077
:103F4C004DF9082300933B462A462146404600F093
:103F5C0045F9049BDB1B9BB2DB1B9BB209F10109EE
:103F6C001FFA89F90BF1010B1FFA8BFB022B0FD8EF
:103F7C00F61BB6B2F71BBFB2022FB6D9023FBFB2C7
:103F8C000097049B5A4603994046FFF774FFACE731
:103F9C00023B9BB27C1CA4B200940593524649464A
:103FAC004046FFF768FF0094059B2A464946404669
:103FBC00FFF761FFDCE710B582B003681B7C446B34
:103FCC0003FB01F1C90089B221440091002101F0E9
:103FDC0020FD02B010BD2DE9F041064690F8387076
:103FEC0090F83950036893F8118000242A46214632
:103FFC003046FFF7E0FF0134E4B20135EDB2A742E1
:10400C0001D9A845F2D8BDE8F08108B503681B7C3E
:10401C0090F8382003FB02F2D2000021406B02F032
:10402C0029F808BD10B5044680F83910036B1B68DD
:10403C009847236B5B682046984710BD10B5044623
:10404C0090F8933023B900212046FFF7EBFF10BD09
:10405C00FFF7DBFFF7E738B50446FFF7BCFF94F832
:10406C00393094F838501D44EDB223685B7CAB4278
:10407C0008D994F8933053B929462046FFF7D2FF5C
:10408C00012038BD204601F0EAFC0020F9E720466B
:10409C00FFF7BBFFF0E72DE9F84380460C461746C7
:1040AC001D46BDF820909DF8246016F0010F0AD132
:1040BC0016F0020F1BD116F0080F2DD116F0040FBD
:1040CC003BD1BDE8F883531CA9EB020269189BB2E3
:1040DC0092B289B200F053FC631CA9EB0402E919FB
:1040EC009BB292B289B2404600F049FCE0E77B1CDF
:1040FC00A9EB0702291B9BB292B289B2404600F091
:10410C003EFC631CA9EB0402E91B9BB292B289B280
:10411C00404600F034FCCEE77B1C29199BB24A4682
:10412C0089B2404600F02BFC631CE9199BB24A464D
:10413C0089B2404600F023FCC0E77B1C291B9BB2D4
:10414C004A4689B2404600F01AFC631CE91B9BB23C
:10415C004A4689B2404600F012FCB2E72DE9F04F16
:10416C0085B00390894692461E469DF838B0C3F13F
:10417C00010424B2C3EBC3384FEA48080FFA88F89D
:10418C00CDF804B000920B4632460021FFF783FFB6
:10419C00002501271AE0013EB6B208F102081FFA09
:1041AC0088F30FFA88F81C4424B20135ADB20237FB
:1041BC00BBB23FB21C4424B2CDF804B0CDF800A081
:1041CC004B46324629460398FFF765FFB54202D2AB
:1041DC00002CE0DAE9E705B0BDE8F08F2DE9F041FD
:1041EC0082B080460E4617461D46CB189BB2AC18C3
:1041FC00A4B20133521B491B0134A4B200949BB2EC
:10420C0092B289B200F0E1FB10B902B0BDE8F081C6
:10421C009DF8203000932B463A4631464046FFF736
:10422C009DFFF2E70823037000487047800B0020C5
:10423C0030B585B004460D4600931346084A09492B
:10424C0000F090FE0DF10F00FFF7ECFF014600951A
:10425C00054B9DF80F20204600F0B0FC05B030BD9A
:10426C004D4D0008F94E0008034A0008405C7047A9
:10427C004218435C507800EB032080B2704700205A
:10428C00704738B504460D4600212846FFF7EEFF6F
:10429C00207001212846FFF7E9FF607002212846B3
:1042AC00FFF7E4FFA07003212846FFF7DFFFE07063
:1042BC0004212846FFF7DAFF207105212846FFF775
:1042CC00D5FF607106212846FFF7D0FFA0710721AA
:1042DC002846FFF7CBFFE07108212846FFF7C6FF01
:1042EC00207209212846FFF7C1FF60720A21284677
:1042FC00FFF7BCFFA0720B212846FFF7B7FFE07257
:10430C000C212846FFF7B2FF20730D212846FFF73A
:10431C00ADFF60730E212846FFF7A8FFA0730F2195
:10432C002846FFF7A3FFE07310212846FFF79EFFF6
:10433C00207411212846FFF79BFF60821321284629
:10434C00FFF796FFA08215212846FFF791FFE08228
:10435C0038BD10B590F80CC00468227842FA0CFEF7
:10436C005FFA8EF20CEB0103DBB2072B0DD9CCF10B
:10437C00080C5FFA8CFC621C0260627802FA0CF288
:10438C0042EA0E02D2B2083BDBB24FF0FF3C0CFA11
:10439C0001F1037322EA010010BD38B5044600F1A7
:1043AC0060050166002380F86C3090F87810284680
:1043BC00FFF7CFFF84F86A0094F879102846FFF7CE
:1043CC00C8FF84F86B0094F8923084F86E30B3FA1E
:1043DC0083F35B0984F86F3038BD10B50C46FFF7DA
:1043EC00B8FF013CE4B2012303FA04F4001B40B211
:1043FC0010BD012B08D0022B09D013B1401A80B28A
:10440C007047104480B27047084480B27047801ADD
:10441C0080B27047012B08D0022B09D013B1104485
:10442C0080B27047084480B27047801A80B27047DF
:10443C00401A80B270472DE9F04F89B006460C4601
:10444C00079290F968305FFA83FB90F96930DBB220
:10445C00039319E0059420E096F86E3086F89230BC
:10446C00CDF80080BDF814300699304600F022FAE1
:10447C00BC423DD3ABEB05052C44E4B2039B0133AA
:10448C00DBB203934FF0000B96F96A50EDB2A5EB3B
:10449C000B07FFB2BC42DDD30597B6F866A04FFA06
:1044AC008BF19DF90C9096F8708043464A46049126
:1044BC00B6F86400FFF7AEFF069043464A460499EF
:1044CC005046FFF796FF0246079B002BC4D196F887
:1044DC006D30002BCCD196F86F3086F89230CDF839
:1044EC000080BDF814300699304600F0E3F9BFE7C0
:1044FC005C4486F8684086F8699009B0BDE8F08F96
:10450C002DE9F04F85B0044600F16005FFF745FF3B
:10451C0094F96B7094F87A102846FFF75EFF80468A
:10452C0094F87B102846FFF758FF064694F87C1049
:10453C002846FFF752FF039094F96A90B9F1000FE7
:10454C0055DD3E44F6B2764276B294F870B05B46D6
:10455C0032464146B4F86400FFF75CFF8246A4F88B
:10456C0064005B4632464146B4F86600FFF741FFF3
:10457C000246A4F86600BBF1030F68D8DFE80BF025
:10458C00023B495B1FFA89F353449BB2384480B217
:10459C0000905146204600F018FA40B3002384F8EE
:1045AC00683084F8693094F876102846FFF7D1FE0D
:1045BC00804694F877102846FFF7CBFE064600227B
:1045CC0041462046FFF737FF012231462046FFF7D0
:1045DC0032FF01212846FFF7BCFE0028EFD194F9E9
:1045EC006930BB42DFDB94F86E3084F8923003986C
:1045FC0005B0BDE8F08FAAEB070189B201310AF1D1
:10460C0001039BB21FFA89F0104480B21FFA81FAA1
:10461C00BEE71FFA89F1AAEB010189B201310AF157
:10462C0001039BB2C61BB6B20136013290B2B2B2D4
:10463C001FFA81FAACE70AEB07039BB21FFA89F168
:10464C00411A89B20131013290B28AB2A0E75346C5
:10465C009EE770B50E46846D1734FF2913D8602978
:10466C0003D9B0F888301C4406E0402904D9B0F8CE
:10467C0086301C4400E01C44637803B32278B242B9
:10468C00F9D1A01C1CE0B0F88A0004442546002196
:10469C002846FFF7EDFD044402212846FFF7E8FD0C
:1046AC0004358642F3D801E0A3781C442278637861
:1046BC0053EA022305D09E42F6D1E01C00E0002014
:1046CC0070BD0020FCE710B50446A0F86410A0F8FB
:1046DC0066201946FFF7BDFF28B101462046FFF7BB
:1046EC000FFF80B210BD0020FCE7F8B504460D4664
:1046FC0016461F4690F87030032B07D8DFE803F0FE
:10470C00020D1217C36D98470644B6B23B463246AB
:10471C0029462046FFF7D7FFF8BDC36D98472D1AE1
:10472C00ADB2F3E7C36D9847361AB6B2EEE7C36D78
:10473C0098470544ADB2E9E72DE9F04104460F4630
:10474C0016461D4600F067FA4FF0000804E00744D7
:10475C00BFB240441FFA80F8636829782046984716
:10476C004FF6FF72904222D001354FF6FE72904206
:10477C00F2D00346324639462046FFF7B6FF94F88E
:10478C007030032BE5D801A252F823F05B470008E8
:10479C00A9470008AF470008B54700080644B6B261
:1047AC00D7E73F1ABFB2D4E7361AB6B2D1E74046C4
:1047BC00BDE8F08110B5024C4460FFF7BDFF10BDA1
:1047CC000D4C0008836D73B390F9812080F88E2016
:1047DC0090F9823080F88F3090F88D1019B3012940
:1047EC0014D000B590F97E1090F980C001EB0C0E3E
:1047FC00724505DAC9B25FFA8CF2114480F88E105A
:10480C00634501DD80F88FC05DF804FB90F98310DF
:10481C008A4201DA80F88E1090F98420934202DDEE
:10482C0080F88F2070477047014BC365704700BFFD
:10483C008B420008836D8B4209D010B5044681650C
:10484C007430FFF71EFD2046FFF7BCFF10BD70470C
:10485C0000B5B0F800E0B1F800C0F4441FFA8CFCCD
:10486C00E64505D99E4513D203F1FF3C1FFA8CFC9B
:10487C009E450FD294450FD9964500D372469C4560
:10488C0000D8634602809B1A0B8001205DF804FB64
:10489C009646EDE70020F9E70020F7E730B583B046
:1048AC00C48F121BC46A9DF81850009592B2A04791
:1048BC0003B030BD70B584B004469DF82000ADF84F
:1048CC000E10ADF80C20ADF80A3094F88C305BB3B8
:1048DC00BDF80A3043B3012B03D9022826D0032894
:1048EC002DD010F0010534D1B4F84C20BDF80C30AB
:1048FC009A4219D8B4F84E20934215D2B4F84A30E3
:10490C00B4F848200DF10A010DF10E00FFF7A0FFDD
:10491C0050B1236B9E680095BDF80A30BDF80C2091
:10492C00BDF80E102046B04704B070BD8AB2D31A41
:10493C009BB2ADF80E300133ADF80E30D1E7BDF8B7
:10494C000C20D31A9BB2ADF80C300133ADF80C30FF
:10495C00C7E7B4F84820BDF80E309A42E4D8B4F852
:10496C004A209342E0D2B4F84E30B4F84C200DF10A
:10497C000A0103A8FFF76CFF0028CAD1D4E710B5D1
:10498C0082B001240094FFF795FF02B010BD80F8AF
:10499C009210022902D9012380F8923070478A4282
:1049AC0005D2834209D89A4209D901207047834223
:1049BC0007D99A4207D9012070470120704700207F
:1049CC007047002070470020704770B504460D46B4
:1049DC001E46BDF81030B0F84E10B0F84C00FFF782
:1049EC00DEFF38B133462A46B4F84A10B4F8480012
:1049FC00FFF7D5FF70BD70B59DF8105002F0070E93
:104A0C004FF0010C0CFA0EFC5FFA8CFC90F89260E3
:104A1C00012E1AD90024012E19D022F007060268A3
:104A2C00127C06FB02F292B21144426B1144DDB9C6
:104A3C000A782243D2B20A7082EA0C0201F8012BE6
:104A4C00013B9BB2002BF3D170BD6446E3E74FF002
:104A5C00000CE2E701241BE06400E4B24FEA4C0CCA
:104A6C005FFA8CFC002BEFD00A782243D2B20A708A
:104A7C0082EA0C020A700EF10102013B9BB212F0A9
:104A8C00070EE9D1428F114490F89220012AE1D906
:104A9C00012AE7D04FF0010CE4E710B5046890F858
:104AAC0038108AB2CB008387237CDB00438790F8D5
:104ABC0039C01FFA8CFE4FEACC03C387614494F8CB
:104ACC0011C0614502DDACEB0E0292B2D20092B283
:104ADC00A0F84030A0F842301344A0F84230A38A2A
:104AEC00A0F84430E38AA0F8463010BD08B5FFF7B3
:104AFC00D4FF08BD10B582B00446B0F85630009310
:104B0C00B0F85230B0F85420B0F85010FFF75DFFF9
:104B1C0020B9002384F88C3002B010BD012384F836
:104B2C008C30B4F84820B4F850309A4201D2A4F832
:104B3C004830B4F84A20B4F852309A4201D9A4F85B
:104B4C004A30B4F84C20B4F854309A4201D2A4F84C
:104B5C004C30B4F84E20B4F856309A42DCD9A4F854
:104B6C004E30D9E708B50022A0F84820B0F8442010
:104B7C00A0F84A20B0F84020A0F84C20B0F8422011
:104B8C00A0F84E20FFF7B6FF08BD10B582B09DF817
:104B9C0010400094FFF782FE02B010BD08B5002251
:104BAC00A0F85020A0F854204FF6FF72A0F8522025
:104BBC00A0F85620036B5B68984708BD70B5044697
:104BCC00049E00258565C362416380F8382080F817
:104BDC00395080F86D5080F8915080F88D50012339
:104BEC0080F8923080F893300663336898472046FB
:104BFC00FFF7D4FF2046FFF717FE84F8705070BD06
:104C0C0019B10A2904D088B270474FF6FF7070476B
:104C1C004FF6FF707047002380F82630704710B5B0
:104C2C00134604690A461721A04710BD00B583B08E
:104C3C008DF807100DF107020121FFF7F0FF03B00B
:104C4C005DF804FB10B5046900231A461821A0472F
:104C5C0010BD10B5046900231A461921A04710BDD8
:104C6C0070B504460D461646FFF7ECFF4021204672
:104C7C00FFF7DCFF33462A46172120462569A84753
:104C8C002046FFF7E6FF70BD10B50A46C468002346
:104C9C001521A04710BD10B50A46C4680023162183
:104CAC00A04710BD10B51346C4680A461721A0478B
:104CBC0010BD10B5C46800231A461821A04710BDBA
:104CCC0010B5C46800231A461921A04710BD70B551
:104CDC0082B006460D4616E015290CD202B070BD06
:104CEC00FE29FBD122788DF807202921304600F0CF
:104CFC001DF9023507E022788DF80720F4680023AF
:104D0C003046A04702352C4614F8011B1929E7D868
:104D1C0018290ED21629DFD91729DFD123788DF85F
:104D2C0007300DF1070201213046FFF7BBFF0235BA
:104D3C00E9E7F56800231A463046A8472546E2E71E
:104D4C00F8B5054614461E46A1F1140CBCF1050F2E
:104D5C0056D8DFE80CF03703181D454A294B1B7851
:104D6C0073B92846FFF76EFF00212846FFF75EFF58
:104D7C0021462846FFF75AFF0120224B1870F8BD38
:104D8C00FFF767FFEDE71146FFF750FF0120F6E74D
:104D9C001C4B1B7853B1FFF75CFF07E03246182120
:104DAC002846FFF75DFF183CE4B21836182CF5D8EE
:104DBC00324621462846FFF753FF124B00221A7049
:104DCC000120DCE790F82430FF2B05D02F69334607
:104DDC0022462846B847D2E7782380F82430F5E7F6
:104DEC00084B00221A700120C9E7064B1B7823B927
:104DFC00044B00221A700120C1E7FFF72AFFF7E7E6
:104E0C000020BCE7800F0020F8B5064615461C466E
:104E1C000B39042960D8DFE801F0035F0E21300064
:104E2C0022B92E49FFF753FF012025E02C49FFF74B
:104E3C004EFF012020E042B92A49FFF748FF3368B2
:104E4C009B7C86F82230012016E02749FFF73FFFB4
:104E5C003368DB7C86F8223001200DE0FFF729FF58
:104E6C0081213046FFF710FF29463046FFF713FF2C
:104E7C003046FFF725FF0120F8BDFFF71AFF6779D1
:104E8C00FF00FBB296F822701F44FFB2402130465F
:104E9C00FFF7FAFE390941F010013046FFF7F4FE36
:104EAC0007F00F013046FFF7F6FEA17941F0B00193
:104EBC003046FFF7F0FE2179C900226801F0F801B5
:104ECC003046FFF7EFFE6A1E12F0FF05F3D13046B5
:104EDC00FFF7F6FE0120CFE70020CDE74C84000859
:104EEC0054840008048400080C84000838B5054676
:104EFC000C46FFF789FF90B9092C0AD00A2C0FD168
:104F0C00284600F055FD07492846FFF7E0FE012032
:104F1C0006E00549284600F046FD012000E001208E
:104F2C0038BD00BF148400085C84000810B54469C7
:104F3C000023A04710BD0020704700000023036031
:104F4C00074A8260C2600261426180F8233080F8B7
:104F5C0026308361FF2380F8243080F82830704796
:104F6C00434F0008F8B504460F4616461D46FFF79A
:104F7C00E5FFA760E6602561069B6361204600F0B3
:104F8C0059FDF8BD10B44FF0E0235C6999691A69BA
:104F9C0000EBC000C000586100209861052018612A
:104FAC004FF0E0231B6913F4803FF9D04FF0E0235E
:104FBC0007201861A4B25C6189B2996192B21A613E
:104FCC0010BC704710B504E04FF47A70FFF7DAFFAD
:104FDC002046441E0028F7D110BD000010B5044631
:104FEC00FFF72CF801212046FFF7D1FC074920469A
:104FFC00FFF720FC064B0D2200212046FFF7DAFBC1
:10500C002046FFF728F80028ECD110BDA077000847
:10501C007484000810B50446FFF710F801212046EF
:10502C00FFF7B5FC07492046FFF704FC064B0D22A1
:10503C0000212046FFF7BEFB2046FFF70CF80028A6
:10504C00ECD110BDA07700088484000810B582B0A4
:10505C000446FEF7F3FF01212046FFF798FC084BAE
:10506C00019340230093002220212046FEF7D9FE15
:10507C002046FEF7F0FF0028EDD102B010BD00BFB6
:10508C00FC8C000810B582B00446FEF7D7FF012156
:10509C002046FFF77CFC084B0193402300936623CA
:1050AC00002211462046FEF7BCFE2046FEF7D3FF39
:1050BC000028ECD102B010BDBC89000810B582B03C
:1050CC000446FEF7BBFF01212046FFF760FC084BAE
:1050DC00019340230093002220212046FEF7A1FEDD
:1050EC002046FEF7B8FF0028EDD102B010BD00BF7E
:1050FC00BC84000810B582B00446FEF79FFF012166
:10510C002046FFF744FC084B0193402300935E2399
:10511C00002211462046FEF784FE2046FEF79BFF38
:10512C000028ECD102B010BDBC86000810B50446B6
:10513C00082000F0EBFC206054B10023436022688F
:10514C001370074A137843F002031370012010BD4B
:10515C00034A137843F0010313700020F7E700BFF4
:10516C00840F002084B038B5054605A880E80E00F1
:10517C00182000F0CBFC0446F0B10023036143611E
:10518C0005AB0FCB84E80F002A685368CBB15A6982
:10519C005C6114612B685B68236162610D4B1B7849
:1051AC0013F0020F04D00B4B1A786FF341021A70F4
:1051BC002A681378013313702046BDE8384004B0D8
:1051CC00704754602B685B681B612B685B685B6184
:1051DC00E4E700BF840F00202DE9F04182B00746C0
:1051EC0090469DF82420012A0BD00E469DF82020D5
:1051FC00012A0ED0012B1ED03846FEF71FFFB468D3
:10520C0085E0D8F800305B68DB68984702B0BDE8F1
:10521C00F081D8F800305A6852695A60D8F80030DA
:10522C005B681A698B689A42E6D1CA685269CA608F
:10523C005B698B60E0E7D8F800305A6812695A60F5
:10524C00D8F800305B685A69CB689A42D4D11B6994
:10525C00CB608B681B698B60CEE73278B37805FB2B
:10526C0003F39BB21A4492B2737802EB530292B2DC
:10527C0022812368E1883846FFF79CFA24690135BE
:10528C00ADB2F368A342E8D13278B37803FB05F5ED
:10529C00ADB22A4492B2737802EB530292B22281DD
:1052AC002368E1883846FFF785FAD8F800305B6848
:1052BC00D9881A893578521B92B270781B7905EB14
:1052CC00000C03EB830E03EB4E03A2EB50020339ED
:1052DC004FEA5C0CCDF804C028440090063392B21F
:1052EC0089B23846FEF7ECFD00213846FFF74FFB3C
:1052FC00D8F800305A6813681289B18A3846FFF71B
:10530C0059FA3846FEF7A7FE00283FF47FAF01217B
:10531C003846FFF73CFBB1693846FFF78BFA00259E
:10532C00AFE70246002001E00130C0B2135C002B55
:10533C00FAD1704770B586B00546084614461E462D
:10534C000291FFF7EEFF8DF80C00ADF80E609DF8A2
:10535C002830ADF810300594009402AB0ECB2846E3
:10536C00FFF700FF06B070BD2DE9F04182B0074693
:10537C000D46904603228A820B220A700521697021
:10538C001021A970EA820622EA7004222A710222F4
:10539C006A71AB614046FFF7C9FE6B785B080B3353
:1053AC0000932B7D484A49494046FFF7C3FFA8604C
:1053BC0028616B785B081B3300932B7D444A45496D
:1053CC004046FFF7B7FF6B785B082B3300932B7DC0
:1053DC00414A42494046FFF7ADFF6B785B083B33CF
:1053EC0000932B7D3E4A3F494046FFF7A3FFE86000
:1053FC006B785B084B3300932B7D3B4A3B49404613
:10540C00FFF798FF6B785B084B3300932B7D384A82
:10541C0038494046FFF78EFF3846FEF70FFEA96964
:10542C003846FFF707FAD8F800305E6846E0EA8A9B
:10543C00AB7804FB0322336892B2A98A3846FFF793
:10544C00B9F936690134E4B2EB78A342EFD8D8F855
:10545C0000305B68D9881A892C78121B92B2687854
:10546C001B7904EB000C03EB830E03EB4E03A2EB56
:10547C00500203394FEA5C0CCDF804C02044009074
:10548C00063392B289B23846FEF71AFDA96938463E
:10549C00FFF7D0F900213846FFF779FAD8F8003039
:1054AC005A6813681289A98A3846FFF783F93220A3
:1054BC00FFF788FD3846FEF7CEFD08B10024C3E7A0
:1054CC0002B0BDE8F08100BF595000089484000878
:1054DC00915000089C840008C9500008A48400085E
:1054EC0001510008A8840008E94F0008AC840008AA
:1054FC0021500008B484000810B5384CA1882068ED
:10550C00FBF732FEA37960F30003A371DBB203F067
:10551C000303032B37D0314B9B7913F0050F03D1C9
:10552C002E4A43F0020393712D4CA1882068FBF79F
:10553C001BFEA37960F30003A371DBB203F003033A
:10554C00032B2ED0264B9B7913F0050F03D1244A45
:10555C0043F002039371234CA1882068FBF704FEEF
:10556C00A37960F30003A371DBB203F00303032BF5
:10557C0025D01C4B9B7913F0050F03D1194A43F02E
:10558C000203937110BDA2796FF34102A271D2B2E2
:10559C0042F00402A271B4F807200132A4F80720EB
:1055AC00B9E7A2796FF34102A271D2B242F00402C0
:1055BC00A271B4F807200132A4F80720C2E7A2793F
:1055CC006FF34102A271D2B242F00402A271B4F89C
:1055DC0007200132A4F80720CBE700BF880F00207A
:1055EC00980F0020A80F00200A46194B9B7913F046
:1055FC00040F09D1174B9B7913F0040F04D1164BF0
:10560C009B7913F0040F21D0F0B583B0104EB17913
:10561C00104DAF79C7F380070F4CA379C3F3800308
:10562C0001930097C1F3800301460C48FFF7D4FDAA
:10563C00B3796FF38203B371AB796FF38203AB7100
:10564C00A3796FF38203A37103B0F0BD704700BF61
:10565C00880F0020980F0020A80F002020090020A0
:10566C00244A254810604FF480539380937943F07B
:10567C00010393710023D3711372917963F3820147
:10568C009171C9B263F3410191711C49C2F80910BF
:10569C001B4A10604FF4005CA2F804C092F806C0DC
:1056AC004CF0010C82F806C0D37113725FFA8CFCBB
:1056BC0063F3820C82F806C05FFA8CFC63F3410C36
:1056CC0082F806C0C2F809100E4A10604FF48040F0
:1056DC009080907940F001009071D3711372C0B238
:1056EC0063F382009071C0B263F341009071C2F811
:1056FC0009107047880F0020000C01400555000868
:10570C00980F0020A80F002038B5044610462360DF
:10571C006160002565812281256100F0F7F9E06068
:10572C0025756575A57538BD10B50446014651F84B
:10573C00140B0122FEF71CFB6068FDF769FB10BD22
:10574C00837DDBB2012B01D00120704710B50446DC
:10575C0040F2E7334289C1680068FDF79BFF0020E7
:10576C00A075608110BD000008B529392A295BD8C5
:10577C00DFE801F02220165A265A5A5A5A5A5A5A17
:10578C005A5A5A5A5A5A5A5A5A5A5A5A5A5A5A5A6D
:10579C005A5A5A5A5A5A5A2A3A5A5A4A4E5256002F
:1057AC0000BF012008BD00BF01339BB2B3F5A07F41
:1057BC00F9D3F6E70023F9E70120FFF703FCF0E744
:1057CC000520FFF7DFFBECE7012A07D0002AE8D120
:1057DC004FF480611648FBF7CEFCE2E74FF4806192
:1057EC001348FBF7C8FCDCE7012A07D0002AD8D104
:1057FC004FF400610E48FBF7BEFCD2E74FF400619A
:10580C000B48FBF7B8FCCCE7002380F82730C8E73F
:10581C00002380F82730C4E7002380F82730C0E746
:10582C00002380F82730BCE7012380F82730B8E745
:10583C00000C014014390C2908D8DFE801F03007BE
:10584C0007161A1F070707070707300000207047C5
:10585C001448017801F1010C80F800C013F801CB59
:10586C00114800F801C0013AD2B2002AF0D101204F
:10587C0070470C4B00221A700120704700B583B0A2
:10588C004FF47A730093074B1B78074A90F8241057
:10589C000648FCF7BDF8012003B05DF804FB0120BD
:1058AC00704700BFB50F0020B80F0020AC080020D7
:1058BC0010B50446074B084A0849FEF7B9FC2046C8
:1058CC0000F0BFF80021204600F0C2F82046FEF799
:1058DC009CFB10BD7557000841580008F883000860
:1058EC0008B5054B1860054B1868002302221946B1
:1058FC00806800F085FC08BDD80F00200C0000204B
:10590C00022801D80120704708B500F0D5F809230A
:10591C000360002008BD000010B5013801280AD82A
:10592C0014464FF0FF3392B207480068FDF7B2FE01
:10593C0040B9204610BD00F0BFF8092303604FF0BA
:10594C00FF30F7E70520F5E7D80F002008B500F089
:10595C00B3F8092303604FF0FF3008BD08B548B910
:10596C004FF0FF33012208480068FDF7F2FE40B902
:10597C00012008BD00F0A0F8092303604FF0FF30B0
:10598C00F7E70520F5E700BFD80F002008B502287F
:10599C0004D84FF400534B60002008BD00F08CF885
:1059AC0009230360F8E701608B7C80F82230704794
:1059BC0010B5044600231A462821D0F814C0E0473D
:1059CC0000231A4614212046D4F80CC0E0470122CB
:1059DC004B212046FFF7AAFA23681A792921204681
:1059EC00FFF7A4FA00224B212046FFF79FFA236809
:1059FC001A7929212046FFF799FA01224B212046DA
:105A0C00FFF794FA23685A7929212046FFF78EFA7A
:105A1C0010BD10B582B08DF805108DF806208DF8EC
:105A2C000430049B009384686B4601220F21A0472D
:105A3C0002B010BD10B5846800231A460921A04796
:105A4C0010BD10B5846800231A460A21A04710BD6A
:105A5C0010B50A46846800230B21A04710BD10B571
:105A6C00846800231A461021A04710BDFAF735FEB2
:105A7C000B480C490C4A002302E0D458C4500433A0
:105A8C00C4188C42F9D3094A094C002301E0136075
:105A9C000432A242FBD300F015F8FAF705FD70476B
:105AAC00000000204C080020108F00084C0800203B
:105ABC0024100020FEE70000014B1868704700BF5F
:105ACC000C00002070B50D4E0D4D761BB61006D097
