:020000040800F2
:1000000000500020CD4D0008551100085711000880
:10001000591100085B1100085D1100080000000084
:100020000000000000000000000000005F11000858
:10003000611100080000000063110008651100084C
:10004000154E0008154E0008154E0008154E000804
:10005000154E0008154E0008154E0008154E0008F4
:10006000154E0008154E0008154E0008154E0008E4
:10007000154E0008154E0008154E0008154E0008D4
:100080006D1100087D110008154E0008154E00087E
:10009000154E0008154E0008154E0008154E0008B4
:1000A000154E0008154E0008154E0008154E0008A4
:1000B0008D110008154E0008154E0008154E000859
:1000C000154E0008154E0008154E0008154E000884
:1000D000154E0008154E00089D110008154E000829
:1000E000154E0008154E0008154E000800000000CF
:1000F0000000000000000000000000000000000000
:0C01000000000000000000005FF808F1A3
:1001100010B5054C237833B9044B13B10448AFF341
:1001200000800123237010BDB809002000000000EA
:100130008CD2000808B5034B1BB103490348AFF349
:10014000008008BD00000000BC0900208CD200081F
:1001500081F0004102E000BF83F0004330B54FEA78
:1001600041044FEA430594EA050F08BF90EA020FE5
:100170001FBF54EA000C55EA020C7FEA645C7FEA78
:10018000655C00F0E2804FEA5454D4EB5555B8BF9B
:100190006D420CDD2C4480EA020281EA030382EA0C
:1001A000000083EA010180EA020281EA0303362D9E
:1001B00088BF30BD11F0004F4FEA01314FF4801C71
:1001C0004CEA113102D0404261EB410113F0004F83
:1001D0004FEA03334CEA133302D0524263EB43033A
:1001E00094EA050F00F0A780A4F10104D5F1200ED8
:1001F0000DDB02FA0EFC22FA05F2801841F1000133
:1002000003FA0EF2801843FA05F359410EE0A5F106
:1002100020050EF1200E012A03FA0EFC28BF4CF037
:10022000020C43FA05F3C01851EBE37101F00045ED
:1002300007D54FF0000EDCF1000C7EEB00006EEBFA
:100240000101B1F5801F1BD3B1F5001F0CD3490884
:100250005FEA30004FEA3C0C04F101044FEA4452DB
:1002600012F5800F80F09A80BCF1004F08BF5FEA62
:10027000500C50F1000041EB045141EA050130BD42
:100280005FEA4C0C404141EB0101013C28BFB1F554
:10029000801FE9D291F0000F04BF01460020B1FA9F
:1002A00081F308BF2033A3F10B03B3F120020CDA72
:1002B0000C3208DD02F1140CC2F10C0201FA0CF050
:1002C00021FA02F10CE002F11402D8BFC2F1200CB5
:1002D00001FA02F120FA0CFCDCBF41EA0C0190406B
:1002E000E41AA2BF01EB0451294330BD6FEA0404B4
:1002F0001F3C1CDA0C340EDC04F11404C4F120029F
:1003000020FA04F001FA02F340EA030021FA04F3B0
:1003100045EA030130BDC4F10C04C4F1200220FA07
:1003200002F001FA04F340EA0300294630BD21FA45
:1003300004F0294630BD94F0000F83F4801306BF0B
:1003400081F480110134013D4EE77FEA645C18BFFF
:100350007FEA655C29D094EA050F08BF90EA020F96
:1003600005D054EA000C04BF1946104630BD91EA8E
:10037000030F1EBF0021002030BD5FEA545C05D191
:100380004000494128BF41F0004130BD14F58004D0
:100390003CBF01F5801130BD01F0004545F0FE4144
:1003A00041F470014FF0000030BD7FEA645C1ABF79
:1003B000194610467FEA655C1CBF0B46024650EAB0
:1003C000013406BF52EA033591EA030F41F40021DC
:1003D00030BD00BF90F0000F04BF0021704730B562
:1003E0004FF4806404F132044FF000054FF0000137
:1003F00050E700BF90F0000F04BF0021704730B5F8
:100400004FF4806404F1320410F0004548BF4042CC
:100410004FF000013EE700BF42004FEAE2014FEA21
:1004200031014FEA02701FBF12F07F4393F07F4FFC
:1004300081F06051704732F07F4208BF704793F0FF
:100440007F4F04BF41F40021704730B54FF4607412
:1004500001F0004521F000411CE700BF50EA010215
:1004600008BF704730B54FF000050AE050EA0102BE
:1004700008BF704730B511F0004502D5404261EB2E
:1004800041014FF4806404F132045FEA915C3FF46F
:10049000D8AE4FF003025FEADC0C18BF03325FEA0C
:1004A000DC0C18BF033202EBDC02C2F1200300FABD
:1004B00003FC20FA02F001FA03FE40EA0E0021FAE2
:1004C00002F11444BDE600BF70B54FF0FF0C4CF4D0
:1004D000E06C1CEA11541DBF1CEA135594EA0C0F82
:1004E00095EA0C0F00F0DEF82C4481EA030621EABD
:1004F0004C5123EA4C5350EA013518BF52EA0335F8
:1005000041F4801143F4801338D0A0FB02CE4FF0A9
:100510000005E1FB02E506F00042E0FB03E54FF0D9
:100520000006E1FB03569CF0000F18BF4EF0010ED1
:10053000A4F1FF04B6F5007F64F5407404D25FEACD
:100540004E0E6D4146EB060642EAC62141EA555180
:100550004FEAC52040EA5E504FEACE2EB4F1FD0CC2
:1005600088BFBCF5E06F1ED8BEF1004F08BF5FEA40
:10057000500E50F1000041EB045170BD06F00046F2
:1005800046EA010140EA020081EA0301B4EB5C049F
:10059000C2BFD4EB0C0541EA045170BD41F4801197
:1005A0004FF0000E013C00F3AB8014F1360FDEBFBC
:1005B000002001F0004170BDC4F10004203C35DA98
:1005C0000C341BDC04F11404C4F1200500FA05F31B
:1005D00020FA04F001FA05F240EA020001F00042BC
:1005E00021F0004110EBD37021FA04F642EB060132
:1005F0005EEA430E08BF20EAD37070BDC4F10C045C
:10060000C4F1200500FA04F320FA05F001FA04F21F
:1006100040EA020001F0004110EBD37041F100010B
:100620005EEA430E08BF20EAD37070BDC4F1200516
:1006300000FA05F24EEA020E20FA04F301FA05F27E
:1006400043EA020321FA04F001F0004121FA04F226
:1006500020EA020000EBD3705EEA430E08BF20EAF6
:10066000D37070BD94F0000F0FD101F00046400030
:1006700041EB010111F4801F08BF013CF7D041EAB2
:10068000060195F0000F18BF704703F000465200B6
:1006900043EB030313F4801F08BF013DF7D043EA87
:1006A0000603704794EA0C0F0CEA135518BF95EA3D
:1006B0000C0F0CD050EA410618BF52EA4306D1D1C4
:1006C00081EA030101F000414FF0000070BD50EAE3
:1006D000410606BF1046194652EA430619D094EA6D
:1006E0000C0F02D150EA013613D195EA0C0F05D157
:1006F00052EA03361CBF104619460AD181EA0301AB
:1007000001F0004141F0FE4141F470014FF0000062
:1007100070BD41F0FE4141F4780170BD70B54FF0FD
:10072000FF0C4CF4E06C1CEA11541DBF1CEA13557D
:1007300094EA0C0F95EA0C0F00F0A7F8A4EB05045F
:1007400081EA030E52EA03354FEA013100F0888056
:100750004FEA03334FF0805545EA131343EA12631F
:100760004FEA022245EA111545EA10654FEA0026D4
:100770000EF000419D4208BF964244F1FD0404F58D
:10078000407402D25B084FEA3202B61A65EB0305E9
:100790005B084FEA32024FF480104FF4002CB6EBA6
:1007A000020E75EB030E22BFB61A754640EA0C0026
:1007B0005B084FEA3202B6EB020E75EB030E22BF66
:1007C000B61A754640EA5C005B084FEA3202B6EBA7
:1007D000020E75EB030E22BFB61A754640EA9C0066
:1007E0005B084FEA3202B6EB020E75EB030E22BF36
:1007F000B61A754640EADC0055EA060E18D04FEAF4
:10080000051545EA16754FEA06164FEAC30343EA93
:1008100052734FEAC2025FEA1C1CC0D111F4801F60
:100820000BD141EA00014FF000004FF0004CB6E759
:1008300011F4801F04BF01430020B4F1FD0C88BFF8
:10084000BCF5E06F3FF6AFAEB5EB030C04BFB6EB03
:10085000020C5FEA500C50F1000041EB045170BDF6
:100860000EF0004E4EEA113114EB5C04C2BFD4EB23
:100870000C0541EA045170BD41F480114FF0000EA7
:10088000013C90E645EA060E8DE60CEA135594EA23
:100890000C0F08BF95EA0C0F3FF43BAF94EA0C0F26
:1008A0000AD150EA01347FF434AF95EA0C0F7FF49B
:1008B00025AF104619462CE795EA0C0F06D152EAEF
:1008C00003353FF4FDAE1046194622E750EA4106D3
:1008D00018BF52EA43067FF4C5AE50EA41047FF4E4
:1008E0000DAF52EA43057FF4EBAE12E74FF0FF3C49
:1008F00006E000BF4FF0010C02E000BF4FF0010C1A
:100900004DF804CD4FEA410C7FEA6C5C4FEA430C92
:1009100018BF7FEA6C5C1BD001B050EA410C0CBFE1
:1009200052EA430C91EA030F02BF90EA020F002043
:10093000704710F1000F91EA030F58BF994208BFAA
:1009400090422CBFD8176FEAE37040F00100704767
:100950004FEA410C7FEA6C5C02D150EA013C07D1BE
:100960004FEA430C7FEA6C5CD6D152EA033CD3D009
:100970005DF8040B704700BF8446104662468C4603
:100980001946634600E000BF01B5FFF7B7FF002836
:1009900048BF10F1000F01BD4DF808EDFFF7F4FF5F
:1009A0000CBF012000205DF808FB00BF4DF808EDEA
:1009B000FFF7EAFF34BF012000205DF808FB00BF0D
:1009C0004DF808EDFFF7E0FF94BF012000205DF82F
:1009D00008FB00BF4DF808EDFFF7CEFF94BF0120E4
:1009E00000205DF808FB00BF4DF808EDFFF7C4FFDD
:1009F00034BF012000205DF808FB00BF4FEA410230
:100A000012F5001215D211D56FF47873B3EB625260
:100A100012D94FEAC12343F0004343EA505311F087
:100A2000004F23FA02F018BF404270474FF0000019
:100A3000704750EA013005D111F0004008BF6FF057
:100A4000004070474FF00000704700BF2DE9F047AD
:100A5000089E0D4604468846002B4DD18A42944696
:100A600068D9B2FA82F252B101FA02F3C2F120015E
:100A700020FA01F10CFA02FC41EA030894404FEA23
:100A80001C41B8FBF1F71FFA8CFE01FB178807FB2E
:100A90000EF0230C43EA084398420AD91CEB0303E7
:100AA00007F1FF3580F01E81984240F21B81023F22
:100AB00063441B1AB3FBF1F001FB103300FB0EFE85
:100AC000A4B244EA0344A6450AD91CEB040400F18D
:100AD000FF3380F00981A64540F206816444023864
:100AE0000021A4EB0E0440EA07401EB10023D440CD
:100AF000C6E90043BDE8F0878B4208D9002E00F01C
:100B0000EE800021C6E900050846BDE8F087B3FA8B
:100B100083F100294AD1AB4202D3824200F2FC8029
:100B2000841A65EB030301209846002EE2D0C6E943
:100B30000048DFE702B9FFDEB2FA82F2002A40F095
:100B40009180A1EB0C0001214FEA1C471FFA8CFE9B
:100B5000B0FBF7F307FB1300250C45EA00450EFB3D
:100B600003F0A84208D91CEB050503F1FF3802D2B7
:100B7000A84200F2CE8043462D1AB5FBF7F007FBE2
:100B800010550EFB00FEA4B244EA0544A64508D960
:100B90001CEB040400F1FF3502D2A64500F2B6803A
:100BA0002846A4EB0E0440EA03409EE7C1F120076B
:100BB0008B4022FA07FC4CEA030C25FA07FA4FEAAD
:100BC0001C49BAFBF9F820FA07F309FB18AA8D4073
:100BD0001FFA8CFE1D4300FA01F308FB0EF02C0CEB
:100BE00044EA0A44A04202FA01F20BD91CEB0404C5
:100BF00008F1FF3A80F08880A04240F28580A8F199
:100C000002086444241AB4FBF9F009FB104400FB09
:100C10000EFEADB245EA0444A64508D91CEB040417
:100C200000F1FF356CD2A6456AD90238644440EA27
:100C30000840A0FB0295A4EB0E04AC42C846AE46A9
:100C400056D353D0002E69D0B3EB080264EB0E04E8
:100C500022FA01F304FA07F71F43CC40C6E90074F7
:100C6000002147E70CFA02FCC2F1200125FA01F34A
:100C70004FEA1C4720FA01F195400D43B3FBF7F111
:100C800007FB11331FFA8CFE280C40EA034001FBDE
:100C90000EF3834204FA02F408D91CEB000001F1C0
:100CA000FF382FD283422DD902396044C01AB0FBDD
:100CB000F7F307FB1300ADB245EA004503FB0EF066
:100CC000A84208D91CEB050503F1FF3816D2A8424B
:100CD00014D9023B6544281A43EA014138E73146FA
:100CE000304607E72F46E4E61846F9E64B45A9D219
:100CF000B9EB020865EB0C0E0138A3E74346EAE7BF
:100D0000284694E74146D1E7D0467BE76444023861
:100D100047E7023B65442FE7084606E73146E9E628
:100D2000704700BF844641EA000313F0030349D132
:100D3000403A23D30B6803604B6843608B68836041
:100D4000CB68C3600B6903614B6943618B69836145
:100D5000CB69C3610B6A03624B6A43628B6A83622D
:100D6000CB6AC3620B6B03634B6B43638B6B836315
:100D7000CB6BC36340304031403ADBD230320BD3CF
:100D80000B6803604B6843608B688360CB68C3600B
:100D900010301031103AF3D20C3205D351F8043B25
:100DA00040F8043B043AF9D2043208D0D2071CBF01
:100DB00011F8013B00F8013B01D30B88038060462A
:100DC000704700BF082A13D38B07B1D010F003037C
:100DD000AED0C3F10403D21ADB071CBF11F8013BEC
:100DE00000F8013BA4D331F8023B20F8023B9FE717
:100DF000043AD9D3013A11F8013B00F8013BF9D28A
:100E00000B7803704B7843708B7883706046704723
:100E10004FEA410C7FEA6C5C02D150EA013C0AD1F6
:100E20004FEA430C7FEA6C5C02D152EA033C02D1E8
:100E30004FF0000070474FF00100704753B94AB9B6
:100E4000002908BF00281CBF4FF0FF314FF0FF30D2
:100E5000FFF766BFADF1080C6DE904CEFFF7F6FDB4
:100E6000DDF804E0DDE9022304B0704700B583B08B
:100E70000E4B5A6942F001025A615B6903F00103AB
:100E80000193019B00221146102000F045FC102028
:100E900000F07AFC00221146112000F03DFC1120E8
:100EA00000F072FC03B05DF804FB00BF00100240CC
:100EB0002DE9F04389B00024049405940694079426
:100EC0003D4B9A6942F010029A619A6902F0100251
:100ED0000092009A9A6942F020029A619A6902F09F
:100EE00020020192019A9A6942F004029A619A6979
:100EF00002F004020292029A9A6942F008029A6190
:100F00009B6903F008030393039BDFF8B09022462C
:100F10004FF40051484600F003FFDFF8A48022465A
:100F20000121404600F0FCFE264E22464CF601010F
:100F3000304600F0F5FE012240F20241304600F05A
:100F4000EFFE4FF400530493012505950694022704
:100F5000079704A9484600F0D1FD0495059506942D
:100F6000079704A9404600F0C9FD40F60103049329
:100F7000059506944FF00308CDF81C8004A930466F
:100F800000F0BCFD40F20243049311230593069543
:100F9000CDF81C8004A9304600F0B0FD4FF440436A
:100FA000049305950694079704A9304600F0A6FD22
:100FB00009B0BDE8F08300BF0010024000100140FE
:100FC00000080140000C014072B6FEE700B591B088
:100FD0002822002106A804F065FA00230193029359
:100FE000039304930593012206924FF480330793F1
:100FF0000A9202220D920E934FF4E0130F9306A86B
:1010000000F0AAFE80B90F23019302210291002370
:1010100003934FF480620492059301A801F0CEF887
:1010200020B911B05DF804FBFFF7CEFFFFF7CCFF4E
:1010300000B583B000F026FB2C4803F063FEFFF7F9
:10104000C5FFFFF735FF00F0A5F900F013F9FFF732
:101050000DFF00F02DFA00F011FA0021244801F0F4
:10106000FDFC244C244B4FF496722449204602F098
:10107000B5FE204602F0C2FE02F059FE4FF47A702F
:1010800000F024FB02F002FB4FF47A7000F01EFB2C
:1010900004F1100393E803008DE8030094E80F00C7
:1010A00002F0B0FA03281DD0154A0121084602F0CB
:1010B0002DFE104B9B7DDBB2012BFAD1114B1B781F
:1010C000012BF6D1104E114D0A4C324629462046CE
:1010D00002F004FD3168286802F0F2FB204602F0BD
:1010E00099FEE6E7074B01221A70DDE7180B002096
:1010F000000A0020E0090020600B0020480A0020C0
:10110000A8D20008D4090020DC090020D80900205A
:1011100082B00E4B9A6942F001029A619A6902F01C
:1011200001020092009ADA6942F08052DA61DB69CA
:1011300003F080530193019B054A536823F0E06359
:1011400043F00073536002B0704700BF00100240CC
:1011500000000140FEE7FEE7FEE7FEE7FEE770471E
:101160007047704708B500F09FFA08BD08B50248FF
:1011700000F022FC08BD00BF900A002008B502481C
:1011800000F01AFC08BD00BFD40A002008B50248D0
:1011900001F0DBF908BD00BF480A002008B502488D
:1011A00001F0D4FF08BD00BF600B00200368B3F15D
:1011B000804F00D070470A4B5B7DDBB2012BF9D129
:1011C000074B5B89074A1288934202D0054A138075
:1011D000F0E7034B01229A7500225A75704700BF51
:1011E000E0090020F80900200268074B9A4200D06D
:1011F0007047064B01225A75D9685A89187D885460
:101200005A8901325A81F3E700440040E009002086
:101210000120704708B503F01FFE162303604FF04E
:10122000FF3008BD08B54FF0FF31FFF7F3FFFEE7D1
:1012300008B503460B4A126842B10A4A10680344D3
:101240006A46934206D8074A136008BD054A064914
:101250001160F2E703F000FE0C2303604FF0FF3053
:10126000F3E700BFFC090020F80B00204FF0FF302F
:101270007047704700B587B000230293039304932F
:1012800005930093019316484FF08042026040F2AC
:10129000CF224260836040F2E732C2600361836123
:1012A00001F04AFA90B94FF48053029302A90C4816
:1012B00001F046FB68B90023009301936946084892
:1012C00001F03AFC40B907B05DF804FBFFF77CFE83
:1012D000E9E7FFF779FEEEE7FFF776FEF3E700BFF9
:1012E000480A002000B583B00368144A934205D031
:1012F000B3F1804F0DD003B05DF804FB104B9A6939
:1013000042F400629A619B6903F400630093009BBE
:10131000F1E703F50433DA6942F00102DA61DB69CF
:1013200003F001030193019B002202211C2000F025
:10133000F3F91C2000F028FADDE700BF002C014083
:101340000010024000B587B000230293039304937A
:10135000059302680D4B9A4202D007B05DF804FB7A
:1013600003F564439A6942F004029A619B6903F0B1
:1013700004030193019B4FF48073029302230393B0
:10138000059302A9024800F0B9FBE6E7002C0140F2
:101390000008014010B596B00024129413941494E0
:1013A00015941094119409940A940B940C940D9430
:1013B0000E940F942022214601A804F073F82D48C2
:1013C0002D4B036040F2CF23436084606323C360EE
:1013D00004614461846101F0AFF9002837D14FF412
:1013E0008053129312A9234801F0AAFA002831D1A0
:1013F000204801F0CDF900282FD10023109311933C
:1014000010A91C4801F098FB50BB602309930022EF
:101410000A920B920C920D920E920F9209A9154806
:1014200001F014FAF8B90023019302930393049393
:1014300005934FF400520692089301A90D4801F05C
:10144000B1FB98B90B48FFF77DFF16B010BDFFF751
:10145000BBFDC4E7FFF7B8FDCAE7FFF7B5FDCCE772
:10146000FFF7B2FDD1E7FFF7AFFDDCE7FFF7ACFD1B
:10147000E8E700BF000A0020002C014008B50A4838
:101480000A4B03604FF4E133436000238360C36081
:1014900003610C2242618361C36101F0ABFC00B9BE
:1014A00008BDFFF791FDFBE7180B00200038014055
:1014B00008B50A480A4B03604FF4E1334360002348
:1014C0008360C36003610C2242618361C36101F0E8
:1014D00091FC00B908BDFFF777FDFBE7600B00202A
:1014E0000044004070B588B0002304930593069330
:1014F00007930368484A934205D00446474A9342FB
:101500002BD008B070BD464B9A6942F480429A6174
:101510009A6902F480420092009A9A6942F00402A9
:101520009A619B6903F004030193019B4FF40073DC
:10153000049302230593032307933A4C04A92046FE
:1015400000F0DCFA4FF480630493002305930693C4
:1015500004A9204600F0D2FAD3E7314BDA6942F40D
:101560000032DA61DA6902F400320292029A9A6970
:1015700042F004029A619B6903F004030393039B06
:10158000042304930223059303230793254E04A900
:10159000304600F0B3FA082304930025059506951C
:1015A00004A9304600F0AAFA1F48204B03604560AA
:1015B00085608023C36005614561202383614FF40A
:1015C0000053C36100F018F9F8B9174BE3635C628C
:1015D0001748184B03601023436000238360802268
:1015E000C2600361436120228261C36100F004F99B
:1015F00070B90F4BA3635C6200221146262000F0F5
:101600008BF8262000F0C0F87BE7FFF7DDFCDCE775
:10161000FFF7DAFCEDE700BF00380140004400406E
:101620000010024000080140900A00206C000240B7
:10163000D40A00208000024010B504460E4B1878F2
:101640004FF47A73B3FBF0F30C4A1068B0FBF3F07D
:1016500000F0A8F868B90F2C01D901200AE0002297
:1016600021464FF0FF3000F057F8054B1C6000207A
:1016700000E0012010BD00BF040000200000002099
:101680000800002008B5074A136843F010031360F0
:10169000032000F02FF80F20FFF7CEFFFFF738FDF3
:1016A000002008BD00200240034A1168034B1B784C
:1016B0000B441360704700BFA80B002004000020FB
:1016C000014B1868704700BFA80B002038B50446CE
:1016D000FFF7F6FF0546B4F1FF3F02D0044B1B783D
:1016E0001C44FFF7EDFF401BA042FAD338BD00BFFA
:1016F00004000020074AD36823F4E0631B041B0C9A
:10170000000200F4E060034343F0BF6343F400339E
:10171000D360704700ED00E000B5194BDB68C3F300
:101720000223C3F1070CBCF1040F28BF4FF0040CD7
:1017300003F1040EBEF1060F18D9033B4FF0FF3E34
:101740000EFA0CFC21EA0C0199400EFA03F322EA8E
:101750000303194300280BDB0901C9B200F1604003
:1017600000F5614080F800135DF804FB0023E5E715
:1017700000F00F000901C9B2024B1954F4E700BF91
:1017800000ED00E014ED00E0002807DB00F01F0290
:10179000400901239340024A42F82030704700BFBD
:1017A00000E100E00138B0F1807F0BD24FF0E02380
:1017B0005861054AF02182F8231000209861072221
:1017C0001A6170470120704700ED00E030B4012439
:1017D000056CAC40C56B6C60046863604368102B9B
:1017E00005D0036899600368DA6030BC704703680D
:1017F0009A600368D960F8E760B310B402460168E4
:10180000154B0B441548A0FB03031B099B001364F5
:10181000134BD363022382F82130086820F47F50F1
:1018200020F03000536894682343D468234314693C
:1018300023435469234394692343D46923430343D3
:101840000B6000209063012382F8213082F8200091
:1018500010BC704701207047F8FFFDBFCDCCCCCC49
:101860000000024038B5044690F82000012832D02C
:10187000012084F8200094F82100C0B2012804D08F
:10188000002384F82030022038BD022084F8210093
:101890000020A0632568286820F001002860204609
:1018A000FFF794FFE36A5BB12268136843F00E030D
:1018B00013602268136843F0010313600020E3E71C
:1018C0002268136823F0040313602268136843F04E
:1018D0000A031360EDE70220D6E790F82130DBB26F
:1018E000022B06D004238363002380F820300120DC
:1018F00070470268136823F00E03136002681368D0
:1019000023F001031360036CC16B012202FA03F39D
:101910004B6080F82120002380F820301846704763
:1019200008B590F82130DBB2022B03D00423836387
:10193000012008BD0268136823F00E0313600268DB
:10194000136823F0010313600368194A934214D00B
:10195000143293421FD0143293421ED01432934259
:101960001ED0143293421ED01432934202D04FF054
:10197000807203E04FF4801200E001220D4B5A60A8
:10198000012380F82130002380F82030436B6BB1B5
:1019900098470020CDE71022F0E74FF48072EDE782
:1019A0004FF48052EAE74FF48032E7E70020C0E7C7
:1019B000080002400000024038B5C36B1A68046892
:1019C0002568016C04238B40134235D015F0040FB9
:1019D00032D0236813F0200F03D1236823F00403CF
:1019E00023600368434A934214D01432934218D0C0
:1019F0001432934217D01432934217D014329342C8
:101A000017D01432934202D04FF0806203E04FF4BB
:101A1000800200E00422384B5A60C36A03B1984741
:101A200038BD4022F7E74FF48062F4E74FF480427C
:101A3000F1E74FF48022EEE702238B4013423CD0C3
:101A400015F0020F39D0236813F0200F06D1236858
:101A500023F00A032360012380F821300368254A1C
:101A6000934214D0143293421CD0143293421BD0B0
:101A7000143293421BD0143293421BD0143293423F
:101A800002D04FF0007203E04FF4001200E0022297
:101A9000194B5A60002380F82030836A002BBFD096
:101AA0009847BDE72022F3E74FF40072F0E74FF4C8
:101AB0000052EDE74FF40032EAE7082303FA01F1A0
:101AC0001142ADD015F0080FAAD0236823F00E0301
:101AD0002360026CC16B012303FA02F24A60836344
:101AE00080F82130002380F82030036B002B97D042
:101AF000984795E7080002400000024070B582B0A8
:101B00000024A446A6E0804DAA4210D007D97F4DFC
:101B1000AA420CD005F58035AA4208D013E0A5F5FD
:101B20008015AA4203D005F57025AA4207D18A681C
:101B3000002A58D0012A51D04361082403E0A5F5BA
:101B40008015AA42F3D0BEF1FF0F4ED80646BEF173
:101B5000FF0F4CD84FEA8C0233680F25954023EADB
:101B6000050304FA02F2134333604B6813F0805FFD
:101B70006ED0674B9A6942F001029A619B6903F04B
:101B800001030193019B4FEA9C02951C614B53F8A2
:101B900025600CF003039D000F23AB4026EA0306EB
:101BA0005D4B984229D003F58063984200F08E8007
:101BB00003F58063984200F08B8003F580639842C0
:101BC00019D004231AE0CC68BDE7CC680434BAE726
:101BD000CC680834B7E7CC680C34B4E70361082458
:101BE000B1E70024AFE70424ADE7061DAFE7ACF191
:101BF00008029200B0E7032300E00023AB40334328
:101C00000232444D45F822304B6813F4801F61D0F6
:101C1000424A936843EA0E0393604B6813F4001F33
:101C20005ED03E4AD36843EA0E03D3604B6813F498
:101C3000003F5BD0394A536843EA0E0353604B6858
:101C400013F4803F58D0354A136843EA0E031360FB
:101C50000CF1010C0A6832FA0CF353D0012303FA99
:101C60000CF302EA030E33EA0202F1D14A68122AA7
:101C70003FF649AF122A3FF666AF01A555F822F0AC
:101C80002F1B0008C71B0008D11B0008E31B00081E
:101C9000471B0008471B0008471B0008471B00089C
:101CA000471B0008471B0008471B0008471B00088C
:101CB000471B0008471B0008471B0008471B00087C
:101CC000471B0008CB1B0008D71B0008012395E722
:101CD000022393E7114A936823EA0E0393609CE77B
:101CE0000E4AD36823EA0E03D3609FE70B4A53687A
:101CF00023EA0E035360A2E7084A136823EA0E039F
:101D00001360A5E702B070BD000022100000311082
:101D100000100240000001400008014000040140A2
:101D20000AB10161704709040161704782B0084B34
:101D30001B68084AA2FB03235B0A00FB03F3019321
:101D400000BF019B5A1E0192002BF9D102B07047CF
:101D500000000020D34D6210002800F0F18170B522
:101D600082B00446036813F0010F2CD0994B5B68D6
:101D700003F00C03042B1DD0964B5B6803F00C039F
:101D8000082B12D06368B3F5803F41D0002B55D1AA
:101D900003F1804303F504331A6822F480321A6099
:101DA0001A6822F480221A6037E08A4B5B6813F4C9
:101DB000803FE7D0874B1B6813F4003F03D0636874
:101DC000002B00F0BF81236813F0020F75D0814B08
:101DD0005B6813F00C0F5FD07E4B5B6803F00C0365
:101DE000082B54D02369002B00F08A807A4B012203
:101DF0001A60FFF765FC0546764B1B6813F0020F6F
:101E000075D1FFF75DFC401B0228F5D903209EE148
:101E1000704A136843F480331360636843B3FFF779
:101E20004FFC05466B4B1B6813F4003FCBD1FFF70B
:101E300047FC401B6428F5D9032088E1B3F5A02FA7
:101E400009D0644B1A6822F480321A601A6822F4AE
:101E500080221A60E1E703F18043A3F53C331A685E
:101E600042F480221A601A6842F480321A60D4E781
:101E7000FFF726FC0546574B1B6813F4003FA2D022
:101E8000FFF71EFC401B6428F5D903205FE1514B8E
:101E90005B6813F4803FA5D14E4B1B6813F0020F13
:101EA00003D02369012B40F04F814A4A136823F085
:101EB000F803616943EAC1031360236813F0080F54
:101EC00033D0A369002B5CD0434B0122C3F880249C
:101ED000FFF7F6FB05463F4B5B6A13F0020F21D17B
:101EE000FFF7EEFB401B0228F5D903202FE1394A0A
:101EF000136823F0F803616943EAC1031360DCE768
:101F0000354B00221A60FFF7DBFB0546314B1B689F
:101F100013F0020FD1D0FFF7D3FB401B0228F5D9F5
:101F2000032014E10120FFF701FF236813F0040FE1
:101F300000F09680274BDB6913F0805F34D1254B8E
:101F4000DA6942F08052DA61DB6903F08053019371
:101F5000019B0125214B1B6813F4807F26D0E36889
:101F6000012B3DD0002B53D103F1804303F5043303
:101F70001A6A22F001021A621A6A22F004021A6234
:101F800033E0154B0022C3F88024FFF799FB054688
:101F9000104B5B6A13F0020FC7D0FFF791FB401B99
:101FA0000228F5D90320D2E00025D3E70B4A1368B5
:101FB00043F480731360FFF783FB0646074B1B68EF
:101FC00013F4807FCBD1FFF77BFB801B6428F5D90E
:101FD0000320BCE0001002400000424200700040BC
:101FE0005F4A136A43F001031362E36833B3FFF7F8
:101FF00067FB06465A4B1B6A13F0020F2FD1FFF7FF
:102000005FFB801B41F288339842F3D903209EE0A6
:10201000052B09D0524B1A6A22F001021A621A6A81
:1020200022F004021A62E0E74D4B1A6A42F0040201
:102030001A621A6A42F001021A62D6E7FFF740FB01
:102040000646474B1B6A13F0020F08D0FFF738FB18
:10205000801B41F288339842F3D9032077E0E5B939
:10206000E369002B72D03E4A526802F00C02082A43
:1020700056D0022B17D03B4B00221A66FFF720FBED
:102080000446374B1B6813F0007F47D0FFF718FB5F
:10209000001B0228F5D9032059E0314AD36923F007
:1020A0008053D361DCE72F4B00221A66FFF708FB51
:1020B00005462B4B1B6813F0007F06D0FFF700FB93
:1020C000401B0228F5D9032041E0236AB3F5803F85
:1020D0001AD023494B6823F47413226A606A0243BE
:1020E00013434B601F4B01221A66FFF7E9FA0446BF
:1020F0001B4B1B6813F0007F0ED1FFF7E1FA001BAA
:102100000228F5D9032022E0154A536823F400334E
:10211000A1680B435360DCE7002018E0002016E0C4
:10212000012B16D00E4B5B6803F48031226A91427A
:1021300011D103F47013626A93420ED1002006E0BD
:1021400001207047012002E0012000E0002002B0E1
:1021500070BD0120FBE70120F9E70120F7E700BF90
:1021600000100240000042420F4B5B6803F00C027B
:10217000082A01D00D487047C3F383420C49885C9C
:1021800013F4803F0BD0084B5B68C3F34043094A0C
:10219000D35C064A02FB00F0B0FBF3F07047064B3D
:1021A00003FB00F0704700BF0010024000127A00ED
:1021B000D4D20008E4D2000800093D00002800F055
:1021C000A08070B50D460446524B1B6803F0070310
:1021D0008B420BD24F4A136823F007030B43136063
:1021E000136803F007038B4240F08D80236813F0DF
:1021F000020F17D013F0040F04D0474A536843F47A
:10220000E0635360236813F0080F04D0424A536818
:1022100043F460535360404A536823F0F003A168CD
:102220000B435360236813F0010F31D06368012B17
:1022300020D0022B25D0384A126812F0020F64D049
:1022400035494A6822F0030213434B60FFF738FA1E
:102250000646314B5B6803F00C036268B3EB820FF8
:1022600016D0FFF72DFA801B41F288339842F0D93F
:10227000032045E0284A126812F4003FE0D1012013
:102280003EE0254A126812F0007FD9D1012037E0E4
:10229000204B1B6803F00703AB420AD91D4A1368A1
:1022A00023F007032B431360136803F00703AB42CB
:1022B0002DD1236813F0040F06D0174A536823F476
:1022C000E063E1680B435360236813F0080F07D005
:1022D000114A536823F46053216943EAC1035360F0
:1022E000FFF742FF0C4B5B68C3F303130B4AD35C4D
:1022F000D8400B4B18600B4B1868FFF79DF9002076
:1023000070BD012070470120FAE70120F8E70120A5
:10231000F6E700BF0020024000100240BCD20008D7
:102320000000002008000020014B1868704700BF23
:102330000000002008B5FFF7F7FF044B5B68C3F30C
:102340000223034AD35CD84008BD00BF00100240FE
:10235000CCD2000808B5FFF7E7FF044B5B68C3F376
:10236000C223034AD35CD84008BD00BF001002401E
:10237000CCD2000870B4036A026A22F00102026241
:102380004668826922F073020C6844EA020523F071
:1023900002028B6813430D4CA04209D00B4CA042A3
:1023A0000DD0466085614A684263036270BC704725
:1023B00023F00803CA68134323F00403EEE726F46E
:1023C00040764A6932438E691643EAE7002C0140A1
:1023D00030B4036A026A22F4807202624568C269FC
:1023E00022F073020C68224323F400738C6843EAE2
:1023F00004230F4CA04209D00D4CA0420ED04560E2
:10240000C2614A68C263036230BC704723F4006350
:10241000CC6843EA042323F48063EDE725F44055B8
:102420004C6945EA04158C6945EA0415E7E700BFE5
:10243000002C014030B4036A026A22F48052026226
:102440004468C26922F4E6420D6842EA052223F498
:1024500000538D6843EA0533074DA84206D0446017
:10246000C2614A680264036230BC704724F480444D
:102470004D6944EA8514F2E7002C014010B4036A68
:10248000046A24F001040462846924F0F00C4CEA2C
:10249000021223F00A030B438261036210BC7047EF
:1024A00010B4036A046A24F010040462846924F4FA
:1024B000704C4CEA023223F0A00343EA011382611C
:1024C000036210BC7047836823F070030B4343F032
:1024D000070383607047000090F83D30DBB2012BAA
:1024E00027D1022380F83D300268D36843F001030E
:1024F000D3600368114A934210D0B3F1804F0DD0DE
:10250000A2F59432934209D002F58062934205D03D
:102510001A6842F001021A60002070479A6802F0BF
:102520000702062A07D01A6842F001021A6000204A
:102530007047012070470020704700BF002C014009
:102540007047704770477047704710B5044603687E
:102550001A6912F0020F11D0DA6812F0020F0DD0D2
:102560006FF002021A610123037703689B6913F07D
:10257000030F70D0FFF7E6FF0023237723681A6963
:1025800012F0040F12D0DA6812F0040F0ED06FF0C0
:1025900004021A610223237723689B6913F4407FA6
:1025A0005FD02046FFF7CEFF0023237723681A6908
:1025B00012F0080F12D0DA6812F0080F0ED06FF088
:1025C00008021A61042323772368DB6913F0030FE1
:1025D0004ED02046FFF7B6FF0023237723681A6901
:1025E00012F0100F12D0DA6812F0100F0ED06FF048
:1025F00010021A61082323772368DB6913F4407FF4
:102600003DD02046FFF79EFF0023237723681A69F9
:1026100012F0010F03D0DA6812F0010F36D12368EF
:102620001A6912F0800F03D0DA6812F0800F34D1EB
:1026300023681A6912F0400F03D0DA6812F0400FD5
:1026400032D123681A6912F0200F03D0DA6812F031
:10265000200F30D110BDFFF774FF2046FFF773FF46
:102660008AE72046FFF76DFF2046FFF76CFF9BE7E8
:102670002046FFF766FF2046FFF765FFACE72046E0
:10268000FFF75FFF2046FFF75EFFBDE76FF0010237
:102690001A612046FEF78AFDC1E76FF080021A61D9
:1026A000204600F0A9FAC3E76FF040021A61204605
:1026B000FFF74AFFC5E76FF020021A61204600F0DD
:1026C0009AFAC7E703681B4A90420AD0B0F1804FDC
:1026D00007D0A2F59432904203D002F58062904276
:1026E00003D123F070034A681343124A90420AD080
:1026F000B0F1804F07D0A2F59432904203D002F59A
:102700008062904203D123F44073CA68134323F0DC
:1027100080034A69134303608B68C3620B6883625A
:10272000044B984202D00123436170470B69036355
:10273000F9E700BF002C014040B310B5044690F803
:102740003D30F3B1022384F83D30214651F8040BAB
:10275000FFF7B8FF012384F8463084F83E3084F850
:102760003F3084F8403084F8413084F8423084F8B7
:10277000433084F8443084F8453084F83D300020FC
:1027800010BD80F83C30FEF7ADFDDBE7012070475F
:1027900040B310B5044690F83D30F3B1022384F8FD
:1027A0003D30214651F8040BFFF78CFF012384F8DC
:1027B000463084F83E3084F83F3084F8403084F866
:1027C000413084F8423084F8433084F8443084F84F
:1027D000453084F83D30002010BD80F83C30FFF7D4
:1027E000AFFEDBE70120704730B4036A026A22F0D3
:1027F000100202624468826922F4E6420D6842EAED
:10280000052223F020038D6843EA05130E4DA842EC
:1028100009D00D4DA8420ED0446082614A6882639F
:10282000036230BC704723F08003CD6843EA051390
:1028300023F04003EDE724F440644D6944EA850445
:102840008D6944EA8504E7E7002C014038B590F82B
:102850003C30012B66D004460D46012380F83C3005
:102860000C2A5AD8DFE802F0075959591B5959590F
:102870003059595944000068FFF77CFD226893697C
:1028800043F0080393612268936923F00403936182
:102890002268936929690B43936100203EE0006838
:1028A000FFF7A2FF2268936943F4006393612268F3
:1028B000936923F48063936122689369296943EAE9
:1028C00001239361002029E00068FFF781FD226861
:1028D000D36943F00803D3612268D36923F004036A
:1028E000D3612268D36929690B43D361002015E0C5
:1028F0000068FFF79FFD2268D36943F40063D3614A
:102900002268D36923F48063D3612268D36929697B
:1029100043EA0123D361002000E00120002384F872
:102920003C3038BD0220FCE710B4846824F47F4CAE
:1029300042EA03220A4342EA0C02826010BC70475A
:1029400090F83C30012B78D010B50446012380F874
:102950003C30022380F83D300268936823F47F43C3
:1029600023F0770393600B68602B4CD029D8402B61
:1029700054D00CD9502B22D1CA6849680068FFF79F
:102980007DFD50212068FFF79EFD002005E0202BF3
:102990000DD009D9302B0AD00120012384F83D3015
:1029A000002384F83C3010BD0BB1102B05D1194623
:1029B0002068FFF788FD0020EFE70120EDE7012008
:1029C000EBE7B3F5805F34D0B3F5005F0CD1CB6893
:1029D0004A6889680068FFF7A7FF2268936843F494
:1029E000804393600020D8E7702B24D1CB684A68DD
:1029F00089680068FFF798FF2268936843F07703BF
:102A000093600020C9E7CA6849680068FFF748FD7D
:102A100060212068FFF757FD0020BEE7CA684968BB
:102A20000068FFF72BFD40212068FFF74CFD0020D8
:102A3000B3E70020B1E70120AFE70220704701F0C3
:102A40001F01012303FA01FC036A23EA0C0303625A
:102A5000036A02FA01F10B430362704710B50446A2
:102A6000084651BB94F83E30DBB2013B18BF01234E
:102A7000002B5BD1002839D1022384F83E3001229B
:102A800001462068FFF7DBFF23682A4A93423DD0C6
:102A90002368284A93423ED0B3F1804F3BD0A2F541
:102AA0009432934237D002F58062934233D01A6851
:102AB00042F001021A60002039E0042908D00829F8
:102AC0000DD094F84130DBB2013B18BF0123CFE7B2
:102AD00094F83F30DBB2013B18BF0123C8E794F8FC
:102AE0004030DBB2013B18BF0123C1E7042805D009
:102AF000082807D0022384F84130C0E7022384F875
:102B00003F30BCE7022384F84030B8E75A6C42F407
:102B100000425A64BCE79A6802F00702062A07D00E
:102B20001A6842F001021A60002000E0012010BD86
:102B30000020FCE7002C014090F83C30012B2CD009
:102B400010B4012380F83C30022380F83D30036844
:102B50005A689C6822F0700C0A6842EA0C025A60BB
:102B600003680F4A93420AD0B3F1804F07D0A2F511
:102B70009432934203D002F58062934204D124F050
:102B800080044A6814439C60012380F83D30002390
:102B900080F83C30184610BC70470220704700BFD8
:102BA000002C014090F83C30012B22D0012380F80A
:102BB0003C30CB6823F440738A68134323F480636A
:102BC0004A68134323F400630A68134323F48053D1
:102BD0000A69134323F400534A69134323F48043DF
:102BE000CA69134302685364002380F83C301846D6
:102BF00070470220704770477047026802F10C036B
:102C000053E8003F23F0C0030C3242E800310029B2
:102C1000F3D1202380F841307047026802F10C03A1
:102C200053E8003F23F490730C3242E8003100294E
:102C3000F3D1026802F1140353E8003F23F00103CB
:102C4000143242E800310029F3D1036B012B05D087
:102C5000202380F84230002303637047026802F1AA
:102C60000C0353E8003F23F010030C3242E800311C
:102C70000029F3D1ECE790F84130DBB2212B01D0F1
:102C8000022070478368B3F5805F17D0036A5A1C2F
:102C900002621A7803685A60C38C9BB2013B9BB2F4
:102CA000C3844BB90268D36823F08003D360026801
:102CB000D36843F04003D360002070470369002BC2
:102CC000E4D1036A1B880268C3F308035360036AF4
:102CD00002330362E0E7000010B50446026813699E
:102CE00023F44053C1680B431361836802691343A3
:102CF00042691A430168CB6823F4B05323F00C03F4
:102D00001343CB600268536923F4407381690B431A
:102D100053610268134B9A4220D0FFF70BFB024627
:102D200002EB820202EB820263689B00B2FBF3F2C9
:102D30000D48A0FB02314909642303FB11231B0149
:102D40003233A0FB03235B0903F0F00202EB011214
:102D500003F00F03216813448B6010BDFFF7FAFAEC
:102D60000246DDE7003801401F85EB512DE9F843AD
:102D700005460F4616469946DDF820802C682468E3
:102D800037EA04030CBF4FF0010C4FF0000CB445C0
:102D90002DD1B8F1FF3FF1D0B8F1000F05D0FEF70B
:102DA0008FFCA0EB09004045E8D92A6802F10C032A
:102DB00053E8003F23F4D0730C3242E8003100297D
:102DC000F3D12A6802F1140353E8003F23F0010312
:102DD000143242E800310029F3D1202385F8413034
:102DE00085F84230002385F84030032000E00020C1
:102DF000BDE8F88360B310B5044690F8413013B3D2
:102E0000242384F841302268D36823F40053D3602C
:102E10002046FFF761FF2268136923F49043136192
:102E20002268536923F02A0353612268D36843F46C
:102E30000053D36000206064202384F8413084F87C
:102E40004230606310BD80F84030FEF74BFBD7E79F
:102E5000012070472DE9F04182B01E4690F84130C4
:102E6000DBB2202B4BD104460D46904600294AD0B8
:102E70000AB9012044E000234364212380F8413053
:102E8000FEF71EFC0746A4F82480A4F82680A36859
:102E9000B3F5805F02D04FF000080FE02369FBB16B
:102EA0004FF000080AE038F8023B2268C3F3080339
:102EB0005360E28C92B2013A92B2E284E38C9BB20C
:102EC0008BB100963B46002280212046FFF74EFF43
:102ED000D8B9002DE7D015F8012B23685A60E8E730
:102EE000A8460025EAE700963B46002240212046FE
:102EF000FFF73CFF58B9202384F8413000E002205E
:102F000002B0BDE8F0810120FAE70320F8E70320D2
:102F1000F6E72DE9F04182B01E4690F84230DBB270
:102F2000202B53D104460D469046002952D00AB9B1
:102F300001204CE000234364222280F842200363F6
:102F4000FEF7BEFB0746A4F82C80A4F82E80A368E9
:102F5000B3F5805F02D04FF0000817E0236913B18A
:102F60004FF0000812E0A84600250FE023685B68D8
:102F7000C3F3080328F8023B03E023685B682B7067
:102F80000135E28D92B2013A92B2E285E38D9BB2B5
:102F9000BBB100963B46002220212046FFF7E6FE0B
:102FA000D0B9002DE2D0A368B3F5805FE5D013B9A6
:102FB0002369002BE1D023685B6803F07F032B704B
:102FC000DEE7202384F84230002000E0022002B037
:102FD000BDE8F0810120FAE70320F8E7704708B563
:102FE0000168CA6822F04002CA60202280F84120AD
:102FF000FFF7F4FF002008BD7047704710B5446A22
:1030000023685A6994F84130DBB2212B10D0236831
:103010005A6902F0400294F84230DBB2222B11D000
:10302000636C43F0100363642046FFF7E6FF10BDB6
:1030300002F08002002AEAD00023E3842046FFF752
:10304000DCFDE4E7002AEBD00023E3852046FFF710
:10305000E4FDE5E708B5406A0023C385C384FFF7B4
:10306000CCFF08BD704790F84230DBB2222B69D10B
:103070008368B3F5805F4FD0826AB3F5805F04D078
:10308000002B56D10369002B53D103685B68137082
:10309000836A01338362C38D9BB2013B9BB2C385BC
:1030A000002B51D100B583B00268D36823F0200310
:1030B000D3600268D36823F48073D36002685369D5
:1030C00023F001035361202380F84230002343633F
:1030D000036B012B33D100230363026802F10C035D
:1030E00053E8003F23F010030C3242E8003100297E
:1030F000F3D103681A6812F0100F06D00022019273
:103100001A6801925B680193019B818DFFF7AAFF0A
:10311000002003B05DF804FB0269002AACD1826A8A
:1031200003685B68C3F308031380836A0233836216
:10313000B1E703685B6803F07F031370A8E7FEF74D
:1031400053F8E5E7022070470020704730B583B0A0
:10315000044602681368D068516913F00F0505D161
:1031600013F0200F02D010F0200F19D12DB111F063
:10317000010119D110F4907F16D1216B01297DD066
:1031800013F0800F03D010F0800F40F0188113F07F
:10319000400F03D010F0400F40F0158103B030BD58
:1031A0002046FFF760FFF9E713F0010F06D010F497
:1031B000807F03D0626C42F00102626413F0040F5E
:1031C00004D019B1626C42F00202626413F0020F83
:1031D00004D019B1626C42F00402626413F0080F6B
:1031E00007D010F0200F00D119B1626C42F0080234
:1031F0006264626C002AD1D013F0200F02D010F06C
:10320000200F29D123685B6903F04003626C12F040
:10321000080F00D163B32046FFF7FFFC23685B690A
:1032200013F0400F20D0226802F1140353E8003F4E
:1032300023F04003143242E800310029F3D1E36B5C
:1032400073B1634A5A63E06BFEF76AFB0028A5D0AE
:10325000E06B436B9847A1E72046FFF704FFD1E7F7
:103260002046FFF7CAFE99E72046FFF7C6FE95E71E
:103270002046FFF7C2FE002363648FE713F0100FB0
:103280003FF47EAF10F0100F3FF47AAF00230193AC
:103290001368019353680193019B536913F0400F26
:1032A00051D0E26B13685B689BB2002B3FF476AFA2
:1032B000A18D99427FF672AFE3859369202B37D0B9
:1032C000226802F10C0353E8003F23F480730C32B0
:1032D00042E800310029F3D1226802F1140353E8D7
:1032E000003F23F00103143242E800310029F3D1FA
:1032F000226802F1140353E8003F23F04003143224
:1033000042E800310029F3D1202384F84230002321
:103310002363226802F10C0353E8003F23F01003FB
:103320000C3242E800310029F3D1E06BFEF7D5FA08
:1033300002236363A18DE38D9BB2C91A89B2204633
:10334000FFF790FE2AE7A18DE38D9BB2C91A89B2DF
:10335000E38D9BB2002B3FF421AF00293FF41EAF59
:10336000226802F10C0353E8003F23F490730C32FF
:1033700042E800300028F3D1226802F1140353E838
:10338000003F23F00103143242E800300028F3D15B
:10339000202384F8423000232363226802F10C03C7
:1033A00053E8003F23F010030C3242E800300028BD
:1033B000F3D1022363632046FFF754FEEEE6204676
:1033C000FFF759FCEAE62046FFF709FEE6E600BFF4
:1033D0005530000808B5406A01234363036B012B95
:1033E00002D0FFF709FE08BD818D4908FFF73AFEBC
:1033F000F9E708B50346406A1B681B6813F0200F05
:103400002BD10023C385026802F10C0353E8003F6F
:1034100023F480730C3242E800310029F3D10268B2
:1034200002F1140353E8003F23F00103143242E891
:1034300000310029F3D1026802F1140353E8003F80
:1034400023F04003143242E800310029F3D1202355
:1034500080F84230036B012B07D000234363036BDA
:10346000012B0FD0FDF7C0FE08BD026802F10C036E
:1034700053E8003F23F010030C3242E800310029EA
:10348000F3D1EAE7818DFFF7EDFDEDE730B583B0CD
:10349000044613468162828500254564222280F815
:1034A0004220C26B1F489062E26B1F48D062E26B01
:1034B0001E481063E26B556320680A46011DE06BED
:1034C000FEF7D0F9019523681A6801925B680193B1
:1034D000019B23695BB1226802F10C0353E8003FB2
:1034E00043F480730C3242E800310029F3D12268A2
:1034F00002F1140353E8003F43F00103143242E8A1
:1035000000310029F3D1226802F1140353E8003F8F
:1035100043F04003143242E800310029F3D1002087
:1035200003B030BDF3330008D5330008FD2F000889
:1035300008B590F84230DBB2202B08D149B10AB966
:10354000012008BD00230363FFF7A0FFF9E7022075
:10355000F7E70120F5E7000084B0F8B506AC84E891
:103560000F000C9E9DF834701D4619460D4801F061
:10357000F7FF00243146284602F038FB60B90120ED
:10358000FEF7A4F80134A4B24FF47A7307FB03F3F7
:103590009C42EFDD002000E00320BDE8F84004B0CD
:1035A000704700BFE8D2000884B030B585B008ACE1
:1035B00084E80F000E9D284602F08EF940F2E733B2
:1035C00082B2294654F8100BFFF744FC9DF84030B6
:1035D0004FF47A7003FB00F0FEF778F801230393B1
:1035E0000F9B029394E803008DE8030008AB0FCB18
:1035F000FFF7B2FF032800D0062005B0BDE8304039
:1036000004B0704784B000B587B00DF1200C8CE891
:103610000F00124A0121084600F078FB03E04FF446
:103620007A70FEF753F8012304930D4B03930D4B6F
:1036300002930CAB93E803008DE8030008AB0FCBBB
:10364000FFF7B2FF0328EAD1074800F0E3FB0320AD
:1036500007B05DF804EB04B0704700BF1CD300084E
:1036600030D3000834D30008E009002001460020D0
:10367000034606E0303A00EB800002EB40000133E5
:103680009BB2CA5C002AF5D17047000000B587B034
:103690007A4A0121084600F039FB06E0784800F03C
:1036A000B9FB4FF47A70FEF711F8754B01220492C2
:1036B000744A0392744A029203F1100292E80300E2
:1036C0008DE803000FCBFFF76FFF0328E6D16C48AE
:1036D00000F0A0FB6D4A0121084600F017FB06E050
:1036E000674800F097FB4FF47A70FDF7EFFF644BEB
:1036F00001220492634A0392654A029203F1100286
:1037000092E803008DE803000FCBFFF74DFF03287D
:10371000E6D15B4800F07EFB5E4A0121084600F0DE
:10372000F5FA06E0564800F075FB4FF47A70FDF7A5
:10373000CDFF534B01220492524A0392564A029201
:1037400003F1100292E803008DE803000FCBFFF7AE
:103750002BFF0328E6D14A4800F05CFB4F4A0121C9
:10376000084600F0D3FA06E0454800F053FB4FF45A
:103770007A70FDF7ABFF424B03220492414A039259
:10378000474A029203F1100292E803008DE8030019
:103790000FCBFFF709FF0328E6D1394800F03AFBC9
:1037A000404A0121084600F0B1FA06E0344800F032
:1037B00031FB4FF47A70FDF789FF314B01220492FF
:1037C000304A0392384A029203F1100292E8030051
:1037D0008DE803000FCBFFF7E7FE0328E6D128486A
:1037E00000F018FB314A0121084600F08FFA06E08C
:1037F000234800F00FFB4FF47A70FDF767FF204B72
:10380000032204921F4A0392294A029203F11002F2
:1038100092E803008DE803000FCBFFF7C5FE0328F5
:10382000E6D1174800F0F6FA224A0121084600F0D6
:103830006DFA06E0124800F0EDFA4FF47A70FDF7E9
:1038400045FF0F4B022204920E4A03921A4A02923B
:1038500003F1100292E803008DE803000FCBFFF79D
:10386000A3FE0328E6D1064800F0D4FA134A01214A
:10387000084600F04BFA07B05DF804FB7CD3000863
:10388000E009002030D3000890D3000898D3000846
:10389000ACD30008BCD30008D0D30008E4D30008A0
:1038A000F8D3000804D4000818D4000844D4000851
:1038B00058D40008FCD4000810D500085CD50008D6
:1038C0002DE9F041D0B004460D4600264E96734BCC
:1038D0000DF5947C0FCBACE80700ACF800304AA89B
:1038E00001F0FAFF074648966D4A0DF58A7C07CA33
:1038F000ACE80300ACF8002045A801F0EDFF064657
:103900002946204601F084F9012806D0654801F0D7
:1039100089FE042050B0BDE8F0814FF00008CDF8DA
:1039200008804FAB01934EAB00933B464AAA294611
:10393000204601F0D4F90746CDF8088049AB019341
:1039400048AB0093334645AA2946204601F0C7F903
:103950000446012F0FD0544801F064FE0026012CCC
:1039600022D0524801F05EFE0025012F39D0012CF3
:1039700065D00320CEE74E9A4F9BD55C02F80380BA
:103980004E9A4AA94A4801F0EBFD4E98FFF76EFEA9
:10399000C6B23146474801F0E3FD474B1B685E6302
:1039A0004E9A4F9BD554DAE7489A499B12F8038008
:1039B0000021D154489A45A93D4801F0D1FD489BCA
:1039C0001D78303DEDB229463C4801F0C9FD2A463C
:1039D00001213B48FEF7A4F9489A499B02F803806D
:1039E000C3E73246374905A801F00EFF364E304690
:1039F00000F010FA05A801F06FFF374640F2E733F8
:103A000082B205A957F8100BFFF724FA3220FDF710
:103A10005DFE022303932D4B029397E803008DE88C
:103A2000030096E80F00FFF797FD032803D126480F
:103A300000F0F0F99BE7264801F0F4FDF7E72A468D
:103A4000244905A801F0E0FE1F4C204600F0E2F9F1
:103A500005A801F041FF254640F2E73382B205A9EF
:103A600055F8100BFFF7F6F93220FDF72FFE022371
:103A70000393194B029395E803008DE8030094E843
:103A80000F00FFF769FD032803D10F4800F0C2F9CA
:103A90006FE70F4801F0C6FDF7E700BF54D70008F5
:103AA0006CD6000854D6000840D6000814D7000889
:103AB00070D5000878D60008000A002088D50008D4
:103AC0000008014088D60008E009002008D7000857
:103AD0001CD6000898D5000814D60008F8B50E4684
:103AE0001546C4681649204602F080F810B31549FF
:103AF000204602F07BF80446022301E00133DBB2EA
:103B00009E46C3F1000C14F80CC0BCF12C0FF5D18B
:103B1000023BCEF1010020440022C254FFF7A6FD73
:103B2000074622460146084801F01AFD34602F601E
:103B30000320F8BD054801F075FD0520F9E700BF39
:103B400064D7000874D7000880D7000898D7000809
:103B500020B94FF00062034B1A6170474FF40062C6
:103B6000F9E700BF000C014008B50120FFF7F0FFA6
:103B700001224FF480610248FEF7D2F808BD00BF71
:103B8000000C014010B50A4C01224FF48061204620
:103B9000FEF7C6F80120FFF7DBFF00224FF480613B
:103BA0002046FEF7BDF80020FFF7D2FF10BD00BF92
:103BB000000C014010B5084C00224FF480612046F3
:103BC000FEF7AEF80120FFF7C3FF01224FF480613A
:103BD0002046FEF7A5F810BD000C014038B505469B
:103BE00000240FE0802222412A404FF480610A48DD
:103BF000FEF796F80120FFF7ABFF0020FFF7A8FFC4
:103C00000134E4B2072CEDD90120FFF7A1FF002019
:103C1000FFF79EFF38BD00BF000C014010B5044601
:103C2000FFF7B0FF7820FFF7D9FF0020FFF7D6FF9E
:103C30002046FFF7D3FFFFF7BDFF10BD10B50446C8
:103C4000FFF7A0FF7820FFF7C9FF4020FFF7C6FF6E
:103C50002046FFF7C3FFFFF7ADFF10BD10B50C46C0
:103C600040F0B000FFF7DAFF200940F01000FFF746
:103C7000D5FF04F00F00FFF7D1FF10BD38B50025C8
:103C800009E00020FFF7DAFF0134E4B214F0800FFE
:103C9000F7D00135EDB2072D05D800212846FFF7F2
:103CA000DDFF0024F2E738BDF8B51546461E760064
:103CB000F6B24F1EFF00FFB239463046FFF7CEFF87
:103CC000002409E0A5F120030F4A02EB0313185D5D
:103CD000FFF7B4FF0134E4B2072CF3D9701C394666
:103CE000C0B2FFF7BBFF00240BE0A5F1200304F1F5
:103CF0000802054901EB0313985CFFF79FFF0134AD
:103D0000E4B2072CF1D9F8BDACD70008F8B50746E6
:103D10000E461546002406E0A119C9B23846FFF741
:103D2000C3FF0134E4B22A5D002AF5D1F8BD08B51D
:103D3000002204E00133B3F57A7FFBD30132B2F500
:103D40007A7F01D20023F6E7FFF70EFFAE20FFF7E0
:103D500065FFD520FFF762FF8020FFF75FFFA820F7
:103D6000FFF75CFF3F20FFF759FFD320FFF756FF17
:103D70000020FFF753FF4020FFF750FFA120FFF77F
:103D80004DFFC820FFF74AFFDA20FFF747FF122058
:103D9000FFF744FF8120FFF741FFCF20FFF73EFFF1
:103DA000D920FFF73BFFF120FFF738FFDB20FFF7BB
:103DB00035FF3020FFF732FFA420FFF72FFFA620AA
:103DC000FFF72CFF8D20FFF729FF1420FFF726FFB8
:103DD000AF20FFF723FFFFF751FF08BD38B50446BA
:103DE000104623606160002565812281256101F014
:103DF00071F8E06025756575A57538BD10B5044688
:103E0000014651F8140B0122FFF792FB6068FEF7A0
:103E100063FB10BD837DDBB2012B04D100238375CE
:103E200043811846704701207047A0F16103DBB25F
:103E3000052B03D803F10A00C0B27047A0F141037B
:103E4000DBB2052B02D803F10A00F5E73038C0B227
:103E50000928F1D94FF01000EEE7222824D025D30D
:103E60007B2825D85B2825D35B38202814D8DFE8A9
:103E700000F0231313131313131313131317131334
:103E800013131313131913131313131513131313FA
:103E9000131311000620704702207047032070475B
:103EA00004207047052070470120704702207047AA
:103EB0000220704702207047072070472DE9F84321
:103EC00078B10C461E46814659B152B183B10D6896
:103ED000AF1DBA422BD9435D5C2B10D04FF00008C8
:103EE00027E01B4B1B4A4FF4A4711B4800F094FFC2
:103EF0001A4B184A40F24911174800F08DFF431938
:103F00005B78752B02D04FF0000812E002354FF0BD
:103F10000008BD420DD219F80500FFF786FF1028F2
:103F200007D040EA08181FFA88F80135F1E74FF08A
:103F30000008BD4202D00020BDE8F883B8F1000FB0
:103F400004D0A6F8008025600120F5E70020F3E703
:103F50009CDD000874E00008D4DD00081CDE0008C9
:103F6000F0B583B000B30C4615460646E1B1DAB1B0
:103F70000B6801930DF1020301A9FFF79FFF0746AC
:103F800078B1BDF8023003F5205292B2B2F5806FDD
:103F900011D303F510539BB2B3F5806F1FD3019B70
:103FA0002360384603B0F0BD0E4B0F4A4FF4C27188
:103FB0000E4800F031FF0DF102032A4601A93046F8
:103FC000FFF77CFF48B1BDF8023003F510539BB2F8
:103FD000B3F5806FE3D30027E3E70746E1E7002767
:103FE000DFE700BF9CDD000888E00008D4DD0008A2
:103FF00010B582B068B10C46844651B14AB10B6825
:104000000193511E8B4267D2C15C5C2908D000200D
:1040100063E0344B344A40F2B711344800F0FCFE00
:10402000591C415C752908D85C290CD209B90020BB
:1040300053E022294AD02F2948D01F294FD80233D4
:104040000193012045E0A1F15C001928F5D80FF299
:10405000080E5EF820F000BFCD4000083B4000088D
:104060003B4000083B4000083B4000083B40000844
:10407000CD4000083B4000083B4000083B400008A2
:10408000CD4000083B4000083B4000083B40000892
:104090003B4000083B4000083B4000083B40000814
:1040A000CD4000083B4000083B4000083B40000872
:1040B000CD4000083B400008CD400008C14000084A
:1040C00001A96046FFF74CFF18B906E002330193DF
:1040D0000120019B236000E0002002B010BD002001
:1040E000FBE700BF9CDD000898E00008D4DD000875
:1040F00008B540B139B132B10B68934209D20133EE
:104100000B60012006E0044B044AFA21044800F049
:1041100083FE002008BD00BF9CDD000858E00008B9
:10412000D4DD000870B582B068B10E46144605466D
:1041300049B142B10B68019393422FD2C25C222A4B
:1041400008D000232BE0184B184A4FF4FD71184893
:1041500000F062FE013301930BE001320192326004
:1041600001231CE0224601A92846FFF741FF034630
:10417000A8B1019AA2420FD2AB5C222BEDD05C2BEE
:10418000F0D01F2B0ED9224601A92846FFF7B0FF19
:1041900003460028EDD102E0002300E0002318468A
:1041A00002B070BD0023FAE79CDD0008A4E000081F
:1041B000D4DD000810B560B1044651B10020904232
:1041C0000ED214F800E011F800C0E64508D1013025
:1041D000F5E7064B064A40F23A21064800F01CFE7D
:1041E000904214BF0020012010BD00BF30DE000847
:1041F00044E00008D4DD000838B560B10C4651B188
:104200004AB17BB10D6895421DD2521B04998A4276
:104210000FD2002018E00D4B0D4A40F25B210D48F3
:1042200000F0FAFD0C4B0A4A4FF41771094800F0F0
:10423000F3FD0A4619462844FFF7BCFF20B1049B52
:104240001D44256000E0002038BD00BF9CDD000853
:104250004CE00008D4DD000850DE000870B582B0E4
:1042600006460D461446042300930C4BFFF7C4FF8B
:1042700008B102B070BD05230093094B22462946C0
:104280003046FFF7B9FF0028F3D104230093054B14
:10429000224629463046FFF7AFFFEAE760DE000816
:1042A00068DE000870DE00082DE9F04750B189464D
:1042B00016461F46804629B122B1D1F800A05446C7
:1042C000002509E0184B194A40F29F21184800F0D8
:1042D000A3FD4FF0FF350134B44217D218F80400A3
:1042E000A0F1300C5FFA8CFCBCF1090F0ED8002F46
:1042F000F1D0002DEFDBFFF798FD40B20D4B9D4252
:10430000E7DA05EB850500EB4505E4E7544505D9FB
:10431000C9F800402FB13D60012000E00020BDE859
:10432000F0870120FBE700BF9CDD00082CE00008BF
:10433000D4DD0008CCCCCC0C10B582B058B10C4602
:1043400049B142B10B680193934202D2C15C2E295C
:1043500008D002B010BD094B094A4FF43571094825
:1043600000F05AFD01330193002301A9FFF79CFFE0
:104370000028EED0019B2360EBE700BF9CDD000826
:104380001CE00008D4DD000810B582B070B10C4606
:10439000844659B152B10B680193934204D2C15C77
:1043A00065290AD0452908D002B010BD0E4B0F4A2E
:1043B0004FF43C710E4800F02FFD013301939342FE
:1043C00007D21CF803102D2901D02B2901D101336C
:1043D0000193002301A96046FFF766FF0028E3D0A0
:1043E000019B2360E0E700BF9CDD00080CE00008B3
:1043F000D4DD0008F0B583B008B30D461446064678
:10440000E9B1E2B10B680193934202D2C25C2D2A5A
:104410001CD0019BA34225D2F25C302A19D1013372
:1044200001930127224601A93046FFF785FF224666
:1044300001A93046FFF7A8FF019B2B6013E00B4B4F
:104440000B4A40F215310B4800F0E6FC01330193B2
:10445000DFE70023224601A93046FFF725FF074684
:1044600008B1DFE70027384603B0F0BD9CDD000847
:1044700038E00008D4DD000870B504460D46164645
:10448000FFF750FE00B170BD324629462046FFF7C7
:10449000E5FE0028F7D1324629462046FFF7AAFF5D
:1044A000F1E7000008B520B1844611B10AB10B68EC
:1044B00006E00A4B0A4A46210A4800F0ADFC0133E7
:1044C000934209D21CF803002028F8D00928F6D01E
:1044D0000A28F4D00D28F2D00B6008BD9CDD00083E
:1044E000E4E00008D4DD000870B582B078B10D4674
:1044F0001446064659B152B1FFF7D4FF2B68019319
:10450000A3421DD2F25C2C2A08D0002019E0114BE6
:10451000114A40F26B31114800F07EFC01330193E7
:10452000224601A93046FFF7BDFF019BA3420AD2F4
:10453000F25C7D2A09D05D2A09D02B60012000E0C1
:10454000002002B070BD0020FBE70020F9E700204A
:10455000F7E700BF9CDD0008E8DF0008D4DD0008B5
:1045600070B582B0D0B10E4614460546B1B1AAB1BD
:104570000B680193019BA3420CD2224601A9284655
:10458000FFF77AFF30B1224601A92846FFF7ACFFBA
:104590000028EFD1019B336002B070BD034B044A89
:1045A00040F28E31034800F037FC00BF9CDD00086C
:1045B00004E10008D4DD000870B582B038B10E46C1
:1045C0001446054619B112B10B68019314E01D4B56
:1045D0001D4A4FF46E711D4800F01EFC224601A9D1
:1045E0002846FFF749FF58B3224601A92846FFF79E
:1045F0007BFF019B336018B3019BA34220D222466C
:1046000001A92846FFF78EFDD0B1224601A9284610
:10461000FFF748FF019BA34202D2EA5C3A2A0FD17E
:1046200001330193224601A92846FFF73BFF019B76
:10463000A342D3D2EA5C7B2A01D05B2ACED133607D
:1046400002B070BD9CDD0008F0E00008D4DD000879
:10465000F8B505460E4617461C467B2B01D05B2B52
:104660000CD13A4631462846FFF71CFF5B2C0CD094
:104670003A4631462846FFF79FFFF8BD064B074AEA
:1046800040F2EF31064800F0C7FB3A463146284673
:10469000FFF766FFF1E700BF78DE0008DCDF000807
:1046A000D4DD00082DE9F0418AB050B10F4615461F
:1046B000804631B12AB10B6801934FF0FF340026D8
:1046C00021E02F4B2F4A4FF483612F4800F0A4FBC9
:1046D000022602E07D2B24D00226012E4CD030464B
:1046E0000AB0BDE8F081013424B2202C42D004F19C
:1046F00028026A4402F8203C2A4601A94046FFF7F6
:10470000A7FF002EE9D10198A842E6D218F80030A0
:10471000013001907B2BE6D0DCD85B2BE3D05D2B06
:10472000D6D1002C08DD04F128026A4412F8202CAE
:104730007B2A04D05B2A18D0D4B10226E1E77D2B76
:10474000F8D1013C24B22A4601A94046FFF7CCFE2D
:104750000028D6D004F128036B4413F8203C2A46E5
:1047600001A94046FFF774FFCBE75D2BE4D1E8E7F2
:104770000126C6E70326B0E7019B3B60AFE700BF19
:104780009CDD0008FCDF0008D4DD00082DE9F047BF
:1047900082B0DDF82880E0B10C4615461F46814600
:1047A000B9B1B2B1E3B1B8F1000F19D00E680196FA
:1047B00001A9FFF761FE8246C8B13E60019B9E1BC6
:1047C000C8F8006023604FF0010A504602B0BDE80F
:1047D000F0870B4B0B4A40F2A6410B4800F01CFB44
:1047E0000A4B084A40F2A741074800F015FB2A4649
:1047F00001A94846FFF756FF0128E6D1DDE700BFD3
:104800009CDD0008C0E00008D4DD000890DE000850
:104810002DE9F04387B01E460E9F002305930493B5
:10482000039380B10C46904605469EB197B10A4667
:1048300005A9FFF737FE059BA3423BD2EA5C5B2A42
:104840000FD0002337E01E4B1E4A40F267511E482E
:1048500000F0E2FA1D4B1B4A4FF4AD611A4800F01C
:10486000DBFA01330593224605A92846FFF71AFE15
:104870004FF00009059BA34215D203AB009304AB94
:10488000224605A92846FFF781FF034660B1C145CE
:104890000AD0224605A92846FFF726FE034618B18E
:1048A00009F10109E6E700232BB1049A3260039A6B
:1048B0003A6000E00023184607B0BDE8F08300BF6F
:1048C000C0DE0008CCE00008D4DD0008CCDE000823
:1048D00010B588B1864679B173B1A2B10C68204693
:1048E000904217D21EF800C0BCF12E0F12D0BCF1BE
:1048F0005B0F0FD00130F3E70B4B0C4A4FF4B5615F
:104900000B4800F089FA0B4B084A40F2A9510848BD
:1049100000F082FAA04204D9041B1C600860012048
:1049200010BD0020FCE700BF00DF0008B0E0000879
:10493000D4DD000840DF00082DE9F04685B0E0B185
:104940000D46144699468246B9B1B2B1E3B10C9B0B
:10495000D3B10D9BFBB10E9BEBB10E68039603A97F
:10496000FFF7E0FB0746E8B9002F39D10FB1039BF1
:104970002B60384605B0BDE8F0861F4B1F4A40F259
:10498000DB411F4800F048FA1E4B1C4A40F2DC4154
:104990001B4800F041FA1C4B184A40F2DD41184810
:1049A00000F03AFA731CC9F80030039B9B1B023BD2
:1049B0000C9A1360224603A95046FFF773FD039B30
:1049C000A34217D21AF803203A2A01D00027CDE7D4
:1049D00001330393224603A95046FFF763FDC3E763
:1049E0000E9B00930D9B224603A95046FFF7CEFE77
:1049F0000746BBE70027B9E79CDD0008C8DF0008D1
:104A0000D4DD00084CDF000890DE00082DE9F042FC
:104A10008AB09946109F002309930693059390B19D
:104A20000C461646054672B1A7B1119B93B10A46D2
:104A300009A9FFF737FD099BA34246D2EA5C7B2A0E
:104A40000FD0002142E0234B234A40F22451234857
:104A500000F0E2F9224B204A40F225511F4800F0B5
:104A6000DBF901330993224609A92846FFF71AFD0D
:104A700006E0224609A92846FFF736FD0146E8B1BF
:104A8000099BA34219D205AB029306AB019307AB76
:104A9000009308AB224609A92846FFF74DFF0146BF
:104AA00060B1079A4A45E4D1089929443046FFF796
:104AB00081FB01460028DCD000E0002131B1069BDB
:104AC0003B60059B119A136000E0002108460AB084
:104AD000BDE8F08278DF000864E00008D4DD00085B
:104AE000CCDE00082DE9F04786B01E460E9D0F9CD7
:104AF000002305930493039100283BD01746814679
:104B0000002A37D0002D3CD0002C3AD000293FD0CD
:104B1000002E3DD04FF000080599B14264D207EB5A
:104B2000010A7B5C5B2B3AD00023029302AB324636
:104B300005A93846FFF7CCFE002851D0731E059A10
:104B400093424DD003AB019304AB0093029B5246BA
:104B5000039909EB0800FFF759FF00284CD0049B8C
:104B60009844059BB342D7D2FA5C2E2AD4D10133A4
:104B70000593D1E7214B224A40F2D951214800F058
:104B80004BF9214B1E4A40F2DA511E4800F044F91D
:104B90001E4B1B4A40F2DB511A4800F03DF94FF022
:104BA000FF3302930131059102AB324605A9384625
:104BB000FFF77AFB029A002A10DB059BB3420DD265
:104BC000F95C5D290AD10133059303AB009304AB73
:104BD000039909EB0800FFF71BFEBEE7062000E083
:104BE000062006B0BDE8F08701200128F9D1C5F8FC
:104BF0000080039B2360F4E70420F6E778DF0008D9
:104C0000D8E00008D4DD0008CCDE0008A0DF0008F2
:104C100070B582B00023019338B30C46064619B92B
:104C20000625284602B070BD0A4601A9FFF73AFCE6
:104C3000224601A93046FFF71FFC68B10125019B00
:104C4000A342EED2224601A93046FFF72BFC019B7E
:104C5000A342E6D00225E4E7224601A93046FFF749
:104C600021FD05460128DCD1E9E70525D9E770B526
:104C700084B040B3054652B3089850B3099850B376
:104C800059B30BB906241FE0019003A800902846F1
:104C9000FFF728FF0446012816D1039EA85DFFF701
:104CA000DCF8012807D0039B2B44089A13600A9B69
:104CB00053B1187008E001360396099B1B68023B4C
:104CC000099A1360EFE70524204604B070BD05245F
:104CD000FAE70524F8E70524F6E70624F4E700B52B
:104CE00085B0DDF820C0CDF808C0DDF81CC0CDF8D7
:104CF00004C0DDF818C0CDF800C0FFF7B8FF05B05C
:104D00005DF804FB08B5054B1860054B18680023D7
:104D100002221946806800F09FFC08BDAC0B002001
:104D20000C000020022801D80120704708B500F0CF
:104D300093F809230360002008BD000010B5013876
:104D400001280AD814464FF0FF3392B20748006892
:104D5000FEF780F840B9204610BD00F07DF8092329
:104D600003604FF0FF30F7E70520F5E7AC0B0020BC
:104D700008B500F071F8092303604FF0FF3008BD5B
:104D800008B548B94FF0FF33012208480068FEF724
:104D9000C0F840B9012008BD00F05EF809230360A7
:104DA0004FF0FF30F7E70520F5E700BFAC0B002020
:104DB00008B5022804D84FF400534B60002008BD0A
:104DC00000F04AF809230360F8E70000FCF751FA05
:104DD0000B480C490C4A002302E0D458C450043359
:104DE000C4188C42F9D3094A094C002301E013602E
:104DF0000432A242FBD300F049F8FCF719F97047DE
:104E000000000020B809002048E50008B80900208B
:104E1000F80B0020FEE70000144600B51A460A4BC6
:104E20000D461B6885B0DE6803464CB10749019109
:104E3000304607490294009500F014F805F0A8FAEE
:104E400004490C46F3E700BF0C00002018E10008FD
:104E500028E10008F8D40008014B1868704700BF2B
:104E60000C0000200EB400B5074A82B003AB014627
:104E7000106853F8042B019302F004FD02B05DF8B2
:104E800004EB03B0704700BF0C00002070B50D4E5E
:104E90000D4D761BB61006D0002455F8043B0134A6
:104EA0009847A642F9D1094E094D08F0EFF9761B53
:104EB000B61006D0002455F8043B01349847A642AA
:104EC000F9D170BD3CE500083CE5000844E5000868
:104ED0003CE50008024B0146186800F003B800BF2B
:104EE0000C0000202DE9F04F01F10B05162D0646B0
:104EF00083B025D8102900F2B88000F025FB1025DA
:104F000018224FF0020CB54F3A445368A2F1080141
:104F10008B4200F0B7805A68D96822F003021A4425
:104F20009C683046E1608C60516803F1080441F0F0
:104F30000101516000F00EFB204603B0BDE8F08F88
:104F400035F0070500F19180A94200F28E8000F053
:104F5000FBFAB5F5FC7FC0F094816B0A00F08C8001
:104F6000042B00F26A81AB0903F1390C03F1380418
:104F70004FEACC00994F384443680838984206D12C
:104F80000CE0002980F22681DB68984206D05A683E
:104F900022F00302511B0F29F3DDA4463C69DFF820
:104FA00040E274457AD0626822F00302531B0F2B53
:104FB00000F37681002BC7E904EE80F26781B2F539
:104FC000007F80F019810121D30852090B449140E0
:104FD0007A6857F833000A4307EBC3010839A06029
:104FE000E1607A6047F83340C46001214FEAAC03C6
:104FF0009940914259D8114206D12CF0030C490036
:1050000011420CF1040CFAD007EBCC094846644677
:10501000D0F80C80404508D11CE1002B80F22181A2
:10502000D8F80C80404500F01581D8F8042022F013
:105030000302531B0F2BF0DD08EB050145F00105C2
:10504000C8F804503046D8E90264F460A66043F022
:105050000104C7E904114C60C1E902EE48F80230CE
:1050600000F078FA08F1080402E00C230024336011
:10507000204603B0BDE8F08F4FF400704FF0400CB5
:105080003F2477E7D3689A4208BF0CF1020C7FF403
:1050900042AF3C69DFF848E1744584D101217A6868
:1050A0004FEAAC0399409142A5D9BC68636823F0EC
:1050B00003094D4503D8A9EB05030F2B7ADCDFF874
:1050C00024B1494BDBF800201B6801322B4404EB70
:1050D000090A00F02F8103F580530F3323F47F6812
:1050E00028F00F084146304600F0A4FA411C024661
:1050F00000F0EF80824500F2EA803C4B19684144A1
:105100000846196000F04981DBF800100193013175
:105110001BBFA2EB0A0A5044CBF80020186012F023
:10512000070B00F01181CBF108010A44CBF5805147
:1051300090440831A1EB0801C1F30B0A51463046F7
:10514000009200F077FA421CDDE9002300F04B8169
:10515000801A00EB0A08196848F001005144BC426B
:10516000BA601960506000F02481B9F10F0F40F26D
:1051700022814FF0050E6068A9F10C0C2CF0070C91
:1051800000F0010040EA0C006060BCF10F0F04EB7E
:105190000C00C0E901EE00F22E8114465068144B59
:1051A0001A688A4238BF1960124B1A688A4238BF9F
:1051B000196090E0621943F0010345F00105656054
:1051C0003046BA600834536000F0C4F9204603B09A
:1051D000BDE8F08FD9681A44A2E600BF3804002069
:1051E0004004002040080020E00B0020B00B00200D
:1051F000D80B0020DC0B0020B2F5206F4FEA5223C1
:105200005FD3142B00F2B18003F15C01C9005B3362
:10521000781879580838884200F08F804B6823F05E
:105220000303934202D989688842F7D1C8687A6833
:10523000C4E902108460CC60D7E6142B59D9542BF2
:1052400000F29B802B0B03F16F0C03F16E044FEA0D
:10525000CC008FE60134A30700F108007FF4D8AE3C
:1052600053E0444642445368D8F80C1043F001031D
:10527000536054F8083F3046D9608B6000F06AF9FB
:10528000F6E64FEAD50C05F108023CE622445368E5
:10529000304643F00103536000F05CF90834E7E660
:1052A000611945F00105656043F00105C7E9041186
:1052B0003046C1E902EE4D60A35000F04BF90834CE
:1052C000D6E6930903F13901C9003833A0E7BC429F
:1052D0005ED0BC68606820F003084545A8EB050374
:1052E00002D80F2B3FF766AF304600F033F90024A9
:1052F000BEE603F15C0C03F15B044FEACC0039E637
:1053000059F808394B4540F095801CF0030F0CF11B
:10531000FF3CF5D17B6823EA01037B604900994299
:105320003FF6C3AE11B9C0E6490004341942FBD0C0
:10533000A44669E603F11008D4E601229B109A40C6
:105340007B681A437A6073E702EB08014942C1F3B4
:105350000B0A51463046009200F06CF9431CDDE91F
:1053600000237FF4F5AEDA46F5E6542B26D8130B6E
:1053700003F16F01C9006E334AE7B3F5AA7F26D85F
:10538000EB0B03F1780C03F177044FEACC00F1E565
:10539000294B186840441860B6E6CAF30B0CBCF100
:1053A000000F7FF4B1AEBC68C84448F001006060F3
:1053B000F5E61446F3E60123536095E7B3F5AA7FBB
:1053C00024D8D30B03F17801C900773320E740F2EA
:1053D0005452934224D8AB0C03F17D0C03F17C04AE
:1053E0004FEACC00C6E5ABF1080BD8444FF0000AF9
:1053F000A8EB0208AFE604F108013046009306F07E
:1054000027FABC68009B60681968C8E640F25451EE
:105410008B420BD8930C03F17D01C9007C33F7E676
:105420004FF47E704FF07F0C7E24A3E54FF47E7125
:105430007E23EDE67B6871E7B00B0020032A10B5F0
:1054400016D940EA010C1CF0030F04460B4622D18A
:1054500019462046D1F800E0D0F800C00433F445E6
:1054600004F1040417D1043A032A20461946EFD860
:10547000541EA2B100F1FF3C013901E0C3180CD069
:105480001CF801EF11F8012FA4EB0C039645F5D0A1
:10549000AEEB020010BD541EECE7184610BD1046DE
:1054A00010BD00BF830730B548D0541E002A3FD03E
:1054B0000346CAB201E0013C3AD303F8012B9D0731
:1054C000F9D1032C2DD9CDB245EA05250F2C45EA9B
:1054D000054536D9A4F1100222F00F0C03F1200E7D
:1054E000E6444FEA121C03F1100242E9045542E976
:1054F000025510327245F8D10CF1010214F00C0F74
:1055000003EB021204F00F0C13D0ACF1040323F0F0
:1055100003030433134442F8045B9342FBD10CF0C1
:1055200003042CB1CAB21C4403F8012B9C42FBD1EA
:1055300030BD64461346002CF4D1F9E70346144607
:10554000BFE71A46A446E0E7014806F02BBC00BFBF
:10555000E80B0020014806F027BC00BFE80B002044
:105560000FB400B5074A83B004AB106853F8042B9E
:105570008168019303F094F803B05DF804EB04B084
:10558000704700BF0C00002030B5054689B00846C2
:105590000C4600F0A1F901210223214A049406924D
:1055A000AA6B04AC0590084401940791AC6802937F
:1055B000039022B3636E13F0010FB4F90C309AB26A
:1055C00001D1980525D5910406D4626E43F40053A9
:1055D00022F40052A3816266284601AA214606F001
:1055E00037FA636E002814BF4FF0FF350A25DA073B
:1055F00002D4A3899B0506D5284609B030BD2846AC
:1056000005F0AAFFD6E7A06D06F0CEFB284609B04C
:1056100030BDA06D06F0C6FBB4F90C309AB2D2E7EB
:1056200040D40008024B01461868FFF7ADBF00BF29
:105630000C000020002238B5064D044608462A60BA
:10564000FBF7F6FD431C00D038BD2B68002BFBD0C8
:10565000236038BDF40B00202DE9F043694C0E4661
:10566000D4F80080174604461D4683B0B8F1000FF9
:1056700003D0D8F83830002B77D0022F05D0012F77
:1056800000F2AC80002DC0F2A980636EDA0752D51B
:105690002146404605F02CFF216B41B104F1400347
:1056A000994202D0404606F0D3F80023236300233A
:1056B000B4F90CC0A3611CF0800F636064D12CF4BA
:1056C0004A6C2CF0030C022FA4F80CC06AD001AB7A
:1056D000214640466A4606F0EFFBA3891843A081A5
:1056E000002D2FD0002E2ED0D8F83830002B38D0F7
:1056F000009BC4E90465AB42B4F90C3026601CBFC2
:1057000043F40063A381012F04BF43F00103A3818D
:105710009AB213F008032CD0D1075DD500216D4259
:10572000A561656EA16015F0010527D0002528460A
:1057300003B0BDE8F083A3899B05A9D4A06D06F052
:1057400031FBA5E7009D2846FFF7C4FB064600286D
:1057500047D0A38943F08003A381D8F83830002BC9
:10576000C6D1404605F0F8FEC2E7404605F0F4FE1B
:1057700083E7A360656E15F00105D7D1930524D5A5
:10578000284603B0BDE8F0834046216906F060F882
:10579000B4F90CC0022F2CF44A6C2CF0030CA4F8C2
:1057A0000CC094D100250021012204F143032360A1
:1057B0002361636E4CF0020CD807A4F80CC0A16002
:1057C0006261DDD41CF4007FDAD1A06D06F0ECFA42
:1057D000284603B0BDE8F083A560CBE74FF0FF3566
:1057E000CEE7DDF80090A94504D04846FFF772FBEC
:1057F000064620B94FF0FF35B4F90CC0D3E74D464B
:10580000A7E700BF0C0000200EB430B504466FF0CF
:1058100000459CB00B4A1FAB0B49059253F8042B73
:10582000086802A9CDE9013407950495069400F0B3
:1058300091FA0022029B1A701CB0BDE8304003B000
:10584000704700BF0802FFFF0C00002010B50C4697
:10585000B1F90E1006F0DEFF002803DB236D0344D0
:10586000236510BDA38923F48053A38110BD00BF1D
:105870002DE9F0410C46B1F90C101F46CB05054649
:1058800016460BD421F48051A1813B46324628466E
:10589000B4F90E10BDE8F04104F0F0BCB4F90E10FC
:1058A0000223002206F082FAB4F90C10EAE700BFE6
:1058B00010B50C46B1F90E1006F078FAA389421C17
:1058C0000EBF23F4805343F480532065A38110BDA1
:1058D000B1F90E1004F06ABD20F0030110F00300CE
:1058E000C0F1000051F8043B00F1040C4FEACC0C6D
:1058F0006FF000021CBF22FA0CF213434FF0010CB0
:105900004CEA0C2C4CEA0C4CA3EB0C0222EA0302EE
:1059100012EACC1204BF51F8043B0430F4D0C2F1B7
:10592000000102EA0102B2FA82F2C2F11F0200EBA8
:10593000D20070472DE9F04F012B1D4681460F46DE
:105940009046ADF21C4D40F24781012300219C4658
:105950004FF0FF341A4606E019460122A3EB040C6F
:105960008B189D4210D908EB0400805C18F8036086
:105970008642F1D300F081804FF0010C62460C4664
:1059800061448B189D42EED8CDF808C04FF0010C51
:1059900000204FF0FF366146634606E018460121BD
:1059A000A3EB060C43189D420FD908EB010218F82F
:1059B00003E0925D9645F1D865D04FF0010C614649
:1059C0000646604443189D42EFD8013604F1010BAE
:1059D000B34502D8B346CDF808C005AB0DF214426A
:1059E00043F8045F9342FBD1002D00F0FA806C1E57
:1059F00006AE08F1FF3208EB0400019612F8011F11
:105A0000D3432B444344904246F82130F6D1029EC2
:105A10005A46404608EB0601FFF710FD002840F00B
:105A200083800BF1FF3305938246AB1B064603933D
:105A300009EB060E1EF80430019A52F8233043B3E6
:105A4000BAF1000F04D0029A9342039A38BF13466A
:105A50004FF0000A1E447B1BB342E9D209EB07005A
:105A600045F4006107F0F0F907447B1BB342DFD235
:105A700000200DF21C4DBDE8F08F94450ABF0122B5
:105A8000013261446CE761450ABF401801310121D0
:105A900088E7D3455B4638BF5346A34214D2591E0C
:105AA0009A1941444A4402E00133A3420CD212F84D
:105AB000010B11F801CF8445F6D0CBF10102164459
:105AC0004FF0000A1E44C6E7D345059B7DD90BEB7A
:105AD00006024A4408EB0B01CDF810B002E0534532
