:020000040800F2
:100000000050002035660008F91A0008FB1A0008A5
:10001000FD1A0008FF1A0008011B0008000000007C
:10002000000000000000000000000000031B0008AA
:10003000051B000800000000071B0008091B000842
:100040007D6600087D6600087D6600087D66000804
:100050007D6600087D6600087D6600087D660008F4
:10006000111B00087D6600087D6600087D6600089B
:100070007D6600087D6600087D6600087D660008D4
:100080007D6600087D6600087D6600087D660008C4
:100090007D6600087D6600087D6600087D660008B4
:1000A0007D6600087D6600087D6600087D660008A4
:1000B0001D1B00087D6600087D6600087D6600083F
:1000C0007D6600087D6600087D6600087D66000884
:1000D0007D6600087D6600087D6600087D66000874
:1000E0007D6600087D6600087D660008000000004F
:1000F0000000000000000000000000000000000000
:0C01000000000000000000005FF808F1A3
:1001100010B5054C237833B9044B13B10448AFF341
:1001200000800123237010BD84080020000000001F
:100130005883000808B5034B1BB103490348AFF3CC
:10014000008008BD000000008808002058830008D7
:1001500081F0004102E000BF83F0004330B54FEA78
:1001600041044FEA430594EA050F08BF90EA020FE5
:100170001FBF54EA000C55EA020C7FEA645C7FEA78
:10018000655C00F0E2804FEA5454D4EB5555B8BF9B
:100190006D420CDD2C4480EA020281EA030382EA0C
:1001A000000083EA010180EA020281EA0303362D9E
:1001B00088BF30BD11F0004F4FEA01314FF4801C71
:1001C0004CEA113102D0404261EB410113F0004F83
:1001D0004FEA03334CEA133302D0524263EB43033A
:1001E00094EA050F00F0A780A4F10104D5F1200ED8
:1001F0000DDB02FA0EFC22FA05F2801841F1000133
:1002000003FA0EF2801843FA05F359410EE0A5F106
:1002100020050EF1200E012A03FA0EFC28BF4CF037
:10022000020C43FA05F3C01851EBE37101F00045ED
:1002300007D54FF0000EDCF1000C7EEB00006EEBFA
:100240000101B1F5801F1BD3B1F5001F0CD3490884
:100250005FEA30004FEA3C0C04F101044FEA4452DB
:1002600012F5800F80F09A80BCF1004F08BF5FEA62
:10027000500C50F1000041EB045141EA050130BD42
:100280005FEA4C0C404141EB0101013C28BFB1F554
:10029000801FE9D291F0000F04BF01460020B1FA9F
:1002A00081F308BF2033A3F10B03B3F120020CDA72
:1002B0000C3208DD02F1140CC2F10C0201FA0CF050
:1002C00021FA02F10CE002F11402D8BFC2F1200CB5
:1002D00001FA02F120FA0CFCDCBF41EA0C0190406B
:1002E000E41AA2BF01EB0451294330BD6FEA0404B4
:1002F0001F3C1CDA0C340EDC04F11404C4F120029F
:1003000020FA04F001FA02F340EA030021FA04F3B0
:1003100045EA030130BDC4F10C04C4F1200220FA07
:1003200002F001FA04F340EA0300294630BD21FA45
:1003300004F0294630BD94F0000F83F4801306BF0B
:1003400081F480110134013D4EE77FEA645C18BFFF
:100350007FEA655C29D094EA050F08BF90EA020F96
:1003600005D054EA000C04BF1946104630BD91EA8E
:10037000030F1EBF0021002030BD5FEA545C05D191
:100380004000494128BF41F0004130BD14F58004D0
:100390003CBF01F5801130BD01F0004545F0FE4144
:1003A00041F470014FF0000030BD7FEA645C1ABF79
:1003B000194610467FEA655C1CBF0B46024650EAB0
:1003C000013406BF52EA033591EA030F41F40021DC
:1003D00030BD00BF90F0000F04BF0021704730B562
:1003E0004FF4806404F132044FF000054FF0000137
:1003F00050E700BF90F0000F04BF0021704730B5F8
:100400004FF4806404F1320410F0004548BF4042CC
:100410004FF000013EE700BF42004FEAE2014FEA21
:1004200031014FEA02701FBF12F07F4393F07F4FFC
:1004300081F06051704732F07F4208BF704793F0FF
:100440007F4F04BF41F40021704730B54FF4607412
:1004500001F0004521F000411CE700BF50EA010215
:1004600008BF704730B54FF000050AE050EA0102BE
:1004700008BF704730B511F0004502D5404261EB2E
:1004800041014FF4806404F132045FEA915C3FF46F
:10049000D8AE4FF003025FEADC0C18BF03325FEA0C
:1004A000DC0C18BF033202EBDC02C2F1200300FABD
:1004B00003FC20FA02F001FA03FE40EA0E0021FAE2
:1004C00002F11444BDE600BF70B54FF0FF0C4CF4D0
:1004D000E06C1CEA11541DBF1CEA135594EA0C0F82
:1004E00095EA0C0F00F0DEF82C4481EA030621EABD
:1004F0004C5123EA4C5350EA013518BF52EA0335F8
:1005000041F4801143F4801338D0A0FB02CE4FF0A9
:100510000005E1FB02E506F00042E0FB03E54FF0D9
:100520000006E1FB03569CF0000F18BF4EF0010ED1
:10053000A4F1FF04B6F5007F64F5407404D25FEACD
:100540004E0E6D4146EB060642EAC62141EA555180
:100550004FEAC52040EA5E504FEACE2EB4F1FD0CC2
:1005600088BFBCF5E06F1ED8BEF1004F08BF5FEA40
:10057000500E50F1000041EB045170BD06F00046F2
:1005800046EA010140EA020081EA0301B4EB5C049F
:10059000C2BFD4EB0C0541EA045170BD41F4801197
:1005A0004FF0000E013C00F3AB8014F1360FDEBFBC
:1005B000002001F0004170BDC4F10004203C35DA98
:1005C0000C341BDC04F11404C4F1200500FA05F31B
:1005D00020FA04F001FA05F240EA020001F00042BC
:1005E00021F0004110EBD37021FA04F642EB060132
:1005F0005EEA430E08BF20EAD37070BDC4F10C045C
:10060000C4F1200500FA04F320FA05F001FA04F21F
:1006100040EA020001F0004110EBD37041F100010B
:100620005EEA430E08BF20EAD37070BDC4F1200516
:1006300000FA05F24EEA020E20FA04F301FA05F27E
:1006400043EA020321FA04F001F0004121FA04F226
:1006500020EA020000EBD3705EEA430E08BF20EAF6
:10066000D37070BD94F0000F0FD101F00046400030
:1006700041EB010111F4801F08BF013CF7D041EAB2
:10068000060195F0000F18BF704703F000465200B6
:1006900043EB030313F4801F08BF013DF7D043EA87
:1006A0000603704794EA0C0F0CEA135518BF95EA3D
:1006B0000C0F0CD050EA410618BF52EA4306D1D1C4
:1006C00081EA030101F000414FF0000070BD50EAE3
:1006D000410606BF1046194652EA430619D094EA6D
:1006E0000C0F02D150EA013613D195EA0C0F05D157
:1006F00052EA03361CBF104619460AD181EA0301AB
:1007000001F0004141F0FE4141F470014FF0000062
:1007100070BD41F0FE4141F4780170BD70B54FF0FD
:10072000FF0C4CF4E06C1CEA11541DBF1CEA13557D
:1007300094EA0C0F95EA0C0F00F0A7F8A4EB05045F
:1007400081EA030E52EA03354FEA013100F0888056
:100750004FEA03334FF0805545EA131343EA12631F
:100760004FEA022245EA111545EA10654FEA0026D4
:100770000EF000419D4208BF964244F1FD0404F58D
:10078000407402D25B084FEA3202B61A65EB0305E9
:100790005B084FEA32024FF480104FF4002CB6EBA6
:1007A000020E75EB030E22BFB61A754640EA0C0026
:1007B0005B084FEA3202B6EB020E75EB030E22BF66
:1007C000B61A754640EA5C005B084FEA3202B6EBA7
:1007D000020E75EB030E22BFB61A754640EA9C0066
:1007E0005B084FEA3202B6EB020E75EB030E22BF36
:1007F000B61A754640EADC0055EA060E18D04FEAF4
:10080000051545EA16754FEA06164FEAC30343EA93
:1008100052734FEAC2025FEA1C1CC0D111F4801F60
:100820000BD141EA00014FF000004FF0004CB6E759
:1008300011F4801F04BF01430020B4F1FD0C88BFF8
:10084000BCF5E06F3FF6AFAEB5EB030C04BFB6EB03
:10085000020C5FEA500C50F1000041EB045170BDF6
:100860000EF0004E4EEA113114EB5C04C2BFD4EB23
:100870000C0541EA045170BD41F480114FF0000EA7
:10088000013C90E645EA060E8DE60CEA135594EA23
:100890000C0F08BF95EA0C0F3FF43BAF94EA0C0F26
:1008A0000AD150EA01347FF434AF95EA0C0F7FF49B
:1008B00025AF104619462CE795EA0C0F06D152EAEF
:1008C00003353FF4FDAE1046194622E750EA4106D3
:1008D00018BF52EA43067FF4C5AE50EA41047FF4E4
:1008E0000DAF52EA43057FF4EBAE12E74FF0FF3C49
:1008F00006E000BF4FF0010C02E000BF4FF0010C1A
:100900004DF804CD4FEA410C7FEA6C5C4FEA430C92
:1009100018BF7FEA6C5C1BD001B050EA410C0CBFE1
:1009200052EA430C91EA030F02BF90EA020F002043
:10093000704710F1000F91EA030F58BF994208BFAA
:1009400090422CBFD8176FEAE37040F00100704767
:100950004FEA410C7FEA6C5C02D150EA013C07D1BE
:100960004FEA430C7FEA6C5CD6D152EA033CD3D009
:100970005DF8040B704700BF8446104662468C4603
:100980001946634600E000BF01B5FFF7B7FF002836
:1009900048BF10F1000F01BD4DF808EDFFF7F4FF5F
:1009A0000CBF012000205DF808FB00BF4DF808EDEA
:1009B000FFF7EAFF34BF012000205DF808FB00BF0D
:1009C0004DF808EDFFF7E0FF94BF012000205DF82F
:1009D00008FB00BF4DF808EDFFF7CEFF94BF0120E4
:1009E00000205DF808FB00BF4DF808EDFFF7C4FFDD
:1009F00034BF012000205DF808FB00BF4FEA410230
:100A000012F5001215D211D56FF47873B3EB625260
:100A100012D94FEAC12343F0004343EA505311F087
:100A2000004F23FA02F018BF404270474FF0000019
:100A3000704750EA013005D111F0004008BF6FF057
:100A4000004070474FF00000704700BF4A0011D2CD
:100A500012F5001211D20DD56FF47873B3EB625218
:100A60000ED44FEAC12343F0004343EA505323FA24
:100A700002F070474FF00000704750EA013002D199
:100A80004FF0FF3070474FF0000070474FEA4102CF
:100A9000B2F1E04324BFB3F5001CDCF1FE5C0DD9DC
:100AA00001F0004C4FEAC0024CEA5070B2F1004F26
:100AB00040EB830008BF20F00100704711F0804F29
:100AC00021D113F13872BCBF01F00040704741F4EE
:100AD00080114FEA5252C2F11802C2F1200C10FAF2
:100AE0000CF320FA02F018BF40F001004FEAC123D6
:100AF0004FEAD32303FA0CFC40EA0C0023FA02F37A
:100B00004FEA4303CCE77FEA625307D150EA01334F
:100B10001EBF4FF0FE4040F44000704701F000401F
:100B200040F0FE4040F40000704700BF80F00040FD
:100B300002E000BF81F0004142001FBF5FEA4103B5
:100B400092EA030F7FEA226C7FEA236C6AD04FEAB5
:100B50001262D2EB1363C1BFD218414048404140FA
:100B6000B8BF5B42192B88BF704710F0004F40F4AC
:100B7000000020F07F4018BF404211F0004F41F4C8
:100B8000000121F07F4118BF494292EA030F3FD094
:100B9000A2F1010241FA03FC10EB0C00C3F12003A7
:100BA00001FA03F100F0004302D5494260EB400036
:100BB000B0F5000F13D3B0F1807F06D340084FEAA1
:100BC000310102F10102FE2A51D2B1F1004F40EB96
:100BD000C25008BF20F0010040EA030070474900FE
:100BE00040EB0000013A28BFB0F5000FEDD2B0FA9B
:100BF00080FCACF1080CB2EB0C0200FA0CF0AABFBE
:100C000000EBC25052421843BCBFD040184370475B
:100C100092F0000F81F4000106BF80F40000013261
:100C2000013BB5E74FEA41037FEA226C18BF7FEA38
:100C3000236C21D092EA030F04D092F0000F08BF7A
:100C40000846704790EA010F1CBF0020704712F061
:100C50007F4F04D1400028BF40F00040704712F1A0
:100C600000723CBF00F50000704700F0004343F005
:100C7000FE4040F4000070477FEA226216BF08463B
:100C80007FEA23630146420206BF5FEA412390EAFE
:100C9000010F40F4800070474FF0000304E000BFF4
:100CA00010F0004348BF40425FEA000C08BF7047A5
:100CB00043F0964301464FF000001CE050EA010269
:100CC00008BF70474FF000030AE000BF50EA01027E
:100CD00008BF704711F0004302D5404261EB41016B
:100CE0005FEA010C02BF84460146002043F0B64390
:100CF00008BFA3F18053A3F50003BCFA8CF2083AB5
:100D0000A3EBC25310DB01FA02FC634400FA02FCBD
:100D1000C2F12002BCF1004F20FA02F243EB0200C4
:100D200008BF20F00100704702F1200201FA02FC26
:100D3000C2F1200250EA4C0021FA02F243EB020019
:100D400008BF20EADC7070474FF0FF0C1CEAD0525D
:100D50001EBF1CEAD15392EA0C0F93EA0C0F6FD01E
:100D60001A4480EA010C400218BF5FEA41211ED0FC
:100D70004FF0006343EA501043EA5111A0FB0131E8
:100D80000CF00040B1F5000F3EBF490041EAD371BD
:100D90005B0040EA010062F17F02FD2A1DD8B3F139
:100DA000004F40EBC25008BF20F00100704790F0A8
:100DB000000F0CF0004C08BF49024CEA502040EAFA
:100DC00051207F3AC2BFD2F1FF0340EAC2507047C0
:100DD00040F400004FF00003013A5DDC12F1190FFE
:100DE000DCBF00F000407047C2F10002410021FA70
:100DF00002F1C2F1200200FA02FC5FEA310040F188
:100E0000000053EA4C0308BF20EADC70704792F000
:100E1000000F00F0004C02BF400010F4000F013A38
:100E2000F9D040EA0C0093F0000F01F0004C02BF33
:100E3000490011F4000F013BF9D041EA0C018FE7A2
:100E40000CEAD15392EA0C0F18BF93EA0C0F0AD0A8
:100E500030F0004C18BF31F0004CD8D180EA0100CE
:100E600000F00040704790F0000F17BF90F0004F67
:100E7000084691F0000F91F0004F14D092EA0C0F49
:100E800001D142020FD193EA0C0F03D14B0218BFDC
:100E9000084608D180EA010000F0004040F0FE4022
:100EA00040F40000704740F0FE4040F440007047BE
:100EB0004FF0FF0C1CEAD0521EBF1CEAD15392EA3D
:100EC0000C0F93EA0C0F69D0A2EB030280EA010C2D
:100ED00049024FEA402037D04FF0805343EA1111C6
:100EE00043EA10130CF000408B4238BF5B0042F124
:100EF0007D024FF4000C8B4224BF5B1A40EA0C00C9
:100F0000B3EB510F24BFA3EB510340EA5C00B3EBFA
:100F1000910F24BFA3EB910340EA9C00B3EBD10FE8
:100F200024BFA3EBD10340EADC001B0118BF5FEA3A
:100F30001C1CE0D1FD2A3FF650AF8B4240EBC25063
:100F400008BF20F0010070470CF0004C4CEA502024
:100F50007F32C2BFD2F1FF0340EAC250704740F473
:100F600000004FF00003013A37E792F0000F00F065
:100F7000004C02BF400010F4000F013AF9D040EAE3
:100F80000C0093F0000F01F0004C02BF490011F477
:100F9000000F013BF9D041EA0C0195E70CEAD1536F
:100FA00092EA0C0F08D142027FF47DAF93EA0C0F56
:100FB0007FF470AF084676E793EA0C0F04D14B023A
:100FC0003FF44CAF08466EE730F0004C18BF31F0EC
:100FD000004CCAD130F000427FF45CAF31F00043E6
:100FE0007FF43CAF5FE700BF4FF0FF3C06E000BF7F
:100FF0004FF0010C02E000BF4FF0010C4DF804CDA2
:101000004FEA40024FEA41037FEA226C18BF7FEAB1
:10101000236C11D001B052EA530C18BF90EA010FB3
:1010200058BFB2EB030088BFC81738BF6FEAE17042
:1010300018BF40F0010070477FEA226C02D15FEADE
:10104000402C05D17FEA236CE4D15FEA412CE1D04A
:101050005DF8040B704700BF844608466146FFE711
:101060000FB5FFF7C9FF002848BF10F1000F0FBDF3
:101070004DF808EDFFF7F4FF0CBF012000205DF8EC
:1010800008FB00BF4DF808EDFFF7EAFF34BF012071
:1010900000205DF808FB00BF4DF808EDFFF7E0FF0A
:1010A00094BF012000205DF808FB00BF4DF808ED5B
:1010B000FFF7D2FF94BF012000205DF808FB00BFBE
:1010C0004DF808EDFFF7C8FF34BF012000205DF8A0
:1010D00008FB00BF4FEA4002B2F1FE4F0FD34FF0C2
:1010E0009E03B3EB12620DD94FEA002343F0004395
:1010F00010F0004F23FA02F018BF404270474FF043
:101100000000704712F1610F01D1420205D110F0C9
:10111000004008BF6FF0004070474FF0000070477C
:1011200042000ED2B2F1FE4F0BD34FF09E03B3EB51
:10113000126209D44FEA002343F0004323FA02F07D
:1011400070474FF00000704712F1610F01D1420269
:1011500002D14FF0FF3070474FF00000704700BFE2
:101160007BB972B90029BEBF00204FF0004106E0F4
:1011700008BF00281CBF6FF000414FF0FF3000F0A7
:10118000A9B9ADF1080C6DE904CE002909DB002BEB
:101190001ADB00F035F8DDF804E0DDE9022304B0E5
:1011A0007047404261EB4101002B1BDB00F028F847
:1011B000DDF804E0DDE9022304B0404261EB4101C7
:1011C000524263EB43037047524263EB430300F028
:1011D00017F8DDF804E0DDE9022304B0404261EBDA
:1011E00041017047524263EB430300F009F8DDF818
:1011F00004E0DDE9022304B0524263EB430370478D
:101200002DE9F047089E0D4604468846002B4DD137
:101210008A42944668D9B2FA82F252B101FA02F3D4
:10122000C2F1200120FA01F10CFA02FC41EA0308A4
:1012300094404FEA1C41B8FBF1F71FFA8CFE01FB0A
:10124000178807FB0EF0230C43EA084398420AD99B
:101250001CEB030307F1FF3580F01E81984240F23A
:101260001B81023F63441B1AB3FBF1F001FB1033F7
:1012700000FB0EFEA4B244EA0344A6450AD91CEBC7
:10128000040400F1FF3380F00981A64540F2068195
:10129000644402380021A4EB0E0440EA07401EB16A
:1012A0000023D440C6E90043BDE8F0878B4208D94B
:1012B000002E00F0EE800021C6E900050846BDE8DA
:1012C000F087B3FA83F100294AD1AB4202D38242BC
:1012D00000F2FC80841A65EB030301209846002E7F
:1012E000E2D0C6E90048DFE702B9FFDEB2FA82F2D7
:1012F000002A40F09180A1EB0C0001214FEA1C472D
:101300001FFA8CFEB0FBF7F307FB1300250C45EA30
:1013100000450EFB03F0A84208D91CEB050503F1BC
:10132000FF3802D2A84200F2CE8043462D1AB5FB08
:10133000F7F007FB10550EFB00FEA4B244EA05448B
:10134000A64508D91CEB040400F1FF3502D2A645DE
:1013500000F2B6802846A4EB0E0440EA03409EE764
:10136000C1F120078B4022FA07FC4CEA030C25FA56
:1013700007FA4FEA1C49BAFBF9F820FA07F309FB10
:1013800018AA8D401FFA8CFE1D4300FA01F308FBDA
:101390000EF02C0C44EA0A44A04202FA01F20BD9E6
:1013A0001CEB040408F1FF3A80F08880A04240F270
:1013B0008580A8F102086444241AB4FBF9F009FB03
:1013C000104400FB0EFEADB245EA0444A64508D920
:1013D0001CEB040400F1FF356CD2A6456AD9023833
:1013E000644440EA0840A0FB0295A4EB0E04AC4222
:1013F000C846AE4656D353D0002E69D0B3EB080290
:1014000064EB0E0422FA01F304FA07F71F43CC4001
:10141000C6E90074002147E70CFA02FCC2F1200182
:1014200025FA01F34FEA1C4720FA01F195400D43DC
:10143000B3FBF7F107FB11331FFA8CFE280C40EACF
:10144000034001FB0EF3834204FA02F408D91CEBBB
:10145000000001F1FF382FD283422DD902396044B8
:10146000C01AB0FBF7F307FB1300ADB245EA004525
:1014700003FB0EF0A84208D91CEB050503F1FF3869
:1014800016D2A84214D9023B6544281A43EA014106
:1014900038E73146304607E72F46E4E61846F9E6D6
:1014A0004B45A9D2B9EB020865EB0C0E0138A3E756
:1014B0004346EAE7284694E74146D1E7D0467BE732
:1014C0006444023847E7023B65442FE7084606E7D5
:1014D0003146E9E6704700BF844641EA000313F055
:1014E000030349D1403A23D30B6803604B68436040
:1014F0008B688360CB68C3600B6903614B69436190
:101500008B698361CB69C3610B6A03624B6A436277
:101510008B6A8362CB6AC3620B6B03634B6B43635F
:101520008B6B8363CB6BC36340304031403ADBD27B
:1015300030320BD30B6803604B6843608B68836069
:10154000CB68C36010301031103AF3D20C3205D39F
:1015500051F8043B40F8043B043AF9D2043208D075
:10156000D2071CBF11F8013B00F8013B01D30B88E7
:1015700003806046704700BF082A13D38B07B1D0A1
:1015800010F00303AED0C3F10403D21ADB071CBF73
:1015900011F8013B00F8013BA4D331F8023B20F8DD
:1015A000023B9FE7043AD9D3013A11F8013B00F816
:1015B000013BF9D20B7803704B7843708B788370C2
:1015C000604670474FEA410C7FEA6C5C02D150EAFA
:1015D000013C0AD14FEA430C7FEA6C5C02D152EA2B
:1015E000033C02D14FF0000070474FF001007047FC
:1015F0002DE9F04389B000240494059406940794DF
:101600004B4B9A6942F010029A619A6902F01002FB
:101610000092009A9A6942F020029A619A6902F057
:1016200020020192019A9A6942F004029A619A6931
:1016300002F004020292029A9A6942F008029A6148
:101640009B6903F008030393039BDFF8E8902246AD
:101650004FF40051484600F008FEDFF8DC802246D7
:1016600041F61001404600F000FE344E01220321F5
:10167000304600F0FAFD22464FF43C41304600F07F
:10168000F4FD4FF4005304930125059506940227B9
:10169000079704A9484600F0CFFC04230493284B85
:1016A0000593069504A9404600F0C6FC41F61003D8
:1016B000049305950694079704A9404600F0BCFCE6
:1016C0000495059506944FF00309CDF81C9004A9E4
:1016D000304600F0B1FC04974FF01108CDF81480AB
:1016E0000695CDF81C9004A9304600F0A5FC4FF4F7
:1016F00080630493CDF814800695079704A93046BB
:1017000000F09AFC4FF4384304930595069407972C
:1017100004A9304600F090FC22462146082000F043
:1017200031FC082000F066FC09B0BDE8F08300BF82
:10173000001002400010014000080140000C014070
:10174000000021100368B3F1804F00D070470D4AAC
:101750001378591C1170042BF8D90B4B1868426A86
:10176000A3F84820094A11684B6A1BB2A2F8483016
:101770009BB25B42A2F84830002343624B62014AAD
:101780001370E3E7360A0020A4080020F0080020C8
:10179000042800D07047F0B583B004212B4800F036
:1017A0005DFD08B103B0F0BD294C2A4BB3F9000030
:1017B000FFF776FA0190284B1B68009394E80F001E
:1017C00001F0F8FE254E3060254BB3F94870254DE9
:1017D000254BB3F94800FFF763FA01903846FFF74D
:1017E0005FFA009095E80F0001F0FCFE1F4B1860B7
:1017F0002168FFF7A9FA3168FFF79EF906461C4BEE
:1018000018600021FFF798F91A4DFFF763FCA5F85F
:101810005200194C3046FFF75DFCA4F852002846F0
:1018200002F0B6F8204602F0B3F8B5F95210284697
:1018300002F05AF8B4F95210204602F055F84FF46D
:1018400000510E4800F017FDACE700BF0008014052
:10185000180A0020320A0020EC090020A00800200D
:10186000A4080020F8090020F00800202C0A00201D
:10187000280A00203C0900209409002000100140A3
:1018800072B6FEE700B591B02822002106A804F048
:1018900055FF0023019302930393049305930122C0
:1018A00006924FF4803307930A9202220D920E9310
:1018B0004FF4E0130F9306A800F00AFD80B90F2340
:1018C000019302210291002303934FF4806204925A
:1018D000059301A800F02EFF20B911B05DF804FBBC
:1018E000FFF7CEFFFFF7CCFF70B582B000F014FB1E
:1018F000FFF7C8FFFFF77CFE00F032FA00F038F97E
:1019000000F068F900F08CFA4F4804F03BFE02F05A
:10191000F9FA4E4C204601F09BF800230093234631
:1019200001224B494B4801F07DFF042300932346DD
:1019300002224949494801F075FF4949494801F0E7
:10194000D1FE4949494801F0CDFE0024484B00939F
:1019500023464FF07F524749474801F025FE009447
:10196000464B4FF07A522146454801F01DFE009447
:10197000234622462146434801F016FE03F0DAFED4
:1019800000231E46404A4149414803F021FF0028F8
:10199000F8D1404A4049414801F021FF0028F8D1E0
:1019A0003B4D2B6803F100432B603D4A012103208E
:1019B00002F08AF93B4A0121084602F085F9294BD9
:1019C000B3F94800FEF716FD02460B4601240094C9
:1019D0000A21204602F08CF92868FEF71DFD024618
:1019E0000B4600940A21032002F082F92E4A214678
:1019F000022002F069F9244B1868FEF70DFD02463B
:101A00000B4600940621022002F072F9274A214673
:101A1000042002F059F933199BB2062EB1D91E4B9E
:101A2000B3F90030224880FB0320DB17C3EBE00052
:101A300000B2FEF7DFFC02460B46009407210420AB
:101A400002F056F99CE700BF140B00203C0A00206E
:101A5000708300083C09002080830008940900205E
:101A6000840A0020A4080020CC0A0020F0080020EE
:101A70008FC2F5BB000080BF180A00200AD7A33A26
:101A8000F8090020080A0020F4090020F0090020CD
:101A9000EC090020340A0020320A0020300A00201D
:101AA0009083000898830008A0830008A88300089A
:101AB0006766666682B00E4B9A6942F001029A61CF
:101AC0009A6902F001020092009ADA6942F08052AB
:101AD000DA61DB6903F080530193019B054A536887
:101AE00023F0E06343F00073536002B0704700BF1F
:101AF0000010024000000140FEE7FEE7FEE7FEE7BF
:101B0000FEE770477047704708B500F017FA08BD48
:101B100008B5042000F0B8FB08BD000008B5024875
:101B200000F0CFFF08BD00BF3C0A002008B5034607
:101B30000B4A126842B10A4A106803446A4693424B
:101B400006D8074A136008BD054A06491160F2E746
:101B500004F096FD0C2303604FF0FF30F3E700BF65
:101B6000380A0020D00B00204FF0FF30704770473C
:101B700000B58DB02422002103A804F0DFFD00236E
:101B8000019302931148124A0260436083604FF64A
:101B9000FF72C2600361836101230393059309937C
:101BA00003A901F0DDF850B900230193029301A9C4
:101BB000064801F03FFB28B90DB05DF804FBFFF7C4
:101BC0005FFEF1E7FFF75CFEF6E700BF840A002046
:101BD0000004004000B58DB02422002103A804F0C9
:101BE000ADFD0023019302931148124A0260436045
:101BF00083604FF6FF72C260036183610123039328
:101C00000593099303A901F0ABF850B900230193A0
:101C1000029301A9064801F00DFB28B90DB05DF84B
:101C200004FBFFF72DFEF1E7FFF72AFEF6E700BF02
:101C3000CC0A0020000800400368B3F1804F00D0B8
:101C4000704700B583B003F50433DA6942F001024E
:101C5000DA61DB6903F001030193019B002201219A
:101C60001C2000F08FF91C2000F0C4F903B05DF8CF
:101C700004FB000000B589B000230493059306938C
:101C8000079303681E4A934205D01E4A93421CD014
:101C900009B05DF804FB1C4BDA6942F00202DA611C
:101CA000DA6902F002020092009A9A6942F0040294
:101CB0009A619B6903F004030193019BC023049381
:101CC00004A9124800F0B8F9E2E70F4BDA6942F0D4
:101CD0000402DA61DA6902F004020292029A9A6955
:101CE00042F008029A619B6903F008030393039B87
:101CF000C023049304A9064800F09EF9C8E700BF7A
:101D000000040040000800400010024000080140AC
:101D1000000C014000B587B00023029303930493A5
:101D200005930368B3F1804F02D007B05DF804FB60
:101D300003F504339A6942F004029A619B6903F047
:101D400004030193019B032302930223039305934E
:101D500002A9024800F070F9E7E700BF000801405F
:101D600000B58FB000230A930B930C930D93089347
:101D700009930193029303930493059306930793A6
:101D800026484FF08042026041F61F424260836065
:101D90006322C2600361836100F08AFF58BB4FF485
:101DA00080530A930AA91D4801F0E2F830BB1B4892
:101DB00000F0AAFF28BB00230893099308A917483D
:101DC00001F038FA00BB60230193002202920392D3
:101DD000059201A9114801F051F8C0B904220DEB98
:101DE00002010E4801F04AF8A0B90C48FFF792FF33
:101DF0000FB05DF804FBFFF743FDD0E7FFF740FDB0
:101E0000D5E7FFF73DFDD6E7FFF73AFDDBE7FFF744
:101E100037FDE3E7FFF734FDE7E700BF3C0A0020AA
:101E200008B50A480A4B03604FF4E13343600023CE
:101E30008360C36003610C2242618361C36101F06E
:101E4000BFFA00B908BDFFF71BFDFBE7140B00202C
:101E50000038014010B586B0002302930393049329
:101E600005930268174B9A4201D006B010BD03F5E6
:101E700058439A6942F480429A619A6902F4804216
:101E80000092009A9A6942F004029A619B6903F0F9
:101E900004030193019B4FF4007302930223039305
:101EA00003230593084C02A9204600F0C5F84FF41F
:101EB0008063029300230393049302A9204600F059
:101EC000BBF8D2E7003801400008014010B50446D5
:101ED0000E4B18784FF47A73B3FBF0F30C4A10688A
:101EE000B0FBF3F000F094F868B90F2C01D9012091
:101EF0000AE0002221464FF0FF3000F043F8054B86
:101F00001C60002000E0012010BD00BF0400002084
:101F1000000000200800002008B5074A136843F0BD
:101F200010031360032000F01BF80F20FFF7CEFF13
:101F3000FFF7C0FD002008BD00200240034A1168E1
:101F4000034B1B780B441360704700BF5C0B0020F1
:101F500004000020014B1868704700BF5C0B002094
:101F6000074AD36823F4E0631B041B0C000200F44F
:101F7000E060034343F0BF6343F40033D360704732
:101F800000ED00E000B5194BDB68C3F30223C3F199
:101F9000070CBCF1040F28BF4FF0040C03F1040E32
:101FA000BEF1060F18D9033B4FF0FF3E0EFA0CFCB2
:101FB00021EA0C0199400EFA03F322EA03031943C4
:101FC00000280BDB0901C9B200F1604000F5614057
:101FD00080F800135DF804FB0023E5E700F00F0034
:101FE0000901C9B2024B1954F4E700BF00ED00E04B
:101FF00014ED00E0002807DB00F01F024009012378
:102000009340024A42F82030704700BF00E100E0F0
:102010000138B0F1807F0BD24FF0E0235861054AC0
:10202000F02182F823100020986107221A6170477E
:102030000120704700ED00E070B582B00024A44696
:10204000A6E0804DAA4210D007D97F4DAA420CD0FD
:1020500005F58035AA4208D013E0A5F58015AA42FF
:1020600003D005F57025AA4207D18A68002A58D006
:10207000012A51D04361082403E0A5F58015AA4246
:10208000F3D0BEF1FF0F4ED80646BEF1FF0F4CD87D
:102090004FEA8C0233680F25954023EA050304FAC2
:1020A00002F2134333604B6813F0805F6ED0674BCE
:1020B0009A6942F001029A619B6903F0010301935E
:1020C000019B4FEA9C02951C614B53F825600CF074
:1020D00003039D000F23AB4026EA03065D4B9842A5
:1020E00029D003F58063984200F08E8003F5806369
:1020F000984200F08B8003F58063984219D0042346
:102100001AE0CC68BDE7CC680434BAE7CC68083480
:10211000B7E7CC680C34B4E703610824B1E70024C6
:10212000AFE70424ADE7061DAFE7ACF1080292006B
:10213000B0E7032300E00023AB4033430232444DB9
:1021400045F822304B6813F4801F61D0424A9368EF
:1021500043EA0E0393604B6813F4001F5ED03E4ABF
:10216000D36843EA0E03D3604B6813F4003F5BD09F
:10217000394A536843EA0E0353604B6813F4803FB7
:1021800058D0354A136843EA0E0313600CF1010C72
:102190000A6832FA0CF353D0012303FA0CF302EA73
:1021A000030E33EA0202F1D14A68122A3FF649AF20
:1021B000122A3FF666AF01A555F822F06B20000801
:1021C000032100080D2100081F21000883200008BA
:1021D0008320000883200008832000088320000853
:1021E0008320000883200008832000088320000843
:1021F0008320000883200008832000088320000833
:102200000721000813210008012395E7022393E723
:10221000114A936823EA0E0393609CE70E4AD36841
:1022200023EA0E03D3609FE70B4A536823EA0E03A9
:102230005360A2E7084A136823EA0E031360A5E778
:1022400002B070BD000022100000311000100240EA
:102250000000014000080140000401408368194269
:1022600001D001207047002070470AB1016170471A
:10227000090401617047C36801EA030221EA03010E
:1022800041EA02410161704708B5054B5B690342B1
:1022900000D108BD024B5861FFF77AFAF9E700BF99
:1022A0000004014082B0084B1B68084AA2FB0323CC
:1022B0005B0A00FB03F3019300BF019B5A1E0192CE
:1022C000002BF9D102B0704700000020D34D6210FE
:1022D000002800F0F18170B582B00446036813F065
:1022E000010F2CD0994B5B6803F00C03042B1DD01D
:1022F000964B5B6803F00C03082B12D06368B3F5B0
:10230000803F41D0002B55D103F1804303F50433C6
:102310001A6822F480321A601A6822F480221A6045
:1023200037E08A4B5B6813F4803FE7D0874B1B682C
:1023300013F4003F03D06368002B00F0BF812368D3
:1023400013F0020F75D0814B5B6813F00C0F5FD058
:102350007E4B5B6803F00C03082B54D02369002BE1
:1023600000F08A807A4B01221A60FFF7F3FD0546E0
:10237000764B1B6813F0020F75D1FFF7EBFD401B86
:102380000228F5D903209EE1704A136843F4803394
:102390001360636843B3FFF7DDFD05466B4B1B68B5
:1023A00013F4003FCBD1FFF7D5FD401B6428F5D9CE
:1023B000032088E1B3F5A02F09D0644B1A6822F4FA
:1023C00080321A601A6822F480221A60E1E703F171
:1023D0008043A3F53C331A6842F480221A601A68DD
:1023E00042F480321A60D4E7FFF7B4FD0546574B3C
:1023F0001B6813F4003FA2D0FFF7ACFD401B64281C
:10240000F5D903205FE1514B5B6813F4803FA5D100
:102410004E4B1B6813F0020F03D02369012B40F0D1
:102420004F814A4A136823F0F803616943EAC10304
:102430001360236813F0080F33D0A369002B5CD01E
:10244000434B0122C3F88024FFF784FD05463F4B30
:102450005B6A13F0020F21D1FFF77CFD401B0228BD
:10246000F5D903202FE1394A136823F0F803616995
:1024700043EAC1031360DCE7354B00221A60FFF723
:1024800069FD0546314B1B6813F0020FD1D0FFF7F1
:1024900061FD401B0228F5D9032014E10120FFF75C
:1024A00001FF236813F0040F00F09680274BDB69CF
:1024B00013F0805F34D1254BDA6942F08052DA6143
:1024C000DB6903F080530193019B0125214B1B68BD
:1024D00013F4807F26D0E368012B3DD0002B53D12D
:1024E00003F1804303F504331A6A22F001021A62F1
:1024F0001A6A22F004021A6233E0154B0022C3F874
:102500008024FFF727FD0546104B5B6A13F0020F8E
:10251000C7D0FFF71FFD401B0228F5D90320D2E0EA
:102520000025D3E70B4A136843F480731360FFF769
:1025300011FD0646074B1B6813F4807FCBD1FFF7D4
:1025400009FD801B6428F5D90320BCE0001002407F
:1025500000004242007000405F4A136A43F00103EA
:102560001362E36833B3FFF7F5FC06465A4B1B6A68
:1025700013F0020F2FD1FFF7EDFC801B41F28833DF
:102580009842F3D903209EE0052B09D0524B1A6ADA
:1025900022F001021A621A6A22F004021A62E0E7CB
:1025A0004D4B1A6A42F004021A621A6A42F00102A2
:1025B0001A62D6E7FFF7CEFC0646474B1B6A13F0BC
:1025C000020F08D0FFF7C6FC801B41F28833984207
:1025D000F3D9032077E0E5B9E369002B72D03E4AD6
:1025E000526802F00C02082A56D0022B17D03B4B3F
:1025F00000221A66FFF7AEFC0446374B1B6813F047
:10260000007F47D0FFF7A6FC001B0228F5D9032066
:1026100059E0314AD36923F08053D361DCE72F4B73
:1026200000221A66FFF796FC05462B4B1B6813F039
:10263000007F06D0FFF78EFC401B0228F5D903204F
:1026400041E0236AB3F5803F1AD023494B6823F455
:102650007413226A606A024313434B601F4B0122CA
:102660001A66FFF777FC04461B4B1B6813F0007FCC
:102670000ED1FFF76FFC001B0228F5D9032022E0E2
:10268000154A536823F40033A1680B435360DCE719
:10269000002018E0002016E0012B16D00E4B5B68DE
:1026A00003F48031226A914211D103F47013626AFB
:1026B00093420ED1002006E001207047012002E085
:1026C000012000E0002002B070BD0120FBE70120E6
:1026D000F9E70120F7E700BF001002400000424286
:1026E0000F4B5B6803F00C02082A01D00D487047BD
:1026F000C3F383420C49885C13F4803F0BD0084B32
:102700005B68C3F34043094AD35C064A02FB00F00E
:10271000B0FBF3F07047064B03FB00F0704700BFBF
:102720000010024000127A00C8830008D883000815
:1027300000093D00002800F0A08070B50D46044659
:10274000524B1B6803F007038B420BD24F4A1368AE
:1027500023F007030B431360136803F007038B4256
:1027600040F08D80236813F0020F17D013F0040F90
:1027700004D0474A536843F4E0635360236813F07E
:10278000080F04D0424A536843F460535360404AF0
:10279000536823F0F003A1680B435360236813F0E0
:1027A000010F31D06368012B20D0022B25D0384A8D
:1027B000126812F0020F64D035494A6822F0030211
:1027C00013434B60FFF7C6FB0646314B5B6803F0D3
:1027D0000C036268B3EB820F16D0FFF7BBFB801BC4
:1027E00041F288339842F0D9032045E0284A126824
:1027F00012F4003FE0D101203EE0254A126812F0B9
:10280000007FD9D1012037E0204B1B6803F007037C
:10281000AB420AD91D4A136823F007032B43136008
:10282000136803F00703AB422DD1236813F0040FA4
:1028300006D0174A536823F4E063E1680B43536002
:10284000236813F0080F07D0114A536823F460532C
:10285000216943EAC1035360FFF742FF0C4B5B68F9
:10286000C3F303130B4AD35CD8400B4B18600B4BDC
:102870001868FFF72BFB002070BD01207047012076
:10288000FAE70120F8E70120F6E700BF0020024048
:1028900000100240B0830008000000200800002063
:1028A000014B1868704700BF0000002008B5FFF713
:1028B000F7FF044B5B68C3F30223034AD35CD840A1
:1028C00008BD00BF00100240C083000808B5FFF734
:1028D000E7FF044B5B68C3F3C223034AD35CD840D1
:1028E00008BD00BF00100240C083000870B4036A36
:1028F000026A22F0010202624668826922F07302D3
:102900000C6844EA020523F002028B6813430D4C65
:10291000A04209D00B4CA0420DD0466085614A68A8
:102920004263036270BC704723F00803CA68134314
:1029300023F00403EEE726F440764A6932438E69B9
:102940001643EAE7002C014030B4036A026A22F41D
:10295000807202624568C26922F073020C682243E9
:1029600023F400738C6843EA04230F4CA04209D07F
:102970000D4CA0420ED04560C2614A68C26303623A
:1029800030BC704723F40063CC6843EA042323F48B
:102990008063EDE725F440554C6945EA04158C69E0
:1029A00045EA0415E7E700BF002C014030B4036A94
:1029B000026A22F4805202624468C26922F4E6424A
:1029C0000D6842EA052223F400538D6843EA05337B
:1029D000074DA84206D04460C2614A68026403629F
:1029E00030BC704724F480444D6944EA8514F2E712
:1029F000002C014010B4036A046A24F0010404624C
:102A0000846924F0F00C4CEA021223F00A030B4311
:102A10008261036210BC704710B4036A046A24F038
:102A200010040462846924F4704C4CEA023223F0EE
:102A3000A00343EA01138261036210BC70478368FC
:102A400023F070030B4343F00703836070470000DB
:102A500090F83D30DBB2012B27D1022380F83D30C6
:102A60000268D36843F00103D3600368114A9342BC
:102A700010D0B3F1804F0DD0A2F59432934209D01B
:102A800002F58062934205D01A6842F001021A6092
:102A9000002070479A6802F00702062A07D01A68D9
:102AA00042F001021A6000207047012070470020A8
:102AB000704700BF002C0140704770477047704757
:102AC000704710B5044603681A6912F0020F11D05E
:102AD000DA6812F0020F0DD06FF002021A610123C2
:102AE000037703689B6913F0030F70D0FFF7E6FFCD
:102AF0000023237723681A6912F0040F12D0DA68D2
:102B000012F0040F0ED06FF004021A610223237733
:102B100023689B6913F4407F5FD02046FFF7CEFF08
:102B20000023237723681A6912F0080F12D0DA689D
:102B300012F0080F0ED06FF008021A6104232377F9
:102B40002368DB6913F0030F4ED02046FFF7B6FF72
:102B50000023237723681A6912F0100F12D0DA6865
:102B600012F0100F0ED06FF010021A6108232377B5
:102B70002368DB6913F4407F3DD02046FFF79EFFBA
:102B80000023237723681A6912F0010F03D0DA6853
:102B900012F0010F36D123681A6912F0800F03D0AA
:102BA000DA6812F0800F34D123681A6912F0400FEE
:102BB00003D0DA6812F0400F32D123681A6912F09C
:102BC000200F03D0DA6812F0200F30D110BDFFF7CC
:102BD00074FF2046FFF773FF8AE72046FFF76DFF7B
:102BE0002046FFF76CFF9BE72046FFF766FF204675
:102BF000FFF765FFACE72046FFF75FFF2046FFF7D2
:102C00005EFFBDE76FF001021A612046FEF79AFDF4
:102C1000C1E76FF080021A61204600F042FBC3E773
:102C20006FF040021A612046FFF74AFFC5E76FF0D8
:102C300020021A61204600F033FBC7E703681B4AF5
:102C400090420AD0B0F1804F07D0A2F59432904262
:102C500003D002F58062904203D123F070034A68EA
:102C60001343124A90420AD0B0F1804F07D0A2F528
:102C70009432904203D002F58062904203D123F453
:102C80004073CA68134323F080034A691343036007
:102C90008B68C3620B688362044B984202D00123A5
:102CA000436170470B690363F9E700BF002C0140E3
:102CB00040B310B5044690F83D30F3B1022384F8D8
:102CC0003D30214651F8040BFFF7B8FF012384F88B
:102CD000463084F83E3084F83F3084F8403084F841
:102CE000413084F8423084F8433084F8443084F82A
:102CF000453084F83D30002010BD80F83C30FEF7B0
:102D00009BFFDBE70120704740B310B5044690F805
:102D10003D30F3B1022384F83D30214651F8040BD5
:102D2000FFF78CFF012384F8463084F83E3084F8A6
:102D30003F3084F8403084F8413084F8423084F8E1
:102D4000433084F8443084F8453084F83D30002026
:102D500010BD80F83C30FFF7AFFEDBE70120704785
:102D6000002857D070B50D46044690F83D30002B32
:102D70004BD0022384F83D302268936823F48043CB
:102D800023F007039360214651F8040BFFF756FF29
:102D900021688A688B690E6A2868104323F4407C96
:102DA0002CF0030CAA68AB6942EA032343EA0C0344
:102DB00023F47C4323F0FC03EA69D5F80CC04CEA09
:102DC000022C4CEA030C2A6A13032A6943EA021311
:102DD00043EA0C0326F022066A686D6942EA05128E
:102DE0003243886021688B6123681A62012384F86A
:102DF000463084F83E3084F83F3084F8423084F81E
:102E0000433084F83D30002070BD80F83C30FEF740
:102E100031FFAEE70120704730B4036A026A22F046
:102E2000100202624468826922F4E6420D6842EAB6
:102E3000052223F020038D6843EA05130E4DA842B6
:102E400009D00D4DA8420ED0446082614A68826369
:102E5000036230BC704723F08003CD6843EA05135A
:102E600023F04003EDE724F440644D6944EA85040F
:102E70008D6944EA8504E7E7002C014038B590F8F5
:102E80003C30012B66D004460D46012380F83C30CF
:102E90000C2A5AD8DFE802F0075959591B595959D9
:102EA0003059595944000068FFF720FD22689369A2
:102EB00043F0080393612268936923F0040393614C
:102EC0002268936929690B43936100203EE0006802
:102ED000FFF7A2FF2268936943F4006393612268BD
:102EE000936923F48063936122689369296943EAB3
:102EF00001239361002029E00068FFF725FD226887
:102F0000D36943F00803D3612268D36923F0040333
:102F1000D3612268D36929690B43D361002015E08E
:102F20000068FFF743FD2268D36943F40063D3616F
:102F30002268D36923F48063D3612268D369296945
:102F400043EA0123D361002000E00120002384F83C
:102F50003C3038BD0220FCE710B4846824F47F4C78
:102F600042EA03220A4342EA0C02826010BC704724
:102F700090F83C30012B78D010B50446012380F83E
:102F80003C30022380F83D300268936823F47F438D
:102F900023F0770393600B68602B4CD029D8402B2B
:102FA00054D00CD9502B22D1CA6849680068FFF769
:102FB00021FD50212068FFF742FD002005E0202B75
:102FC0000DD009D9302B0AD00120012384F83D30DF
:102FD000002384F83C3010BD0BB1102B05D11946ED
:102FE0002068FFF72CFD0020EFE70120EDE701202E
:102FF000EBE7B3F5805F34D0B3F5005F0CD1CB685D
:103000004A6889680068FFF7A7FF2268936843F45D
:10301000804393600020D8E7702B24D1CB684A68A6
:1030200089680068FFF798FF2268936843F0770388
:1030300093600020C9E7CA6849680068FFF7ECFCA4
:1030400060212068FFF7FBFC0020BEE7CA684968E2
:103050000068FFF7CFFC40212068FFF7F0FC00205C
:10306000B3E70020B1E70120AFE70220704701F08D
:103070001F01012303FA01FC036A23EA0C03036224
:10308000036A02FA01F10B430362704710B504466C
:10309000084651BB94F83E30DBB2013B18BF012318
:1030A000002B5BD1002839D1022384F83E30012265
:1030B00001462068FFF7DBFF23682A4A93423DD090
:1030C0002368284A93423ED0B3F1804F3BD0A2F50B
:1030D0009432934237D002F58062934233D01A681B
:1030E00042F001021A60002039E0042908D00829C2
:1030F0000DD094F84130DBB2013B18BF0123CFE77C
:1031000094F83F30DBB2013B18BF0123C8E794F8C5
:103110004030DBB2013B18BF0123C1E7042805D0D2
:10312000082807D0022384F84130C0E7022384F83E
:103130003F30BCE7022384F84030B8E75A6C42F4D1
:1031400000425A64BCE79A6802F00702062A07D0D8
:103150001A6842F001021A60002000E0012010BD50
:103160000020FCE7002C014038B5044690F83E00F2
:10317000C0B294F83F3094F84220D2B294F843C0E1
:103180000D46B1B9012849D1012A48D1022384F85A
:103190003E3084F842307DB3042D39D00122002125
:1031A0002068FFF764FF012204212068FFF75FFF1A
:1031B00027E0DBB25FFA8CFC042912D0012833D15E
:1031C000012B2CD1012A31D1BCF1010F30D10223C6
:1031D00084F83E3084F83F3084F8423084F843303D
:1031E000D9E7012B1CD1BCF1010F1BD1022384F8BC
:1031F0003F3084F84330CEE7012200212068FFF7FA
:1032000036FF2268136843F001031360002006E0D4
:10321000012204212068FFF72AFFF2E7012038BDD0
:103220000120FCE71846FAE70120F8E71846F6E720
:103230001046F4E790F83C30012B2CD010B4012359
:1032400080F83C30022380F83D3003685A689C685F
:1032500022F0700C0A6842EA0C025A6003680F4AB6
:1032600093420AD0B3F1804F07D0A2F59432934233
:1032700003D002F58062934204D124F080044A68AE
:1032800014439C60012380F83D30002380F83C30DB
:10329000184610BC70470220704700BF002C014048
:1032A0007047704710B504460268136923F4405311
:1032B000C1680B43136183680269134342691A436F
:1032C0000168CB6823F4B05323F00C031343CB60A5
:1032D0000268536923F4407381690B4353610268A8
:1032E000134B9A4220D0FFF7E1FA024602EB82022A
:1032F00002EB820263689B00B2FBF3F20D48A0FB75
:1033000002314909642303FB11231B013233A0FB63
:1033100003235B0903F0F00202EB011203F00F0339
:10332000216813448B6010BDFFF7D0FA0246DDE739
:10333000003801401F85EB512DE9F84305460F4643
:1033400016469946DDF820802C68246837EA040385
:103350000CBF4FF0010C4FF0000CB4452DD1B8F16B
:10336000FF3FF1D0B8F1000F05D0FEF7F3FDA0EB61
:1033700009004045E8D92A6802F10C0353E8003FF0
:1033800023F4D0730C3242E800310029F3D12A68CB
:1033900002F1140353E8003F23F00103143242E822
:1033A00000310029F3D1202385F8413085F84230DF
:1033B000002385F84030032000E00020BDE8F883BA
:1033C00060B310B5044690F8413013B3242384F859
:1033D00041302268D36823F40053D3602046FFF7BE
:1033E00061FF2268136923F49043136122685369D3
:1033F00023F02A0353612268D36843F40053D36057
:1034000000206064202384F8413084F842306063F7
:1034100010BD80F84030FEF71DFDD7E70120704752
:103420002DE9F04182B01E4690F84130DBB2202BEE
:103430004BD104460D46904600294AD00AB90120D6
:1034400044E000234364212380F84130FEF782FDED
:103450000746A4F82480A4F82680A368B3F5805F0B
:1034600002D04FF000080FE02369FBB14FF00008D5
:103470000AE038F8023B2268C3F308035360E28C89
:1034800092B2013A92B2E284E38C9BB28BB1009685
:103490003B46002280212046FFF74EFFD8B9002D81
:1034A000E7D015F8012B23685A60E8E7A846002505
:1034B000EAE700963B46002240212046FFF73CFF0A
:1034C00058B9202384F8413000E0022002B0BDE862
:1034D000F0810120FAE70320F8E70320F6E72DE961
:1034E000F04182B01E4690F84230DBB2202B53D11F
:1034F00004460D469046002952D00AB901204CE0FE
:1035000000234364222280F842200363FEF722FD59
:103510000746A4F82C80A4F82E80A368B3F5805F3A
:1035200002D04FF0000817E0236913B14FF00008F4
:1035300012E0A84600250FE023685B68C3F3080388
:1035400028F8023B03E023685B682B700135E28DAD
:1035500092B2013A92B2E285E38D9BB2BBB1009682
:103560003B46002220212046FFF7E6FED0B9002D81
:10357000E2D0A368B3F5805FE5D013B92369002BCF
:10358000E1D023685B6803F07F032B70DEE7202324
:1035900084F84230002000E0022002B0BDE8F08153
:1035A0000120FAE70320F8E7C16002604360009B56
:1035B0008360704710B584B004AC04E90F0006992D
:1035C0000398FDF7B7FA01460098FDF7BDFB0446E6
:1035D00007990298FDF7B8FB01462046FDF7ACFAC3
:1035E00004B010BD70B584B004AC04E90F000999B3
:1035F0000898FDF7A1FA4FF07C51FDF7A5FB0146B5
:103600000398FDF797FA1E4B18601E49FDF79CFBC7
:1036100004461D491D4B1868FDF796FB01462046E0
:10362000FDF78AFA04461A4B18601A4E3168FDF706
:1036300083FA054630601849FDF742FDA8B1164AE5
:10364000326000992046FDF77FFB0546114B196853
:103650000198FDF779FB01462846FDF76DFA0F4BFF
:1036600018600A4B1C6004B070BD0D492846FDF778
:1036700009FD0028E5D0074B094A1A60E1E700BFC1
:10368000600B00203333333F9A99993E680B00203A
:103690006C0B0020640B002000401C46700B0020C7
:1036A00000401CC600EBC000C0004FF0E023586192
:1036B00000229A6105221A614FF0E0231B6913F47E
:1036C000803FF9D04FF0E02304221A61704710B513
:1036D00004E04FF47A70FFF7E5FF2046441E00280F
:1036E000F7D110BD38B505460C464822FDF7F4FE6B
:1036F0000023A5F848303C212046FFF735FD38BDB2
:103700002DE9F04104460F4615461E4600F072F9B9
:10371000600000F0FE0000F095F900F0DBF988B9D8
:103720008046384600F08EF900F0D4F94446AC42A9
:1037300014D2305D00F086F900F0CCF948B90134BC
:10374000E4B2F4E700F06CF94FF001084046BDE840
:10375000F08100F065F94FF00108F7E700F060F93B
:10376000F4E7F8B506460F4614461D4600F042F948
:10377000700000F0FE0000F065F900F0ABF978B9D8
:10378000384600F05FF900F0A5F900F033F9700059
:1037900040F00100C0B200F055F900F09BF90CE0D8
:1037A00000F03EF9012015E000F064F928700120D6
:1037B00000F080F9013CE4B2013544B1012CF3D0B2
:1037C00000F058F92870002000F074F9F2E700F0DA
:1037D00027F92046F8BD08B500F0FCF808BD70B523
:1037E00082B006460D4614466B46062243216820E9
:1037F000FFF7B7FFA0B99DF800209DF8013043EA1C
:10380000022333809DF802209DF8033043EA02230F
:103810002B809DF804209DF8053043EA0223238085
:1038200002B070BD70B50446049E0160027100F1E3
:103830000805482219462846FDF74EFE6665012315
:1038400084F850300023A4F8523031462846FFF760
:103850001DFC70BD10B5012802D0022820D010BD7B
:1038600001290FD00229FAD11D4C00224FF400612A
:103870002046FEF7FAFC01224FF480512046FEF765
:10388000F4FCECE7164C01224FF400612046FEF7F1
:10389000ECFC00224FF480512046FEF7E6FCDEE708
:1038A00001290FD00229DAD10E4C00224FF48051A9
:1038B0002046FEF7DAFC01224FF400512046FEF7C5
:1038C000D4FCCCE7074C01224FF480512046FEF790
:1038D000CCFC00224FF400512046FEF7C6FCBEE7A8
:1038E00000080140000C014038B505460C1E15DBF0
:1038F00001212879FFF7AEFF6B6D9BB92046FCF7DD
:1039000079FD0022214BFCF709FF00221F4BFCF739
:10391000DBFDAC68FDF79AF8606338BD61420CB21C
:103920000221E6E7042B11D0082B1FD02046FCF71C
:1039300061FD0022154BFCF7F1FE0022134BFCF752
:10394000C3FDAC68FDF782F82064E6E72046FCF78B
:1039500051FD00220D4BFCF7E1FE00220B4BFCF762
:10396000B3FDAC68FDF772F8A063D6E72046FCF71C
:1039700041FD0022054BFCF7D1FE0022034BFCF772
:10398000A3FDAC68FDF762F8E063C6E700005940AC
:10399000B0F95230642B03DD6423A0F85230704735
:1039A00013F1640F03DA4FF69C73A0F8523070479E
:1039B00008B5024601210248FEF757FC08BD00BFCA
:1039C000000C014008B502210148FEF747FC08BD84
:1039D000000C014010B5064C012202212046FEF7E2
:1039E00044FC012211462046FEF73FFC10BD00BFFB
:1039F000000C014010B5094C012202212046FEF7BF
:103A000034FC0120FFF7D4FF002202212046FEF7FC
:103A10002CFC0020FFF7CCFF10BD00BF000C0140C4
:103A200010B5074C002202212046FEF71EFC0120A3
:103A3000FFF7BEFF012202212046FEF716FC10BD53
:103A4000000C014038B5054600240EE080222241DA
:103A50002A4002210648FEF708FC0120FFF7A8FFD4
:103A60000020FFF7A5FF0134E4B2072CEED938BDE2
:103A7000000C014038B5012202210D48FEF7F5FB8C
:103A800000252C4604E00020FFF792FF0134E4B249
:103A9000072C0BD80120FFF78BFFFFF793FF0128BE
:103AA000F1D1802323411D43EDB2ECE7284638BD18
:103AB000000C014008B5024602210548FEF7D5FB7F
:103AC0000120FFF775FF0020FFF772FF08BD00BF60
:103AD000000C014038B5012202210B48FEF7C5FB5E
:103AE0000120FFF765FF0024FFF76CFF054638B1A2
:103AF0000134E4B2FA2CF7D9FFF792FF012501E077
:103B0000FFF756FF284638BD000C014020B94FF0A2
:103B10000062034B1A6170474FF40062F9E700BF7F
:103B2000000C014008B50120FFF7F0FF01224FF41F
:103B300080610248FEF799FB08BD00BF000C014000
:103B400010B50A4C01224FF480612046FEF78DFB30
:103B50000120FFF7DBFF00224FF480612046FEF7D3
:103B600084FB0020FFF7D2FF10BD00BF000C014016
:103B700010B5084C00224FF480612046FEF775FB1B
:103B80000120FFF7C3FF01224FF480612046FEF7BA
:103B90006CFB10BD000C014038B5054600240FE059
:103BA000802222412A404FF480610A48FEF75DFBE3
:103BB0000120FFF7ABFF0020FFF7A8FF0134E4B2BC
:103BC000072CEDD90120FFF7A1FF0020FFF79EFF92
:103BD00038BD00BF000C014010B50446FFF7B0FF30
:103BE0007820FFF7D9FF0020FFF7D6FF2046FFF728
:103BF000D3FFFFF7BDFF10BD10B50446FFF7A0FFD0
:103C00007820FFF7C9FF4020FFF7C6FF2046FFF7E7
:103C1000C3FFFFF7ADFF10BD10B50C4640F0B0007C
:103C2000FFF7DAFF200940F01000FFF7D5FF04F09E
:103C30000F00FFF7D1FF10BD38B5002509E00020C7
:103C4000FFF7DAFF0134E4B214F0800FF7D001354A
:103C5000EDB2072D05D800212846FFF7DDFF00242F
:103C6000F2E738BDF8B51546461E7600F6B24F1E8F
:103C7000FF00FFB239463046FFF7CEFF002409E0CF
:103C8000A5F120030F4A02EB0313185DFFF7B4FF01
:103C90000134E4B2072CF3D9701C3946C0B2FFF7E7
:103CA000BBFF00240BE0A5F1200304F10802054945
:103CB00001EB0313985CFFF79FFF0134E4B2072C7C
:103CC000F1D9F8BDDC830008F8B507460E46154665
:103CD000002406E0A119C9B23846FFF7C3FF01343A
:103CE000E4B22A5D002AF5D1F8BD00000000000012
:103CF0002DE9F04F87B006460F46154600921C4648
:103D00000193002303930493059300220023284684
:103D10002146FCF74BFEB8B900980199FCF76EFEFE
:103D200005462846FCF766FB02460B4600980199BB
:103D3000FCF712FA6CA3D3E90023FCF7C5FBFCF7F0
:103D400085FE01210C460BE0284604F10041FCF7FA
:103D500055FE0546E5E701EB810149000134E4B277
:103D6000634B83FB0523EA17C2EBA30292FBF1F33B
:103D7000002BF0D15F4981FB051E4FEAE57CCCEBBF
:103D80002E3EDFF86C9189FB0E184FEAEE71C1EB05
:103D9000A80101EB8101AEEB41018DF80C10DFF8B9
:103DA000588188FB051ECCEBAE1E89FB0E1A4FEA2C
:103DB000EE71C1EBAA0101EB8101AEEB41018DF87F
:103DC0000D10DFF838E18EFB051ACCEB6A1A89FB7F
:103DD0000A1B4FEAEA71C1EBAB0101EB8101AAEBCF
:103DE00041018DF80E1089FB021AD117C1EBAA010F
:103DF00001EB8101A2EB41018DF80F1089FB052930
:103E0000CCEBA90C0CEB8C0CA5EB4C0C8DF810C07A
:103E10002E228DF81120A8FB00284FEA9818384A66
:103E2000A2FB0851C90801EB8101A8EB41018DF803
:103E30001210AEFB001E4FEA5E1EA2FB0E51C90817
:103E400001EB8101AEEB41018DF81310A2FB005193
:103E5000C908A2FB0152D20802EB8202A1EB420286
:103E60008DF8142001EB8101A0EB41018DF81510B4
:103E70009DF84050063505F118026A44002102F809
:103E80000C1C09E003F118020DEB020111F80C2CD7
:103E9000303201F80C2C0133092BF3DD0022002312
:103EA00000980199FCF782FDA0B92E238DF81130FE
:103EB00005F118030DEB0305002305F80C3CC4F1D4
:103EC000050203AB1A4439463046FFF7FDFE07B042
:103ED000BDE8F08F0134E4B2C4F1050318336B443C
:103EE0002D2203F80C2CE0E7000000000088C340FE
:103EF00067666666AD8BDB68D34D62101F85EB513C
:103F0000CDCCCCCC08B5002204E00133B3F57A7FE8
:103F1000FBD30132B2F57A7F01D20023F6E7FFF737
:103F200001FEAE20FFF758FED520FFF755FE80209A
:103F3000FFF752FEA820FFF74FFE3F20FFF74CFE91
:103F4000D320FFF749FE0020FFF746FE4020FFF791
:103F500043FEA120FFF740FEC820FFF73DFEDA2018
:103F6000FFF73AFE1220FFF737FE8120FFF734FEFD
:103F7000CF20FFF731FED920FFF72EFEF120FFF70B
:103F80002BFEDB20FFF728FE3020FFF725FEA420C4
:103F9000FFF722FEA620FFF71FFE8D20FFF71CFE75
:103FA0001420FFF719FEAF20FFF716FEFFF744FEBF
:103FB00008BD0000F0B583B007462C4B586801AB34
:103FC00004220D210078FFF7CCFB00284BD10446DA
:103FD0009DF80420D21002F01C029DF80710C1F3D6
:103FE00001131A438DF800209DF80520D21002F02D
:103FF0001C02C1F381031A438DF801209DF806309D
:10400000DB1003F01C0301F003010B438DF80230B9
:1040100018E007EB8405164B47F8243004E01549F7
:104020002868FCF791FE286006F108030DEB0302F7
:1040300012F8083C013BDBB202F8083C002BEED141
:104040000134E4B2022C0BD8264604F108036B4479
:1040500013F8083C002BDCD1002347F82430EFE7AD
:10406000002003B0F0BD0720FBE700BF18000020D0
:104070007B14AE3E1D5A843F2DE9F04385B0814646
:10408000884601A8FFF796FF00273C460DE021492E
:104090003046FCF7F7FF20B91F493046FDF710F80E
:1040A00010B10123A3401F430134022C2EDCA500D4
:1040B00059F8240058F82430C01A0028B8BF4042EC
:1040C000FCF7EEFD4FF05E51FCF73EFE064605F1B3
:1040D00010030DEB030555F80C5C00212846FCF796
:1040E000C7FF0028D3D129463046FCF7E1FE4FF048
:1040F0007E51FCF71FFD20F000400849FCF7E0FF6F
:104100000028D1D00123A3401F43CDE7384605B096
:10411000BDE8F0839A99993E3333733F295C0F3E93
:104120002DE9F04182B007468846374B586801AB0D
:1041300003220D210078FFF714FB00285FD19DF8C2
:10414000043003F01F038DF804309DF8053003F0B0
:104150001F038DF805309DF8063003F01F038DF81E
:1041600006300026344626E02849FCF7EDFD04F130
:1041700008030DEB030212F8043C013BDBB202F82A
:10418000043C002BF0D101462846FCF791FE4FF08D
:104190007E51FCF7CFFC20F000401D49FCF790FF5A
:1041A00040B10123A3401E4304E01A48DFE7012386
:1041B000A3401E430134022C22DC57F8240058F897
:1041C0002430C01A0028B8BF4042FCF769FD4FF008
:1041D0005E51FCF7B9FD054604F108036B4413F882
:1041E000043C002BE1D10C49FCF74CFF0028DED148
:1041F0000A492846FCF764FF0028DBD0D7E70726EA
:10420000304602B0BDE8F0811800002054E3853F3D
:10421000295C0F3E0000C841000020410000D2424E
:1042200000B583B0234B93F82430CBB1A0B1022367
:104230008DF807301F4B586819680DF107030122EC
:10424000C97B0078FFF75CFA48BB9DF80720194B43
:104250005A7403B05DF804FB00238DF80730E9E7DA
:10426000144B9B7AF3B110B1124B5B7CEBB990B15C
:1042700001238DF807300F4B586819680DF10703BB
:104280000122C97B0078FFF73BFA80B99DF807202F
:10429000084B5A74DDE700238DF80730EBE74FF049
:1042A000FF30D6E74FF0FF30D3E70020D1E74FF0E3
:1042B000FF30CEE718000020F0B589B005460C4667
:1042C000164601238DF8143000238DF81530854BE8
:1042D0005868196805AB0222897C0078FFF710FA4C
:1042E000002840F0CE81C820FFF7F1F900238DF8B7
:1042F00014307C4B5868196805AB0122C97B0078E3
:10430000FFF7FEF9002840F0BF81764B5868196826
:1043100005AB012249790078FFF7F2F9002840F057
:10432000B681704B5868196805AB0122897C00780A
:10433000FFF7E6F9002840F0AD816A4B586819682C
:1043400005AB0122C97D0078FFF7DAF9002840F0BB
:10435000A481644B5868196805AB0122097900787B
:10436000FFF7CEF9002840F09B810C238DF8143024
:104370005C4B5868196805AB012209790078FFF792
:10438000BFF9002840F08F810F20FFF7A0F9554BAF
:104390009A6A527A8DF814205868196805AB012280
:1043A00089780078FFF7ACF9002840F07F814D4B09
:1043B0009A6A127A8DF814205868196805AB0122A0
:1043C00049780078FFF79CF9002840F07281002EB0
:1043D00079D0444B9B6A9B7A63F01F038DF81430AD
:1043E000404B5868196805AB012289790078FFF7BE
:1043F00087F9002840F06081002E6AD0394B9B6A13
:10440000DB7A63F01F038DF81430364B5868196857
:1044100005AB0122C9790078FFF772F9002840F056
:104420004E81002E59D140238DF814302D4B586801
:10443000196805AB012209790078FFF761F90028B6
:1044400040F0408178238DF81430264B5868196865
:1044500005AB012249790078FFF752F9002840F0B6
:1044600034813220FFF733F900238DF814301D4BCF
:104470005868196805AB012249790078FFF740F9BF
:10448000002840F02581174B5868196805AB0222B7
:10449000897A0078FFF765F90646002840F01B810D
:1044A0009DF814309DF8157047EA03270E4BA3FBC7
:1044B0000737C7F3C7070023AB606B602B60A360AF
:1044C000636023605CE0074B9B6A9B7A8DF8143035
:1044D00086E718238DF8143097E7C820FFF7F7F820
:1044E000A1E700BF18000020ABAAAAAA9DF81430CB
:1044F0009DF8151041EA032109B2ADF804109DF8AA
:1045000016309DF8172042EA032212B2ADF80620B9
:104510009DF818009DF8193043EA00231BB2ADF84E
:10452000083020680144216061680A446260A26822
:104530001344A3609DF81A309DF81B1041EA032133
:1045400009B2ADF80C109DF81C309DF81D2042EA10
:10455000032212B2ADF80E209DF81E009DF81F3008
:1045600043EA00231BB2ADF81030286801442960EB
:1045700069680A446A60AA681344AB600136F6B2FF
:10458000BE420ED2554B5868196805AB0C22C97A49
:104590000078FFF7E6F80028A8D04FF0FF3009B008
:1045A000F0BD29688322002308040914FCF7D8FD14
:1045B00000263A463346FCF7D3FD2860696883221B
:1045C000002308040914FCF7CBFD3A463346FCF7F8
:1045D000C7FD6860A9688322002308040914FCF75A
:1045E000BFFD3A463346FCF7BBFDA86020680314C4
:1045F00000041946B3422DDBC00A3A46334640EA6E
:104600004150C912FCF7ACFD20606068031400043F
:104610001946002B24DBC00A3A46334640EA415093
:10462000C912FCF79DFD6060A068031400041946E0
:10463000002B1BDBC00A3A46334640EA4150C91200
:10464000FCF78EFDA060002816DDA0F58030A0608C
:104650000020A4E740F2FF72801843F10001CBE78D
:1046600040F2FF72801843F10001D4E740F2FF727C
:10467000801843F10001DDE700F58030A0600020E4
:104680008DE74FF0FF308AE74FF0FF3087E74FF0BC
:10469000FF3084E74FF0FF3081E74FF0FF307EE7D7
:1046A0004FF0FF307BE74FF0FF3078E74FF0FF30FF
:1046B00075E74FF0FF3072E74FF0FF306FE74FF0D4
:1046C000FF306CE74FF0FF3069E74FF0FF3066E7EF
:1046D0004FF0FF3063E74FF0FF3060E71800002035
:1046E0007C4B9B7A002B00F0D48000B583B0002374
:1046F0008DF80730774B586819680DF107030122D0
:10470000C97B0078FEF7FCFF002840F0C580714BA4
:10471000586819680DF10703012249790078FEF7FE
:10472000EFFF002840F0BB806A4B586819680DF114
:104730000703012209790078FEF7E2FF002840F024
:10474000B180644B93F82430002B52D00C238DF8A9
:104750000730604B586819680DF107030122097989
:104760000078FEF7CDFF002840F09F803220FEF752
:10477000AEFFC0238DF80730564B9B7A13F0010F24
:1047800002D0E0238DF80730524B586819680DF1BC
:104790000703012209790078FEF7B2FF002840F0F4
:1047A00087804C4B5B7C03B302238DF80730494B69
:1047B000586819680DF107030122C97B0078FEF7DC
:1047C0009FFF002877D100238DF80730414B5868B0
:1047D00019680DF10703012249790078FEF790FF6F
:1047E00000286BD103B05DF804FB00238DF807307F
:1047F000DDE704238DF80730364B586819680DF152
:104800000703012209790078FEF77AFF002858D1C2
:10481000304B9B7C23B92F4B9B7A13F0010F30D187
:1048200040238DF807302B4B586819680DF10703AA
:10483000012209790078FEF763FF002844D1322075
:10484000FEF745FF234B5B7CFBB101238DF807305E
:10485000204B586819680DF107030122C97B0078C5
:10486000FEF74EFF98BB1B4B586853F8101B0122F4
:1048700049790078FEF744FF0028B3D04FF0FF30AD
:10488000B0E760238DF80730CDE700238DF80730BF
:10489000DEE74FF0FF3070474FF0FF30A2E74FF0F8
:1048A000FF309FE74FF0FF309CE74FF0FF3099E774
:1048B0004FF0FF3096E74FF0FF3093E74FF0FF30B7
:1048C00090E74FF0FF308DE74FF0FF308AE74FF071
:1048D000FF3087E7180000200D4B1B7A032B13D8FD
:1048E000DFE803F002060A0EFA2303800020704777
:1048F0004FF4FA730380F9E74FF47A730380F5E716
:104900004FF4FA630380F1E700230380EEE700BF72
:1049100018000020244B9B7A002B3CD000B583B0BC
:10492000B0F57A7F33D00BD8FA2813D0B0F5FA7FE0
:1049300003D108238DF807300FE04FF0FF3023E05C
:10494000B0F5FA6F03D118238DF8073005E04FF06A
:10495000FF3019E000238DF80730134B1B7A9DF8C8
:104960000720B3EBD20F19D00F4B586819680DF11F
:104970000703012289790078FEF7C2FE80B99DF80D
:104980000730DB08084A137203B05DF804FB1023FC
:104990008DF80730E1E74FF0FF3070470020F3E774
:1049A0004FF0FF30F0E700BF180000200F4B5B7A9C
:1049B000032B16D8DFE803F0020C0F12022303705A
:1049C0000A4BDB7C83B103785B00037000207047E7
:1049D00004230370F4E708230370F1E71023037046
:1049E000EEE74FF0FF3070470020704718000020BE
:1049F000234B9B7A002B35D000B583B002380E28AC
:104A000033D8DFE800F00832233232322732323234
:104A1000323232322B0000238DF80730184B5B7A8C
:104A20009DF80720B3EBD20F24D0154B58681968B6
:104A30000DF107030122C9790078FEF761FED8B9AC
:104A40009DF80730DB080E4A537210E008238DF8FA
:104A50000730E3E710238DF80730DFE718238DF8E0
:104A60000730DBE74FF0FF3070474FF0FF3003B007
:104A70005DF804FB0020FAE74FF0FF30F7E700BFD6
:104A8000180000200F4BDB7A013B052B17D8DFE81D
:104A900003F003070A0D1013BC23038000207047A6
:104AA00062230380FAE72A230380F7E714230380B5
:104AB000F4E70A230380F1E705230380EEE70023F0
:104AC0000380EBE718000020234B9B7A002B3AD0A1
:104AD00000B583B0BB281AD901238DF807301E4BCF
:104AE000DA7A9DF807309A4230D01B4B5868196823
:104AF0000DF10703012289780078FEF701FE38BB2B
:104B00009DF80720144BDA7203B05DF804FB6128AE
:104B100003D902238DF80730E1E7292803D90323BD
:104B20008DF80730DBE7132803D904238DF807300D
:104B3000D5E7092803D905238DF80730CFE70623E9
:104B40008DF80730CBE74FF0FF3070470020DBE7F0
:104B50004FF0FF30D8E700BF18000020054B93F856
:104B6000243023B9034BDB890380002070474FF0CA
:104B7000FF307047180000200D4B1B7A032B13D811
:104B8000DFE803F002060A0E0A4B036000207047BC
:104B9000094B036000207047084B036000207047FA
:104BA000074B0360002070474FF0FF30704700BF95
:104BB0001800002000000343000083423333034207
:104BC00033338341114B5B7A032B1AD8DFE803F0B0
:104BD000020D11154FF4804303800C4BDB7C9BB11D
:104BE00003885B0803800020704741F69C730380B4
:104BF000F3E74FF480530380EFE74FF40063038043
:104C0000EBE74FF0FF30704700207047180000209E
:104C1000024B1B7C03700020704700BF180000206F
:104C200070B5174B93F824302BBB00F0FE04144BE7
:104C30009B7A13B3124A167C23401374A3420BD001
:104C40004FF0FF3514B90E4B1B7D3BB10120FFF730
:104C5000E7FA3CB9284670BD0025F3E70020FFF7CE
:104C6000DFFAF6E7FFF73CFD0028F3D0044B1E7493
:104C70004FF0FF35EEE70025ECE74FF0FF35E9E7B1
:104C8000180000202E4B93F82430002B49D0F0B5AB
:104C900083B005460F461646294B9B7A002B43D01E
:104CA000274B5868196801AB0222897A0078FEF711
:104CB00058FD00283BD19DF804009DF8054044EACA
:104CC0000024AC4223D31E4B58684388B4EB530FE7
:104CD0000DD91B4B196801AB0122497C0078FEF706
:104CE00040FD38BB9DF8043013F0100F14D1144B65
:104CF000586819683B46EAB2C97A0078FEF731FD78
:104D0000D8B9B4FBF5F4013C347003B0F0BD002316
:104D100033704FF0FF30F8E7FFF7E2FC6FF001006F
:104D2000F3E74FF0FF3070474FF0FF30EDE74FF003
:104D3000FF30EAE74FF0FF30E7E74FF0FF30E4E7FE
:104D400018000020584B9B7C834200F09C8010B5DB
:104D500082B00446002844D0534B586819680DF1BE
:104D60000703012209790078FEF7FBFC002840F0D8
:104D70008C809DF8073023F020038DF807304A4BD4
:104D8000586819680DF10703012209790078FEF7C8
:104D9000B7FC00287CD10320FEF799FC02238DF894
:104DA0000730414B93F8223013B182238DF807303E
:104DB0003D4B93F823302BB19DF8073043F030037F
:104DC0008DF80730384B586819680DF10703012238
:104DD000097D0078FEF794FC002844D04FF0FF30A6
:104DE00044E0314B586819680DF107030122097935
:104DF0000078FEF7B6FC00284DD12B4B9B7A13F0C0
:104E0000010F35D09DF8073043F020038DF80730AF
:104E1000254B586819680DF10703012209790078BC
:104E2000FEF76EFC002839D10320FEF750FC1E4B24
:104E300093F822301BB380238DF807301A4B93F878
:104E400023302BB19DF8073043F030038DF8073045
:104E5000154B586819680DF107030122097D007888
:104E6000FEF74EFCE8B9104B9C74002002B010BD58
:104E70009DF8073023F020038DF80730C8E70023A2
:104E80008DF80730DAE7002070474FF0FF30EDE78C
:104E90004FF0FF30EAE74FF0FF30E7E74FF0FF3029
:104EA000E4E74FF0FF30E1E7180000201B4B93F8D8
:104EB000233083422DD010B582B0044628B330236E
:104EC0008DF80730154B9B7C2BB19DF8073043F0D4
:104ED00002038DF80730114B93F822302BB19DF867
:104EE000073063F07F038DF807300C4B5868196862
:104EF0000DF107030122097D0078FEF701FC50B98E
:104F0000064B83F8234002B010BD00238DF8073014
:104F1000D8E7002070474FF0FF30F4E7180000207A
:104F200028285FD810B582B00446B8B90020FFF732
:104F3000BDFF00238DF8043007238DF805302E4B7C
:104F40005868196801AB0222897C0078FEF7D8FB0B
:104F500000284AD1284B187502B010BD0120FFF778
:104F6000A5FF20238DF80430012C26D0052C2BD949
:104F7000142C30D802238DF805300A20FFF7A4FD49
:104F80009DF805309B0143F007038DF805301A4B5F
:104F90005868196801AB0222897C0078FEF7B0FBE3
:104FA00030BB154B08229A7200241C7301221A751B
:104FB0002046FFF735FE2046CEE700238DF805306A
:104FC0000520FFF781FDDBE701238DF80530052083
:104FD000FFF77AFDD4E703238DF805301420FFF79F
:104FE00073FDCDE74FF0FF3070474FF0FF30B3E770
:104FF0004FF0FF30B0E700BF18000020264B9B7A2F
:10500000002B40D010B582B00446234B93F82430D7
:10501000002B3BD1204B1B7D33B1431E9BB2272B72
:105020000AD90020FFF77CFF032C0AD9B4F57A7F58
:1050300008D94FF47A7405E0C0B2FFF771FF002081
:105040001FE004244FF47A7090FBF4F4013C8DF8D7
:105050000740114B586819680DF107030122497880
:105060000078FEF74DFBA0B99DF80700431C4FF4F4
:105070007A7090FBF3F0084BD8814008FFF724FDCD
:10508000002002B010BD4FF0FF3070474FF0FF30EE
:10509000F7E74FF0FF30F4E71800002010B582B0BA
:1050A000044610F0700F50D001238DF80730334BB9
:1050B000586819680DF107030122897C0078FEF712
:1050C0001FFB00284AD19DF8073003F0BF032B4A8D
:1050D000137300238DF8073014F0400F02D104231E
:1050E0008DF8073014F0200F05D19DF8073043F0FC
:1050F00002038DF8073014F0100F05D19DF807302A
:1051000043F001038DF8073014F0080F05D19DF826
:10511000073043F038038DF80730184B586819688A
:105120000DF107030122C97C0078FEF7E9FAD8B92E
:105130000CB1082C1ED1114B9C7200241C7532201E
:10514000FEF7C5FA204602B010BD18B100238DF855
:105150000730ACE740238DF80730A8E7074B002263
:105160009A724FF0FF30EEE7044B00229A724FF034
:10517000FF30E8E70020FFF799FEDCE71800002089
:1051800010B582B080238DF80030624B58681968E2
:105190006B460122897C0078FEF7B2FA002840F0C5
:1051A00094806420FEF793FA00238DF80030594B69
:1051B000586819686B460122897C0078FEF7A0FACE
:1051C000002840F08580534B586819686B460622CA
:1051D000897D0078FEF7C5FA00287CD19DF805305E
:1051E0009B0003F004039DF80320520002F002022A
:1051F00013439DF9012002F0010213434CD0012B0F
:1052000046D0022B6AD1434B0022DA74414BFF2275
:105210009A721A725A72DA724FF6FF71D9811A7441
:105220009A7401221A7383F82220002283F8232023
:105230005A751A75C3F81620C3F81A20C3F81E2031
:1052400083F8242083F82520DA844FF4FA60FFF7EE
:1052500061FB00284BD10220FFF7CAFB002849D18F
:105260002A20FFF731FC002847D13220FFF7C6FE85
:10527000002845D1FFF7D4FC002844D1FFF762FD98
:105280000446002842D1FFF709FF204602B010BDB6
:10529000204B0122DA74B9E71E4B586819686B4637
:1052A0000122C9780078FEF75CFAD0B99DF8003089
:1052B00013F00F0318D0042B03D0164B0022DA741E
:1052C000A4E7144B0122DA74A0E74FF0FF34DCE7C7
:1052D0004FF0FF34D9E74FF0FF34D6E74FF0FF34FB
:1052E000D3E74FF0FF34D0E74FF0FF34CDE74FF076
:1052F000FF34CAE74FF0FF34C7E74FF0FF34C4E78D
:105300004FF0FF34C1E74FF0FF34BEE74FF0FF34FA
:10531000BBE700BF180000203AB370B582B00C465E
:105320001646194B9B7A1BB3030A8DF80430C0B2A2
:105330008DF805000844144B5D686B8998421ADCAF
:10534000114B196801AB0222097E2878FEF7D8F9C3
:10535000A0B90D4B586819683346E2B2497D007810
:10536000FEF7CEF968B902B070BD4FF0FF3070475C
:105370004FF0FF30F7E74FF0FF30F4E74FF0FF302A
:10538000F1E74FF0FF30EEE7180000203AB370B5B8
:1053900082B00C461646194B9B7A1BB3030A8DF854
:1053A0000430C0B28DF805000844144B5D686B8969
:1053B00098421ADC114B196801AB0222097E287849
:1053C000FEF79EF9A0B90D4B586819683346E2B252
:1053D000497D0078FEF7C5F968B902B070BD4FF09D
:1053E000FF3070474FF0FF30F7E74FF0FF30F4E742
:1053F0004FF0FF30F1E74FF0FF30EEE718000020EC
:105400002DE9F04F87B09A46294B93F82530002BB1
:105410003CD107468846914600293AD00024BC4238
:105420001BD23E1B102EA8BF1026B5B208EB040BF2
:105430005A4629462046FFF76FFF68BB02AA294655
:105440002046FFF7A3FF50BB2A4602A9584601F0A9
:1054500041F938BB2C44A4B2E1E74FEA19238DF897
:1054600004308DF80590124B5868196801AB022280
:10547000897E0078FEF744F9B8B90D4B012283F814
:105480002520A3F826A007B0BDE8F08F4FF0FF302D
:10549000F9E74FF0FF30F6E74FF0FF30F3E74FF05A
:1054A000FF30F0E76FF00100EDE74FF0FF30EAE783
:1054B00018000020234B93F8243083423CD030B5B1
:1054C00083B018B31F4B93F82530002B36D0002043
:1054D000FEF7A6FE0020FFF735FC1A4DE88CFFF71B
:1054E0008DFD00248DF8074068680DF10703012247
:1054F00023210078FEF704F9012085F82400FEF747
:105500008FFEFFF7EDF8204603B030BD0020FEF718
:1055100087FE0C4D2B7C8DF8073068680DF1070372
:10552000012223210078FEF7EBF8002485F82440BF
:10553000FFF7D6F82046E7E7002070474FF0FF302E
:10554000E2E700BF180000202DE9F04188B00546D1
:105550000E463D4B93F82470FFB901A8FFF7BCF944
:105560000DF10700FFF722FA6846FFF78BFA0DF1FD
:105570000200FFF7F3FA344B93F80A800DF10600AE
:10558000FFF746FB0024012C0CDC002231462846A4
:10559000FEF792FE30B10134F5E70020FFF78AFFF5
:1055A0000127DAE7022C1FD00024012C07DC01229E
:1055B00002A905A8FEF780FE08B10134F5E7022C28
:1055C00014D002A93046FEF757FDC6B205A92846F9
:1055D000FEF7A6FD10F0FF0F04D000243EB944F002
:1055E000020404E00124F9E7002400E00024164B43
:1055F000FF221A725A72DA724FF6FF71D9819A72CB
:105600001A7401221A73BDF80400FFF783F99DF89C
:105610000700FFF7EDF9BDF80000FFF755FABDF8F8
:105620000200FFF7EBFC4046FFF738FD9DF806004F
:10563000FFF7F6FA1FB9204608B0BDE8F081012057
:10564000FFF738FFF7E700BF1800002010B588B05B
:1056500002A905A8FFF778FF072802D0012008B0AB
:1056600010BD01A8FFF788FA019C0598FBF718FB0D
:105670002146FBF769FBFBF72DFD05900698FBF72C
:105680000FFB2146FBF760FBFBF724FD0690079814
:10569000FBF706FB2146FBF757FBFBF71BFD0790CB
:1056A00005A800F049FA0DF10200FFF78BFABDF8EA
:1056B0000220029B02FB03F30293039B02FB03F312
:1056C0000393049B02FB03F3049302A800F0BCFACB
:1056D0000020C4E790F90030002B01DD0020704766
:1056E0000FDB90F90130002B01DD012070470ADB50
:1056F00090F90230002B08DC01DB07207047062000
:10570000704704207047052070470220704738B565
:105710000546FFF7DFFF0446E81CFFF7DBFF44EA1E
:10572000C00424B2A81DFFF7D5FF44EA801080B260
:1057300038BD704708B5FEF74EF8FFF721FDB8BB3E
:105740007820FFF7ABFC10F0FF0F01D0012030E014
:105750007820FFF765FA10F0FF0F2BD16420FFF7D8
:105760004DFC10F0FF0F27D100F034F910F0FF0FBF
:1057700024D11648FFF7CBFF00F038F910F0FF0FE7
:105780001ED140F2731000F0F7FC10F0FF0F19D19A
:10579000642000F0D3FA10F0FF0F15D1FFF756FF89
:1057A0000120FFF787FE10F0FF0002D0092000E083
:1057B0000A2008BD0220FCE70320FAE70420F8E7EE
:1057C0000520F6E70620F4E70720F2E70C000020AA
:1057D0002DE9F04F8FB00646029193460DF121035B
:1057E00001930DF1220300930DAB04AA09A90BA8A4
:1057F00000F0CEFD002840F0C780BDF8223013F441
:10580000807F00F0C3800498FBF74AFA4FF04251C2
:10581000FBF79AFA82460598FBF742FA4FF042519D
:10582000FBF792FA05460698FBF73AFA4FF0425119
:10583000FBF78AFA04460798FBF732FA4FF0425119
:10584000FBF782FA07464FF040412846FBF77CFA07
:1058500081463946FBF778FA804651465046FBF7B9
:105860006BF903902146FBF76FFA01464046FBF7C0
:1058700063F9FAF7D1FD01F0E1FF45A3D3E9002375
:10588000FAF722FEFBF702F9306021462046FBF7CB
:1058900053F980463946FBF757FA064629460398DE
:1058A000FBF752FA01463046FBF746F90646294611
:1058B0004846FBF749FA814621464046FBF744FA41
:1058C00001464846FBF736F94FF07E51FBF734F9B5
:1058D000FAF7A2FD804689463046FAF79DFD42461A
:1058E0004B4601F0D3FF2AA3D3E90023FAF7ECFDDE
:1058F000FBF7CCF8029B186021462846FBF724FAF8
:10590000064639465046FBF71FFA01463046FBF77C
:1059100013F90146FBF710F9064651465046FBF7CE
:1059200013FA804629462846FBF70EFA0146404600
:10593000FBF702F9054621462046FBF705FA01462A
:105940002846FBF7F7F8044639463846FBF7FCF9DA
:1059500001462046FBF7EEF8FAF75EFD04460D46D9
:105960003046FAF759FD22462B4601F08FFF08A377
:10597000D3E90023FAF7A8FDFBF788F8CBF800007D
:1059800000200FB0BDE8F08F0120FAE70220F8E711
:105990006666666666A64C4038B50446C5784378A8
:1059A00013F0010F09D005F03F00C00805F0070112
:1059B0000131074B1B6803B19847637813F0080F58
:1059C00004D0034B5B680BB1A8099847002038BD91
:1059D000740B002008B5C8234FF48062024940F6DA
:1059E000F630FFF70DFD08BD548A000810B586B0EB
:1059F00004464C4B1B68ADF80C301B0C8DF80E3078
:105A0000494B1B68ADF808301B0C8DF80A30474B2A
:105A10001B68ADF804301B0C8DF80630444B1B6836
:105A2000ADF800301B0C8DF8023000F0030101F1DD
:105A300018030DEB030111F80C3C8DF81430C0F382
:105A4000C10202F118030DEB030212F80C3C8DF8B1
:105A50001530C0F3811318336B4413F80C0C8DF818
:105A6000160011F8101C8DF8101012F8102C8DF87B
:105A7000112013F8103C8DF8123005AA032140F2D2
:105A80002640FFF749FC002840D104AA032140F238
:105A90002A40FFF741FC00283BD1019BADF81430B0
:105AA0001B0C8DF81630009BADF810301B0C8DF8D8
:105AB000123014F0040F05D037238DF8143027234B
:105AC0008DF8103014F0200F05D057238DF81530C5
:105AD00047238DF8113014F4807F05D077238DF89B
