:020000040800F2
:1000000000500020A12D0008B1050008B30500082C
:10001000B5050008B7050008B90500080000000094
:10002000000000000000000000000000611E000849
:10003000BB05000800000000011F0008451F000864
:10004000E92D0008E92D0008E92D0008E92D000838
:10005000E92D0008E92D0008E92D0008E92D000828
:10006000E92D0008E92D0008E92D0008E92D000818
:10007000E92D0008E92D0008E92D0008E92D000808
:10008000E92D0008E92D0008E92D0008E92D0008F8
:10009000E92D0008E92D0008E92D0008E92D0008E8
:1000A000E92D0008BD050008E92D0008E92D00082C
:1000B000E92D0008E92D0008E92D0008E92D0008C8
:1000C000E92D0008E92D0008E92D0008E92D0008B8
:1000D000E92D0008E92D0008E92D0008E92D0008A8
:1000E000E92D0008E92D0008E92D000800000000B6
:1000F0000000000000000000000000000000000000
:0C01000000000000000000005FF808F1A3
:1001100010B5054C237833B9044B13B10448AFF341
:1001200000800123237010BD54080020000000004F
:10013000744A000808B5034B1BB103490348AFF3E9
:10014000008008BD0000000058080020744A000824
:10015000844641EA000313F0030349D1403A23D314
:100160000B6803604B6843608B688360CB68C36037
:100170000B6903614B6943618B698361CB69C3611F
:100180000B6A03624B6A43628B6A8362CB6AC36207
:100190000B6B03634B6B43638B6B8363CB6BC363EF
:1001A00040304031403ADBD230320BD30B68036031
:1001B0004B6843608B688360CB68C360103010313C
:1001C000103AF3D20C3205D351F8043B40F8043B0B
:1001D000043AF9D2043208D0D2071CBF11F8013B0F
:1001E00000F8013B01D30B8803806046704700BFD5
:1001F000082A13D38B07B1D010F00303AED0C3F19C
:100200000403D21ADB071CBF11F8013B00F8013BC5
:10021000A4D331F8023B20F8023B9FE7043AD9D33C
:10022000013A11F8013B00F8013BF9D20B78037059
:100230004B7843708B7883706046704708B50D48E3
:1002400002F09EFE02F064FC0B4A0121084602F017
:10025000A7FC42220121022002F070FC042340F29C
:10026000D2420121032002F0B7FC642001F068FDB6
:10027000E5E700BFDC4A0008E44A000808B5034887
:1002800002F07EFE322001F05BFDF8E7EC4A000848
:10029000034B0360034B0B6080231360704700BF68
:1002A000780A00207808002010B58EB0144802F0BB
:1002B00013FD02F0B9FC134C0DF11C0CA646BEE870
:1002C0000F00ACE80F009EE807008CE80700002153
:1002D00007A801F000FD0C4B1860EE4604F11C0C61
:1002E000BCE80F00AEE80F009CE807008EE80700AE
:1002F0000021684601F0EFFC044B18600EB010BD01
:10030000600B00208C4A0008700800207408002050
:100310002DE9F04389B000240494059406940794D1
:100320003E4B9A6942F010029A619A6902F01002FB
:100330000092009A9A6942F020029A619A6902F04A
:1003400020020192019A9A6942F004029A619A6924
:1003500002F004020292029A9A6942F008029A613B
:100360009B6903F008030393039BDFF8B4902246D4
:100370004FF40051484600F0BFFBDFF8A88022464A
:100380001021404600F0B8FB274D01224FF4406198
:10039000284600F0B1FB22464FF40041284600F009
:1003A000ABFB4FF4005304930126059606940227F5
:1003B000079704A9484600F08DFA10230493059688
:1003C000069407970DEB0301404600F083FA4FF4C3
:1003D000806304931123059306964FF00308CDF82C
:1003E0001C8004A9284600F075FA4FF400630493BA
:1003F00005960694CDF81C8004A9284600F06AFAF8
:100400004FF40043049305960694079704A92846E1
:1004100000F060FA09B0BDE8F08300BF00100240B0
:100420000010014000080140000C014008B50268BE
:10043000034B9A4200D008BD00F0E2F9FBE700BF91
:10044000002C014072B6FEE700B591B028220021D1
:1004500006A802F0F5FC0023019302930393049392
:100460000593012206924FF4803307930A920222E9
:100470000D920E934FF4E0130F9306A800F058FB73
:1004800080B90F23019302210291002303934FF4BB
:1004900080620492059301A800F07CFD20B911B0A0
:1004A0005DF804FBFFF7CEFFFFF7CCFF08B500F0C7
:1004B00095F9FFF7C9FFFFF72BFF00F039F900F0BE
:1004C000E1F8074C0021204601F0D2F90421204632
:1004D00001F0CEF9FFF7E8FE01F0F8FBFEE700BF00
:1004E000180B002000B583B0114B9A6942F001024D
:1004F0009A619A6902F001020092009ADA6942F068
:100500008052DA61DB6903F080530193019B002282
:100510000F216FF0010000F097F9064A536823F0AD
:10052000E06343F00073536003B05DF804FB00BF69
:10053000001002400000014000B589B001460022D1
:10054000192000F081F9192000F0B6F9144B9A69CE
:1005500042F400629A619B6903F400630193019B7A
:1005600002A903A800F0F2FD00F0E0FD0D4BA3FB93
:1005700000239B0C013B0C480C4A026040F2E7321E
:10058000C260436000230361836000F0DFFF18B1A5
:10059000012009B05DF804FB034800F0A7FEF8E76E
:1005A0000010024083DE1B43CC0A0020002C0140D7
:1005B000FEE7FEE7FEE7FEE7FEE7704708B5024804
:1005C00000F0CDFE08BD00BFCC0A002008B50346F0
:1005D0000B4A126842B10A4A106803446A469342C1
:1005E00006D8074A136008BD054A06491160F2E7BC
:1005F00002F0FCFB0C2303604FF0FF30F3E700BF79
:10060000140B0020481900204FF0FF30704770474E
:100610000368B3F1804F00D0704782B003F5043314
:10062000DA6942F00102DA61DB6903F00103019348
:10063000019B02B07047000000B587B00023029311
:100640000393049305930368B3F1804F02D007B07E
:100650005DF804FB03F504339A6942F004029A61E1
:100660009B6903F004030193019B0123029302237E
:100670000393059302A9024800F02CF9E7E700BFB5
:100680000008014000B58FB000230A930B930C9330
:100690000D93089309930193029303930493059395
:1006A0000693079321484FF08042026040F2CF2228
:1006B000426083606322C2600361836100F046FF91
:1006C00020BB4FF480530A930AA9184801F042F85E
:1006D000F8B9164800F066FFF0B9002308930993B3
:1006E00008A9124801F032F9C8B960230193002229
:1006F00002920392059201A90C4800F0B1FF88B95B
:100700000A48FFF799FF0FB05DF804FBFFF79AFE68
:10071000D7E7FFF797FEDCE7FFF794FEDDE7FFF78B
:1007200091FEE2E7FFF78EFEEAE700BF180B00201C
:1007300008B50A480A4B03604FF4E13343600023D5
:100740008360C36003610C2242618361C36101F075
:10075000C3F900B908BDFFF775FEFBE7600B002089
:100760000038014010B586B0002302930393049330
:1007700005930268174B9A4201D006B010BD03F5ED
:1007800058439A6942F480429A619A6902F480421D
:100790000092009A9A6942F004029A619B6903F000
:1007A00004030193019B4FF400730293022303930C
:1007B00003230593084C02A9204600F08BF84FF460
:1007C0008063029300230393049302A9204600F060
:1007D00081F8D2E7003801400008014008B5074A17
:1007E000136843F010031360032000F01BF80F2080
:1007F000FFF7A2FEFFF776FE002008BD00200240B2
:10080000034A1168034B1B780B441360704700BF09
:10081000A80B002004000020014B1868704700BF9F
:10082000A80B0020074AD36823F4E0631B041B0CC9
:10083000000200F4E060034343F0BF6343F400337D
:10084000D360704700ED00E000B5194BDB68C3F3DF
:100850000223C3F1070CBCF1040F28BF4FF0040CB6
:1008600003F1040EBEF1060F18D9033B4FF0FF3E13
:100870000EFA0CFC21EA0C0199400EFA03F322EA6D
:100880000303194300280BDB0901C9B200F16040E2
:1008900000F5614080F800135DF804FB0023E5E7F4
:1008A00000F00F000901C9B2024B1954F4E700BF70
:1008B00000ED00E014ED00E0002807DB00F01F026F
:1008C000400901239340024A42F82030704700BF9C
:1008D00000E100E070B582B00024A446A6E0804D9F
:1008E000AA4210D007D97F4DAA420CD005F5803519
:1008F000AA4208D013E0A5F58015AA4203D005F559
:100900007025AA4207D18A68002A58D0012A51D0FE
:100910004361082403E0A5F58015AA42F3D0BEF197
:10092000FF0F4ED80646BEF1FF0F4CD84FEA8C029F
:1009300033680F25954023EA050304FA02F21343B6
:1009400033604B6813F0805F6ED0674B9A6942F05A
:1009500001029A619B6903F001030193019B4FEA35
:100960009C02951C614B53F825600CF003039D001D
:100970000F23AB4026EA03065D4B984229D003F5CE
:100980008063984200F08E8003F58063984200F007
:100990008B8003F58063984219D004231AE0CC6859
:1009A000BDE7CC680434BAE7CC680834B7E7CC6854
:1009B0000C34B4E703610824B1E70024AFE7042452
:1009C000ADE7061DAFE7ACF108029200B0E70323E4
:1009D00000E00023AB4033430232444D45F822305F
:1009E0004B6813F4801F61D0424A936843EA0E03B8
:1009F00093604B6813F4001F5ED03E4AD36843EA0D
:100A00000E03D3604B6813F4003F5BD0394A536840
:100A100043EA0E0353604B6813F4803F58D0354AC5
:100A2000136843EA0E0313600CF1010C0A6832FAF2
:100A30000CF353D0012303FA0CF302EA030E33EA5A
:100A40000202F1D14A68122A3FF649AF122A3FF654
:100A500066AF01A555F822F0070900089F090008B4
:100A6000A9090008BB0900081F0900081F090008A0
:100A70001F0900081F0900081F0900081F090008B6
:100A80001F0900081F0900081F0900081F090008A6
:100A90001F0900081F0900081F090008A309000812
:100AA000AF090008012395E7022393E7114A9368F1
:100AB00023EA0E0393609CE70E4AD36823EA0E03F1
:100AC000D3609FE70B4A536823EA0E035360A2E703
:100AD000084A136823EA0E031360A5E702B070BD4D
:100AE0000000221000003110001002400000014000
:100AF00000080140000401400AB101617047090487
:100B00000161704782B0084B1B68084AA2FB0323AF
:100B10005B0A00FB03F3019300BF019B5A1E019285
:100B2000002BF9D102B0704700000020D34D6210B5
:100B3000002800F0F18170B582B00446036813F01C
:100B4000010F2CD0994B5B6803F00C03042B1DD0D4
:100B5000964B5B6803F00C03082B12D06368B3F567
:100B6000803F41D0002B55D103F1804303F504337E
:100B70001A6822F480321A601A6822F480221A60FD
:100B800037E08A4B5B6813F4803FE7D0874B1B68E4
:100B900013F4003F03D06368002B00F0BF8123688B
:100BA00013F0020F75D0814B5B6813F00C0F5FD010
:100BB0007E4B5B6803F00C03082B54D02369002B99
:100BC00000F08A807A4B01221A60FFF725FE054665
:100BD000764B1B6813F0020F75D1FFF71DFE401B0B
:100BE0000228F5D903209EE1704A136843F480334C
:100BF0001360636843B3FFF70FFE05466B4B1B683A
:100C000013F4003FCBD1FFF707FE401B6428F5D952
:100C1000032088E1B3F5A02F09D0644B1A6822F4B1
:100C200080321A601A6822F480221A60E1E703F128
:100C30008043A3F53C331A6842F480221A601A6894
:100C400042F480321A60D4E7FFF7E6FD0546574BC1
:100C50001B6813F4003FA2D0FFF7DEFD401B6428A1
:100C6000F5D903205FE1514B5B6813F4803FA5D1B8
:100C70004E4B1B6813F0020F03D02369012B40F089
:100C80004F814A4A136823F0F803616943EAC103BC
:100C90001360236813F0080F33D0A369002B5CD0D6
:100CA000434B0122C3F88024FFF7B6FD05463F4BB6
:100CB0005B6A13F0020F21D1FFF7AEFD401B022843
:100CC000F5D903202FE1394A136823F0F80361694D
:100CD00043EAC1031360DCE7354B00221A60FFF7DB
:100CE0009BFD0546314B1B6813F0020FD1D0FFF777
:100CF00093FD401B0228F5D9032014E10120FFF7E2
:100D000001FF236813F0040F00F09680274BDB6986
:100D100013F0805F34D1254BDA6942F08052DA61FA
:100D2000DB6903F080530193019B0125214B1B6874
:100D300013F4807F26D0E368012B3DD0002B53D1E4
:100D400003F1804303F504331A6A22F001021A62A8
:100D50001A6A22F004021A6233E0154B0022C3F82B
:100D60008024FFF759FD0546104B5B6A13F0020F14
:100D7000C7D0FFF751FD401B0228F5D90320D2E070
:100D80000025D3E70B4A136843F480731360FFF721
:100D900043FD0646074B1B6813F4807FCBD1FFF75A
:100DA0003BFD801B6428F5D90320BCE00010024005
:100DB00000004242007000405F4A136A43F00103A2
:100DC0001362E36833B3FFF727FD06465A4B1B6AED
:100DD00013F0020F2FD1FFF71FFD801B41F2883364
:100DE0009842F3D903209EE0052B09D0524B1A6A92
:100DF00022F001021A621A6A22F004021A62E0E783
:100E00004D4B1A6A42F004021A621A6A42F0010259
:100E10001A62D6E7FFF700FD0646474B1B6A13F040
:100E2000020F08D0FFF7F8FC801B41F2883398428C
:100E3000F3D9032077E0E5B9E369002B72D03E4A8D
:100E4000526802F00C02082A56D0022B17D03B4BF6
:100E500000221A66FFF7E0FC0446374B1B6813F0CC
:100E6000007F47D0FFF7D8FC001B0228F5D90320EC
:100E700059E0314AD36923F08053D361DCE72F4B2B
:100E800000221A66FFF7C8FC05462B4B1B6813F0BF
:100E9000007F06D0FFF7C0FC401B0228F5D90320D5
:100EA00041E0236AB3F5803F1AD023494B6823F40D
:100EB0007413226A606A024313434B601F4B012282
:100EC0001A66FFF7A9FC04461B4B1B6813F0007F52
:100ED0000ED1FFF7A1FC001B0228F5D9032022E068
:100EE000154A536823F40033A1680B435360DCE7D1
:100EF000002018E0002016E0012B16D00E4B5B6896
:100F000003F48031226A914211D103F47013626AB2
:100F100093420ED1002006E001207047012002E03C
:100F2000012000E0002002B070BD0120FBE701209D
:100F3000F9E70120F7E700BF00100240000042423D
:100F40000F4B5B6803F00C02082A01D00D48704774
:100F5000C3F383420C49885C13F4803F0BD0084BE9
:100F60005B68C3F34043094AD35C064A02FB00F0C6
:100F7000B0FBF3F07047064B03FB00F0704700BF77
:100F80000010024000127A000C4B00081C4B0008B5
:100F900000093D00002800F0A08070B50D46044611
:100FA000524B1B6803F007038B420BD24F4A136866
:100FB00023F007030B431360136803F007038B420E
:100FC00040F08D80236813F0020F17D013F0040F48
:100FD00004D0474A536843F4E0635360236813F036
:100FE000080F04D0424A536843F460535360404AA8
:100FF000536823F0F003A1680B435360236813F098
:10100000010F31D06368012B20D0022B25D0384A44
:10101000126812F0020F64D035494A6822F00302C8
:1010200013434B60FFF7F8FB0646314B5B6803F058
:101030000C036268B3EB820F16D0FFF7EDFB801B49
:1010400041F288339842F0D9032045E0284A1268DB
:1010500012F4003FE0D101203EE0254A126812F070
:10106000007FD9D1012037E0204B1B6803F0070334
:10107000AB420AD91D4A136823F007032B431360C0
:10108000136803F00703AB422DD1236813F0040F5C
:1010900006D0174A536823F4E063E1680B435360BA
:1010A000236813F0080F07D0114A536823F46053E4
:1010B000216943EAC1035360FFF742FF0C4B5B68B1
:1010C000C3F303130B4AD35CD8400B4B18600B4B94
:1010D0001868FFF731FA002070BD01207047012029
:1010E000FAE70120F8E70120F6E700BF0020024000
:1010F00000100240F44A0008000000200800002010
:10110000014B1868704700BF0000002008B5FFF7CA
:10111000F7FF044B5B68C3F30223034AD35CD84058
:1011200008BD00BF00100240044B000808B5FFF7DF
:10113000E7FF044B5B68C3F3C223034AD35CD84088
:1011400008BD00BF00100240044B00080F230360DD
:101150000B4B5A6802F0030242605A6802F0F00238
:1011600082605A6802F4E062C2605B68DB0803F4E4
:10117000E0630361034B1B6803F007030B607047D8
:10118000001002400020024070B4036A026A22F09C
:10119000010202624668826922F073020C6844EA26
:1011A000020523F002028B6813430D4CA04209D0C4
:1011B0000B4CA0420DD0466085614A6842630362D1
:1011C00070BC704723F00803CA68134323F004037C
:1011D000EEE726F440764A6932438E691643EAE721
:1011E000002C014030B4036A026A22F48072026269
:1011F0004568C26922F073020C68224323F400732D
:101200008C6843EA04230F4CA04209D00D4CA04245
:101210000ED04560C2614A68C263036230BC704749
:1012200023F40063CC6843EA042323F48063EDE7EE
:1012300025F440554C6945EA04158C6945EA0415C6
:10124000E7E700BF002C014030B4036A026A22F4D1
:10125000805202624468C26922F4E6420D6842EAA2
:10126000052223F400538D6843EA0533074DA84255
:1012700006D04460C2614A680264036230BC7047B1
:1012800024F480444D6944EA8514F2E7002C0140BF
:1012900010B4036A046A24F001040462846924F02F
:1012A000F00C4CEA021223F00A030B438261036242
:1012B00010BC704710B4036A046A24F0100404627E
:1012C000846924F4704C4CEA023223F0A00343EA10
:1012D00001138261036210BC7047836823F07003BE
:1012E0000B4343F0070383607047000090F83D30E4
:1012F000DBB2012B27D1022380F83D300268D3688E
:1013000043F00103D3600368114A934210D0B3F154
:10131000804F0DD0A2F59432934209D002F580623D
:10132000934205D01A6842F001021A60002070470B
:101330009A6802F00702062A07D01A6842F00102F2
:101340001A6000207047012070470020704700BFDE
:10135000002C01407047704770477047704710B5C8
:10136000044603681A6912F0020F11D0DA6812F00D
:10137000020F0DD06FF002021A6101230377036898
:101380009B6913F0030F70D0FFF7E6FF002323776C
:1013900023681A6912F0040F12D0DA6812F0040FF1
:1013A0000ED06FF004021A610223237723689B6931
:1013B00013F4407F5FD02046FFF7CEFF0023237752
:1013C00023681A6912F0080F12D0DA6812F0080FB9
:1013D0000ED06FF008021A61042323772368DB69BB
:1013E00013F0030F4ED02046FFF7B6FF00232377FC
:1013F00023681A6912F0100F12D0DA6812F0100F79
:101400000ED06FF010021A61082323772368DB697E
:1014100013F4407F3DD02046FFF79EFF0023237743
:1014200023681A6912F0010F03D0DA6812F0010F75
:1014300036D123681A6912F0800F03D0DA6812F0EF
:10144000800F34D123681A6912F0400F03D0DA6894
:1014500012F0400F32D123681A6912F0200F03D026
:10146000DA6812F0200F30D110BDFFF774FF20466C
:10147000FFF773FF8AE72046FFF76DFF2046FFF76F
:101480006CFF9BE72046FFF766FF2046FFF765FFEE
:10149000ACE72046FFF75FFF2046FFF75EFFBDE7A2
:1014A0006FF001021A612046FEF7C0FFC1E76FF03E
:1014B00080021A61204600F080FAC3E76FF0400214
:1014C0001A612046FFF74AFFC5E76FF020021A6154
:1014D000204600F071FAC7E703681B4A90420AD021
:1014E000B0F1804F07D0A2F59432904203D002F5BC
:1014F0008062904203D123F070034A681343124A7A
:1015000090420AD0B0F1804F07D0A2F594329042B9
:1015100003D002F58062904203D123F44073CA687D
:10152000134323F080034A69134303608B68C3624B
:101530000B688362044B984202D0012343617047D9
:101540000B690363F9E700BF002C014040B310B5FD
:10155000044690F83D30F3B1022384F83D30214633
:1015600051F8040BFFF7B8FF012384F8463084F8E4
:101570003E3084F83F3084F8403084F8413084F8BD
:10158000423084F8433084F8443084F8453084F89D
:101590003D30002010BD80F83C30FFF739F8DBE724
:1015A0000120704740B310B5044690F83D30F3B1C8
:1015B000022384F83D30214651F8040BFFF78CFFDD
:1015C000012384F8463084F83E3084F83F3084F8B4
:1015D000403084F8413084F8423084F8433084F855
:1015E000443084F8453084F83D30002010BD80F848
:1015F0003C30FFF7AFFEDBE70120704730B4036AF1
:10160000026A22F0100202624468826922F4E64211
:101610000D6842EA052223F020038D6843EA051392
:101620000E4DA84209D00D4DA8420ED044608261F3
:101630004A688263036230BC704723F08003CD6840
:1016400043EA051323F04003EDE724F440644D69B9
:1016500044EA85048D6944EA8504E7E7002C0140EB
:1016600038B590F83C30012B66D004460D46012376
:1016700080F83C300C2A5AD8DFE802F00759595953
:101680001B5959593059595944000068FFF77CFDDE
:101690002268936943F0080393612268936923F0F9
:1016A000040393612268936929690B4393610020C5
:1016B0003EE00068FFF7A2FF2268936943F40063ED
:1016C00093612268936923F480639361226893692C
:1016D000296943EA01239361002029E00068FFF7AC
:1016E00081FD2268D36943F00803D3612268D3697E
:1016F00023F00403D3612268D36929690B43D361C2
:10170000002015E00068FFF79FFD2268D36943F4CD
:101710000063D3612268D36923F48063D3612268B4
:10172000D369296943EA0123D361002000E0012045
:10173000002384F83C3038BD0220FCE710B48468F4
:1017400024F47F4C42EA03220A4342EA0C028260FC
:1017500010BC704790F83C30012B78D010B504468F
:10176000012380F83C30022380F83D300268936802
:1017700023F47F4323F0770393600B68602B4CD0F6
:1017800029D8402B54D00CD9502B22D1CA68496893
:101790000068FFF77DFD50212068FFF79EFD0020C7
:1017A00005E0202B0DD009D9302B0AD001200123D0
:1017B00084F83D30002384F83C3010BD0BB1102B71
:1017C00005D119462068FFF788FD0020EFE70120CA
:1017D000EDE70120EBE7B3F5805F34D0B3F5005FB0
:1017E0000CD1CB684A6889680068FFF7A7FF2268B8
:1017F000936843F4804393600020D8E7702B24D192
:10180000CB684A6889680068FFF798FF2268936888
:1018100043F0770393600020C9E7CA68496800680D
:10182000FFF748FD60212068FFF757FD0020BEE765
:10183000CA6849680068FFF72BFD40212068FFF760
:101840004CFD0020B3E70020B1E70120AFE7022004
:10185000704701F01F01012303FA01FC036A23EA28
:101860000C030362036A02FA01F10B43036270473F
:1018700010B50446084651BB94F83E30DBB2013B3C
:1018800018BF0123002B5BD1002839D1022384F833
:101890003E30012201462068FFF7DBFF23682A4A19
:1018A00093423DD02368284A93423ED0B3F1804F03
:1018B0003BD0A2F59432934237D002F58062934236
:1018C00033D01A6842F001021A60002039E004297E
:1018D00008D008290DD094F84130DBB2013B18BF85
:1018E0000123CFE794F83F30DBB2013B18BF01235F
:1018F000C8E794F84030DBB2013B18BF0123C1E7D1
:10190000042805D0082807D0022384F84130C0E716
:10191000022384F83F30BCE7022384F84030B8E764
:101920005A6C42F400425A64BCE79A6802F007021B
:10193000062A07D01A6842F001021A60002000E06F
:10194000012010BD0020FCE7002C014090F83C3045
:10195000012B2CD010B4012380F83C30022380F8F6
:101960003D3003685A689C6822F0700C0A6842EAAD
:101970000C025A6003680F4A93420AD0B3F1804FB9
:1019800007D0A2F59432934203D002F580629342CD
:1019900004D124F080044A6814439C60012380F839
:1019A0003D30002380F83C30184610BC70470220C0
:1019B000704700BF002C01407047704710B50446C7
:1019C0000268136923F44053C1680B4313618368B1
:1019D0000269134342691A430168CB6823F4B05388
:1019E00023F00C031343CB600268536923F4407364
:1019F00081690B4353610268134B9A4220D0FFF771
:101A000085FB024602EB820202EB820263689B00C6
:101A1000B2FBF3F20D48A0FB02314909642303FB3A
:101A200011231B013233A0FB03235B0903F0F002F7
:101A300002EB011203F00F03216813448B6010BD09
:101A4000FFF774FB0246DDE7003801401F85EB51CC
:101A50002DE9F84305460F4616469946DDF82080E5
:101A60002C68246837EA04030CBF4FF0010C4FF0D8
:101A7000000CB4452DD1B8F1FF3FF1D0B8F1000F03
:101A800005D0FEF7C9FEA0EB09004045E8D92A6859
:101A900002F10C0353E8003F23F4D0730C3242E808
:101AA00000310029F3D12A6802F1140353E8003F02
:101AB00023F00103143242E800310029F3D120233E
:101AC00085F8413085F84230002385F84030032006
:101AD00000E00020BDE8F88360B310B5044690F83C
:101AE000413013B3242384F841302268D36823F4AF
:101AF0000053D3602046FFF761FF2268136923F487
:101B0000904313612268536923F02A0353612268CA
:101B1000D36843F40053D36000206064202384F82A
:101B2000413084F84230606310BD80F84030FEF7E9
:101B300019FED7E7012070472DE9F04182B01E461B
:101B400090F84130DBB2202B4BD104460D46904635
:101B500000294AD00AB9012044E00023436421232C
:101B600080F84130FEF758FE0746A4F82480A4F818
:101B70002680A368B3F5805F02D04FF000080FE025
:101B80002369FBB14FF000080AE038F8023B2268F5
:101B9000C3F308035360E28C92B2013A92B2E2843A
:101BA000E38C9BB28BB100963B46002280212046FD
:101BB000FFF74EFFD8B9002DE7D015F8012B2368A9
:101BC0005A60E8E7A8460025EAE700963B4600226F
:101BD00040212046FFF73CFF58B9202384F84130CC
:101BE00000E0022002B0BDE8F0810120FAE7032006
:101BF000F8E70320F6E72DE9F04182B01E4690F8A1
:101C00004230DBB2202B53D104460D4690460029CA
:101C100052D00AB901204CE000234364222280F80C
:101C200042200363FEF7F8FD0746A4F82C80A4F8D1
:101C30002E80A368B3F5805F02D04FF0000817E054
:101C4000236913B14FF0000812E0A84600250FE009
:101C500023685B68C3F3080328F8023B03E02368AA
:101C60005B682B700135E28D92B2013A92B2E28547
:101C7000E38D9BB2BBB100963B460022202120465B
:101C8000FFF7E6FED0B9002DE2D0A368B3F5805F80
:101C9000E5D013B92369002BE1D023685B6803F01A
:101CA0007F032B70DEE7202384F84230002000E021
:101CB000022002B0BDE8F0810120FAE70320F8E736
:101CC000842801D0033070470020704708B500F029
:101CD000CDFC002008BD2DE9F04387B004460F4637
:101CE0004569BDB18669AEB1D0F80480D0F80090E6
:101CF000B0F90800FFF7E4FF0296019500903B461B
:101D000022694946404600F043FC0590059807B01B
:101D1000BDE8F08365682668D4F81080B4F908003F
:101D2000FFF7CEFF05AB019300903B461FFA88F208
:101D30003146284600F066FC0128E7D00020E6E79F
:101D400008B500B9012000F0DBFD002008BD00F15E
:101D5000080343604FF0FF328260C36003610023D9
:101D60000360704700230361704743684B609A68C3
:101D70008A605160996008610368013303607047AD
:101D800030B40D68B5F1FF3F11D000F108031C46D7
:101D90005B681A68AA42FAD963684B6099608C60E4
:101DA0006160086103680133036030BC70470469F7
:101DB000F2E70369416882688A60416851605A6845
:101DC000824206D0002202611A68013A1A6018683D
:101DD000704782685A60F5E782B0002301930D4B8B
:101DE0001B68B3F1FF3F08D04FF0500383F3118815
:101DF000BFF36F8FBFF34F8FFEE74FF0500383F3B6
:101E00001188BFF36F8FBFF34F8F019B002BFCD066
:101E100002B070470C00002006480068006880F39C
:101E2000088862B661B6BFF34F8FBFF36F8F00DFD4
:101E300000BF000008ED00E04FF0807340F8043C64
:101E400021F0010140F8081C034B40F80C3C40F81D
:101E5000202C4038704700BFD91D0008000000004A
:101E6000074B19680868B0E8F00F80F30988BFF3E2
:101E70006F8F4FF0000080F311884EF00D0E704709
:101E8000CC1700204FF0500383F31188BFF36F8FFE
:101E9000BFF34F8F0B4A136801331360012B00D03F
:101EA00070474FF0E023D3F8043D13F0FF0FF7D055
:101EB0004FF0500383F31188BFF36F8FBFF34F8F41
:101EC000FEE700BF0C000020094B1B6843B94FF030
:101ED000500383F31188BFF36F8FBFF34F8FFEE77B
:101EE000013B034A13600BB983F31188704700BFAD
:101EF0000C000020000000000000000000000000B6
:101F0000EFF30980BFF36F8F0D4B1A6820E9F00FD4
:101F100010602DE908404FF0500080F3118800F068
:101F200015FD4FF0000080F31188BDE808401968E6
:101F30000868B0E8F00F80F30988BFF36F8F70472F
:101F4000CC17002008B54FF0500383F31188BFF37E
:101F50006F8FBFF34F8F00F0CBFB28B14FF0E02322
:101F60004FF08052C3F8042D002383F3118808BD7D
:101F70004FF0E022002313619361054B1B68054974
:101F8000A1FB03139B09013B5361072313617047B6
:101F900000000020D34D621010B582B02A4B1A7891
:101FA000D2B20192FF221A701B78DBB28DF8033097
:101FB0009DF8033003F05003244A1370244B07228A
:101FC0001A6009E0224A1368013B13609DF8033050
:101FD0005B00DBB28DF803309DF8033013F0800F07
:101FE000F0D11B4B1B68032B08D04FF0500383F339
:101FF0001188BFF36F8FBFF34F8FFEE71B02144AA8
:10200000136003F4E0631360019BDBB20E4A1370AC
:102010004FF0E023D3F8202D42F47002C3F8202DB6
:10202000D3F8202D42F07042C3F8202DFFF7A0FF17
:102030000024084B1C60FFF7EFFE00F087FCFFF761
:10204000CBFE204602B010BD00E400E0AC0B002047
:10205000B00B00200C000020124A12F0070F1ED017
:10206000D11D21F00701C1F5406313440A460E4813
:102070000260002141601344083B23F007030B4832
:10208000036059601960991A51601360084B196018
:10209000084B1960084B4FF000421A6070474FF42C
:1020A0004063E4E7B80B0020C4170020B40B002005
:1020B000C0170020BC170020B8170020154B1A4687
:1020C0001B688342FBD3516802EB010C844509D0A5
:1020D000416800EB010C634509D00360904218D0C1
:1020E000106070474068014451601046F0E710B43A
:1020F000094C2468A3420AD05B6819444160136804
:102100001B680360904200D0106010BC70470460F0
:10211000F8E77047C4170020B40B002070B50546DF
:1021200000F0DEFA344B1B68A3B1344B1B681D4230
:102130004AD135B1083515F0070F02D025F0070553
:102140000835002D42D02E4B1B68AB424DD32D4A93
:10215000146804E0FFF780FFE7E722461C46636847
:10216000AB4202D22368002BF7D1234B1B68A3425A
:102170003DD0166808362368136063685B1B102B1C
:1021800010D9601910F0070F08D04FF0500383F3F7
:102190001188BFF36F8FBFF34F8FFEE74360656019
:1021A000FFF78CFF626816490B689B1A0B60164993
:1021B00009688B4201D214490B60104B1B68134312
:1021C00063600023236002E0002600E0002600F0A8
:1021D0001BFB16F0070F0CD04FF0500383F3118850
:1021E000BFF36F8FBFF34F8FFEE70026EFE70026A8
:1021F000EDE7304670BD00BFB40B0020B8170020DB
:10220000BC170020C4170020C017002080B338B5C9
:102210000446A0F1080550F8043C164A126813421F
:1022200008D14FF0500383F31188BFF36F8FBFF3D2
:102230004F8FFEE750F8081C41B14FF0500383F375
:102240001188BFF36F8FBFF34F8FFEE723EA0203BE
:1022500040F8043C00F044FA54F8041C064A1368A1
:102260000B4413602846FFF729FF00F0CDFA38BD74
:10227000704700BFB8170020BC170020084B1B6830
:102280001B6823B9074B4FF0FF321A607047044BAD
:102290001B68DB68DB685A68024B1A60704700BF36
:1022A000D0170020A81800202DE9F04707469846CF
:1022B000089DDDF824900A9C266B02F18042013AC9
:1022C00006EB820626F007064FF0000CBCF10F0F5C
:1022D0000BD811F80C2004EB0C0383F8342011F810
:1022E0000C3013B10CF1010CF0E7002384F84330FB
:1022F000062D00D90625E56265644FF0000AC4F892
:1023000048A0201DFFF72EFD04F11800FFF72AFD5D
:102310002461C5F10705A5616462C4F84CA084F886
:1023200050A0424639463046FFF786FD2060B9F19D
:10233000000F01D0C9F80040BDE8F08738B500248F
:1023400007E004EB840293000E481844FFF7FFFCFB
:102350000134062CF5D90C4D2846FFF7F8FC0B4C40
:102360002046FFF7F4FC0A48FFF7F1FC0948FFF7A5
:10237000EEFC0948FFF7EBFC084B1D60084B1C60A6
:1023800038BD00BFD81700207C180020901800200E
:10239000B0180020DC180020C8180020D01700203A
:1023A000D417002010B50446FFF76CFD214A1368CE
:1023B00001331360204B1B685BB1204B1B686BB96A
:1023C0001D4B1B68DA6AE36A9A4207D81A4B1C60F5
:1023D00004E0194B1C601368012B28D0184A1368BD
:1023E00001331360E06A01238340164A11680B43EE
:1023F000136000EB8000211D134B03EB8000FFF7FF
:10240000B4FCFFF761FD0D4B1B687BB10A4B1B68E9
:10241000DA6AE36A9A4209D24FF0E0234FF0805221
:10242000C3F8042DBFF34F8FBFF36F8F10BDFFF7BD
:1024300085FFD3E764180020CC170020C4180020C3
:102440007418002078180020D817002010B5044612
:1024500090F8513063B1012B11D0022B0ED04FF008
:10246000500383F31188BFF36F8FBFF34F8FFEE7E5
:10247000006BFFF7CBFE2046FFF7C8FE10BDFFF74D
:10248000C5FEFBE70F4B1B68D3B110B5FFF7FAFC95
:102490000D4BDB68DC68201DFFF78BFC0B4A1368D3
:1024A000013B1360074A1368013B1360FFF70CFD03
:1024B0002046FFF7CBFF034B1B68002BE6D110BD76
:1024C000704700BF68180020DC1800206418002046
:1024D00008B5FFF7D7FF074B1B68012BF9D94FF061
:1024E000E0234FF08052C3F8042DBFF34F8FBFF3AA
:1024F0006F8FEEE7D817002070B504460D461D4BD0
:102500001E681D4B18680430FFF753FC50B91A4B76
:102510001B68DA6A012303FA02F218490B6823EAFE
:1025200002030B60B4F1FF3F0DD03444124B1B6823
:102530005C60A64210D9124B18680F4B1968043121
:10254000FFF71EFC70BD002DEFD00B4B1968043156
:102550000C48FFF70AFCF5E70B4B1868064B1968A7
:102560000431FFF70DFC094B1B68A342EAD9074B66
:102570001C60E7E7F0180020CC1700207818002036
:10258000D4170020C8180020D0170020A818002059
:1025900030B587B00B9C7CB10C9DB5B1542504952A
:1025A000049D542D1AD04FF0500383F31188BFF3CC
:1025B0006F8FBFF34F8FFEE74FF0500383F3118807
:1025C000BFF36F8FBFF34F8FFEE74FF0500383F3DE
:1025D0001188BFF36F8FBFF34F8FFEE70C9D2C6305
:1025E000022485F8514000240394029505AC01941F
:1025F0000A9C0094FFF758FE0C98FFF7D3FE05984D
:1026000007B030BD2DE9F04385B007468846144633
:102610001E469000FFF782FD00B381465420FFF76D
:102620007DFD0546B0B1C0F83090E5B1002385F8D6
:102630005130039302950D9B01930C9B00933346FD
:10264000224641463846FFF72FFE2846FFF7AAFEEE
:10265000012005E04846FFF7D9FDE6E74FF0FF30DF
:1026600005B0BDE8F0834FF0FF30F9E710B588B052
:1026700000240594069407AA06A905A8FDF708FEFC
:10268000059B0293069B019300942346079A0E49EB
:102690000E48FFF77DFF0E4B186090B14FF05003CE
:1026A00083F31188BFF36F8FBFF34F8F094B4FF048
:1026B000FF321A60084B01221A60084B1C60FFF7BA
:1026C0006BFC08B010BD00BF204B0008D1240008EF
:1026D000A4180020A8180020C4180020F01800201A
:1026E000024A136801331360704700BF701800205E
:1026F000F8B53A4B1B68002B64D1394B1D68013586
:102700001D60C5B9374B1B681B6843B14FF05003C0
:1027100083F31188BFF36F8FBFF34F8FFEE7314A0A
:102720001168314B186810601960304A1368013322
:102730001360FFF7A3FD2E4B1B68AB4238D900276F
:102740002C4B1B68DB6A03EB83039A002A4B9B58D4
:10275000012B3CD901273AE00127224B1B681B685B
:1027600043B3204B1B68DB68DC6863689D4226D35B
:10277000261D3046FFF71DFBA36A1BB104F11800AC
:10278000FFF717FBE36A01229A401C4908680243DD
:102790000A6003EB83039A00314617481044FFF7A1
:1027A000E4FAE26A134B1B68DB6A9A42D4D2D4E79C
:1027B0000027D2E70E4B4FF0FF321A60C0E70C4AF9
:1027C0001360BDE70E4A13680133136000270D4BF9
:1027D0001B6803B101273846F8BD00BF7018002000
:1027E000F0180020D0170020D4170020AC180020CB
:1027F000A8180020CC170020D81700207818002037
:102800006C180020F418002038B5354B1B6843B90C
:102810004FF0500383F31188BFF36F8FBFF34F8FD7
:10282000FEE7FFF72FFB2E4B1A68013A1A601B6870
:10283000002B4FD12B4B1B680BB900244BE000241D
:10284000294B1B681BB3284BDB68DC6804F11800BC
:10285000FFF7AFFA251D2846FFF7ABFAE06A012320
:102860008340224A11680B43136000EB8000294625
:102870001F4B03EB8000FFF778FAE26A1D4B1B68E1
:10288000DB6A9A42DCD31C4B01221A60D8E70CB1F8
:10289000FFF7F4FC194B1C6884B9174B1C68D4B1C2
:1028A0004FF0E0234FF08052C3F8042DBFF34F8F59
:1028B000BFF36F8F01240EE0013C07D0FFF718FF34
:1028C0000028F9D00C4B01221A60F5E70B4B0022CF
:1028D0001A60E2E70024FFF7F7FA204638BD00BF90
:1028E0007018002064180020B0180020781800200C
:1028F000D8170020CC170020F41800206C180020F6
:1029000010B5A8B10446104B1B6843B14FF05003FB
:1029100083F31188BFF36F8FBFF34F8FFEE7FFF78D
:10292000DFFE00212046FFF7E7FDFFF76DFF48B906
:102930004FF0E0234FF08052C3F8042DBFF34F8FC8
:10294000BFF36F8F10BD00BF70180020204B1B68B5
:102950001BB1204B01221A6070471E4B00221A60E7
:102960001D4B1B68B3FA83F3DBB2C3F11F0303EB08
:1029700083018A0019498A5842B94FF0500383F302
:102980001188BFF36F8FBFF34F8FFEE7134903EB3F
:10299000830082000A4450684068506003EB830C57
:1029A0004FEA8C0208321144884209D003EB8303BA
:1029B0009A000A4B13445B68DA68094B1A60704747
:1029C000406862469100054A0A445060EEE700BF45
:1029D00070180020F418002078180020D817002064
:1029E000CC17002020B94FF08062034B1A6170476A
:1029F0004FF48062F9E700BF000C014008B50120E8
:102A0000FFF7F0FF01224FF400610248FEF774F86F
:102A100008BD00BF000C014010B50A4C01224FF464
:102A200000612046FEF768F80120FFF7DBFF002277
:102A30004FF400612046FEF75FF80020FFF7D2FF59
:102A400010BD00BF000C014010B5084C00224FF42F
:102A500000612046FEF750F80120FFF7C3FF012276
:102A60004FF400612046FEF747F810BD000C01400E
:102A700038B5054600240FE0802222412A404FF459
:102A800000610A48FEF738F80120FFF7ABFF00208D
:102A9000FFF7A8FF0134E4B2072CEDD90120FFF7BE
:102AA000A1FF0020FFF79EFF38BD00BF000C0140D2
:102AB00010B50446FFF7B0FF7820FFF7D9FF0020DC
:102AC000FFF7D6FF2046FFF7D3FFFFF7BDFF10BD8E
:102AD00010B50446FFF7A0FF7820FFF7C9FF40209C
:102AE000FFF7C6FF2046FFF7C3FFFFF7ADFF10BD9E
:102AF00010B50C4640F0B000FFF7DAFF200940F0B7
:102B00001000FFF7D5FF04F00F00FFF7D1FF10BD55
:102B100038B5002509E00020FFF7DAFF0134E4B200
:102B200014F0800FF7D00135EDB2072D05D8002144
:102B30002846FFF7DDFF0024F2E738BDF8B515465B
:102B4000461E7600F6B24F1EFF00FFB239463046F1
:102B5000FFF7CEFF002409E0A5F120030F4A02EBA6
:102B60000313185DFFF7B4FF0134E4B2072CF3D967
:102B7000701C3946C0B2FFF7BBFF00240BE0A5F183
:102B8000200304F10802054901EB0313985CFFF7E9
:102B90009FFF0134E4B2072CF1D9F8BD284B00089F
:102BA000F8B507460E461546002406E0A119C9B23D
:102BB0003846FFF7C3FF0134E4B22A5D002AF5D19D
:102BC000F8BD0246012002E002FB00F019464B1E50
:102BD0000029F9D1704700002DE9F8438146884665
:102BE00017461E46002419E004EB0805EDB2311B20
:102BF00001390A20FFF7E5FFB7FBF0F0094AA2FB15
:102C00000032D20802EB8202A0EB42023032D2B292
:102C100029464846FFF792FF0134E4B2B442E3D3B9
:102C2000BDE8F883CDCCCCCC08B5002204E001335C
:102C3000B3F57A7FFBD30132B2F57A7F01D200235C
:102C4000F6E7FFF7DBFEAE20FFF732FFD520FFF7F8
:102C50002FFF8020FFF72CFFA820FFF729FF3F2040
:102C6000FFF726FFD320FFF723FF0020FFF720FF09
:102C70004020FFF71DFFA120FFF71AFFC820FFF734
:102C800017FFDA20FFF714FF1220FFF711FF812052
:102C9000FFF70EFFCF20FFF70BFFD920FFF708FF4C
:102CA000F120FFF705FFDB20FFF702FF3020FFF7E1
:102CB000FFFEA420FFF7FCFEA620FFF7F9FE8D2003
:102CC000FFF7F6FE1420FFF7F3FEAF20FFF7F0FE4C
:102CD000FFF71EFF08BD000008B5054B1860054B47
:102CE0001868002302221946806800F051F908BDD7
:102CF000F818002010000020022801D80120704799
:102D000008B500F073F809230360002008BD000037
:102D100010B5013801280AD814464FF0FF3392B29B
:102D200007480068FEF708FF40B9204610BD00F0D4
:102D30005DF8092303604FF0FF30F7E70520F5E762
:102D4000F818002008B500F051F8092303604FF08F
:102D5000FF3008BD08B548B94FF0FF3301220848DD
:102D60000068FEF748FF40B9012008BD00F03EF8BA
:102D7000092303604FF0FF30F7E70520F5E700BFB8
:102D8000F818002008B5022804D84FF400534B600F
:102D9000002008BD00F02AF809230360F8E70000CE
:102DA000FDF735FC0B480C490C4A002302E0D458CF
:102DB000C4500433C4188C42F9D3094A094C002387
:102DC00001E013600432A242FBD300F015F8FDF7D6
:102DD0006DFB704700000020540800202C510008B3
:102DE0005408002044190020FEE70000014B186839
:102DF000704700BF1000002070B50D4E0D4D761BC2
:102E0000B61006D0002455F8043B01349847A6427A
:102E1000F9D1094E094D01F02DFE761BB61006D0F2
:102E2000002455F8043B01349847A642F9D170BDFF
:102E300020510008205100082851000820510008A6
:102E4000830730B548D0541E002A3FD00346CAB28B
:102E500001E0013C3AD303F8012B9D07F9D1032C83
:102E60002DD9CDB245EA05250F2C45EA054536D9C1
:102E7000A4F1100222F00F0C03F1200EE6444FEAF9
:102E8000121C03F1100242E9045542E902551032C6
:102E90007245F8D10CF1010214F00C0F03EB021291
:102EA00004F00F0C13D0ACF1040323F0030304333C
:102EB000134442F8045B9342FBD10CF003042CB1A1
:102EC000CAB21C4403F8012B9C42FBD130BD6446BE
:102ED0001346002CF4D1F9E703461446BFE71A461F
:102EE000A446E0E730B5054689B008460C4600F038
:102EF00027F901210223214A04940692AA6B04AC0B
:102F00000590084401940791AC680293039022B3A2
:102F1000636E13F0010FB4F90C309AB201D1980529
:102F200025D5910406D4626E43F4005322F4005276
:102F3000A3816266284601AA214600F0FDFB636E6C
:102F4000002814BF4FF0FF350A25DA0702D4A38901
:102F50009B0506D5284609B030BD284600F0F4F997
:102F6000D6E7A06D00F08AFD284609B030BDA06DFF
:102F700000F082FDB4F90C309AB2D2E71C5100087F
:102F8000024B01461868FFF7ADBF00BF10000020DC
:102F90002DE9F043694C0E46D4F8008017460446EC
:102FA0001D4683B0B8F1000F03D0D8F83830002B9D
:102FB00077D0022F05D0012F00F2AC80002DC0F297
:102FC000A980636EDA0752D52146404600F088F9A1
:102FD000216B41B104F14003994202D0404600F018
:102FE000ABFA002323630023B4F90CC0A3611CF0E7
:102FF000800F636064D12CF44A6C2CF0030C022F18
:10300000A4F80CC06AD001AB214640466A4600F0E5
:10301000A7FDA3891843A081002D2FD0002E2ED00C
:10302000D8F83830002B38D0009BC4E90465AB4297
:10303000B4F90C3026601CBF43F40063A381012F58
:1030400004BF43F00103A3819AB213F008032CD00C
:10305000D1075DD500216D42A561656EA16015F0B7
:10306000010527D00025284603B0BDE8F083A389D9
:103070009B05A9D4A06D00F0FFFCA5E7009D2846A4
:1030800000F09EFD0646002847D0A38943F0800348
:10309000A381D8F83830002BC6D1404600F054F94F
:1030A000C2E7404600F050F983E7A360656E15F073
:1030B0000105D7D1930524D5284603B0BDE8F08398
:1030C0004046216900F038FAB4F90CC0022F2CF404
:1030D0004A6C2CF0030CA4F80CC094D100250021FC
:1030E000012204F1430323602361636E4CF0020C60
:1030F000D807A4F80CC0A1606261DDD41CF4007F85
:10310000DAD1A06D00F0BAFC284603B0BDE8F08328
:10311000A560CBE74FF0FF35CEE7DDF80090A9457D
:1031200004D0484600F04CFD064620B94FF0FF356C
:10313000B4F90CC0D3E74D46A7E700BF100000204C
:1031400020F0030110F00300C0F1000051F8043B2F
:1031500000F1040C4FEACC0C6FF000021CBF22FA05
:103160000CF213434FF0010C4CEA0C2C4CEA0C4CC3
:10317000A3EB0C0222EA030212EACC1204BF51F8BC
:10318000043B0430F4D0C2F1000102EA0102B2FAB9
:1031900082F2C2F11F0200EBD2007047024B13B162
:1031A000024800F005B87047000000006D340008C8
:1031B000002301461A46184601F04CBBB1F90C2019
:1031C000F8B50C461107074643D4636842F4006221
:1031D000002BA2815BDDA56A002D56D000233E683E
:1031E0003B6093B212F4805255D101233846E16915
:1031F000A847421C65D0A389A56A5B0705D563680B
:10320000C01A236B0BB1E36BC01A0246E1690023BD
:103210003846A847411C40D13B68002B3DD01D2BB0
:1032200001D0162B54D10022A38923F40063A3817B
:103230002369C4E90032216B3E6031B304F14003DD
:10324000994202D0384600F077F9002318462363EC
:10325000F8BD2669CEB193B29A0718BF002325683E
:1032600008BF63692660AD1BA3600CE02B463246A5
:10327000D4F824C03846E169E047B0F1000CA5EB72
:103280000C05664416DD002DF0DC0020F8BDE36B74
:10329000002BA0DCF9E7206DAFE70022B4F90C3079
:1032A000626023F400632269A381DB042260C2D53B
:1032B0002065C0E7A3894FF0FF3043F04003A381AE
:1032C000F8BD3B68002B96D01D2B06D0162B04D0E2
:1032D000A38943F04003A381F8BD00203E60F8BD00
:1032E00038B505460C4608B1836BA3B1B4F90C00A0
:1032F000B8B1636EDB0701D4810515D52846214698
:10330000FFF75CFF636E0546DA0702D4A3899B05CD
:103310000ED5284638BD00F017F8B4F90C00002887
:10332000E7D10546284638BDA06D00F0A5FBE5E7CE
:10333000A06D00F0A3FB284638BD00BF014900F096
:1033400073BB00BF054900082DE9F04782463948A4
:1033500000F092FBDAF83840002C66D104230322F7
:103360003549DAF80450CAF83C10DFF8D090DFF89D
:10337000D080344F344E0AF53B71CAE9B921CAF8FE
:10338000E0422146EB600822C5E90044C5E9044457
:103390006C66AC60AC6105F15C00FFF751FDC5E9FE
:1033A0000759C5E90987EE6205F1580000F060FB96
:1033B000DAF80850254B2146EB600822C5E90044A5
:1033C000C5E904446C66AC60AC6105F15C00FFF7D4
:1033D00037FDC5E90759C5E90987EE6205F15800CF
:1033E00000F046FBDAF80C50194B2146EB6008223E
:1033F000C5E90044C5E904446C66AC60AC6105F104
:103400005C00FFF71DFD05F15800C5E90759C5E946
:103410000A76C5F8248000F02BFB01230548CAF882
:103420003830BDE8F04700F029BB0248BDE8F0475E
:1034300000F024BB081900203D330008C9460008ED
:10344000ED4600082D4700084D470008090001001F
:1034500012000200014800F00FBB00BF0419002059
:10346000014800F00BBB00BF0419002038B5084B21
:10347000084D5B1B9C1007D0043B1D44013C55F8D4
:1034800004399847002CF9D1BDE8384001F0F8BA6A
:103490002C51000828510008F8B50C46234F064669
:1034A00000F006FFBB685D68C4F57E6325F0030588
:1034B0000F332B4423F47F6323F00F03A3F58054D1
:1034C000B4F5805F07DB0021304601F0EBF8BB6804
:1034D0002B44984204D0304600F0F0FE0020F8BDA6
:1034E0003046614201F0DEF801300DD0104ABB6871
:1034F0002D1B45F001055D60136830461B1B1360F2
:1035000000F0DCFE0120F8BD0021304601F0CAF8D1
:10351000BA68831A0F2BDEDD43F001035360054BBD
:1035200003491B68C01A0860D5E700BF44040020A7
:103530000C1900204C08002000295ED0F8B50C467C
:10354000064600F0B5FE54F8042C784FA4F10805A7
:1035500022F001016818D7F808C04368844523F0B9
:10356000030300F08780D207436034D454F8082C5A
:1035700007F10804AD1A1144AA68A24268D000EB12
:10358000030CDCF804E0D5F80CC01EF0010FC2F803
:103590000CC0CCF8082000F0918041F001036B6072
:1035A0000160B1F5007F31D24A09CB080121914079
:1035B0007A6801331143796007EBC30257F833107F
:1035C000083AC5E9021247F83350CD603046BDE8ED
:1035D000F84000F073BEC2185268D2070ED41944E6
:1035E00007F108048368A34270D0C268DA60936070
:1035F00041F001036B606950D3E7704741F001036C
:10360000B1F5007F44F8043C0160CDD3B1F5206FE3
:103610004FEA512347D28B0903F1390003F13802F5
:10362000C300F818FB580838984258D05A6822F05E
:1036300003028A4202D99B689842F7D1D868C5E94B
:10364000023085603046DD60BDE8F84000F036BEEF
:10365000C2185268D20763D40B44D0E90212CA6080
:10366000916043F001026A603046EB50BDE8F840DB
:1036700000F024BE0B44D10707D454F8082CAD1A2F
:103680001344D5E90212CA60916043F001026A60F6
:10369000274ABD6012689A4298D8264B304619686E
:1036A000FFF7FAFE92E7142B0AD9542B1FD80B0B05
:1036B00003F16F0003F16E02C300B2E7194491E712
:1036C00003F15C0003F15B02C300AAE741F00103D0
:1036D000C7E90455C5E902446B60695076E70121EA
:1036E000921001FA02F279680A437A60A7E7B3F50B
:1036F000AA7F06D8CB0B03F1780003F17702C30051
:103700008FE740F25452934206D88B0C03F17D00B0
:1037100003F17C02C30084E74FF47E737E2280E7CE
:1037200041F001036B60016050E700BF44040020DA
:10373000500800203C1900209368002B00F0B7804F
:103740002DE9F04FB1F90C300C46190780461746A9
:1037500083B098B225D523691BB310F002033D68EE
:103760002DD04FF0000B5E46DFF8B8A2002E00F01F
:103770008B80564533465A4628BF53464046E1693A
:10378000D4F824C0E047002840F38780BB68834416
:103790001B1A361ABB60002BE8D1002003B0BDE82D
:1037A000F08F2146404600F0EBFF002840F03681C4
:1037B000B4F90C303D6898B210F00203D1D110F08A
:1037C000010976D14E46002E5AD08205D4F808B0B1
:1037D00040F1B580B3455A4600F2CD8010F4906FA9
:1037E00000F0CB8023682169A3EB010B636903EB35
:1037F000430A0AEBDA7A0BF101034FEA6A0A33440F
:103800005345524684BF9A465246430540F1EA80EA
:103810001146404600F0DCF9002800F0F9805A46D5
:1038200021690190FCF794FCA289019B22F490622B
:1038300042F08002A28103EB0B0023613246AAEB27
:103840000B03B346C4F814A0A3602060B246002660
:103850004946019200F0B0FCA3682168019AA3EBED
:103860000B030A44A3602260B868D144A0EB0A00AD
:10387000B860002891D0B4F90C0080B2002EA4D119
:10388000D5E9009608359EE7D5E900B608356DE71D
:1038900021464046FFF724FD80B3B4F90C304FF0C9
:1038A000FF3043F04003A38103B0BDE8F08F002058
:1038B00070471E46AA46994618461D4656B300282C
:1038C00032D04A4620682169B24228BF3246884237
:1038D000636904D9A16803EB010B5A4574DC934278
:1038E00065DC2A464046E169D4F824C0E047B0F1DF
:1038F000000BD2DDB9EB0B09CAD00120BB685D44D7
:10390000A3EB0B03A6EB0B06BB60002B3FF445AF0C
:10391000002ED4D10AF1080353F8046C9A4653F8E8
:10392000085C0833002EF7D032460A21284600F002
:10393000FBFB002869D00130A0EB0509C1E7206836
:10394000236998421BD86369B34218D86FF0004CC2
:10395000B44528BFB4469CFBF3FC4A4603FB0CF37A
:103960004046E169D4F824C0E047B0F1000A94DD94
:10397000A6EB0A0678E7B3463246206866E7B34509
:10398000DA4628BFB2464946524600F015FCA36805
:103990002268A3EB0A035244A3602260002BE7D104
:1039A00021464046FFF79CFC0028E1D075E72946F8
:1039B0009346019200F000FCA368019A9B1AA36051
:1039C00023681A44226095E729465A4600F0F4FB22
:1039D000236821465B4440462360FFF781FC0028B2
:1039E00088D05AE7404600F06FFC034600287FF479
:1039F00022AF40462169FFF79FFD0C22B4F90C303D
:103A0000C8F8002023F0800349E7721C914659E76B
:103A10000C22B4F90C30C8F8002040E74FF0FF301A
:103A2000BCE600BF00FCFF7F2DE9F8434FF0000922
:103A30000746884600F53876D6E90154013D10D492
:103A4000A389013D012B08D9B4F90E30013304D00C
:103A500021463846C04749EA00096B1C04F1680456
:103A6000EED13668002EE7D14846BDE8F88300BFA6
:103A7000704700BF704700BF704700BF704700BF6E
:103A80002DE9F0418B890C46990796B008D50122A3
:103A900004F14303C4E90432236016B0BDE8F081A9
:103AA000B4F90E100646002927DB6A4600F090FFA5
:103AB000002821DB019D4FF4806805F47045A5F5D1
:103AC0000055B5FA85F54FF400676D09414630465B
:103AD00000F07EF8B4F90C30F0B1204A43F08003D6
:103AE000F263C4F81480A3812060206135BB3B439E
:103AF000A38116B0BDE8F081A38913F0800519D029
:103B00004FF0400830464146002500F061F82F464E
:103B1000B4F90C300028E0D19A05BED4012123F07D
:103B2000030304F1430243F00203C4E90421A38127
:103B30002260B2E74FF480682F46C7E73046B4F9F9
:103B40000E1000F059FF10B9B4F90C30CFE7A3897B
:103B500023F0030343F001031BB2C8E73D33000821
:103B600070B50C46B1F90E10154600291E4696B0E8
:103B700014DB6A4600F02CFF00280FDB019A4FF49B
:103B8000806302F47042A2F50052B2FA82F24FF45E
:103B90000060520932602B6016B070BD0023B4F98A
:103BA0000C10336011F0800004D0402218462A60C7
:103BB00016B070BD4FF480632B6016B070BD00BFAF
:103BC000024B0146186800F003B800BF1000002047
:103BD0002DE9F04F01F10B05162D064683B025D8CF
:103BE000102900F2B88000F063FB102518224FF076
:103BF000020CB54F3A445368A2F108018B4200F021
:103C0000B7805A68D96822F003021A449C6830468B
:103C1000E1608C60516803F1080441F001015160DA
:103C200000F04CFB204603B0BDE8F08F35F00705EF
:103C300000F19180A94200F28E8000F039FBB5F5C9
:103C4000FC7FC0F094816B0A00F08C80042B00F2A2
:103C50006A81AB0903F1390C03F138044FEACC0057
:103C6000994F384443680838984206D10CE000293F
:103C700080F22681DB68984206D05A6822F003025F
:103C8000511B0F29F3DDA4463C69DFF840E274457F
:103C90007AD0626822F00302531B0F2B00F3768167
:103CA000002BC7E904EE80F26781B2F5007F80F057
:103CB00019810121D30852090B4491407A6857F8C1
:103CC00033000A4307EBC3010839A060E1607A6062
:103CD00047F83340C46001214FEAAC039940914258
:103CE00059D8114206D12CF0030C490011420CF1B5
:103CF000040CFAD007EBCC0948466446D0F80C8097
:103D0000404508D11CE1002B80F22181D8F80C80BD
:103D1000404500F01581D8F8042022F00302531B1F
:103D20000F2BF0DD08EB050145F00105C8F8045044
:103D30003046D8E90264F460A66043F00104C7E9A4
:103D400004114C60C1E902EE48F8023000F0B6FA06
:103D500008F1080402E00C2300243360204603B07D
:103D6000BDE8F08F4FF400704FF0400C3F2477E730
:103D7000D3689A4208BF0CF1020C7FF442AF3C6951
:103D8000DFF848E1744584D101217A684FEAAC0339
:103D900099409142A5D9BC68636823F003094D4559
:103DA00003D8A9EB05030F2B7ADCDFF824B1494BCC
:103DB000DBF800201B6801322B4404EB090A00F0F9
:103DC0002F8103F580530F3323F47F6828F00F0809
:103DD0004146304600F066FC411C024600F0EF8090
:103DE000824500F2EA803C4B19684144084619605C
:103DF00000F04981DBF80010019301311BBFA2EBF9
:103E00000A0A5044CBF80020186012F0070B00F0AB
:103E10001181CBF108010A44CBF58051904408315F
:103E2000A1EB0801C1F30B0A51463046009200F0A5
:103E300039FC421CDDE9002300F04B81801A00EBC5
:103E40000A08196848F001005144BC42BA60196080
:103E5000506000F02481B9F10F0F40F222814FF041
:103E6000050E6068A9F10C0C2CF0070C00F00100A5
:103E700040EA0C006060BCF10F0F04EB0C00C0E9DD
:103E800001EE00F22E8114465068144B1A688A42E3
:103E900038BF1960124B1A688A4238BF196090E027
:103EA000621943F0010345F0010565603046BA60D0
:103EB0000834536000F002FA204603B0BDE8F08FEA
:103EC000D9681A44A2E600BF440400204C04002034
:103ED0004C0800203C1900200C1900203419002047
:103EE00038190020B2F5206F4FEA52235FD3142B0C
:103EF00000F2B18003F15C01C9005B337818795896
:103F00000838884200F08F804B6823F00303934207
:103F100002D989688842F7D1C8687A68C4E9021072
:103F20008460CC60D7E6142B59D9542B00F29B80C7
:103F30002B0B03F16F0C03F16E044FEACC008FE6FC
:103F40000134A30700F108007FF4D8AE53E04446E3
:103F500042445368D8F80C1043F00103536054F8FE
:103F6000083F3046D9608B6000F0A8F9F6E64FEACA
:103F7000D50C05F108023CE622445368304643F074
:103F80000103536000F09AF90834E7E6611945F03F
:103F90000105656043F00105C7E904113046C1E938
:103FA00002EE4D60A35000F089F90834D6E693097B
:103FB00003F13901C9003833A0E7BC425ED0BC68C8
:103FC000606820F003084545A8EB050302D80F2BD5
:103FD0003FF766AF304600F071F90024BEE603F10A
:103FE0005C0C03F15B044FEACC0039E659F8083960
:103FF0004B4540F095801CF0030F0CF1FF3CF5D1D0
:104000007B6823EA01037B60490099423FF6C3AE17
:1040100011B9C0E6490004341942FBD0A44669E650
:1040200003F11008D4E601229B109A407B681A43E2
:104030007A6073E702EB08014942C1F30B0A51466B
:104040003046009200F02EFB431CDDE900237FF494
:10405000F5AEDA46F5E6542B26D8130B03F16F01C3
:10406000C9006E334AE7B3F5AA7F26D8EB0B03F1FC
:10407000780C03F177044FEACC00F1E5294B18687E
:1040800040441860B6E6CAF30B0CBCF1000F7FF495
:10409000B1AEBC68C84448F001006060F5E6144663
:1040A000F3E60123536095E7B3F5AA7F24D8D30B39
:1040B00003F17801C900773320E740F2545293426C
:1040C00024D8AB0C03F17D0C03F17C044FEACC0047
:1040D000C6E5ABF1080BD8444FF0000AA8EB020884
:1040E000AFE604F1080130460093FFF725FABC68FB
:1040F000009B60681968C8E640F254518B420BD8A7
:10410000930C03F17D01C9007C33F7E64FF47E7018
:104110004FF07F0C7E24A3E54FF47E717E23EDE605
:104120007B6871E70C1900205FFA81FC810710D0D1
:104130000346511E2AB90AE09A0718460AD00139E7
:1041400005D3184613F8012B6245F5D170470020BE
:104150007047114603290CD80029F8D003460144C2
:1041600001E08B42F3D0184613F8012B6245F8D1D9
:10417000ECE7024610B54CEA0C2444EA044410462D
:10418000036804326340A3F1013E2EEA030313F0F7
:10419000803F04D1043903291046F0D851B10346B9
:1041A000014401E08B4205D0184613F8012B62450B
:1041B000F8D110BD002010BD88420DD98B18834264
:1041C0000AD900EB020CBAB1624613F801CD99424C
:1041D00002F801CDF9D170470F2A0ED8034602F13B
:1041E000FF3C4AB10CF1010C013B8C4411F8012B4E
:1041F000614503F8012FF9D1704740EA01039B079D
:104200004FD1A2F1100370B501F1200C23F00F057E
:1042100001F1100E00F11004AC441B095EF8105CB3
:104220000EF1100E44F8105C5EF81C5C103444F87B
:104230001C5C5EF8185C44F8185C5EF8145CE6459B
:1042400044F8145CEAD1013312F00C0F01EB0311B6
:1042500002F00F0400EB031327D08E46043C24F039
:1042600003064FEA940C1E441C1F5EF8045B44F8DE
:10427000045FB442F9D10CF1010402F0030203EB34
:10428000840301EB840102F1FF3C4AB10CF1010C03
:10429000013B8C4411F8012B614503F8012FF9D142
:1042A00070BD034602F1FF3C9CE72246EBE700BFEE
:1042B0000148FFF7E1BB00BF001900200148FFF7EC
:1042C000DDBB00BF001900202DE9F84F164600297C
:1042D00000F0988006F10B0580460C46FFF7E8FFDA
:1042E000162D5DD810252A46AE425ED854F8041C1F
:1042F000A4F1080921F00307974262DABC4B09EBED
:104300000700D3F808C0844500F09780D0F804C0B7
:104310002CF0010303445B68DB0768D42CF0030C2A
:1043200007EB0C03934247DACB0710D454F8083C50
:10433000A9EB030ADAF8043023F003018C44BC44EF
:10434000944580F211817B18934280F2E8803146D7
:104350004046FFF73DFC0646E0B154F8043CA0F1AE
:10436000080223F001034B44934200F0D2803A1F2D
:10437000242A00F2F580132A00F2AC80034622467C
:10438000116819605168596092689A6021464046E8
:10439000FFF7D2F84046FFF791FF3046BDE8F88FAF
:1043A00025F00705002D2A469EDA0C230026C8F8C2
:1043B00000303046BDE8F88F1F46D0E90223D360B5
:1043C0009A607B1B0F2B22D8D9F8043003F001032D
:1043D0003B43C9F804304F447B6843F001037B60E2
:1043E00026464046FFF76AFF3046BDE8F88FC9070A
:1043F000ADD454F8083CA9EB030ADAF8041021F014
:104400000301A0E71146BDE8F84FFFF7E1BBD9F87B
:10441000041043F0010301F001012943C9F804101D
:1044200009EB05014B604F447B68404643F00103B4
:1044300008317B60FFF780F8D2E7DCF8040020F059
:10444000030B07EB0B0C05F1100084454DDAC9078F
:104450003FF57DAF54F8081CA9EB010ADAF8041007
:1044600021F003018B44BB4458453FF76CAF5646DF
:10447000DAF80C1056F8080F3A1F242AC160886039
:1044800000F2DB80132A40F2D68021681B2ACAF88A
:1044900008106168CAF80C1000F2E08008340AF1D4
:1044A00010022168116061685160A1689160ABEBF6
:1044B00005020AEB050142F0010299604A60DAF850
:1044C0000430404603F001031D43CAF80450FFF7CF
:1044D000F5FE6EE723681B2A03606368436068D8B3
:1044E00004F1080200F108034AE709EB0502ACEB0E
:1044F000050C9A604CF00103536054F8043C4046AC
:1045000003F001031D4344F8045CFFF7D7FE264681
:104510004FE750F8043C23F003031F4451E756468D
:10452000DAF80C1056F8080F3A1F242AC160886088
:104530004CD8132A48D921681B2ACAF80810616888
:10454000CAF80C1056D808340AF110021F46236826
:10455000D146136063685360A3683446936030E7C4
:104560002146FFF729FE11E75646D0E90213CB603A
:10457000996056F8081FDAF80C303A1F242ACB60ED
:1045800099602DD8132A29D923681B2ACAF8083024
:104590006368CAF80C3042D808340AF11003226864
:1045A00067461A606268D1465A60A26834469A60CB
:1045B00007E7A368242A8360E368C36026D004F178
:1045C000100200F11003DBE63246BFE72146304619
:1045D0001F46D146FFF7F0FD3446F2E63346DEE7EC
:1045E000214630466746D146FFF7E6FD3446E8E609
:1045F00044040020A168242ACAF81010E168CAF80F
:10460000141020D010340AF118029FE7236904F136
:10461000180203616369436100F11803B0E6A368FF
:10462000242ACAF81030E368CAF8143022D01034B3
:104630000AF11803B3E7324633E721463046FFF765
:10464000BBFD174B33E722691834CAF8182054F819
:10465000042CCAF81C200AF1200277E7A168242A5A
:10466000CAF81010E168CAF814100ED010340AF11C
:10467000180216E723691834CAF8183054F8043CB5
:10468000CAF81C300AF1200389E722691834CAF8F5
:10469000182054F8042CCAF81C200AF1200200E764
:1046A00044040020002238B5064D044608462A601E
:1046B000FBF78CFF431C00D038BD2B68002BFBD0D0
:1046C000236038BD4019002010B50C46B1F90E101A
:1046D00000F0BAF9002803DB236D0344236510BD05
:1046E000A38923F48053A38110BD00BF2DE9F041BD
:1046F0000C46B1F90C101F46CB05054616460BD4E7
:1047000021F48051A1813B4632462846B4F90E106F
:10471000BDE8F04100F01EB8B4F90E1002230022EB
:1047200000F07CF9B4F90C10EAE700BF10B50C46B4
:10473000B1F90E1000F072F9A389421C0EBF23F4E8
:10474000805343F480532065A38110BDB1F90E104E
:1047500000F0C6B838B50C46114600228446074D15
:1047600020462A601A466446FEF7D2FA431C00D05F
:1047700038BD2B68002BFBD0236038BD40190020CA
:1047800038B5334B05461B680C460BB19A6B12B318
:10479000B4F90C3018079AB225D5216900292DD01B
:1047A00012F0010007D000256069A5604042A061B9
:1047B00039B1002038BD950758BF6069A060002955
:1047C000F7D1120658BF0846F4D543F040034FF026
:1047D000FF30A38138BD1846FEF7B6FDB4F90C30A2
:1047E00018079AB2D9D4D1062AD5520714D4216910
:1047F00043F00803A3819AB20029D1D102F42070BA
:10480000B0F5007FCCD021462846FFF739F9B4F93E
:104810000C3021699AB2C3E7216B51B104F1400217
:10482000914204D02846FEF787FEB4F90C300022EE
:1048300022630022216923F02403C4E90012D7E790
:10484000092243F040032A604FF0FF30A38138BDB6
:10485000100000202DE9F047DFF87CA00646DAF8CA
:10486000000098460F469146FFF706F91B4B1B6860
:10487000D3F8484124B365681F2D26DC5EB96B1C54
:104880000235DAF80000636044F82570FFF7F6F8A7
:104890000020BDE8F087012304EB8501C1F8889072
:1048A000D4F88821AB401A43022EC4F88821C1F8FD
:1048B0000881E4D1D4F88C211343C4F88C31DEE7AD
:1048C00003F5A674C3F84841D5E7DAF80000FFF70E
:1048D000D5F84FF0FF30DCE7400400201851000805
:1048E000002238B5064D044608462A60FBF78CFEC8
:1048F000431C00D038BD2B68002BFBD0236038BD93
:104900004019002070B500294BD006460C4610B166
:10491000836B002B48D0636ED80734D5B4F90C30C4
:10492000002B3ED021463046FEF748FCE36A0546A0
:1049300033B13046E16998470028B8BF4FF0FF35E2
:10494000A3891A063BD4216B41B104F1400399427B
:1049500002D03046FEF7F0FD00232363616C21B1E5
:104960003046FEF7E9FD00236364FEF773FD002285
:10497000636EA281DB0727D5A06DFFF77BF8FEF7FA
:104980006FFD284670BDA3899905CBD4A06DFFF7B4
:1049900073F8B4F90C30002BC4D1656E15F0010525
:1049A00008D00025284670BDFEF7CEFC636ED80700
:1049B000B4D4E8E7A06DFFF761F8284670BD304633
:1049C0002169FEF7B9FDBEE7A06DFFF757F8D3E701
:1049D00070B50026074D0446084611462E60FEF7C6
:1049E000D1F9431C00D070BD2B68002BFBD0236095
:1049F00070BD00BF40190020002238B5064D0446A6
:104A000008462A60FEF778F9431C00D038BD2B68B1
:104A1000002BFBD0236038BD4019002038B50C4670
:104A2000114600228446074D20462A601A466446F5
:104A3000FEF788F9431C00D038BD2B68002BFBD053
:104A4000236038BD4019002038B50C4611460022BD
:104A50008446074D20462A601A466446FEF77AF9D6
:104A6000431C00D038BD2B68002BFBD0236038BD21
:104A700040190020F8B500BFF8BC08BC9E4670473E
:0C4A8000F8B500BFF8BC08BC9E467047AB
:104A8C00C44A00083D0200080000000000000000BD
:104A9C00800000000000000000000000D04A000868
:104AAC007D020008FDFF00000000000080000000F7
:104ABC00000000000000000064656661756C7454B1
:104ACC0061736B006D795461736B303200000000C0
:104ADC003131310D00000000434343210000000040
:104AEC003232320D00000000000000000000000017
:104AFC000102030406070809000000000102030478
:104B0C0002030405060708090A0B0C0D0E0F101002
:104B1C000102000049444C45000000000000000068
:104B2C00000000000000000000000000000000F881
:104B3C0000000000000000333000000000100C06E4
:104B4C00100C0600000000000000000040C078407F
:104B5C00C0784000043F04043F040400007088FC4B
:104B6C0008300000001820FF211E0000F008F000A3
:104B7C00E018000000211C031E211E0000F0088814
:104B8C00700000001E2123241927211010160E007E
:104B9C00000000000000000000000000000000E029
:104BAC00180402000000000718204000000204183E
:104BBC00E00000000040201807000000404080F09A
:104BCC00804040000202010F01020200000000F0D0
:104BDC00000000000101011F0101010000000000A4
:104BEC000000000080B07000000000000000000019
:104BFC0000000000000101010101010100000000A2
:104C0C000000000000303000000000000000000038
:104C1C0080601804006018060100000000E0100815
:104C2C000810E000000F102020100F00001010F8EA
:104C3C00000000000020203F202000000070080829
:104C4C0008887000003028242221300000300888A9
:104C5C00884830000018202020110E000000C020D1
:104C6C0010F8000000070424243F240000F80888F2
:104C7C00880808000019212020110E0000E010887F
:104C8C0088180000000F112020110E0000380808B1
:104C9C00C83808000000003F0000000000708808C1
:104CAC0008887000001C222121221C0000E0100842
:104CBC000810E0000000312222110F00000000C09B
:104CCC00C000000000000030300000000000008038
:104CDC000000000000008060000000000000804028
:104CEC002010080000010204081020004040404041
:104CFC004040400004040404040404000008102094
:104D0C0040800000002010080402010000704808D8
:104D1C000808F0000000003036010000C030C82840
:104D2C00E810E0000718272423140B000000C038FB
:104D3C00E0000000203C23020227382008F8888875
:104D4C0088700000203F202020110E00C030080881
:104D5C0008083800071820202010080008F8080858
:104D6C000810E000203F202020100F0008F8888851
:104D7C00E8081000203F20202320180008F888881D
:104D8C00E8081000203F200003000000C030080895
:104D9C000838000007182020221E020008F808001E
:104DAC000008F808203F210101213F20000808F8E5
:104DBC00080800000020203F202000000000080808
:104DCC00F8080800C08080807F00000008F888C0C8
:104DDC0028180800203F20012638200008F8080079
:104DEC0000000000203F20202020300008F8F800B0
:104DFC00F8F80800203F003F003F200008F830C0C2
:104E0C000008F808203F200007183F00E0100808B1
:104E1C000810E0000F10202020100F0008F80808E0
:104E2C000808F000203F210101010000E0100808F3
:104E3C000810E0000F18242438504F0008F8888818
:104E4C0088887000203F2000030C302000708808F8
:104E5C00080838000038202121221C00180808F806
:104E6C00080818000000203F2000000008F8080087
:104E7C000008F808001F202020201F000878880058
:104E8C0000C83808000007380E010000F80800F8C8
:104E9C000008F800033C0700073C03000818688072
:104EAC008068180820302C03032C30200838C800E8
:104EBC00C83808000000203F200000001008080837
:104ECC00C83808002038262120201800000000FED9
:104EDC00020202000000007F40404000000C30C085
:104EEC0000000000000000010638C00000020202B1
:104EFC00FE000000004040407F0000000000040263
:104F0C00020204000000000000000000000000008D
:104F1C00000000008080808080808080000202047D
:104F2C000000000000000000000000000000808075
:104F3C00808000000019242222223F2008F80080E3
:104F4C0080000000003F112020110E0000000080A6
:104F5C0080800000000E1120202011000000008035
:104F6C008088F800000E112020103F200000808067
:104F7C0080800000001F222222221300008080F07B
:104F8C00888888180020203F2020000000008080A6
:104F9C0080808000006B94949493600008F80080EB
:104FAC0080800000203F210000203F200080989846
:104FBC00000000000020203F2020000000000080A6
:104FCC009898000000C08080807F000008F80000E6
:104FDC0080808000203F24022D302000000808F83B
:104FEC00000000000020203F2020000080808080F6
:104FFC0080808000203F20003F20003F8080008088
:10500C0080800000203F210000203F200000808095
:10501C0080800000001F202020201F008080008046
:10502C008000000080FFA12020110E0000000080F5
:10503C0080808000000E112020A0FF8080808000E6
:10504C008080800020203F21200001000000808013
:10505C00808080000033242424241900008080E008
:10506C00808000000000001F2020000080800000D5
:10507C0000808000001F202020103F2080808000B6
:10508C000080808000010E300806010080800080C6
:10509C00008080800F300C030C300F0000808000EB
:1050AC00808080000020312E0E3120008080800016
:1050BC000080808080818E701806010000808080C6
:1050CC00808080000021302C222130000000000064
:1050DC00807C020200000000003F40400000000005
:1050EC00FF00000000000000FF0000000002027C36
:1050FC00800000000040403F00000000000601015D
:10510C00020204040000000000000000180000204F
:04511C000A00000085
:085120009D3100083501000873
:045128001101000869
:10512C000024F4000100000010000000AAAAAAAAA2
:10513C001800002000000000000000000403002004
:10514C006C030020D40300200000000000000000CD
:10515C000000000000000000000000000000000043
:10516C000000000000000000000000000000000033
:10517C000000000000000000000000000000000023
:10518C000000000000000000000000000000000013
:10519C000000000000000000000000000000000003
:1051AC0000000000000000000000000000000000F3
:1051BC0000000000000000000000000000000000E3
:1051CC0000000000000000000000000000000000D3
:1051DC0000000000000000000000000000000000C3
:1051EC0001000000000000000E33CDAB34126DE660
:1051FC00ECDE05000B0000000000000000000000C9
:10520C000000000000000000000000000000000092
:10521C000000000000000000000000000000000082
:10522C000000000000000000000000000000000072
:10523C000000000000000000000000000000000062
:10556C00FC18002000000000000000004404002093
:10557C00440400204C0400204C040020540400205F
:10558C00540400205C0400205C040020640400200F
:10559C00640400206C0400206C04002074040020BF
:1055AC00740400207C0400207C040020840400206F
:1055BC00840400208C0400208C040020940400201F
:1055CC00940400209C0400209C040020A4040020CF
:1055DC00A4040020AC040020AC040020B40400207F
:1055EC00B4040020BC040020BC040020C40400202F
:1055FC00C4040020CC040020CC040020D4040020DF
:10560C00D4040020DC040020DC040020E40400208E
:10561C00E4040020EC040020EC040020F40400203E
:10562C00F4040020FC040020FC04002004050020ED
:10563C00040500200C0500200C050020140500209A
:10564C00140500201C0500201C050020240500204A
:10565C00240500202C0500202C05002034050020FA
:10566C00340500203C0500203C05002044050020AA
:10567C00440500204C0500204C050020540500205A
:10568C00540500205C0500205C050020640500200A
:10569C00640500206C0500206C05002074050020BA
:1056AC00740500207C0500207C050020840500206A
:1056BC00840500208C0500208C050020940500201A
:1056CC00940500209C0500209C050020A4050020CA
:1056DC00A4050020AC050020AC050020B40500207A
:1056EC00B4050020BC050020BC050020C40500202A
:1056FC00C4050020CC050020CC050020D4050020DA
:10570C00D4050020DC050020DC050020E405002089
:10571C00E4050020EC050020EC050020F405002039
:10572C00F4050020FC050020FC05002004060020E8
:10573C00040600200C0600200C0600201406002095
:10574C00140600201C0600201C0600202406002045
:10575C00240600202C0600202C06002034060020F5
:10576C00340600203C0600203C06002044060020A5
:10577C00440600204C0600204C0600205406002055
:10578C00540600205C0600205C0600206406002005
:10579C00640600206C0600206C06002074060020B5
:1057AC00740600207C0600207C0600208406002065
:1057BC00840600208C0600208C0600209406002015
:1057CC00940600209C0600209C060020A4060020C5
:1057DC00A4060020AC060020AC060020B406002075
:1057EC00B4060020BC060020BC060020C406002025
:1057FC00C4060020CC060020CC060020D4060020D5
:10580C00D4060020DC060020DC060020E406002084
:10581C00E4060020EC060020EC060020F406002034
:10582C00F4060020FC060020FC06002004070020E3
:10583C00040700200C0700200C0700201407002090
:10584C00140700201C0700201C0700202407002040
:10585C00240700202C0700202C07002034070020F0
:10586C00340700203C0700203C07002044070020A0
:10587C00440700204C0700204C0700205407002050
:10588C00540700205C0700205C0700206407002000
:10589C00640700206C0700206C07002074070020B0
:1058AC00740700207C0700207C0700208407002060
:1058BC00840700208C0700208C0700209407002010
:1058CC00940700209C0700209C070020A4070020C0
:1058DC00A4070020AC070020AC070020B407002070
:1058EC00B4070020BC070020BC070020C407002020
:1058FC00C4070020CC070020CC070020D4070020D0
:10590C00D4070020DC070020DC070020E40700207F
:10591C00E4070020EC070020EC070020F40700202F
:10592C00F4070020FC070020FC07002004080020DE
:10593C00040800200C0800200C080020140800208B
:10594C00140800201C0800201C080020240800203B
:10595C00240800202C0800202C08002034080020EB
:10596C00340800203C0800203C080020FFFFFFFF0B
:04597C000000020025
:0400000508002DA121
:00000001FF
