:020000040800F2
:10000000005000203D8A0008ED190008EF19000893
:10001000F1190008F3190008F519000800000000A4
:1000200000000000000000000000000091710008C6
:10003000F71900080000000031720008F9190008E3
:10004000858A0008858A0008858A0008858A000854
:10005000858A0008858A0008858A00080F1A00082A
:10006000858A0008858A0008858A0008858A000834
:10007000858A0008858A0008858A0008858A000824
:10008000191A0008291A0008858A0008858A0008BC
:10009000858A0008858A0008858A0008858A000804
:1000A000858A0008858A0008858A0008858A0008F4
:1000B000391A0008858A0008858A0008858A0008A0
:1000C000858A0008858A0008858A0008858A0008D4
:1000D000858A0008858A0008491A0008858A000870
:1000E000858A0008858A0008858A000800000000CB
:1000F0000000000000000000000000000000000000
:0C01000000000000000000005FF808F1A3
:1001100010B5054C237833B9044B13B10448AFF341
:1001200000800123237010BDC408002000000000DF
:1001300060A7000808B5034B1BB103490348AFF3A0
:10014000008008BD00000000C808002060A700086B
:1001500081F0004102E000BF83F0004330B54FEA78
:1001600041044FEA430594EA050F08BF90EA020FE5
:100170001FBF54EA000C55EA020C7FEA645C7FEA78
:10018000655C00F0E2804FEA5454D4EB5555B8BF9B
:100190006D420CDD2C4480EA020281EA030382EA0C
:1001A000000083EA010180EA020281EA0303362D9E
:1001B00088BF30BD11F0004F4FEA01314FF4801C71
:1001C0004CEA113102D0404261EB410113F0004F83
:1001D0004FEA03334CEA133302D0524263EB43033A
:1001E00094EA050F00F0A780A4F10104D5F1200ED8
:1001F0000DDB02FA0EFC22FA05F2801841F1000133
:1002000003FA0EF2801843FA05F359410EE0A5F106
:1002100020050EF1200E012A03FA0EFC28BF4CF037
:10022000020C43FA05F3C01851EBE37101F00045ED
:1002300007D54FF0000EDCF1000C7EEB00006EEBFA
:100240000101B1F5801F1BD3B1F5001F0CD3490884
:100250005FEA30004FEA3C0C04F101044FEA4452DB
:1002600012F5800F80F09A80BCF1004F08BF5FEA62
:10027000500C50F1000041EB045141EA050130BD42
:100280005FEA4C0C404141EB0101013C28BFB1F554
:10029000801FE9D291F0000F04BF01460020B1FA9F
:1002A00081F308BF2033A3F10B03B3F120020CDA72
:1002B0000C3208DD02F1140CC2F10C0201FA0CF050
:1002C00021FA02F10CE002F11402D8BFC2F1200CB5
:1002D00001FA02F120FA0CFCDCBF41EA0C0190406B
:1002E000E41AA2BF01EB0451294330BD6FEA0404B4
:1002F0001F3C1CDA0C340EDC04F11404C4F120029F
:1003000020FA04F001FA02F340EA030021FA04F3B0
:1003100045EA030130BDC4F10C04C4F1200220FA07
:1003200002F001FA04F340EA0300294630BD21FA45
:1003300004F0294630BD94F0000F83F4801306BF0B
:1003400081F480110134013D4EE77FEA645C18BFFF
:100350007FEA655C29D094EA050F08BF90EA020F96
:1003600005D054EA000C04BF1946104630BD91EA8E
:10037000030F1EBF0021002030BD5FEA545C05D191
:100380004000494128BF41F0004130BD14F58004D0
:100390003CBF01F5801130BD01F0004545F0FE4144
:1003A00041F470014FF0000030BD7FEA645C1ABF79
:1003B000194610467FEA655C1CBF0B46024650EAB0
:1003C000013406BF52EA033591EA030F41F40021DC
:1003D00030BD00BF90F0000F04BF0021704730B562
:1003E0004FF4806404F132044FF000054FF0000137
:1003F00050E700BF90F0000F04BF0021704730B5F8
:100400004FF4806404F1320410F0004548BF4042CC
:100410004FF000013EE700BF42004FEAE2014FEA21
:1004200031014FEA02701FBF12F07F4393F07F4FFC
:1004300081F06051704732F07F4208BF704793F0FF
:100440007F4F04BF41F40021704730B54FF4607412
:1004500001F0004521F000411CE700BF50EA010215
:1004600008BF704730B54FF000050AE050EA0102BE
:1004700008BF704730B511F0004502D5404261EB2E
:1004800041014FF4806404F132045FEA915C3FF46F
:10049000D8AE4FF003025FEADC0C18BF03325FEA0C
:1004A000DC0C18BF033202EBDC02C2F1200300FABD
:1004B00003FC20FA02F001FA03FE40EA0E0021FAE2
:1004C00002F11444BDE600BF70B54FF0FF0C4CF4D0
:1004D000E06C1CEA11541DBF1CEA135594EA0C0F82
:1004E00095EA0C0F00F0DEF82C4481EA030621EABD
:1004F0004C5123EA4C5350EA013518BF52EA0335F8
:1005000041F4801143F4801338D0A0FB02CE4FF0A9
:100510000005E1FB02E506F00042E0FB03E54FF0D9
:100520000006E1FB03569CF0000F18BF4EF0010ED1
:10053000A4F1FF04B6F5007F64F5407404D25FEACD
:100540004E0E6D4146EB060642EAC62141EA555180
:100550004FEAC52040EA5E504FEACE2EB4F1FD0CC2
:1005600088BFBCF5E06F1ED8BEF1004F08BF5FEA40
:10057000500E50F1000041EB045170BD06F00046F2
:1005800046EA010140EA020081EA0301B4EB5C049F
:10059000C2BFD4EB0C0541EA045170BD41F4801197
:1005A0004FF0000E013C00F3AB8014F1360FDEBFBC
:1005B000002001F0004170BDC4F10004203C35DA98
:1005C0000C341BDC04F11404C4F1200500FA05F31B
:1005D00020FA04F001FA05F240EA020001F00042BC
:1005E00021F0004110EBD37021FA04F642EB060132
:1005F0005EEA430E08BF20EAD37070BDC4F10C045C
:10060000C4F1200500FA04F320FA05F001FA04F21F
:1006100040EA020001F0004110EBD37041F100010B
:100620005EEA430E08BF20EAD37070BDC4F1200516
:1006300000FA05F24EEA020E20FA04F301FA05F27E
:1006400043EA020321FA04F001F0004121FA04F226
:1006500020EA020000EBD3705EEA430E08BF20EAF6
:10066000D37070BD94F0000F0FD101F00046400030
:1006700041EB010111F4801F08BF013CF7D041EAB2
:10068000060195F0000F18BF704703F000465200B6
:1006900043EB030313F4801F08BF013DF7D043EA87
:1006A0000603704794EA0C0F0CEA135518BF95EA3D
:1006B0000C0F0CD050EA410618BF52EA4306D1D1C4
:1006C00081EA030101F000414FF0000070BD50EAE3
:1006D000410606BF1046194652EA430619D094EA6D
:1006E0000C0F02D150EA013613D195EA0C0F05D157
:1006F00052EA03361CBF104619460AD181EA0301AB
:1007000001F0004141F0FE4141F470014FF0000062
:1007100070BD41F0FE4141F4780170BD70B54FF0FD
:10072000FF0C4CF4E06C1CEA11541DBF1CEA13557D
:1007300094EA0C0F95EA0C0F00F0A7F8A4EB05045F
:1007400081EA030E52EA03354FEA013100F0888056
:100750004FEA03334FF0805545EA131343EA12631F
:100760004FEA022245EA111545EA10654FEA0026D4
:100770000EF000419D4208BF964244F1FD0404F58D
:10078000407402D25B084FEA3202B61A65EB0305E9
:100790005B084FEA32024FF480104FF4002CB6EBA6
:1007A000020E75EB030E22BFB61A754640EA0C0026
:1007B0005B084FEA3202B6EB020E75EB030E22BF66
:1007C000B61A754640EA5C005B084FEA3202B6EBA7
:1007D000020E75EB030E22BFB61A754640EA9C0066
:1007E0005B084FEA3202B6EB020E75EB030E22BF36
:1007F000B61A754640EADC0055EA060E18D04FEAF4
:10080000051545EA16754FEA06164FEAC30343EA93
:1008100052734FEAC2025FEA1C1CC0D111F4801F60
:100820000BD141EA00014FF000004FF0004CB6E759
:1008300011F4801F04BF01430020B4F1FD0C88BFF8
:10084000BCF5E06F3FF6AFAEB5EB030C04BFB6EB03
:10085000020C5FEA500C50F1000041EB045170BDF6
:100860000EF0004E4EEA113114EB5C04C2BFD4EB23
:100870000C0541EA045170BD41F480114FF0000EA7
:10088000013C90E645EA060E8DE60CEA135594EA23
:100890000C0F08BF95EA0C0F3FF43BAF94EA0C0F26
:1008A0000AD150EA01347FF434AF95EA0C0F7FF49B
:1008B00025AF104619462CE795EA0C0F06D152EAEF
:1008C00003353FF4FDAE1046194622E750EA4106D3
:1008D00018BF52EA43067FF4C5AE50EA41047FF4E4
:1008E0000DAF52EA43057FF4EBAE12E74A0011D296
:1008F00012F5001211D20DD56FF47873B3EB62527A
:100900000ED44FEAC12343F0004343EA505323FA85
:1009100002F070474FF00000704750EA013002D1FA
:100920004FF0FF3070474FF0000070474FEA410230
:10093000B2F1E04324BFB3F5001CDCF1FE5C0DD93D
:1009400001F0004C4FEAC0024CEA5070B2F1004F87
:1009500040EB830008BF20F00100704711F0804F8A
:1009600021D113F13872BCBF01F00040704741F44F
:1009700080114FEA5252C2F11802C2F1200C10FA53
:100980000CF320FA02F018BF40F001004FEAC12337
:100990004FEAD32303FA0CFC40EA0C0023FA02F3DB
:1009A0004FEA4303CCE77FEA625307D150EA0133B1
:1009B0001EBF4FF0FE4040F44000704701F0004081
:1009C00040F0FE4040F40000704700BF80F000405F
:1009D00002E000BF81F0004142001FBF5FEA410317
:1009E00092EA030F7FEA226C7FEA236C6AD04FEA17
:1009F0001262D2EB1363C1BFD2184140484041405C
:100A0000B8BF5B42192B88BF704710F0004F40F40D
:100A1000000020F07F4018BF404211F0004F41F429
:100A2000000121F07F4118BF494292EA030F3FD0F5
:100A3000A2F1010241FA03FC10EB0C00C3F1200308
:100A400001FA03F100F0004302D5494260EB400097
:100A5000B0F5000F13D3B0F1807F06D340084FEA02
:100A6000310102F10102FE2A51D2B1F1004F40EBF7
:100A7000C25008BF20F0010040EA0300704749005F
:100A800040EB0000013A28BFB0F5000FEDD2B0FAFC
:100A900080FCACF1080CB2EB0C0200FA0CF0AABF1F
:100AA00000EBC25052421843BCBFD04018437047BD
:100AB00092F0000F81F4000106BF80F400000132C3
:100AC000013BB5E74FEA41037FEA226C18BF7FEA9A
:100AD000236C21D092EA030F04D092F0000F08BFDC
:100AE0000846704790EA010F1CBF0020704712F0C3
:100AF0007F4F04D1400028BF40F00040704712F102
:100B000000723CBF00F50000704700F0004343F066
:100B1000FE4040F4000070477FEA226216BF08469C
:100B20007FEA23630146420206BF5FEA412390EA5F
:100B3000010F40F4800070474FF0000304E000BF55
:100B400010F0004348BF40425FEA000C08BF704706
:100B500043F0964301464FF000001CE050EA0102CA
:100B600008BF70474FF000030AE000BF50EA0102DF
:100B700008BF704711F0004302D5404261EB4101CC
:100B80005FEA010C02BF84460146002043F0B643F1
:100B900008BFA3F18053A3F50003BCFA8CF2083A16
:100BA000A3EBC25310DB01FA02FC634400FA02FC1F
:100BB000C2F12002BCF1004F20FA02F243EB020026
:100BC00008BF20F00100704702F1200201FA02FC88
:100BD000C2F1200250EA4C0021FA02F243EB02007B
:100BE00008BF20EADC7070474FF0FF0C1CEAD052BF
:100BF0001EBF1CEAD15392EA0C0F93EA0C0F6FD080
:100C00001A4480EA010C400218BF5FEA41211ED05D
:100C10004FF0006343EA501043EA5111A0FB013149
:100C20000CF00040B1F5000F3EBF490041EAD3711E
:100C30005B0040EA010062F17F02FD2A1DD8B3F19A
:100C4000004F40EBC25008BF20F00100704790F009
:100C5000000F0CF0004C08BF49024CEA502040EA5B
:100C600051207F3AC2BFD2F1FF0340EAC250704721
:100C700040F400004FF00003013A5DDC12F1190F5F
:100C8000DCBF00F000407047C2F10002410021FAD1
:100C900002F1C2F1200200FA02FC5FEA310040F1E9
:100CA000000053EA4C0308BF20EADC70704792F062
:100CB000000F00F0004C02BF400010F4000F013A9A
:100CC000F9D040EA0C0093F0000F01F0004C02BF95
:100CD000490011F4000F013BF9D041EA0C018FE704
:100CE0000CEAD15392EA0C0F18BF93EA0C0F0AD00A
:100CF00030F0004C18BF31F0004CD8D180EA010030
:100D000000F00040704790F0000F17BF90F0004FC8
:100D1000084691F0000F91F0004F14D092EA0C0FAA
:100D200001D142020FD193EA0C0F03D14B0218BF3D
:100D3000084608D180EA010000F0004040F0FE4083
:100D400040F40000704740F0FE4040F4400070471F
:100D50004FF0FF0C1CEAD0521EBF1CEAD15392EA9E
:100D60000C0F93EA0C0F69D0A2EB030280EA010C8E
:100D700049024FEA402037D04FF0805343EA111127
:100D800043EA10130CF000408B4238BF5B0042F185
:100D90007D024FF4000C8B4224BF5B1A40EA0C002A
:100DA000B3EB510F24BFA3EB510340EA5C00B3EB5C
:100DB000910F24BFA3EB910340EA9C00B3EBD10F4A
:100DC00024BFA3EBD10340EADC001B0118BF5FEA9C
:100DD0001C1CE0D1FD2A3FF650AF8B4240EBC250C5
:100DE00008BF20F0010070470CF0004C4CEA502086
:100DF0007F32C2BFD2F1FF0340EAC250704740F4D5
:100E000000004FF00003013A37E792F0000F00F0C6
:100E1000004C02BF400010F4000F013AF9D040EA44
:100E20000C0093F0000F01F0004C02BF490011F4D8
:100E3000000F013BF9D041EA0C0195E70CEAD153D0
:100E400092EA0C0F08D142027FF47DAF93EA0C0FB7
:100E50007FF470AF084676E793EA0C0F04D14B029B
:100E60003FF44CAF08466EE730F0004C18BF31F04D
:100E7000004CCAD130F000427FF45CAF31F0004347
:100E80007FF43CAF5FE700BF4FF0FF3C06E000BFE0
:100E90004FF0010C02E000BF4FF0010C4DF804CD03
:100EA0004FEA40024FEA41037FEA226C18BF7FEA13
:100EB000236C11D001B052EA530C18BF90EA010F15
:100EC00058BFB2EB030088BFC81738BF6FEAE170A4
:100ED00018BF40F0010070477FEA226C02D15FEA40
:100EE000402C05D17FEA236CE4D15FEA412CE1D0AC
:100EF0005DF8040B704700BF844608466146FFE773
:100F00000FB5FFF7C9FF002848BF10F1000F0FBD54
:100F10004DF808EDFFF7F4FF0CBF012000205DF84D
:100F200008FB00BF4DF808EDFFF7EAFF34BF0120D2
:100F300000205DF808FB00BF4DF808EDFFF7E0FF6B
:100F400094BF012000205DF808FB00BF4DF808EDBC
:100F5000FFF7D2FF94BF012000205DF808FB00BF1F
:100F60004DF808EDFFF7C8FF34BF012000205DF801
:100F700008FB00BF4FEA4002B2F1FE4F0FD34FF023
:100F80009E03B3EB12620DD94FEA002343F00043F6
:100F900010F0004F23FA02F018BF404270474FF0A4
:100FA0000000704712F1610F01D1420205D110F02B
:100FB000004008BF6FF0004070474FF000007047DE
:100FC00042000ED2B2F1FE4F0BD34FF09E03B3EBB3
:100FD000126209D44FEA002343F0004323FA02F0DF
:100FE00070474FF00000704712F1610F01D14202CB
:100FF00002D14FF0FF3070474FF00000704700BF44
:101000007BB972B90029BEBF00204FF0004106E055
:1010100008BF00281CBF6FF000414FF0FF3000F008
:10102000A9B9ADF1080C6DE904CE002909DB002B4C
:101030001ADB00F035F8DDF804E0DDE9022304B046
:101040007047404261EB4101002B1BDB00F028F8A8
:10105000DDF804E0DDE9022304B0404261EB410128
:10106000524263EB43037047524263EB430300F089
:1010700017F8DDF804E0DDE9022304B0404261EB3B
:1010800041017047524263EB430300F009F8DDF879
:1010900004E0DDE9022304B0524263EB43037047EE
:1010A0002DE9F047089E0D4604468846002B4DD199
:1010B0008A42944668D9B2FA82F252B101FA02F336
:1010C000C2F1200120FA01F10CFA02FC41EA030806
:1010D00094404FEA1C41B8FBF1F71FFA8CFE01FB6C
:1010E000178807FB0EF0230C43EA084398420AD9FD
:1010F0001CEB030307F1FF3580F01E81984240F29C
:101100001B81023F63441B1AB3FBF1F001FB103358
:1011100000FB0EFEA4B244EA0344A6450AD91CEB28
:10112000040400F1FF3380F00981A64540F20681F6
:10113000644402380021A4EB0E0440EA07401EB1CB
:101140000023D440C6E90043BDE8F0878B4208D9AC
:10115000002E00F0EE800021C6E900050846BDE83B
:10116000F087B3FA83F100294AD1AB4202D382421D
:1011700000F2FC80841A65EB030301209846002EE0
:10118000E2D0C6E90048DFE702B9FFDEB2FA82F238
:10119000002A40F09180A1EB0C0001214FEA1C478E
:1011A0001FFA8CFEB0FBF7F307FB1300250C45EA92
:1011B00000450EFB03F0A84208D91CEB050503F11E
:1011C000FF3802D2A84200F2CE8043462D1AB5FB6A
:1011D000F7F007FB10550EFB00FEA4B244EA0544ED
:1011E000A64508D91CEB040400F1FF3502D2A64540
:1011F00000F2B6802846A4EB0E0440EA03409EE7C6
:10120000C1F120078B4022FA07FC4CEA030C25FAB7
:1012100007FA4FEA1C49BAFBF9F820FA07F309FB71
:1012200018AA8D401FFA8CFE1D4300FA01F308FB3B
:101230000EF02C0C44EA0A44A04202FA01F20BD947
:101240001CEB040408F1FF3A80F08880A04240F2D1
:101250008580A8F102086444241AB4FBF9F009FB64
:10126000104400FB0EFEADB245EA0444A64508D981
:101270001CEB040400F1FF356CD2A6456AD9023894
:10128000644440EA0840A0FB0295A4EB0E04AC4283
:10129000C846AE4656D353D0002E69D0B3EB0802F1
:1012A00064EB0E0422FA01F304FA07F71F43CC4063
:1012B000C6E90074002147E70CFA02FCC2F12001E4
:1012C00025FA01F34FEA1C4720FA01F195400D433E
:1012D000B3FBF7F107FB11331FFA8CFE280C40EA31
:1012E000034001FB0EF3834204FA02F408D91CEB1D
:1012F000000001F1FF382FD283422DD9023960441A
:10130000C01AB0FBF7F307FB1300ADB245EA004586
:1013100003FB0EF0A84208D91CEB050503F1FF38CA
:1013200016D2A84214D9023B6544281A43EA014167
:1013300038E73146304607E72F46E4E61846F9E637
:101340004B45A9D2B9EB020865EB0C0E0138A3E7B7
:101350004346EAE7284694E74146D1E7D0467BE793
:101360006444023847E7023B65442FE7084606E736
:101370003146E9E6704700BF4FF0FF3C06E000BF92
:101380004FF0010C02E000BF4FF0010C4DF804CD0E
:101390004FEA410C7FEA6C5C4FEA430C18BF7FEACE
:1013A0006C5C1BD001B050EA410C0CBF52EA430CFC
:1013B00091EA030F02BF90EA020F0020704710F17C
:1013C000000F91EA030F58BF994208BF90422CBF0B
:1013D000D8176FEAE37040F0010070474FEA410C04
:1013E0007FEA6C5C02D150EA013C07D14FEA430C22
:1013F0007FEA6C5CD6D152EA033CD3D05DF8040B93
:10140000704700BF8446104662468C4619466346C4
:1014100000E000BF01B5FFF7B7FF002848BF10F19B
:10142000000F01BD4DF808EDFFF7F4FF0CBF0120E0
:1014300000205DF808FB00BF4DF808EDFFF7EAFF5C
:1014400034BF012000205DF808FB00BF4DF808ED17
:10145000FFF7E0FF94BF012000205DF808FB00BF0C
:101460004DF808EDFFF7CEFF94BF012000205DF896
:1014700008FB00BF4DF808EDFFF7C4FF34BF0120A3
:1014800000205DF808FB00BF4FEA410C7FEA6C5C6E
:1014900002D150EA013C0AD14FEA430C7FEA6C5C6E
:1014A00002D152EA033C02D14FF0000070474FF0E6
:1014B0000100704700B583B00E4B5A6942F001023B
:1014C0005A615B6903F001030193019B002205212E
:1014D000102000F0A7FD102000F0DCFD0022052107
:1014E000112000F09FFD112000F0D4FD03B05DF845
:1014F00004FB00BF0010024000B58DB0314806F07B
:10150000CDFD2EE02F4C4FF4E1620121204606F084
:1015100029FC4FF4AF620221204606F023FCEC4682
:1015200004F1100EBEE80F00ACE80F00BEE80F009B
:10153000ACE80F009EE80F008CE80F0094E80F0065
:1015400006F071FC204BDA6800920ECB204606F0C4
:10155000FFFE4FF400511D4801F06EF8642005F0C5
:1015600089FD1B4B1B7813F0010FCBD1184B1B7857
:1015700013F0010FEDD1134C40F2DC520021204654
:1015800006F0F0FB40F2DC520121204606F0EAFBB7
:1015900040F2DC520221204606F0E4FBEC4604F166
:1015A000100EBEE80F00ACE80F00BEE80F00ACE87C
:1015B0000F009EE80F008CE80F0094E80F0006F083
:1015C00032FCC6E7E008002028000020001001409F
:1015D000D00B002000B583B0194A0121084606F05F
:1015E000F7FF184A0121022006F0F2FF164A0121F6
:1015F000032006F0EDFF05E0144807F099F93220CA
:1016000005F038FD124D0124009403236A68072178
:10161000204607F021F800940323AA68072102203E
:1016200007F01AF800940323EA680721184607F028
:1016300013F8064B9B7DDBB2A342DDD0DFE700BF92
:10164000C8A70008D0A70008D8A70008D40B00201E
:1016500028000020034B0360034B0B6080231360C2
:10166000704700BF280B00202809002010B58EB05D
:101670001C4807F08BF91C4C1C4B64221C4920466B
:1016800007F039F9204607F046F904F08BFD1949B7
:10169000194806F0CDFC07F093F8184C0DF11C0C1E
:1016A000A646BEE80F00ACE80F009EE807008CE8F5
:1016B0000700002107A805F0A8FC114B1860EE46B2
:1016C00004F11C0CBCE80F00AEE80F009CE807001A
:1016D0008EE807000021684605F097FC094B18606A
:1016E0000EB010BD0C0D0020D40B0020540D0020B6
:1016F000F40B00203C0C0020E008002078A7000834
:1017000020090020240900202DE9F04389B000249D
:1017100004940594069407943F4B9A6942F0100292
:101720009A619A6902F010020092009A9A6942F056
:1017300020029A619A6902F020020192019A9A6944
:1017400042F004029A619A6902F004020292029A3B
:101750009A6942F008029A619B6903F008030393B7
:10176000039BDFF8B89022464FF40051484600F042
:101770005DFFDFF8AC8022460121404600F056FFB5
:10178000284E22464CF2C001304600F04FFF4FF485
:10179000005304930125059506940227079704A991
:1017A000484600F031FE049505950694079704A974
:1017B000404600F029FE04971B4B0593069404A9AC
:1017C000304600F021FE4FF4404304930595069403
:1017D000079704A9304600F017FE402304930595AF
:1017E00006940327079704A9304600F00DFE8023D6
:1017F0000493112305930695079704A9304600F03A
:1018000003FE22460621072000F00CFC072000F012
:1018100041FC09B0BDE8F083001002400010014017
:1018200000080140000C01400000211008B50B48E1
:101830000B4B03600B4B436000238360C3604FF48A
:101840008042026143618361C361036201F06AF90E
:1018500000B908BD00F03AF8FBE700BF7C0B0020A0
:1018600000580040801A060010B586B0002302938D
:101870000393049305930268114B9A4201D006B07A
:1018800010BD104CA36943F00803A361A36903F0E2
:1018900008030093009B4FF44063029312230393C9
:1018A0000323059302A9084800F0AEFDE36943F461
:1018B0008003E361E36903F480030193019BDEE7A6
:1018C0000058004000100240000C014072B6FEE7D4
:1018D00000B591B02822002106A807F0E7FB0023FD
:1018E00001930293039304930593012206924FF40C
:1018F000803307930A9202220D920E934FF4E01365
:101900000F9306A801F06AFC80B90F23019302210E
:101910000291002303934FF480620492059301A87F
:1019200001F08EFE20B911B05DF804FBFFF7CEFF89
:10193000FFF7CCFF08B500F02BFB144D284607F04D
:1019400025F8FFF7C5FFFFF7DFFE00F011F9FFF7FD
:10195000B1FD00F019FA00F031FA00F0ABF9FFF731
:1019600065FF0B4C2B4664220A49204606F0C3FF54
:10197000204606F0D0FFFA2000F02EFB06F020FFF4
:10198000FFF774FE05F03CFBFEE700BF540D00209E
:10199000D40B0020F40B002000B583B0114B9A69E2
:1019A00042F001029A619A6902F001020092009AE3
:1019B000DA6942F08052DA61DB6903F08053019307
:1019C000019B00220F216FF0010000F02BFB064A63
:1019D000536823F0E06343F00073536003B05DF895
:1019E00004FB00BF0010024000000140FEE7FEE7DC
:1019F000FEE7FEE7FEE7704708B500F0DBFA06F009
:101A000089F9012800D108BD05F034FCFBE708B5D1
:101A1000022000F01BFE08BD08B5024800F052FC91
:101A200008BD00BF840C002008B5024800F04AFC45
:101A300008BD00BFC80C002008B5024801F0C7FF70
:101A400008BD00BFF40B002008B5024802F096FD67
:101A500008BD00BF540D002008B50368B3F1804FE6
:101A600000D008BD124B5B7DDBB2012B0DD0114BBA
:101A70001B7813F0010FF4D00F4B986806F0B2FCFE
:101A800001460E4806F0F3FEEBE7094B5B899BB27B
:101A90000B4A1288934204D0054B5A89084B1A808E
:101AA000E5E7034B01229A7500225A75DFE700BF74
:101AB000D40B0020D00B00202800002000000020C4
:101AC000EC0B002002680E4B9A4200D070470D4B81
:101AD0001A7D612A11D00B4B5B7DDBB2012BF5D156
:101AE000612AF3D00749C8684B899BB2C2544B891D
:101AF0009BB201339BB24B81E8E701215975EAE7BC
:101B000000440040D40B002008B5064B1B888342DC
:101B100000D008BD044A111FA2F1080004F090FB98
:101B2000F7E700BF280000203400002008B5034676
:101B30000B4A126842B10A4A106803446A4693424B
:101B400006D8074A136008BD054A06491160F2E746
:101B500006F09AFF0C2303604FF0FF30F3E700BF5D
:101B6000F00B0020481B00204FF0FF3070477047FB
:101B700000B587B000230293039304930593009369
:101B8000019316484FF08042026040F2CF2242603B
:101B9000836040F2E732C2600361836102F00EF8B5
:101BA00090B94FF48053029302A90C4802F00AF94D
:101BB00068B90023009301936946084802F0FEF9D2
:101BC00040B907B05DF804FBFFF780FEE9E7FFF7D7
:101BD0007DFEEEE7FFF77AFEF3E700BFF40B00208F
:101BE00000B583B00368B3F1804F05D0124A934229
:101BF00016D003B05DF804FB03F50433DA6942F054
:101C00000102DA61DB6903F001030093009B00220B
:101C100006211C2000F006FA1C2000F03BFAE8E741
:101C2000064BDA6942F00202DA61DB6903F0020373
:101C30000193019BDDE700BF00040040001002405B
:101C400010B586B0002302930393049305930268B2
:101C5000154B9A4201D006B010BD03F503339A69C3
:101C600042F004029A619A6902F004020092009A1A
:101C70009A6942F008029A619B6903F00803019394
:101C8000019BC023029302240394059402A90748F0
:101C900000F0BAFB012302930394059402A90448BF
:101CA00000F0B2FBD7E700BF00040040000801408D
:101CB000000C014000B58FB000230A930B930C93E6
:101CC0000D9308930993019302930393049305934F
:101CD000069307932A482B4A02604722426083609A
:101CE00044F61F62C2600361836101F067FF002850
:101CF00031D14FF480530A930AA9214802F062F8C7
:101D000060BB1F4801F086FF58BB0023089309936E
:101D100008A91B4802F052F930BB6023019300224E
:101D200002920392059201A9154801F0D1FFF0B982
:101D300004220DEB0201124801F0CAFFD0B90822BB
:101D400001A90F4801F0C4FFB8B90D48FFF778FFAB
:101D50000FB05DF804FBFFF7B9FDCAE7FFF7B6FD6A
:101D6000CFE7FFF7B3FDD0E7FFF7B0FDD5E7FFF70B
:101D7000ADFDDDE7FFF7AAFDE1E7FFF7A7FDE4E72B
:101D80003C0C00200004004008B50A480A4B0360E0
:101D90004FF4E133436000238360C36003610C228E
:101DA00042618361C36102F03DFA00B908BDFFF7EB
:101DB0008DFDFBE70C0D00200038014008B50A48F6
:101DC0000A4B03604FF4E133436000238360C36038
:101DD00003610C2242618361C36102F023FA00B9FE
:101DE00008BDFFF773FDFBE7540D002000440040E1
:101DF00070B588B000230493059306930793036896
:101E0000484A934205D00446474A93422BD008B033
:101E100070BD464B9A6942F480429A619A6902F415
:101E200080420092009A9A6942F004029A619B698A
:101E300003F004030193019B4FF400730493022306
:101E40000593032307933A4C04A9204600F0DCFADB
:101E50004FF48063049300230593069304A920465E
:101E600000F0D2FAD3E7314BDA6942F40032DA619A
:101E7000DA6902F400320292029A9A6942F004028C
:101E80009A619B6903F004030393039B0423049367
:101E90000223059303230793254E04A9304600F03F
:101EA000B3FA0823049300250595069504A9304646
:101EB00000F0AAFA1F48204B03604560856080232C
:101EC000C36005614561202383614FF40053C36102
:101ED00000F018F9F8B9174BE3635C621748184B28
:101EE000036010234360002383608022C26003618B
:101EF000436120228261C36100F004F970B90F4B85
:101F0000A3635C6200220521262000F08BF82620C6
:101F100000F0C0F87BE7FFF7D9FCDCE7FFF7D6FC61
:101F2000EDE700BF003801400044004000100240CF
:101F300000080140840C00206C000240C80C002006
:101F40008000024010B504460E4B18784FF47A73A7
:101F5000B3FBF0F30C4A1068B0FBF3F000F0A8F804
:101F600068B90F2C01D901200AE0002221464FF068
:101F7000FF3000F057F8054B1C60002000E0012006
:101F800010BD00BF3C0000203800002040000020B1
:101F900008B5074A136843F010031360032000F0EC
:101FA0002FF80F20FFF7CEFFFFF7F6FC002008BD4B
:101FB00000200240034A1168034B1B780B44136056
:101FC000704700BF9C0D00203C000020014B1868AA
:101FD000704700BF9C0D002038B50446FFF7F6FFA0
:101FE0000546B4F1FF3F02D0044B1B781C44FFF7B9
:101FF000EDFF401BA042FAD338BD00BF3C000020DB
:10200000074AD36823F4E0631B041B0C000200F4AE
:10201000E060034343F0BF6343F40033D360704791
:1020200000ED00E000B5194BDB68C3F30223C3F1F8
:10203000070CBCF1040F28BF4FF0040C03F1040E91
:10204000BEF1060F18D9033B4FF0FF3E0EFA0CFC11
:1020500021EA0C0199400EFA03F322EA0303194323
:1020600000280BDB0901C9B200F1604000F56140B6
:1020700080F800135DF804FB0023E5E700F00F0093
:102080000901C9B2024B1954F4E700BF00ED00E0AA
:1020900014ED00E0002807DB00F01F0240090123D7
:1020A0009340024A42F82030704700BF00E100E050
:1020B0000138B0F1807F0BD24FF0E0235861054A20
:1020C000F02182F823100020986107221A617047DE
:1020D0000120704700ED00E030B40124056CAC40F5
:1020E000C56B6C60046863604368102B05D003689F
:1020F00099600368DA6030BC704703689A600368CF
:10210000D960F8E760B310B402460168154B0B4480
:102110001548A0FB03031B099B001364134BD363F7
:10212000022382F82130086820F47F5020F030002C
:10213000536894682343D468234314692343546940
:10214000234394692343D469234303430B60002052
:102150009063012382F8213082F8200010BC704780
:1021600001207047F8FFFDBFCDCCCCCC0000024071
:1021700038B5044690F82000012832D0012084F8B8
:10218000200094F82100C0B2012804D0002384F874
:102190002030022038BD022084F821000020A063F6
:1021A0002568286820F0010028602046FFF794FF8A
:1021B000E36A5BB12268136843F00E031360226880
:1021C000136843F0010313600020E3E722681368FB
:1021D00023F0040313602268136843F00A031360BA
:1021E000EDE70220D6E790F82130DBB2022B06D0D3
:1021F00004238363002380F82030012070470268A5
:10220000136823F00E0313600268136823F00103C0
:102210001360036CC16B012202FA03F34B6080F878
:102220002120002380F820301846704708B590F828
:102230002130DBB2022B03D004238363012008BDCD
:102240000268136823F00E0313600268136823F01A
:10225000010313600368194A934214D01432934265
:102260001FD0143293421ED0143293421ED0143227
:1022700093421ED01432934202D04FF0807203E09A
:102280004FF4801200E001220D4B5A60012380F8C8
:102290002130002380F82030436B6BB19847002039
:1022A000CDE71022F0E74FF48072EDE74FF4805253
:1022B000EAE74FF48032E7E70020C0E70800024079
:1022C0000000024038B5C36B1A6804682568016CC9
:1022D00004238B40134235D015F0040F32D023680D
:1022E00013F0200F03D1236823F004032360036855
:1022F000434A934214D01432934218D0143293427A
:1023000017D01432934217D01432934217D014329C
:10231000934202D04FF0806203E04FF4800200E06D
:102320000422384B5A60C36A03B1984738BD402233
:10233000F7E74FF48062F4E74FF48042F1E74FF49F
:102340008022EEE702238B4013423CD015F0020FAF
:1023500039D0236813F0200F06D1236823F00A0335
:102360002360012380F821300368254A934214D06A
:10237000143293421CD0143293421BD01432934235
:102380001BD0143293421BD01432934202D04FF030
:10239000007203E04FF4001200E00222194B5A6071
:1023A000002380F82030836A002BBFD09847BDE718
:1023B0002022F3E74FF40072F0E74FF40052EDE70C
:1023C0004FF40032EAE7082303FA01F11142ADD0DD
:1023D00015F0080FAAD0236823F00E032360026CC7
:1023E000C16B012303FA02F24A60836380F8213053
:1023F000002380F82030036B002B97D0984795E797
:10240000080002400000024070B582B00024A446DB
:10241000A6E0804DAA4210D007D97F4DAA420CD029
:1024200005F58035AA4208D013E0A5F58015AA422B
:1024300003D005F57025AA4207D18A68002A58D032
:10244000012A51D04361082403E0A5F58015AA4272
:10245000F3D0BEF1FF0F4ED80646BEF1FF0F4CD8A9
:102460004FEA8C0233680F25954023EA050304FAEE
:1024700002F2134333604B6813F0805F6ED0674BFA
:102480009A6942F001029A619B6903F0010301938A
:10249000019B4FEA9C02951C614B53F825600CF0A0
:1024A00003039D000F23AB4026EA03065D4B9842D1
:1024B00029D003F58063984200F08E8003F5806395
:1024C000984200F08B8003F58063984219D0042372
:1024D0001AE0CC68BDE7CC680434BAE7CC680834AD
:1024E000B7E7CC680C34B4E703610824B1E70024F3
:1024F000AFE70424ADE7061DAFE7ACF10802920098
:10250000B0E7032300E00023AB4033430232444DE5
:1025100045F822304B6813F4801F61D0424A93681B
:1025200043EA0E0393604B6813F4001F5ED03E4AEB
:10253000D36843EA0E03D3604B6813F4003F5BD0CB
:10254000394A536843EA0E0353604B6813F4803FE3
:1025500058D0354A136843EA0E0313600CF1010C9E
:102560000A6832FA0CF353D0012303FA0CF302EA9F
:10257000030E33EA0202F1D14A68122A3FF649AF4C
:10258000122A3FF666AF01A555F822F03B24000859
:10259000D3240008DD240008EF2400085324000899
:1025A000532400085324000853240008532400082F
:1025B000532400085324000853240008532400081F
:1025C000532400085324000853240008532400080F
:1025D000D7240008E3240008012395E7022393E7AA
:1025E000114A936823EA0E0393609CE70E4AD3686E
:1025F00023EA0E03D3609FE70B4A536823EA0E03D6
:102600005360A2E7084A136823EA0E031360A5E7A4
:1026100002B070BD00002210000031100010024016
:102620000000014000080140000401400AB10161BE
:102630007047090401617047C36801EA030221EA97
:10264000030141EA024101617047000008B5054BF2
:102650005B69034200D108BD024B5861FFF754FA91
:10266000F9E700BF0004014003685A6912F4806F63
:1026700001D1002070476FF480625A610023036328
:10268000202280F83D2080F83E30026C42F00402A7
:10269000026480F83C30012070472DE9F041064685
:1026A0000C46174698463BE0FFF790FC069BC01A85
:1026B000404502D8B8F1000F32D1012D18D033684F
:1026C0009B6924EA03039BB2B3FA83F35B099F423D
:1026D00026D100233363202286F83D2086F83E3041
:1026E000326C42F02002326486F83C30012027E050
:1026F00033685B6924EA03039BB2B3FA83F35B0993
:10270000E5E733685B6924EA030C1FFA8CFCBCFA2A
:102710008CFC4FEA5C1C674511D1B8F1FF3FC3D177
:10272000C4F30745012DECD033689B6924EA030C00
:102730001FFA8CFCBCFA8CFC4FEA5C1CEBE7002017
:10274000BDE8F0812DE9F84305460E4690469946CE
:1027500053E01A6842F400721A602B686FF48062CA
:102760005A6100232B63202285F83D2085F83E30F6
:102770002A6C42F004022A6485F83C3001204AE0C9
:10278000FFF724FCA0EB0900404502D8B8F1000F88
:1027900033D1012F17D02B689B6926EA03039BB224
:1027A000003B18BF012343B300232B63202285F88D
:1027B0003D2085F83E302A6C42F020022A6485F8DC
:1027C0003C30012027E02B685B6926EA03039BB2BB
:1027D000003B18BF0123E6E72B689C6926EA040446
:1027E000A4B2003C18BF0124A4B12B685A6912F4AA
:1027F000806FAED1B8F1FF3FC2D1C6F30747012FBA
:10280000EAD12B685C6926EA0404A4B2003C18BF34
:102810000124E9E70020BDE8F8830000F0B583B0AB
:1028200004460D4616461F46C36A082B0DD0012BE1
:102830000BD013F5803F08D0036B122B0AD102682E
:10284000136843F48073136004E02268136843F450
:10285000807313600097334600224FF00111204629
:10286000FFF71BFF80B92369B3F5804F16D12368AA
:1028700005F0FE051D613B46324613492046FFF731
:1028800061FFF8B903B0F0BD23681B6813F4807FC3
:1028900002D04FF4007323640320F3E7EB112268A6
:1028A00003F0060343F0F00313613B463246074949
:1028B0002046FFF747FF18B92368EDB21D61DAE73C
:1028C0000120DFE70120DDE7020001000800010030
:1028D0002DE9F04184B004460D4616461F46C26AF3
:1028E00001680B6843F480630B60082A0DD0012A4D
:1028F0000BD012F5803F08D0036B112B0AD1026870
:10290000136843F48073136004E02268136843F48F
:10291000807313600097334600224FF00111204668
:10292000FFF7BBFE98B92369B3F5804F19D123682F
:1029300045F00105EDB21D613B4632462A4920466D
:10294000FFF700FF00284CD104B0BDE8F0812368F8
:102950001B6813F4807F02D04FF4007323640320BC
:10296000F2E74FEAE51808F00608236848F0F0029D
:102970001A613B4632461D492046FFF7E3FE08B187
:102980000120E1E72368EDB21D613B46324616495E
:102990002046FFF7D7FE08B10120D5E700220392B9
:1029A000236859690391996903910399196841F45E
:1029B00080711960009733464FF001112046FFF7F0
:1029C0006CFE20B9226848F0F1031361B4E7236874
:1029D0001B6813F4807F02D04FF40073236403203C
:1029E000B2E70120B0E700BF0200010008000100CB
:1029F00070B504460D46164623685B6913F0800FD8
:102A000021D12046FFF730FEF8B9B5F1FF3FF3D0F2
:102A1000FFF7DCFA801BA84201D8002DECD1236817
:102A20005B6913F0800FE7D100232363202284F831
:102A30003D2084F83E30226C42F02002226484F86B
:102A40003C30012000E0002070BD0120FCE770B5A3
:102A500004460D46164623685B6913F0040F21D126
:102A60002046FFF701FEF8B9B5F1FF3FF3D0FFF7BD
:102A7000ADFA801BA84201D8002DECD123685B6918
:102A800013F0040FE7D100232363202284F83D20B4
:102A900084F83E30226C42F02002226484F83C30FC
:102AA000012000E0002070BD0120FCE770B5044665
:102AB0000D46164614E06FF010025A61002323639E
:102AC000202284F83D2084F83E30226C226484F871
:102AD0003C30012025E023685B6913F0400F10D0E3
:102AE0002368586910F0400F1AD1586910F0100F80
:102AF000E1D1FFF76BFA801BA842ECD8002DEFD193
:102B0000E9E700232363202284F83D2084F83E3047
:102B1000226C42F02002226484F83C30012000E064
:102B2000002070BD002800F0CC8070B5044690F8FD
:102B30003D30002B77D0242384F83D302268136881
:102B400023F0010313602268136843F40043136009
:102B50002268136823F40043136000F02DFE6268BE
:102B60005A4B9A4264D85A4B98428CBF0023012397
:102B7000002B40F0A8805749A1FB00318B0C256841
:102B80006A6822F03F0242EA91426A6021680A6A5A
:102B900022F03F0266684D4DAE424FD801331343D9
:102BA0000B622168CA6922F44F4222F0FF02666874
:102BB000464B9E424CD8431E7600B3FBF6F30133DE
:102BC00040F6FC70034278D0C3F30B031343CB6190
:102BD00021680B6823F0C003E269206A02431343B3
:102BE0000B6021688B6823F4034323F0FF03226901
:102BF000E068024313438B602168CB6823F0FF0336
:102C00006269A06902431343CB602268136843F0F2
:102C10000103136000202064202384F83D302063EA
:102C200084F83E0070BD80F83C30FEF71DFE82E760
:102C3000294B98428CBF0023012399E74FF49675E6
:102C400005FB03F3254DA5FB03539B090133A6E7C1
:102C5000A368BBB9451E06EB460CB5FBFCF5013578
:102C6000C5F30B05B5FA85F56D0945BBC3B9013848
:102C700006EB4603B0FBF3F30133C3F30B0343F45A
:102C80000043A3E7451E06EB860C0CEB8C0CB5FB52
:102C9000FCF50135C5F30B05B5FA85F56D09E4E7DB
:102CA000013806EB860303EB8303B0FBF3F3013338
:102CB000C3F30B0343F4404388E7042386E701236F
:102CC00084E7012070470120ACE700BFA086010027
:102CD0007F841E0083DE1B43FF083D00D34D62103E
:102CE0002DE9F04385B004460F46914698460C9E68
:102CF000FFF76CF9054694F83D00C0B2202804D0D7
:102D00000227384605B0BDE8F0830095192301225B
:102D10004F492046FFF7C1FC002840F0928094F80C
:102D20003C30012B00F08F80012384F83C30236875
:102D30001A6812F0010F03D11A6842F001021A60FA
:102D40002268136823F400631360212384F83D3064
:102D5000102384F83E3000232364C4F82490A4F8A0
:102D60002A80638D23853B4BE3622B4632463946EE
:102D70002046FFF753FD0746002866D10023039342
:102D800023685A6903929B690393039B11E0236CA8
:102D9000042B01D00127B4E72268136843F40073C1
:102DA0001360F7E72A4631462046FFF750FE002819
:102DB0002ED1238D002B36D02A4631462046FFF7F0
:102DC00017FE0028E3D1626A236812781A61606AEC
:102DD000431C6362618D89B2013989B26185238D9B
:102DE000013B9BB223852268516911F0040FD9D0B1
:102DF000002BD7D043781361636A01336362638D1C
:102E00009BB2013B9BB26385238D013B2385C9E7C0
:102E1000236C042B01D0012773E72268136843F465
:102E200000731360F7E72268136843F400731360BC
:102E3000202384F83D30002384F83E3084F83C3071
:102E40005FE702275DE702275BE7012759E700BF3D
:102E5000020010000000FFFF2DE9F04389B0044696
:102E60000F4691469846109E00230793FFF7AEF851
:102E7000054694F83D00C0B2202804D00227384609
:102E800009B0BDE8F083009519230122804920464E
:102E9000FFF703FC002840F07A8194F83C30012BC6
:102EA00000F07781012384F83C3023681A6812F01F
:102EB000010F03D11A6842F001021A6022681368F8
:102EC00023F400631360222384F83D30102384F838
:102ED0003E3000232364C4F82490A4F82A80638D34
:102EE00023856C4BE3622B46324639462046FFF77A
:102EF000EFFC0746002840F04E81238D5BB9039319
:102F000023685A6903929A690392039A1A6842F4F1
:102F100000721A60F3E0012B0FD0022B21D022683F
:102F2000136843F4806313600023069323685A698F
:102F300006929B690693069BE1E02268136823F4DE
:102F40008063136072B60023049323685A69049265
:102F50009A690492049A1A6842F400721A6062B67E
:102F6000CDE02268136843F40063136072B6002357
:102F7000059323685A6905929A690592059A1A6819
:102F800022F480621A6062B6B9E02A4631462046D1
:102F9000FFF78CFD002840F0008123681A69636AFE
:102FA0001A70636A01336362238D013B2385638D4D
:102FB0009BB2013B9BB26385A1E0009533460022A2
:102FC00035492046FFF769FB002840F0EA80226877
:102FD000136823F48063136072B623681A69636A06
:102FE0001A70636A01336362238D013B2385638D0D
:102FF0009BB2013B9BB26385284B1B68DB08284AC8
:10300000A2FB03231B0A03EB8303C3EBC303079356
:103010000799013907910799002928D023685A692F
:1030200012F0040FF4D01A6842F400721A60236898
:103030001A69636A1A70636A01336362238D013B04
:103040002385638D9BB2013B9BB2638562B6236887
:103050001A69636A1A70636A01336362238D013BE4
:103060002385638D9BB2013B9BB2638547E00023C0
:103070002363202284F83D2084F83E30226C42F005
:103080002002226462B684F83C300127F7E600BFD4
:10309000020010000000FFFF0400010038000020C3
:1030A00089B5F8142A4631462046FFF7FFFC002870
:1030B00079D123681A69636A1A70636A013363629B
:1030C000228D013A92B22285638D9BB2013B9BB265
:1030D00063852368596911F0040F10D0032A48D082
:1030E00023681A69636A1A70636A01336362238D05
:1030F000013B2385638D9BB2013B9BB26385218D90
:1031000000293BD00329CDD801293FF43EAF022945
:103110007FF453AF00953346002224492046FFF741
:10312000BCFA00283BD172B62268136843F40073DE
:10313000136023681A69636A1A70636A01336362F1
:10314000238D013B2385638D9BB2013B9BB263853D
:1031500062B623681A69636A1A70636A013363622C
:10316000238D013B2385638D9BB2013B9BB263851D
:10317000C5E71A6822F480621A60B1E7202384F858
:103180003D30002384F83E3084F83C3077E6022757
:1031900075E6022773E6012771E601276FE601272E
:1031A0006DE601276BE6012769E600BF0400010018
:1031B00082B0084B1B68084AA2FB03235B0A00FB92
:1031C00003F3019300BF019B5A1E0192002BF9D11A
:1031D00002B0704738000020D34D6210002800F084
:1031E000F18170B582B00446036813F0010F2CD052
:1031F000994B5B6803F00C03042B1DD0964B5B6866
:1032000003F00C03082B12D06368B3F5803F41D064
:10321000002B55D103F1804303F504331A6822F4DF
:1032200080321A601A6822F480221A6037E08A4BD2
:103230005B6813F4803FE7D0874B1B6813F4003FB3
:1032400003D06368002B00F0BF81236813F0020FE6
:1032500075D0814B5B6813F00C0F5FD07E4B5B68C1
:1032600003F00C03082B54D02369002B00F08A8054
:103270007A4B01221A60FEF7A9FE0546764B1B68C1
:1032800013F0020F75D1FEF7A1FE401B0228F5D9FD
:1032900003209EE1704A136843F48033136063682F
:1032A00043B3FEF793FE05466B4B1B6813F4003FD8
:1032B000CBD1FEF78BFE401B6428F5D9032088E1B3
:1032C000B3F5A02F09D0644B1A6822F480321A603B
:1032D0001A6822F480221A60E1E703F18043A3F523
:1032E0003C331A6842F480221A601A6842F4803231
:1032F0001A60D4E7FEF76AFE0546574B1B6813F4C5
:10330000003FA2D0FEF762FE401B6428F5D90320DF
:103310005FE1514B5B6813F4803FA5D14E4B1B68B6
:1033200013F0020F03D02369012B40F04F814A4A6A
:10333000136823F0F803616943EAC103136023684B
:1033400013F0080F33D0A369002B5CD0434B01224C
:10335000C3F88024FEF73AFE05463F4B5B6A13F044
:10336000020F21D1FEF732FE401B0228F5D90320BF
:103370002FE1394A136823F0F803616943EAC10376
:103380001360DCE7354B00221A60FEF71FFE05468E
:10339000314B1B6813F0020FD1D0FEF717FE401B14
:1033A0000228F5D9032014E10120FFF701FF23686B
:1033B00013F0040F00F09680274BDB6913F0805F59
:1033C00034D1254BDA6942F08052DA61DB6903F0CF
:1033D00080530193019B0125214B1B6813F4807FCF
:1033E00026D0E368012B3DD0002B53D103F180435D
:1033F00003F504331A6A22F001021A621A6A22F0F3
:1034000004021A6233E0154B0022C3F88024FEF751
:10341000DDFD0546104B5B6A13F0020FC7D0FEF7C7
:10342000D5FD401B0228F5D90320D2E00025D3E7C3
:103430000B4A136843F480731360FEF7C7FD06461A
:10344000074B1B6813F4807FCBD1FEF7BFFD801BB9
:103450006428F5D90320BCE000100240000042427D
:10346000007000405F4A136A43F001031362E3688F
:1034700033B3FEF7ABFD06465A4B1B6A13F0020F3F
:103480002FD1FEF7A3FD801B41F288339842F3D978
:1034900003209EE0052B09D0524B1A6A22F001024C
:1034A0001A621A6A22F004021A62E0E74D4B1A6AA5
:1034B00042F004021A621A6A42F001021A62D6E766
:1034C000FEF784FD0646474B1B6A13F0020F08D037
:1034D000FEF77CFD801B41F288339842F3D903202C
:1034E00077E0E5B9E369002B72D03E4A526802F0FA
:1034F0000C02082A56D0022B17D03B4B00221A662A
:10350000FEF764FD0446374B1B6813F0007F47D07D
:10351000FEF75CFD001B0228F5D9032059E0314A73
:10352000D36923F08053D361DCE72F4B00221A6666
:10353000FEF74CFD05462B4B1B6813F0007F06D0B1
:10354000FEF744FD401B0228F5D9032041E0236A21
:10355000B3F5803F1AD023494B6823F47413226AD1
:10356000606A024313434B601F4B01221A66FEF749
:103570002DFD04461B4B1B6813F0007F0ED1FEF798
:1035800025FD001B0228F5D9032022E0154A5368C7
:1035900023F40033A1680B435360DCE7002018E0FC
:1035A000002016E0012B16D00E4B5B6803F480312F
:1035B000226A914211D103F47013626A93420ED1D0
:1035C000002006E001207047012002E0012000E019
:1035D000002002B070BD0120FBE70120F9E70120C7
:1035E000F7E700BF00100240000042420F4B5B684B
:1035F00003F00C02082A01D00D487047C3F3834240
:103600000C49885C13F4803F0BD0084B5B68C3F314
:103610004043094AD35C064A02FB00F0B0FBF3F0DA
:103620007047064B03FB00F0704700BF00100240DC
:1036300000127A00F8A7000808A8000800093D0059
:10364000002800F0A08070B50D460446524B1B6860
:1036500003F007038B420BD24F4A136823F0070392
:103660000B431360136803F007038B4240F08D8017
:10367000236813F0020F17D013F0040F04D0474A49
:10368000536843F4E0635360236813F0080F04D0D9
:10369000424A536843F460535360404A536823F0EE
:1036A000F003A1680B435360236813F0010F31D07E
:1036B0006368012B20D0022B25D0384A126812F003
:1036C000020F64D035494A6822F0030213434B606D
:1036D000FEF77CFC0646314B5B6803F00C03626826
:1036E000B3EB820F16D0FEF771FC801B41F28833DA
:1036F0009842F0D9032045E0284A126812F4003FAE
:10370000E0D101203EE0254A126812F0007FD9D1B5
:10371000012037E0204B1B6803F00703AB420AD9B6
:103720001D4A136823F007032B431360136803F04B
:103730000703AB422DD1236813F0040F06D0174ABC
:10374000536823F4E063E1680B435360236813F08C
:10375000080F07D0114A536823F46053216943EAE4
:10376000C1035360FFF742FF0C4B5B68C3F30313C5
:103770000B4AD35CD8400B4B18600B4B1868FEF714
:10378000E1FB002070BD012070470120FAE7012015
:10379000F8E70120F6E700BF0020024000100240D9
:1037A000E0A700083800002040000020014B186806
:1037B000704700BF3800002008B5FFF7F7FF044B43
:1037C0005B68C3F30223034AD35CD84008BD00BF43
:1037D00000100240F0A7000808B5FFF7E7FF044B10
:1037E0005B68C3F3C223034AD35CD84008BD00BF63
:1037F00000100240F0A7000870B4036A026A22F0C9
:10380000010202624668826922F073020C6844EA8F
:10381000020523F002028B6813430D4CA04209D02D
:103820000B4CA0420DD0466085614A68426303623A
:1038300070BC704723F00803CA68134323F00403E5
:10384000EEE726F440764A6932438E691643EAE78A
:10385000002C014030B4036A026A22F480720262D2
:103860004568C26922F073020C68224323F4007396
:103870008C6843EA04230F4CA04209D00D4CA042AF
:103880000ED04560C2614A68C263036230BC7047B3
:1038900023F40063CC6843EA042323F48063EDE758
:1038A00025F440554C6945EA04158C6945EA041530
:1038B000E7E700BF002C014030B4036A026A22F43B
:1038C000805202624468C26922F4E6420D6842EA0C
:1038D000052223F400538D6843EA0533074DA842BF
:1038E00006D04460C2614A680264036230BC70471B
:1038F00024F480444D6944EA8514F2E7002C014029
:1039000010B4036A046A24F001040462846924F098
:10391000F00C4CEA021223F00A030B4382610362AB
:1039200010BC704710B4036A046A24F010040462E7
:10393000846924F4704C4CEA023223F0A00343EA79
:1039400001138261036210BC7047836823F0700327
:103950000B4343F0070383607047000090F83D304D
:10396000DBB2012B27D1022380F83D300268D368F7
:1039700043F00103D3600368114A934210D0B3F1BE
:10398000804F0DD0A2F59432934209D002F58062A7
:10399000934205D01A6842F001021A600020704775
:1039A0009A6802F00702062A07D01A6842F001025C
:1039B0001A6000207047012070470020704700BF48
:1039C000002C01407047704770477047704710B532
:1039D000044603681A6912F0020F11D0DA6812F077
:1039E000020F0DD06FF002021A6101230377036802
:1039F0009B6913F0030F70D0FFF7E6FF00232377D6
:103A000023681A6912F0040F12D0DA6812F0040F5A
:103A10000ED06FF004021A610223237723689B699A
:103A200013F4407F5FD02046FFF7CEFF00232377BB
:103A300023681A6912F0080F12D0DA6812F0080F22
:103A40000ED06FF008021A61042323772368DB6924
:103A500013F0030F4ED02046FFF7B6FF0023237765
:103A600023681A6912F0100F12D0DA6812F0100FE2
:103A70000ED06FF010021A61082323772368DB69E8
:103A800013F4407F3DD02046FFF79EFF00232377AD
:103A900023681A6912F0010F03D0DA6812F0010FDF
:103AA00036D123681A6912F0800F03D0DA6812F059
:103AB000800F34D123681A6912F0400F03D0DA68FE
:103AC00012F0400F32D123681A6912F0200F03D090
:103AD000DA6812F0200F30D110BDFFF774FF2046D6
:103AE000FFF773FF8AE72046FFF76DFF2046FFF7D9
:103AF0006CFF9BE72046FFF766FF2046FFF765FF58
:103B0000ACE72046FFF75FFF2046FFF75EFFBDE70B
:103B10006FF001021A612046FDF79EFFC1E76FF0CA
:103B200080021A61204600F080FAC3E76FF040027D
:103B30001A612046FFF74AFFC5E76FF020021A61BD
:103B4000204600F071FAC7E703681B4A90420AD08A
:103B5000B0F1804F07D0A2F59432904203D002F525
:103B60008062904203D123F070034A681343124AE3
:103B700090420AD0B0F1804F07D0A2F59432904223
:103B800003D002F58062904203D123F44073CA68E7
:103B9000134323F080034A69134303608B68C362B5
:103BA0000B688362044B984202D001234361704743
:103BB0000B690363F9E700BF002C014040B310B567
:103BC000044690F83D30F3B1022384F83D3021469D
:103BD00051F8040BFFF7B8FF012384F8463084F84E
:103BE0003E3084F83F3084F8403084F8413084F827
:103BF000423084F8433084F8443084F8453084F807
:103C00003D30002010BD80F83C30FDF7E9FFDBE7D8
:103C10000120704740B310B5044690F83D30F3B131
:103C2000022384F83D30214651F8040BFFF78CFF46
:103C3000012384F8463084F83E3084F83F3084F81D
:103C4000403084F8413084F8423084F8433084F8BE
:103C5000443084F8453084F83D30002010BD80F8B1
:103C60003C30FFF7AFFEDBE70120704730B4036A5A
:103C7000026A22F0100202624468826922F4E6427B
:103C80000D6842EA052223F020038D6843EA0513FC
:103C90000E4DA84209D00D4DA8420ED0446082615D
:103CA0004A688263036230BC704723F08003CD68AA
:103CB00043EA051323F04003EDE724F440644D6923
:103CC00044EA85048D6944EA8504E7E7002C014055
:103CD00038B590F83C30012B66D004460D460123E0
:103CE00080F83C300C2A5AD8DFE802F007595959BD
:103CF0001B5959593059595944000068FFF77CFD48
:103D00002268936943F0080393612268936923F062
:103D1000040393612268936929690B43936100202E
:103D20003EE00068FFF7A2FF2268936943F4006356
:103D300093612268936923F4806393612268936995
:103D4000296943EA01239361002029E00068FFF715
:103D500081FD2268D36943F00803D3612268D369E7
:103D600023F00403D3612268D36929690B43D3612B
:103D7000002015E00068FFF79FFD2268D36943F437
:103D80000063D3612268D36923F48063D36122681E
:103D9000D369296943EA0123D361002000E00120AF
:103DA000002384F83C3038BD0220FCE710B484685E
:103DB00024F47F4C42EA03220A4342EA0C02826066
:103DC00010BC704790F83C30012B78D010B50446F9
:103DD000012380F83C30022380F83D30026893686C
:103DE00023F47F4323F0770393600B68602B4CD060
:103DF00029D8402B54D00CD9502B22D1CA684968FD
:103E00000068FFF77DFD50212068FFF79EFD002030
:103E100005E0202B0DD009D9302B0AD00120012339
:103E200084F83D30002384F83C3010BD0BB1102BDA
:103E300005D119462068FFF788FD0020EFE7012033
:103E4000EDE70120EBE7B3F5805F34D0B3F5005F19
:103E50000CD1CB684A6889680068FFF7A7FF226821
:103E6000936843F4804393600020D8E7702B24D1FB
:103E7000CB684A6889680068FFF798FF22689368F2
:103E800043F0770393600020C9E7CA684968006877
:103E9000FFF748FD60212068FFF757FD0020BEE7CF
:103EA000CA6849680068FFF72BFD40212068FFF7CA
:103EB0004CFD0020B3E70020B1E70120AFE702206E
:103EC000704701F01F01012303FA01FC036A23EA92
:103ED0000C030362036A02FA01F10B4303627047A9
:103EE00010B50446084651BB94F83E30DBB2013BA6
:103EF00018BF0123002B5BD1002839D1022384F89D
:103F00003E30012201462068FFF7DBFF23682A4A82
:103F100093423DD02368284A93423ED0B3F1804F6C
:103F20003BD0A2F59432934237D002F5806293429F
:103F300033D01A6842F001021A60002039E00429E7
:103F400008D008290DD094F84130DBB2013B18BFEE
:103F50000123CFE794F83F30DBB2013B18BF0123C8
:103F6000C8E794F84030DBB2013B18BF0123C1E73A
:103F7000042805D0082807D0022384F84130C0E780
:103F8000022384F83F30BCE7022384F84030B8E7CE
:103F90005A6C42F400425A64BCE79A6802F0070285
:103FA000062A07D01A6842F001021A60002000E0D9
:103FB000012010BD0020FCE7002C014090F83C30AF
:103FC000012B2CD010B4012380F83C30022380F860
:103FD0003D3003685A689C6822F0700C0A6842EA17
:103FE0000C025A6003680F4A93420AD0B3F1804F23
:103FF00007D0A2F59432934203D002F58062934237
:1040000004D124F080044A6814439C60012380F8A2
:104010003D30002380F83C30184610BC7047022029
:10402000704700BF002C014070477047026802F1E2
:104030000C0353E8003F23F0C0030C3242E8003188
:104040000029F3D1202380F841307047026802F143
:104050000C0353E8003F23F490730C3242E8003124
:104060000029F3D1026802F1140353E8003F23F062
:104070000103143242E800310029F3D1036B012B14
:1040800005D0202380F84230002303637047026884
:1040900002F10C0353E8003F23F010030C3242E816
:1040A00000310029F3D1ECE790F84130DBB2212B4D
:1040B00001D0022070478368B3F5805F17D0036A90
:1040C0005A1C02621A7803685A60C38C9BB2013B87
:1040D0009BB2C3844BB90268D36823F08003D360DA
:1040E0000268D36843F04003D3600020704703693F
:1040F000002BE4D1036A1B880268C3F308035360F2
:10410000036A02330362E0E710B5044602681369EC
:1041100023F44053C1680B4313618368026913435E
:1041200042691A430168CB6823F4B05323F00C03AF
:104130001343CB600268536923F4407381690B43D6
:1041400053610268134B9A4220D0FFF735FB0246B9
:1041500002EB820202EB820263689B00B2FBF3F285
:104160000D48A0FB02314909642303FB11231B0105
:104170003233A0FB03235B0903F0F00202EB0112D0
:1041800003F00F03216813448B6010BDFFF724FB7D
:104190000246DDE7003801401F85EB512DE9F84369
:1041A00005460F4616469946DDF820802C6824689F
:1041B00037EA04030CBF4FF0010C4FF0000CB4457C
:1041C0002DD1B8F1FF3FF1D0B8F1000F05D0FDF7C8
:1041D000FDFEA0EB09004045E8D92A6802F10C0376
:1041E00053E8003F23F4D0730C3242E80031002939
:1041F000F3D12A6802F1140353E8003F23F00103CE
:10420000143242E800310029F3D1202385F84130EF
:1042100085F84230002385F84030032000E000207C
:10422000BDE8F88360B310B5044690F8413013B38D
:10423000242384F841302268D36823F40053D360E8
:104240002046FFF761FF2268136923F4904313614E
:104250002268536923F02A0353612268D36843F428
:104260000053D36000206064202384F8413084F838
:104270004230606310BD80F84030FDF7B9FDD7E7EC
:10428000012070472DE9F04182B01E4690F8413080
:10429000DBB2202B4BD104460D46904600294AD074
:1042A0000AB9012044E000234364212380F841300F
:1042B000FDF78CFE0746A4F82480A4F82680A368A6
:1042C000B3F5805F02D04FF000080FE02369FBB127
:1042D0004FF000080AE038F8023B2268C3F30803F5
:1042E0005360E28C92B2013A92B2E284E38C9BB2C8
:1042F0008BB100963B46002280212046FFF74EFFFF
:10430000D8B9002DE7D015F8012B23685A60E8E7EB
:10431000A8460025EAE700963B46002240212046B9
:10432000FFF73CFF58B9202384F8413000E0022019
:1043300002B0BDE8F0810120FAE70320F8E703208E
:10434000F6E72DE9F04182B01E4690F84230DBB22C
:10435000202B53D104460D469046002952D00AB96D
:1043600001204CE000234364222280F842200363B2
:10437000FDF72CFE0746A4F82C80A4F82E80A36835
:10438000B3F5805F02D04FF0000817E0236913B146
:104390004FF0000812E0A84600250FE023685B6894
:1043A000C3F3080328F8023B03E023685B682B7023
:1043B0000135E28D92B2013A92B2E285E38D9BB271
:1043C000BBB100963B46002220212046FFF7E6FEC7
:1043D000D0B9002DE2D0A368B3F5805FE5D013B962
:1043E0002369002BE1D023685B6803F07F032B7007
:1043F000DEE7202384F84230002000E0022002B0F3
:10440000BDE8F0810120FAE70320F8E7704708B51E
:104410000168CA6822F04002CA60202280F8412068
:10442000FFF7F4FF002008BD7047704710B5446ADD
:1044300023685A6994F84130DBB2212B10D02368ED
:104440005A6902F0400294F84230DBB2222B11D0BC
:10445000636C43F0100363642046FFF7E6FF10BD72
:1044600002F08002002AEAD00023E3842046FFF70E
:10447000DDFDE4E7002AEBD00023E3852046FFF7CB
:10448000E5FDE5E708B5406A0023C385C384FFF76F
:10449000CCFF08BD704790F84230DBB2222B69D1C7
:1044A0008368B3F5805F4FD0826AB3F5805F04D034
:1044B000002B56D10369002B53D103685B6813703E
:1044C000836A01338362C38D9BB2013B9BB2C38578
:1044D000002B51D100B583B00268D36823F02003CC
:1044E000D3600268D36823F48073D3600268536991
:1044F00023F001035361202380F8423000234363FB
:10450000036B012B33D100230363026802F10C0318
:1045100053E8003F23F010030C3242E80031002939
:10452000F3D103681A6812F0100F06D0002201922E
:104530001A6801925B680193019B818DFFF7AAFFC6
:10454000002003B05DF804FB0269002AACD1826A46
:1045500003685B68C3F308031380836A02338362D2
:10456000B1E703685B6803F07F031370A8E7FDF70A
:10457000A9FAE5E7022070470020704730B583B004
:10458000044602681368D068516913F00F0505D11D
:1045900013F0200F02D010F0200F19D12DB111F01F
:1045A000010119D110F4907F16D1216B01297DD022
:1045B00013F0800F03D010F0800F40F0188113F03B
:1045C000400F03D010F0400F40F0158103B030BD14
:1045D0002046FFF760FFF9E713F0010F06D010F453
:1045E000807F03D0626C42F00102626413F0040F1A
:1045F00004D019B1626C42F00202626413F0020F3F
:1046000004D019B1626C42F00402626413F0080F26
:1046100007D010F0200F00D119B1626C42F00802EF
:104620006264626C002AD1D013F0200F02D010F027
:10463000200F29D123685B6903F04003626C12F0FC
:10464000080F00D163B32046FFF700FD23685B69C4
:1046500013F0400F20D0226802F1140353E8003F0A
:1046600023F04003143242E800310029F3D1E36B18
:1046700073B1634A5A63E06BFDF7D8FD0028A5D0FB
:10468000E06B436B9847A1E72046FFF704FFD1E7B3
:104690002046FFF7CAFE99E72046FFF7C6FE95E7DA
:1046A0002046FFF7C2FE002363648FE713F0100F6C
:1046B0003FF47EAF10F0100F3FF47AAF0023019368
:1046C0001368019353680193019B536913F0400FE2
:1046D00051D0E26B13685B689BB2002B3FF476AF5E
:1046E000A18D99427FF672AFE3859369202B37D075
:1046F000226802F10C0353E8003F23F480730C326C
:1047000042E800310029F3D1226802F1140353E892
:10471000003F23F00103143242E800310029F3D1B5
:10472000226802F1140353E8003F23F040031432DF
:1047300042E800310029F3D1202384F842300023DD
:104740002363226802F10C0353E8003F23F01003B7
:104750000C3242E800310029F3D1E06BFDF743FD54
:1047600002236363A18DE38D9BB2C91A89B22046EF
:10477000FFF790FE2AE7A18DE38D9BB2C91A89B29B
:10478000E38D9BB2002B3FF421AF00293FF41EAF15
:10479000226802F10C0353E8003F23F490730C32BB
:1047A00042E800300028F3D1226802F1140353E8F4
:1047B000003F23F00103143242E800300028F3D117
:1047C000202384F8423000232363226802F10C0383
:1047D00053E8003F23F010030C3242E80030002879
:1047E000F3D1022363632046FFF754FEEEE6204632
:1047F000FFF75AFCEAE62046FFF709FEE6E600BFAF
:104800008544000808B5406A01234363036B012B0C
:1048100002D0FFF709FE08BD818D4908FFF73AFE77
:10482000F9E708B50346406A1B681B6813F0200FC0
:104830002BD10023C385026802F10C0353E8003F2B
:1048400023F480730C3242E800310029F3D102686E
:1048500002F1140353E8003F23F00103143242E84D
:1048600000310029F3D1026802F1140353E8003F3C
:1048700023F04003143242E800310029F3D1202311
:1048800080F84230036B012B07D000234363036B96
:10489000012B0FD0FDF716F908BD026802F10C03D9
:1048A00053E8003F23F010030C3242E800310029A6
:1048B000F3D1EAE7818DFFF7EDFDEDE730B583B089
:1048C000044613468162828500254564222280F8D1
:1048D0004220C26B1F489062E26B1F48D062E26BBD
:1048E0001E481063E26B556320680A46011DE06BA9
:1048F000FDF73EFC019523681A6801925B680193FD
:10490000019B23695BB1226802F10C0353E8003F6D
:1049100043F480730C3242E800310029F3D122685D
:1049200002F1140353E8003F43F00103143242E85C
:1049300000310029F3D1226802F1140353E8003F4B
:1049400043F04003143242E800310029F3D1002043
:1049500003B030BD23480008054800082D44000876
:1049600008B590F84230DBB2202B08D149B10AB922
:10497000012008BD00230363FFF7A0FFF9E7022031
:10498000F7E70120F5E7000080B582B002AF964658
:10499000083202F4FC72ADEB020D02AA8DF8081089
:1049A000002106E001F1010C595C02F80C105FFADD
:1049B0008CF17145F6D340F2E73300930EF1010319
:1049C00041000348FEF78CF90020BD4680BD00BFC2
:1049D0007C0B00202DE9F04184B0044616461D46AC
:1049E0008DF80F100D4F40F2E738CDF8008001230D
:1049F0000DF10F0200FA03F13846FEF771F961007C
:104A0000CDF8008033462A4641F001013846FEF7D2
:104A100023FA002004B0BDE8F08100BF7C0B002029
:104A200070470000F0B583B007462C4B586801ABC7
:104A300004220D210078FFF7CDFF00284BD104465A
:104A40009DF80420D21002F01C029DF80710C1F35B
:104A500001131A438DF800209DF80520D21002F0B2
:104A60001C02C1F381031A438DF801209DF8063022
:104A7000DB1003F01C0301F003010B438DF802303F
:104A800018E007EB8405164B47F8243004E015497D
:104A90002868FCF7A9F8286006F108030DEB03026B
:104AA00012F8083C013BDBB202F8083C002BEED1C7
:104AB0000134E4B2022C0BD8264604F108036B44FF
:104AC00013F8083C002BDCD1002347F82430EFE733
:104AD000002003B0F0BD0720FBE700BF500000201E
:104AE0007B14AE3E1D5A843F2DE9F04385B08146CC
:104AF000884601A8FFF796FF00273C460DE02149B4
:104B00003046FCF70FFA20B91F493046FCF728FA67
:104B100010B10123A3401F430134022C2EDCA50059
:104B200059F8240058F82430C01A0028B8BF404271
:104B3000FCF706F84FF05E51FCF756F8064605F113
:104B400010030DEB030555F80C5C00212846FCF71B
:104B5000DFF90028D3D129463046FCF7F9F84FF0A9
:104B60007E51FBF737FF20F000400849FCF7F8F9C9
:104B70000028D1D00123A3401F43CDE7384605B01C
:104B8000BDE8F0839A99993E3333733F295C0F3E19
:104B90002DE9F04182B007468846374B586801AB93
:104BA00003220D210078FFF715FF00285FD19DF843
:104BB000043003F01F038DF804309DF8053003F036
:104BC0001F038DF805309DF8063003F01F038DF8A4
:104BD00006300026344626E02849FCF705F804F1A3
:104BE00008030DEB030212F8043C013BDBB202F8B0
:104BF000043C002BF0D101462846FCF7A9F84FF001
:104C00007E51FBF7E7FE20F000401D49FCF7A8F9B4
:104C100040B10123A3401E4304E01A48DFE701230B
:104C2000A3401E430134022C22DC57F8240058F81C
:104C30002430C01A0028B8BF4042FBF781FF4FF074
:104C40005E51FBF7D1FF054604F108036B4413F8EE
:104C5000043C002BE1D10C49FCF764F90028DED1BB
:104C60000A492846FCF77CF90028DBD0D7E707265D
:104C7000304602B0BDE8F0815000002054E3853F8B
:104C8000295C0F3E0000C841000020410000D242D4
:104C900000B583B0234B93F82430CBB1A0B10223ED
:104CA0008DF807301F4B586819680DF10703012272
:104CB000C97B0078FFF768FE48BB9DF80720194BB9
:104CC0005A7403B05DF804FB00238DF80730E9E760
:104CD000144B9B7AF3B110B1124B5B7CEBB990B1E2
:104CE00001238DF807300F4B586819680DF1070341
:104CF0000122C97B0078FFF747FE80B99DF80720A5
:104D0000084B5A74DDE700238DF80730EBE74FF0CE
:104D1000FF30D6E74FF0FF30D3E70020D1E74FF068
:104D2000FF30CEE750000020F0B589B005460C46B4
:104D3000164601238DF8143000238DF81530854B6D
:104D40005868196805AB0222897C0078FFF71CFEC1
:104D5000002840F0CE81C82003F05AFB00238DF8D4
:104D600014307C4B5868196805AB0122C97B007868
:104D7000FFF70AFE002840F0BF81764B586819689B
:104D800005AB012249790078FFF7FEFD002840F0CD
:104D9000B681704B5868196805AB0122897C007890
:104DA000FFF7F2FD002840F0AD816A4B58681968A2
:104DB00005AB0122C97D0078FFF7E6FD002840F031
:104DC000A481644B5868196805AB01220979007801
:104DD000FFF7DAFD002840F09B810C238DF814309A
:104DE0005C4B5868196805AB012209790078FFF718
:104DF000CBFD002840F08F810F2003F009FB554BBD
:104E00009A6A527A8DF814205868196805AB012205
:104E100089780078FFF7B8FD002840F07F814D4B7E
:104E20009A6A127A8DF814205868196805AB012225
:104E300049780078FFF7A8FD002840F07281002E25
:104E400079D0444B9B6A9B7A63F01F038DF8143032
:104E5000404B5868196805AB012289790078FFF743
:104E600093FD002840F06081002E6AD0394B9B6A88
:104E7000DB7A63F01F038DF81430364B58681968DD
:104E800005AB0122C9790078FFF77EFD002840F0CC
:104E90004E81002E59D140238DF814302D4B586887
:104EA000196805AB012209790078FFF76DFD00282C
:104EB00040F0408178238DF81430264B58681968EB
:104EC00005AB012249790078FFF75EFD002840F02C
:104ED0003481322003F09CFA00238DF814301D4BEE
:104EE0005868196805AB012249790078FFF74CFD35
:104EF000002840F02581174B5868196805AB02223D
:104F0000897A0078FFF766FD0646002840F01B818D
:104F10009DF814309DF8157047EA03270E4BA3FB4C
:104F20000737C7F3C7070023AB606B602B60A36034
:104F3000636023605CE0074B9B6A9B7A8DF81430BA
:104F400086E718238DF8143097E7C82003F060FA3D
:104F5000A1E700BF50000020ABAAAAAA9DF8143018
:104F60009DF8151041EA032109B2ADF804109DF82F
:104F700016309DF8172042EA032212B2ADF806203F
:104F80009DF818009DF8193043EA00231BB2ADF8D4
:104F9000083020680144216061680A446260A268A8
:104FA0001344A3609DF81A309DF81B1041EA0321B9
:104FB00009B2ADF80C109DF81C309DF81D2042EA96
:104FC000032212B2ADF80E209DF81E009DF81F308E
:104FD00043EA00231BB2ADF8103028680144296071
:104FE00069680A446A60AA681344AB600136F6B285
:104FF000BE420ED2554B5868196805AB0C22C97ACF
:105000000078FFF7E7FC0028A8D04FF0FF3009B088
:10501000F0BD29688322002308040914FBF7F0FF80
:1050200000263A463346FBF7EBFF28606968832287
:10503000002308040914FBF7E3FF3A463346FBF765
:10504000DFFF6860A9688322002308040914FBF7C6
:10505000D7FF3A463346FBF7D3FFA8602068031416
:1050600000041946B3422DDBC00A3A46334640EAF3
:105070004150C912FBF7C4FF2060606803140004AC
:105080001946002B24DBC00A3A46334640EA415019
:10509000C912FBF7B5FF6060A0680314000419464D
:1050A000002B1BDBC00A3A46334640EA4150C91286
:1050B000FBF7A6FFA060002816DDA0F58030A060F9
:1050C0000020A4E740F2FF72801843F10001CBE713
:1050D00040F2FF72801843F10001D4E740F2FF7202
:1050E000801843F10001DDE700F58030A06000206A
:1050F0008DE74FF0FF308AE74FF0FF3087E74FF042
:10510000FF3084E74FF0FF3081E74FF0FF307EE75C
:105110004FF0FF307BE74FF0FF3078E74FF0FF3084
:1051200075E74FF0FF3072E74FF0FF306FE74FF059
:10513000FF306CE74FF0FF3069E74FF0FF3066E774
:105140004FF0FF3063E74FF0FF3060E75000002082
:105150007C4B9B7A002B00F0D48000B583B00023F9
:105160008DF80730774B586819680DF10703012255
:10517000C97B0078FFF708FC002840F0C580714B20
:10518000586819680DF10703012249790078FFF783
:10519000FBFB002840F0BB806A4B586819680DF192
:1051A0000703012209790078FFF7EEFB002840F0A1
:1051B000B180644B93F82430002B52D00C238DF82F
:1051C0000730604B586819680DF10703012209790F
:1051D0000078FFF7D9FB002840F09F80322003F0D1
:1051E00017F9C0238DF80730564B9B7A13F0010F47
:1051F00002D0E0238DF80730524B586819680DF142
:105200000703012209790078FFF7BEFB002840F070
:1052100087804C4B5B7C03B302238DF80730494BEE
:10522000586819680DF107030122C97B0078FFF760
:10523000ABFB002877D100238DF80730414B58682D
:1052400019680DF10703012249790078FFF79CFBEB
:1052500000286BD103B05DF804FB00238DF8073004
:10526000DDE704238DF80730364B586819680DF1D7
:105270000703012209790078FFF786FB002858D13F
:10528000304B9B7C23B92F4B9B7A13F0010F30D10D
:1052900040238DF807302B4B586819680DF1070330
:1052A000012209790078FFF76FFB002844D13220F2
:1052B00003F0AEF8234B5B7CFBB101238DF8073084
:1052C000204B586819680DF107030122C97B00784B
:1052D000FFF75AFB98BB1B4B586853F8101B012271
:1052E00049790078FFF750FB0028B3D04FF0FF302A
:1052F000B0E760238DF80730CDE700238DF8073045
:10530000DEE74FF0FF3070474FF0FF30A2E74FF07D
:10531000FF309FE74FF0FF309CE74FF0FF3099E7F9
:105320004FF0FF3096E74FF0FF3093E74FF0FF303C
:1053300090E74FF0FF308DE74FF0FF308AE74FF0F6
:10534000FF3087E7500000200D4B1B7A032B13D84A
:10535000DFE803F002060A0EFA23038000207047FC
:105360004FF4FA730380F9E74FF47A730380F5E79B
:105370004FF4FA630380F1E700230380EEE700BFF8
:1053800050000020244B9B7A002B3CD000B583B00A
:10539000B0F57A7F33D00BD8FA2813D0B0F5FA7F66
:1053A00003D108238DF807300FE04FF0FF3023E0E2
:1053B000B0F5FA6F03D118238DF8073005E04FF0F0
:1053C000FF3019E000238DF80730134B1B7A9DF84E
:1053D0000720B3EBD20F19D00F4B586819680DF1A5
:1053E0000703012289790078FFF7CEFA80B99DF88A
:1053F0000730DB08084A137203B05DF804FB102382
:105400008DF80730E1E74FF0FF3070470020F3E7F9
:105410004FF0FF30F0E700BF500000200F4B5B7AE9
:10542000032B16D8DFE803F0020C0F1202230370DF
:105430000A4BDB7C83B103785B000370002070476C
:1054400004230370F4E708230370F1E710230370CB
:10545000EEE74FF0FF30704700207047500000200B
:10546000234B9B7A002B35D000B583B002380E2831
:1054700033D8DFE800F008322332323227323232BA
:10548000323232322B0000238DF80730184B5B7A12
:105490009DF80720B3EBD20F24D0154B586819683C
:1054A0000DF107030122C9790078FFF76DFAD8B929
:1054B0009DF80730DB080E4A537210E008238DF880
:1054C0000730E3E710238DF80730DFE718238DF866
:1054D0000730DBE74FF0FF3070474FF0FF3003B08D
:1054E0005DF804FB0020FAE74FF0FF30F7E700BF5C
:1054F000500000200F4BDB7A013B052B17D8DFE86B
:1055000003F003070A0D1013BC230380002070472B
:1055100062230380FAE72A230380F7E7142303803A
:10552000F4E70A230380F1E705230380EEE7002375
:105530000380EBE750000020234B9B7A002B3AD0EE
:1055400000B583B0BB281AD901238DF807301E4B54
:10555000DA7A9DF807309A4230D01B4B58681968A8
:105560000DF10703012289780078FFF70DFA38BBA7
:105570009DF80720144BDA7203B05DF804FB612834
:1055800003D902238DF80730E1E7292803D9032343
:105590008DF80730DBE7132803D904238DF8073093
:1055A000D5E7092803D905238DF80730CFE706236F
:1055B0008DF80730CBE74FF0FF3070470020DBE776
:1055C0004FF0FF30D8E700BF50000020054B93F8A4
:1055D000243023B9034BDB890380002070474FF050
:1055E000FF307047500000200D4B1B7A032B13D85F
:1055F000DFE803F002060A0E0A4B03600020704742
:10560000094B036000207047084B0360002070477F
:10561000074B0360002070474FF0FF30704700BF1A
:105620005000002000000343000083423333034254
:1056300033338341114B5B7A032B1AD8DFE803F035
:10564000020D11154FF4804303800C4BDB7C9BB1A2
:1056500003885B0803800020704741F69C73038039
:10566000F3E74FF480530380EFE74FF400630380C8
:10567000EBE74FF0FF3070470020704750000020EC
:10568000024B1B7C03700020704700BF50000020BD
:1056900070B5174B93F824302BBB00F0FE04144B6D
:1056A0009B7A13B3124A167C23401374A3420BD087
:1056B0004FF0FF3514B90E4B1B7D3BB10120FFF7B6
:1056C000E7FA3CB9284670BD0025F3E70020FFF754
:1056D000DFFAF6E7FFF73CFD0028F3D0044B1E7419
:1056E0004FF0FF35EEE70025ECE74FF0FF35E9E737
:1056F000500000202E4B93F82430002B49D0F0B5F9
:1057000083B005460F461646294B9B7A002B43D0A3
:10571000274B5868196801AB0222897A0078FFF795
:1057200059F900283BD19DF804009DF8054044EA52
:105730000024AC4223D31E4B58684388B4EB530F6C
:105740000DD91B4B196801AB0122497C0078FFF78A
:1057500041F938BB9DF8043013F0100F14D1144BED
:10576000586819683B46EAB2C97A0078FFF732F9FF
:10577000D8B9B4FBF5F4013C347003B0F0BD00239C
:1057800033704FF0FF30F8E7FFF7E2FC6FF00100F5
:10579000F3E74FF0FF3070474FF0FF30EDE74FF089
:1057A000FF30EAE74FF0FF30E7E74FF0FF30E4E784
:1057B00050000020584B9B7C834200F09C8010B529
:1057C00082B00446002844D0534B586819680DF144
:1057D0000703012209790078FFF7FCF8002840F060
:1057E0008C809DF8073023F020038DF807304A4B5A
:1057F000586819680DF10703012209790078FFF74D
:10580000C3F800287CD1032002F002FE02238DF8A9
:105810000730414B93F8223013B182238DF80730C3
:105820003D4B93F823302BB19DF8073043F0300304
:105830008DF80730384B586819680DF107030122BD
:10584000097D0078FFF7A0F8002844D04FF0FF3022
:1058500044E0314B586819680DF1070301220979BA
:105860000078FFF7B7F800284DD12B4B9B7A13F047
:10587000010F35D09DF8073043F020038DF8073035
:10588000254B586819680DF1070301220979007842
:10589000FFF77AF8002839D1032002F0B9FD1E4B3A
:1058A00093F822301BB380238DF807301A4B93F8FE
:1058B00023302BB19DF8073043F030038DF80730CB
:1058C000154B586819680DF107030122097D00780E
:1058D000FFF75AF8E8B9104B9C74002002B010BDD5
:1058E0009DF8073023F020038DF80730C8E7002328
:1058F0008DF80730DAE7002070474FF0FF30EDE712
:105900004FF0FF30EAE74FF0FF30E7E74FF0FF30AE
:10591000E4E74FF0FF30E1E7500000201B4B93F825
:10592000233083422DD010B582B0044628B33023F3
:105930008DF80730154B9B7C2BB19DF8073043F059
:1059400002038DF80730114B93F822302BB19DF8EC
:10595000073063F07F038DF807300C4B58681968E7
:105960000DF107030122097D0078FFF70DF850B90A
:10597000064B83F8234002B010BD00238DF807309A
:10598000D8E7002070474FF0FF30F4E750000020C8
:1059900028285FD810B582B00446B8B90020FFF7B8
:1059A000BDFF00238DF8043007238DF805302E4B02
:1059B0005868196801AB0222897C0078FEF7E4FF81
:1059C00000284AD1284B187502B010BD0120FFF7FE
:1059D000A5FF20238DF80430012C26D0052C2BD9CF
:1059E000142C30D802238DF805300A20FFF7A4FDCF
:1059F0009DF805309B0143F007038DF805301A4BE5
:105A00005868196801AB0222897C0078FEF7BCFF58
:105A100030BB154B08229A7200241C7301221A75A0
:105A20002046FFF735FE2046CEE700238DF80530EF
:105A30000520FFF781FDDBE701238DF80530052008
:105A4000FFF77AFDD4E703238DF805301420FFF724
:105A500073FDCDE74FF0FF3070474FF0FF30B3E7F5
:105A60004FF0FF30B0E700BF50000020264B9B7A7C
:105A7000002B40D010B582B00446234B93F824305D
:105A8000002B3BD1204B1B7D33B1431E9BB2272BF8
:105A90000AD90020FFF77CFF032C0AD9B4F57A7FDE
:105AA00008D94FF47A7405E0C0B2FFF771FF002007
:105AB0001FE004244FF47A7090FBF4F4013C8DF85D
:105AC0000740114B586819680DF107030122497806
:105AD0000078FEF759FFA0B99DF80700431C4FF46A
