:020000040800F2
:1000000000500020E53D0008C5120008C712000896
:10001000C9120008CB120008CD1200080000000031
:10002000000000000000000000000000E1300008B7
:10003000CF1200080000000081310008C53100081F
:100040002D3E00082D3E00082D3E00082D3E0008E4
:100050002D3E00082D3E00082D3E00082D3E0008D4
:100060002D3E00082D3E00082D3E00082D3E0008C4
:100070002D3E00082D3E00082D3E00082D3E0008B4
:10008000D1120008E11200082D3E00082D3E0008A4
:100090002D3E00082D3E00082D3E00082D3E000894
:1000A0002D3E0008F11200082D3E00082D3E0008EC
:1000B0002D3E00082D3E00082D3E00082D3E000874
:1000C0002D3E00082D3E00082D3E00082D3E000864
:1000D0002D3E00082D3E00080113000811130008F2
:1000E0002D3E00082D3E00082D3E000800000000B7
:1000F0000000000000000000000000000000000000
:0C01000000000000000000005FF808F1A3
:1001100010B5054C237833B9044B13B10448AFF341
:1001200000800123237010BDC009002000000000E2
:10013000A4BC000808B5034B1BB103490348AFF347
:10014000008008BD00000000C4090020A4BC000815
:10015000844641EA000313F0030349D1403A23D314
:100160000B6803604B6843608B688360CB68C36037
:100170000B6903614B6943618B698361CB69C3611F
:100180000B6A03624B6A43628B6A8362CB6AC36207
:100190000B6B03634B6B43638B6B8363CB6BC363EF
:1001A00040304031403ADBD230320BD30B68036031
:1001B0004B6843608B688360CB68C360103010313C
:1001C000103AF3D20C3205D351F8043B40F8043B0B
:1001D000043AF9D2043208D0D2071CBF11F8013B0F
:1001E00000F8013B01D30B8803806046704700BFD5
:1001F000082A13D38B07B1D010F00303AED0C3F19C
:100200000403D21ADB071CBF11F8013B00F8013BC5
:10021000A4D331F8023B20F8023B9FE7043AD9D33C
:10022000013A11F8013B00F8013BF9D20B78037059
:100230004B7843708B7883706046704781F0004143
:1002400002E000BF83F0004330B54FEA41044FEABB
:10025000430594EA050F08BF90EA020F1FBF54EA56
:10026000000C55EA020C7FEA645C7FEA655C00F0F2
:10027000E2804FEA5454D4EB5555B8BF6D420CDDC3
:100280002C4480EA020281EA030382EA000083EA46
:10029000010180EA020281EA0303362D88BF30BDE6
:1002A00011F0004F4FEA01314FF4801C4CEA11313C
:1002B00002D0404261EB410113F0004F4FEA03339B
:1002C0004CEA133302D0524263EB430394EA050F26
:1002D00000F0A780A4F10104D5F1200E0DDB02FA95
:1002E0000EFC22FA05F2801841F1000103FA0EF229
:1002F000801843FA05F359410EE0A5F120050EF1EF
:10030000200E012A03FA0EFC28BF4CF0020C43FA1F
:1003100005F3C01851EBE37101F0004507D54FF02C
:10032000000EDCF1000C7EEB00006EEB0101B1F57C
:10033000801F1BD3B1F5001F0CD349085FEA3000C2
:100340004FEA3C0C04F101044FEA445212F5800FCD
:1003500080F09A80BCF1004F08BF5FEA500C50F16A
:10036000000041EB045141EA050130BD5FEA4C0C4D
:10037000404141EB0101013C28BFB1F5801FE9D2AA
:1003800091F0000F04BF01460020B1FA81F308BFCD
:100390002033A3F10B03B3F120020CDA0C3208DD99
:1003A00002F1140CC2F10C0201FA0CF021FA02F174
:1003B0000CE002F11402D8BFC2F1200C01FA02F1E4
:1003C00020FA0CFCDCBF41EA0C019040E41AA2BF09
:1003D00001EB0451294330BD6FEA04041F3C1CDAD1
:1003E0000C340EDC04F11404C4F1200220FA04F0F1
:1003F00001FA02F340EA030021FA04F345EA03019B
:1004000030BDC4F10C04C4F1200220FA02F001FA5C
:1004100004F340EA0300294630BD21FA04F02946DE
:1004200030BD94F0000F83F4801306BF81F4801177
:100430000134013D4EE77FEA645C18BF7FEA655CEA
:1004400029D094EA050F08BF90EA020F05D054EABC
:10045000000C04BF1946104630BD91EA030F1EBFC1
:100460000021002030BD5FEA545C05D140004941C5
:1004700028BF41F0004130BD14F580043CBF01F5B8
:10048000801130BD01F0004545F0FE4141F470019E
:100490004FF0000030BD7FEA645C1ABF1946104679
:1004A0007FEA655C1CBF0B46024650EA013406BF7A
:1004B00052EA033591EA030F41F4002130BD00BF39
:1004C00090F0000F04BF0021704730B54FF48064F6
:1004D00004F132044FF000054FF0000150E700BF77
:1004E00090F0000F04BF0021704730B54FF48064D6
:1004F00004F1320410F0004548BF40424FF00001C3
:100500003EE700BF42004FEAE2014FEA31014FEA05
:1005100002701FBF12F07F4393F07F4F81F0605154
:10052000704732F07F4208BF704793F07F4F04BF9F
:1005300041F40021704730B54FF4607401F000457C
:1005400021F000411CE700BF50EA010208BF7047DC
:1005500030B54FF000050AE050EA010208BF7047CD
:1005600030B511F0004502D5404261EB41014FF436
:10057000806404F132045FEA915C3FF4D8AE4FF03E
:1005800003025FEADC0C18BF03325FEADC0C18BF21
:10059000033202EBDC02C2F1200300FA03FC20FA72
:1005A00002F001FA03FE40EA0E0021FA02F11444BF
:1005B000BDE600BF70B54FF0FF0C4CF4E06C1CEAD8
:1005C00011541DBF1CEA135594EA0C0F95EA0C0F49
:1005D00000F0DEF82C4481EA030621EA4C5123EABC
:1005E0004C5350EA013518BF52EA033541F48011EB
:1005F00043F4801338D0A0FB02CE4FF00005E1FB9E
:1006000002E506F00042E0FB03E54FF00006E1FBE7
:1006100003569CF0000F18BF4EF0010EA4F1FF042A
:10062000B6F5007F64F5407404D25FEA4E0E6D416A
:1006300046EB060642EAC62141EA55514FEAC5207B
:1006400040EA5E504FEACE2EB4F1FD0C88BFBCF5F7
:10065000E06F1ED8BEF1004F08BF5FEA500E50F1A8
:10066000000041EB045170BD06F0004646EA01016E
:1006700040EA020081EA0301B4EB5C04C2BFD4EBA0
:100680000C0541EA045170BD41F480114FF0000E99
:10069000013C00F3AB8014F1360FDEBF002001F007
:1006A000004170BDC4F10004203C35DA0C341BDC81
:1006B00004F11404C4F1200500FA05F320FA04F053
:1006C00001FA05F240EA020001F0004221F0004187
:1006D00010EBD37021FA04F642EB06015EEA430EFA
:1006E00008BF20EAD37070BDC4F10C04C4F120052A
:1006F00000FA04F320FA05F001FA04F240EA0200DD
:1007000001F0004110EBD37041F100015EEA430EAD
:1007100008BF20EAD37070BDC4F1200500FA05F2CD
:100720004EEA020E20FA04F301FA05F243EA02034C
:1007300021FA04F001F0004121FA04F220EA02005B
:1007400000EBD3705EEA430E08BF20EAD37070BDA1
:1007500094F0000F0FD101F00046400041EB010181
:1007600011F4801F08BF013CF7D041EA060195F063
:10077000000F18BF704703F00046520043EB03031D
:1007800013F4801F08BF013DF7D043EA060370470A
:1007900094EA0C0F0CEA135518BF95EA0C0F0CD015
:1007A00050EA410618BF52EA4306D1D181EA03015B
:1007B00001F000414FF0000070BD50EA410606BF55
:1007C0001046194652EA430619D094EA0C0F02D19A
:1007D00050EA013613D195EA0C0F05D152EA0336DF
:1007E0001CBF104619460AD181EA030101F00041FD
:1007F00041F0FE4141F470014FF0000070BD41F046
:10080000FE4141F4780170BD70B54FF0FF0C4CF41F
:10081000E06C1CEA11541DBF1CEA135594EA0C0F3E
:1008200095EA0C0F00F0A7F8A4EB050481EA030E8B
:1008300052EA03354FEA013100F088804FEA033372
:100840004FF0805545EA131343EA12634FEA022240
:1008500045EA111545EA10654FEA00260EF0004101
:100860009D4208BF964244F1FD0404F5407402D253
:100870005B084FEA3202B61A65EB03055B084FEAE4
:1008800032024FF480104FF4002CB6EB020E75EBE1
:10089000030E22BFB61A754640EA0C005B084FEA09
:1008A0003202B6EB020E75EB030E22BFB61A754686
:1008B00040EA5C005B084FEA3202B6EB020E75EBD1
:1008C000030E22BFB61A754640EA9C005B084FEA49
:1008D0003202B6EB020E75EB030E22BFB61A754656
:1008E00040EADC0055EA060E18D04FEA051545EA45
:1008F00016754FEA06164FEAC30343EA52734FEAEE
:10090000C2025FEA1C1CC0D111F4801F0BD141EA66
:1009100000014FF000004FF0004CB6E711F4801FCB
:1009200004BF01430020B4F1FD0C88BFBCF5E06FAB
:100930003FF6AFAEB5EB030C04BFB6EB020C5FEABB
:10094000500C50F1000041EB045170BD0EF0004E10
:100950004EEA113114EB5C04C2BFD4EB0C0541EA42
:10096000045170BD41F480114FF0000E013C90E63F
:1009700045EA060E8DE60CEA135594EA0C0F08BF03
:1009800095EA0C0F3FF43BAF94EA0C0F0AD150EA02
:1009900001347FF434AF95EA0C0F7FF425AF104695
:1009A00019462CE795EA0C0F06D152EA03353FF4BD
:1009B000FDAE1046194622E750EA410618BF52EA3A
:1009C00043067FF4C5AE50EA41047FF40DAF52EA0E
:1009D00043057FF4EBAE12E74FF0FF3C06E000BFAB
:1009E0004FF0010C02E000BF4FF0010C4DF804CDB8
:1009F0004FEA410C7FEA6C5C4FEA430C18BF7FEA78
:100A00006C5C1BD001B050EA410C0CBF52EA430CA5
:100A100091EA030F02BF90EA020F0020704710F125
:100A2000000F91EA030F58BF994208BF90422CBFB4
:100A3000D8176FEAE37040F0010070474FEA410CAD
:100A40007FEA6C5C02D150EA013C07D14FEA430CCB
:100A50007FEA6C5CD6D152EA033CD3D05DF8040B3C
:100A6000704700BF8446104662468C46194663466E
:100A700000E000BF01B5FFF7B7FF002848BF10F145
:100A8000000F01BD4DF808EDFFF7F4FF0CBF01208A
:100A900000205DF808FB00BF4DF808EDFFF7EAFF06
:100AA00034BF012000205DF808FB00BF4DF808EDC1
:100AB000FFF7E0FF94BF012000205DF808FB00BFB6
:100AC0004DF808EDFFF7CEFF94BF012000205DF840
:100AD00008FB00BF4DF808EDFFF7C4FF34BF01204D
:100AE00000205DF808FB00BF4FEA410C7FEA6C5C18
:100AF00002D150EA013C0AD14FEA430C7FEA6C5C18
:100B000002D152EA033C02D14FF0000070474FF08F
:100B1000010070474FEA410212F5001215D211D5BB
:100B20006FF47873B3EB625212D94FEAC12343F0EA
:100B3000004343EA505311F0004F23FA02F018BF6C
:100B4000404270474FF00000704750EA013005D135
:100B500011F0004008BF6FF0004070474FF00000F8
:100B6000704700BF53B94AB9002908BF00281CBF0D
:100B70004FF0FF314FF0FF3000F076B9ADF1080CC7
:100B80006DE904CE00F006F8DDF804E0DDE90223AB
:100B900004B070472DE9F047089E0D46044688468C
:100BA000002B4DD18A42944668D9B2FA82F252B1F2
:100BB00001FA02F3C2F1200120FA01F10CFA02FC61
:100BC00041EA030894404FEA1C41B8FBF1F71FFAD1
:100BD0008CFE01FB178807FB0EF0230C43EA084349
:100BE00098420AD91CEB030307F1FF3580F01E8100
:100BF000984240F21B81023F63441B1AB3FBF1F0A1
:100C000001FB103300FB0EFEA4B244EA0344A645E8
:100C10000AD91CEB040400F1FF3380F00981A645DA
:100C200040F20681644402380021A4EB0E0440EA3D
:100C300007401EB10023D440C6E90043BDE8F08759
:100C40008B4208D9002E00F0EE800021C6E9000595
:100C50000846BDE8F087B3FA83F100294AD1AB42D8
:100C600002D3824200F2FC80841A65EB0303012068
:100C70009846002EE2D0C6E90048DFE702B9FFDE61
:100C8000B2FA82F2002A40F09180A1EB0C0001211F
:100C90004FEA1C471FFA8CFEB0FBF7F307FB13006B
:100CA000250C45EA00450EFB03F0A84208D91CEBD1
:100CB000050503F1FF3802D2A84200F2CE80434678
:100CC0002D1AB5FBF7F007FB10550EFB00FEA4B282
:100CD00044EA0544A64508D91CEB040400F1FF359D
:100CE00002D2A64500F2B6802846A4EB0E0440EAE4
:100CF00003409EE7C1F120078B4022FA07FC4CEA33
:100D0000030C25FA07FA4FEA1C49BAFBF9F820FA56
:100D100007F309FB18AA8D401FFA8CFE1D4300FA49
:100D200001F308FB0EF02C0C44EA0A44A04202FA3C
:100D300001F20BD91CEB040408F1FF3A80F0888023
:100D4000A04240F28580A8F102086444241AB4FB52
:100D5000F9F009FB104400FB0EFEADB245EA044475
:100D6000A64508D91CEB040400F1FF356CD2A6455A
:100D70006AD90238644440EA0840A0FB0295A4EB1B
:100D80000E04AC42C846AE4656D353D0002E69D0AE
:100D9000B3EB080264EB0E0422FA01F304FA07F73E
:100DA0001F43CC40C6E90074002147E70CFA02FC5F
:100DB000C2F1200125FA01F34FEA1C4720FA01F1A4
:100DC00095400D43B3FBF7F107FB11331FFA8CFE7F
:100DD000280C40EA034001FB0EF3834204FA02F4BC
:100DE00008D91CEB000001F1FF382FD283422DD926
:100DF00002396044C01AB0FBF7F307FB1300ADB231
:100E000045EA004503FB0EF0A84208D91CEB050596
:100E100003F1FF3816D2A84214D9023B6544281AC0
:100E200043EA014138E73146304607E72F46E4E61A
:100E30001846F9E64B45A9D2B9EB020865EB0C0E52
:100E40000138A3E74346EAE7284694E74146D1E75D
:100E5000D0467BE76444023847E7023B65442FE70E
:100E6000084606E73146E9E6704700BF00B583B0A3
:100E70000E4B5A6942F001025A615B6903F00103AB
:100E80000193019B00220121102000F0DDFB1020C6
:100E900000F012FC00220121112000F0D5FB1120EE
:100EA00000F00AFC03B05DF804FB00BF0010024034
:100EB00008B502F027F9224C0122A11D214802F0B9
:100EC0002DF801222049214802F028F82049204627
:100ED00002F0C8FE1F4E2049304602F0C3FE1F4DEF
:100EE0002168284603F020F83168284603F01CF8F2
:100EF00002F02AF907E01249124802F0C2FE0FE0A0
:100F0000012002F05EF800F087FB0D4B1867DB6EE6
:100F1000C01A632804D90A4BDB7913F0010FEAD118
:100F20000C4A136FD26E9B1A042BE9D9094BDB795B
:100F300013F0010FE4D00749044802F0A2FEDFE7F6
:100F4000E8090020440E0020E40900208C0E002057
:100F500038BD00085C0A002044BD000850BD0008F0
:100F600008B50121034800F065FE4FF4967002F0C9
:100F700028F8F6E70008014008B50221054800F00E
:100F800059FE054802F00AFF4FF4967002F019F876
:100F9000F3E700BF0008014064BD0008034B036095
:100FA000034B0B6080231360704700BFD40C0020FC
:100FB000D40A002010B596B01B4C0DF13C0CA6468F
:100FC000BEE80F00ACE80F009EE807008CE80700C1
:100FD00000210FA801F0C0FF144B18600DF1200C88
:100FE00004F11C0EBEE80F00ACE80F009EE80700FD
:100FF0008CE807000DF1040E04F1380CBCE80F007A
:10100000AEE80F009CE807008EE80700002108A862
:1010100001F0A2FF064B1860002101A801F09CFF1F
:10102000044B186016B010BDC0BC0008D00A0020E8
:10103000DC090020E009002010B503681D4A934236
:1010400003D01D4A93421DD010BD1C4B9B8883B119
:101050001A4CA388A179E21811720133A3800121EF
:10106000174800F0E7FD0122A11D164801F056FFC8
:10107000EAE700F0D1FA114BD866DA7942F00102C2
:10108000DA71E5E700F0C8FA0F4BD8669B8823B900
:101090000D49CA7942F00102CA710B498879CA1810
:1010A000107201338B8001220631084801F0D1FE15
:1010B000CAE700BF0044004000480040E8090020A3
:1010C00000080140440E00205C0A00208C0E002025
:1010D00030B589B000240494059406940794174B06
:1010E0009A6942F020029A619A6902F02002019204
:1010F000019A9A6942F004029A619A6902F0040224
:101100000292029A9A6942F008029A619B6903F07E
:1011100008030393039B0A4D22460321284600F04F
:1011200083FD03230493012305930694022307936D
:1011300004A9284600F066FC09B030BD001002404A
:101140000008014008B50268034B9A4200D008BD70
:1011500000F056FAFBE700BF002C014072B6FEE734
:1011600000B591B02822002106A802F08BFE0023D2
:1011700001930293039304930593012206924FF483
:10118000803307930A9202220D920E934FF4E013DC
:101190000F9306A800F06EFD80B90F230193022182
:1011A0000291002303934FF480620492059301A8F7
:1011B00000F092FF20B911B05DF804FBFFF7CEFFFD
:1011C000FFF7CCFF08B500F009FA0A4802F076FDF7
:1011D000FFF7C6FFFFF77CFF00F0ECF8FFF746FED5
:1011E00000F0CEF800F000F9FFF7E4FE01F0AFFEEA
:1011F000FEE700BFFC0D002000B583B0114B9A69DB
:1012000042F001029A619A6902F001020092009A8A
:10121000DA6942F08052DA61DB6903F080530193AE
:10122000019B00220F216FF0010000F00DFA064A29
:10123000536823F0E06343F00073536003B05DF83C
:1012400004FB00BF001002400000014000B589B05F
:1012500001460022192000F0F7F9192000F02CFABD
:10126000144B9A6942F400629A619B6903F400632B
:101270000193019B02A903A801F00AF800F0F8FF0E
:101280000D4BA3FB00239B0C013B0C480C4A026056
:1012900040F2E732C260436000230361836001F0E3
:1012A00047F918B1012009B05DF804FB034801F0CB
:1012B0000FF8F8E70010024083DE1B43280D0020E2
:1012C000002C0140FEE7FEE7FEE7FEE7FEE7704781
:1012D00008B5024800F0F4FA08BD00BF740D002004
:1012E00008B5024800F0ECFA08BD00BFB80D0020B8
:1012F00008B5024801F024F808BD00BF280D002001
:1013000008B5024801F0EAFB08BD00BF440E00200A
:1013100008B5024801F0E2FB08BD00BF8C0E0020BA
:101320000120704708B502F083FD162303604FF0DB
:10133000FF3008BD08B54FF0FF31FFF7F3FFFEE7C0
:1013400008B503460B4A126842B10A4A10680344C2
:101350006A46934206D8074A136008BD054A064903
:101360001160F2E702F064FD0C2303604FF0FF30E0
:10137000F3E700BF700D0020701C002070470000D4
:1013800008B50A480A4B03604FF4E1334360002379
:101390008360C36003610C2242618361C36101F019
:1013A000F1F900B908BDFFF7D9FEFBE7FC0D0020FD
:1013B0000038014008B50A480A4B03604FF4E13396
:1013C000436000238360C36003610C224261836138
:1013D000C36101F0D7F900B908BDFFF7BFFEFBE715
:1013E000440E00200044004008B50A480A4B036040
:1013F0004FF4E133436000238360C36003610C2238
:1014000042618361C36101F0BDF900B908BDFFF716
:10141000A5FEFBE78C0E00200048004070B58AB0A6
:10142000002306930793089309930368614A934244
:1014300009D00446604A93422FD0604A934200F09C
:1014400086800AB070BD5E4B9A6942F480429A6110
:101450009A6902F480420092009A9A6942F004026A
:101460009A619B6903F004030193019B4FF400739D
:1014700006930223079303230993524C06A920469F
:1014800000F0C0FA4FF4806306930023079308939B
:1014900006A9204600F0B6FAD3E7494BDA6942F4D0
:1014A0000032DA61DA6902F400320292029A9A6931
:1014B00042F004029A619B6903F004030393039BC7
:1014C0000423069302230793032309933D4E06A9A1
:1014D000304600F097FA08230693002507950895F3
:1014E00006A9304600F08EFA3748384B03601023C7
:1014F000436085608023C360056145618561C56186
:1015000000F0FEF8E8B9304BA3635C623048314B21
:1015100003600023436083608022C26003614361F3
:101520008361C36100F0ECF870B9294BE3635C623E
:1015300000220121262000F087F8262000F0BCF8C8
:101540007FE7FFF70BFEDEE7FFF708FEEDE71C4B3A
:10155000DA6942F48022DA61DA6902F480220492C4
:10156000049A9A6942F008029A619B6903F00803A1
:101570000593059B4FF4806306930223079303238F
:101580000993154D06A9284600F03CFA4FF4006374
:10159000069300240794089406A9284600F032FA1E
:1015A00022460521272000F04FF8272000F084F87C
:1015B00047E700BF003801400044004000480040B9
:1015C0000010024000080140B80D002080000240D9
:1015D000740D00206C000240000C014008B5074A61
:1015E000136843F010031360032000F01BF80F2072
:1015F000FFF72CFEFFF700FE002008BD0020024090
:10160000034A1168034B1B780B441360704700BFFB
:10161000D40E002004000020014B1868704700BF62
:10162000D40E0020074AD36823F4E0631B041B0C8C
:10163000000200F4E060034343F0BF6343F400336F
:10164000D360704700ED00E000B5194BDB68C3F3D1
:101650000223C3F1070CBCF1040F28BF4FF0040CA8
:1016600003F1040EBEF1060F18D9033B4FF0FF3E05
:101670000EFA0CFC21EA0C0199400EFA03F322EA5F
:101680000303194300280BDB0901C9B200F16040D4
:1016900000F5614080F800135DF804FB0023E5E7E6
:1016A00000F00F000901C9B2024B1954F4E700BF62
:1016B00000ED00E014ED00E0002807DB00F01F0261
:1016C000400901239340024A42F82030704700BF8E
:1016D00000E100E030B40124056CAC40C56B6C60E7
:1016E000046863604368102B05D003689960036841
:1016F000DA6030BC704703689A600368D960F8E725
:1017000060B310B402460168154B0B441548A0FBAA
:1017100003031B099B001364134BD363022382F85A
:101720002130086820F47F5020F03000536894681E
:101730002343D4682343146923435469234394699E
:101740002343D469234303430B60002090630123A8
:1017500082F8213082F8200010BC704701207047C9
:10176000F8FFFDBFCDCCCCCC0000024038B504461C
:1017700090F82000012832D0012084F8200094F84D
:101780002100C0B2012804D0002384F820300220B8
:1017900038BD022084F821000020A0632568286855
:1017A00020F0010028602046FFF794FFE36A5BB158
:1017B0002268136843F00E0313602268136843F035
:1017C000010313600020E3E72268136823F0040399
:1017D00013602268136843F00A031360EDE70220E8
:1017E000D6E790F82130DBB2022B06D004238363C6
:1017F000002380F82030012070470268136823F02E
:101800000E0313600268136823F001031360036C76
:10181000C16B012202FA03F34B6080F82120002300
:1018200080F820301846704708B590F82130DBB2B8
:10183000022B03D004238363012008BD02681368D0
:1018400023F00E0313600268136823F00103136092
:101850000368194A934214D0143293421FD01432B1
:1018600093421ED0143293421ED0143293421ED0A3
:101870001432934202D04FF0807203E04FF4801292
:1018800000E001220D4B5A60012380F82130002333
:1018900080F82030436B6BB198470020CDE71022D1
:1018A000F0E74FF48072EDE74FF48052EAE74FF42F
:1018B0008032E7E70020C0E7080002400000024055
:1018C00038B5C36B1A6804682568016C04238B4023
:1018D000134235D015F0040F32D0236813F0200FD7
:1018E00003D1236823F0040323600368434A93422F
:1018F00014D01432934218D01432934217D01432B9
:10190000934217D01432934217D01432934202D02C
:101910004FF0806203E04FF4800200E00422384B75
:101920005A60C36A03B1984738BD4022F7E74FF4C5
:101930008062F4E74FF48042F1E74FF48022EEE753
:1019400002238B4013423CD015F0020F39D023689C
:1019500013F0200F06D1236823F00A03236001232C
:1019600080F821300368254A934214D01432934200
:101970001CD0143293421BD0143293421BD0143229
:1019800093421BD01432934202D04FF0007203E016
:101990004FF4001200E00222194B5A60002380F835
:1019A0002030836A002BBFD09847BDE72022F3E7A1
:1019B0004FF40072F0E74FF40052EDE74FF40032BD
:1019C000EAE7082303FA01F11142ADD015F0080F40
:1019D000AAD0236823F00E032360026CC16B01239D
:1019E00003FA02F24A60836380F82130002380F812
:1019F0002030036B002B97D0984795E708000240F2
:101A00000000024070B582B00024A446A6E0804DDC
:101A1000AA4210D007D97F4DAA420CD005F58035D7
:101A2000AA4208D013E0A5F58015AA4203D005F517
:101A30007025AA4207D18A68002A58D0012A51D0BD
:101A40004361082403E0A5F58015AA42F3D0BEF156
:101A5000FF0F4ED80646BEF1FF0F4CD84FEA8C025E
:101A600033680F25954023EA050304FA02F2134375
:101A700033604B6813F0805F6ED0674B9A6942F019
:101A800001029A619B6903F001030193019B4FEAF4
:101A90009C02951C614B53F825600CF003039D00DC
:101AA0000F23AB4026EA03065D4B984229D003F58D
:101AB0008063984200F08E8003F58063984200F0C6
:101AC0008B8003F58063984219D004231AE0CC6818
:101AD000BDE7CC680434BAE7CC680834B7E7CC6813
:101AE0000C34B4E703610824B1E70024AFE7042411
:101AF000ADE7061DAFE7ACF108029200B0E70323A3
:101B000000E00023AB4033430232444D45F822301D
:101B10004B6813F4801F61D0424A936843EA0E0376
:101B200093604B6813F4001F5ED03E4AD36843EACB
:101B30000E03D3604B6813F4003F5BD0394A5368FF
:101B400043EA0E0353604B6813F4803F58D0354A84
:101B5000136843EA0E0313600CF1010C0A6832FAB1
:101B60000CF353D0012303FA0CF302EA030E33EA19
:101B70000202F1D14A68122A3FF649AF122A3FF613
:101B800066AF01A555F822F0371A0008CF1A0008F1
:101B9000D91A0008EB1A00084F1A00084F1A00085B
:101BA0004F1A00084F1A00084F1A00084F1A000871
:101BB0004F1A00084F1A00084F1A00084F1A000861
:101BC0004F1A00084F1A00084F1A0008D31A0008CD
:101BD000DF1A0008012395E7022393E7114A93686F
:101BE00023EA0E0393609CE70E4AD36823EA0E03B0
:101BF000D3609FE70B4A536823EA0E035360A2E7C2
:101C0000084A136823EA0E031360A5E702B070BD0B
:101C100000002210000031100010024000000140BE
:101C200000080140000401400AB101617047090445
:101C300001617047C36801EA030221EA030141EA36
:101C4000024101617047000082B0084B1B68084ADE
:101C5000A2FB03235B0A00FB03F3019300BF019B7C
:101C60005A1E0192002BF9D102B0704700000020EB
:101C7000D34D6210002800F0F18170B582B00446A7
:101C8000036813F0010F2CD0994B5B6803F00C0331
:101C9000042B1DD0964B5B6803F00C03082B12D06D
:101CA0006368B3F5803F41D0002B55D103F18043E9
:101CB00003F504331A6822F480321A601A6822F499
:101CC00080221A6037E08A4B5B6813F4803FE7D0CC
:101CD000874B1B6813F4003F03D06368002B00F0B0
:101CE000BF81236813F0020F75D0814B5B6813F03E
:101CF0000C0F5FD07E4B5B6803F00C03082B54D0B5
:101D00002369002B00F08A807A4B01221A60FFF7CA
:101D100083FC0546764B1B6813F0020F75D1FFF765
:101D20007BFC401B0228F5D903209EE1704A136812
:101D300043F480331360636843B3FFF76DFC0546DB
:101D40006B4B1B6813F4003FCBD1FFF765FC401BC6
:101D50006428F5D9032088E1B3F5A02F09D0644B9E
:101D60001A6822F480321A601A6822F480221A60FB
:101D7000E1E703F18043A3F53C331A6842F4802283
:101D80001A601A6842F480321A60D4E7FFF744FC04
:101D90000546574B1B6813F4003FA2D0FFF73CFCED
:101DA000401B6428F5D903205FE1514B5B6813F4B5
:101DB000803FA5D14E4B1B6813F0020F03D023695F
:101DC000012B40F04F814A4A136823F0F803616900
:101DD00043EAC1031360236813F0080F33D0A369EB
:101DE000002B5CD0434B0122C3F88024FFF714FC86
:101DF00005463F4B5B6A13F0020F21D1FFF70CFC45
:101E0000401B0228F5D903202FE1394A136823F03B
:101E1000F803616943EAC1031360DCE7354B002234
:101E20001A60FFF7F9FB0546314B1B6813F0020FF0
:101E3000D1D0FFF7F1FB401B0228F5D9032014E1B4
:101E40000120FFF701FF236813F0040F00F09680D4
:101E5000274BDB6913F0805F34D1254BDA6942F000
:101E60008052DA61DB6903F080530193019B012505
:101E7000214B1B6813F4807F26D0E368012B3DD0F3
:101E8000002B53D103F1804303F504331A6A22F087
:101E900001021A621A6A22F004021A6233E0154B38
:101EA0000022C3F88024FFF7B7FB0546104B5B6A9E
:101EB00013F0020FC7D0FFF7AFFB401B0228F5D984
:101EC0000320D2E00025D3E70B4A136843F4807364
:101ED0001360FFF7A1FB0646074B1B6813F4807FD6
:101EE000CBD1FFF799FB801B6428F5D90320BCE018
:101EF0000010024000004242007000405F4A136A36
:101F000043F001031362E36833B3FFF785FB064632
:101F10005A4B1B6A13F0020F2FD1FFF77DFB801B7A
:101F200041F288339842F3D903209EE0052B09D073
:101F3000524B1A6A22F001021A621A6A22F0040253
:101F40001A62E0E74D4B1A6A42F004021A621A6AFA
:101F500042F001021A62D6E7FFF75EFB0646474BE6
:101F60001B6A13F0020F08D0FFF756FB801B41F2EB
:101F700088339842F3D9032077E0E5B9E369002B71
:101F800072D03E4A526802F00C02082A56D0022B48
:101F900017D03B4B00221A66FFF73EFB0446374B37
:101FA0001B6813F0007F47D0FFF736FB001B0228A9
:101FB000F5D9032059E0314AD36923F08053D36126
:101FC000DCE72F4B00221A66FFF726FB05462B4B5A
:101FD0001B6813F0007F06D0FFF71EFB401B022892
:101FE000F5D9032041E0236AB3F5803F1AD0234995
:101FF0004B6823F47413226A606A024313434B60F4
:102000001F4B01221A66FFF707FB04461B4B1B6898
:1020100013F0007F0ED1FFF7FFFA001B0228F5D95D
:10202000032022E0154A536823F40033A1680B43D0
:102030005360DCE7002018E0002016E0012B16D0EA
:102040000E4B5B6803F48031226A914211D103F494
:102050007013626A93420ED1002006E0012070479F
:10206000012002E0012000E0002002B070BD01204C
:10207000FBE70120F9E70120F7E700BF001002406D
:10208000000042420F4B5B6803F00C02082A01D0AB
:102090000D487047C3F383420C49885C13F4803FBA
:1020A0000BD0084B5B68C3F34043094AD35C064A34
:1020B00002FB00F0B0FBF3F07047064B03FB00F0AF
:1020C000704700BF0010024000127A0088BD00086F
:1020D00098BD000800093D00002800F0A08070B500
:1020E0000D460446524B1B6803F007038B420BD28C
:1020F0004F4A136823F007030B431360136803F080
:1021000007038B4240F08D80236813F0020F17D035
:1021100013F0040F04D0474A536843F4E06353605C
:10212000236813F0080F04D0424A536843F4605305
:102130005360404A536823F0F003A1680B43536097
:10214000236813F0010F31D06368012B20D0022BDC
:1021500025D0384A126812F0020F64D035494A6817
:1021600022F0030213434B60FFF756FA0646314B49
:102170005B6803F00C036268B3EB820F16D0FFF7C5
:102180004BFA801B41F288339842F0D9032045E096
:10219000284A126812F4003FE0D101203EE0254AAF
:1021A000126812F0007FD9D1012037E0204B1B6864
:1021B00003F00703AB420AD91D4A136823F0070353
:1021C0002B431360136803F00703AB422DD1236840
:1021D00013F0040F06D0174A536823F4E063E16854
:1021E0000B435360236813F0080F07D0114A53685C
:1021F00023F46053216943EAC1035360FFF742FFB0
:102200000C4B5B68C3F303130B4AD35CD8400B4BF6
:1022100018600B4B1868FFF719F8002070BD0120FB
:1022200070470120FAE70120F8E70120F6E700BF38
:10223000002002400010024070BD00080000002095
:1022400008000020014B1868704700BF0000002004
:1022500008B5FFF7F7FF044B5B68C3F30223034A9B
:10226000D35CD84008BD00BF0010024080BD00080C
:1022700008B5FFF7E7FF044B5B68C3F3C223034ACB
:10228000D35CD84008BD00BF0010024080BD0008EC
:102290000F2303600B4B5A6802F0030242605A6836
:1022A00002F0F00282605A6802F4E062C2605B6889
:1022B000DB0803F4E0630361034B1B6803F00703CF
:1022C0000B60704700100240002002407047000081
:1022D00090F83D30DBB2012B27D1022380F83D304E
:1022E0000268D36843F00103D3600368114A934244
:1022F00010D0B3F1804F0DD0A2F59432934209D0A3
:1023000002F58062934205D01A6842F001021A6019
:10231000002070479A6802F00702062A07D01A6860
:1023200042F001021A60002070470120704700202F
:10233000704700BF002C01407047704770477047DE
:1023400010B5044603681A6912F0020F11D0DA685A
:1023500012F0020F0DD06FF002021A610123037711
:1023600003689B6913F0030F70D0FFF7E6FF0023AB
:10237000237723681A6912F0040F12D0DA6812F07A
:10238000040F0ED06FF004021A6102232377236832
:102390009B6913F4407F5FD02046FFF7CEFF0023F8
:1023A000237723681A6912F0080F12D0DA6812F046
:1023B000080F0ED06FF008021A61042323772368F8
:1023C000DB6913F0030F4ED02046FFF7B6FF002362
:1023D000237723681A6912F0100F12D0DA6812F00E
:1023E000100F0ED06FF010021A61082323772368B4
:1023F000DB6913F4407F3DD02046FFF79EFF0023AA
:10240000237723681A6912F0010F03D0DA6812F0FB
:10241000010F36D123681A6912F0800F03D0DA68F1
:1024200012F0800F34D123681A6912F0400F03D0E4
:10243000DA6812F0400F32D123681A6912F0200FC7
:1024400003D0DA6812F0200F30D110BDFFF774FF0F
:102450002046FFF773FF8AE72046FFF76DFF20460F
:10246000FFF76CFF9BE72046FFF766FF2046FFF76C
:1024700065FFACE72046FFF75FFF2046FFF75EFFF2
:10248000BDE76FF001021A612046FEF75BFEC1E76F
:102490006FF080021A61204600F077F8C3E76FF012
:1024A00040021A612046FFF74AFFC5E76FF020029D
:1024B0001A61204600F068F8C7E7000003681B4A6D
:1024C00090420AD0B0F1804F07D0A2F594329042EA
:1024D00003D002F58062904203D123F070034A6872
:1024E0001343124A90420AD0B0F1804F07D0A2F5B0
:1024F0009432904203D002F58062904203D123F4DB
:102500004073CA68134323F080034A69134303608E
:102510008B68C3620B688362044B984202D001232C
:10252000436170470B690363F9E700BF002C01406A
:1025300040B310B5044690F83D30F3B1022384F85F
:102540003D30214651F8040BFFF7B8FF012384F812
:10255000463084F83E3084F83F3084F8403084F8C8
:10256000413084F8423084F8433084F8443084F8B1
:10257000453084F83D30002010BD80F83C30FFF736
:10258000A5FEDBE70120704770477047026802F143
:102590000C0353E8003F23F0C0030C3242E8003143
:1025A0000029F3D1202380F841307047026802F1FE
:1025B0000C0353E8003F23F490730C3242E80031DF
:1025C0000029F3D1026802F1140353E8003F23F01D
:1025D0000103143242E800310029F3D1036B012BCF
:1025E00005D0202380F8423000230363704702683F
:1025F00002F10C0353E8003F23F010030C3242E8D1
:1026000000310029F3D1ECE790F84130DBB2212B07
:1026100001D0022070478368B3F5805F17D0036A4A
:102620005A1C02621A7803685A60C38C9BB2013B41
:102630009BB2C3844BB90268D36823F08003D36094
:102640000268D36843F04003D360002070470369F9
:10265000002BE4D1036A1B880268C3F308035360AC
:10266000036A02330362E0E710B5044602681369A7
:1026700023F44053C1680B43136183680269134319
:1026800042691A430168CB6823F4B05323F00C036A
:102690001343CB600268536923F4407381690B4391
:1026A00053610268134B9A4220D0FFF7D1FD0246D6
:1026B00002EB820202EB820263689B00B2FBF3F240
:1026C0000D48A0FB02314909642303FB11231B01C0
:1026D0003233A0FB03235B0903F0F00202EB01128B
:1026E00003F00F03216813448B6010BDFFF7C0FD9A
:1026F0000246DDE7003801401F85EB512DE9F84324
:1027000005460F4616469946DDF820802C68246859
:1027100037EA04030CBF4FF0010C4FF0000CB44536
:102720002DD1B8F1FF3FF1D0B8F1000F05D0FEF781
:1027300073FFA0EB09004045E8D92A6802F10C03B9
:1027400053E8003F23F4D0730C3242E800310029F3
:10275000F3D12A6802F1140353E8003F23F0010388
:10276000143242E800310029F3D1202385F84130AA
:1027700085F84230002385F84030032000E0002037
:10278000BDE8F88360B310B5044690F8413013B348
:10279000242384F841302268D36823F40053D360A3
:1027A0002046FFF761FF2268136923F49043136109
:1027B0002268536923F02A0353612268D36843F4E3
:1027C0000053D36000206064202384F8413084F8F3
:1027D0004230606310BD80F84030FEF71FFED7E73F
:1027E000012070472DE9F04182B01E4690F841303B
:1027F000DBB2202B4BD104460D46904600294AD02F
:102800000AB9012044E000234364212380F84130C9
:10281000FEF702FF0746A4F82480A4F82680A368E8
:10282000B3F5805F02D04FF000080FE02369FBB1E1
:102830004FF000080AE038F8023B2268C3F30803AF
:102840005360E28C92B2013A92B2E284E38C9BB282
:102850008BB100963B46002280212046FFF74EFFB9
:10286000D8B9002DE7D015F8012B23685A60E8E7A6
:10287000A8460025EAE700963B4600224021204674
:10288000FFF73CFF58B9202384F8413000E00220D4
:1028900002B0BDE8F0810120FAE70320F8E7032049
:1028A000F6E72DE9F04182B01E4690F84230DBB2E7
:1028B000202B53D104460D469046002952D00AB928
:1028C00001204CE000234364222280F8422003636D
:1028D000FEF7A2FE0746A4F82C80A4F82E80A36879
:1028E000B3F5805F02D04FF0000817E0236913B101
:1028F0004FF0000812E0A84600250FE023685B684F
:10290000C3F3080328F8023B03E023685B682B70DD
:102910000135E28D92B2013A92B2E285E38D9BB22B
:10292000BBB100963B46002220212046FFF7E6FE81
:10293000D0B9002DE2D0A368B3F5805FE5D013B91C
:102940002369002BE1D023685B6803F07F032B70C1
:10295000DEE7202384F84230002000E0022002B0AD
:10296000BDE8F0810120FAE70320F8E7704708B5D9
:102970000168CA6822F04002CA60202280F8412023
:10298000FFF7F4FF002008BD7047704710B5446A98
:1029900023685A6994F84130DBB2212B10D02368A8
:1029A0005A6902F0400294F84230DBB2222B11D077
:1029B000636C43F0100363642046FFF7E6FF10BD2D
:1029C00002F08002002AEAD00023E3842046FFF7C9
:1029D000DDFDE4E7002AEBD00023E3852046FFF786
:1029E000E5FDE5E708B5406A0023C385C384FFF72A
:1029F000CCFF08BD704790F84230DBB2222B69D182
:102A00008368B3F5805F4FD0826AB3F5805F04D0EE
:102A1000002B56D10369002B53D103685B681370F8
:102A2000836A01338362C38D9BB2013B9BB2C38532
:102A3000002B51D100B583B00268D36823F0200386
:102A4000D3600268D36823F48073D360026853694B
:102A500023F001035361202380F8423000234363B5
:102A6000036B012B33D100230363026802F10C03D3
:102A700053E8003F23F010030C3242E800310029F4
:102A8000F3D103681A6812F0100F06D000220192E9
:102A90001A6801925B680193019B818DFFF7AAFF81
:102AA000002003B05DF804FB0269002AACD1826A01
:102AB00003685B68C3F308031380836A023383628D
:102AC000B1E703685B6803F07F031370A8E7FEF7C4
:102AD000B3FAE5E7022070470020704730B583B0B5
:102AE000044602681368D068516913F00F0505D1D8
:102AF00013F0200F02D010F0200F19D12DB111F0DA
:102B0000010119D110F4907F16D1216B01297DD0DC
:102B100013F0800F03D010F0800F40F0188113F0F5
:102B2000400F03D010F0400F40F0158103B030BDCE
:102B30002046FFF760FFF9E713F0010F06D010F40D
:102B4000807F03D0626C42F00102626413F0040FD4
:102B500004D019B1626C42F00202626413F0020FF9
:102B600004D019B1626C42F00402626413F0080FE1
:102B700007D010F0200F00D119B1626C42F00802AA
:102B80006264626C002AD1D013F0200F02D010F0E2
:102B9000200F29D123685B6903F04003626C12F0B7
:102BA000080F00D163B32046FFF700FD23685B697F
:102BB00013F0400F20D0226802F1140353E8003FC5
:102BC00023F04003143242E800310029F3D1E36BD3
:102BD00073B1634A5A63E06BFEF726FE0028A5D066
:102BE000E06B436B9847A1E72046FFF704FFD1E76E
:102BF0002046FFF7CAFE99E72046FFF7C6FE95E795
:102C00002046FFF7C2FE002363648FE713F0100F26
:102C10003FF47EAF10F0100F3FF47AAF0023019322
:102C20001368019353680193019B536913F0400F9C
:102C300051D0E26B13685B689BB2002B3FF476AF18
:102C4000A18D99427FF672AFE3859369202B37D02F
:102C5000226802F10C0353E8003F23F480730C3226
:102C600042E800310029F3D1226802F1140353E84D
:102C7000003F23F00103143242E800310029F3D170
:102C8000226802F1140353E8003F23F0400314329A
:102C900042E800310029F3D1202384F84230002398
:102CA0002363226802F10C0353E8003F23F0100372
:102CB0000C3242E800310029F3D1E06BFEF791FDC0
:102CC00002236363A18DE38D9BB2C91A89B22046AA
:102CD000FFF790FE2AE7A18DE38D9BB2C91A89B256
:102CE000E38D9BB2002B3FF421AF00293FF41EAFD0
:102CF000226802F10C0353E8003F23F490730C3276
:102D000042E800300028F3D1226802F1140353E8AE
:102D1000003F23F00103143242E800300028F3D1D1
:102D2000202384F8423000232363226802F10C033D
:102D300053E8003F23F010030C3242E80030002833
:102D4000F3D1022363632046FFF754FEEEE62046EC
:102D5000FFF75AFCEAE62046FFF709FEE6E600BF69
:102D6000E529000808B5406A01234363036B012B82
:102D700002D0FFF709FE08BD818D4908FFF73AFE32
:102D8000F9E708B50346406A1B681B6813F0200F7B
:102D90002BD10023C385026802F10C0353E8003FE6
:102DA00023F480730C3242E800310029F3D1026829
:102DB00002F1140353E8003F23F00103143242E808
:102DC00000310029F3D1026802F1140353E8003FF7
:102DD00023F04003143242E800310029F3D12023CC
:102DE00080F84230036B012B07D000234363036B51
:102DF000012B0FD0FEF720F908BD026802F10C0389
:102E000053E8003F23F010030C3242E80031002960
:102E1000F3D1EAE7818DFFF7EDFDEDE78162828571
:102E2000C28500234364222380F84230036923B122
:102E30000268D36843F48073D3600268536943F037
:102E4000010353610268D36843F02003D36000207C
:102E5000704708B590F84230DBB2202B08D149B159
:102E60000AB9012008BD00230363FFF7D7FFF9E784
:102E70000220F7E70120F5E730B583B0044613469A
:102E80008162828500254564222280F84220C26B3F
:102E90001F489062E26B1F48D062E26B1E481063CD
:102EA000E26B556320680A46011DE06BFEF75EFC8D
:102EB000019523681A6801925B680193019B23695D
:102EC0005BB1226802F10C0353E8003F43F48073C6
:102ED0000C3242E800310029F3D1226802F11403D8
:102EE00053E8003F43F00103143242E80031002967
:102EF000F3D1226802F1140353E8003F43F040038A
:102F0000143242E800310029F3D1002003B030BD73
:102F1000832D0008652D00088D29000808B590F85C
:102F20004230DBB2202B08D149B10AB9012008BDDB
:102F300000230363FFF7A0FFF9E70220F7E7012072
:102F4000F5E7842801D0033070470020704708B5AA
:102F500000F0CCFC002008BD2DE9F04387B004460A
:102F60000F464569BDB18669AEB1D0F80480D0F88E
:102F70000090B0F90800FFF7E4FF02960195009079
:102F80003B4622694946404600F042FC05900598C0
:102F900007B0BDE8F08365682668D4F81080B4F9FE
:102FA0000800FFF7CEFF05AB019300903B461FFAE8
:102FB00088F23146284600F065FC0128E7D0002061
:102FC000E6E708B500B9012000F0DAFD002008BDF1
:102FD00000F1080343604FF0FF328260C360036179
:102FE00000230360704700230361704743684B6010
:102FF0009A688A60516099600861036801330360D0
:10300000704730B40D68B5F1FF3F11D000F10803EF
:103010001C465B681A68AA42FAD963684B609960DB
:103020008C606160086103680133036030BC7047E5
:103030000469F2E70369416882688A604168516007
:103040005A68824206D0002202611A68013A1A6068
:103050001868704782685A60F5E7000082B0002364
:1030600001930D4B1B68B3F1FF3F08D04FF05003A5
:1030700083F31188BFF36F8FBFF34F8FFEE74FF0DD
:10308000500383F31188BFF36F8FBFF34F8F019B02
:10309000002BFCD002B070470C00002006480068EE
:1030A000006880F3088862B661B6BFF34F8FBFF344
:1030B0006F8F00DF00BF000008ED00E04FF080736D
:1030C00040F8043C21F0010140F8081C034B40F893
:1030D0000C3C40F8202C4038704700BF5D300008A1
:1030E000074B19680868B0E8F00F80F30988BFF350
:1030F0006F8F4FF0000080F311884EF00D0E704777
:10310000F81A00204FF0500383F31188BFF36F8F3C
:10311000BFF34F8F0B4A136801331360012B00D0AC
:1031200070474FF0E023D3F8043D13F0FF0FF7D0C2
:103130004FF0500383F31188BFF36F8FBFF34F8FAE
:10314000FEE700BF0C000020094B1B6843B94FF09D
:10315000500383F31188BFF36F8FBFF34F8FFEE7E8
:10316000013B034A13600BB983F31188704700BF1A
:103170000C00002000000000000000000000000023
:10318000EFF30980BFF36F8F0D4B1A6820E9F00F42
:1031900010602DE908404FF0500080F3118800F0D6
:1031A00015FD4FF0000080F31188BDE80840196854
:1031B0000868B0E8F00F80F30988BFF36F8F70479D
:1031C000F81A002008B54FF0500383F31188BFF3BD
:1031D0006F8FBFF34F8F00F0CBFB28B14FF0E02390
:1031E0004FF08052C3F8042D002383F3118808BDEB
:1031F0004FF0E022002313619361054B1B680549E2
:10320000A1FB03139B09013B536107231361704723
:1032100000000020D34D621010B582B02A4B1A78FE
:10322000D2B20192FF221A701B78DBB28DF8033004
:103230009DF8033003F05003244A1370244B0722F7
:103240001A6009E0224A1368013B13609DF80330BD
:103250005B00DBB28DF803309DF8033013F0800F74
:10326000F0D11B4B1B68032B08D04FF0500383F3A6
:103270001188BFF36F8FBFF34F8FFEE71B02144A15
:10328000136003F4E0631360019BDBB20E4A13701A
:103290004FF0E023D3F8202D42F47002C3F8202D24
:1032A000D3F8202D42F07042C3F8202DFFF7A0FF85
:1032B0000024084B1C60FFF7F1FE00F087FCFFF7CD
:1032C000CDFE204602B010BD00E400E0D80E002084
:1032D000DC0E00200C000020124A12F0070F1ED056
:1032E000D11D21F00701C1F5406313440A460E4881
:1032F0000260002141601344083B23F007030B48A0
:10330000036059601960991A51601360084B196085
:10331000084B1960084B4FF000421A6070474FF499
:103320004063E4E7E40E0020F01A0020E00E0020E5
:10333000EC1A0020E81A0020E41A0020154B1A4667
:103340001B688342FBD3516802EB010C844509D012
:10335000416800EB010C634509D00360904218D02E
:10336000106070474068014451601046F0E710B4A7
:10337000094C2468A3420AD05B6819444160136871
:103380001B680360904200D0106010BC704704605E
:10339000F8E77047F01A0020E00E002070B50546EF
:1033A00000F0DEFA344B1B68A3B1344B1B681D429E
:1033B0004AD135B1083515F0070F02D025F00705C1
:1033C0000835002D42D02E4B1B68AB424DD32D4A01
:1033D000146804E0FFF780FFE7E722461C466368B5
:1033E000AB4202D22368002BF7D1234B1B68A342C8
:1033F0003DD0166808362368136063685B1B102B8A
:1034000010D9601910F0070F08D04FF0500383F364
:103410001188BFF36F8FBFF34F8FFEE74360656086
:10342000FFF78CFF626816490B689B1A0B60164900
:1034300009688B4201D214490B60104B1B6813437F
:1034400063600023236002E0002600E0002600F015
:103450001BFB16F0070F0CD04FF0500383F31188BD
:10346000BFF36F8FBFF34F8FFEE70026EFE7002615
:10347000EDE7304670BD00BFE00E0020E41A0020EA
:10348000E81A0020F01A0020EC1A002080B338B5AA
:103490000446A0F1080550F8043C164A126813428D
:1034A00008D14FF0500383F31188BFF36F8FBFF340
:1034B0004F8FFEE750F8081C41B14FF0500383F3E3
:1034C0001188BFF36F8FBFF34F8FFEE723EA02032C
:1034D00040F8043C00F044FA54F8041C064A13680F
:1034E0000B4413602846FFF729FF00F0CDFA38BDE2
:1034F000704700BFE41A0020E81A0020084B1B6840
:103500001B6823B9074B4FF0FF321A607047044B1A
:103510001B68DB68DB685A68024B1A60704700BFA3
:10352000FC1A0020D41B00202DE9F04707469846DE
:10353000089DDDF824900A9C266B02F18042013A36
:1035400006EB820626F007064FF0000CBCF10F0FC9
:103550000BD811F80C2004EB0C0383F8342011F87D
:103560000C3013B10CF1010CF0E7002384F8433068
:10357000062D00D90625E56265644FF0000AC4F8FF
:1035800048A0201DFFF72FFD04F11800FFF72BFDC9
:103590002461C5F10705A5616462C4F84CA084F8F4
:1035A00050A0424639463046FFF788FD2060B9F109
:1035B000000F01D0C9F80040BDE8F08738B50024FD
:1035C00007E004EB840293000E481844FFF700FD67
:1035D0000134062CF5D90C4D2846FFF7F9FC0B4CAD
:1035E0002046FFF7F5FC0A48FFF7F2FC0948FFF711
:1035F000EFFC0948FFF7ECFC084B1D60084B1C6012
:1036000038BD00BF041B0020A81B0020BC1B0020ED
:10361000DC1B0020081C0020F41B0020FC1A0020EA
:10362000001B002010B50446FFF76CFD214A13680B
:1036300001331360204B1B685BB1204B1B686BB9D7
:103640001D4B1B68DA6AE36A9A4207D81A4B1C6062
:1036500004E0194B1C601368012B28D0184A13682A
:1036600001331360E06A01238340164A11680B435B
:10367000136000EB8000211D134B03EB8000FFF76C
:10368000B5FCFFF761FD0D4B1B687BB10A4B1B6856
:10369000DA6AE36A9A4209D24FF0E0234FF080528F
:1036A000C3F8042DBFF34F8FBFF36F8F10BDFFF72B
:1036B00085FFD3E7901B0020F81A0020F01B0020A4
:1036C000A01B0020A41B0020041B002010B50446F2
:1036D00090F8513063B1012B11D0022B0ED04FF076
:1036E000500383F31188BFF36F8FBFF34F8FFEE753
:1036F000006BFFF7CBFE2046FFF7C8FE10BDFFF7BB
:10370000C5FEFBE70F4B1B68D3B110B5FFF7FAFC02
:103710000D4BDB68DC68201DFFF78CFC0B4A13683F
:10372000013B1360074A1368013B1360FFF70CFD70
:103730002046FFF7CBFF034B1B68002BE6D110BDE3
:10374000704700BF941B0020081C0020901B002025
:1037500008B5FFF7D7FF074B1B68012BF9D94FF0CE
:10376000E0234FF08052C3F8042DBFF34F8FBFF317
:103770006F8FEEE7041B002070B504460D461D4B0D
:103780001E681D4B18680430FFF754FC50B91A4BE3
:103790001B68DA6A012303FA02F218490B6823EA6C
:1037A00002030B60B4F1FF3F0DD03444124B1B6891
:1037B0005C60A64210D9124B18680F4B196804318F
:1037C000FFF71FFC70BD002DEFD00B4B19680431C3
:1037D0000C48FFF70BFCF5E70B4B1868064B196814
:1037E0000431FFF70EFC094B1B68A342EAD9074BD3
:1037F0001C60E7E71C1C0020F81A0020A41B002016
:10380000001B0020F41B0020FC1A0020D41B002009
:1038100030B587B00B9C7CB10C9DB5B15425049597
:10382000049D542D1AD04FF0500383F31188BFF339
:103830006F8FBFF34F8FFEE74FF0500383F3118874
:10384000BFF36F8FBFF34F8FFEE74FF0500383F34B
:103850001188BFF36F8FBFF34F8FFEE70C9D2C6372
:10386000022485F8514000240394029505AC01948C
:103870000A9C0094FFF758FE0C98FFF7D3FE0598BA
:1038800007B030BD2DE9F04385B0074688461446A1
:103890001E469000FFF782FD00B381465420FFF7DB
:1038A0007DFD0546B0B1C0F83090E5B1002385F844
:1038B0005130039302950D9B01930C9B009333466B
:1038C000224641463846FFF72FFE2846FFF7AAFE5C
:1038D000012005E04846FFF7D9FDE6E74FF0FF304D
:1038E00005B0BDE8F0834FF0FF30F9E710B588B0C0
:1038F00000240594069407AA06A905A8FDF74EFB27
:10390000059B0293069B019300942346079A0E4958
:103910000E48FFF77DFF0E4B186090B14FF050033B
:1039200083F31188BFF36F8FBFF34F8F094B4FF0B5
:10393000FF321A60084B01221A60084B1C60FFF727
:103940006BFC08B010BD00BF9CBD000851370008DB
:10395000D01B0020D41B0020F01B00201C1C0020CA
:10396000024A136801331360704700BF9C1B00209C
:10397000F8B53A4B1B68002B64D1394B1D680135F3
:103980001D60C5B9374B1B681B6843B14FF050032E
:1039900083F31188BFF36F8FBFF34F8FFEE7314A78
:1039A0001168314B186810601960304A1368013390
:1039B0001360FFF7A3FD2E4B1B68AB4238D90027DD
:1039C0002C4B1B68DB6A03EB83039A002A4B9B5842
:1039D000012B3CD901273AE00127224B1B681B68C9
:1039E00043B3204B1B68DB68DC6863689D4226D3C9
:1039F000261D3046FFF71EFBA36A1BB104F1180019
:103A0000FFF718FBE36A01229A401C490868024349
:103A10000A6003EB83039A00314617481044FFF70E
:103A2000E5FAE26A134B1B68DB6A9A42D4D2D4E708
:103A30000027D2E70E4B4FF0FF321A60C0E70C4A66
:103A40001360BDE70E4A13680133136000270D4B66
:103A50001B6803B101273846F8BD00BF9C1B00203E
:103A60001C1C0020FC1A0020001B0020D81B00207A
:103A7000D41B0020F81A0020041B0020A41B0020E7
:103A8000981B0020201C002038B5354B1B6843B91B
:103A90004FF0500383F31188BFF36F8FBFF34F8F45
:103AA000FEE7FFF72FFB2E4B1A68013A1A601B68DE
:103AB000002B4FD12B4B1B680BB900244BE000248B
:103AC000294B1B681BB3284BDB68DC6804F118002A
:103AD000FFF7B0FA251D2846FFF7ACFAE06A01238C
:103AE0008340224A11680B43136000EB8000294693
:103AF0001F4B03EB8000FFF779FAE26A1D4B1B684E
:103B0000DB6A9A42DCD31C4B01221A60D8E70CB165
:103B1000FFF7F4FC194B1C6884B9174B1C68D4B12F
:103B20004FF0E0234FF08052C3F8042DBFF34F8FC6
:103B3000BFF36F8F01240EE0013C07D0FFF718FFA1
:103B40000028F9D00C4B01221A60F5E70B4B00223C
:103B50001A60E2E70024FFF7F7FA204638BD00BFFD
:103B60009C1B0020901B0020DC1B0020A41B0020BD
:103B7000041B0020F81A0020201C0020981B0020A5
:103B800010B5A8B10446104B1B6843B14FF0500369
:103B900083F31188BFF36F8FBFF34F8FFEE7FFF7FB
:103BA000DFFE00212046FFF7E7FDFFF76DFF48B974
:103BB0004FF0E0234FF08052C3F8042DBFF34F8F36
:103BC000BFF36F8F10BD00BF9C1B0020204B1B68F4
:103BD0001BB1204B01221A6070471E4B00221A6055
:103BE0001D4B1B68B3FA83F3DBB2C3F11F0303EB76
:103BF00083018A0019498A5842B94FF0500383F370
:103C00001188BFF36F8FBFF34F8FFEE7134903EBAC
:103C1000830082000A4450684068506003EB830CC4
:103C20004FEA8C0208321144884209D003EB830327
:103C30009A000A4B13445B68DA68094B1A607047B4
:103C4000406862469100054A0A445060EEE700BFB2
:103C50009C1B0020201C0020A41B0020041B002013
:103C6000F81A002000238380C27963F34102C271F5
:103C7000D2B263F30002C271837101600367C3664D
:103C8000704710B50C4642F20F738A880831FEF770
:103C9000A9FD002304E0E218002111720133DBB218
:103CA0009AB2A1888A42F6D3E3796FF30003E371F5
:103CB0000023A380A371E366236710BD08B5054BFD
:103CC0001860054B1868002302221946806800F02E
:103CD0003FF908BD241C002010000020022801D854
:103CE0000120704708B500F0A3F809230360002005
:103CF00008BD000010B5013801280AD814464FF05D
:103D0000FF3392B207480068FEF76CFD40B92046C9
:103D100010BD00F08DF8092303604FF0FF30F7E786
:103D20000520F5E7241C0020022801D80020704758
:103D300008B500F07DF8092303604FF0FF3008BD9F
:103D400008B500F075F8092303604FF0FF3008BD97
:103D500008B548B94FF0FF33012208480068FEF764
:103D6000A0FD40B9012008BD00F062F809230360FE
:103D70004FF0FF30F7E70520F5E700BF241C0020D7
:103D800008B5022804D84FF400534B60002008BD4A
:103D900000F04EF809230360F8E700000FB410B5F7
:103DA000A2B024AB53F8042B0193802102A801F0A8
:103DB00095FF002408E04FF0FF33012202A92144BF
:103DC0000748FEF70FFD013404F188036B4413F834
:103DD000803C002BEFD122B0BDE8104004B070470A
:103DE000440E0020FDF7CAFA0B480C490C4A002388
:103DF00002E0D458C4500433C4188C42F9D3094AA1
:103E0000094C002301E013600432A242FBD300F00E
:103E100015F8FDF7D7F9704700000020C009002011
:103E2000D4C10008C0090020701C0020FEE700007B
:103E3000014B1868704700BF1000002070B50D4E90
:103E40000D4D761BB61006D0002455F8043B013406
:103E50009847A642F9D1094E094D07F023FF761B7A
:103E6000B61006D0002455F8043B01349847A6420A
:103E7000F9D170BDC8C10008C8C10008D0C1000890
:103E8000C8C10008830730B548D0541E002A3FD06F
:103E90000346CAB201E0013C3AD303F8012B9D0767
:103EA000F9D1032C2DD9CDB245EA05250F2C45EAD1
:103EB000054536D9A4F1100222F00F0C03F1200EB3
:103EC000E6444FEA121C03F1100242E9045542E9AC
:103ED000025510327245F8D10CF1010214F00C0FAA
:103EE00003EB021204F00F0C13D0ACF1040323F027
:103EF00003030433134442F8045B9342FBD10CF0F8
:103F000003042CB1CAB21C4403F8012B9C42FBD120
:103F100030BD64461346002CF4D1F9E7034614463D
:103F2000BFE71A46A446E0E70FB400B5074A83B0DE
:103F300004AB106853F8042B8168019300F0E0F89B
:103F400003B05DF804EB04B0704700BF1000002020
:103F50002DE9F043694C0E46D4F80080174604461C
:103F60001D4683B0B8F1000F03D0D8F83830002BCD
:103F700077D0022F05D0012F00F2AC80002DC0F2C7
:103F8000A980636EDA0752D52146404602F0E4FF6D
:103F9000216B41B104F14003994202D0404603F045
:103FA00007F9002323630023B4F90CC0A3611CF0BC
:103FB000800F636064D12CF44A6C2CF0030C022F48
:103FC000A4F80CC06AD001AB214640466A4603F013
:103FD0008FFAA3891843A081002D2FD0002E2ED058
:103FE000D8F83830002B38D0009BC4E90465AB42C8
:103FF000B4F90C3026601CBF43F40063A381012F89
:1040000004BF43F00103A3819AB213F008032CD03C
:10401000D1075DD500216D42A561656EA16015F0E7
:10402000010527D00025284603B0BDE8F083A38909
:104030009B05A9D4A06D03F0E7F9A5E7009D2846EC
:1040400003F086FA0646002847D0A38943F0800390
:10405000A381D8F83830002BC6D1404602F0B0FF1B
:10406000C2E7404602F0ACFF83E7A360656E15F03F
:104070000105D7D1930524D5284603B0BDE8F083C8
:104080004046216903F094F8B4F90CC0022F2CF4D7
:104090004A6C2CF0030CA4F80CC094D1002500212C
:1040A000012204F1430323602361636E4CF0020C90
:1040B000D807A4F80CC0A1606261DDD41CF4007FB5
:1040C000DAD1A06D03F0A2F9284603B0BDE8F08371
:1040D000A560CBE74FF0FF35CEE7DDF80090A945AE
:1040E00004D0484603F034FA064620B94FF0FF35B5
:1040F000B4F90CC0D3E74D46A7E700BF100000207D
:104100002DE9F04FD5B01C46914607910546099020
:1041100003F072F902680E941046179204F054F9F5
:1041200016901DB1AB6B002B00F01D82079A536EE9
:10413000DD0740F12D81B2F90C2091B28F0409D432
:10414000079B42F400529A8191B21A465B6E23F4A7
:10415000005353660E0740F1C080079B1B69002B7C
:1041600000F0BB8001F01A030A2B00F0C480002489
:104170002BAB224698464D46CDE92944289312940C
:1041800000230024CDE914342B78CDE91922CDE9A0
:104190001B2218920B92002B00F08F81AA4604E09C
:1041A0001AF8013F002B00F0BB80252BF8D1BAEBA9
:1041B000050640F0B9809AF80030002B00F07D81B0
:1041C00000234FF0FF324FF02B0920241F469AF8AE
:1041D000016008920AF1010A8DF883300A930AF10E
:1041E000010AA6F120035A2B00F2E180DFE813F068
:1041F0000503DF00DF000003DF00DF00DF00DE0279
:10420000DF00DF006A006E02DF0055027802DF0087
:1042100073025B005B005B005B005B005B005B00AC
:104220005B005B00DF00DF00DF00DF00DF00DF009E
:10423000DF006C01DF00EA01C4016C016C016C015C
:10424000DF00DF00DF00DF00D002DF00DF0023023D
:10425000DF00DF00DF00F801DF009202DF00DF0097
:104260008707DF00DF00DF00DF00DF00DF00DF00A7
:10427000DF006C01DF00EA01C6016C016C016C011A
:10428000B602C601BF01DF00C302DF005A022502E9
:10429000A402BF01DF00F80172008407DF00DF0025
:1042A0006507DF0072000022A6F130031AF8016BE7
:1042B00002EB820203EB4202A6F13003092BF5D98F
:1042C0000A928EE70E9B53F8042B002A0A920E9353
:1042D000C0F2E0819AF8006081E7079D09982946BD
:1042E00001F032FD002841F04D83A98901F01A0345
:1042F0000A2B7FF43CAF079AB2F90E30002BFFF681
:1043000036AF536ED80702D4890541F14881234660
:104310004A460799099855B0BDE8F04F01F09CBC9A
:10432000BAEB050600F0C9802A9BC8E90056334461
:104330002A93299B0133072B299305DC08F10808F0
:104340000B9B33440B9336E70799099828AA05F08D
:104350002BFE80B90DF1AC08F2E70799099828AA5D
:1043600005F022FE002800F099800D9B1BB1194634
:10437000099802F01DFF079A536ED90740F1E880B3
:1043800093895B0601F10A830B9855B0BDE8F08F65
:10439000079BB3F90C20900591B23FF5CFAE1D46B7
:1043A000986D03F031F8B5F90C2091B2C6E6002EF5
:1043B00000F08380012300228DF8EC6006933BAD72
:1043C0008DF883200C930D9208920F921392109205
:1043D00017F0020302D006990231069117F0840B00
:1043E00007D10A990698A1EB0009B9F1000F00F373
:1043F00090832A9C82B10122C8F80420299A0134B2
:1044000001320DF18301072A2A942992C8F800107D
:1044100000F3D88308F108087BB10223C8F8043000
:10442000299B0234013321AA072B2A942993C8F827
:10443000002000F3D58308F10808BBF1800F00F0DD
:104440008882089B0C9AA3EB020BBBF1000F00F3D0
:10445000CB82FB0500F11F820C9BC8F800501C4466
:10446000C8F80430299B2A940133072B299300F3C1
:10447000448308F10808780705D50A9B069A9D1A17
:10448000002D00F3B983DDE90A2306998A42ACBF07
:104490009B185B180B93002C7FF45FAF00232993CC
:1044A0000D9B1BB10D99099802F082FE55460DF146
:1044B000AC082B78002B7FF471AE2A9B002B41F0C7
:1044C00010820023299356E70E9B073323F007023F
:1044D000F2E80234CDE91434DDE9143424F0004468
:1044E000994618460E9221464FF0FF32AB4BFCF72F
:1044F000FBFA002840F01885484621464FF0FF326D
:10450000A64BFCF7D3FA002840F00E85DDE9140134
:1045100000220023FCF7C0FA002840F065879DF8D0
:104520008320002103209E4D9E4B27F080070D9194
:104530000690472EC8BF1D4608910C900F9113910D
:104540001091002A3FF444AF069B013306933FE7E6
:10455000079B9B899A053FF514AF079CA06D02F05D
:1045600055FFA3890DE7099802F02AFDDEE59AF8C8
:10457000006047F0200732E647F01007BA060E9BAE
:1045800040F16E84073323F007031A465B6852F844
:10459000084B99460E92002BC0F26F84089B0133A2
:1045A00000F0FB8254EA090327F0800B40F0F6820A
:1045B000089B002B40F0F7825F46002354AD089320
:1045C0000C933DE1012000220E9B069053F8041B42
:1045D0003BAD8DF883208DF8EC100E930C90F2E635
:1045E0004FF000090E9C089B54F8045B8DF88390F3
:1045F000002D00F0A1855A1C00F0A5861A464946F8
:10460000284603F059FA0D90002801F050810D9BC7
:104610009DF883205B1B0C9323EAE373CDF8209075
:104620000E940693CDF83490CDF83C90CDF84C9094
:10463000CDF8409085E747F0100717F0200900F00B
:10464000F2830E9B073323F00703D3F8049053F84B
:10465000084B0E93002327F4806B00228DF88320F3
:10466000089A511C00F0D48054EA09012BF080070D
:1046700040F0CD80002A40F00486002B9DD11BF035
:1046800001030C9300F0308430230DF24F158DF8A8
:104690004F31D5E00A9B5B420A939AF8006047F0DD
:1046A00004079CE5BD0600F1FD84FC0600F1EE85E3
:1046B000780600F1B286B90540F1E8850E9B0B99AA
:1046C00053F8042B554611700E93F2E69AF80060E9
:1046D0008DF8839083E59AF8006047F080077EE5C7
:1046E000524612F8016B2A2E01F08D82A6F130039A
:1046F000092B924698BF002201F2E5801AF8016B5F
:1047000002EB820203EB4202A6F13003092BF5D93A
:10471000089266E547F0100B1BF0200900F091832A
:104720000E9B073323F007031A4652F8084BD3F8C1
:1047300004900E92012390E7302278260E9B8DF88C
:10474000842053F8044B184A0E934FF000090223BB
:1047500047F0020B8DF8856018927EE79AF80060AA
:10476000682E03BF9AF8016047F400770AF1010A46
:1047700047F0400733E59AF800606C2E03BF9AF8C3
:10478000016047F020070AF1010A47F0100726E50B
:104790009AF8006047F0080721E500BFFFFFEF7FB0
:1047A000A8BD0008ACBD0008B8BD0008099E304691
:1047B00002F022FE436818461B9303F005FE0346F1
:1047C00030461C931E4602F017FE83681993002E94
:1047D0003FF480AD199B002B3FF47CAD199B1B78F7
:1047E000002B3FF477AD9AF8006047F48067F6E459
:1047F0009AF8006047F00107F1E49DF88330002B40
:104800007FF468AD9AF800608DF88340E7E4BB461A
:10481000012B00F0C381022B54AD1FD1189A04F074
:104820000F03D35C240944EA09744FEA191905F807
:10483000013D54EA0903F2D15F4654AB5B1B0C9374
:10484000089A0C9900238A42B8BF0A460D93069233
:104850000F939DF883201393109372E604F00703DF
:10486000E40844EA49744FEAD909303354EA0901AB
:104870002A4605F8013DF1D11BF0010FDCD0302BA9
:10488000DAD03023023A05F8013C54AB9B1A5F465C
:1048900015460C93D4E7652E40F3E980DDE9140159
:1048A00000220023FCF7EEF8002800F0E18101234C
:1048B000C8F80430299BC04A01330134072B2A94DD
:1048C0002993C8F8002000F3BF8408F10808229B50
:1048D000129A934280F2DC82169B179A1C44C8E914
:1048E0000023299B2A940133072B299300F3178473
:1048F00008F10808129B5D1E002D7FF7BCAD102D3E
:1049000041F35D81DFF8B492224649461026B9464C
:10491000299B0F46DDF824B0079C05E008F1080844
:10492000103D102D40F39D8401331032072BC8E950
:104930000076CDE92932F1DD2146584628AA05F056
:1049400033FB00287FF411ADDDE929320DF1AC080D
:10495000E6E70A9B069AA3EB020BBBF1000F7FF779
:1049600070ADBBF1100F41F35280DFF85092414619
:104970002046A8464C461023299A079DDDF824902E
:1049800006E0ABF1100BBBF1100F01F1080119DDCE
:1049900001321030072AC1E90043CDE92920F0DDBA
:1049A0002946484628AA05F0FFFA00287FF4DDAC26
:1049B000DDE92920ABF1100BBBF1100F4FF0100314
:1049C0002BA9E5DC4546A1468846044601325C44F5
:1049D000072ACDE92924C8F80090C8F804B000F3EC
:1049E000918308F108082CE5BBF1100F40F3E38434
:1049F000DFF8C89141462046A8464C461023299A24
:104A0000079DDDF8249006E0ABF1100BBBF1100F11
:104A100001F1080119DD01321030072AC1E9004314
:104A2000CDE92920F0DD2946484628AA05F0BCFA40
:104A300000287FF49AACDDE92920ABF1100BBBF123
:104A4000100F4FF010032BA9E5DC4546A146884620
:104A5000044601325C44072ACDE92924C8F80090B5
:104A6000C8F804B000F3D28108F10808F1E4129B01
:104A7000012B40F382810123299E01341E44072E1D
:104A8000C8F800502A94C8F80430299600F36C83C3
:104A900008F10808169B0136179A1C44072EC8E92E
:104AA0000023CDE9296400F36C8308F10808002293
:104AB000DDE914010023FBF7E5FF002840F07A81CF
:104AC000129B0136013B01351C44072EC8F80050EB
:104AD0002996C8F804302A9400F35F8108F1080889
:104AE0001A9B01361C44C8F80430072E24ABCDE9CC
:104AF0002964C8F800307FF7BCAC0799099828AA48
:104B000005F052FA00287FF430AC2A9C0DF1AC0875
:104B1000B1E4B9F1100F40F3C686DDE92921404622
:104B2000CDE91D36B84610244F46079EA946099D7B
:104B300004E0103F102F00F1080016DD0132204B79
:104B40001031072AC0E90034CDE92921F1DD3146D1
:104B5000284628AA05F028FA00287FF406ACDDE9EB
:104B60002921103F102F2BA8E8DC4D46DDE91D362A
:104B7000B9464746804609EB010401321049072A2D
:104B8000CDE92924C8F80490C8F8001000F3408348
:104B90009DF8832008F108082CE4BB460A2C79F123
:104BA000000380F0FB82012330345F468DF84F41D3
:104BB0000C930DF24F1543E6E8BD0008FCBD00085C
:104BC000ECBD00080799099828AA1D9305F0ECF997
:104BD00000287FF4CAAB2A9C1D9B0DF1AC081BE496
:104BE0000799099828AA05F0DFF900287FF4BDABE2
:104BF0002A9C0DF1AC0820E4102D40F3BE8610264F
:104C0000299B099FDDF81C9004E0103D102D08F150
:104C1000080817DD0133BA4A1034072BC8E900260B
:104C2000CDE92934F1DD4946384628AA05F0BCF91A
:104C300000287FF49AABDDE92934103D102D0DF1E9
:104C4000AC08E7DC0133AE4A2C44072BCDE929340C
:104C5000C8F80450C8F800207FF715AC07990998E8
:104C600028AA05F0A1F900287FF47FAB2A9C0AE46A
:104C70002299002940F31081DDF84090129B99455C
:104C8000A8BF9946B9F1000F0BDD299B4C440133B5
:104C9000072BC8E900592A94299300F3818508F16C
:104CA0000808109EB9F1000FA8BFA6EB0906002E58
:104CB00000F3F582DDF840B07905AB4400F1AC8437
:104CC000229B129A934202DBFA0740F19283169AD2
:104CD00017991444C8E90012299A2A940132072A24
:104CE000299200F3A88508F10808129AAE18A6EBDD
:104CF0000B06D51AAE42A8BF2E46002E0DDD299B0D
:104D000034440133072BC8F800B0C8F804602A9473
:104D1000299300F3FC8508F10808002EA8BFAD1BFD
:104D2000002D7FF7A8AB102D40F34987DFF8D49111
:104D3000224649461026B946299B0F46DDF824B085
:104D4000079C05E008F10808103D102D40F389820A
:104D500001331032072BC8E90076CDE92932F1DDA5
:104D60002146584628AA05F01FF900287FF4FDAA1D
:104D7000DDE929320DF1AC08E6E7FE073FF57BAE31
:104D80000123299E01341E44072EC8F800502A949E
:104D9000C8F8043029967FF7A1AE0799099828AA88
:104DA00005F002F900287FF4E0AADDE929640DF19D
:104DB000AC0895E6129B5D1E002D7FF791AE102D7D
:104DC00040F31987224608974FF0100BDFF8349113
:104DD000099C079F05E008F10808103D102D40F3DD
:104DE000C78201361032072EC8E9009BCDE929623F
:104DF000F1DD3946204628AA05F0D6F800287FF4D0
:104E0000B4AADDE929620DF1AC08E6E70799099833
:104E100028AA05F0C9F800287FF4A7AA2A9C0DF15A
:104E2000AC08FFF716BB17F0100377D117F040025C
:104E300000F0AC820E9A994652F8044B0E92A4B23E
:104E400008E41BF010030E9A54D11BF040014DD022
:104E500052F8044B99460E920123A4B2FFF7FDBB12
:104E600053F8044B0E93FB0653D47D064ED544F302
:104E7000C0394B4624B2FFF78EBB2D2364428DF818
:104E80008330BB464FF0010369EB4909FFF7E8BBEC
:104E9000F8077FF5F0AA1FE50123C8F80430299B25
:104EA000194A01330134072B2A942993C8F80020AA
:104EB00000F3688408F10808002940F02582129A5E
:104EC00007F0010313433FF4D6AA169B1799E21883
:104ED000C8E90013299B2A920133072B299300F379
:104EE000508308F1080820E254ADA9E41BF40079CE
:104EF00040F0A08252F8044B01230E92FFF7ADBBA5
:104F0000ECBD0008FCBD0008E8BD0008B80500F1D4
:104F100079824FEAE4794B46FFF73DBB0E9B53F88D
:104F2000044B0E93FFF796BBDDE9140102460B46D6
:104F3000FBF7DAFD002840F0F785612E00F06C8564
:104F4000412E00F07F82089B013300F0948526F00B
:104F50002003472B069300F07B85DDE9141247F40C
:104F600080730F931346002BC0F2F4850C9300233B
:104F70008B461D930D93069B462B00F02B84452BEF
:104F800000F0148508990C9B01910221009126A93B
:104F9000049123A9039122A95A460998029100F08D
:104FA000E3FF069B0546472B40F0448617F0010FB0
:104FB000B9460F9F40F0F784269B5B1B1293069B1C
:104FC000472B00F0F182069B462B00F04284229B87
:104FD0001093109B069A013B412A229300F08A8588
:104FE0000021F2B2002B8DF89020B6BF2D222B228B
:104FF000109B8DF89120B8BFC3F10103092B40F33A
:1050000081850DF19F0C6246BA4F1C46104687FB06
:105010000312D917C1EBA20101EB8102A3EB4202FB
:105020003032632C00F8012C0B4600F1FF32ECDC2F
:105030003033811EDBB28C4502F8013C40F2FF8523
:105040000DF1920101E012F8013B944501F8013B9A
:10505000F9D10DF1A1030DF192021B1A134424AAF8
:105060009B1A1A93129B1A9A012B1A440C9240F322
:105070009E850C9B169A13440C9300230C9A29F4DA
:10508000806722EAE27247F480770F9306921393C7
:1050900010931D9B002B40F0B0829DF88320089355
:1050A000FFF74FBA0E9B0B9853F8041BC2175546D7
:1050B000C1E900020E93FFF7FCB98F4B189317F06C
:1050C000200949D00E9B073323F00703D3F804903F
:1050D00053F8084B0E93F80709D554EA090306D094
:1050E00030238DF8856047F002078DF88430022365
:1050F00027F4806BFFF7B1BABB46FFF70DBB7F4BC0
:105100001893DCE70799099828AA04F04DFF0028B6
:105110007FF42BA92A9C0DF1AC08FFF792B90799EF
:10512000099828AA04F040FF00287FF41EA92A9CB1
:105130000DF1AC08FFF7DEBB062B294628BF06237E
:105140002A4608950D9506936D4D0E940C930F917C
:1051500013911091FFF7F5B917F0100369D00E9B6A
:1051600053F8044B0E93B6E70799099828AA04F060
:105170001BFF00287FF4F9A8DDE929640DF1AC08D4
:1051800088E40799099828AA04F00EFF00287FF404
:10519000ECA8DDE929640DF1AC0888E400230BF4E8
:1051A0008062CDE90CA8069692461E46DDF8648022
:1051B00054AF0CE00023204649460A22FBF7D2FCFC
:1051C0000A2C79F100031BD3044689462F4620465A
:1051D0000A2200234946FBF7C5FC30327D1E01360A
:1051E00007F8012CBAF1000FE4D098F800309E4285
:1051F000E0D1FF2EDED00A2C79F1000380F0E080B0
:10520000CDF864801296DDE90CA8069EFFF714BB6A
:105210000799099828AA1D9304F0C6FE00287FF478
:10522000A4A89DF883202A9C1D9B0DF1AC08FFF7D4
:10523000E1B817F0400200F0B4800E9A994652F897
:10524000044B0E92A4B246E70799099828AA04F0E5
:10525000ABFE00287FF489A82A9C0DF1AC08FFF76B
:1052600036BB14463A464F46914601332C44072B31
:10527000C8F80090C8F80450CDE929347FF7F9A8A0
:105280003BE4012BBB467FF4C6AA8CE40E9B0B9932
:1052900053F8042B554611600E93FFF70AB9102EF0
:1052A00040F3AD84DFF85C90424648462146A8466C
:1052B000B9464FF0100B0746299B099C079D04E057
:1052C0000832103E102E40F3488201331031072B74
:1052D000C2E9007BCDE92931F2DD2946204628AA22
:1052E00004F062FE00287FF440A8DDE929312BAAF2
:1052F000E7E700BF67666666B8BD0008CCBD00087A
:10530000E0BD0008FCBD0008169B1798E218C8E92C
:105310000003299B2A920133072B299300F3318143
:1053200008F108080029C0F20283129901338C1891
:10533000072BCDE92934C8F80050C8F804107FF7CE
:1053400098A8FFF7DABB2846CDF820900E9403F01A
:105350003BF820EAE073CDE90C099DF88320CDF8F5
:105360003C90CDF84C90CDF840900693FFF7E9B80B
:105370001446089F01362C44072ECDE92964C8F84D
:105380000090C8F804507FF7A9AB06E517F4007940
:105390000E9B3DD053F8044B91460E93E4B2FFF7B9
:1053A00059B917F400790E9B40D053F8044B91463D
:1053B0000E93E4B28FE6299ADFF84C92FFF749BBCF
:1053C0001C9B1B99ED1A1A46284603F02BF898F8F7
:1053D00001300BB108F10108204649460A2200239A
:1053E0000026FBF7BFFBEFE62D228DF88320FFF7A9
:1053F00098B8129AAE18A6EB0B06D51AAE42A8BF03
:105400002E468AE444F3C0194B4664B2FFF7C3B892
:1054100053F8044B0E93FFF71DB90E9B0B9953F8ED
:10542000042B554611800E93FFF743B853F8044BF5
:105430000E9350E652F8044B894601230E92E4B2D3
:10544000FFF70BB930238DF8843058238DF8853061
:10545000089B47F00204632B00F3E38200233BAD7B
:105460000D9347F481730F93DDE914121346002B5B
:105470002746C0F240820C9300238B461D9326F0F2
:1054800020030693612E00F01783412E7FF473AD45
:1054900022AA58460C9902F007FF00224FF07F53D2
:1054A000FBF788F802460B46CDE9102300220023C3
:1054B000FBF7E8FA08B101232293544B0C93089BA5
:1054C000CDE912A6CDE91E78DDE91067AB46DDF81F
:1054D00030A003F1FF39109506E00022002309F106
:1054E000FF39FBF7CFFAE8B90022494B304639467D
:1054F000FBF760F80F460646FBF70CFB0446FAF78D
:10550000EFFF0B46024639463046FAF79BFE1AF883
:105510000430B9F1FF3FD8464D4606460F460BF81A
:10552000013BDAD13046394600223A4BA946DDF834
:1055300048A0109DCDF84880CDE91001DDF87C80B1
:10554000139E1E9FFBF7C6FA002840F04482DDE957
:10555000100100222F4BFBF795FA10B1E10700F183
:105560003A824B46002B06DB302201335B440BF8BA
:10557000012B5B45FBD1ABEB0503B94612930F9FA3
:105580001DE50799099828AA04F00EFD00287EF46D
:10559000ECAEDDE9293222990DF1AC08C2E6906D3E
:1055A00001F034FFFEF7B3BE229BDA1C109302DB3E
:1055B000089A934204DD023E26F02003069308E594
:1055C000109B129A9342C0F2828119F0010F00F0F1
:1055D000A882169A13440C9319F4806F00F09082FD
:1055E000109B6726002B00F346810C9B23EAE37394
:1055F000069300230F9313934BE52D2200238DF880
:1056000083200893FEF7A0BFFCBD0008CCBD0008B6
:10561000000030400000E03F129B4246DDF84C8025
:10562000EB185E460893CDF830A010972146199FDD
:10563000DDF87090DDF824A0DDF81CB00F9B139509
:10564000B8F1000F2ED0002B6CD1013F08F1FF38CC
:105650001B9B4944C2E90039299B2A910133072B3E
:10566000299363DC0832089B38789B1B8342A8BFD0
:105670000346002B1C460ADD2998194401300728EF
:10568000C2E900632A9129905BDC38780832002C4B
:10569000B4BF0546051B002D15DC06440F9BB8F171
:1056A000000FD0D1002B3DD1DDE91235EB189E4221
:1056B000B346199790460C4628BF9B46DDF830A0AC
:1056C000109FFFF7FDBA102D40F36F821024299828
:1056D00004E0103D102D02F1080216DD0130A84B48
:1056E00010310728C2E90034CDE92901F1DD59461E
:1056F000504628AA04F058FC00287EF436AEDDE9B6
:105700002901103D102D2BAAE8DC01309C4B2944C7
:105710000728CDE92901556013604EDC387808323E
:105720000644BBE70F9B013B0F9391E75946504658
:1057300028AA04F039FC00287EF417AE2A992BAA77
:1057400091E75946504628AA04F02EFC00287EF422
:105750000CAE38782A992BAA99E7454690463A46E6
:105760000C464F46914601333444072BCDE929348A
:10577000C8F80090C8F8046000F35D8108F10808DB
:10578000FFF798BA0799099828AA04F00DFC002899
:105790007EF4EBAD22992A9C0DF1AC08FFF78CBB8F
:1057A0000799099828AA04F0FFFB00287EF4DDADD4
:1057B0002A9C0DF1AC08FFF774BA5946504628AA46
:1057C00004F0F2FB00287EF4D0AD38782A992BAA99
:1057D000064463E708990C9B01910321009126A9D7
:1057E000049123A9039122A95A460998029100F035
:1057F000BBFB03780546302B00F0C081229B089A42
:10580000B94613440F9FEC185846002200230C9908
:10581000FBF738F910B12346FFF7CFBB269BA34215
:10582000BFF4CBAB30215A1C26921970269B9C42A8
:10583000F9D8FFF7C2BB0799099828AA04F0B4FB6E
:1058400000287EF492AD229B2A9C0DF1AC08FFF754
:105850004CBA229A002A109240F3B981089909F0B3
:1058600001030B4340F040816626109B0C9319F412
:10587000806F3FF4BAAE19990B78FF2B00F0D681F8
:105880000024109A204604E001300131FF2B00F083
:105890006481934280F26181D21A4B78002BF3D15C
:1058A0000B780134F2E7DDE92921FFF764B9089BA1
:1058B0009DF883200E9406930C9308900F901390FC
:1058C0001090FEF73EBE00230893FEF78ABC129BA1
:1058D000169A9A18109B0C92002B40F35D81672654
:1058E000C5E70799099828AA04F05EFB00283EF452
:1058F000E8ADFEF740BD26F0200306932D22DDE93A
:1059000014349B4604F100431D920C93BAE50799A9
:10591000099828AA04F048FB00287EF426AD229DB1
:10592000129B2A9C0DF1AC085D1BFFF7F6B94E42A5
:10593000103180F2818141461024A846DFF8409062
:10594000DDF824B0079D04E00831103E102E40F32E
:10595000998001331032072BC1E90094CDE9293237
:10596000F2DD2946584628AA04F01EFB00287EF4E2
:10597000FCACDDE929322BA9E7E7299BFFF762B9E7
:10598000FCBD0008079B5B6EDD0707D4079B9B8966
:105990009C0503D4079B986D01F038FD4FF0FF3351
:1059A0000B93FEF7F1BC089BEC182DE70221009148
:1059B00008995A464C1C26A9049123A9039122A9AF
:1059C0000C9B09980194029100F0CEFA0546B94665
:1059D0002C440F9F18E7129B26930C9B1BF8012C5D
:1059E000D97B5B468A4209D1302003F8010C269B03
:1059F0005A1E269213F8012C9142F6D0392A0BBF79
:105A00000C9A0132927AD2B203F8012CB3E5299AAA
:105A1000DFF83492FEF7DABF30238DF88430782334
:105A200014E50998591C01F09BFD0546002800F07B
:105A3000F6800D9015E50799099828AA04F0B4FAA4
:105A400000287EF492AC2A9C0DF1AC08FFF732B925
:105A5000089B002B08BF0123089347F480730F9322
:105A6000159B002BC0F2A980DDF850B01D900C935F
:105A70000D90FFF787BA0623089326F020030693BC
:105A8000FFF76BBA4546884601333244072BCDE910
:105A90002932C8F80090C8F804607FF722AA079955
:105AA000099828AA04F080FA00287EF45EACDDE9AB
:105AB00029320DF1AC0838E422AA58460C9902F0BC
:105AC000F3FB00224FF07F53FAF774FD02460B46BA
:105AD000CDE9102300220023FAF7D4FF08B10123F7
