:020000040800F2
:1000000000500020C93A0008A9140008AB140008E9
:10001000AD140008AF140008B1140008000000007F
:10002000000000000000000000000000D12A0008CD
:10003000B314000800000000712B0008B52B000865
:10004000113B0008113B0008113B0008113B000860
:10005000113B0008113B0008113B0008113B000850
:10006000113B0008113B0008113B0008113B000840
:10007000113B0008113B0008113B0008113B000830
:10008000113B0008113B0008113B0008113B000820
:10009000113B0008113B0008113B0008113B000810
:1000A000113B0008B5140008113B0008113B000883
:1000B000113B0008113B0008113B0008113B0008F0
:1000C000113B0008113B0008113B0008113B0008E0
:1000D000113B0008113B0008113B0008113B0008D0
:1000E000113B0008113B0008113B00080000000014
:1000F0000000000000000000000000000000000000
:0C01000000000000000000005FF808F1A3
:1001100010B5054C237833B9044B13B10448AFF341
:1001200000800123237010BDC009002000000000E2
:100130000CBA000808B5034B1BB103490348AFF3E1
:10014000008008BD00000000C40900200CBA0008AF
:10015000844641EA000313F0030349D1403A23D314
:100160000B6803604B6843608B688360CB68C36037
:100170000B6903614B6943618B698361CB69C3611F
:100180000B6A03624B6A43628B6A8362CB6AC36207
:100190000B6B03634B6B43638B6B8363CB6BC363EF
:1001A00040304031403ADBD230320BD30B68036031
:1001B0004B6843608B688360CB68C360103010313C
:1001C000103AF3D20C3205D351F8043B40F8043B0B
:1001D000043AF9D2043208D0D2071CBF11F8013B0F
:1001E00000F8013B01D30B8803806046704700BFD5
:1001F000082A13D38B07B1D010F00303AED0C3F19C
:100200000403D21ADB071CBF11F8013B00F8013BC5
:10021000A4D331F8023B20F8023B9FE7043AD9D33C
:10022000013A11F8013B00F8013BF9D20B78037059
:100230004B7843708B7883706046704780EA010C7E
:100240001CF0030F37D110F0030C20F0030021F055
:10025000030150F8042B08BF51F8043B0ED08CF07A
:10026000030C6FF07F434FEACC0C23FA0CFC51F8DF
:10027000043B42EA0C0243EA0C0300BFA2F1013C3A
:100280009A4201BF2CEA020C1CF0803F50F8042B6C
:1002900051F8043BF2D04FEA02604FEA12220128E3
:1002A00028BFB0EB036F08BF1B0AF4D003F0FF03B5
:1002B000000EC01A704710F0030F0AD010F8012B7F
:1002C00011F8013B012A28BF9A42F4D0A2EB0300A7
:1002D00070474DF8045D50F8042B01F0030521F040
:1002E000030151F8043B022D26D04DD822F07F4562
:1002F000B5EB132FA2F1013C2CEA020C0DD11CF03E
:10030000803C08BF51F8043B0AD185EA0205B5EBF1
:10031000036F0CD150F8042BE8E74FEA13235BE09E
:100320003CF07F4C54D10B784FEA126554E04FEA11
:10033000126503F0FF034FE04FEA0245A2F1013CD2
:100340004FEA15452CEA020CB5EB134F18D11CF0FF
:10035000803C08BF51F8043B07D185EA0205B5EBA4
:10036000034F09D150F8042BE6E75FEA0C4C2FD17C
:100370000B884FEA12452FE04FEA03434FEA12453C
:100380004FEA134328E000BF02F0FF05B5EB136FFF
:10039000A2F1013C2CEA020C0DD11CF0803C08BFFC
:1003A00051F8043B0AD185EA0205B5EB032F0AD1C7
:1003B00050F8042BE8E74FEA13630DE012F0FF0F4B
:1003C00006D051F8043B4FEA122523F07F4303E0A7
:1003D0004FF0000020BC704705F0FF0203F0FF0063
:1003E000012828BF904204BF2D0A1B0AF4D0A2EBBB
:1003F000000020BC704700BF81F0004102E000BF58
:1004000083F0004330B54FEA41044FEA430594EAD4
:10041000050F08BF90EA020F1FBF54EA000C55EA0F
:10042000020C7FEA645C7FEA655C00F0E2804FEAE0
:100430005454D4EB5555B8BF6D420CDD2C4480EAC2
:10044000020281EA030382EA000083EA010180EAF2
:10045000020281EA0303362D88BF30BD11F0004F40
:100460004FEA01314FF4801C4CEA113102D0404276
:1004700061EB410113F0004F4FEA03334CEA1333B1
:1004800002D0524263EB430394EA050F00F0A780C9
:10049000A4F10104D5F1200E0DDB02FA0EFC22FAC4
:1004A00005F2801841F1000103FA0EF2801843FAB8
:1004B00005F359410EE0A5F120050EF1200E012AA9
:1004C00003FA0EFC28BF4CF0020C43FA05F3C018E7
:1004D00051EBE37101F0004507D54FF0000EDCF160
:1004E000000C7EEB00006EEB0101B1F5801F1BD309
:1004F000B1F5001F0CD349085FEA30004FEA3C0C0D
:1005000004F101044FEA445212F5800F80F09A8002
:10051000BCF1004F08BF5FEA500C50F1000041EB06
:10052000045141EA050130BD5FEA4C0C404141EB0A
:100530000101013C28BFB1F5801FE9D291F0000F05
:1005400004BF01460020B1FA81F308BF2033A3F1B4
:100550000B03B3F120020CDA0C3208DD02F1140CAB
:10056000C2F10C0201FA0CF021FA02F10CE002F1E6
:100570001402D8BFC2F1200C01FA02F120FA0CFCDF
:10058000DCBF41EA0C019040E41AA2BF01EB045128
:10059000294330BD6FEA04041F3C1CDA0C340EDC26
:1005A00004F11404C4F1200220FA04F001FA02F369
:1005B00040EA030021FA04F345EA030130BDC4F127
:1005C0000C04C4F1200220FA02F001FA04F340EA1C
:1005D0000300294630BD21FA04F0294630BD94F0CD
:1005E000000F83F4801306BF81F480110134013DB4
:1005F0004EE77FEA645C18BF7FEA655C29D094EA25
:10060000050F08BF90EA020F05D054EA000C04BFA2
:100610001946104630BD91EA030F1EBF002100208D
:1006200030BD5FEA545C05D14000494128BF41F02C
:10063000004130BD14F580043CBF01F5801130BD90
:1006400001F0004545F0FE4141F470014FF000001B
:1006500030BD7FEA645C1ABF194610467FEA655CCC
:100660001CBF0B46024650EA013406BF52EA03356E
:1006700091EA030F41F4002130BD00BF90F0000F5C
:1006800004BF0021704730B54FF4806404F1320498
:100690004FF000054FF0000150E700BF90F0000F51
:1006A00004BF0021704730B54FF4806404F1320478
:1006B00010F0004548BF40424FF000013EE700BF48
:1006C00042004FEAE2014FEA31014FEA02701FBFD8
:1006D00012F07F4393F07F4F81F06051704732F00A
:1006E0007F4208BF704793F07F4F04BF41F4002161
:1006F000704730B54FF4607401F0004521F00041BF
:100700001CE700BF50EA010208BF704730B54FF048
:1007100000050AE050EA010208BF704730B511F049
:10072000004502D5404261EB41014FF4806404F181
:1007300032045FEA915C3FF4D8AE4FF003025FEA07
:10074000DC0C18BF03325FEADC0C18BF033202EB8B
:10075000DC02C2F1200300FA03FC20FA02F001FAE5
:1007600003FE40EA0E0021FA02F11444BDE600BF88
:1007700070B54FF0FF0C4CF4E06C1CEA11541DBF37
:100780001CEA135594EA0C0F95EA0C0F00F0DEF802
:100790002C4481EA030621EA4C5123EA4C5350EAE7
:1007A000013518BF52EA033541F4801143F4801338
:1007B00038D0A0FB02CE4FF00005E1FB02E506F0C9
:1007C0000042E0FB03E54FF00006E1FB03569CF01E
:1007D000000F18BF4EF0010EA4F1FF04B6F5007F24
:1007E00064F5407404D25FEA4E0E6D4146EB060696
:1007F00042EAC62141EA55514FEAC52040EA5E501F
:100800004FEACE2EB4F1FD0C88BFBCF5E06F1ED8C8
:10081000BEF1004F08BF5FEA500E50F1000041EBFF
:10082000045170BD06F0004646EA010140EA0200AC
:1008300081EA0301B4EB5C04C2BFD4EB0C0541EACE
:10084000045170BD41F480114FF0000E013C00F3E3
:10085000AB8014F1360FDEBF002001F0004170BD07
:10086000C4F10004203C35DA0C341BDC04F1140420
:10087000C4F1200500FA05F320FA04F001FA05F2AC
:1008800040EA020001F0004221F0004110EBD37079
:1008900021FA04F642EB06015EEA430E08BF20EAA5
:1008A000D37070BDC4F10C04C4F1200500FA04F348
:1008B00020FA05F001FA04F240EA020001F00041DA
:1008C00010EBD37041F100015EEA430E08BF20EA4D
:1008D000D37070BDC4F1200500FA05F24EEA020E95
:1008E00020FA04F301FA05F243EA020321FA04F0C4
:1008F00001F0004121FA04F220EA020000EBD3707B
:100900005EEA430E08BF20EAD37070BD94F0000F7A
:100910000FD101F00046400041EB010111F4801FAE
:1009200008BF013CF7D041EA060195F0000F18BF5F
:10093000704703F00046520043EB030313F4801F9B
:1009400008BF013DF7D043EA0603704794EA0C0F55
:100950000CEA135518BF95EA0C0F0CD050EA41066B
:1009600018BF52EA4306D1D181EA030101F00041E8
:100970004FF0000070BD50EA410606BF1046194610
:1009800052EA430619D094EA0C0F02D150EA01361C
:1009900013D195EA0C0F05D152EA03361CBF10465D
:1009A00019460AD181EA030101F0004141F0FE41FC
:1009B00041F470014FF0000070BD41F0FE4141F480
:1009C000780170BD70B54FF0FF0C4CF4E06C1CEA80
:1009D00011541DBF1CEA135594EA0C0F95EA0C0F35
:1009E00000F0A7F8A4EB050481EA030E52EA0335F0
:1009F0004FEA013100F088804FEA03334FF0805511
:100A000045EA131343EA12634FEA022245EA11153D
:100A100045EA10654FEA00260EF000419D4208BFEE
:100A2000964244F1FD0404F5407402D25B084FEA9B
:100A30003202B61A65EB03055B084FEA32024FF447
:100A400080104FF4002CB6EB020E75EB030E22BFA4
:100A5000B61A754640EA0C005B084FEA3202B6EB64
:100A6000020E75EB030E22BFB61A754640EA5C0013
:100A70005B084FEA3202B6EB020E75EB030E22BFA3
:100A8000B61A754640EA9C005B084FEA3202B6EBA4
:100A9000020E75EB030E22BFB61A754640EADC0063
:100AA00055EA060E18D04FEA051545EA16754FEAC5
:100AB00006164FEAC30343EA52734FEAC2025FEAE3
:100AC0001C1CC0D111F4801F0BD141EA00014FF072
:100AD00000004FF0004CB6E711F4801F04BF014343
:100AE0000020B4F1FD0C88BFBCF5E06F3FF6AFAE5F
:100AF000B5EB030C04BFB6EB020C5FEA500C50F1EF
:100B0000000041EB045170BD0EF0004E4EEA113171
:100B100014EB5C04C2BFD4EB0C0541EA045170BD78
:100B200041F480114FF0000E013C90E645EA060EBC
:100B30008DE60CEA135594EA0C0F08BF95EA0C0FEA
:100B40003FF43BAF94EA0C0F0AD150EA01347FF432
:100B500034AF95EA0C0F7FF425AF104619462CE709
:100B600095EA0C0F06D152EA03353FF4FDAE10466C
:100B7000194622E750EA410618BF52EA43067FF4BD
:100B8000C5AE50EA41047FF40DAF52EA43057FF44D
:100B9000EBAE12E74FF0FF3C06E000BF4FF0010C58
:100BA00002E000BF4FF0010C4DF804CD4FEA410CBC
:100BB0007FEA6C5C4FEA430C18BF7FEA6C5C1BD089
:100BC00001B050EA410C0CBF52EA430C91EA030F0A
:100BD00002BF90EA020F0020704710F1000F91EA67
:100BE000030F58BF994208BF90422CBFD8176FEA35
:100BF000E37040F0010070474FEA410C7FEA6C5C03
:100C000002D150EA013C07D14FEA430C7FEA6C5C09
:100C1000D6D152EA033CD3D05DF8040B704700BF35
:100C20008446104662468C461946634600E000BF83
:100C300001B5FFF7B7FF002848BF10F1000F01BD55
:100C40004DF808EDFFF7F4FF0CBF012000205DF820
:100C500008FB00BF4DF808EDFFF7EAFF34BF0120A5
:100C600000205DF808FB00BF4DF808EDFFF7E0FF3E
:100C700094BF012000205DF808FB00BF4DF808ED8F
:100C8000FFF7CEFF94BF012000205DF808FB00BFF6
:100C90004DF808EDFFF7C4FF34BF012000205DF8D8
:100CA00008FB00BF4FEA410C7FEA6C5C02D150EABE
:100CB000013C0AD14FEA430C7FEA6C5C02D152EA54
:100CC000033C02D14FF0000070474FF00100704725
:100CD0004FEA410212F5001215D211D56FF4787364
:100CE000B3EB625212D94FEAC12343F0004343EA07
:100CF000505311F0004F23FA02F018BF40427047E2
:100D00004FF00000704750EA013005D111F000406B
:100D100008BF6FF0004070474FF00000704700BF01
:100D200053B94AB9002908BF00281CBF4FF0FF3152
:100D30004FF0FF3000F076B9ADF1080C6DE904CE4C
:100D400000F006F8DDF804E0DDE9022304B07047A6
:100D50002DE9F047089E0D4604468846002B4DD1EC
:100D60008A42944668D9B2FA82F252B101FA02F389
:100D7000C2F1200120FA01F10CFA02FC41EA030859
:100D800094404FEA1C41B8FBF1F71FFA8CFE01FBBF
:100D9000178807FB0EF0230C43EA084398420AD950
:100DA0001CEB030307F1FF3580F01E81984240F2EF
:100DB0001B81023F63441B1AB3FBF1F001FB1033AC
:100DC00000FB0EFEA4B244EA0344A6450AD91CEB7C
:100DD000040400F1FF3380F00981A64540F206814A
:100DE000644402380021A4EB0E0440EA07401EB11F
:100DF0000023D440C6E90043BDE8F0878B4208D900
:100E0000002E00F0EE800021C6E900050846BDE88E
:100E1000F087B3FA83F100294AD1AB4202D3824270
:100E200000F2FC80841A65EB030301209846002E33
:100E3000E2D0C6E90048DFE702B9FFDEB2FA82F28B
:100E4000002A40F09180A1EB0C0001214FEA1C47E1
:100E50001FFA8CFEB0FBF7F307FB1300250C45EAE5
:100E600000450EFB03F0A84208D91CEB050503F171
:100E7000FF3802D2A84200F2CE8043462D1AB5FBBD
:100E8000F7F007FB10550EFB00FEA4B244EA054440
:100E9000A64508D91CEB040400F1FF3502D2A64593
:100EA00000F2B6802846A4EB0E0440EA03409EE719
:100EB000C1F120078B4022FA07FC4CEA030C25FA0B
:100EC00007FA4FEA1C49BAFBF9F820FA07F309FBC5
:100ED00018AA8D401FFA8CFE1D4300FA01F308FB8F
:100EE0000EF02C0C44EA0A44A04202FA01F20BD99B
:100EF0001CEB040408F1FF3A80F08880A04240F225
:100F00008580A8F102086444241AB4FBF9F009FBB7
:100F1000104400FB0EFEADB245EA0444A64508D9D4
:100F20001CEB040400F1FF356CD2A6456AD90238E7
:100F3000644440EA0840A0FB0295A4EB0E04AC42D6
:100F4000C846AE4656D353D0002E69D0B3EB080244
:100F500064EB0E0422FA01F304FA07F71F43CC40B6
:100F6000C6E90074002147E70CFA02FCC2F1200137
:100F700025FA01F34FEA1C4720FA01F195400D4391
:100F8000B3FBF7F107FB11331FFA8CFE280C40EA84
:100F9000034001FB0EF3834204FA02F408D91CEB70
:100FA000000001F1FF382FD283422DD9023960446D
:100FB000C01AB0FBF7F307FB1300ADB245EA0045DA
:100FC00003FB0EF0A84208D91CEB050503F1FF381E
:100FD00016D2A84214D9023B6544281A43EA0141BB
:100FE00038E73146304607E72F46E4E61846F9E68B
:100FF0004B45A9D2B9EB020865EB0C0E0138A3E70B
:101000004346EAE7284694E74146D1E7D0467BE7E6
:101010006444023847E7023B65442FE7084606E789
:101020003146E9E6704700BF08B5044802F050FEBB
:101030004FF47A7001F0BEFCF7E700BF90BA0008E9
:1010400010B594B02B4B06AC93E8070003C4227094
:101050004FF0000C8DF821C003AC0C3393E807006F
:1010600003C422708DF815C002F0F4FA02F006FCF9
:101070004FF4AF7001F09EFC2EE00CA802F06CFC67
:101080009DF832309DF83320019200939DF8313065
:101090009DF83020184909A802F0FAFE09A906A80F
:1010A000FFF7CCF820B109A903A8FFF7C7F818B9D2
:1010B00000238DF824301AE0104A136801331360BE
:1010C000042B14DD134600221A6010E002F0D6FB58
:1010D0004FF4967001F06EFC0CA9522002F012FC45
:1010E00004460146064802F091FD002CC5D0002CB4
:1010F000ECD1EDE728BA0008A8BA0008DC09002006
:1011000098BA0008034B0360034B0B608023136005
:10111000704700BFE80B0020E809002010B58EB032
:10112000144802F06DFC144C0DF11C0C04F1180E67
:10113000BEE80F00ACE80F009EE807008CE807004F
:10114000002107A801F001FC0C4B1860EE4604F1E9
:10115000340CBCE80F00AEE80F009CE807008EE8F6
:1011600007000021684601F0F0FB054B18600EB047
:1011700010BD00BFE00C002028BA0008E0090020E4
:10118000E40900202DE9F04389B00024049405947B
:1011900006940794324B9A6942F010029A619A6958
:1011A00002F010020092009A9A6942F020029A61BD
:1011B0009A6902F020020192019A9A6942F00402AF
:1011C0009A619A6902F004020292029A9A6942F0C4
:1011D00008029A619B6903F008030393039BDFF8FD
:1011E000849022464FF40051484600F081FB1E4F88
:1011F0002246B021384600F07BFBDFF870802246A3
:1012000048F20101404600F073FB4FF40053049391
:101210000126059606940225079504A9484600F084
:1012200055FAB023049305960694079504A9384609
:1012300000F04CFA402304930594069404A9384620
:1012400000F044FA48F201030493059606940795CA
:1012500004A9404600F03AFA09B0BDE8F08300BFA7
:10126000001002400010014000080140000C014045
:1012700008B50268034B9A4200D008BD00F0BCF9E3
:10128000FBE700BF002C014072B6FEE700B591B04D
:101290002822002106A802F067FC00230193029394
:1012A000039304930593012206924FF4803307932E
:1012B0000A9202220D920E934FF4E0130F9306A8A8
:1012C00000F032FB80B90F23019302210291002329
:1012D00003934FF480620492059301A800F056FD39
:1012E00020B911B05DF804FBFFF7CEFFFFF7CCFF8C
:1012F00008B500F06FF9FFF7C9FFFFF743FF00F0F3
:1013000013F900F005F8FFF709FF01F019FBFEE7FC
:1013100008B50E480E4B03604FF482734360002300
:101320008360C360036143614FF4007282612822CD
:10133000C2610362436283620A23C36200F09CFEBF
:1013400000B908BDFFF7A0FFFBE700BF3C0C002081
:101350000030014010B586B000230293039304933C
:10136000059302681A4B9A4201D006B010BD03F5EE
:1013700060439A6942F480529A619A6902F48052F9
:101380000092009A9A6942F008029A619B6903F000
:1013900008030193019B2823029302230393032351
:1013A00005930C4C02A9204600F090F910230293FB
:1013B00000230393049302A9204600F087F9064A0C
:1013C000536843F0E06343F001035360CDE700BF8F
:1013D00000300140000C01400000014000B583B026
:1013E000114B9A6942F001029A619A6902F0010276
:1013F0000092009ADA6942F08052DA61DB6903F008
:1014000080530193019B00220F216FF0010000F037
:1014100017F9064A536823F0E06343F00073536002
:1014200003B05DF804FB00BF001002400000014063
:1014300000B589B001460022192000F001F91920F9
:1014400000F036F9144B9A6942F400629A619B6984
:1014500003F400630193019B02A903A800F072FD4D
:1014600000F060FD0D4BA3FB00239B0C013B0C48DF
:101470000C4A026040F2E732C2604360002303611D
:10148000836001F0A7F818B1012009B05DF804FBF2
:10149000034800F06FFFF8E70010024083DE1B43B3
:1014A000940C0020002C0140FEE7FEE7FEE7FEE77B
:1014B000FEE7704708B5024800F094FF08BD00BF82
:1014C000940C00200120704708B502F023FB16237E
:1014D00003604FF0FF3008BD08B54FF0FF31FFF754
:1014E000F3FFFEE708B503460B4A126842B10A4A09
:1014F000106803446A46934206D8074A136008BD41
:10150000054A06491160F2E702F004FB0C23036070
:101510004FF0FF30F3E700BFDC0C0020C81A0020BA
:101520004FF0FF307047704708B50A480A4B036018
:101530004FF4E133436000238360C36003610C22F6
:1015400042618361C36101F001F900B908BDFFF791
:101550009BFEFBE7E00C00200038014010B586B090
:10156000002302930393049305930268174B9A4256
:1015700001D006B010BD03F558439A6942F4804289
:101580009A619A6902F480420092009A9A6942F044
:1015900004029A619B6903F004030193019B4FF4D9
:1015A000007302930223039303230593084C02A9BB
:1015B000204600F08BF84FF48063029300230393DE
:1015C000049302A9204600F081F8D2E700380140D8
:1015D0000008014008B5074A136843F01003136080
:1015E000032000F01BF80F20FFF722FFFFF7F6FEA5
:1015F000002008BD00200240034A1168034B1B78FD
:101600000B441360704700BF280D00200400002029
:10161000014B1868704700BF280D0020074AD368A7
:1016200023F4E0631B041B0C000200F4E06003439E
:1016300043F0BF6343F40033D360704700ED00E034
:1016400000B5194BDB68C3F30223C3F1070CBCF1EF
:10165000040F28BF4FF0040C03F1040EBEF1060F77
:1016600018D9033B4FF0FF3E0EFA0CFC21EA0C01A7
:1016700099400EFA03F322EA0303194300280BDB17
:101680000901C9B200F1604000F5614080F8001323
:101690005DF804FB0023E5E700F00F000901C9B283
:1016A000024B1954F4E700BF00ED00E014ED00E038
:1016B000002807DB00F01F02400901239340024A83
:1016C00042F82030704700BF00E100E070B582B002
:1016D0000024A446A6E0804DAA4210D007D97F4D31
:1016E000AA420CD005F58035AA4208D013E0A5F532
:1016F0008015AA4203D005F57025AA4207D18A6851
:10170000002A58D0012A51D04361082403E0A5F5EE
:101710008015AA42F3D0BEF1FF0F4ED80646BEF1A7
:10172000FF0F4CD84FEA8C0233680F25954023EA0F
:10173000050304FA02F2134333604B6813F0805F31
:101740006ED0674B9A6942F001029A619B6903F07F
:1017500001030193019B4FEA9C02951C614B53F8D6
:1017600025600CF003039D000F23AB4026EA03061F
:101770005D4B984229D003F58063984200F08E803B
:1017800003F58063984200F08B8003F580639842F4
:1017900019D004231AE0CC68BDE7CC680434BAE75A
:1017A000CC680834B7E7CC680C34B4E7036108248C
:1017B000B1E70024AFE70424ADE7061DAFE7ACF1C5
:1017C00008029200B0E7032300E00023AB4033435C
:1017D0000232444D45F822304B6813F4801F61D02B
:1017E000424A936843EA0E0393604B6813F4001F68
:1017F0005ED03E4AD36843EA0E03D3604B6813F4CD
:10180000003F5BD0394A536843EA0E0353604B688C
:1018100013F4803F58D0354A136843EA0E0313602F
:101820000CF1010C0A6832FA0CF353D0012303FACD
:101830000CF302EA030E33EA0202F1D14A68122ADB
:101840003FF649AF122A3FF666AF01A555F822F0E0
:10185000FF16000897170008A1170008B317000823
:1018600017170008171700081717000817170008A0
:101870001717000817170008171700081717000890
:101880001717000817170008171700081717000880
:10189000171700089B170008A7170008012395E7F2
:1018A000022393E7114A936823EA0E0393609CE7AF
:1018B0000E4AD36823EA0E03D3609FE70B4A5368AE
:1018C00023EA0E035360A2E7084A136823EA0E03D3
:1018D0001360A5E702B070BD0000221000003110B7
:1018E00000100240000001400008014000040140D7
:1018F0000AB10161704709040161704782B0084B69
:101900001B68084AA2FB03235B0A00FB03F3019355
:1019100000BF019B5A1E0192002BF9D102B0704703
:1019200000000020D34D6210002800F0F18170B556
:1019300082B00446036813F0010F2CD0994B5B680A
:1019400003F00C03042B1DD0964B5B6803F00C03D3
:10195000082B12D06368B3F5803F41D0002B55D1DE
:1019600003F1804303F504331A6822F480321A60CD
:101970001A6822F480221A6037E08A4B5B6813F4FD
:10198000803FE7D0874B1B6813F4003F03D06368A8
:10199000002B00F0BF81236813F0020F75D0814B3C
:1019A0005B6813F00C0F5FD07E4B5B6803F00C0399
:1019B000082B54D02369002B00F08A807A4B012237
:1019C0001A60FFF725FE0546764B1B6813F0020FE1
:1019D00075D1FFF71DFE401B0228F5D903209EE1BB
:1019E000704A136843F480331360636843B3FFF7AE
:1019F0000FFE05466B4B1B6813F4003FCBD1FFF77E
:101A000007FE401B6428F5D9032088E1B3F5A02F19
:101A100009D0644B1A6822F480321A601A6822F4E2
:101A200080221A60E1E703F18043A3F53C331A6892
:101A300042F480221A601A6842F480321A60D4E7B5
:101A4000FFF7E6FD0546574B1B6813F4003FA2D095
:101A5000FFF7DEFD401B6428F5D903205FE1514B01
:101A60005B6813F4803FA5D14E4B1B6813F0020F47
:101A700003D02369012B40F04F814A4A136823F0B9
:101A8000F803616943EAC1031360236813F0080F88
:101A900033D0A369002B5CD0434B0122C3F88024D0
:101AA000FFF7B6FD05463F4B5B6A13F0020F21D1ED
:101AB000FFF7AEFD401B0228F5D903202FE1394A7C
:101AC000136823F0F803616943EAC1031360DCE79C
:101AD000354B00221A60FFF79BFD0546314B1B6812
:101AE00013F0020FD1D0FFF793FD401B0228F5D968
:101AF000032014E10120FFF701FF236813F0040F16
:101B000000F09680274BDB6913F0805F34D1254BC2
:101B1000DA6942F08052DA61DB6903F080530193A5
:101B2000019B0125214B1B6813F4807F26D0E368BD
:101B3000012B3DD0002B53D103F1804303F5043337
:101B40001A6A22F001021A621A6A22F004021A6268
:101B500033E0154B0022C3F88024FFF759FD0546FA
:101B6000104B5B6A13F0020FC7D0FFF751FD401B0B
:101B70000228F5D90320D2E00025D3E70B4A1368E9
:101B800043F480731360FFF743FD0646074B1B6861
:101B900013F4807FCBD1FFF73BFD801B6428F5D980
:101BA0000320BCE0001002400000424200700040F0
:101BB0005F4A136A43F001031362E36833B3FFF72C
:101BC00027FD06465A4B1B6A13F0020F2FD1FFF771
:101BD0001FFD801B41F288339842F3D903209EE019
:101BE000052B09D0524B1A6A22F001021A621A6AB6
:101BF00022F004021A62E0E74D4B1A6A42F0040236
:101C00001A621A6A42F001021A62D6E7FFF700FD73
:101C10000646474B1B6A13F0020F08D0FFF7F8FC8B
:101C2000801B41F288339842F3D9032077E0E5B96D
:101C3000E369002B72D03E4A526802F00C02082A77
:101C400056D0022B17D03B4B00221A66FFF7E0FC60
:101C50000446374B1B6813F0007F47D0FFF7D8FCD2
:101C6000001B0228F5D9032059E0314AD36923F03B
:101C70008053D361DCE72F4B00221A66FFF7C8FCC4
:101C800005462B4B1B6813F0007F06D0FFF7C0FC06
:101C9000401B0228F5D9032041E0236AB3F5803FB9
:101CA0001AD023494B6823F47413226A606A0243F2
:101CB00013434B601F4B01221A66FFF7A9FC044631
:101CC0001B4B1B6813F0007F0ED1FFF7A1FC001B1C
:101CD0000228F5D9032022E0154A536823F4003383
:101CE000A1680B435360DCE7002018E0002016E0F9
:101CF000012B16D00E4B5B6803F48031226A9142AF
:101D000011D103F47013626A93420ED1002006E0F1
:101D100001207047012002E0012000E0002002B015
:101D200070BD0120FBE70120F9E70120F7E700BFC4
:101D300000100240000042420F4B5B6803F00C02AF
:101D4000082A01D00D487047C3F383420C49885CD0
:101D500013F4803F0BD0084B5B68C3F34043094A40
:101D6000D35C064A02FB00F0B0FBF3F07047064B71
:101D700003FB00F0704700BF0010024000127A0021
:101D8000CCBA0008DCBA000800093D00002800F0C9
:101D9000A08070B50D460446524B1B6803F0070344
:101DA0008B420BD24F4A136823F007030B43136097
:101DB000136803F007038B4240F08D80236813F013
:101DC000020F17D013F0040F04D0474A536843F4AE
:101DD000E0635360236813F0080F04D0424A53684D
:101DE00043F460535360404A536823F0F003A16802
:101DF0000B435360236813F0010F31D06368012B4C
:101E000020D0022B25D0384A126812F0020F64D07D
:101E100035494A6822F0030213434B60FFF7F8FB91
:101E20000646314B5B6803F00C036268B3EB820F2C
:101E300016D0FFF7EDFB801B41F288339842F0D9B2
:101E4000032045E0284A126812F4003FE0D1012047
:101E50003EE0254A126812F0007FD9D1012037E018
:101E6000204B1B6803F00703AB420AD91D4A1368D5
:101E700023F007032B431360136803F00703AB42FF
:101E80002DD1236813F0040F06D0174A536823F4AA
:101E9000E063E1680B435360236813F0080F07D039
:101EA000114A536823F46053216943EAC103536024
:101EB000FFF742FF0C4B5B68C3F303130B4AD35C81
:101EC000D8400B4B18600B4B1868FFF7B1FA002095
:101ED00070BD012070470120FAE70120F8E70120DA
:101EE000F6E700BF0020024000100240B4BA00082C
:101EF0000000002008000020014B1868704700BF58
:101F00000000002008B5FFF7F7FF044B5B68C3F340
:101F10000223034AD35CD84008BD00BF0010024032
:101F2000C4BA000808B5FFF7E7FF044B5B68C3F3CA
:101F3000C223034AD35CD84008BD00BF0010024052
:101F4000C4BA00080F2303600B4B5A6802F0030267
:101F500042605A6802F0F00282605A6802F4E0625D
:101F6000C2605B68DB0803F4E0630361034B1B683A
:101F700003F007030B60704700100240002002408E
:101F80002DE9F04782B00546884617461E46FFF702
:101F90003FFB0A9B1B1A03EB0609FFF739FB82463E
:101FA0002B4B1B68C3F3CB3309FB03F301932B6863
:101FB0009C6838EA04030CBF4FF0010C4FF0000C92
:101FC000BC4540D0B6F1FF3FF1D0FFF721FBA0EBBD
:101FD0000A0048450AD2B9F1000F07D0019A02B1B0
:101FE0004A46019B013B01939146E0E72A6853680A
:101FF00023F0E00353606B68B3F5827F0BD0AB6ACC
:10200000B3F5005F14D0012385F85130002385F823
:102010005030032018E0AB68B3F5004F02D0B3F5A1
:10202000806FECD12A68136823F040031360E6E761
:102030002A68136823F4005313602A68136843F472
:1020400000531360DFE7002002B0BDE8F08700BF57
:102050000000002010B582B004460B46009200221A
:102060008021FFF78DFF08B902B010BD636D43F00A
:10207000200363650320F7E7002856D010B5044617
:10208000436A33B94368B3F5827F05D00023C36147
:1020900002E00023036143610023A36294F85130FE
:1020A000002B3CD0022384F851302268136823F0BF
:1020B00040031360636803F48273A26802F404426D
:1020C0001343E26802F400621343226902F0020241
:1020D0001343626902F001021343A26902F4007221
:1020E0001343E26902F038021343226A02F08002CD
:1020F0001343A26A02F40052216813430B60638BFE
:10210000226803F0040353602268D36923F4006358
:10211000D36100206065012384F8513010BD84F83C
:1021200050302046FFF716F9BCE7012070472DE933
:10213000F04383B01F460A9D90F85030012B00F009
:102140001681044688469146012380F85030FFF7F7
:102150005FFA064694F85130DBB26268012B0AD070
:10216000B2F5827F40F0F080A268002A40F0F38050
:10217000042B40F0F280B8F1000F00F0F080B9F1CC
:10218000000F00F0EE80002F00F0ED8094F8513049
:10219000DBB2042B02D0052384F8513000236365A1
:1021A000C4F83890E787A787C4F83080E786A78609
:1021B0002364636423681A6812F0400F03D11A681D
:1021C00042F040021A60E368B3F5006F11D0636813
:1021D0000BB1012F0BD1226B236812781A73236B7A
:1021E00001332363E38E9BB2013B9BB2E38601275D
:1021F0006EE063680BB1012F0BD1226B236812884C
:10220000DA60236B02332363E38E9BB2013B9BB204
:10221000E38601271BE023689A6812F0010F0ED0B5
:10222000E28F92B25AB1DA68A36B1A80A36B0233C1
:10223000A363E38F9BB2013B9BB2E3870127FFF7C8
:10224000E7F9801BA84202D3B5F1FF3F1ED1E38E10
:102250009BB21BB9E38F9BB2002B5CD023689A68BA
:1022600012F0020FD7D0E28E92B2002AD3D0002F04
:10227000D1D0226B1288DA60236B02332363E38EA2
:102280009BB2013B9BB2E3860027C4E7012384F89D
:102290005130032059E023689A6812F0010F0ED0E4
:1022A000E28F92B25AB1DA68A36B1A70A36B013352
:1022B000A363E38F9BB2013B9BB2E3870127FFF748
:1022C000A7F9831BAB4202D3B5F1FF3F1ED1EDB19D
:1022D000E38E9BB213B9E38F9BB2E3B123689A6894
:1022E00012F0020FD7D0E28E92B2002AD3D0002F84
:1022F000D1D0226B12781A73236B01332363E38EE0
:102300009BB2013B9BB2E3860027C4E7012384F81C
:102310005130032019E0324629462046FFF79AFE45
:1023200070B9A36833B901932368DA6801929B6896
:102330000193019B636DC3B9012384F8513004E01C
:1023400020236365012000E00220002384F8503040
:1023500003B0BDE8F0830220F7E70220F5E7012093
:10236000F3E70120F1E70120EFE70120EDE702208C
:10237000EEE7704790F83D30DBB2012B27D1022306
:1023800080F83D300268D36843F00103D3600368EE
:10239000114A934210D0B3F1804F0DD0A2F5943280
:1023A000934209D002F58062934205D01A6842F048
:1023B00001021A60002070479A6802F00702062A9C
:1023C00007D01A6842F001021A600020704701200D
:1023D00070470020704700BF002C014070477047D5
:1023E0007047704710B5044603681A6912F0020F6F
:1023F00011D0DA6812F0020F0DD06FF002021A61EC
:102400000123037703689B6913F0030F70D0FFF774
:10241000E6FF0023237723681A6912F0040F12D015
:10242000DA6812F0040F0ED06FF004021A61022372
:10243000237723689B6913F4407F5FD02046FFF722
:10244000CEFF0023237723681A6912F0080F12D0F9
:10245000DA6812F0080F0ED06FF008021A61042338
:1024600023772368DB6913F0030F4ED02046FFF774
:10247000B6FF0023237723681A6912F0100F12D0D9
:10248000DA6812F0100F0ED06FF010021A610823F4
:1024900023772368DB6913F4407F3DD02046FFF7A4
:1024A0009EFF0023237723681A6912F0010F03D0DF
:1024B000DA6812F0010F36D123681A6912F0800F22
:1024C00003D0DA6812F0800F34D123681A6912F051
:1024D000400F03D0DA6812F0400F32D123681A6936
:1024E00012F0200F03D0DA6812F0200F30D110BDA7
:1024F000FFF774FF2046FFF773FF8AE72046FFF7D8
:102500006DFF2046FFF76CFF9BE72046FFF766FF55
:102510002046FFF765FFACE72046FFF75FFF204648
:10252000FFF75EFFBDE76FF001021A612046FEF77C
:102530009FFEC1E76FF080021A61204600F077F835
:10254000C3E76FF040021A612046FFF74AFFC5E774
:102550006FF020021A61204600F068F8C7E700001B
:1025600003681B4A90420AD0B0F1804F07D0A2F511
:102570009432904203D002F58062904203D123F05E
:1025800070034A681343124A90420AD0B0F1804F58
:1025900007D0A2F59432904203D002F580629042B7
:1025A00003D123F44073CA68134323F080034A69BC
:1025B000134303608B68C3620B688362044B9842C9
:1025C00002D00123436170470B690363F9E700BF41
:1025D000002C014040B310B5044690F83D30F3B1F3
:1025E000022384F83D30214651F8040BFFF7B8FF71
:1025F000012384F8463084F83E3084F83F3084F874
:10260000403084F8413084F8423084F8433084F814
:10261000443084F8453084F83D30002010BD80F807
:102620003C30FFF7A6FEDBE701207047704770479C
:1026300010B504460268136923F44053C1680B4384
:10264000136183680269134342691A430168CB68C6
:1026500023F4B05323F00C031343CB600268536997
:1026600023F4407381690B4353610268134B9A4210
:1026700020D0FFF747FC024602EB820202EB820207
:1026800063689B00B2FBF3F20D48A0FB02314909DD
:10269000642303FB11231B013233A0FB03235B09DB
:1026A00003F0F00202EB011203F00F032168134460
:1026B0008B6010BDFFF736FC0246DDE700380140B5
:1026C0001F85EB512DE9F84305460F4616469946FE
:1026D000DDF820802C68246837EA04030CBF4FF033
:1026E000010C4FF0000CB4452DD1B8F1FF3FF1D0F3
:1026F000B8F1000F05D0FEF78BFFA0EB09004045B5
:10270000E8D92A6802F10C0353E8003F23F4D073A0
:102710000C3242E800310029F3D12A6802F1140397
:1027200053E8003F23F00103143242E8003100294E
:10273000F3D1202385F8413085F84230002385F815
:102740004030032000E00020BDE8F88360B310B5FE
:10275000044690F8413013B3242384F841302268B2
:10276000D36823F40053D3602046FFF761FF22684B
:10277000136923F4904313612268536923F02A03F9
:1027800053612268D36843F40053D360002060642F
:10279000202384F8413084F84230606310BD80F813
:1027A0004030FEF7DBFED7E7012070472DE9F0410E
:1027B00082B01E4690F84130DBB2202B4BD104464C
:1027C0000D46904600294AD00AB9012044E0002372
:1027D0004364212380F84130FEF71AFF0746A4F82E
:1027E0002480A4F82680A368B3F5805F02D04FF060
:1027F00000080FE02369FBB14FF000080AE038F849
:10280000023B2268C3F308035360E28C92B2013AA0
:1028100092B2E284E38C9BB28BB100963B460022DD
:1028200080212046FFF74EFFD8B9002DE7D015F8DC
:10283000012B23685A60E8E7A8460025EAE70096DE
:102840003B46002240212046FFF73CFF58B9202399
:1028500084F8413000E0022002B0BDE8F0810120A0
:10286000FAE70320F8E70320F6E72DE9F04182B00C
:102870001E4690F84230DBB2202B53D104460D4661
:102880009046002952D00AB901204CE0002343644D
:10289000222280F842200363FEF7BAFE0746A4F81E
:1028A0002C80A4F82E80A368B3F5805F02D04FF08F
:1028B000000817E0236913B14FF0000812E0A846A2
:1028C00000250FE023685B68C3F3080328F8023B88
:1028D00003E023685B682B700135E28D92B2013A08
:1028E00092B2E285E38D9BB2BBB100963B460022DB
:1028F00020212046FFF7E6FED0B9002DE2D0A368E4
:10290000B3F5805FE5D013B92369002BE1D02368CC
:102910005B6803F07F032B70DEE7202384F84230EE
:10292000002000E0022002B0BDE8F0810120FAE7BB
:102930000320F8E7842801D0033070470020704757
:1029400008B500F0CBFC002008BD2DE9F04387B0AE
:1029500004460F464569BDB18669AEB1D0F8048022
:10296000D0F80090B0F90800FFF7E4FF0296019557
:1029700000903B4622694946404600F041FC0590E4
:10298000059807B0BDE8F08365682668D4F8108024
:10299000B4F90800FFF7CEFF05AB019300903B466A
:1029A0001FFA88F23146284600F064FC0128E7D07F
:1029B0000020E6E708B500B9012000F0D9FD0020AD
:1029C00008BD00F1080343604FF0FF328260C3602E
:1029D000036100230360704700230361704743686D
:1029E0004B609A688A60516099600861036801339E
:1029F0000360704730B40D68B5F1FF3F11D000F1AE
:102A000008031C465B681A68AA42FAD963684B60DF
:102A100099608C606160086103680133036030BCB9
:102A200070470469F2E70369416882688A60416817
:102A300051605A68824206D0002202611A68013A47
:102A40001A601868704782685A60F5E782B0002300
:102A500001930D4B1B68B3F1FF3F08D04FF05003BB
:102A600083F31188BFF36F8FBFF34F8FFEE74FF0F3
:102A7000500383F31188BFF36F8FBFF34F8F019B18
:102A8000002BFCD002B070470C0000200648006804
:102A9000006880F3088862B661B6BFF34F8FBFF35A
:102AA0006F8F00DF00BF000008ED00E04FF0807383
:102AB00040F8043C21F0010140F8081C034B40F8A9
:102AC0000C3C40F8202C4038704700BF4D2A0008CD
:102AD000074B19680868B0E8F00F80F30988BFF366
:102AE0006F8F4FF0000080F311884EF00D0E70478D
:102AF0004C1900204FF0500383F31188BFF36F8F00
:102B0000BFF34F8F0B4A136801331360012B00D0C2
:102B100070474FF0E023D3F8043D13F0FF0FF7D0D8
:102B20004FF0500383F31188BFF36F8FBFF34F8FC4
:102B3000FEE700BF0C000020094B1B6843B94FF0B3
:102B4000500383F31188BFF36F8FBFF34F8FFEE7FE
:102B5000013B034A13600BB983F31188704700BF30
:102B60000C00002000000000000000000000000039
:102B7000EFF30980BFF36F8F0D4B1A6820E9F00F58
:102B800010602DE908404FF0500080F3118800F0EC
:102B900015FD4FF0000080F31188BDE8084019686A
:102BA0000868B0E8F00F80F30988BFF36F8F7047B3
:102BB0004C19002008B54FF0500383F31188BFF380
:102BC0006F8FBFF34F8F00F0CBFB28B14FF0E023A6
:102BD0004FF08052C3F8042D002383F3118808BD01
:102BE0004FF0E022002313619361054B1B680549F8
:102BF000A1FB03139B09013B53610723136170473A
:102C000000000020D34D621010B582B02A4B1A7814
:102C1000D2B20192FF221A701B78DBB28DF803301A
:102C20009DF8033003F05003244A1370244B07220D
:102C30001A6009E0224A1368013B13609DF80330D3
:102C40005B00DBB28DF803309DF8033013F0800F8A
:102C5000F0D11B4B1B68032B08D04FF0500383F3BC
:102C60001188BFF36F8FBFF34F8FFEE71B02144A2B
:102C7000136003F4E0631360019BDBB20E4A137030
:102C80004FF0E023D3F8202D42F47002C3F8202D3A
:102C9000D3F8202D42F07042C3F8202DFFF7A0FF9B
:102CA0000024084B1C60FFF7F1FE00F087FCFFF7E3
:102CB000CDFE204602B010BD00E400E02C0D002047
:102CC000300D00200C000020124A12F0070F1ED019
:102CD000D11D21F00701C1F5406313440A460E4897
:102CE0000260002141601344083B23F007030B48B6
:102CF000036059601960991A51601360084B19609C
:102D0000084B1960084B4FF000421A6070474FF4AF
:102D10004063E4E7380D002044190020340D002002
:102D2000401900203C19002038190020154B1A4684
:102D30001B688342FBD3516802EB010C844509D028
:102D4000416800EB010C634509D00360904218D044
:102D5000106070474068014451601046F0E710B4BD
:102D6000094C2468A3420AD05B6819444160136887
:102D70001B680360904200D0106010BC7047046074
:102D8000F8E7704744190020340D002070B505465F
:102D900000F0DEFA344B1B68A3B1344B1B681D42B4
:102DA0004AD135B1083515F0070F02D025F00705D7
:102DB0000835002D42D02E4B1B68AB424DD32D4A17
:102DC000146804E0FFF780FFE7E722461C466368CB
:102DD000AB4202D22368002BF7D1234B1B68A342DE
:102DE0003DD0166808362368136063685B1B102BA0
:102DF00010D9601910F0070F08D04FF0500383F37B
:102E00001188BFF36F8FBFF34F8FFEE7436065609C
:102E1000FFF78CFF626816490B689B1A0B60164916
:102E200009688B4201D214490B60104B1B68134395
:102E300063600023236002E0002600E0002600F02B
:102E40001BFB16F0070F0CD04FF0500383F31188D3
:102E5000BFF36F8FBFF34F8FFEE70026EFE700262B
:102E6000EDE7304670BD00BF340D0020381900205A
:102E70003C190020441900204019002080B338B5C7
:102E80000446A0F1080550F8043C164A12681342A3
:102E900008D14FF0500383F31188BFF36F8FBFF356
:102EA0004F8FFEE750F8081C41B14FF0500383F3F9
:102EB0001188BFF36F8FBFF34F8FFEE723EA020342
:102EC00040F8043C00F044FA54F8041C064A136825
:102ED0000B4413602846FFF729FF00F0CDFA38BDF8
:102EE000704700BF381900203C190020084B1B68B0
:102EF0001B6823B9074B4FF0FF321A607047044B31
:102F00001B68DB68DB685A68024B1A60704700BFB9
:102F100050190020281A00202DE9F047074698464E
:102F2000089DDDF824900A9C266B02F18042013A4C
:102F300006EB820626F007064FF0000CBCF10F0FDF
:102F40000BD811F80C2004EB0C0383F8342011F893
:102F50000C3013B10CF1010CF0E7002384F843307E
:102F6000062D00D90625E56265644FF0000AC4F815
:102F700048A0201DFFF730FD04F11800FFF72CFDDD
:102F80002461C5F10705A5616462C4F84CA084F80A
:102F900050A0424639463046FFF788FD2060B9F11F
:102FA000000F01D0C9F80040BDE8F08738B5002413
:102FB00007E004EB840293000E481844FFF701FD7C
:102FC0000134062CF5D90C4D2846FFF7FAFC0B4CC2
:102FD0002046FFF7F6FC0A48FFF7F3FC0948FFF725
:102FE000F0FC0948FFF7EDFC084B1D60084B1C6026
:102FF00038BD00BF58190020FC190020101A00200D
:10300000301A00205C1A0020481A002050190020B5
:103010005419002010B50446FFF76CFD214A1368CF
:1030200001331360204B1B685BB1204B1B686BB9ED
:103030001D4B1B68DA6AE36A9A4207D81A4B1C6078
:1030400004E0194B1C601368012B28D0184A136840
:1030500001331360E06A01238340164A11680B4371
:10306000136000EB8000211D134B03EB8000FFF782
:10307000B6FCFFF761FD0D4B1B687BB10A4B1B686B
:10308000DA6AE36A9A4209D24FF0E0234FF08052A5
:10309000C3F8042DBFF34F8FBFF36F8F10BDFFF741
:1030A00085FFD3E7E41900204C190020441A0020C2
:1030B000F4190020F81900205819002010B5044612
:1030C00090F8513063B1012B11D0022B0ED04FF08C
:1030D000500383F31188BFF36F8FBFF34F8FFEE769
:1030E000006BFFF7CBFE2046FFF7C8FE10BDFFF7D1
:1030F000C5FEFBE70F4B1B68D3B110B5FFF7FAFC19
:103100000D4BDB68DC68201DFFF78DFC0B4A136854
:10311000013B1360074A1368013B1360FFF70CFD86
:103120002046FFF7CBFF034B1B68002BE6D110BDF9
:10313000704700BFE81900205C1A0020E419002045
:1031400008B5FFF7D7FF074B1B68012BF9D94FF0E4
:10315000E0234FF08052C3F8042DBFF34F8FBFF32D
:103160006F8FEEE75819002070B504460D461D4BD1
:103170001E681D4B18680430FFF755FC50B91A4BF8
:103180001B68DA6A012303FA02F218490B6823EA82
:1031900002030B60B4F1FF3F0DD03444124B1B68A7
:1031A0005C60A64210D9124B18680F4B19680431A5
:1031B000FFF720FC70BD002DEFD00B4B19680431D8
:1031C0000C48FFF70CFCF5E70B4B1868064B196829
:1031D0000431FFF70FFC094B1B68A342EAD9074BE8
:1031E0001C60E7E7701A00204C190020F819002035
:1031F00054190020481A002050190020281A0020D5
:1032000030B587B00B9C7CB10C9DB5B154250495AD
:10321000049D542D1AD04FF0500383F31188BFF34F
:103220006F8FBFF34F8FFEE74FF0500383F311888A
:10323000BFF36F8FBFF34F8FFEE74FF0500383F361
:103240001188BFF36F8FBFF34F8FFEE70C9D2C6388
:10325000022485F8514000240394029505AC0194A2
:103260000A9C0094FFF758FE0C98FFF7D3FE0598D0
:1032700007B030BD2DE9F04385B0074688461446B7
:103280001E469000FFF782FD00B381465420FFF7F1
:103290007DFD0546B0B1C0F83090E5B1002385F85A
:1032A0005130039302950D9B01930C9B0093334681
:1032B000224641463846FFF72FFE2846FFF7AAFE72
:1032C000012005E04846FFF7D9FDE6E74FF0FF3063
:1032D00005B0BDE8F0834FF0FF30F9E710B588B0D6
:1032E00000240594069407AA06A905A8FDF70AFF7D
:1032F000059B0293069B019300942346079A0E496F
:103300000E48FFF77DFF0E4B186090B14FF0500351
:1033100083F31188BFF36F8FBFF34F8F094B4FF0CB
:10332000FF321A60084B01221A60084B1C60FFF73D
:103330006BFC08B010BD00BFE0BA000841310008C6
:10334000241A0020281A0020441A0020701A002095
:10335000024A136801331360704700BFF019002060
:10336000F8B53A4B1B68002B64D1394B1D68013509
:103370001D60C5B9374B1B681B6843B14FF0500344
:1033800083F31188BFF36F8FBFF34F8FFEE7314A8E
:103390001168314B186810601960304A13680133A6
:1033A0001360FFF7A3FD2E4B1B68AB4238D90027F3
:1033B0002C4B1B68DB6A03EB83039A002A4B9B5858
:1033C000012B3CD901273AE00127224B1B681B68DF
:1033D00043B3204B1B68DB68DC6863689D4226D3DF
:1033E000261D3046FFF71FFBA36A1BB104F118002E
:1033F000FFF719FBE36A01229A401C49086802435F
:103400000A6003EB83039A00314617481044FFF724
:10341000E6FAE26A134B1B68DB6A9A42D4D2D4E71D
:103420000027D2E70E4B4FF0FF321A60C0E70C4A7C
:103430001360BDE70E4A13680133136000270D4B7C
:103440001B6803B101273846F8BD00BFF019002002
:10345000701A002050190020541900202C1A002046
:10346000281A00204C19002058190020F8190020B3
:10347000EC190020741A002038B5354B1B6843B98D
:103480004FF0500383F31188BFF36F8FBFF34F8F5B
:10349000FEE7FFF72FFB2E4B1A68013A1A601B68F4
:1034A000002B4FD12B4B1B680BB900244BE00024A1
:1034B000294B1B681BB3284BDB68DC6804F1180040
:1034C000FFF7B1FA251D2846FFF7ADFAE06A0123A0
:1034D0008340224A11680B43136000EB80002946A9
:1034E0001F4B03EB8000FFF77AFAE26A1D4B1B6863
:1034F000DB6A9A42DCD31C4B01221A60D8E70CB17C
:10350000FFF7F4FC194B1C6884B9174B1C68D4B145
:103510004FF0E0234FF08052C3F8042DBFF34F8FDC
:10352000BFF36F8F01240EE0013C07D0FFF718FFB7
:103530000028F9D00C4B01221A60F5E70B4B002252
:103540001A60E2E70024FFF7F7FA204638BD00BF13
:10355000F0190020E4190020301A0020F81900208A
:10356000581900204C190020741A0020EC19002072
:1035700010B5A8B10446104B1B6843B14FF050037F
:1035800083F31188BFF36F8FBFF34F8FFEE7FFF711
:10359000DFFE00212046FFF7E7FDFFF76DFF48B98A
:1035A0004FF0E0234FF08052C3F8042DBFF34F8F4C
:1035B000BFF36F8F10BD00BFF0190020204B1B68B8
:1035C0001BB1204B01221A6070471E4B00221A606B
:1035D0001D4B1B68B3FA83F3DBB2C3F11F0303EB8C
:1035E00083018A0019498A5842B94FF0500383F386
:1035F0001188BFF36F8FBFF34F8FFEE7134903EBC3
:10360000830082000A4450684068506003EB830CDA
:103610004FEA8C0208321144884209D003EB83033D
:103620009A000A4B13445B68DA68094B1A607047CA
:10363000406862469100054A0A445060EEE700BFC8
:10364000F0190020741A0020F819002058190020E1
:103650004C19002008B5012210210448FEF748F952
:10366000012211460248FEF743F908BD0008014057
:10367000000C014010B584B08DF80F00064C0A23F1
:103680000093012322460DF10F010448FEF74FFD80
:10369000207804B010BD00BF781A00203C0C002038
:1036A00070B50D46440004F07E04094E002210213E
:1036B0003046FEF71DF92046FFF7DCFF2846FFF7EE
:1036C000D9FF012210213046FEF712F970BD00BF6C
:1036D0000008014038B5440004F07E0444F0800442
:1036E000094D002210212846FEF702F92046FFF777
:1036F000C1FF0020FFF7BEFF04460122102128462B
:10370000FEF7F6F8204638BD0008014038B50446FB
:103710000D46FFF7DFFF40EA0501C9B22046FFF77B
:10372000BFFF38BD38B504460D46FFF7D3FF20EA8A
:103730000501C9B22046FFF7B3FF38BD2DE9F047B8
:1037400007468A46154699460C2817D00E2819D1E7
:1037500010264FF0120848F080010220FFF7A0FF6A
:1037600080210420FFF7DEFF00210120FFF798FFF2
:1037700080210A20FFF7CAFF00240CE030264FF01A
:103780007708E8E70026B046E5E71AF804100920B4
:10379000FFF786FF0134A542F7D839460120FFF72D
:1037A0007FFF0C2F1CD02A4D0420FFF793FF044607
:1037B000013D04D010F0010F01D10642F4D0802168
:1037C0000D20FFF7AFFF85B9FE2480210C20FFF705
:1037D0009DFF00210120FFF763FF2046BDE8F08731
:1037E00080210D20FFF792FFDDE70620FFF772FF33
:1037F00010F01B0F2AD108EA040414F0010400D0D1
:10380000FF240C2FE1D10A20FFF764FF06460C20AD
:10381000FFF760FF10F0070009D0731E00EBC30034
:10382000089B18803EB1122E06D9122604E0F30040
:10383000089A1380F6E701260025AE42C5D9092073
:10384000FFF748FF09F805000135F6E7FE24BCE75D
:10385000E093040008B51420FFF73CFF10F0030FBD
:1038600000D008BD03211420FFF750FFF9E708B589
:1038700003211420FFF756FF08BD000010B5204CAF
:10388000012211462046FEF733F80220FFF792F896
:10389000002201212046FEF72BF80220FFF78AF8CC
:1038A000012211462046FEF723F80220FFF782F896
:1038B0000F210120FFF7F4FE0220FFF77BF83D21E6
:1038C0001120FFF7EDFE1E212D20FFF7E9FE00215C
:1038D0002C20FFF7E5FE8D212A20FFF7E1FE3E2197
:1038E0002B20FFF7DDFE40211520FFF7D9FEFFF763
:1038F000BEFF0220FFF75EF8FFF7ACFF10BD00BF70
:10390000000C014030B589B004460D460821084638
:10391000FFF708FF07210D20FFF7C2FE0321142047
:10392000FFF7F4FE8DF80C400DF11E03009303AB7E
:10393000012219460C20FFF701FF18B9BDF81E300F
:10394000102B01D009B030BD9DF80C302B709DF8C4
:103950000D306B70F6E7000030B589B005460821E0
:103960000846FFF7DFFE00210D20FFF799FE8021BA
:103970000E20FFF7D7FE93238DF80C3020238DF80F
:103980000D300DF11E03009303AB022219460C20EB
:10399000FFF7D4FE044628B3FE2C19D0FF2C24D008
:1039A000CCB9144800F094F915E003F12001694402
:1039B00011F8141CE9544A40D2B20133DBB2032B94
:1039C000F3D920336B4413F8143C9342E4D0FE2423
:1039D000094800F07DF980210E20FFF797FE204670
:1039E00009B030BD02460346E9E7044800F070F92B
:1039F000F1E700BFE8BA0008F4BA000804BB000809
:103A000008B5054B1860054B1868002302221946BB
:103A1000806800F065F908BD7C1A002010000020C5
:103A2000022801D80120704708B500F073F8092377
:103A30000360002008BD000010B5013801280AD835
:103A400014464FF0FF3392B207480068FEF7AEFE0F
:103A500040B9204610BD00F05DF8092303604FF027
:103A6000FF30F7E70520F5E77C1A002008B500F0E5
:103A700051F8092303604FF0FF3008BD08B548B97D
:103A80004FF0FF33012208480068FEF7EEFE40B910
:103A9000012008BD00F03EF8092303604FF0FF301D
:103AA000F7E70520F5E700BF7C1A002008B50228DB
:103AB00004D84FF400534B60002008BD00F02AF8F2
:103AC00009230360F8E70000FDF72DFD0B480C49C2
:103AD0000C4A002302E0D458C4500433C4188C426A
:103AE000F9D3094A094C002301E013600432A242D1
:103AF000FBD300F015F8FDF7FBFB7047000000203A
:103B0000C00900203CBF0008C0090020C81A0020DE
:103B1000FEE70000014B1868704700BF100000204E
:103B200070B50D4E0D4D761BB61006D0002455F81D
:103B3000043B01349847A642F9D1094E094D07F0DC
:103B400065FF761BB61006D0002455F8043B0134FF
:103B50009847A642F9D170BD30BF000830BF0008B9
:103B600038BF000830BF0008830730B548D0541E66
:103B7000002A3FD00346CAB201E0013C3AD303F821
:103B8000012B9D07F9D1032C2DD9CDB245EA05258E
:103B90000F2C45EA054536D9A4F1100222F00F0C8E
:103BA00003F1200EE6444FEA121C03F1100242E931
:103BB000045542E9025510327245F8D10CF1010268
:103BC00014F00C0F03EB021204F00F0C13D0ACF145
:103BD000040323F003030433134442F8045B9342C9
:103BE000FBD10CF003042CB1CAB21C4403F8012B26
:103BF0009C42FBD130BD64461346002CF4D1F9E75A
:103C000003461446BFE71A46A446E0E70FB400B5E2
:103C1000074A83B004AB106853F8042B8168019302
:103C200001F0D8FE03B05DF804EB04B0704700BFAC
:103C30001000002030B5054689B008460C4600F05B
:103C400049F901210223214A04940692AA6B04AC8B
:103C50000590084401940791AC680293039022B345
:103C6000636E13F0010FB4F90C309AB201D19805CC
:103C700025D5910406D4626E43F4005322F4005219
:103C8000A3816266284601AA214604F0C5FF636E3F
:103C9000002814BF4FF0FF350A25DA0702D4A389A4
:103CA0009B0506D5284609B030BD284604F0BCFD6A
:103CB000D6E7A06D05F056F9284609B030BDA06DD5
:103CC00005F04EF9B4F90C309AB2D2E7A4BA000864
:103CD000024B01461868FFF7ADBF00BF100000207F
:103CE0002DE9F043694C0E46D4F80080174604468F
:103CF0001D4683B0B8F1000F03D0D8F83830002B40
:103D000077D0022F05D0012F00F2AC80002DC0F239
:103D1000A980636EDA0752D52146404604F050FD73
:103D2000216B41B104F14003994202D0404604F0B6
:103D300073FE002323630023B4F90CC0A3611CF0BD
:103D4000800F636064D12CF44A6C2CF0030C022FBA
:103D5000A4F80CC06AD001AB214640466A4605F083
:103D600073F9A3891843A081002D2FD0002E2ED0E7
:103D7000D8F83830002B38D0009BC4E90465AB423A
:103D8000B4F90C3026601CBF43F40063A381012FFB
:103D900004BF43F00103A3819AB213F008032CD0AF
:103DA000D1075DD500216D42A561656EA16015F05A
:103DB000010527D00025284603B0BDE8F083A3897C
:103DC0009B05A9D4A06D05F0CBF8A5E7009D28467A
:103DD00005F06AF90646002847D0A38943F080031E
:103DE000A381D8F83830002BC6D1404604F01CFD22
:103DF000C2E7404604F018FD83E7A360656E15F046
:103E00000105D7D1930524D5284603B0BDE8F0833A
:103E10004046216904F000FEB4F90CC0022F2CF4D6
:103E20004A6C2CF0030CA4F80CC094D1002500219E
:103E3000012204F1430323602361636E4CF0020C02
:103E4000D807A4F80CC0A1606261DDD41CF4007F27
:103E5000DAD1A06D05F086F8284603B0BDE8F083FE
:103E6000A560CBE74FF0FF35CEE7DDF80090A94520
:103E700004D0484605F018F9064620B94FF0FF3542
:103E8000B4F90CC0D3E74D46A7E700BF10000020EF
:103E90000EB430B504466FF000459CB00B4A1FAB22
:103EA0000B49059253F8042B086802A9CDE90134A7
:103EB00007950495069400F03BF80022029B1A70C7
:103EC0001CB0BDE8304003B0704700BF0802FFFFE0
:103ED0001000002020F0030110F00300C0F10000EA
:103EE00051F8043B00F1040C4FEACC0C6FF00002D7
:103EF0001CBF22FA0CF213434FF0010C4CEA0C2CBD
:103F00004CEA0C4CA3EB0C0222EA030212EACC129C
:103F100004BF51F8043B0430F4D0C2F1000102EABE
:103F20000102B2FA82F2C2F11F0200EBD200704726
:103F30002DE9F04FD5B00C460C9191460E930A90A6
:103F400005F006F8036818461793FFF7C3FFA38927
:103F50001690190603D52369002B00F08F870024E3
:103F60002BAB224698464D46CDE92944289312941E
:103F700000230024CDE914342B78CDE91922CDE9B2
:103F80001B2218920892002B00F0CE81AA4604E072
:103F90001AF8013F002B00F00981252BF8D1BAEB6C
:103FA000050640F007819AF80030002B00F0BC8134
:103FB00000234FF0FF324FF02B0920241F469AF8C0
:103FC000016007920AF1010A8DF8833009930AF122
:103FD000010AA6F120035A2B00F22081DFE813F03A
:103FE000CA021E011E01C5021E011E011E01A302FE
:103FF0001E011E016A00F3021E014702D9021E01C2
:10400000D4025B005B005B005B005B005B005B005D
:104010005B005B001E011E011E011E011E011E0130
:104020001E01B0011E010B027A00B001B001B00107
:104030001E011E011E011E019E021E011E01B60070
:104040001E011E011E0119021E014C021E011E014D
:104050003F071E011E011E011E011E011E011E0141
:104060001E01B0011E010B027C00B001B001B001C5
:1040700091027C0075001E0184021E017002B800CE
:104080005E0275001E01190272001C071E011E014E
:104090001F071E0172000022A6F130031AF8016BFF
:1040A00002EB820203EB4202A6F13003092BF5D9A1
:1040B00009928EE70E9B53F8042B002A09920E9367
:1040C000C0F2D2819AF8006081E79AF8006047F068
:1040D00020077CE747F01007BA060E9B40F17D8170
:1040E000073323F007031A465B6852F8084B9946DA
:1040F0000E92002BC0F27F85079B013301F03980BF
:1041000054EA090327F0800B00F005850A2C79F1A9
:10411000000380F0938701235F4630348DF84F41D0
:104120000B930DF24F15079A0B9900238A42B8BFE3
:104130000A4606929DF883200D930F9313931093D4
:10414000002A7CD0069B0133069378E047F01007E5
:1041500017F0200900F032810E9B073323F007038C
:10416000D3F8049053F8084B0E93002327F4806B88
:1041700000228DF88320079A511C00F02A8254EA0D
:1041800009012BF0800740F02382002A41F02B80A8
:10419000002B40F0C5841BF001030B9300F0548505
:1041A00030230DF24F158DF84F31BCE7BAEB050601
:1041B00000F0BA802A9BC8E9005633442A93299B11
:1041C0000133072B299305DC08F10808089B3344C9
:1041D0000893E8E60C990A9828AA06F03FF980B9F6
:1041E0000DF1AC08F2E70C990A9828AA06F036F906
:1041F000002800F08A800D9B1BB10D990A9804F0ED
:104200000BFC0C9B9B8913F0400F089B18BF4FF0D1
:10421000FF330893089855B0BDE8F08F002E00F0EA
:104220008380012300228DF8EC6006933BAD8DF86E
:1042300083200B930D9207920F921392109217F016
:10424000020302D006990231069117F0840B07D1C0
:1042500009990698A1EB0009B9F1000F00F3368324
:104260002A9C82B10122C8F80420299A0134013223
:104270000DF18301072A2A942992C8F8001000F34F
:10428000698308F108087BB10223C8F80430299B30
:104290000234013321AA072B2A942993C8F800205D
:1042A00000F36C8308F10808BBF1800F00F02E8248
:1042B000079B0B9AA3EB020BBBF1000F00F371827B
:1042C000FB0500F1C5810B9BC8F800501C44C8F8E1
:1042D0000430299B2A940133072B299300F3EA82A7
:1042E00008F108087B0705D5099B069A9D1A002D41
:1042F00000F35083DDE9083206998A42ACBF9B186F
:104300005B180893002C7FF46EAF002329930D9B5C
:104310001BB10D990A9804F07FFB55460DF1AC08CE
:104320002B78002B7FF432AE2A9B002B3FF469AF31
:104330000C9C0A98214628AA06F090F8A38962E707
:104340000E9B073323F00702F2E80234CDE9143460
:10435000DDE9143424F00044994618460E922146B3
:104360004FF0FF32B64BFCF79DFC002840F09684DE
:10437000484621464FF0FF32B14BFCF775FC002850
:1043800040F08C84DDE9140100220023FCF762FC7C
:10439000002840F0A6879DF8832000210320A94D26
:1043A000A94B27F080070D910690472EC8BF1D46E8
:1043B00007910B900F9113911091C1E617F0100324
:1043C00040F0628417F0400200F07B870E9A994615
:1043D00052F8044B0E92A4B2C7E653F8044B0E9366
:1043E000FB0600F141847D0640F13B8444F3C03973
:1043F0004B4624B27DE6012000220E9B069053F826
:10440000041B3BAD8DF883208DF8EC100E930B90C0
:1044100010E74FF000090E9C079B54F8045B8DF8E1
:104420008390002D00F0EE865A1C00F060851A463D
:104430004946284605F0ECF80D90002801F09E80D2
:104440000D9B9DF883205B1B0B9323EAE373CDF850
:104450001C900E940693CDF83490CDF83C90CDF896
:104460004C90CDF840906BE6099B5B4209939AF81B
:10447000006047F00407AAE547F0100B1BF0200985
:1044800000F0AA830E9B073323F007031A4652F865
:10449000084BD3F804900E92012369E63022782667
:1044A0000E9B8DF8842053F8044B684A0E934FF00E
:1044B0000009022347F0020B8DF88560189257E639
:1044C000BD0600F1D683FC0600F19386780600F164
:1044D0005D87B90540F18D860E9B089953F8042B32
:1044E000554611700E931BE79AF800606C2E03BFBF
:1044F0009AF8016047F020070AF1010A47F0100717
:1045000065E59AF80060682E03BF9AF8016047F4E9
:1045100000770AF1010A47F0400758E59AF8006071
:1045200047F0080753E50A9E304604F011FD436842
:1045300018461B93FFF7CEFC034630461C931E46DD
:1045400004F006FD83681993002E3FF4BBAD199B60
:10455000002B3FF4B7AD199B1B78002B3FF4B2AD95
:104560009AF8006047F4806731E59AF8006047F0F8
:1045700001072CE59DF88330002B7FF4A3AD9AF85A
:1045800000608DF8834022E59AF8006047F08007CC
:104590001DE5524612F8016B2A2E01F0EB81A6F1BF
:1045A0003003092B924698BF002201F203801AF8CB
:1045B000016B02EB820203EB4202A6F13003092BEE
:1045C000F5D9079205E59AF800608DF88390FEE42E
:1045D000BB46012B3FF49AAD022B54AD12D1189A71
:1045E00004F00F03D35C240944EA09744FEA191953
:1045F00005F8013D54EA0903F2D154AB5B1B5F4659
:104600000B9390E504F00703E40844EA49744FEA89
:10461000D909303354EA09012A4605F8013DF1D1A0
:104620001BF0010FE9D0302BE7D03023023A05F818
:10463000013C54AB9B1A5F4615460B9373E500BFD4
:10464000FFFFEF7F10BB000814BB000820BB000871
:10465000652E40F3E980DDE9140100220023FCF718
:10466000EFFA002800F0D2810123C8F80430299B1A
:10467000BF4A01330134072B2A942993C8F800203C
:1046800000F37A8508F10808229B129A934280F27F
:10469000D782169B179A1C44C8E90023299B2A94A9
:1046A0000133072B299300F3DD8308F10808129BDF
:1046B0005D1E002D7FF716AE102D41F34181DFF80E
:1046C000B492224649461026B946299B0F46DDF88A
:1046D00028B00C9C05E008F10808103D102D40F3AF
:1046E000588501331032072BC8E90076CDE929320D
:1046F000F1DD2146584628AA05F0B0FE00287FF4D7
:104700007AADDDE929320DF1AC08E6E7099B069A9E
:10471000A3EB020BBBF1000F7FF7CAADBBF1100F8B
:1047200041F30580DFF84C9241462046A8464C46AE
:104730001023299A0C9DDDF8289006E0ABF1100BB0
:10474000BBF1100F01F1080119DD01321030072A09
:10475000C1E90043CDE92920F0DD2946484628AAD1
:1047600005F07CFE00287FF446ADDDE92920ABF1A1
:10477000100BBBF1100F4FF010032BA9E5DC4546E1
:10478000A1468846044601325C44072ACDE9292423
:10479000C8F80090C8F804B000F3188508F10808BC
:1047A00086E5BBF1100F40F39785DFF8C8914146CD
:1047B0002046A8464C461023299A0C9DDDF82890E7
:1047C00006E0ABF1100BBBF1100F01F1080119DD90
:1047D00001321030072AC1E90043CDE92920F0DD7C
:1047E0002946484628AA05F039FE00287FF403AD83
:1047F000DDE92920ABF1100BBBF1100F4FF01003D6
:104800002BA9E5DC4546A1468846044601325C44B6
:10481000072ACDE92924C8F80090C8F804B000F3AD
:10482000CE8108F108084BE5129B012B40F37E81F5
:104830000123299E01341E44072EC8F800502A94F3
:10484000C8F80430299600F3E18108F10808169BA6
:104850000136179A1C44072EC8E90023CDE92964C4
:1048600000F3E18108F108080022DDE914010023CA
:10487000FCF7E6F9002840F07681129B0136013BF7
:1048800001351C44072EC8F800502996C8F804309A
:104890002A9400F35B8108F108081A9B01361C4436
:1048A000C8F80430072E24ABCDE92964C8F80030DD
:1048B0007FF716AD0C990A9828AA05F0CFFD0028BD
:1048C0007FF499AC2A9C0DF1AC080BE5B9F1100FFF
:1048D00040F35086DDE929214046CDE91D36B84632
:1048E00010244F460C9EA9460A9D04E0103F102F4D
:1048F00000F1080016DD01321F4B1031072AC0E914
:104900000034CDE92921F1DD3146284628AA05F0F9
:10491000A5FD00287FF46FACDDE92921103F102FA1
:104920002BA8E8DC4D46DDE91D36B94647468046F2
:1049300009EB010401321049072ACDE92924C8F8FE
:104940000490C8F8001000F3C3839DF8832008F199
:10495000080886E40C990A9828AA1D9305F07EFDA4
:1049600000287FF448AC2A9C1D9B0DF1AC088AE41A
:1049700050BB000864BB000854BB00080C990A989F
:1049800028AA05F06BFD00287FF435AC2A9C0DF1B8
:10499000AC0889E4102D40F3C4861026299B0A9F99
:1049A000DDF8309004E0103D102D08F1080817DD07
:1049B0000133B84A1034072BC8E90026CDE9293461
:1049C000F1DD4946384628AA05F048FD00287FF465
:1049D00012ACDDE92934103D102D0DF1AC08E7DCF7
:1049E0000133AC4A2C44072BCDE92934C8F80450D4
:1049F000C8F800207FF77EAC0C990A9828AA05F029
:104A00002DFD00287FF4F7AB2A9C73E4229900293E
:104A100040F36F83DDF84090129B9945A8BF9946FB
:104A2000B9F1000F0BDD299B4C440133072BC8E97A
:104A300000592A94299300F31D8508F10808109E57
:104A4000B9F1000FA8BFA6EB0906002E00F32582DE
:104A5000DDF840B07805AB4400F15F82229B129AEA
:104A6000934202DBF90740F17684169A17991444B1
:104A7000C8E90012299A2A940132072A299200F3E0
:104A8000138508F10808129AAE18A6EB0B06D51A82
:104A9000AE42A8BF2E46002E0DDD299B34440133C3
:104AA000072BC8F800B0C8F804602A94299300F3D3
:104AB000718508F10808002EA8BFAD1B002D7FF7F7
:104AC00011AC102D40F33C87DFF8CC9122464946CB
:104AD0001026B946299B0F46DDF828B00C9C05E04E
:104AE00008F10808103D102D40F3538301331032B4
:104AF000072BC8E90076CDE92932F1DD2146584679
:104B000028AA05F0ABFC00287FF475ABDDE929325B
:104B10000DF1AC08E6E7079B002B7FF4FCAA5F468B
:104B2000002354AD07930B93FFF7FDBAFA073FF547
:104B30007FAE0123299E01341E44072EC8F8005081
:104B40002A94C8F8043029967FF7A5AE0C990A98E4
:104B500028AA05F083FC00287FF44DABDDE9296429
:104B60000DF1AC0899E6129B5D1E002D7FF795AE06
:104B7000102D40F3DF86224607974FF0100BDFF829
:104B800018910A9C0C9F05E008F10808103D102DB3
:104B900040F37F8301361032072EC8E9009BCDE930
:104BA0002962F1DD3946204628AA05F057FC002885
:104BB0007FF421ABDDE929620DF1AC08E6E70C9941
:104BC0000A9828AA05F04AFC00287FF414AB2A9C16
:104BD0000DF1AC08FFF774BB1BF010030E9A3AD12D
:104BE0001BF0400133D052F8044B99460E9201233A
:104BF000A4B2FFF7BDBA2D2364428DF88330BB46C3
:104C00004FF0010369EB4909FFF7B5BA0C990A980F
:104C100028AA05F023FC00287FF4EDAADDE9296429
:104C20000DF1AC0813E60C990A9828AA05F016FCB9
:104C300000287FF4E0AADDE929640DF1AC0813E651
:104C4000FD077FF54FAB24E554ADFFF76CBA1BF4BD
:104C5000007940F08A8352F8044B01230E92FFF74B
:104C600087BAB80500F19B834FEAE4794B46FFF71A
:104C700040BA0E9B089853F8041BC2175546C1E969
:104C800000020E93FFF74CBB0E9B53F8044B0E93A0
:104C9000FFF76BBA54BB000864BB0008DDE91401E0
:104CA00002460B46FBF7FEFF002840F0E985612E27
:104CB00000F07D85412E00F08B84079B013300F0CE
:104CC0008F8326F02003472B069300F08F85DDE9C4
:104CD000141247F480730F931346002BC0F2B08573
:104CE0000B9300238B461D930D93069B462B00F0E0
:104CF000E983452B00F0468507990B9B0191022122
:104D0000009126A9049123A9039122A95A460A9841
:104D1000029102F05DFD069B0546472B40F03A8666
:104D200017F0010FB9460F9F40F0FE84269B5B1BD6
:104D30001293069B472B00F06E83069B462B00F0D8
:104D4000F083229B1093109B069A013B412A2293E9
:104D500000F0BB850021F2B2002B8DF89020B6BF89
:104D60002D222B22109B8DF89120B8BFC3F1010397
:104D7000092B40F39B850DF19F0C6246B64F1C46F4
:104D8000104687FB0312D917C1EBA20101EB810288
:104D9000A3EB42023032632C00F8012C0B4600F1E9
:104DA000FF32ECDC3033811EDBB28C4502F8013C73
:104DB00040F2F9850DF1920101E012F8013B9445B2
:104DC00001F8013BF9D10DF1A1030DF192021B1A7B
:104DD000134424AA9B1A1A93129B1A9A012B1A4461
:104DE0000B9240F381850B9B169A13440B9300237F
:104DF0000B9A29F4806722EAE27247F480770F93D6
:104E00000692139310931D9B002B40F02C839DF86A
:104E100083200793FFF794B9BB46FFF72FBB8F4B57
:104E2000189317F0200900F0F5800E9B073323F04C
:104E30000703D3F8049053F8084B0E93F80709D5ED
:104E400054EA090306D030238DF8856047F0020745
:104E50008DF88430022327F4806BFFF789B9804BEB
:104E60001893DEE70C990A9828AA05F0F7FA0028AB
:104E70007FF4C1A92A9C0DF1AC0818E440210A98DE
:104E800004F01AF90C9B18601861002800F097854F
:104E900040230C9A5361FFF762B8102E40F37685D9
:104EA000DFF8C091424648462146A846B9464FF031
:104EB000100B0746299B0A9C0C9D04E00832103E0B
:104EC000102E40F3138201331031072BC2E9007B0F
:104ED000CDE92931F2DD2946204628AA05F0BEFA9F
:104EE00000287FF488A9DDE929312BAAE7E72846C5
:104EF000CDF81C900E94FEF7EDFF20EAE0739DF8CC
:104F000083200B90CDF83490CDF83C90CDF84C90A8
:104F1000CDF840900693FFF713B9129B4246DDF897
:104F20004C80EB185E460793CDF82CA010972146D5
:104F3000199FDDF87090DDF828A0DDF830B00F9BE8
:104F40001395B8F1000F2ED083BB013F08F1FF3855
:104F50001B9B4944C2E90039299B2A910133072B45
:104F6000299360DC0832079B38789B1B8342A8BFDB
:104F70000346002B1C460BDD2998194401300728F5
:104F8000C2E900632A91299000F31481387808322D
:104F9000002CB4BF0546051B002D0BDC06440F9BFF
:104FA000B8F1000FD0D1002B00F026820F9B013BFF
:104FB0000F93CDE7102D40F39D841024299804E031
:104FC000103D102D02F1080216DD0130254B103185
:104FD0000728C2E90034CDE92901F1DD59465046E0
:104FE00028AA05F03BFA00287FF405A9DDE929018C
:104FF000103D102D2BAAE8DC01301A4B294407285C
:10500000CDE929015560136000F3418238780832F8
:105010000644C4E717F0100300F0A0800E9B53F87D
:10502000044B0E930AE75946504628AA05F016FA93
:1050300000287FF4E0A82A992BAA94E700230BF418
:1050400080620696CDF82CA0CDF8348092461E469C
:10505000DDF8648054AF14E06766666620BB000824
:1050600034BB000864BB00080023204649460A22DE
:10507000FBF756FE0A2C79F100031BD30446894640
:105080002F4620460A2200234946FBF749FE3032CC
:105090007D1E013607F8012CBAF1000FE4D098F814
:1050A00000309E42E0D1FF2EDED00A2C79F10003C1
:1050B00080F0308154AB5B1BDDF82CA0CDF8648010
:1050C00012965F46069EDDF834800B93FFF72BB8EF
:1050D0000C990A9828AA1D9305F0C0F900287FF4BE
:1050E0008AA89DF883202A9C1D9B0DF1AC08FFF730
:1050F000B8B80123C8F80430299BBC4A01330134F5
:10510000072B2A942993C8F8002000F3178108F18F
:105110000808002940F08680129A07F00103134323
:105120003FF4E0A8169B17991A19C8E90013299BA8
:105130002A920133072B299300F3378108F10808DD
:10514000129901338C18072BCDE92934C8F8005087
:10515000C8F804107FF7C4A8FFF7ACBB17F04002F3
:1051600000F0A5800E9A994652F8044B0E92A4B214
:1051700064E6BB46FEF7CABF0C990A9828AA05F058
:105180006DF900287FF437A82A9C0DF1AC08FFF7D1
:105190007BBA14463A464F46914601332C44072BBE
:1051A000C8F80090C8F80450CDE929347FF798A8D2
:1051B000FFF780BB5946504628AA05F04FF9002852
:1051C0007FF419A838782A992BAAE1E60C990A9855
:1051D00028AA05F043F900287FF40DA82A9C0DF1B8
:1051E000AC08FFF765B8012BBB467FF4F5A9FEF7C5
:1051F00092BF0E9B089953F8042B554611600E93ED
:10520000FFF78EB8062B294628BF06232A460795A6
:105210000D950693764D0E940B930F91139110916B
:10522000FEF78EBF169B17981A19C8E90003299B31
:105230002A920133072B299300F3B78008F108085D
:105240000029BFF67DAF4E42103180F2A98341465E
:105250001024A846DFF89C91DDF828B00C9D04E0EE
:105260000831103E102E40F3A78201331032072B75
:10527000C1E90094CDE92932F2DD2946584628AA31
:1052800005F0ECF800287EF4B6AFDDE929322BA951
:10529000E7E71446079F01362C44072ECDE9296421
:1052A000C8F80090C8F804507FF7F5AA4EE417F448
:1052B00000790E9B66D053F8044B91460E93E4B2EE
:1052C000BCE517F400790E9B57D053F8044B914678
:1052D0000E93E4B2FEF749BF299ADFF81891FFF761
:1052E00095BA2D228DF88320FFF757B84546904692
:1052F0003A460C464F46914601333444072BCDE9DC
:105300002934C8F80090C8F804605CDC08F108088B
:10531000FFF79EBB1C9B1B99ED1A1A46284605F009
:1053200069F898F801300BB108F1010820464946A8
:105330000A2200230026FBF7F3FC9FE60C990A984B
:1053400028AA05F08BF800287EF455AF22992A9CF4
:105350000DF1AC08DDE6129AAE18A6EB0B06D51AD5
:10536000AE42A8BF2E46FFF7A6BB52F8044B8946B3
:1053700001230E92E4B2FEF7FBBE53F8044B0E93EA
:10538000FEF7F3BE53F8044B0E9357E50E9B0899B6
:1053900053F8042B554611800E93FEF7C1BF44F31A
:1053A000C0194B4664B2FEF7A4BE0C990A9828AA0D
:1053B00005F054F800287EF41EAFDDE92932229969
:1053C0000DF1AC083CE70C990A9828AA05F046F8BC
:1053D00000287EF410AF2A9C0DF1AC08FFF738BB13
:1053E0000623079326F02003069370E450BB0008C1
:1053F00048BB000864BB0008DDE91235EB189E428B
:10540000B346199790460C4628BF9B46DDF82CA062
:10541000109FFFF723BB229BDA1C109302DB079A35
:10542000934204DD023E26F0200306938BE4109B9A
:10543000129A9342C0F2C28019F0010F00F01D824F
:10544000169A13440B9319F4806F00F01482109B8A
:105450006726002B76DC0B9B23EAE373069300237D
:105460000F931393CFE42D2200238DF8832007930D
:10547000FEF768BE0C990A9828AA04F0EFFF0028EE
:105480007EF4B9AE2A9C0DF1AC08FFF7D8BA5946A4
:10549000504628AA04F0E2FF00287EF4ACAE38782B
:1054A0002A992BAA06447AE50C990A9828AA04F0AE
:1054B000D5FF00287EF49FAE229B2A9C0DF1AC08FC
:1054C000FFF7E1BA07990B9B01910321009126A9EF
:1054D000049123A9039122A95A460A98029102F045
:1054E00077F903780546302B00F01682229B079A45
:1054F000B94613440F9FEC185846002200230B991D
:10550000FBF79EFB08B1234611E4269BA342BFF4A0
:105510000EAC30215A1C26921970269B9C42F9D859
:1055200005E4229A002A109240F30E82079909F0AE
:1055300001030B4340F07E816626109B0B9319F408
:10554000806F88D019990B78FF2B00F025820024FA
:10555000109A204604E001300131FF2B00F0598100
:10556000934280F25681D21A4B78002BF3D10B78FC
:105570000134F2E7DDE92921FFF7DAB9079B9DF84D
:1055800083200E9406930B9307900F901390109026
:10559000FEF7D6BD0C990A9828AA04F05FFF0028F0
:1055A0007EF429AE229D129B2A9C0DF1AC085D1B56
:1055B000FFF781BA00230793FEF70BBD129B169AE3
:1055C0009A18109B0B92002B40F385816726B6E753
:1055D00030238DF8843058238DF88530079B47F0B1
:1055E0000204632B00F3C48000233BAD0D9347F40A
:1055F00081730F93DDE914121346002B2746C0F286
:1056000084800B9300238B461D9326F02003069382
:10561000612E00F01881412E7FF467AB22AA584614
:105620000B9904F057FE00224FF07F53FBF7A0F8D0
:1056300002460B46CDE9102300220023FBF700FBB6
:1056400008B101232293AD4B0B93079BCDE912A622
:10565000CDE91E78DDE91067AB46DDF82CA003F13B
:10566000FF39109506E00022002309F1FF39FBF70E
:10567000E7FAE8B90022A24B30463946FBF778F842
:105680000F460646FBF724FB0446FBF707F80B46DC
:10569000024639463046FAF7B3FE1AF80430B9F13B
:1056A000FF3FD8464D4606460F460BF8013BDAD180
:1056B000304639460022934BA946DDF848A0109D9C
:1056C000CDF84880CDE91001DDF87C80139E1E9F47
:1056D000FBF7DEFA80BBDDE910010022894BFBF706
:1056E000AFFA08B1E10727D44B46002B06DB302286
:1056F00001335B440BF8012B5B45FBD1ABEB05039E
:10570000B94612930F9FFFF714BB26F020030693B0
:105710002D22DDE914349B4604F100431D920B93C6
:1057200076E7299BFFF75CB9079BEC18E4E6299A1A
:10573000DFF8D491FFF727B8129B26930B9B1BF839
:10574000012CD97B5B468A4209D1302003F8010C39
:10575000269B5A1E269213F8012C9142F6D0392A24
:105760000BBF0B9A0132927AD2B203F8012CC5E733
:105770000A98591C03F0A0FC0546002800F0178188
:105780000D9034E70221009107995A464C1C26A936
:10579000049123A9039122A90B9B0A9801940291D9
:1057A00002F016F80546B9462C440F9FA4E63023B4
:1057B0008DF8843078230FE745468846013332441C
:1057C000072BCDE92932C8F80090C8F804607FF7AC
:1057D000B5AC0C990A9828AA04F040FE00287EF483
:1057E0000AADDDE929320DF1AC08A9E4079B002BD5
:1057F00008BF0123079347F480730F93159B002B79
:10580000C0F2B680DDF850B00D900B931D90FFF7FD
:1058100073BA1991109213900F940F9A139B1C99BD
:1058200013440B9A01FB03230B9323EAE3730693C0
:10583000FFF7E9BA169B6626D31819440B917EE64A
:1058400000230D9364E722AA58460B9904F042FD09
:1058500000224FF07F53FAF78BFF02460B46CDE94B
:10586000102300220023FBF7EBF908B10123229358
:10587000264B0B93E9E66726EDE5109B0B93E2E5DB
:10588000159B0320002BB8BF2D224FF00003A8BFAB
:105890009DF8832019460D931D4D1E4BB8BF8DF802
:1058A000832027F080070690FEF77FBD002944D1B2
:1058B00030228DF892200DF19302303302F8013B33
:1058C00024ABD31A1A93FFF787BA06F10F0201210E
:1058D000D2B2FFF741BAC3F101031A4422EAE273DC
:1058E00067260B920693BAE519F0010F3FF47FAAE1
:1058F000FFF779BA2998FFF77FBB00BF34BB0008D8
:10590000000030400000E03F64BB000820BB0008FE
:1059100018BB00081CBB00085846002200230B9946
:10592000FBF78EF900287FF4E1AD079BC3F101037B
:105930002293DCE5DFF89890ADE40DF19202BCE72C
:10594000299BDFF88C9028E4079A09F0010959EAAD
:10595000020304D10123662606930B937FE5169B71
:10596000662601331A4422EAE2730B92069376E527
:105970000D90CDE60E9B9AF80160924653F8042BE9
:105980000E9342EAE2730793FEF721BB299BDFF8EF
:105990004090B1E4079C06E700230F9313933CE784
:1059A000DFF82C900AE702231A93FFF715BA0C9937
:1059B0008B8943F0400213468A81FEF724BC4FF0E6
:1059C000FF320C2308920A9A1360FEF723BC00BF33
:1059D00064BB00082DE9F04FD5B01C4691460791F5
:1059E0000546099003F0B4FA02680E941046179227
:1059F000FEF770FA16901DB1AB6B002B00F01D8204
:105A0000079A536EDD0740F12D81B2F90C2091B257
:105A10008F0409D4079B42F400529A8191B21A462E
:105A20005B6E23F4005353660E0740F1C080079B62
:105A30001B69002B00F0BB8001F01A030A2B00F059
:105A4000C48000242BAB224698464D46CDE929441C
:105A50002893129400230024CDE914342B78CDE947
:105A60001922CDE91B2218920B92002B00F08F8196
:105A7000AA4604E01AF8013F002B00F0BB80252B5A
:105A8000F8D1BAEB050640F0B9809AF80030002B47
:105A900000F07D8100234FF0FF324FF02B092024CE
:105AA0001F469AF8016008920AF1010A8DF88330C6
:105AB0000A930AF1010AA6F120035A2B00F2E180B1
:105AC000DFE813F00503DF00DF000003DF00DF0085
:105AD000DF00DE02DF00DF006A006E02DF00550239
